{
  "contractName": "ChainId",
  "abi": [
    {
      "inputs": [],
      "name": "getChainId",
      "outputs": [
        {
          "internalType": "uint256",
          "name": "",
          "type": "uint256"
        }
      ],
      "stateMutability": "pure",
      "type": "function"
    }
  ],
  "bytecode": "0x608a610024600b82828239805160001a607314601757fe5b30600052607381538281f3fe730000000000000000000000000000000000000000301460806040526004361060335760003560e01c80633408e470146038575b600080fd5b603e6050565b60408051918252519081900360200190f35b469056fea264697066735822122038ee702ffe728ee4b711a4203f4ef9d6cfa20ee10243349f99c5ff579790681564736f6c63430007010033",
  "immutableReferences": {},
  "source": "pragma solidity ^0.7.1;\n//SPDX-License-Identifier: UNLICENSED\n\nlibrary ChainId {\n    function getChainId() external pure returns (uint256) {\n        uint256 id;\n        assembly {\n            id := chainid()\n        }\n        return id;\n    }\n}\n",
  "sourcePath": "/home/ubuntu/shyft_shyftcorecontracts/contracts/Libraries/ChainId.sol",
  "compiler": {
    "name": "solc",
    "version": "0.7.1+commit.f4a555be.Emscripten.clang"
  },
  "schemaVersion": "3.4.7",
  "updatedAt": "2022-04-19T20:49:41.434Z",
  "devdoc": {
    "kind": "dev",
    "methods": {},
    "version": 1
  },
  "userdoc": {
    "kind": "user",
    "methods": {},
    "version": 1
  }
}