{
  "contractName": "DebruijnBitUtils",
  "abi": [
    {
      "inputs": [],
      "name": "setupDebruijnTable",
      "outputs": [
        {
          "internalType": "bool",
          "name": "result",
          "type": "bool"
        }
      ],
      "stateMutability": "nonpayable",
      "type": "function"
    },
    {
      "inputs": [
        {
          "internalType": "uint32",
          "name": "b",
          "type": "uint32"
        }
      ],
      "name": "debruijn_rightmost_index",
      "outputs": [
        {
          "internalType": "uint32",
          "name": "result",
          "type": "uint32"
        }
      ],
      "stateMutability": "view",
      "type": "function"
    },
    {
      "inputs": [
        {
          "internalType": "uint32",
          "name": "n",
          "type": "uint32"
        }
      ],
      "name": "reverse_bits",
      "outputs": [
        {
          "internalType": "uint32",
          "name": "result",
          "type": "uint32"
        }
      ],
      "stateMutability": "pure",
      "type": "function"
    },
    {
      "inputs": [
        {
          "internalType": "uint32",
          "name": "i",
          "type": "uint32"
        }
      ],
      "name": "numberOfSetBits",
      "outputs": [
        {
          "internalType": "uint32",
          "name": "result",
          "type": "uint32"
        }
      ],
      "stateMutability": "pure",
      "type": "function"
    }
  ],
  "bytecode": "0x60806040526000805463ffffffff191663077cb53117905534801561002357600080fd5b506102d0806100336000396000f3fe608060405234801561001057600080fd5b506004361061004c5760003560e01c80630a361678146100515780630dd1e5791461008d57806337cc1ed8146100b0578063b459b9de146100cc575b600080fd5b6100746004803603602081101561006757600080fd5b503563ffffffff166100ef565b6040805163ffffffff9092168252519081900360200190f35b610074600480360360208110156100a357600080fd5b503563ffffffff1661012d565b6100b861017a565b604080519115158252519081900360200190f35b610074600480360360208110156100e257600080fd5b503563ffffffff166101eb565b600181901c6355555555169003600281901c6333333333908116911601600481901c630fffffff1601630f0f0f0f1663010101010260181c60ff1690565b6000805482820390921663ffffffff90921691909102601b1c601f16906001826020811061015757fe5b600891828204019190066004029054906101000a900463ffffffff169050919050565b6000805b60208160ff1610156101e35760005460ff82169060019063ffffffff16821b601b1c601f16602081106101ad57fe5b600891828204019190066004026101000a81548163ffffffff021916908363ffffffff160217905550808060010191505061017e565b506001905090565b600060018263ffffffff16901c63555555551660016355555555841663ffffffff16901b17915060028263ffffffff16901c63333333331660028363333333331663ffffffff16901b17915060048263ffffffff16901c630f0f0f0f16600483630f0f0f0f1663ffffffff16901b17915060188263ffffffff16901b60088361ff001663ffffffff16901b60088463ffffffff16901c61ff001660188563ffffffff16901c171717905091905056fea26469706673582212203b77431dc839381649efbf01e8966e55a6f8abc7e3e2230008d9363dbcb04ff264736f6c63430007010033",
  "immutableReferences": {},
  "source": "pragma solidity ^0.7.1;\n//SPDX-License-Identifier: UNLICENSED\n\n// 2018 Shyft Inc.\n// Author: Chris F.\n//\n//\n// This contract is solidity translated from I believe C, from a source on the internet\n// discovered whilst searching for bit hacks.\n// this clever Debruijn Sequence is something like \"for every three bit sliding window\n// the pattern does not equal the binary equivalent of another three bit sliding window\"\n// ...\n// the cool part is, this seemingly random string of logic strung together actually is a\n// completely valid mathematical marvel that allows us to create a lookup table of this\n// string of 1's and 0's, and with one AND, one multiply, one right shift, and 3 assignments\n// into memory, we can get the rightmost bit (lower endian systems).\n//\n// shifting is defined in solidity as:\n// \"case Token::SHL:\n//\t\tm_context << Instruction::SWAP1 << u256(2) << Instruction::EXP << Instruction::MUL;\"\n// (https://github.com/ethereum/solidity/pull/1487/commits/b8b4f5e9f9a89eac1218551b5da322b41c7813f4)\n// and EXP is defined in the evm gas cost manual as:\n// \"If exponent is 0, gas used is 10. If exponent is greater than 0, gas used is 10 plus 10\n//  times a factor related to how large the log of the exponent is.\"\n// (https://docs.google.com/spreadsheets/d/1n6mRqkBz3iWcOlRem_mO09GtSKEKrAsfO7Frgx18pNU/edit#gid=0)\n//\n// so the total cost is 3 + 5 + ( 10 + (0 ..> 4 * 10) ) for an average cost of 8 + 30 = 38 gas.\n// not bad!!\n// the general strategy afterwards is to AND the resultant bit with the field set to zero and\n// each of the other 31 bits set to 1, to reduce that bit out of the field. then this operation\n// can be ran again to find the next rightmost bit set.\n//\n// clever use of this allows for a very large field size, and when properly pre-calculated\n// (say for example in the Shyft KYC smart contract) sparse fields can be compared with very\n// little cost compared to direct array iteration.\n//\n//\n// To reverse a 32 bit string (sometimes necessary depending on other operations) we can do\n// 10 shifts, 8 ANDs, and 6 ors, with 3 assignments into memory.\n//\n// one more assignment can be used (which is not to allow for in-solidity debugging.\n\ncontract DebruijnBitUtils {\n    uint32 debruijn32 = 0x077CB531;\n    /* debruijn32 = 0000 0111 0111 1100 1011 0101 0011 0001 */\n    /* table to convert debruijn index to standard index */\n    uint32[32] index32;\n    /* routine to initialize index32 */\n\n    //returns:\n    // true\n\n    function setupDebruijnTable() public returns (bool result){\n        for (uint8 i = 0; i < 32; i++) {\n            index32[ (debruijn32 << i) >> 27 ] = i;\n        }\n\n        return true;\n    }\n    \n    /* compute index of rightmost 1 */\n    function debruijn_rightmost_index(uint32 b) public view returns (uint32 result)\n    {\n        b &= -b;\n        b *= debruijn32;\n        b >>= 27;\n        // uint32 value = b;\n        return index32[b];\n    }\n    \n    function reverse_bits(uint32 n) public pure returns (uint32 result) {\n        // note: mutating formal parameter\n        n = ((n & uint32(0x55555555)) << 1) | ((n >> 1) & 0x55555555);\n        n = ((n & 0x33333333) << 2) | ((n >> 2) & 0x33333333);\n        n = ((n & 0x0F0F0F0F) << 4) | ((n >> 4) & 0x0F0F0F0F);\n\n//        uint32 value = (n >> 24) | ((n >> 8) & 0xFF00) | ((n & 0xFF00) << 8) | (n << 24);\n        return (n >> 24) | ((n >> 8) & 0xFF00) | ((n & 0xFF00) << 8) | (n << 24);\n    }\n\n    function numberOfSetBits(uint32 i) public pure returns (uint32 result) {\n        // note: mutating formal parameter\n        i = i - ((i >> 1) & 0x55555555);\n        i = (i & 0x33333333) + ((i >> 2) & 0x33333333);\n        return (((i + (i >> 4)) & 0x0F0F0F0F) * 0x01010101) >> 24;\n    }\n}\n",
  "sourcePath": "/home/ubuntu/shyft_shyftcorecontracts/contracts/DebruijnBitUtils.sol",
  "compiler": {
    "name": "solc",
    "version": "0.7.1+commit.f4a555be.Emscripten.clang"
  },
  "schemaVersion": "3.4.7",
  "updatedAt": "2022-04-19T20:49:40.383Z",
  "devdoc": {
    "kind": "dev",
    "methods": {},
    "version": 1
  },
  "userdoc": {
    "kind": "user",
    "methods": {},
    "version": 1
  }
}