{
  "contractName": "DIDTrustAnchor",
  "abi": [
    {
      "inputs": [
        {
          "internalType": "uint256",
          "name": "_minimumRequiredStake",
          "type": "uint256"
        }
      ],
      "stateMutability": "nonpayable",
      "type": "constructor"
    },
    {
      "inputs": [
        {
          "internalType": "address",
          "name": "_trustAnchorStorageAddress",
          "type": "address"
        }
      ],
      "name": "setTrustAnchorStorageAddress",
      "outputs": [
        {
          "internalType": "uint8",
          "name": "result",
          "type": "uint8"
        }
      ],
      "stateMutability": "nonpayable",
      "type": "function"
    },
    {
      "inputs": [
        {
          "internalType": "bytes32",
          "name": "_didKeccak",
          "type": "bytes32"
        },
        {
          "internalType": "address",
          "name": "_owner",
          "type": "address"
        },
        {
          "internalType": "address",
          "name": "_dataAddress",
          "type": "address"
        }
      ],
      "name": "createDID",
      "outputs": [
        {
          "internalType": "uint8",
          "name": "result",
          "type": "uint8"
        }
      ],
      "stateMutability": "payable",
      "type": "function"
    },
    {
      "inputs": [
        {
          "internalType": "bytes32",
          "name": "_didKeccak",
          "type": "bytes32"
        },
        {
          "internalType": "address payable",
          "name": "_contractStoreDestination",
          "type": "address"
        }
      ],
      "name": "removeDID",
      "outputs": [
        {
          "internalType": "uint16",
          "name": "result",
          "type": "uint16"
        }
      ],
      "stateMutability": "nonpayable",
      "type": "function"
    },
    {
      "inputs": [
        {
          "internalType": "bytes32",
          "name": "_didKeccak",
          "type": "bytes32"
        },
        {
          "internalType": "address",
          "name": "_identifiedAddress",
          "type": "address"
        },
        {
          "internalType": "uint16",
          "name": "_jurisdiction",
          "type": "uint16"
        },
        {
          "internalType": "uint64",
          "name": "_effectiveTime",
          "type": "uint64"
        },
        {
          "internalType": "uint64",
          "name": "_expiryTime",
          "type": "uint64"
        },
        {
          "internalType": "bytes",
          "name": "_publicData",
          "type": "bytes"
        },
        {
          "internalType": "bytes",
          "name": "_documentsMatrixEncrypted",
          "type": "bytes"
        },
        {
          "internalType": "bool",
          "name": "_isManaged",
          "type": "bool"
        }
      ],
      "name": "prebakeDID",
      "outputs": [
        {
          "internalType": "uint8",
          "name": "result",
          "type": "uint8"
        }
      ],
      "stateMutability": "nonpayable",
      "type": "function"
    },
    {
      "inputs": [
        {
          "internalType": "bytes32",
          "name": "_attestationKeccak",
          "type": "bytes32"
        },
        {
          "internalType": "uint8",
          "name": "_attestationValidityTrustAnchorSignatureV",
          "type": "uint8"
        },
        {
          "internalType": "bytes32[2]",
          "name": "_attestationValidityTrustAnchorSignatureRS",
          "type": "bytes32[2]"
        },
        {
          "internalType": "uint8",
          "name": "_attestationValidityUserSignatureV",
          "type": "uint8"
        },
        {
          "internalType": "bytes32[2]",
          "name": "_attestationValidityUserSignatureRS",
          "type": "bytes32[2]"
        }
      ],
      "name": "signDID",
      "outputs": [
        {
          "internalType": "uint8",
          "name": "result",
          "type": "uint8"
        }
      ],
      "stateMutability": "nonpayable",
      "type": "function"
    },
    {
      "inputs": [
        {
          "internalType": "bytes32",
          "name": "didKeccak",
          "type": "bytes32"
        }
      ],
      "name": "getDataAddress",
      "outputs": [
        {
          "internalType": "address",
          "name": "dataAddress",
          "type": "address"
        }
      ],
      "stateMutability": "view",
      "type": "function"
    }
  ],
  "bytecode": "0x60806040526000805462ff00001961ffff199091166180001716905562040000600355600480546001600160a01b031990811690915560058054909116905534801561004a57600080fd5b50604051610a0d380380610a0d8339818101604052602081101561006d57600080fd5b5051600580546001600160a01b031916331790556000805462ff0000191662010000179055600355610969806100a46000396000f3fe6080604052600436106100555760003560e01c806311129e741461005a5780632228e5ba146100aa57806371457397146100f05780639245749c14610139578063ba281b77146102b0578063cd48104e1461034e575b600080fd5b34801561006657600080fd5b506100936004803603604081101561007d57600080fd5b50803590602001356001600160a01b0316610382565b6040805161ffff9092168252519081900360200190f35b3480156100b657600080fd5b506100d4600480360360208110156100cd57600080fd5b5035610422565b604080516001600160a01b039092168252519081900360200190f35b3480156100fc57600080fd5b506101236004803603602081101561011357600080fd5b50356001600160a01b0316610444565b6040805160ff9092168252519081900360200190f35b34801561014557600080fd5b50610123600480360361010081101561015d57600080fd5b8135916001600160a01b036020820135169161ffff6040830135169167ffffffffffffffff60608201358116926080830135909116919081019060c0810160a08201356401000000008111156101b257600080fd5b8201836020820111156101c457600080fd5b803590602001918460018302840111640100000000831117156101e657600080fd5b91908080601f016020809104026020016040519081016040528093929190818152602001838380828437600092019190915250929594936020810193503591505064010000000081111561023957600080fd5b82018360208201111561024b57600080fd5b8035906020019184600183028401116401000000008311171561026d57600080fd5b91908080601f0160208091040260200160405190810160405280939291908181526020018383808284376000920191909152509295505050503515159050610491565b3480156102bc57600080fd5b50610123600480360360e08110156102d357600080fd5b60408051808201825283359360ff602082013516938101929091608083019180840190600290839083908082843760009201919091525050604080518082018252929560ff85351695909490936060820193509160209091019060029083908390808284376000920191909152509194506106eb9350505050565b6101236004803603606081101561036457600080fd5b508035906001600160a01b0360208201358116916040013516610881565b600082815260016020526040812080546201000090046001600160a01b031633141561041657805461ffff191661ffff1781556002810180546000918290556001830180546001600160a01b031916905560405190916001600160a01b0386169183156108fc0291849190818181858888f1935050505015801561040a573d6000803e3d6000fd5b5060019250505061041c565b60009150505b92915050565b600081815260016020819052604090912001546001600160a01b03165b919050565b600061044e61090e565b15610489576001600160a01b03821661046657600080fd5b50600480546001600160a01b0319166001600160a01b038316179055600161043f565b50600061043f565b600080546201000061ffff9182169189169190910163ffffffff1610156106db576000898152600160205260409020546201000090046001600160a01b03163314156106d3576000600460009054906101000a90046001600160a01b03169050600080826001600160a01b031663762435738c8c60008054906101000a900461ffff16018c8c8c8c3060601b6bffffffffffffffffffffffff19168d6040518963ffffffff1660e01b815260040180896001600160a01b031681526020018861ffff1681526020018767ffffffffffffffff1681526020018667ffffffffffffffff16815260200180602001806020018581526020018415158152602001838103835287818151815260200191508051906020019080838360005b838110156105c45781810151838201526020016105ac565b50505050905090810190601f1680156105f15780820380516001836020036101000a031916815260200191505b50838103825286518152865160209182019188019080838360005b8381101561062457818101518382015260200161060c565b50505050905090810190601f1680156106515780820380516001836020036101000a031916815260200191505b509a50505050505050505050506040805180830381600087803b15801561067757600080fd5b505af115801561068b573d6000803e3d6000fd5b505050506040513d60408110156106a157600080fd5b5080516020909101519092509050600360ff831614156106c757600393505050506106df565b600293505050506106df565b5060016106df565b5060005b98975050505050505050565b600480546040805162c6cd1960e31b815292830188815260ff881660248501526000936001600160a01b0390931692839263063668c8928b928b928b92916044019083908083838d5b8381101561074c578181015183820152602001610734565b505050509050019350505050602060405180830381600087803b15801561077257600080fd5b505af1158015610786573d6000803e3d6000fd5b505050506040513d602081101561079c57600080fd5b505160ff166003141561087257806001600160a01b031663363e8af68886866040518463ffffffff1660e01b8152600401808481526020018360ff16815260200182600260200280838360005b838110156108015781810151838201526020016107e9565b505050509050019350505050602060405180830381600087803b15801561082757600080fd5b505af115801561083b573d6000803e3d6000fd5b505050506040513d602081101561085157600080fd5b505160ff1660031415610868576002915050610878565b6001915050610878565b60009150505b95945050505050565b600060035434101561089257600080fd5b60008481526001602052604090205461ffff1661005557506000928352600160208190526040909320805461ffff1916841762010000600160b01b031916620100006001600160a01b039485160217815580840180546001600160a01b0319169290931691909117909155346002918201819055815401905590565b6005546000906001600160a01b031633141561092c57506001610930565b5060005b9056fea2646970667358221220211bc1f4b2ef5922f88045b13ce6db8fe32db3cc39ae9bd3d46d4863685fa0d464736f6c63430007010033",
  "immutableReferences": {},
  "source": "pragma solidity ^0.7.1;\n//SPDX-License-Identifier: UNLICENSED\n\nimport \"./DataModels/DMTrustAnchor.sol\";\nimport \"./Interfaces/ITrustAnchorStorage.sol\";\n\n// a connector to the Decentralized IDentity standard [DID] https://w3c-ccg.github.io/did-spec\n// There is a Shyft contract mediating interfaces between the native attestation system of Shyft, and the\n// decentralized identities system.\n\n// The data store is mediated by external contracts, and this function acts as a custom Trust Anchor\n// with no data retrieval asset pipelines.\n\n// The primary difficulty in constructing asset custody chains with external references is the source\n// of truth of the origin of the attestations. Having an external mediating entity (oracle) does no good\n// when the transfer needs to occur in an atomic fashion.\n\n// Due to this process, the Trust Channel this Trust Anchor corresponds to may need to have asset transmission\n// limitations or enhanced biometric requirements.\n\n// Similarly, attestations produced by this Trust Anchor could act as a fundamental interface layer which\n// the data retrieval contracts could use in an asynchronous fashion. Other Trust Anchors may want to\n// subscribe to this Trust Anchor's Trust Channel to allow their users to maintain a probablistic\n// Source of Funds [SOF] when transacting with other users within the extended Trust Channel.\n\n// The Trust Channel this Trust Anchor creates is within the extended field [2048+] which is an additional\n// lookup series which creates an additional transaction cost by the additional complexity. It will thusly\n// still be in the user's best interest to associate with a Trust Anchor and hence Trust Channels of a\n// smaller order.\n\n// The creation and application of a DID on the Shyft Extended Trust Anchor system is a multi-stage process.\n//\n// (1) The first is the creation of the DID itself, where the data storage pointer and owner are set, and\n// a contract storage fee is paid which effectively stakes the DID itself on the Shyft network.\n//\n// (2) The second step is an attestation application function, specifying the address to perform the\n// attestation upon. This stage requires enough Shyft fuel to properly \"bake\" the attestation into the user's\n// connectivity graph.\n//\n// (3) The third stage is that the user would trigger a consent message on their own attestation.\n//\n// (4) The fourth stage is that (a) party may bake that attestation into the user's connectivity graph. This\n// creates a consent-layer connectivity to the user's trust channel graph, enabling enhanced functionality.\n\n// ######## GDPR/PII info #######\n//\n// The record being removed zeros out the balance of the did's presence/stake, and\n// zeros out the dataAddress (hence making it a data piece that pruning node instances\n// can have the option of never storing). This is a financial transaction which is\n// required to remain known for the public ledger system to function.\n\ncontract DIDTrustAnchor is DMTrustAnchor {\n\n    struct didStructure {\n        uint16 version;\n\n        address owner;\n\n        //@note: this links to an external smart contract which can load data.\n        address dataAddress;\n        uint256 contractStore;\n    }\n\n    mapping(bytes32 => didStructure) didRegistry;\n    uint256 totalStore;\n\n    uint256 minimumRequiredStake = 2 ** 18;\n\n    address trustAnchorStorageAddress = address(0);\n\n    address owner = address(0);\n\n    //@note:@todo:@next:@internalaudit: should this contract have \"Administrable\" style multisig involved for the setting\n    // of the contract relationships?\n\n    function isOwner() internal view returns (bool result) {\n        if (msg.sender == owner) {\n            //is owner\n            return true;\n        } else {\n            //not owner\n            return false;\n        }\n    }\n\n    /// @param _trustAnchorStorageAddress The smart contract address for the Trust Anchor Storage that should be linked.\n    /// @dev Links Trust Anchor Storage to this contract's function flow\n    /// @return result\n    ///    | 0: not owner\n    ///    | 1: set trust anchor storage address\n\n    function setTrustAnchorStorageAddress(address _trustAnchorStorageAddress) public returns (uint8 result) {\n        if (isOwner()) {\n            require(_trustAnchorStorageAddress != address(0));\n\n            //@note:@todo:@next:@internalaudit: what happens to the existing attestations when we change these relationships?\n            // example: 1) should they all be revoked?\n            //  or 2) should all of their consent be revoked?\n            //  etc.\n            trustAnchorStorageAddress = _trustAnchorStorageAddress;\n\n            //set trustAnchorStorageAddress\n            return 1;\n        } else {\n            //not owner\n            return 0;\n        }\n    }\n\n    constructor(uint256 _minimumRequiredStake) {\n        owner = msg.sender;\n\n        extendedModeJurisdiction = true;\n        minimumRequiredStake = _minimumRequiredStake;\n    }\n\n    //@note: This function creates a DID record within Shyft.\n\n    //returns:\n    // 1 = successfully created DID record\n\n    //@note:@here: didKeccak is an externally generated key that hashes the data inside of the did record.\n\n    function createDID(bytes32 _didKeccak, address _owner, address _dataAddress) public payable returns(uint8 result) {\n        // make sure that the value being staked for this DID is above the minimum requirement.\n        if (msg.value < minimumRequiredStake) {\n            revert();\n        }\n\n        if  (didRegistry[_didKeccak].version == 0) {\n            didStructure storage didStruct = didRegistry[_didKeccak];\n            didStruct.version = 1;\n            didStruct.owner = _owner;\n            didStruct.dataAddress = _dataAddress;\n            didStruct.contractStore = msg.value;\n            totalStore += msg.value;\n\n            // successfully created DID record\n            return 1;\n        } else {\n            //revert because of the financial transaction.\n            revert();\n        }\n    }\n\n    //@note: removes the DID record from the platform. the funds used to stake to this DID are returned to\n    // the owner, or another counterparty the owner proscribes to.\n\n    //returns:\n    // 0 = not owner\n    // 1 = successfully removed DID record\n\n    function removeDID(bytes32 _didKeccak, address payable _contractStoreDestination) public returns (uint16 result) {\n        didStructure storage didStruct = didRegistry[_didKeccak];\n        if (msg.sender == didStruct.owner) {\n            didStruct.version = uint16(2 ** 16 - 1);\n\n            //@note:@todo:@next:@critical:@safemath\n            uint256 valueStored = didStruct.contractStore;\n\n//            totaLStore -= valueStored;\n            didStruct.contractStore = 0;\n            didStruct.dataAddress = address(0);\n\n            _contractStoreDestination.transfer(valueStored);\n\n            //successfully removed DID record\n            return 1;\n        } else {\n            //not the owner\n            return 0;\n        }\n    }\n\n//    function setAttestation(address _identifiedAddress,\n//        uint16 _jurisdiction,\n//        uint64 _effectiveTime,\n//        uint64 _expiryTime,\n//        bytes memory _publicData,\n//        bytes memory _documentsMatrixEncrypted,\n//        bytes32 _availabilityAddressEncrypted) public returns (uint8 result);\n\n    //@note:@here: This function prebakes (sets data, sets all the consent etc.) for a specific did.\n    // This includes setting the attestation within the Trust Anchor Storage function.\n\n    //returns:\n    //0 = extended jurisdiction overflow present\n    // 1 = message sender is not did owner\n    // 2 = attestation did not complete\n\n    // @note: the following two return values actually revert this whole transaction as data was set up within\n    // the Trust Anchor Storage.\n\n    // 3 = trust anchor signature not correct\n    // 4 = user signature not correct\n    // 5 = attestation set correctly, not yet baked\n\n    function prebakeDID(bytes32 _didKeccak,\n                     address _identifiedAddress,\n                     uint16 _jurisdiction,\n                     uint64 _effectiveTime,\n                     uint64 _expiryTime,\n                     bytes memory _publicData,\n                     bytes memory _documentsMatrixEncrypted,\n                     bool _isManaged) public returns (uint8 result) {\n\n        // check whether the jurisdiction input plus the \"extended jurisdiction\" would cause\n        // an overflow.\n        if (uint32(_jurisdiction) + uint32(DMTrustAnchor.extendedJurisdiction) < 2 ** 16) {\n//            didStructure storage didStruct = didRegistry[_didKeccak];\n\n            if (didRegistry[_didKeccak].owner == msg.sender) {\n                ITrustAnchorStorage trustAnchorStorage = ITrustAnchorStorage(trustAnchorStorageAddress);\n                uint8 setResult;\n                bytes32 attestationKeccak;\n\n                (setResult, attestationKeccak) = trustAnchorStorage.setAttestation( _identifiedAddress,\n                    DMTrustAnchor.extendedJurisdiction + _jurisdiction,\n                    _effectiveTime,\n                    _expiryTime,\n                    _publicData,\n                    _documentsMatrixEncrypted,\n                    bytes32(bytes20(address(this))),\n                    _isManaged);\n                //@note:@todo:@next:@here:@critical: needed refactoring, maybe link together this and sign w/ a\n                // state machine.\n\n                if (setResult == 3) {\n                    //attestation set correctly, not yet baked\n                    return 3;\n                } else {\n                    //attestation did not complete\n                    return 2;\n                }\n            } else {\n                //message sender is not did owner\n                return 1;\n            }\n        } else {\n            //extended jurisdiction overflow present\n            return 0;\n        }\n    }\n\n    function signDID(bytes32 _attestationKeccak,\n                    uint8 _attestationValidityTrustAnchorSignatureV,\n                    bytes32[2] memory _attestationValidityTrustAnchorSignatureRS,\n                    uint8 _attestationValidityUserSignatureV,\n                    bytes32[2] memory _attestationValidityUserSignatureRS\n                    ) public returns (uint8 result) {\n        ITrustAnchorStorage trustAnchorStorage = ITrustAnchorStorage(trustAnchorStorageAddress);\n        //@note:@todo:@next:@here:@critical: needed refactoring, maybe link together this and sign w/ a\n        // state machine.\n        if (trustAnchorStorage.signAttestationTrustAnchorSignature(_attestationKeccak, _attestationValidityTrustAnchorSignatureV, _attestationValidityTrustAnchorSignatureRS) == 3) {\n            if (trustAnchorStorage.signAttestationUserSignature(_attestationKeccak, _attestationValidityUserSignatureV, _attestationValidityUserSignatureRS) == 3) {\n                //@note:@here:@todo:@next: make this a required component?\n                //            trustAnchorStorage.compileAttestation()\n\n                //attestation set correctly, not yet baked\n                return 2;\n            } else {\n                //user signature not correct @note: reverts since an attestation was set.\n                return 1;\n            }\n        } else {\n            //trust anchor signature not correct.\n            return 0;\n        }\n    }\n\n    //returns:\n    // address = address of linked data structure.\n    function getDataAddress(bytes32 didKeccak) public view returns (address dataAddress) {\n        didStructure storage didStruct = didRegistry[didKeccak];\n\n        return didStruct.dataAddress;\n    }\n}\n",
  "sourcePath": "/home/ubuntu/shyft_shyftcorecontracts/contracts/TrustAnchor_DIDConnector.sol",
  "compiler": {
    "name": "solc",
    "version": "0.7.1+commit.f4a555be.Emscripten.clang"
  },
  "schemaVersion": "3.4.5",
  "updatedAt": "2022-02-22T18:23:51.113Z",
  "devdoc": {
    "kind": "dev",
    "methods": {
      "setTrustAnchorStorageAddress(address)": {
        "details": "Links Trust Anchor Storage to this contract's function flow",
        "params": {
          "_trustAnchorStorageAddress": "The smart contract address for the Trust Anchor Storage that should be linked."
        },
        "returns": {
          "result": "   | 0: not owner    | 1: set trust anchor storage address"
        }
      }
    },
    "version": 1
  },
  "userdoc": {
    "kind": "user",
    "methods": {},
    "version": 1
  }
}