{
  "contractName": "ExampleBlockReward",
  "abi": [
    {
      "inputs": [
        {
          "internalType": "address",
          "name": "_systemAddress",
          "type": "address"
        }
      ],
      "stateMutability": "nonpayable",
      "type": "constructor"
    },
    {
      "inputs": [
        {
          "internalType": "address[]",
          "name": "benefactors",
          "type": "address[]"
        },
        {
          "internalType": "uint16[]",
          "name": "kind",
          "type": "uint16[]"
        }
      ],
      "name": "reward",
      "outputs": [
        {
          "internalType": "address[]",
          "name": "",
          "type": "address[]"
        },
        {
          "internalType": "uint256[]",
          "name": "",
          "type": "uint256[]"
        }
      ],
      "stateMutability": "view",
      "type": "function"
    }
  ],
  "bytecode": "0x676780a59b73642c00600181815560028281556003838155600493845567cf014b36e6c8580060055560006006819055610100604052608090815260a09390935260c09190915260e0526100569160079190610120565b5060405180608001604052806003548152602001600454815260200160055481526020016006548152506008906004610090929190610170565b5034801561009d57600080fd5b506040516104c13803806104c1833981810160405260208110156100c057600080fd5b5051600080546001600160a01b0319166001600160a01b0383161781555b60075481101561011957600881815481106100f557fe5b600091825260208083209091015483835260099091526040909120556001016100de565b50506101c0565b828054828255906000526020600020908101928215610160579160200282015b82811115610160578251829060ff16905591602001919060010190610140565b5061016c9291506101ab565b5090565b828054828255906000526020600020908101928215610160579160200282015b82811115610160578251825591602001919060010190610190565b5b8082111561016c57600081556001016101ac565b6102f2806101cf6000396000f3fe608060405234801561001057600080fd5b506004361061002b5760003560e01c8063f91c289814610030575b600080fd5b6101576004803603604081101561004657600080fd5b81019060208101813564010000000081111561006157600080fd5b82018360208201111561007357600080fd5b8035906020019184602083028401116401000000008311171561009557600080fd5b91908080602002602001604051908101604052809392919081815260200183836020028082843760009201919091525092959493602081019350359150506401000000008111156100e557600080fd5b8201836020820111156100f757600080fd5b8035906020019184602083028401116401000000008311171561011957600080fd5b9190808060200260200160405190810160405280939291908181526020018383602002808284376000920191909152509295506101f0945050505050565b604051808060200180602001838103835285818151815260200191508051906020019060200280838360005b8381101561019b578181015183820152602001610183565b50505050905001838103825284818151815260200191508051906020019060200280838360005b838110156101da5781810151838201526020016101c2565b5050505090500194505050505060405180910390f35b60005460609081906001600160a01b0316331461020c57600080fd5b825184511461021a57600080fd5b6060845167ffffffffffffffff8111801561023457600080fd5b5060405190808252806020026020018201604052801561025e578160200160208202803683370190505b50905060005b81518110156102b357600081815260096020526040902054156102ab57600081815260096020526040902054825183908390811061029e57fe5b6020026020010181815250505b600101610264565b5093949250505056fea26469706673582212207df43f3487f4b823e450b64c7874ade245fa634e320fda2902d00b24e26d700d64736f6c63430007010033",
  "immutableReferences": {},
  "source": "// Copyright 2018 Parity Technologies (UK) Ltd.\n//SPDX-License-Identifier: APACHE\n//\n// Licensed under the Apache License, Version 2.0 (the \"License\");\n// you may not use this file except in compliance with the License.\n// You may obtain a copy of the License at\n//\n//     http://www.apache.org/licenses/LICENSE-2.0\n//\n// Unless required by applicable law or agreed to in writing, software\n// distributed under the License is distributed on an \"AS IS\" BASIS,\n// WITHOUT WARRANTIES OR CONDITIONS OF ANY KIND, either express or implied.\n// See the License for the specific language governing permissions and\n// limitations under the License.\n\n//@note:@shyft:\n// updated for solidity 7.1\n// added shyft inflation values & appropriate mapping for reward structures\n\n\n// Example block reward contract.\n\npragma solidity ^0.7.1;\n\nimport \"../Interfaces/IBlockReward.sol\";\n\n//0x5B38Da6a701c568545dCfcB03FcB875f56beddC4\n//0xAb8483F64d9C6d1EcF9b849Ae677dD3315835cb2\n//0x4B20993Bc481177ec7E8f571ceCaE8A9e22C02db\n//0x78731D3Ca6b7E34aC0F824c42a7cC18A495cabaB\n//[\"0x5B38Da6a701c568545dCfcB03FcB875f56beddC4\",\"0xAb8483F64d9C6d1EcF9b849Ae677dD3315835cb2\",\"0x4B20993Bc481177ec7E8f571ceCaE8A9e22C02db\",\"0x78731D3Ca6b7E34aC0F824c42a7cC18A495cabaB\"], [1,2,3,4]\n//[\"0x5B38Da6a701c568545dCfcB03FcB875f56beddC4\"], [1]\ncontract ExampleBlockReward is IBlockReward {\n    address systemAddress;\n\n    uint runtimeInflationReward = 7.45814307 ether;\n    uint stakingPoolReward = 7.45814307 ether;\n\n    uint sealerReward = 7.45814307 ether;\n    uint emptyStepReward = 7.45814307 ether;\n    uint externalReward = runtimeInflationReward + stakingPoolReward; // for runtime & staking\n    uint uncleReward = 0 ether;\n\n    uint[] steps = [0, 1, 2, 3];\n    uint[] stepValues = [sealerReward, emptyStepReward, externalReward, uncleReward];\n\n    mapping(uint=>uint) stepMap;\n\n    modifier onlySystem() {\n        require(msg.sender == systemAddress);\n        _;\n    }\n\n    constructor(address _systemAddress)\n    {\n        /* systemAddress = 0xffffFFFfFFffffffffffffffFfFFFfffFFFfFFfE; */\n        systemAddress = _systemAddress;\n\n        for (uint i = 0; i < steps.length; i++) {\n            stepMap[i] = stepValues[i];\n        }\n    }\n\n    // produce rewards for the given benefactors, with corresponding reward codes.\n    // only callable by `SYSTEM_ADDRESS`\n    function reward(address[] memory benefactors, uint16[] memory kind)\n    external\n    override\n    view\n    onlySystem\n    returns (address[] memory, uint256[] memory)\n    {\n        require(benefactors.length == kind.length);\n        uint256[] memory rewards = new uint256[](benefactors.length);\n\n        for (uint i = 0; i < rewards.length; i++) {\n            if (stepMap[i] != 0) {\n                rewards[i] = stepMap[i];\n            }\n        }\n\n        return (benefactors, rewards);\n    }\n}",
  "sourcePath": "/home/ubuntu/shyft_shyftcorecontracts/contracts/BlockRewards/ExampleBlockReward.sol",
  "compiler": {
    "name": "solc",
    "version": "0.7.1+commit.f4a555be.Emscripten.clang"
  },
  "schemaVersion": "3.4.5",
  "updatedAt": "2022-02-22T18:32:56.626Z",
  "devdoc": {
    "kind": "dev",
    "methods": {},
    "version": 1
  },
  "userdoc": {
    "kind": "user",
    "methods": {},
    "version": 1
  }
}