{
  "contractName": "RelayedOwnedSet",
  "abi": [
    {
      "inputs": [
        {
          "internalType": "address",
          "name": "_relaySet",
          "type": "address"
        },
        {
          "internalType": "address[]",
          "name": "_initial",
          "type": "address[]"
        }
      ],
      "stateMutability": "nonpayable",
      "type": "constructor"
    },
    {
      "anonymous": false,
      "inputs": [
        {
          "indexed": false,
          "internalType": "address[]",
          "name": "currentSet",
          "type": "address[]"
        }
      ],
      "name": "ChangeFinalized",
      "type": "event"
    },
    {
      "anonymous": false,
      "inputs": [
        {
          "indexed": true,
          "internalType": "address",
          "name": "old",
          "type": "address"
        },
        {
          "indexed": true,
          "internalType": "address",
          "name": "current",
          "type": "address"
        }
      ],
      "name": "NewOwner",
      "type": "event"
    },
    {
      "anonymous": false,
      "inputs": [
        {
          "indexed": true,
          "internalType": "address",
          "name": "reporter",
          "type": "address"
        },
        {
          "indexed": true,
          "internalType": "address",
          "name": "reported",
          "type": "address"
        },
        {
          "indexed": true,
          "internalType": "bool",
          "name": "malicious",
          "type": "bool"
        }
      ],
      "name": "Report",
      "type": "event"
    },
    {
      "inputs": [
        {
          "internalType": "address",
          "name": "_validator",
          "type": "address"
        }
      ],
      "name": "addValidator",
      "outputs": [],
      "stateMutability": "nonpayable",
      "type": "function"
    },
    {
      "inputs": [],
      "name": "finalized",
      "outputs": [
        {
          "internalType": "bool",
          "name": "",
          "type": "bool"
        }
      ],
      "stateMutability": "view",
      "type": "function"
    },
    {
      "inputs": [
        {
          "internalType": "address",
          "name": "_someone",
          "type": "address"
        }
      ],
      "name": "getIsValidator",
      "outputs": [
        {
          "internalType": "bool",
          "name": "result",
          "type": "bool"
        }
      ],
      "stateMutability": "view",
      "type": "function"
    },
    {
      "inputs": [],
      "name": "getNumValidators",
      "outputs": [
        {
          "internalType": "uint256",
          "name": "result",
          "type": "uint256"
        }
      ],
      "stateMutability": "view",
      "type": "function"
    },
    {
      "inputs": [],
      "name": "getPending",
      "outputs": [
        {
          "internalType": "address[]",
          "name": "",
          "type": "address[]"
        }
      ],
      "stateMutability": "view",
      "type": "function"
    },
    {
      "inputs": [],
      "name": "getValidators",
      "outputs": [
        {
          "internalType": "address[]",
          "name": "",
          "type": "address[]"
        }
      ],
      "stateMutability": "view",
      "type": "function"
    },
    {
      "inputs": [],
      "name": "owner",
      "outputs": [
        {
          "internalType": "address",
          "name": "",
          "type": "address"
        }
      ],
      "stateMutability": "view",
      "type": "function"
    },
    {
      "inputs": [],
      "name": "recentBlocks",
      "outputs": [
        {
          "internalType": "uint256",
          "name": "",
          "type": "uint256"
        }
      ],
      "stateMutability": "view",
      "type": "function"
    },
    {
      "inputs": [],
      "name": "relaySet",
      "outputs": [
        {
          "internalType": "contract RelaySet",
          "name": "",
          "type": "address"
        }
      ],
      "stateMutability": "view",
      "type": "function"
    },
    {
      "inputs": [
        {
          "internalType": "address",
          "name": "_validator",
          "type": "address"
        }
      ],
      "name": "removeValidator",
      "outputs": [],
      "stateMutability": "nonpayable",
      "type": "function"
    },
    {
      "inputs": [
        {
          "internalType": "address",
          "name": "_new",
          "type": "address"
        }
      ],
      "name": "setOwner",
      "outputs": [],
      "stateMutability": "nonpayable",
      "type": "function"
    },
    {
      "inputs": [
        {
          "internalType": "uint256",
          "name": "_recentBlocks",
          "type": "uint256"
        }
      ],
      "name": "setRecentBlocks",
      "outputs": [],
      "stateMutability": "nonpayable",
      "type": "function"
    },
    {
      "inputs": [
        {
          "internalType": "address",
          "name": "_reporter",
          "type": "address"
        },
        {
          "internalType": "address",
          "name": "_validator",
          "type": "address"
        },
        {
          "internalType": "uint256",
          "name": "_blockNumber",
          "type": "uint256"
        }
      ],
      "name": "relayReportBenign",
      "outputs": [],
      "stateMutability": "nonpayable",
      "type": "function"
    },
    {
      "inputs": [
        {
          "internalType": "address",
          "name": "_reporter",
          "type": "address"
        },
        {
          "internalType": "address",
          "name": "_validator",
          "type": "address"
        },
        {
          "internalType": "uint256",
          "name": "_blockNumber",
          "type": "uint256"
        },
        {
          "internalType": "bytes",
          "name": "_proof",
          "type": "bytes"
        }
      ],
      "name": "relayReportMalicious",
      "outputs": [],
      "stateMutability": "nonpayable",
      "type": "function"
    },
    {
      "inputs": [
        {
          "internalType": "address",
          "name": "_relaySet",
          "type": "address"
        }
      ],
      "name": "setRelay",
      "outputs": [],
      "stateMutability": "nonpayable",
      "type": "function"
    },
    {
      "inputs": [],
      "name": "finalizeChange",
      "outputs": [],
      "stateMutability": "nonpayable",
      "type": "function"
    }
  ],
  "bytecode": "0x6080604052600080546001600160a01b0319163317905560146001553480156200002857600080fd5b506040516200105338038062001053833981810160405260408110156200004e57600080fd5b8151602083018051604051929492938301929190846401000000008211156200007657600080fd5b9083019060208201858111156200008c57600080fd5b8251866020820283011164010000000082111715620000aa57600080fd5b82525081516020918201928201910280838360005b83811015620000d9578181015183820152602001620000bf565b50505050905001604052505050808060039080519060200190620000ff929190620001ee565b5060005b8151811015620001b1576001600460008484815181106200012057fe5b60200260200101516001600160a01b03166001600160a01b0316815260200190815260200160002060000160006101000a81548160ff02191690831515021790555080600460008484815181106200017457fe5b60200260200101516001600160a01b03166001600160a01b0316815260200190815260200160002060010181905550808060010191505062000103565b5060038054620001c49160029162000258565b5050600580546001600160a01b0319166001600160a01b03939093169290921790915550620002bc565b82805482825590600052602060002090810192821562000246579160200282015b828111156200024657825182546001600160a01b0319166001600160a01b039091161782556020909201916001909101906200020f565b50620002549291506200029b565b5090565b828054828255906000526020600020908101928215620002465760005260206000209182015b82811115620002465782548255916001019190600101906200027e565b5b80821115620002545780546001600160a01b03191681556001016200029c565b610d8780620002cc6000396000f3fe608060405234801561001057600080fd5b50600436106101005760003560e01c80638c90ac0711610097578063b3f05b9711610066578063b3f05b971461030e578063b7ab4db514610316578063c805f68b1461031e578063f981dfca1461034457610100565b80638c90ac07146102bd5780638da5cb5b146102da57806391e2e252146102fe578063a6940b071461030657610100565b806340a141ff116100d357806340a141ff146101d95780634d238c8e146101ff5780635518edf81461022557806375286211146102b557610100565b80630c8578051461010557806311ae9ed21461011f57806313af4035146101775780633d7311951461019f575b600080fd5b61010d61037a565b60408051918252519081900360200190f35b610127610380565b60408051602080825283518183015283519192839290830191858101910280838360005b8381101561016357818101518382015260200161014b565b505050509050019250505060405180910390f35b61019d6004803603602081101561018d57600080fd5b50356001600160a01b03166103e2565b005b6101c5600480360360208110156101b557600080fd5b50356001600160a01b0316610454565b604080519115158252519081900360200190f35b61019d600480360360208110156101ef57600080fd5b50356001600160a01b03166104c5565b61019d6004803603602081101561021557600080fd5b50356001600160a01b031661066a565b61019d6004803603608081101561023b57600080fd5b6001600160a01b0382358116926020810135909116916040820135919081019060808101606082013564010000000081111561027657600080fd5b82018360208201111561028857600080fd5b803590602001918460018302840111640100000000831117156102aa57600080fd5b50909250905061071f565b61019d610778565b61019d600480360360208110156102d357600080fd5b5035610799565b6102e26107b5565b604080516001600160a01b039092168252519081900360200190f35b61010d6107c4565b6102e26107ca565b6101c56107d9565b6101276107e9565b61019d6004803603602081101561033457600080fd5b50356001600160a01b0316610849565b61019d6004803603606081101561035a57600080fd5b506001600160a01b03813581169160208101359091169060400135610882565b60015481565b606060038054806020026020016040519081016040528092919081815260200182805480156103d857602002820191906000526020600020905b81546001600160a01b031681526001909101906020018083116103ba575b5050505050905090565b6000546001600160a01b031633146103f957600080fd5b600080546040516001600160a01b03808516939216917f70aea8d848e8a90fb7661b227dc522eb6395c3dac71b63cb59edd5c9899b236491a3600080546001600160a01b0319166001600160a01b0392909216919091179055565b6001600160a01b0381166000908152600460205260408120805460019091015460ff90911690818015610488575060025481105b80156104bd5750836001600160a01b0316600282815481106104a657fe5b6000918252602090912001546001600160a01b0316145b949350505050565b6000546001600160a01b031633146104dc57600080fd5b6001600160a01b03811660009081526004602052604090208054600190910154829160ff1690818015610510575060025481105b80156105455750826001600160a01b03166002828154811061052e57fe5b6000918252602090912001546001600160a01b0316145b61054e57600080fd5b6001600160a01b03841660009081526004602052604090206001015460038054600019810190811061057c57fe5b600091825260209091200154600380546001600160a01b0390921691839081106105a257fe5b9060005260206000200160006101000a8154816001600160a01b0302191690836001600160a01b031602179055508060046000600384815481106105e257fe5b60009182526020808320909101546001600160a01b03168352820192909252604001902060010155600380548061061557fe5b60008281526020808220830160001990810180546001600160a01b03191690559092019092556001600160a01b03871682526004905260408120805460ff19168155600101556106636108a9565b5050505050565b6000546001600160a01b0316331461068157600080fd5b6001600160a01b038116600090815260046020526040902054819060ff16156106a957600080fd5b6001600160a01b0382166000818152600460205260408120805460ff1916600190811782556003805492820183905590820181559091527fc2575a0e9e593c00f959f8c92f12db2869c3395a3b0502d05e2516446f71f85b0180546001600160a01b031916909117905561071b6108a9565b5050565b6005546001600160a01b0316331461073657600080fd5b61066385858585858080601f0160208091040260200160405190810160405280939291908181526020018383808284376000920191909152506108d492505050565b6005546001600160a01b0316331461078f57600080fd5b610797610a1e565b565b6000546001600160a01b031633146107b057600080fd5b600155565b6000546001600160a01b031681565b60025490565b6005546001600160a01b031681565b600054600160a01b900460ff1681565b606060028054806020026020016040519081016040528092919081815260200182805480156103d8576020028201919060005260206000209081546001600160a01b031681526001909101906020018083116103ba575050505050905090565b6000546001600160a01b0316331461086057600080fd5b600580546001600160a01b0319166001600160a01b0392909216919091179055565b6005546001600160a01b0316331461089957600080fd5b6108a4838383610add565b505050565b600054600160a01b900460ff166108bf57600080fd5b6000805460ff60a01b19169055610797610c25565b6001600160a01b03841660009081526004602052604090208054600190910154859160ff1690818015610908575060025481105b801561093d5750826001600160a01b03166002828154811061092657fe5b6000918252602090912001546001600160a01b0316145b61094657600080fd5b6001600160a01b03861660009081526004602052604090208054600190910154879160ff169081801561097a575060025481105b80156109af5750826001600160a01b03166002828154811061099857fe5b6000918252602090912001546001600160a01b0316145b6109b857600080fd5b87600154810143111580156109cc57504381105b6109d557600080fd5b6040516001906001600160a01b03808d1691908e16907f32c78b6140c46745a46e88cd883707d70dbd2f06d13dd76fe5f499c01290da4f90600090a45050505050505050505050565b600054600160a01b900460ff1615610a3557600080fd5b60038054610a4591600291610ce2565b506000805460ff60a01b1916600160a01b179055604080516020808252600280549183018290527f8564cd629b15f47dc310d45bcbfc9bcf5420b0d51bf0659a16c67f91d276325393909291829182019084908015610acd57602002820191906000526020600020905b81546001600160a01b03168152600190910190602001808311610aaf575b50509250505060405180910390a1565b6001600160a01b03831660009081526004602052604090208054600190910154849160ff1690818015610b11575060025481105b8015610b465750826001600160a01b031660028281548110610b2f57fe5b6000918252602090912001546001600160a01b0316145b610b4f57600080fd5b6001600160a01b03851660009081526004602052604090208054600190910154869160ff1690818015610b83575060025481105b8015610bb85750826001600160a01b031660028281548110610ba157fe5b6000918252602090912001546001600160a01b0316145b610bc157600080fd5b8660015481014311158015610bd557504381105b610bde57600080fd5b6040516000906001600160a01b03808c1691908d16907f32c78b6140c46745a46e88cd883707d70dbd2f06d13dd76fe5f499c01290da4f908490a450505050505050505050565b6005546040805163a0285c0160e01b8152600019430140600482018181526024830193845260038054604485018190526001600160a01b039096169563a0285c019593949193916064019084908015610ca757602002820191906000526020600020905b81546001600160a01b03168152600190910190602001808311610c89575b50509350505050600060405180830381600087803b158015610cc857600080fd5b505af1158015610cdc573d6000803e3d6000fd5b50505050565b828054828255906000526020600020908101928215610d225760005260206000209182015b82811115610d22578254825591600101919060010190610d07565b50610d2e929150610d32565b5090565b5b80821115610d2e5780546001600160a01b0319168155600101610d3356fea2646970667358221220cdedfda7e43f16f4620809c095d1e1c6a0e5e1af393d7038b357c439325adff564736f6c63430007010033",
  "immutableReferences": {},
  "source": "// Copyright 2018 Parity Technologies Ltd.\n//\n// Licensed under the Apache License, Version 2.0 (the \"License\");\n// you may not use this file except in compliance with the License.\n// You may obtain a copy of the License at\n//\n//     http://www.apache.org/licenses/LICENSE-2.0\n//\n// Unless required by applicable law or agreed to in writing, software\n// distributed under the License is distributed on an \"AS IS\" BASIS,\n// WITHOUT WARRANTIES OR CONDITIONS OF ANY KIND, either express or implied.\n// See the License for the specific language governing permissions and\n// limitations under the License.\n//SPDX-License-Identifier: APACHE2\n\n// A `OwnedSet` validator contract that is meant to be relayed by a `RelaySet`\n// contract.\n\n//@note:@shyft: updated to solidity 7.1, updated code where required\npragma solidity ^0.7.1;\n\nimport \"../Interfaces/IRelayedOwnedSet.sol\";\nimport \"./BaseOwnedSet.sol\";\nimport \"./RelaySet.sol\";\n\ncontract RelayedOwnedSet is BaseOwnedSet, IRelayedOwnedSet {\n\tRelaySet public relaySet;\n\n\tmodifier onlyRelay() {\n\t\trequire(msg.sender == address(relaySet));\n\t\t_;\n\t}\n\n\tconstructor(address _relaySet, address[] memory _initial) BaseOwnedSet(_initial)\n\t{\n\t\trelaySet = RelaySet(_relaySet);\n\t}\n\n\tfunction relayReportBenign(address _reporter, address _validator, uint _blockNumber)\n\t\texternal\n\t\tonlyRelay\n\t{\n\t\tbaseReportBenign(_reporter, _validator, _blockNumber);\n\t}\n\n\tfunction relayReportMalicious(\n\t\taddress _reporter,\n\t\taddress _validator,\n\t\tuint _blockNumber,\n\t\tbytes calldata _proof\n\t)\n\t\texternal\n\t\tonlyRelay\n\t{\n\t\tbaseReportMalicious(\n\t\t\t_reporter,\n\t\t\t_validator,\n\t\t\t_blockNumber,\n\t\t\t_proof\n\t\t);\n\t}\n\n\tfunction setRelay(address _relaySet)\n\t\texternal\n\t\toverride\n\t\tonlyOwner\n\t{\n\t\trelaySet = RelaySet(_relaySet);\n\t}\n\n\tfunction finalizeChange()\n\t\texternal\n\t\tonlyRelay\n\t{\n\t\tbaseFinalizeChange();\n\t}\n\n\tfunction initiateChange()\n\t\tinternal\n\t\toverride\n\t{\n\t\trelaySet.initiateChange(blockhash(block.number - 1), pending);\n\t}\n}\n",
  "sourcePath": "/home/ubuntu/shyft_shyftcorecontracts/contracts/ProtocolVoting/RelayedOwnedSet.sol",
  "compiler": {
    "name": "solc",
    "version": "0.7.1+commit.f4a555be.Emscripten.clang"
  },
  "schemaVersion": "3.4.7",
  "updatedAt": "2022-04-19T20:49:41.473Z",
  "devdoc": {
    "kind": "dev",
    "methods": {},
    "version": 1
  },
  "userdoc": {
    "kind": "user",
    "methods": {},
    "version": 1
  }
}