{
  "contractName": "RelayerElection",
  "abi": [
    {
      "anonymous": false,
      "inputs": [
        {
          "indexed": false,
          "internalType": "address",
          "name": "_admin",
          "type": "address"
        }
      ],
      "name": "EVT_AdminPromoted",
      "type": "event"
    },
    {
      "anonymous": false,
      "inputs": [
        {
          "indexed": false,
          "internalType": "address",
          "name": "_admin",
          "type": "address"
        }
      ],
      "name": "EVT_AdminRevoked",
      "type": "event"
    },
    {
      "anonymous": false,
      "inputs": [
        {
          "indexed": false,
          "internalType": "address",
          "name": "_admin",
          "type": "address"
        }
      ],
      "name": "EVT_PrimaryAdminAdded",
      "type": "event"
    },
    {
      "anonymous": false,
      "inputs": [],
      "name": "ElectionComplete",
      "type": "event"
    },
    {
      "anonymous": false,
      "inputs": [
        {
          "indexed": false,
          "internalType": "address",
          "name": "_relayer",
          "type": "address"
        }
      ],
      "name": "RelayerAdded",
      "type": "event"
    },
    {
      "anonymous": false,
      "inputs": [],
      "name": "ResetElection",
      "type": "event"
    },
    {
      "anonymous": false,
      "inputs": [
        {
          "indexed": true,
          "internalType": "address",
          "name": "_voter",
          "type": "address"
        },
        {
          "indexed": true,
          "internalType": "address",
          "name": "_elected",
          "type": "address"
        }
      ],
      "name": "Reveal",
      "type": "event"
    },
    {
      "anonymous": false,
      "inputs": [
        {
          "indexed": true,
          "internalType": "address",
          "name": "_voter",
          "type": "address"
        },
        {
          "indexed": false,
          "internalType": "bytes32",
          "name": "_commitment",
          "type": "bytes32"
        }
      ],
      "name": "SetVote",
      "type": "event"
    },
    {
      "anonymous": false,
      "inputs": [],
      "name": "VotingComplete",
      "type": "event"
    },
    {
      "inputs": [
        {
          "internalType": "uint32",
          "name": "_proposalIndex",
          "type": "uint32"
        }
      ],
      "name": "changeCurrentAdminConfirmationThreshold",
      "outputs": [
        {
          "internalType": "uint8",
          "name": "result",
          "type": "uint8"
        }
      ],
      "stateMutability": "nonpayable",
      "type": "function"
    },
    {
      "inputs": [
        {
          "internalType": "address",
          "name": "_administratorAddress",
          "type": "address"
        }
      ],
      "name": "getAdminAccess",
      "outputs": [
        {
          "internalType": "enum Administrable.AdministratorAccess",
          "name": "result",
          "type": "uint8"
        }
      ],
      "stateMutability": "view",
      "type": "function"
    },
    {
      "inputs": [
        {
          "internalType": "uint32",
          "name": "_proposalIndex",
          "type": "uint32"
        }
      ],
      "name": "getAdminConfirmationProposal",
      "outputs": [
        {
          "internalType": "uint256",
          "name": "adminThreshold",
          "type": "uint256"
        },
        {
          "internalType": "uint256",
          "name": "endTime",
          "type": "uint256"
        },
        {
          "internalType": "bool",
          "name": "isCompleted",
          "type": "bool"
        }
      ],
      "stateMutability": "view",
      "type": "function"
    },
    {
      "inputs": [],
      "name": "getAdminConfirmationThreshold",
      "outputs": [
        {
          "internalType": "uint256",
          "name": "results",
          "type": "uint256"
        }
      ],
      "stateMutability": "view",
      "type": "function"
    },
    {
      "inputs": [],
      "name": "getNumAdminConfirmationProposals",
      "outputs": [
        {
          "internalType": "uint256",
          "name": "result",
          "type": "uint256"
        }
      ],
      "stateMutability": "view",
      "type": "function"
    },
    {
      "inputs": [
        {
          "internalType": "bytes32",
          "name": "_keyKeccak",
          "type": "bytes32"
        }
      ],
      "name": "getPermissionsForMultisignKey",
      "outputs": [
        {
          "internalType": "uint256",
          "name": "result",
          "type": "uint256"
        }
      ],
      "stateMutability": "view",
      "type": "function"
    },
    {
      "inputs": [
        {
          "internalType": "address",
          "name": "_administratorAddress",
          "type": "address"
        }
      ],
      "name": "isAdministrator",
      "outputs": [
        {
          "internalType": "bool",
          "name": "result",
          "type": "bool"
        }
      ],
      "stateMutability": "view",
      "type": "function"
    },
    {
      "inputs": [
        {
          "internalType": "uint256",
          "name": "_confirmationNumber",
          "type": "uint256"
        }
      ],
      "name": "isConfirmationsIsOverThreshold",
      "outputs": [
        {
          "internalType": "bool",
          "name": "result",
          "type": "bool"
        }
      ],
      "stateMutability": "view",
      "type": "function"
    },
    {
      "inputs": [],
      "name": "numAdministrators",
      "outputs": [
        {
          "internalType": "uint256",
          "name": "",
          "type": "uint256"
        }
      ],
      "stateMutability": "view",
      "type": "function"
    },
    {
      "inputs": [],
      "name": "owner",
      "outputs": [
        {
          "internalType": "address",
          "name": "",
          "type": "address"
        }
      ],
      "stateMutability": "view",
      "type": "function"
    },
    {
      "inputs": [
        {
          "internalType": "address",
          "name": "_newAdministratorAddress",
          "type": "address"
        }
      ],
      "name": "promoteAdministrator",
      "outputs": [
        {
          "internalType": "uint8",
          "name": "result",
          "type": "uint8"
        }
      ],
      "stateMutability": "nonpayable",
      "type": "function"
    },
    {
      "inputs": [
        {
          "internalType": "uint256",
          "name": "_newThreshold",
          "type": "uint256"
        }
      ],
      "name": "proposeChangeCurrentAdminConfirmationThreshold",
      "outputs": [
        {
          "internalType": "uint8",
          "name": "result",
          "type": "uint8"
        }
      ],
      "stateMutability": "nonpayable",
      "type": "function"
    },
    {
      "inputs": [
        {
          "internalType": "address",
          "name": "_revokeAdministratorAddress",
          "type": "address"
        }
      ],
      "name": "revokeAdministrator",
      "outputs": [
        {
          "internalType": "uint8",
          "name": "result",
          "type": "uint8"
        }
      ],
      "stateMutability": "nonpayable",
      "type": "function"
    },
    {
      "inputs": [
        {
          "internalType": "address",
          "name": "_newAdministratorAddress",
          "type": "address"
        }
      ],
      "name": "setPrimaryAdministrator",
      "outputs": [
        {
          "internalType": "uint8",
          "name": "result",
          "type": "uint8"
        }
      ],
      "stateMutability": "nonpayable",
      "type": "function"
    },
    {
      "inputs": [
        {
          "internalType": "address",
          "name": "relayerToAdd",
          "type": "address"
        }
      ],
      "name": "addRelayer",
      "outputs": [
        {
          "internalType": "bool",
          "name": "",
          "type": "bool"
        }
      ],
      "stateMutability": "nonpayable",
      "type": "function"
    },
    {
      "inputs": [
        {
          "internalType": "address",
          "name": "_addr",
          "type": "address"
        }
      ],
      "name": "removeRelayer",
      "outputs": [
        {
          "internalType": "bool",
          "name": "",
          "type": "bool"
        }
      ],
      "stateMutability": "nonpayable",
      "type": "function"
    },
    {
      "inputs": [
        {
          "internalType": "bytes32",
          "name": "commitment",
          "type": "bytes32"
        }
      ],
      "name": "setVote",
      "outputs": [
        {
          "internalType": "bool",
          "name": "",
          "type": "bool"
        }
      ],
      "stateMutability": "nonpayable",
      "type": "function"
    },
    {
      "inputs": [
        {
          "internalType": "address",
          "name": "relayerToElect",
          "type": "address"
        }
      ],
      "name": "reveal",
      "outputs": [
        {
          "internalType": "bool",
          "name": "",
          "type": "bool"
        }
      ],
      "stateMutability": "nonpayable",
      "type": "function"
    },
    {
      "inputs": [],
      "name": "getElectedRelayer",
      "outputs": [
        {
          "internalType": "address",
          "name": "",
          "type": "address"
        }
      ],
      "stateMutability": "view",
      "type": "function"
    },
    {
      "inputs": [
        {
          "internalType": "address",
          "name": "toCheck",
          "type": "address"
        }
      ],
      "name": "isInRelayerSet",
      "outputs": [
        {
          "internalType": "bool",
          "name": "",
          "type": "bool"
        }
      ],
      "stateMutability": "view",
      "type": "function"
    },
    {
      "inputs": [],
      "name": "numRelayers",
      "outputs": [
        {
          "internalType": "uint256",
          "name": "",
          "type": "uint256"
        }
      ],
      "stateMutability": "view",
      "type": "function"
    },
    {
      "inputs": [
        {
          "internalType": "uint256",
          "name": "i",
          "type": "uint256"
        }
      ],
      "name": "getRelayerAt",
      "outputs": [
        {
          "internalType": "address",
          "name": "",
          "type": "address"
        }
      ],
      "stateMutability": "view",
      "type": "function"
    },
    {
      "inputs": [],
      "name": "resetElection",
      "outputs": [
        {
          "internalType": "bool",
          "name": "",
          "type": "bool"
        }
      ],
      "stateMutability": "nonpayable",
      "type": "function"
    }
  ],
  "bytecode": "0x6080604052600260005534801561001557600080fd5b50600180546001600160a01b0319163317905561187c806100376000396000f3fe608060405234801561001057600080fd5b506004361061014c5760003560e01c806360f0a5ac116100c3578063dd39f00d1161007c578063dd39f00d146103c2578063e8f30523146103e8578063e9977096146103f0578063f3e512d31461040d578063f7e7c49014610415578063f85008a2146104325761014c565b806360f0a5ac146102fc5780637a303a9c146103225780638da5cb5b1461032a578063b9568dd814610332578063c392cf4114610355578063d9af51e31461037b5761014c565b806323f0aa601161011557806323f0aa601461024a5780632f7850df146102705780633370426d146102a95780634402bba3146102b157806349d22250146102d75780635bc028a3146102f45761014c565b8062913af614610151578063064ad7c2146101945780630a2eb301146101d05780630ca21c241461020a57806323dfe73014610224575b600080fd5b6101746004803603602081101561016757600080fd5b503563ffffffff1661044f565b604080519384526020840192909252151582820152519081900360600190f35b6101ba600480360360208110156101aa57600080fd5b50356001600160a01b03166104d6565b6040805160ff9092168252519081900360200190f35b6101f6600480360360208110156101e657600080fd5b50356001600160a01b031661057a565b604080519115158252519081900360200190f35b6102126105b5565b60408051918252519081900360200190f35b6101ba6004803603602081101561023a57600080fd5b50356001600160a01b03166105bb565b6101f66004803603602081101561026057600080fd5b50356001600160a01b0316610823565b61028d6004803603602081101561028657600080fd5b503561084a565b604080516001600160a01b039092168252519081900360200190f35b610212610884565b6101ba600480360360208110156102c757600080fd5b50356001600160a01b031661088a565b6101ba600480360360208110156102ed57600080fd5b5035610a63565b61028d610b45565b6101f66004803603602081101561031257600080fd5b50356001600160a01b0316610b54565b610212610c4b565b61028d610c51565b6101ba6004803603602081101561034857600080fd5b503563ffffffff16610c60565b6101f66004803603602081101561036b57600080fd5b50356001600160a01b0316610e27565b6103a16004803603602081101561039157600080fd5b50356001600160a01b0316611072565b604051808260028111156103b157fe5b815260200191505060405180910390f35b6101f6600480360360208110156103d857600080fd5b50356001600160a01b0316611090565b6101f6611201565b6101f66004803603602081101561040657600080fd5b5035611382565b610212611394565b6102126004803603602081101561042b57600080fd5b503561139a565b6101f66004803603602081101561044857600080fd5b50356113bf565b600080600060068463ffffffff168154811061046757fe5b90600052602060002090600302016000015460068563ffffffff168154811061048c57fe5b90600052602060002090600302016001015460068663ffffffff16815481106104b157fe5b6000918252602090912060026003909202010154919450925060ff1690509193909250565b6001546000906001600160a01b031633141561057157600354610569576001600160a01b038216600090815260026020526040902080546001919060ff191682800217905550600380546001019055604080516001600160a01b038416815290517f1767f5d6fdb0884c185778bf3ba4d303dc6af28da0798c96577f7c5450631d8b9181900360200190a1506002610575565b506001610575565b5060005b919050565b600060016001600160a01b03831660009081526002602081905260409091205460ff16908111156105a757fe5b141561057157506001610575565b60085490565b60006105c63361057a565b156105715760016001600160a01b03831660009081526002602081905260409091205460ff16908111156105f657fe5b1461056957600260035410610770576040805173383937b6b7ba32a0b236b4b734b9ba3930ba37b960611b6020808301919091526bffffffffffffffffffffffff19606086901b166034830152825160288184030181526048909201909252805191012060006106658261139a565b905060008054821061067957506001610696565b600061068484611520565b9050600054811061069457600191505b505b60018115151415610764576001600160a01b0385166000908152600260205260409020805460ff191660019081179091556003805490910190556106d98361162a565b5061071c426040516020018080671c1c9bdb5bdd195960c21b81525060080182815260200191505060405160208183030381529060405280519060200120611729565b604080516001600160a01b038716815290517f7f477eb04f5a964ab231fdc42872d9356c3010171ed2c961d9166f49239786979181900360200190a160029350505050610575565b60039350505050610575565b6001600160a01b038216600090815260026020908152604091829020805460ff191660019081179091556003805490910190558151671c1c9bdb5bdd195960c21b818301524260288083019190915283518083039091018152604890910190925281519101206107df90611729565b604080516001600160a01b038416815290517f7f477eb04f5a964ab231fdc42872d9356c3010171ed2c961d9166f49239786979181900360200190a1506002610575565b6001600160a01b031660009081526007602052604090206002015462010000900460ff1690565b600060086108566105b5565b838161085e57fe5b068154811061086957fe5b6000918252602090912001546001600160a01b031692915050565b60065490565b60006108953361057a565b156105715760016001600160a01b03831660009081526002602081905260409091205460ff16908111156108c557fe5b141561056957604080517f61646d696e697374726174696f6e5265766f636174696f6e566f7465000000006020808301919091526bffffffffffffffffffffffff19606086901b16603c830152825160308184030181526050909201909252805191012060006109348261139a565b905060008054821061094857506001610965565b600061095384611520565b9050600054811061096357600191505b505b60018115151415610a57576001600160a01b038516600090815260026020818152604092839020805460ff1916909217909155600380546000190190558151661c995d9bdad95960ca1b818301524260278083019190915283518083039091018152604790910190925281519101206109dd90611729565b6000546003541015610a0557600260035411156109ff57600354600055610a05565b60026000555b610a0e8361162a565b50604080516001600160a01b038716815290517f79830203ee788345fbc4b7afa193ed483738eaecd94975fa1fa50c09c9a5be1f9181900360200190a160039350505050610575565b60029350505050610575565b6000610a6e3361057a565b1561057157600082118015610a8557506003548211155b1561056957610a92611792565b828152426202a30001602082019081526006805460018101825560009190915282517ff652222313e28459528d920b65115c16c04f3efc82aaedc97be59f3f377c0d3f60039092029182015590517ff652222313e28459528d920b65115c16c04f3efc82aaedc97be59f3f377c0d408201556040909101517ff652222313e28459528d920b65115c16c04f3efc82aaedc97be59f3f377c0d41909101805460ff1916911515919091179055506002610575565b6009546001600160a01b031690565b6001546000906001600160a01b03163314610b6e57600080fd5b610b7782610823565b610b8057600080fd5b6001600160a01b038216600090815260076020526040812080546001600160a01b03191681556001810182905560028101805462ffffff191690556003018190555b610bca6105b5565b811015610c3b57826001600160a01b031660088281548110610be857fe5b6000918252602090912001546001600160a01b03161415610c335760088181548110610c1057fe5b600091825260209091200180546001600160a01b03191690555060019050610575565b600101610bc2565b50610c4582610823565b92915050565b60005490565b6001546001600160a01b031681565b6000610c6b3361057a565b156105715760065463ffffffff831610156105695760035460068363ffffffff1681548110610c9657fe5b90600052602060002090600302016000015411610e1f5760068263ffffffff1681548110610cc057fe5b600091825260209091206002600390920201015460ff16158015610d08575060068263ffffffff1681548110610cf257fe5b9060005260206000209060030201600101544211155b15610e17576000826040516020018080611825602291396022018263ffffffff1660e01b81526004019150506040516020818303038152906040528051906020012090506000610d578261139a565b9050600080548210610d6b57506001610d88565b6000610d7684611520565b90506000548110610d8657600191505b505b60018115151415610e0b5760068563ffffffff1681548110610da657fe5b906000526020600020906003020160000154600081905550600160068663ffffffff1681548110610dd357fe5b60009182526020909120600390910201600201805460ff1916911515919091179055610dfe8361162a565b5060059350505050610575565b60049350505050610575565b506003610575565b506002610575565b6000336001600160a01b0383161415610e3f57600080fd5b610e4833610823565b610e5157600080fd5b610e5a82610823565b610e6357600080fd5b336000908152600760205260409020600281015460ff16610e8357600080fd5b823360405160200180836001600160a01b031660601b8152601401826001600160a01b031660601b81526014019250505060405160208183030381529060405280519060200120816001015414610ed957600080fd5b6002810154610100900460ff1615610ef057600080fd5b60028101805461ffff19166101001790556001600160a01b038316600090815260076020526040902060038101805460010190819055600c541015610fb4578054600980546001600160a01b039092166001600160a01b03199092169190911790556001810154600a55600281018054600b805460ff191660ff928316151517808255835461ff0019909116610100918290048416151590910217808255925462ff000019909316620100009384900490921615159092021790556003810154600c555b6040516001600160a01b0385169033907f1c000bbf6dd37ae2e40aad976c068a1e12352f887ea363538ec5536e8eb5ae1090600090a3600d805460ff61010080830482166001019091160261ff001990911617905560026110136105b5565b8161101a57fe5b04600d60019054906101000a900460ff1660ff1610611068576040517f71458a6ef696bda1a4c388dee0833fb06826402ee262df6b29c067d093a51be990600090a1600d805461ff00191690555b5060019392505050565b6001600160a01b031660009081526002602052604090205460ff1690565b6001546000906001600160a01b031633146110aa57600080fd5b6110b382610823565b156110bd57600080fd5b6110c56117b5565b6001600160a01b038084168083527fc5d2460186f7233c927e7db2dcc703c0e500b653ca82273b7bfad8045d85a47060208085019182526000604080870182815260608801838152600160808a0181815260a08b01868152898752600788528587208c5181549c166001600160a01b03199c8d161781559851898401559351600289018054945192511515620100000262ff0000199315156101000261ff001993151560ff19909716969096179290921694909417919091161790915590516003909501949094556008805494850181559091527ff3f7a9fe364faab93b216da50a3214154f22a0a2b415b23a84c8169e8b636ee3909201805490941683179093558051918252517f03580ee9f53a62b7cb409a2cb56f9be87747dd15017afc5cef6eef321e4fb2c5929181900390910190a150600192915050565b6001546000906001600160a01b0316331461121b57600080fd5b600d805461ffff1916905560005b600854811015611352576000600760006008848154811061124657fe5b60009182526020808320909101546001600160a01b031683528201929092526040018120600301919091556008805460079183918590811061128457fe5b60009182526020808320909101546001600160a01b03168352820192909252604001812060010191909155600880546007918391859081106112c257fe5b6000918252602080832091909101546001600160a01b031683528201929092526040018120600201805460ff1916921515929092179091556008805460079183918590811061130d57fe5b60009182526020808320909101546001600160a01b03168352820192909252604001902060020180549115156101000261ff0019909216919091179055600101611229565b506040517f653f143b0f65caf97199c94ab208a5ff52424b7ee35dd6356adefb27aac9268590600090a150600190565b60008054821061057157506001610575565b60035481565b6000806113a683611763565b6000908152600460205260409020600201549392505050565b60006113ca33610823565b6113d357600080fd5b7fc5d2460186f7233c927e7db2dcc703c0e500b653ca82273b7bfad8045d85a47082141561140057600080fd5b604080513360601b60208083018290526034830191909152825160288184030181526048909201909252805191012082141561143b57600080fd5b336000908152600760205260409020600281015460ff1661146d57600d805460ff8082166001011660ff199091161790555b600181810184905560028201805460ff191690911761ff001916905560408051848152905133917f59ef77d27ab0cc97bad48290b138d686cd4f9a6276c529992d1b9cc659a6dca1916020918190039190910190a260026114cc6105b5565b816114d357fe5b600d5491900460ff90911610611517576040517f94952e77d0e8498eed40be9fb464640d8a6ea76fb1f15a5387255938091b0a4890600090a1600d805460ff191690555b50600192915050565b600061152b3361057a565b1561057157600061153b83611763565b6003546000828152600460205260409020600201549192501180156115b65750600081815260046020908152604080832033845290915281205460ff16600381111561158357fe5b14806115b657506003600082815260046020908152604080832033845290915290205460ff1660038111156115b457fe5b145b15611611576000818152600460208181526040808420600281018054600190810190915533808752828552928620805460ff191682179055938352830180549384018155845292200180546001600160a01b03191690911790555b6000908152600460205260409020600201549050610575565b60006116353361057a565b1561057157600061164583611763565b6000818152600460205260409020600201549091501561171f5760005b6000828152600460205260409020600101548110156116e357600082815260046020526040812060018101805460039391908590811061169e57fe5b60009182526020808320909101546001600160a01b031683528201929092526040019020805460ff191660018360038111156116d657fe5b0217905550600101611662565b506000818152600460205260408120611701916001909101906117ea565b60009081526004602052604081206002908101919091559050610575565b6001915050610575565b6005548160405160200180838152602001828152602001925050506040516020818303038152906040528051906020012060058190555050565b600554604080516020808201939093528082019390935280518084038201815260609093019052815191012090565b604051806060016040528060008152602001600081526020016000151581525090565b6040805160c081018252600080825260208201819052918101829052606081018290526080810182905260a081019190915290565b5080546000825590600052602060002090810190611808919061180b565b50565b5b80821115611820576000815560010161180c565b509056fe61646d696e436f6e6669726d6174696f6e5468726573686f6c6450726f706f73616ca26469706673582212201a8a1d26196dae4a03b40c6964ae1b51cac6b191d4a851623c52c59bb86a452d64736f6c63430007010033",
  "immutableReferences": {},
  "source": "pragma solidity ^0.7.1;\n//SPDX-License-Identifier: UNLICENSED\n\nimport \"./Administrable.sol\";\n\ncontract RelayerElection is Administrable {\n\n    struct Relayer {\n        address addr;\n        bytes32 voteCommitment;\n        bool voted;\n        bool revealed;\n        bool isInSet;\n        uint count;\n    }\n\n    mapping (address => Relayer) relayerSet;\n    address[] relayerAddrs;\n\n    Relayer nextRelayer;\n\n    uint8 votes; // the amount of votes that have been cast for this election\n    uint8 reveals; // the amount of votes that have been revealed for this election\n\n    event RelayerAdded(address _relayer);\n    event SetVote(address indexed _voter, bytes32 _commitment);\n    event Reveal(address indexed _voter, address indexed _elected);\n    event ResetElection();\n    event VotingComplete();\n    event ElectionComplete();\n\n    // @dev: Adds a relayer to this election. Can only be called by the address\n    // that deployed the contract\n    //\n    // @param: address relayerToAdd, address of the relayer to add to the election\n    function addRelayer(address relayerToAdd) public returns (bool){\n         require(msg.sender == owner);\n         require(!isInRelayerSet(relayerToAdd));\n\n         Relayer memory relayer;\n         relayer.addr = relayerToAdd;\n         relayer.voteCommitment = keccak256(\"\");\n         relayer.voted = false;\n         relayer.revealed = false;\n         relayer.isInSet = true;\n         relayer.count = 0;\n\n         relayerSet[relayerToAdd] = relayer;\n         relayerAddrs.push(relayerToAdd);\n         emit RelayerAdded(relayerToAdd);\n         return true;\n    }\n\n    function removeRelayer(address _addr) public returns (bool) {\n        require(msg.sender == owner);\n        require(isInRelayerSet(_addr));\n\n        delete relayerSet[_addr];\n        for(uint i = 0; i < numRelayers(); i++) {\n            if (relayerAddrs[i] == _addr) {\n                delete relayerAddrs[i];\n                return true;\n            }\n        }\n\n        return isInRelayerSet(_addr);\n    }\n\n    // @dev: A relayer sets their vote for a particular relayer as a commitment.\n    //\n    // @param: bytes32 commitment, commitment to a particular relayer as their vote\n    function setVote(bytes32 commitment) public returns (bool) {\n         require(isInRelayerSet(msg.sender));\n         require(commitment != keccak256(\"\"));\n         require(commitment != keccak256(abi.encodePacked(msg.sender,msg.sender)));\n\n         Relayer storage r = relayerSet[msg.sender];\n\n         if(!r.voted) {\n            votes++;\n         }\n\n         r.voteCommitment = commitment;\n         r.voted = true;\n         r.revealed = false;\n\n         emit SetVote(msg.sender, commitment);\n\n         // 2/3 of relayers must vote\n         if (votes >= numRelayers() / 2) {\n            emit VotingComplete();\n            votes = 0;\n        }\n\n        return true;\n    }\n\n    // @dev: A relayer reveals their vote.\n    //\n    // @param: address relayerToElect, the address of their vote.\n    function reveal(address relayerToElect) public returns (bool) {\n        require(msg.sender != relayerToElect);\n        require(isInRelayerSet(msg.sender));\n        require(isInRelayerSet(relayerToElect));\n\n        Relayer storage revealer = relayerSet[msg.sender];\n        require(revealer.voted);\n        require(revealer.voteCommitment == keccak256(abi.encodePacked(relayerToElect,msg.sender)));\n        require(!revealer.revealed);\n\n        revealer.voted = false;\n        revealer.revealed = true;\n\n        Relayer storage toBeElected = relayerSet[relayerToElect];\n        toBeElected.count++;\n\n        if(toBeElected.count > nextRelayer.count) {\n            nextRelayer = toBeElected;\n        }\n\n        emit Reveal(msg.sender, relayerToElect);\n        reveals++; \n\n        // 2/3 of relayers must reveal\n        if (reveals >= numRelayers() / 2) {\n            emit ElectionComplete();\n            reveals = 0;\n        }\n\n        return true;\n    }\n\n    //@dev: After a certain threshold of relayers have submitted their votes,\n    // get the validator for that epoch.\n    function getElectedRelayer() public view returns (address) {\n        return nextRelayer.addr;\n    }\n\n    function isInRelayerSet(address toCheck) public view returns (bool) {\n        return relayerSet[toCheck].isInSet;\n    }\n\n    function numRelayers() public view returns (uint256) {\n        return relayerAddrs.length;\n    }\n\n    function getRelayerAt(uint256 i) public view returns (address) {\n        return relayerAddrs[i % numRelayers()];\n    }\n\n    function resetElection() public returns (bool) {\n        require(msg.sender == owner);\n\n        votes = 0;\n        reveals = 0;\n\n        for(uint i=0; i < relayerAddrs.length; i++) {\n            relayerSet[relayerAddrs[i]].count = 0;\n            relayerSet[relayerAddrs[i]].voteCommitment = 0;\n            relayerSet[relayerAddrs[i]].voted = false;\n            relayerSet[relayerAddrs[i]].revealed = false;\n        }\n\n        emit ResetElection();\n\n        return true;\n    }\n\n}\n",
  "sourcePath": "/home/ubuntu/shyft_shyftcorecontracts/contracts/RelayerElection.sol",
  "compiler": {
    "name": "solc",
    "version": "0.7.1+commit.f4a555be.Emscripten.clang"
  },
  "schemaVersion": "3.4.5",
  "updatedAt": "2022-02-22T18:23:50.879Z",
  "devdoc": {
    "kind": "dev",
    "methods": {
      "changeCurrentAdminConfirmationThreshold(uint32)": {
        "details": "| This function takes in an index for a proposal ot change the current administrator confirmation threshold.      | Uses Multi-signature permissions.",
        "params": {
          "_proposalIndex": "The index for a specific proposal to change the current administrator confirmation threshold."
        },
        "returns": {
          "result": "   | 0 = not an administrator    | 1 = invalid proposal index    | 2 = not enough administrators to achieve confirmation threshold    | 3 = proposal has expired    | 4 = not enough administrators have permissioned change    | 5 = admin confirmation threshold set"
        }
      },
      "getAdminAccess(address)": {
        "details": "Gets the level of access for a specific administrator.",
        "returns": {
          "result": "the level of access for this administrator"
        }
      },
      "getAdminConfirmationProposal(uint32)": {
        "details": "Gets the components of a specific NofM change proposal.",
        "params": {
          "_proposalIndex": "A proposal index"
        },
        "returns": {
          "adminThreshold": "the threshold of the NofM voting within this proposal",
          "endTime": "the end time of this proposal, after which it cannot be voted on",
          "isCompleted": "whether this proposal has been completed by multisig parties"
        }
      },
      "getAdminConfirmationThreshold()": {
        "details": "Gets the NofM threshold currently required for passing multisig votes.",
        "returns": {
          "results": "the current NofM threshold"
        }
      },
      "getNumAdminConfirmationProposals()": {
        "details": "Gets the number of a specific NofM change proposal.",
        "returns": {
          "result": "the number of a specific NofM proposals"
        }
      },
      "getPermissionsForMultisignKey(bytes32)": {
        "details": "Gets whether there have been a specific number of multisignature confirmations for a specific vote.",
        "params": {
          "_keyKeccak": "A hash to reference as the key/value vote subject."
        },
        "returns": {
          "result": "0 to numAdministrators = #confirmations"
        }
      },
      "isAdministrator(address)": {
        "details": "Returns whether a given address is an administrator.",
        "params": {
          "_administratorAddress": "The public address of a specific administrator."
        },
        "returns": {
          "result": "   | true = is administrator    | false = either administrator unset or demoted"
        }
      },
      "isConfirmationsIsOverThreshold(uint256)": {
        "details": "Returns whether a reference number is over the system's administrator confirmation threshold (ie. the vote passes).",
        "params": {
          "_confirmationNumber": "A number to reference as the confirmation number"
        },
        "returns": {
          "result": "   | true = is over threshold    | false = not over threshold"
        }
      },
      "promoteAdministrator(address)": {
        "details": "| Promotes a new administrator. If there is only a primary Administrator set, this will allow the addition of the second administrator and enable multisignature requirements for any actions of this contract (or those inheriting it).      | Uses Multi-signature permissions if there is more than one Administrator onboarded.",
        "params": {
          "_newAdministratorAddress": "The new Administrator's public address."
        },
        "returns": {
          "result": "   | 0 = not administrator    | 1 = administrator already promoted    | 2 = new administrator promoted    | 3 = added vote to promote administrator"
        }
      },
      "proposeChangeCurrentAdminConfirmationThreshold(uint256)": {
        "details": "This function proposes a change to the threshold of voting required (N signatories of M total set size = NofM). To prevent stale inattention results, timeout after 2 days.",
        "params": {
          "_newThreshold": "The new threshold (N of M multisig) that is needed to be passed."
        },
        "returns": {
          "result": "   | 0 = not an administrator    | 1 = not enough administrators to achieve confirmation threshold    | 2 = new proposal added"
        }
      },
      "revokeAdministrator(address)": {
        "details": "| Revokes an existing administrator from the multisignature set, checks to see if the # of required votes would be higher then the administrator set size, and if so adjusts to match.      | Uses Multi-signature permissions if there is more than one Administrator onboarded.",
        "params": {
          "_revokeAdministratorAddress": "An existing Administrator's public address."
        },
        "returns": {
          "result": "result"
        }
      },
      "setPrimaryAdministrator(address)": {
        "details": "Sets the primary Administrator for this contract (or those that inherit from it). This transfers ownership of this contracts first administration duties (to find and onboard a second party for multisignature requirements) to the set Administrator's public address.",
        "params": {
          "_newAdministratorAddress": "The new Administrator's public address."
        },
        "returns": {
          "result": "   | 0 = not owner    | 1 = already set first administrator    | 2 = setup first administrator"
        }
      }
    },
    "version": 1
  },
  "userdoc": {
    "kind": "user",
    "methods": {
      "changeCurrentAdminConfirmationThreshold(uint32)": {
        "notice": "Multiple proposals can be constructed for different sets to apply to change the administrator threshold. As the permissions for multisig keys use a voting set nonce underneath the hood, a change in the current administrator set will cancel all current votes."
      },
      "getPermissionsForMultisignKey(bytes32)": {
        "notice": "Uses composition features (based on current validator set) so data structure may be orphaned when promotion/demotion events occur."
      },
      "promoteAdministrator(address)": {
        "notice": "| Uses composition features (based on current validator set) so data structure may be orphaned when promotion/demotion events occur.         | Whenever this function is called (with a passing vote), there will be a re-hashing of the voting set nonce, so all current votes will become invalidated."
      },
      "revokeAdministrator(address)": {
        "notice": "| Uses composition features (based on current validator set) so data structure may be orphaned when promotion/demotion events occur.         | Whenever this function is called (with a passing vote), there will be a re-hashing of the voting set nonce, so all current votes will become invalidated."
      }
    },
    "version": 1
  }
}