{
  "contractName": "RMT",
  "abi": [
    {
      "inputs": [
        {
          "internalType": "uint256",
          "name": "_primaryDistributionCurve_percentage18Bits",
          "type": "uint256"
        }
      ],
      "stateMutability": "nonpayable",
      "type": "constructor"
    },
    {
      "anonymous": false,
      "inputs": [
        {
          "indexed": true,
          "internalType": "address",
          "name": "tokenOwner",
          "type": "address"
        },
        {
          "indexed": true,
          "internalType": "address",
          "name": "spender",
          "type": "address"
        },
        {
          "indexed": false,
          "internalType": "uint256",
          "name": "tokens",
          "type": "uint256"
        }
      ],
      "name": "Approval",
      "type": "event"
    },
    {
      "anonymous": false,
      "inputs": [
        {
          "indexed": false,
          "internalType": "address",
          "name": "_admin",
          "type": "address"
        }
      ],
      "name": "EVT_AdminPromoted",
      "type": "event"
    },
    {
      "anonymous": false,
      "inputs": [
        {
          "indexed": false,
          "internalType": "address",
          "name": "_admin",
          "type": "address"
        }
      ],
      "name": "EVT_AdminRevoked",
      "type": "event"
    },
    {
      "anonymous": false,
      "inputs": [
        {
          "indexed": false,
          "internalType": "address",
          "name": "_admin",
          "type": "address"
        }
      ],
      "name": "EVT_PrimaryAdminAdded",
      "type": "event"
    },
    {
      "anonymous": false,
      "inputs": [
        {
          "indexed": true,
          "internalType": "address",
          "name": "from",
          "type": "address"
        },
        {
          "indexed": true,
          "internalType": "address",
          "name": "to",
          "type": "address"
        },
        {
          "indexed": false,
          "internalType": "uint256",
          "name": "value",
          "type": "uint256"
        },
        {
          "indexed": true,
          "internalType": "bytes",
          "name": "data",
          "type": "bytes"
        }
      ],
      "name": "Transfer",
      "type": "event"
    },
    {
      "anonymous": false,
      "inputs": [
        {
          "indexed": true,
          "internalType": "address",
          "name": "from",
          "type": "address"
        },
        {
          "indexed": true,
          "internalType": "address",
          "name": "to",
          "type": "address"
        },
        {
          "indexed": false,
          "internalType": "uint256",
          "name": "tokens",
          "type": "uint256"
        }
      ],
      "name": "Transfer",
      "type": "event"
    },
    {
      "inputs": [
        {
          "internalType": "uint32",
          "name": "_proposalIndex",
          "type": "uint32"
        }
      ],
      "name": "changeCurrentAdminConfirmationThreshold",
      "outputs": [
        {
          "internalType": "uint8",
          "name": "result",
          "type": "uint8"
        }
      ],
      "stateMutability": "nonpayable",
      "type": "function"
    },
    {
      "inputs": [
        {
          "internalType": "address",
          "name": "_administratorAddress",
          "type": "address"
        }
      ],
      "name": "getAdminAccess",
      "outputs": [
        {
          "internalType": "enum Administrable.AdministratorAccess",
          "name": "result",
          "type": "uint8"
        }
      ],
      "stateMutability": "view",
      "type": "function"
    },
    {
      "inputs": [
        {
          "internalType": "uint32",
          "name": "_proposalIndex",
          "type": "uint32"
        }
      ],
      "name": "getAdminConfirmationProposal",
      "outputs": [
        {
          "internalType": "uint256",
          "name": "adminThreshold",
          "type": "uint256"
        },
        {
          "internalType": "uint256",
          "name": "endTime",
          "type": "uint256"
        },
        {
          "internalType": "bool",
          "name": "isCompleted",
          "type": "bool"
        }
      ],
      "stateMutability": "view",
      "type": "function"
    },
    {
      "inputs": [],
      "name": "getAdminConfirmationThreshold",
      "outputs": [
        {
          "internalType": "uint256",
          "name": "results",
          "type": "uint256"
        }
      ],
      "stateMutability": "view",
      "type": "function"
    },
    {
      "inputs": [],
      "name": "getNumAdminConfirmationProposals",
      "outputs": [
        {
          "internalType": "uint256",
          "name": "result",
          "type": "uint256"
        }
      ],
      "stateMutability": "view",
      "type": "function"
    },
    {
      "inputs": [
        {
          "internalType": "bytes32",
          "name": "_keyKeccak",
          "type": "bytes32"
        }
      ],
      "name": "getPermissionsForMultisignKey",
      "outputs": [
        {
          "internalType": "uint256",
          "name": "result",
          "type": "uint256"
        }
      ],
      "stateMutability": "view",
      "type": "function"
    },
    {
      "inputs": [
        {
          "internalType": "address",
          "name": "_administratorAddress",
          "type": "address"
        }
      ],
      "name": "isAdministrator",
      "outputs": [
        {
          "internalType": "bool",
          "name": "result",
          "type": "bool"
        }
      ],
      "stateMutability": "view",
      "type": "function"
    },
    {
      "inputs": [
        {
          "internalType": "uint256",
          "name": "_confirmationNumber",
          "type": "uint256"
        }
      ],
      "name": "isConfirmationsIsOverThreshold",
      "outputs": [
        {
          "internalType": "bool",
          "name": "result",
          "type": "bool"
        }
      ],
      "stateMutability": "view",
      "type": "function"
    },
    {
      "inputs": [],
      "name": "numAdministrators",
      "outputs": [
        {
          "internalType": "uint256",
          "name": "",
          "type": "uint256"
        }
      ],
      "stateMutability": "view",
      "type": "function"
    },
    {
      "inputs": [],
      "name": "owner",
      "outputs": [
        {
          "internalType": "address",
          "name": "",
          "type": "address"
        }
      ],
      "stateMutability": "view",
      "type": "function"
    },
    {
      "inputs": [
        {
          "internalType": "address",
          "name": "_newAdministratorAddress",
          "type": "address"
        }
      ],
      "name": "promoteAdministrator",
      "outputs": [
        {
          "internalType": "uint8",
          "name": "result",
          "type": "uint8"
        }
      ],
      "stateMutability": "nonpayable",
      "type": "function"
    },
    {
      "inputs": [
        {
          "internalType": "uint256",
          "name": "_newThreshold",
          "type": "uint256"
        }
      ],
      "name": "proposeChangeCurrentAdminConfirmationThreshold",
      "outputs": [
        {
          "internalType": "uint8",
          "name": "result",
          "type": "uint8"
        }
      ],
      "stateMutability": "nonpayable",
      "type": "function"
    },
    {
      "inputs": [
        {
          "internalType": "address",
          "name": "_revokeAdministratorAddress",
          "type": "address"
        }
      ],
      "name": "revokeAdministrator",
      "outputs": [
        {
          "internalType": "uint8",
          "name": "result",
          "type": "uint8"
        }
      ],
      "stateMutability": "nonpayable",
      "type": "function"
    },
    {
      "inputs": [
        {
          "internalType": "address",
          "name": "_newAdministratorAddress",
          "type": "address"
        }
      ],
      "name": "setPrimaryAdministrator",
      "outputs": [
        {
          "internalType": "uint8",
          "name": "result",
          "type": "uint8"
        }
      ],
      "stateMutability": "nonpayable",
      "type": "function"
    },
    {
      "inputs": [],
      "name": "thisTotalSupply",
      "outputs": [
        {
          "internalType": "uint256",
          "name": "",
          "type": "uint256"
        }
      ],
      "stateMutability": "view",
      "type": "function"
    },
    {
      "inputs": [
        {
          "internalType": "address",
          "name": "regionAddress",
          "type": "address"
        },
        {
          "internalType": "uint256",
          "name": "_regionRMTAmount18Bits",
          "type": "uint256"
        },
        {
          "internalType": "uint256",
          "name": "_newDistributorCurve_percentage18Bits",
          "type": "uint256"
        }
      ],
      "name": "setupNewRegionWithBaseCurve",
      "outputs": [],
      "stateMutability": "nonpayable",
      "type": "function"
    },
    {
      "inputs": [
        {
          "internalType": "address",
          "name": "_newDistributionAddress",
          "type": "address"
        },
        {
          "internalType": "uint256",
          "name": "_newDistributorCurve_percentage18Bits",
          "type": "uint256"
        },
        {
          "internalType": "address",
          "name": "_regionAddress",
          "type": "address"
        }
      ],
      "name": "setupNewDistributionWithCurveInRegion",
      "outputs": [],
      "stateMutability": "nonpayable",
      "type": "function"
    },
    {
      "inputs": [
        {
          "internalType": "address",
          "name": "_to",
          "type": "address"
        }
      ],
      "name": "performDistribution",
      "outputs": [
        {
          "internalType": "uint8",
          "name": "result",
          "type": "uint8"
        }
      ],
      "stateMutability": "nonpayable",
      "type": "function"
    },
    {
      "inputs": [
        {
          "internalType": "address",
          "name": "_who",
          "type": "address"
        }
      ],
      "name": "balanceOf",
      "outputs": [
        {
          "internalType": "uint256",
          "name": "",
          "type": "uint256"
        }
      ],
      "stateMutability": "view",
      "type": "function"
    },
    {
      "inputs": [],
      "name": "name",
      "outputs": [
        {
          "internalType": "string",
          "name": "_name",
          "type": "string"
        }
      ],
      "stateMutability": "pure",
      "type": "function"
    },
    {
      "inputs": [],
      "name": "symbol",
      "outputs": [
        {
          "internalType": "string",
          "name": "_symbol",
          "type": "string"
        }
      ],
      "stateMutability": "pure",
      "type": "function"
    },
    {
      "inputs": [],
      "name": "decimals",
      "outputs": [
        {
          "internalType": "uint8",
          "name": "_decimals",
          "type": "uint8"
        }
      ],
      "stateMutability": "pure",
      "type": "function"
    },
    {
      "inputs": [],
      "name": "totalSupply",
      "outputs": [
        {
          "internalType": "uint256",
          "name": "",
          "type": "uint256"
        }
      ],
      "stateMutability": "view",
      "type": "function"
    },
    {
      "inputs": [
        {
          "internalType": "address",
          "name": "_to",
          "type": "address"
        },
        {
          "internalType": "uint256",
          "name": "_value",
          "type": "uint256"
        }
      ],
      "name": "transfer",
      "outputs": [
        {
          "internalType": "bool",
          "name": "ok",
          "type": "bool"
        }
      ],
      "stateMutability": "nonpayable",
      "type": "function"
    },
    {
      "inputs": [
        {
          "internalType": "address",
          "name": "_to",
          "type": "address"
        },
        {
          "internalType": "uint256",
          "name": "_value",
          "type": "uint256"
        },
        {
          "internalType": "bytes",
          "name": "data",
          "type": "bytes"
        }
      ],
      "name": "transfer",
      "outputs": [
        {
          "internalType": "bool",
          "name": "ok",
          "type": "bool"
        }
      ],
      "stateMutability": "nonpayable",
      "type": "function"
    },
    {
      "inputs": [
        {
          "internalType": "address",
          "name": "_tokenOwner",
          "type": "address"
        },
        {
          "internalType": "address",
          "name": "_spender",
          "type": "address"
        }
      ],
      "name": "allowance",
      "outputs": [
        {
          "internalType": "uint256",
          "name": "remaining",
          "type": "uint256"
        }
      ],
      "stateMutability": "view",
      "type": "function"
    },
    {
      "inputs": [
        {
          "internalType": "address",
          "name": "_spender",
          "type": "address"
        },
        {
          "internalType": "uint256",
          "name": "_tokens",
          "type": "uint256"
        }
      ],
      "name": "approve",
      "outputs": [
        {
          "internalType": "bool",
          "name": "success",
          "type": "bool"
        }
      ],
      "stateMutability": "nonpayable",
      "type": "function"
    },
    {
      "inputs": [
        {
          "internalType": "address",
          "name": "_from",
          "type": "address"
        },
        {
          "internalType": "address",
          "name": "_to",
          "type": "address"
        },
        {
          "internalType": "uint256",
          "name": "_value",
          "type": "uint256"
        }
      ],
      "name": "transferFrom",
      "outputs": [
        {
          "internalType": "bool",
          "name": "success",
          "type": "bool"
        }
      ],
      "stateMutability": "nonpayable",
      "type": "function"
    },
    {
      "inputs": [
        {
          "internalType": "address",
          "name": "_from",
          "type": "address"
        },
        {
          "internalType": "uint256",
          "name": "_value",
          "type": "uint256"
        },
        {
          "internalType": "bytes",
          "name": "_data",
          "type": "bytes"
        }
      ],
      "name": "tokenFallback",
      "outputs": [
        {
          "internalType": "bool",
          "name": "ok",
          "type": "bool"
        }
      ],
      "stateMutability": "nonpayable",
      "type": "function"
    }
  ],
  "bytecode": "0x6080604052600260005534801561001557600080fd5b50604051611aa9380380611aa98339818101604052602081101561003857600080fd5b5051600180546001600160a01b031990811633908117909116179055789f4f2726179a224501d762422c946590d9100000000000000060148190553060009081526007602052604090205560181b600955611a11806100986000396000f3fe608060405234801561001057600080fd5b50600436106101ce5760003560e01c80637a32f06411610104578063c0ee0b8a116100a2578063e101627511610071578063e101627514610704578063e99770961461072a578063f3e512d314610747578063f7e7c4901461074f576101ce565b8063c0ee0b8a146105a2578063d9af51e31461065d578063dd62ed3e146106a4578063df0d0e27146106d2576101ce565b806395d89b41116100de57806395d89b4114610490578063a9059cbb14610498578063b9568dd8146104c4578063be45fd62146104e7576101ce565b80637a32f0641461042c57806380023bae146104345780638da5cb5b1461046c576101ce565b806323dfe730116101715780634402bba31161014b5780634402bba3146103bb57806349d22250146103e157806370a08231146103fe5780637a303a9c14610424576101ce565b806323dfe73014610385578063313ce567146103ab5780633370426d146103b3576101ce565b8063095ea7b3116101ad578063095ea7b3146102cf5780630a2eb3011461030f57806318160ddd1461033557806323b872dd1461034f576101ce565b8062913af6146101d3578063064ad7c21461021657806306fdde0314610252575b600080fd5b6101f6600480360360208110156101e957600080fd5b503563ffffffff1661076c565b604080519384526020840192909252151582820152519081900360600190f35b61023c6004803603602081101561022c57600080fd5b50356001600160a01b03166107f3565b6040805160ff9092168252519081900360200190f35b61025a610897565b6040805160208082528351818301528351919283929083019185019080838360005b8381101561029457818101518382015260200161027c565b50505050905090810190601f1680156102c15780820380516001836020036101000a031916815260200191505b509250505060405180910390f35b6102fb600480360360408110156102e557600080fd5b506001600160a01b0381351690602001356108ce565b604080519115158252519081900360200190f35b6102fb6004803603602081101561032557600080fd5b50356001600160a01b0316610935565b61033d610970565b60408051918252519081900360200190f35b6102fb6004803603606081101561036557600080fd5b506001600160a01b03813581169160208101359091169060400135610976565b61023c6004803603602081101561039b57600080fd5b50356001600160a01b0316610ae5565b61023c610d4d565b61033d610d52565b61023c600480360360208110156103d157600080fd5b50356001600160a01b0316610d58565b61023c600480360360208110156103f757600080fd5b5035610f31565b61033d6004803603602081101561041457600080fd5b50356001600160a01b0316611013565b61033d61102e565b61033d611034565b61046a6004803603606081101561044a57600080fd5b506001600160a01b0381358116916020810135916040909101351661103a565b005b61047461112a565b604080516001600160a01b039092168252519081900360200190f35b61025a611139565b6102fb600480360360408110156104ae57600080fd5b506001600160a01b038135169060200135611156565b61023c600480360360208110156104da57600080fd5b503563ffffffff16611275565b6102fb600480360360608110156104fd57600080fd5b6001600160a01b038235169160208101359181019060608101604082013564010000000081111561052d57600080fd5b82018360208201111561053f57600080fd5b8035906020019184600183028401116401000000008311171561056157600080fd5b91908080601f01602080910402602001604051908101604052809392919081815260200183838082843760009201919091525092955061143c945050505050565b6102fb600480360360608110156105b857600080fd5b6001600160a01b03823516916020810135918101906060810160408201356401000000008111156105e857600080fd5b8201836020820111156105fa57600080fd5b8035906020019184600183028401116401000000008311171561061c57600080fd5b91908080601f016020809104026020016040519081016040528093929190818152602001838380828437600092019190915250929550611461945050505050565b6106836004803603602081101561067357600080fd5b50356001600160a01b0316611468565b6040518082600281111561069357fe5b815260200191505060405180910390f35b61033d600480360360408110156106ba57600080fd5b506001600160a01b0381358116916020013516611486565b61046a600480360360608110156106e857600080fd5b506001600160a01b0381351690602081013590604001356114b1565b61023c6004803603602081101561071a57600080fd5b50356001600160a01b0316611573565b6102fb6004803603602081101561074057600080fd5b5035611686565b61033d611698565b61033d6004803603602081101561076557600080fd5b503561169e565b600080600060068463ffffffff168154811061078457fe5b90600052602060002090600302016000015460068563ffffffff16815481106107a957fe5b90600052602060002090600302016001015460068663ffffffff16815481106107ce57fe5b6000918252602090912060026003909202010154919450925060ff1690509193909250565b6001546000906001600160a01b031633141561088e57600354610886576001600160a01b038216600090815260026020526040902080546001919060ff191682800217905550600380546001019055604080516001600160a01b038416815290517f1767f5d6fdb0884c185778bf3ba4d303dc6af28da0798c96577f7c5450631d8b9181900360200190a1506002610892565b506001610892565b5060005b919050565b60408051808201909152601881527f52657075746174696f6e616c204d6572697420546f6b656e0000000000000000602082015290565b3360008181526008602090815260408083206001600160a01b038716808552908352818420869055815186815291519394909390927f8c5be1e5ebec7d5bd14f71427d1e84f3dd0314c0f7b2291e5b200ac8c7c3b925928290030190a35060015b92915050565b600060016001600160a01b03831660009081526002602081905260409091205460ff169081111561096257fe5b141561088e57506001610892565b60145490565b6001600160a01b038084166000818152600860209081526040808320948716835293815283822054928252600790529182205483118015906109b85750828110155b6109c157600080fd5b6001600160a01b0384166000908152600760205260409020546109e490846116c3565b6001600160a01b038086166000908152600760205260408082209390935590871681522054610a1390846116d5565b6001600160a01b038616600090815260076020526040902055600019811015610a8d576001600160a01b03808616600090815260086020908152604080832093881683529290522054610a6690846116d5565b6001600160a01b038087166000908152600860209081526040808320938916835292905220555b836001600160a01b0316856001600160a01b03167fddf252ad1be2c89b69c2b068fc378daa952ba7f163c4a11628f55a4df523b3ef856040518082815260200191505060405180910390a360019150505b9392505050565b6000610af033610935565b1561088e5760016001600160a01b03831660009081526002602081905260409091205460ff1690811115610b2057fe5b1461088657600260035410610c9a576040805173383937b6b7ba32a0b236b4b734b9ba3930ba37b960611b6020808301919091526bffffffffffffffffffffffff19606086901b16603483015282516028818403018152604890920190925280519101206000610b8f8261169e565b9050600080548210610ba357506001610bc0565b6000610bae846116ea565b90506000548110610bbe57600191505b505b60018115151415610c8e576001600160a01b0385166000908152600260205260409020805460ff19166001908117909155600380549091019055610c03836117f4565b50610c46426040516020018080671c1c9bdb5bdd195960c21b815250600801828152602001915050604051602081830303815290604052805190602001206118f3565b604080516001600160a01b038716815290517f7f477eb04f5a964ab231fdc42872d9356c3010171ed2c961d9166f49239786979181900360200190a160029350505050610892565b60039350505050610892565b6001600160a01b038216600090815260026020908152604091829020805460ff191660019081179091556003805490910190558151671c1c9bdb5bdd195960c21b81830152426028808301919091528351808303909101815260489091019092528151910120610d09906118f3565b604080516001600160a01b038416815290517f7f477eb04f5a964ab231fdc42872d9356c3010171ed2c961d9166f49239786979181900360200190a1506002610892565b601290565b60065490565b6000610d6333610935565b1561088e5760016001600160a01b03831660009081526002602081905260409091205460ff1690811115610d9357fe5b141561088657604080517f61646d696e697374726174696f6e5265766f636174696f6e566f7465000000006020808301919091526bffffffffffffffffffffffff19606086901b16603c83015282516030818403018152605090920190925280519101206000610e028261169e565b9050600080548210610e1657506001610e33565b6000610e21846116ea565b90506000548110610e3157600191505b505b60018115151415610f25576001600160a01b038516600090815260026020818152604092839020805460ff1916909217909155600380546000190190558151661c995d9bdad95960ca1b81830152426027808301919091528351808303909101815260479091019092528151910120610eab906118f3565b6000546003541015610ed35760026003541115610ecd57600354600055610ed3565b60026000555b610edc836117f4565b50604080516001600160a01b038716815290517f79830203ee788345fbc4b7afa193ed483738eaecd94975fa1fa50c09c9a5be1f9181900360200190a160039350505050610892565b60029350505050610892565b6000610f3c33610935565b1561088e57600082118015610f5357506003548211155b1561088657610f6061195c565b828152426202a30001602082019081526006805460018101825560009190915282517ff652222313e28459528d920b65115c16c04f3efc82aaedc97be59f3f377c0d3f60039092029182015590517ff652222313e28459528d920b65115c16c04f3efc82aaedc97be59f3f377c0d408201556040909101517ff652222313e28459528d920b65115c16c04f3efc82aaedc97be59f3f377c0d41909101805460ff1916911515919091179055506002610892565b6001600160a01b031660009081526007602052604090205490565b60005490565b60145481565b600f80546001600160a01b039485166000818152601060209081526040808320805467ffffffffffffffff191667ffffffffffffffff9096169590951790945560118152838220805460ff1916600190811790915560128252848320601898891b9055959097168152600d8752828120546007909752828120805430835284832054848452948320670de0b6b3a76400009190981b90980260301c9790970490920394859055855494909403909455805491820181559092527f8d1108e10bcb7c27dddfc02ed9d693a074039d026cf4ea4240b40f7d581ac80290910180546001600160a01b0319169091179055565b6001546001600160a01b031681565b60408051808201909152600381526214935560ea1b602082015290565b60006001600160a01b038316301480159061118a57506001600160a01b0383166000908152600c602052604090205460ff16155b80156111af57506001600160a01b03831660009081526011602052604090205460ff16155b1561126d5733600090815260076020526040902054821161126d57336000908152600760205260409020546111e490836116d5565b33600090815260076020526040808220929092556001600160a01b0385168152205461121090836116c3565b6001600160a01b0384166000818152600760209081526040918290209390935580518581529051919233927fddf252ad1be2c89b69c2b068fc378daa952ba7f163c4a11628f55a4df523b3ef9281900390910190a350600161092f565b50600061092f565b600061128033610935565b1561088e5760065463ffffffff831610156108865760035460068363ffffffff16815481106112ab57fe5b906000526020600020906003020160000154116114345760068263ffffffff16815481106112d557fe5b600091825260209091206002600390920201015460ff1615801561131d575060068263ffffffff168154811061130757fe5b9060005260206000209060030201600101544211155b1561142c5760008260405160200180806119ba602291396022018263ffffffff1660e01b8152600401915050604051602081830303815290604052805190602001209050600061136c8261169e565b90506000805482106113805750600161139d565b600061138b846116ea565b9050600054811061139b57600191505b505b600181151514156114205760068563ffffffff16815481106113bb57fe5b906000526020600020906003020160000154600081905550600160068663ffffffff16815481106113e857fe5b60009182526020909120600390910201600201805460ff1916911515919091179055611413836117f4565b5060059350505050610892565b60049350505050610892565b506003610892565b506002610892565b6000815160001415611459576114528484611156565b9050610ade565b506000610ade565b6000806000fd5b6001600160a01b031660009081526002602052604090205460ff1690565b6001600160a01b03918216600090815260086020908152604080832093909416825291909152205490565b600a80546001600160a01b03949094166000818152600b60209081526040808320805467ffffffffffffffff191667ffffffffffffffff90991698909817909755600c8152868220805460ff19166001908117909155600d825287832060189690961b909555308252600790528581208054869003905581815294852093909355805491820181559092527fc65a7bb8d6351c1cf70c95a316cc6a92839c986682d98bc35f958f4883f9d2a890910180546001600160a01b0319169091179055565b3360009081526011602052604081205460ff1615156001141561088e576001600160a01b03821630148015906115c257506001600160a01b0382166000908152600c602052604090205460ff16155b80156115e757506001600160a01b03821660009081526011602052604090205460ff16155b1561088657336000908152601260209081526040808320546007909252808320546001600160a01b0386168452922054670de0b6b3a7640000601884901b90920260301c91909104918290039061163e90826116c3565b6001600160a01b03851660009081526007602052604080822092909255338152205461166a90826116d5565b3360009081526007602052604090205550600291506108929050565b60008054821061088e57506001610892565b60035481565b6000806116aa8361192d565b6000908152600460205260409020600201549392505050565b600082820183811015610ade57600080fd5b6000828211156116e457600080fd5b50900390565b60006116f533610935565b1561088e5760006117058361192d565b6003546000828152600460205260409020600201549192501180156117805750600081815260046020908152604080832033845290915281205460ff16600381111561174d57fe5b148061178057506003600082815260046020908152604080832033845290915290205460ff16600381111561177e57fe5b145b156117db576000818152600460208181526040808420600281018054600190810190915533808752828552928620805460ff191682179055938352830180549384018155845292200180546001600160a01b03191690911790555b6000908152600460205260409020600201549050610892565b60006117ff33610935565b1561088e57600061180f8361192d565b600081815260046020526040902060020154909150156118e95760005b6000828152600460205260409020600101548110156118ad57600082815260046020526040812060018101805460039391908590811061186857fe5b60009182526020808320909101546001600160a01b031683528201929092526040019020805460ff191660018360038111156118a057fe5b021790555060010161182c565b5060008181526004602052604081206118cb9160019091019061197f565b60009081526004602052604081206002908101919091559050610892565b6001915050610892565b6005548160405160200180838152602001828152602001925050506040516020818303038152906040528051906020012060058190555050565b600554604080516020808201939093528082019390935280518084038201815260609093019052815191012090565b604051806060016040528060008152602001600081526020016000151581525090565b508054600082559060005260206000209081019061199d91906119a0565b50565b5b808211156119b557600081556001016119a1565b509056fe61646d696e436f6e6669726d6174696f6e5468726573686f6c6450726f706f73616ca26469706673582212200971644a1b6c8b4d5ead6d271f6e841d98c57f9e910facef7093dd4fe3ebe40064736f6c63430007010033",
  "immutableReferences": {},
  "source": "pragma solidity ^0.7.1;\n//SPDX-License-Identifier: UNLICENSED\n\nimport '../Libraries/SafeMath.sol';\n\nimport \"../Interfaces/IErc20.sol\";\nimport \"../Interfaces/IErc223.sol\";\n\nimport \"../Administrable.sol\";\n\n// RMT (Reputational Merit Token) is the distribution mechanism for the reputation on the Shyft network.\n// The purpose is to incentivize early onboarding. this is done through using proportional multipliers per instance\n// of distribution.\n//\n// example:\n// if the amount of RMT initially is 100, and the distribution curve is 0.98, the first distribution is\n// 100 * 0.98 = 98\n// 100 - 98 = 2\n// hence 2 is the distribution amount for the first amount allocated.\n// the next is (98 - (98 * 0.98)) = 1.96\n\n// all distribution curves are left shifted 24 bits to use a fixed-point like multiplication.\n// example: ((100 * (2^24) - (((100 * (2^24)) * (0.98 * (2^24))) / (2^24))) / (2^24) = 98\n//\n// the tokens themselves are right shifted by 18 places, allowing for proper computation of (tiny) amounts.\n\n\n// Regions within RMT are as such:\n// |.......................|..................|.......................................................................|\n//  ^ trust anchors (20%)   ^ bounties (10%)                            ^ future use (70%)\n\n// then, distributions from each region, as new distributors are set up, follow that region's distribution curve.\n// >>> trust anchors are the slowest, so for the most part they have minor differences between themselves, and taper off\n// in 3-5 years (assuming X trust anchors coming onto the system in a month).\n// >>> bounties are faster, tapering off in a year (assuming Y bounties are set out per month).\n// >>> future use can have a variable curve structure associated with whatever happens.\n\n// a fun sideproject would be to build out a bunch of subgames categories, with different categories of staking behaviour\n// like \"loyalist\" for those that never move their out of Safe onto another blockchain.\n\ncontract RMT is Administrable, IErc20, IErc223, IErc223ReceivingContract {\n    using SafeMath for uint256;\n\n    uint256 constant private MAX_UINT256 = 2**256 - 1;\n\n    mapping(address => uint256) balances;\n    mapping(address => mapping(address => uint256)) allowed;\n\n    uint256 primaryDistributionCurve_leftShifted24Bits;\n\n    //regions\n    address[] regionAddresses;\n    mapping(address => uint64) regionMapping;\n    mapping(address => bool) regionMappingExists;\n    // distribution rate\n    mapping(address => uint256) regionBaseCurve_leftShifted24Bits;\n\n    //distributions per region\n    mapping(address => uint256) currentDistributorsFromRegions;\n\n    //distributors\n    address[] distributorAddresses;\n    mapping(address => uint64) distributorMapping;\n    mapping(address => bool) distributorMappingExists;\n\n    // distribution rate\n    mapping(address => uint256) distributorCurve_leftShifted24Bits;\n\n    // distribution per user per distributor\n    mapping(address => uint256) currentDistributionsFromDistributor;\n\n\n    // ------------------------------------------------------------------------------------\n\n    //@note: Concept of how to make RMT \"valueless\" while still retaining the properties of fixed supply:\n    // basic idea is to make it similar to understand computationally, but impossible to easily push to\n    // a centralized exchange or a DEX, purely from a user interface standpoint.\n\n    // This is done by using an extremely large number as the base, and using only two decimals\n    // instead of the 18 decimals common in many token formats.\n\n    //https://en.wikipedia.org/wiki/Names_of_large_numbers\n\n    // Novemdecillion = 10^60. log2 10^60 = 199 bits in base 2.\n    // 199 + 18 decimals of precision + 24 as a bit shift = 241\n    // given the state space, there's no reason why a huge amount of \"Novems\" could be created initially. primary\n    // measurements of RMT could be 1 Novem large (10^60).\n    //\n    // benefits to using such a degree of tokens would be twofold:\n    // 1) we'll be using a number both above or below a google, depending on where in the world you ask.\n    // 2) the relative supply to donate, show appreciation, etc can be extremely large.\n    // in the 256 bits a useful measure of time-spent-using-system.\n    // suggested initial amount = 100000000000000000000.\n\n    // ------------------------------------------------------------------------------------\n\n//    function RMT(uint256 _initialRMTAmount18Bits, uint256 _primaryDistributionCurve_percentage18Bits) public {\n    constructor(uint256 _primaryDistributionCurve_percentage18Bits) {\n        owner = msg.sender;\n\n        uint256 initialSupply = 10 ** 60;\n        thisTotalSupply = initialSupply;\n\n        balances[address(this)] = initialSupply;\n\n        //store distribution curve.\n        primaryDistributionCurve_leftShifted24Bits = _primaryDistributionCurve_percentage18Bits << 24;\n    }\n\n    //@note: Shyft ownership/administration required.\n    //@note: @todo: @next: add Administrable multisig check\n    function setupNewRegionWithBaseCurve(address regionAddress, uint256 _regionRMTAmount18Bits, uint256 _newDistributorCurve_percentage18Bits) public {\n        regionMapping[regionAddress] = uint64(regionAddresses.length);\n        regionMappingExists[regionAddress] = true;\n        regionBaseCurve_leftShifted24Bits[regionAddress] = _newDistributorCurve_percentage18Bits << 24;\n\n        balances[address(this)] -= _regionRMTAmount18Bits;\n        balances[regionAddress] = _regionRMTAmount18Bits;\n\n        regionAddresses.push(regionAddress);\n    }\n\n    //@note: Shyft ownership/administration required.\n    //@note: @todo: @next: add Administrable multisig check\n    function setupNewDistributionWithCurveInRegion(address _newDistributionAddress, uint256 _newDistributorCurve_percentage18Bits, address _regionAddress) public {\n        distributorMapping[_newDistributionAddress] = uint64(distributorAddresses.length);\n        distributorMappingExists[_newDistributionAddress] = true;\n\n        distributorCurve_leftShifted24Bits[_newDistributionAddress] = _newDistributorCurve_percentage18Bits << 24;\n\n        //remove the left shifts, and because of the extra 10^18 in the multiplication result, divide by that as well.\n        uint256 distributionResult = (((balances[_regionAddress] << 24) * regionBaseCurve_leftShifted24Bits[_regionAddress]) >> 24 >> 24) / (10 ** 18);\n\n        //the result is now a difference between two numbers that have 18 decimal places.\n        uint256 distributionAmount = balances[address(this)] - distributionResult;\n\n        balances[_newDistributionAddress] = distributionAmount;\n        balances[_regionAddress] -= distributionAmount;\n\n        distributorAddresses.push(_newDistributionAddress);\n    }\n\n    //@note: sending to a generalized address, from a distributor.\n\n    //returns\n    // 0 = address is not within distribution mapping\n    // 1 = invalid target address (cannot send to this contract, a region, or a distributor\n    // 2 = distribution successful\n\n    function performDistribution(address _to) public returns (uint8 result) {\n        if (distributorMappingExists[msg.sender] == true) {\n            if (_to != address(this) && regionMappingExists[_to] == false && distributorMappingExists[_to] == false) {\n                uint256 distributionResult = (((balances[msg.sender] << 24) * distributorCurve_leftShifted24Bits[msg.sender]) >> 24 >> 24) / (10 ** 18);\n                uint256 distributionAmount = balances[msg.sender] - distributionResult;\n\n                balances[_to] = balances[_to].add(distributionAmount);\n                balances[msg.sender] = balances[msg.sender].sub(distributionAmount);\n\n                //distribution successful\n                return 2;\n            } else {\n                //invalid target address (cannot send to this contract, a region, or a distributor\n                return 1;\n            }\n        } else {\n            //address is not within distribution mapping\n            return 0;\n        }\n    }\n\n    /**************** ERC 223/20 ****************/\n\n    uint256 public thisTotalSupply;\n\n    //gets balance for Shyft KYC token type\n    function balanceOf(address _who) public override (IErc20, IErc223) view returns (uint) {\n        return balances[_who];\n    }\n\n    function name() public pure returns (string memory _name) {\n        return \"Reputational Merit Token\";\n    }\n\n    function symbol() public pure returns (string memory _symbol) {\n        return \"RMT\";\n    }\n\n    function decimals() public pure returns (uint8 _decimals) {\n        return 18;\n    }\n\n    function totalSupply() public view override(IErc20, IErc223) returns (uint256) {\n        return thisTotalSupply;\n    }\n\n    function transfer(address _to, uint256 _value) public override(IErc20, IErc223) returns (bool ok) {\n        if (_to != address(this) && regionMappingExists[_to] == false && distributorMappingExists[_to] == false) {\n            if (balances[msg.sender] >= _value) {\n                balances[msg.sender] = balances[msg.sender].sub(_value);\n                balances[_to] = balances[_to].add(_value);\n\n                emit Transfer(msg.sender, _to, _value);\n                //transfer successful\n                return true;\n            } else {\n                //insufficient balance\n                return false;\n            }\n        } else {\n            //invalid target address (cannot send to this contract, a region, or a distributor\n            return false;\n        }\n    }\n\n    function transfer(address _to, uint _value, bytes memory data) public override returns (bool ok) {\n        if (data.length == 0) {\n            return transfer(_to, _value);\n        } else {\n            return false;\n        }\n    }\n\n    function allowance(address _tokenOwner, address _spender) public view override returns (uint remaining) {\n        return allowed[_tokenOwner][_spender];\n    }\n\n    function approve(address _spender, uint _tokens) public override returns (bool success) {\n        allowed[msg.sender][_spender] = _tokens;\n\n        emit Approval(msg.sender, _spender, _tokens);\n\n        return true;\n    }\n\n    function transferFrom(address _from, address _to, uint256 _value) public override returns (bool success) {\n        uint256 thisAllowance = allowed[_from][_to];\n        require(balances[_from] >= _value && thisAllowance >= _value);\n        balances[_to] = balances[_to].add(_value);\n        balances[_from] = balances[_from].sub(_value);\n        if (thisAllowance < MAX_UINT256) {\n            allowed[_from][_to] = allowed[_from][_to].sub(_value);\n        }\n        emit Transfer(_from, _to, _value);\n        return true;\n    }\n\n    //@note:@todo:@critical: update this\n    function tokenFallback(address _from, uint _value, bytes memory _data) public override returns (bool ok) {\n        revert();\n    }\n}\n",
  "sourcePath": "/home/ubuntu/shyft_shyftcorecontracts/contracts/ReputationalMeritToken/RMT.sol",
  "compiler": {
    "name": "solc",
    "version": "0.7.1+commit.f4a555be.Emscripten.clang"
  },
  "schemaVersion": "3.4.5",
  "updatedAt": "2022-02-22T18:32:57.750Z",
  "devdoc": {
    "kind": "dev",
    "methods": {
      "changeCurrentAdminConfirmationThreshold(uint32)": {
        "details": "| This function takes in an index for a proposal ot change the current administrator confirmation threshold.      | Uses Multi-signature permissions.",
        "params": {
          "_proposalIndex": "The index for a specific proposal to change the current administrator confirmation threshold."
        },
        "returns": {
          "result": "   | 0 = not an administrator    | 1 = invalid proposal index    | 2 = not enough administrators to achieve confirmation threshold    | 3 = proposal has expired    | 4 = not enough administrators have permissioned change    | 5 = admin confirmation threshold set"
        }
      },
      "getAdminAccess(address)": {
        "details": "Gets the level of access for a specific administrator.",
        "returns": {
          "result": "the level of access for this administrator"
        }
      },
      "getAdminConfirmationProposal(uint32)": {
        "details": "Gets the components of a specific NofM change proposal.",
        "params": {
          "_proposalIndex": "A proposal index"
        },
        "returns": {
          "adminThreshold": "the threshold of the NofM voting within this proposal",
          "endTime": "the end time of this proposal, after which it cannot be voted on",
          "isCompleted": "whether this proposal has been completed by multisig parties"
        }
      },
      "getAdminConfirmationThreshold()": {
        "details": "Gets the NofM threshold currently required for passing multisig votes.",
        "returns": {
          "results": "the current NofM threshold"
        }
      },
      "getNumAdminConfirmationProposals()": {
        "details": "Gets the number of a specific NofM change proposal.",
        "returns": {
          "result": "the number of a specific NofM proposals"
        }
      },
      "getPermissionsForMultisignKey(bytes32)": {
        "details": "Gets whether there have been a specific number of multisignature confirmations for a specific vote.",
        "params": {
          "_keyKeccak": "A hash to reference as the key/value vote subject."
        },
        "returns": {
          "result": "0 to numAdministrators = #confirmations"
        }
      },
      "isAdministrator(address)": {
        "details": "Returns whether a given address is an administrator.",
        "params": {
          "_administratorAddress": "The public address of a specific administrator."
        },
        "returns": {
          "result": "   | true = is administrator    | false = either administrator unset or demoted"
        }
      },
      "isConfirmationsIsOverThreshold(uint256)": {
        "details": "Returns whether a reference number is over the system's administrator confirmation threshold (ie. the vote passes).",
        "params": {
          "_confirmationNumber": "A number to reference as the confirmation number"
        },
        "returns": {
          "result": "   | true = is over threshold    | false = not over threshold"
        }
      },
      "promoteAdministrator(address)": {
        "details": "| Promotes a new administrator. If there is only a primary Administrator set, this will allow the addition of the second administrator and enable multisignature requirements for any actions of this contract (or those inheriting it).      | Uses Multi-signature permissions if there is more than one Administrator onboarded.",
        "params": {
          "_newAdministratorAddress": "The new Administrator's public address."
        },
        "returns": {
          "result": "   | 0 = not administrator    | 1 = administrator already promoted    | 2 = new administrator promoted    | 3 = added vote to promote administrator"
        }
      },
      "proposeChangeCurrentAdminConfirmationThreshold(uint256)": {
        "details": "This function proposes a change to the threshold of voting required (N signatories of M total set size = NofM). To prevent stale inattention results, timeout after 2 days.",
        "params": {
          "_newThreshold": "The new threshold (N of M multisig) that is needed to be passed."
        },
        "returns": {
          "result": "   | 0 = not an administrator    | 1 = not enough administrators to achieve confirmation threshold    | 2 = new proposal added"
        }
      },
      "revokeAdministrator(address)": {
        "details": "| Revokes an existing administrator from the multisignature set, checks to see if the # of required votes would be higher then the administrator set size, and if so adjusts to match.      | Uses Multi-signature permissions if there is more than one Administrator onboarded.",
        "params": {
          "_revokeAdministratorAddress": "An existing Administrator's public address."
        },
        "returns": {
          "result": "result"
        }
      },
      "setPrimaryAdministrator(address)": {
        "details": "Sets the primary Administrator for this contract (or those that inherit from it). This transfers ownership of this contracts first administration duties (to find and onboard a second party for multisignature requirements) to the set Administrator's public address.",
        "params": {
          "_newAdministratorAddress": "The new Administrator's public address."
        },
        "returns": {
          "result": "   | 0 = not owner    | 1 = already set first administrator    | 2 = setup first administrator"
        }
      },
      "tokenFallback(address,uint256,bytes)": {
        "details": "Standard ERC223 function that will handle incoming token transfers.",
        "params": {
          "_data": "Transaction metadata.",
          "_from": "Token sender address.",
          "_value": "Amount of tokens."
        }
      }
    },
    "version": 1
  },
  "userdoc": {
    "kind": "user",
    "methods": {
      "changeCurrentAdminConfirmationThreshold(uint32)": {
        "notice": "Multiple proposals can be constructed for different sets to apply to change the administrator threshold. As the permissions for multisig keys use a voting set nonce underneath the hood, a change in the current administrator set will cancel all current votes."
      },
      "getPermissionsForMultisignKey(bytes32)": {
        "notice": "Uses composition features (based on current validator set) so data structure may be orphaned when promotion/demotion events occur."
      },
      "promoteAdministrator(address)": {
        "notice": "| Uses composition features (based on current validator set) so data structure may be orphaned when promotion/demotion events occur.         | Whenever this function is called (with a passing vote), there will be a re-hashing of the voting set nonce, so all current votes will become invalidated."
      },
      "revokeAdministrator(address)": {
        "notice": "| Uses composition features (based on current validator set) so data structure may be orphaned when promotion/demotion events occur.         | Whenever this function is called (with a passing vote), there will be a re-hashing of the voting set nonce, so all current votes will become invalidated."
      }
    },
    "version": 1
  }
}