{
  "contractName": "TrustAnchorExtraData_Unique",
  "abi": [
    {
      "inputs": [],
      "stateMutability": "nonpayable",
      "type": "constructor"
    },
    {
      "anonymous": false,
      "inputs": [
        {
          "indexed": true,
          "internalType": "address",
          "name": "_trustAnchorAddress",
          "type": "address"
        },
        {
          "indexed": false,
          "internalType": "string",
          "name": "_endpointName",
          "type": "string"
        },
        {
          "indexed": false,
          "internalType": "uint8[4]",
          "name": "_ipv4Address",
          "type": "uint8[4]"
        }
      ],
      "name": "EVT_setTrustAnchorEndPointCreated",
      "type": "event"
    },
    {
      "anonymous": false,
      "inputs": [
        {
          "indexed": true,
          "internalType": "address",
          "name": "_trustAnchorAddress",
          "type": "address"
        },
        {
          "indexed": false,
          "internalType": "string",
          "name": "_endpointName",
          "type": "string"
        },
        {
          "indexed": false,
          "internalType": "uint8[4]",
          "name": "_ipv4Address",
          "type": "uint8[4]"
        }
      ],
      "name": "EVT_setTrustAnchorEndPointUpdated",
      "type": "event"
    },
    {
      "anonymous": false,
      "inputs": [
        {
          "indexed": true,
          "internalType": "address",
          "name": "_trustAnchorAddress",
          "type": "address"
        },
        {
          "indexed": false,
          "internalType": "string",
          "name": "_endpointName",
          "type": "string"
        },
        {
          "indexed": false,
          "internalType": "bool",
          "name": "_isEnabled",
          "type": "bool"
        }
      ],
      "name": "EVT_setTrustAnchorEndpointIsEnabled",
      "type": "event"
    },
    {
      "anonymous": false,
      "inputs": [
        {
          "indexed": true,
          "internalType": "address",
          "name": "_trustAnchorAddress",
          "type": "address"
        },
        {
          "indexed": false,
          "internalType": "string",
          "name": "_hashMappingName",
          "type": "string"
        },
        {
          "indexed": false,
          "internalType": "bytes32",
          "name": "_hashMappingValue",
          "type": "bytes32"
        }
      ],
      "name": "EVT_setTrustAnchorHashMappingCreated",
      "type": "event"
    },
    {
      "anonymous": false,
      "inputs": [
        {
          "indexed": true,
          "internalType": "address",
          "name": "_trustAnchorAddress",
          "type": "address"
        },
        {
          "indexed": false,
          "internalType": "string",
          "name": "_hashMappingName",
          "type": "string"
        },
        {
          "indexed": false,
          "internalType": "bytes32",
          "name": "_hashMappingValue",
          "type": "bytes32"
        }
      ],
      "name": "EVT_setTrustAnchorHashMappingUpdated",
      "type": "event"
    },
    {
      "anonymous": false,
      "inputs": [
        {
          "indexed": true,
          "internalType": "address",
          "name": "_trustAnchorAddress",
          "type": "address"
        },
        {
          "indexed": false,
          "internalType": "string",
          "name": "_keyValuePairName",
          "type": "string"
        },
        {
          "indexed": false,
          "internalType": "string",
          "name": "_keyValuePairValue",
          "type": "string"
        }
      ],
      "name": "EVT_setTrustAnchorKeyValuePairCreated",
      "type": "event"
    },
    {
      "anonymous": false,
      "inputs": [
        {
          "indexed": true,
          "internalType": "address",
          "name": "_trustAnchorAddress",
          "type": "address"
        },
        {
          "indexed": false,
          "internalType": "string",
          "name": "_keyValuePairName",
          "type": "string"
        },
        {
          "indexed": false,
          "internalType": "string",
          "name": "_keyValuePairValue",
          "type": "string"
        }
      ],
      "name": "EVT_setTrustAnchorKeyValuePairUpdated",
      "type": "event"
    },
    {
      "anonymous": false,
      "inputs": [
        {
          "indexed": true,
          "internalType": "address",
          "name": "_trustAnchorAddress",
          "type": "address"
        },
        {
          "indexed": false,
          "internalType": "string",
          "name": "_numericIdentifierName",
          "type": "string"
        },
        {
          "indexed": false,
          "internalType": "uint256",
          "name": "_numericIdentifierValue",
          "type": "uint256"
        }
      ],
      "name": "EVT_setTrustAnchorNumericIdentifierCreated",
      "type": "event"
    },
    {
      "anonymous": false,
      "inputs": [
        {
          "indexed": true,
          "internalType": "address",
          "name": "_trustAnchorAddress",
          "type": "address"
        },
        {
          "indexed": false,
          "internalType": "string",
          "name": "_numericIdentifierName",
          "type": "string"
        },
        {
          "indexed": false,
          "internalType": "uint256",
          "name": "_numericIdentifierValue",
          "type": "uint256"
        }
      ],
      "name": "EVT_setTrustAnchorNumericIdentifierUpdated",
      "type": "event"
    },
    {
      "anonymous": false,
      "inputs": [
        {
          "indexed": true,
          "internalType": "address",
          "name": "_trustAnchorAddress",
          "type": "address"
        },
        {
          "indexed": false,
          "internalType": "string",
          "name": "_metaData",
          "type": "string"
        }
      ],
      "name": "EVT_setTrustAnchorPublicMetaData",
      "type": "event"
    },
    {
      "anonymous": false,
      "inputs": [
        {
          "indexed": true,
          "internalType": "address",
          "name": "_validatorAddress",
          "type": "address"
        },
        {
          "indexed": false,
          "internalType": "address",
          "name": "_trustAnchorAddress",
          "type": "address"
        },
        {
          "indexed": false,
          "internalType": "string",
          "name": "_keyValuePairName",
          "type": "string"
        },
        {
          "indexed": false,
          "internalType": "uint256",
          "name": "_numValidations",
          "type": "uint256"
        }
      ],
      "name": "EVT_setValidationForKeyValuePairData",
      "type": "event"
    },
    {
      "anonymous": false,
      "inputs": [
        {
          "indexed": true,
          "internalType": "address",
          "name": "previousOwner",
          "type": "address"
        },
        {
          "indexed": true,
          "internalType": "address",
          "name": "newOwner",
          "type": "address"
        }
      ],
      "name": "OwnershipTransferred",
      "type": "event"
    },
    {
      "inputs": [],
      "name": "owner",
      "outputs": [
        {
          "internalType": "address",
          "name": "",
          "type": "address"
        }
      ],
      "stateMutability": "view",
      "type": "function",
      "constant": true
    },
    {
      "inputs": [],
      "name": "renounceOwnership",
      "outputs": [],
      "stateMutability": "nonpayable",
      "type": "function"
    },
    {
      "inputs": [
        {
          "internalType": "address",
          "name": "newOwner",
          "type": "address"
        }
      ],
      "name": "transferOwnership",
      "outputs": [],
      "stateMutability": "nonpayable",
      "type": "function"
    },
    {
      "inputs": [
        {
          "internalType": "address",
          "name": "_trustAnchorManagerAddress",
          "type": "address"
        }
      ],
      "name": "setTrustAnchorManagerAddress",
      "outputs": [
        {
          "internalType": "bool",
          "name": "result",
          "type": "bool"
        }
      ],
      "stateMutability": "nonpayable",
      "type": "function"
    },
    {
      "inputs": [],
      "name": "getTrustAnchorManagerAddress",
      "outputs": [
        {
          "internalType": "address",
          "name": "result",
          "type": "address"
        }
      ],
      "stateMutability": "view",
      "type": "function",
      "constant": true
    },
    {
      "inputs": [
        {
          "internalType": "address",
          "name": "_trustAnchorAddress",
          "type": "address"
        }
      ],
      "name": "doesTrustAnchorHaveUniqueExtraData",
      "outputs": [
        {
          "internalType": "bool",
          "name": "result",
          "type": "bool"
        }
      ],
      "stateMutability": "view",
      "type": "function",
      "constant": true
    },
    {
      "inputs": [
        {
          "internalType": "string",
          "name": "_endpointName",
          "type": "string"
        },
        {
          "internalType": "uint8[4]",
          "name": "_ipv4Address",
          "type": "uint8[4]"
        }
      ],
      "name": "setTrustAnchorDataRetrievalEndpoint",
      "outputs": [
        {
          "internalType": "uint8",
          "name": "result",
          "type": "uint8"
        }
      ],
      "stateMutability": "nonpayable",
      "type": "function"
    },
    {
      "inputs": [
        {
          "internalType": "string",
          "name": "_endpointName",
          "type": "string"
        },
        {
          "internalType": "bool",
          "name": "_isEnabled",
          "type": "bool"
        }
      ],
      "name": "setTrustAnchorDataRetrievalEndpointIsEnabled",
      "outputs": [
        {
          "internalType": "uint8",
          "name": "result",
          "type": "uint8"
        }
      ],
      "stateMutability": "nonpayable",
      "type": "function"
    },
    {
      "inputs": [
        {
          "internalType": "address",
          "name": "_trustAnchorAddress",
          "type": "address"
        }
      ],
      "name": "getTrustAnchorNumberOfEndpoints",
      "outputs": [
        {
          "internalType": "uint256",
          "name": "result",
          "type": "uint256"
        }
      ],
      "stateMutability": "view",
      "type": "function",
      "constant": true
    },
    {
      "inputs": [
        {
          "internalType": "address",
          "name": "_trustAnchorAddress",
          "type": "address"
        },
        {
          "internalType": "uint256",
          "name": "_index",
          "type": "uint256"
        }
      ],
      "name": "getTrustAnchorEndpointNameByIndex",
      "outputs": [
        {
          "internalType": "bool",
          "name": "doesExist",
          "type": "bool"
        },
        {
          "internalType": "string",
          "name": "endpointName",
          "type": "string"
        }
      ],
      "stateMutability": "view",
      "type": "function",
      "constant": true
    },
    {
      "inputs": [
        {
          "internalType": "address",
          "name": "_trustAnchorAddress",
          "type": "address"
        },
        {
          "internalType": "string",
          "name": "_endpointName",
          "type": "string"
        }
      ],
      "name": "getTrustAnchorDataEndpoint",
      "outputs": [
        {
          "internalType": "bool",
          "name": "doesExist",
          "type": "bool"
        },
        {
          "internalType": "uint8[4]",
          "name": "ipv4Address",
          "type": "uint8[4]"
        },
        {
          "internalType": "bool",
          "name": "isEnabled",
          "type": "bool"
        }
      ],
      "stateMutability": "view",
      "type": "function",
      "constant": true
    },
    {
      "inputs": [
        {
          "internalType": "address",
          "name": "_trustAnchorAddress",
          "type": "address"
        },
        {
          "internalType": "bytes32",
          "name": "_endpointKeccak",
          "type": "bytes32"
        }
      ],
      "name": "getTrustAnchorEndpointNameByEndpointKeccak",
      "outputs": [
        {
          "internalType": "string",
          "name": "endpointName",
          "type": "string"
        }
      ],
      "stateMutability": "view",
      "type": "function",
      "constant": true
    },
    {
      "inputs": [
        {
          "internalType": "string",
          "name": "_hashName",
          "type": "string"
        },
        {
          "internalType": "bytes32",
          "name": "_hashValue",
          "type": "bytes32"
        }
      ],
      "name": "setTrustAnchorHashMapping",
      "outputs": [
        {
          "internalType": "uint8",
          "name": "result",
          "type": "uint8"
        }
      ],
      "stateMutability": "nonpayable",
      "type": "function"
    },
    {
      "inputs": [
        {
          "internalType": "address",
          "name": "_trustAnchorAddress",
          "type": "address"
        }
      ],
      "name": "getTrustAnchorNumberOfHashMappings",
      "outputs": [
        {
          "internalType": "uint256",
          "name": "result",
          "type": "uint256"
        }
      ],
      "stateMutability": "view",
      "type": "function",
      "constant": true
    },
    {
      "inputs": [
        {
          "internalType": "address",
          "name": "_trustAnchorAddress",
          "type": "address"
        },
        {
          "internalType": "uint256",
          "name": "_index",
          "type": "uint256"
        }
      ],
      "name": "getTrustAnchorHashMappingNameByIndex",
      "outputs": [
        {
          "internalType": "bool",
          "name": "doesExist",
          "type": "bool"
        },
        {
          "internalType": "string",
          "name": "hashMappingName",
          "type": "string"
        }
      ],
      "stateMutability": "view",
      "type": "function",
      "constant": true
    },
    {
      "inputs": [
        {
          "internalType": "address",
          "name": "_trustAnchorAddress",
          "type": "address"
        },
        {
          "internalType": "string",
          "name": "_hashMappingName",
          "type": "string"
        }
      ],
      "name": "getTrustAnchorHashMappingValue",
      "outputs": [
        {
          "internalType": "bool",
          "name": "doesExist",
          "type": "bool"
        },
        {
          "internalType": "bytes32",
          "name": "hashValue",
          "type": "bytes32"
        }
      ],
      "stateMutability": "view",
      "type": "function",
      "constant": true
    },
    {
      "inputs": [
        {
          "internalType": "address",
          "name": "_trustAnchorAddress",
          "type": "address"
        },
        {
          "internalType": "bytes32",
          "name": "_hashMappingKeccak",
          "type": "bytes32"
        }
      ],
      "name": "getTrustAnchorHashMappingNameByHashMappingKeccak",
      "outputs": [
        {
          "internalType": "string",
          "name": "hashMappingName",
          "type": "string"
        }
      ],
      "stateMutability": "view",
      "type": "function",
      "constant": true
    },
    {
      "inputs": [
        {
          "internalType": "string",
          "name": "_numericIdentifierName",
          "type": "string"
        },
        {
          "internalType": "uint256",
          "name": "_numericIdentifierValue",
          "type": "uint256"
        }
      ],
      "name": "setTrustAnchorNumericIdentifier",
      "outputs": [
        {
          "internalType": "uint8",
          "name": "result",
          "type": "uint8"
        }
      ],
      "stateMutability": "nonpayable",
      "type": "function"
    },
    {
      "inputs": [
        {
          "internalType": "address",
          "name": "_trustAnchorAddress",
          "type": "address"
        }
      ],
      "name": "getTrustAnchorNumberOfNumericIdentifiers",
      "outputs": [
        {
          "internalType": "uint256",
          "name": "result",
          "type": "uint256"
        }
      ],
      "stateMutability": "view",
      "type": "function",
      "constant": true
    },
    {
      "inputs": [
        {
          "internalType": "address",
          "name": "_trustAnchorAddress",
          "type": "address"
        },
        {
          "internalType": "uint256",
          "name": "_index",
          "type": "uint256"
        }
      ],
      "name": "getTrustAnchorNumericIdentifierNameByIndex",
      "outputs": [
        {
          "internalType": "bool",
          "name": "doesExist",
          "type": "bool"
        },
        {
          "internalType": "string",
          "name": "numericIdentifierName",
          "type": "string"
        }
      ],
      "stateMutability": "view",
      "type": "function",
      "constant": true
    },
    {
      "inputs": [
        {
          "internalType": "address",
          "name": "_trustAnchorAddress",
          "type": "address"
        },
        {
          "internalType": "string",
          "name": "_numericIdentifierName",
          "type": "string"
        }
      ],
      "name": "getTrustAnchorNumericIdentifierValue",
      "outputs": [
        {
          "internalType": "bool",
          "name": "doesExist",
          "type": "bool"
        },
        {
          "internalType": "uint256",
          "name": "numericIdentifierValue",
          "type": "uint256"
        }
      ],
      "stateMutability": "view",
      "type": "function",
      "constant": true
    },
    {
      "inputs": [
        {
          "internalType": "address",
          "name": "_trustAnchorAddress",
          "type": "address"
        },
        {
          "internalType": "bytes32",
          "name": "_numericIdentifierKeccak",
          "type": "bytes32"
        }
      ],
      "name": "getTrustAnchorNumericIdentifierNameByNumericIdentifierKeccak",
      "outputs": [
        {
          "internalType": "string",
          "name": "numericIdentifierName",
          "type": "string"
        }
      ],
      "stateMutability": "view",
      "type": "function",
      "constant": true
    },
    {
      "inputs": [
        {
          "internalType": "string",
          "name": "_keyValuePairName",
          "type": "string"
        },
        {
          "internalType": "string",
          "name": "_keyValuePairValue",
          "type": "string"
        }
      ],
      "name": "setTrustAnchorKeyValuePair",
      "outputs": [
        {
          "internalType": "uint8",
          "name": "result",
          "type": "uint8"
        }
      ],
      "stateMutability": "nonpayable",
      "type": "function"
    },
    {
      "inputs": [
        {
          "internalType": "address",
          "name": "_taAddress",
          "type": "address"
        },
        {
          "internalType": "string",
          "name": "_keyValuePairName",
          "type": "string"
        },
        {
          "internalType": "uint256",
          "name": "_nonce",
          "type": "uint256"
        }
      ],
      "name": "setValidationForKeyValuePairData",
      "outputs": [
        {
          "internalType": "uint8",
          "name": "result",
          "type": "uint8"
        },
        {
          "internalType": "uint256",
          "name": "numValidations",
          "type": "uint256"
        }
      ],
      "stateMutability": "nonpayable",
      "type": "function"
    },
    {
      "inputs": [
        {
          "internalType": "address",
          "name": "_taAddress",
          "type": "address"
        },
        {
          "internalType": "string",
          "name": "_keyValuePairName",
          "type": "string"
        }
      ],
      "name": "getKeyValuePairCurrentNonce",
      "outputs": [
        {
          "internalType": "uint256",
          "name": "result",
          "type": "uint256"
        }
      ],
      "stateMutability": "view",
      "type": "function",
      "constant": true
    },
    {
      "inputs": [
        {
          "internalType": "address",
          "name": "_taAddress",
          "type": "address"
        },
        {
          "internalType": "string",
          "name": "_keyValuePairName",
          "type": "string"
        },
        {
          "internalType": "uint256",
          "name": "_nonce",
          "type": "uint256"
        }
      ],
      "name": "getValidationsArrayForKeyValuePairNonce",
      "outputs": [
        {
          "internalType": "address[]",
          "name": "validationsAddressArray",
          "type": "address[]"
        }
      ],
      "stateMutability": "view",
      "type": "function",
      "constant": true
    },
    {
      "inputs": [
        {
          "internalType": "address",
          "name": "_taAddress",
          "type": "address"
        },
        {
          "internalType": "string",
          "name": "_keyValuePairName",
          "type": "string"
        }
      ],
      "name": "getNumValidationsForLatestKeyValuePair",
      "outputs": [
        {
          "internalType": "uint256",
          "name": "result",
          "type": "uint256"
        }
      ],
      "stateMutability": "view",
      "type": "function",
      "constant": true
    },
    {
      "inputs": [
        {
          "internalType": "address",
          "name": "_trustAnchorAddress",
          "type": "address"
        }
      ],
      "name": "getTrustAnchorNumberOfKeyValuePairs",
      "outputs": [
        {
          "internalType": "uint256",
          "name": "result",
          "type": "uint256"
        }
      ],
      "stateMutability": "view",
      "type": "function",
      "constant": true
    },
    {
      "inputs": [
        {
          "internalType": "address",
          "name": "_trustAnchorAddress",
          "type": "address"
        },
        {
          "internalType": "uint256",
          "name": "_index",
          "type": "uint256"
        }
      ],
      "name": "getTrustAnchorKeyValuePairNameByIndex",
      "outputs": [
        {
          "internalType": "bool",
          "name": "doesExist",
          "type": "bool"
        },
        {
          "internalType": "string",
          "name": "keyValuePairName",
          "type": "string"
        }
      ],
      "stateMutability": "view",
      "type": "function",
      "constant": true
    },
    {
      "inputs": [
        {
          "internalType": "address",
          "name": "_trustAnchorAddress",
          "type": "address"
        },
        {
          "internalType": "string",
          "name": "_keyValuePairName",
          "type": "string"
        }
      ],
      "name": "getTrustAnchorKeyValuePairValue",
      "outputs": [
        {
          "internalType": "bool",
          "name": "doesExist",
          "type": "bool"
        },
        {
          "internalType": "string",
          "name": "keyValuePairValue",
          "type": "string"
        }
      ],
      "stateMutability": "view",
      "type": "function",
      "constant": true
    },
    {
      "inputs": [
        {
          "internalType": "address",
          "name": "_trustAnchorAddress",
          "type": "address"
        },
        {
          "internalType": "bytes32",
          "name": "_keyValuePairKeccak",
          "type": "bytes32"
        }
      ],
      "name": "getTrustAnchorKeyValuePairNameByKeyValuePairKeccak",
      "outputs": [
        {
          "internalType": "string",
          "name": "keyValuePairName",
          "type": "string"
        }
      ],
      "stateMutability": "view",
      "type": "function",
      "constant": true
    },
    {
      "inputs": [
        {
          "internalType": "string",
          "name": "_publicMetaData",
          "type": "string"
        }
      ],
      "name": "setTrustAnchorPublicMetaData",
      "outputs": [
        {
          "internalType": "uint8",
          "name": "result",
          "type": "uint8"
        }
      ],
      "stateMutability": "nonpayable",
      "type": "function"
    },
    {
      "inputs": [
        {
          "internalType": "address",
          "name": "_trustAnchorAddress",
          "type": "address"
        }
      ],
      "name": "getTrustAnchorPublicMetaData",
      "outputs": [
        {
          "internalType": "string",
          "name": "publicMetaData",
          "type": "string"
        }
      ],
      "stateMutability": "view",
      "type": "function",
      "constant": true
    }
  ],
  "bytecode": "0x6080604052600280546001600160a01b03191690553480156200002157600080fd5b5060006200002e6200007e565b600080546001600160a01b0319166001600160a01b0383169081178255604051929350917f8be0079c531659141344cd1fd0a4f28419497f9722a3daafe3b4186f6b6457e0908290a35062000082565b3390565b6134cc80620000926000396000f3fe608060405234801561001057600080fd5b50600436106101fb5760003560e01c80638da5cb5b1161011a578063b82d2249116100ad578063e14512bb1161007c578063e14512bb14610ea6578063e381f4e514610ed2578063ea65dfd414610fd8578063f2fde38b14611004578063f8ec4fc31461102a576101fb565b8063b82d224914610cf5578063bd36590c14610dc4578063d534d02714610dcc578063da73a2cb14610df2576101fb565b8063ad9f9d5c116100e9578063ad9f9d5c14610bbd578063b10ce9fc14610be9578063b6fd148a14610c15578063b7eda8f614610cc9576101fb565b80638da5cb5b14610a2357806392b7e30014610a47578063ab3b918014610a73578063acf58f8314610b19576101fb565b806336f537d4116101925780635718f02a116101615780635718f02a1461083b5780636a64421c14610867578063715018a61461091b57806386c38f3d14610925576101fb565b806336f537d414610789578063384ffe6e146107c35780634396a51c146107e9578063467403df14610815576101fb565b8063213f84bf116101ce578063213f84bf146105b55780632326d76c14610685578063243c64fa146106bd5780632b057c0614610763576101fb565b80630b9f116f146102005780630ced07e2146103355780631aa04331146103f157806320bbdd4c1461051a575b600080fd5b6102b46004803603604081101561021657600080fd5b6001600160a01b038235169190810190604081016020820135600160201b81111561024057600080fd5b82018360208201111561025257600080fd5b803590602001918460018302840111600160201b8311171561027357600080fd5b91908080601f0160208091040260200160405190810160405280939291908181526020018383808284376000920191909152509295506110fd945050505050565b60405180831515815260200180602001828103825283818151815260200191508051906020019080838360005b838110156102f95781810151838201526020016102e1565b50505050905090810190601f1680156103265780820380516001836020036101000a031916815260200191505b50935050505060405180910390f35b6103db6004803603604081101561034b57600080fd5b810190602081018135600160201b81111561036557600080fd5b82018360208201111561037757600080fd5b803590602001918460018302840111600160201b8311171561039857600080fd5b91908080601f0160208091040260200160405190810160405280939291908181526020018383808284376000920191909152509295505091359250611269915050565b6040805160ff9092168252519081900360200190f35b6103db6004803603604081101561040757600080fd5b810190602081018135600160201b81111561042157600080fd5b82018360208201111561043357600080fd5b803590602001918460018302840111600160201b8311171561045457600080fd5b91908080601f0160208091040260200160405190810160405280939291908181526020018383808284376000920191909152509295949360208101935035915050600160201b8111156104a657600080fd5b8201836020820111156104b857600080fd5b803590602001918460018302840111600160201b831117156104d957600080fd5b91908080601f01602080910402602001604051908101604052809392919081815260200183838082843760009201919091525092955061155a945050505050565b6105406004803603602081101561053057600080fd5b50356001600160a01b0316611915565b6040805160208082528351818301528351919283929083019185019080838360005b8381101561057a578181015183820152602001610562565b50505050905090810190601f1680156105a75780820380516001836020036101000a031916815260200191505b509250505060405180910390f35b6103db600480360360a08110156105cb57600080fd5b810190602081018135600160201b8111156105e557600080fd5b8201836020820111156105f757600080fd5b803590602001918460018302840111600160201b8311171561061857600080fd5b91908080601f0160208091040260200160405190810160405280939291908181526020018383808284376000920191909152505060408051608081810190925293969594818101949350915060049083908390808284376000920191909152509194506119c39350505050565b6106ab6004803603602081101561069b57600080fd5b50356001600160a01b0316611cc8565b60408051918252519081900360200190f35b6103db600480360360408110156106d357600080fd5b810190602081018135600160201b8111156106ed57600080fd5b8201836020820111156106ff57600080fd5b803590602001918460018302840111600160201b8311171561072057600080fd5b91908080601f0160208091040260200160405190810160405280939291908181526020018383808284376000920191909152509295505050503515159050611ce6565b6106ab6004803603602081101561077957600080fd5b50356001600160a01b0316611e8c565b6107af6004803603602081101561079f57600080fd5b50356001600160a01b0316611eaa565b604080519115158252519081900360200190f35b6106ab600480360360208110156107d957600080fd5b50356001600160a01b0316611ee3565b6102b4600480360360408110156107ff57600080fd5b506001600160a01b038135169060200135611f01565b6106ab6004803603602081101561082b57600080fd5b50356001600160a01b0316611ff3565b6105406004803603604081101561085157600080fd5b506001600160a01b038135169060200135612011565b6106ab6004803603604081101561087d57600080fd5b6001600160a01b038235169190810190604081016020820135600160201b8111156108a757600080fd5b8201836020820111156108b957600080fd5b803590602001918460018302840111600160201b831117156108da57600080fd5b91908080601f0160208091040260200160405190810160405280939291908181526020018383808284376000920191909152509295506120c6945050505050565b610923612196565b005b6109d96004803603604081101561093b57600080fd5b6001600160a01b038235169190810190604081016020820135600160201b81111561096557600080fd5b82018360208201111561097757600080fd5b803590602001918460018302840111600160201b8311171561099857600080fd5b91908080601f016020809104026020016040519081016040528093929190818152602001838380828437600092019190915250929550612254945050505050565b60405183151581526020810183608080838360005b83811015610a065781810151838201526020016109ee565b505050509050018215158152602001935050505060405180910390f35b610a2b6123b0565b604080516001600160a01b039092168252519081900360200190f35b6102b460048036036040811015610a5d57600080fd5b506001600160a01b0381351690602001356123bf565b6103db60048036036040811015610a8957600080fd5b810190602081018135600160201b811115610aa357600080fd5b820183602082011115610ab557600080fd5b803590602001918460018302840111600160201b83111715610ad657600080fd5b91908080601f016020809104026020016040519081016040528093929190818152602001838380828437600092019190915250929550509135925061249a915050565b6103db60048036036020811015610b2f57600080fd5b810190602081018135600160201b811115610b4957600080fd5b820183602082011115610b5b57600080fd5b803590602001918460018302840111600160201b83111715610b7c57600080fd5b91908080601f0160208091040260200160405190810160405280939291908181526020018383808284376000920191909152509295506126ed945050505050565b61054060048036036040811015610bd357600080fd5b506001600160a01b038135169060200135612840565b61054060048036036040811015610bff57600080fd5b506001600160a01b0381351690602001356128be565b6106ab60048036036040811015610c2b57600080fd5b6001600160a01b038235169190810190604081016020820135600160201b811115610c5557600080fd5b820183602082011115610c6757600080fd5b803590602001918460018302840111600160201b83111715610c8857600080fd5b91908080601f016020809104026020016040519081016040528093929190818152602001838380828437600092019190915250929550612939945050505050565b6102b460048036036040811015610cdf57600080fd5b506001600160a01b0381351690602001356129d8565b610da960048036036040811015610d0b57600080fd5b6001600160a01b038235169190810190604081016020820135600160201b811115610d3557600080fd5b820183602082011115610d4757600080fd5b803590602001918460018302840111600160201b83111715610d6857600080fd5b91908080601f016020809104026020016040519081016040528093929190818152602001838380828437600092019190915250929550612ab1945050505050565b60408051921515835260208301919091528051918290030190f35b610a2b612b80565b6107af60048036036020811015610de257600080fd5b50356001600160a01b0316612b8f565b610da960048036036040811015610e0857600080fd5b6001600160a01b038235169190810190604081016020820135600160201b811115610e3257600080fd5b820183602082011115610e4457600080fd5b803590602001918460018302840111600160201b83111715610e6557600080fd5b91908080601f016020809104026020016040519081016040528093929190818152602001838380828437600092019190915250929550612c3d945050505050565b6102b460048036036040811015610ebc57600080fd5b506001600160a01b038135169060200135612d0b565b610f8860048036036060811015610ee857600080fd5b6001600160a01b038235169190810190604081016020820135600160201b811115610f1257600080fd5b820183602082011115610f2457600080fd5b803590602001918460018302840111600160201b83111715610f4557600080fd5b91908080601f0160208091040260200160405190810160405280939291908181526020018383808284376000920191909152509295505091359250612de2915050565b60408051602080825283518183015283519192839290830191858101910280838360005b83811015610fc4578181015183820152602001610fac565b505050509050019250505060405180910390f35b61054060048036036040811015610fee57600080fd5b506001600160a01b038135169060200135612f14565b6109236004803603602081101561101a57600080fd5b50356001600160a01b0316612f8f565b6110e06004803603606081101561104057600080fd5b6001600160a01b038235169190810190604081016020820135600160201b81111561106a57600080fd5b82018360208201111561107c57600080fd5b803590602001918460018302840111600160201b8311171561109d57600080fd5b91908080601f01602080910402602001604051908101604052809392919081815260200183838082843760009201919091525092955050913592506130a3915050565b6040805160ff909316835260208301919091528051918290030190f35b600060606000836040516020018082805190602001908083835b602083106111365780518252601f199092019160209182019101611117565b51815160209384036101000a60001901801990921691161790526040805192909401828103601f1901835284528151918101919091206001600160a01b038b1660009081526001808452858220838352600301909352939093206004810154939650945060ff909216151590911415915061124990505760018181018054604080516020601f6002600019610100878a16150201909516949094049384018190048102820181019092528281529183918301828280156112375780601f1061120c57610100808354040283529160200191611237565b820191906000526020600020905b81548152906001019060200180831161121a57829003601f168201915b50505050509050935093505050611262565b6000604051806020016040528060008152509350935050505b9250929050565b600080836040516020018082805190602001908083835b6020831061129f5780518252601f199092019160209182019101611280565b51815160209384036101000a60001901801990921691161790526040805192909401828103601f19018352808552825192820192909220600254633cff017d60e21b845233600485015294519097506001600160a01b03909416955085945063f3fc05f493602480840194509192909190829003018186803b15801561132457600080fd5b505afa158015611338573d6000803e3d6000fd5b505050506040513d602081101561134e57600080fd5b50511561154d5733600090815260016020818152604080842086855290920181529120865190916113839183918901906133bf565b506001808201869055600282015460ff161515141561145357336001600160a01b03167fc6ae1f368835b8dc23469ccb4e0a68641eef173f4eabd237d92c814b0921feff87876040518080602001838152602001828103825284818151815260200191508051906020019080838360005b8381101561140c5781810151838201526020016113f4565b50505050905090810190601f1680156114395780820380516001836020036101000a031916815260200191505b50935050505060405180910390a260029350505050611554565b600281018054600160ff199182168117909255336000818152602084815260408083206009810180549096168717909555600690940180549586018155825280822090940187905582518085018a90528381528a5193810193909352895191937fc88f87019b2c3f52b71a37c702cf39861ed0549a8bcdc4805d425375e07600af938b938b9391928392606084019291870191908190849084905b838110156115065781810151838201526020016114ee565b50505050905090810190601f1680156115335780820380516001836020036101000a031916815260200191505b50935050505060405180910390a260019350505050611554565b6000925050505b92915050565b600080836040516020018082805190602001908083835b602083106115905780518252601f199092019160209182019101611571565b51815160209384036101000a60001901801990921691161790526040805192909401828103601f19018352808552825192820192909220600254633cff017d60e21b845233600485015294519097506001600160a01b03909416955085945063f3fc05f493602480840194509192909190829003018186803b15801561161557600080fd5b505afa158015611629573d6000803e3d6000fd5b505050506040513d602081101561163f57600080fd5b50511561154d573360009081526001602090815260408083208584526003018252909120865190916116759183918901906133bf565b50845161168b90600183019060208801906133bf565b50600481015460ff161515600114156117be57336001600160a01b03167f2c8f0300942b4dc969eb51cbc7516a40e1d23d7334462d02e346fc6cbb67ffc28787604051808060200180602001838103835285818151815260200191508051906020019080838360005b8381101561170c5781810151838201526020016116f4565b50505050905090810190601f1680156117395780820380516001836020036101000a031916815260200191505b50838103825284518152845160209182019186019080838360005b8381101561176c578181015183820152602001611754565b50505050905090810190601f1680156117995780820380516001836020036101000a031916815260200191505b5094505050505060405180910390a26002908101805460010190559250611554915050565b600481018054600160ff199182168117909255336000818152602084815260408083206009810180549096168717909555600890940180549586018155825280822090940187905582518381528a5193810193909352895191937f9f6c63b562345af71e8deafec7f21ebbbd7436be1e2437cbdefe441c78e1404c938b938b93919283928382019260608501928801918190849084905b8381101561186d578181015183820152602001611855565b50505050905090810190601f16801561189a5780820380516001836020036101000a031916815260200191505b50838103825284518152845160209182019186019080838360005b838110156118cd5781810151838201526020016118b5565b50505050905090810190601f1680156118fa5780820380516001836020036101000a031916815260200191505b5094505050505060405180910390a260019350505050611554565b6001600160a01b03811660009081526001602081815260409283902060040180548451600294821615610100026000190190911693909304601f810183900483028401830190945283835260609390918301828280156119b65780601f1061198b576101008083540402835291602001916119b6565b820191906000526020600020905b81548152906001019060200180831161199957829003601f168201915b505050505090505b919050565b600080836040516020018082805190602001908083835b602083106119f95780518252601f1990920191602091820191016119da565b51815160209384036101000a60001901801990921691161790526040805192909401828103601f19018352808552825192820192909220600254633cff017d60e21b845233600485015294519097506001600160a01b03909416955085945063f3fc05f493602480840194509192909190829003018186803b158015611a7e57600080fd5b505afa158015611a92573d6000803e3d6000fd5b505050506040513d6020811015611aa857600080fd5b50511561154d57336000908152600160209081526040808320858452825290912086519091611adb9183918901906133bf565b50845160018281018054602089015160408a015160608b015160ff918216620100000292821661010090810260ff199095169783169790971761ff0019169390931762ff000019169190911763ff00000019166301000000928216929092029190911790915560028401549290920490911615151415611be757336001600160a01b03167fab71ed618c2fe050630246b947add4ec5d7458aac9873d265896c3e471870bec8787604051808060200183600460200280838360005b83811015611bae578181015183820152602001611b96565b5050505091909101838103835285518152855160209182019250908601908083836000831561140c5781810151838201526020016113f4565b60028101805460ff1961ff001990911661010017811660019081179092553360008181526020848152604080832060098101805490961687179095556005909401805495860181558252808220909401879055915190927f752bc1e17620172fd1d2b3b75cbdabb0b343dd6227e5d13b0098de730d6e0302928a928a929091829182019084906080908190849084905b83811015611c8f578181015183820152602001611c77565b505050509190910183810383528551815285516020918201925090860190808383600083156115065781810151838201526020016114ee565b6001600160a01b031660009081526001602052604090206005015490565b600080836040516020018082805190602001908083835b60208310611d1c5780518252601f199092019160209182019101611cfd565b51815160209384036101000a60001901801990921691161790526040805192909401828103601f19018352808552825192820192909220600254633cff017d60e21b845233600485015294519097506001600160a01b03909416955085945063f3fc05f493602480840194509192909190829003018186803b158015611da157600080fd5b505afa158015611db5573d6000803e3d6000fd5b505050506040513d6020811015611dcb57600080fd5b50511561154d573360009081526001602081815260408084208685529091529091206002810154909161010090910460ff1615151415611e805760028101805460ff191686151590811790915560408051602080820193909352818152885191810191909152875133927f5ab5728ec76d56ce7a5ca7b9008ed310f3be20e59385bc94d9279362b89a7e4d928a928a92829160608301918601908083836000831561140c5781810151838201526020016113f4565b60019350505050611554565b6001600160a01b031660009081526001602052604090206007015490565b6001600160a01b038116600090815260016020819052604082206009015460ff1615151415611edb575060016119be565b5060006119be565b6001600160a01b031660009081526001602052604090206006015490565b6001600160a01b038216600090815260016020526040812060080154606090831015611fdb576001600160a01b0384166000908152600160205260408120600801805485908110611f4e57fe5b60009182526020808320909101546001600160a01b03881683526001808352604080852083865260030184529384902080548551601f600260001961010085881615020190931692909204918201869004860281018601909652808652929550939092849283918301828280156112375780601f1061120c57610100808354040283529160200191611237565b50506040805160208101909152600080825290611262565b6001600160a01b031660009081526001602052604090206008015490565b6001600160a01b0382166000908152600160208181526040808420858552830182529283902080548451600294821615610100026000190190911693909304601f810183900483028401830190945283835260609390918301828280156120b95780601f1061208e576101008083540402835291602001916120b9565b820191906000526020600020905b81548152906001019060200180831161209c57829003601f168201915b5050505050905092915050565b600080826040516020018082805190602001908083835b602083106120fc5780518252601f1990920191602091820191016120dd565b51815160209384036101000a60001901801990921691161790526040805192909401828103601f1901835284528151918101919091206001600160a01b038a1660009081526001808452858220838352600301909352939093206004810154939650945060ff909216151590911415915061154d905057600281015460009081526003909101602052604090206001015491506115549050565b61219e6133bb565b6001600160a01b03166121af6123b0565b6001600160a01b03161461220a576040805162461bcd60e51b815260206004820181905260248201527f4f776e61626c653a2063616c6c6572206973206e6f7420746865206f776e6572604482015290519081900360640190fd5b600080546040516001600160a01b03909116907f8be0079c531659141344cd1fd0a4f28419497f9722a3daafe3b4186f6b6457e0908390a3600080546001600160a01b0319169055565b600061225e61343d565b600080846040516020018082805190602001908083835b602083106122945780518252601f199092019160209182019101612275565b518151602093840361010090810a60001901801990931692909116919091179091526040805193909501838103601f1901845285528251928201929092206001600160a01b038d16600090815260018084528682208383529093529490942060028101549497509550920460ff16151590911415915061237b90505760028101546040805160808101918290526001928385019260ff90911691908390600490826000855b825461010083900a900460ff168152602060019283018181049485019490930390920291018084116123395790505050505050915094509450945050506123a9565b5050604080516080810182526000808252602082018190529181018290526060810182905290935091508290505b9250925092565b6000546001600160a01b031690565b6001600160a01b038216600090815260016020526040812060070154606090831015611fdb576001600160a01b038416600090815260016020526040812060070180548590811061240c57fe5b60009182526020808320909101546001600160a01b038816835260018083526040808520838652600290810185529481902080548251601f6000196101008488161502019092169790970490810186900486028701860190925281865292955091939092849283918301828280156112375780601f1061120c57610100808354040283529160200191611237565b600080836040516020018082805190602001908083835b602083106124d05780518252601f1990920191602091820191016124b1565b51815160209384036101000a60001901801990921691161790526040805192909401828103601f19018352808552825192820192909220600254633cff017d60e21b845233600485015294519097506001600160a01b03909416955085945063f3fc05f493602480840194509192909190829003018186803b15801561255557600080fd5b505afa158015612569573d6000803e3d6000fd5b505050506040513d602081101561257f57600080fd5b50511561154d573360009081526001602090815260408083208584526002018252909120865190916125b59183918901906133bf565b506001808201869055600282015460ff161515141561263d57336001600160a01b03167fbf39dc6b739cb44e60367a4148bd2b7ae8c999e18bbe427908b027e8a17388ce87876040518080602001838152602001828103825284818151815260200191508051906020019080838360008381101561140c5781810151838201526020016113f4565b600281018054600160ff199182168117909255336000818152602084815260408083206009810180549096168717909555600790940180549586018155825280822090940187905582518085018a90528381528a5193810193909352895191937f84147e07362fc8b8147ffe5c7b37f96aab149c6ad13139d49e576949a677164d938b938b93919283926060840192918701919081908490849083156115065781810151838201526020016114ee565b60025460408051633cff017d60e21b815233600482015290516000926001600160a01b031691829163f3fc05f491602480820192602092909190829003018186803b15801561273b57600080fd5b505afa15801561274f573d6000803e3d6000fd5b505050506040513d602081101561276557600080fd5b505115612836573360009081526001602090815260409091208451612792926004909201918601906133bf565b50604080516020808252855181830152855133937fece51fcb32eb99182864577d9cfdedffd73ace839117666c4cdffb604128ca919388939092839283019185019080838360005b838110156127f25781810151838201526020016127da565b50505050905090810190601f16801561281f5780820380516001836020036101000a031916815260200191505b509250505060405180910390a260019150506119be565b60009150506119be565b6001600160a01b038216600090815260016020818152604080842085855260030182529283902080548451600294821615610100026000190190911693909304601f810183900483028401830190945283835260609390918301828280156120b95780601f1061208e576101008083540402835291602001916120b9565b6001600160a01b038216600090815260016020818152604080842085855282529283902080548451600294821615610100026000190190911693909304601f810183900483028401830190945283835260609390918301828280156120b95780601f1061208e576101008083540402835291602001916120b9565b600080826040516020018082805190602001908083835b6020831061296f5780518252601f199092019160209182019101612950565b51815160209384036101000a60001901801990921691161790526040805192909401828103601f1901835284528151918101919091206001600160a01b039990991660009081526001825283812099815260039099019052509095206002015495945050505050565b6001600160a01b038216600090815260016020526040812060060154606090831015611fdb576001600160a01b0384166000908152600160205260408120600601805485908110612a2557fe5b60009182526020808320909101546001600160a01b038816835260018083526040808520838652820184529384902080548551601f600260001961010085881615020190931692909204918201869004860281018601909652808652929550939092849283918301828280156112375780601f1061120c57610100808354040283529160200191611237565b6000806000836040516020018082805190602001908083835b60208310612ae95780518252601f199092019160209182019101612aca565b51815160209384036101000a60001901801990921691161790526040805192909401828103601f1901835284528151918101919091206001600160a01b038b16600090815260018084528582208383528101909352939093206002810154939650945060ff9092161515909114159150612b7190505760018160010154935093505050611262565b50600092508291506112629050565b6002546001600160a01b031690565b6000612b996133bb565b6001600160a01b0316612baa6123b0565b6001600160a01b031614612c05576040805162461bcd60e51b815260206004820181905260248201527f4f776e61626c653a2063616c6c6572206973206e6f7420746865206f776e6572604482015290519081900360640190fd5b6001600160a01b038216612c1857600080fd5b50600280546001600160a01b0383166001600160a01b03199091161790556001919050565b6000806000836040516020018082805190602001908083835b60208310612c755780518252601f199092019160209182019101612c56565b51815160209384036101000a60001901801990921691161790526040805192909401828103601f1901835284528151918101919091206001600160a01b038b166000908152600180845285822083835260029081019094529490209182015490965090945060ff161515909114159150612cfd90505760018160010154935093505050611262565b600080935093505050611262565b6001600160a01b038216600090815260016020526040812060050154606090831015611fdb576001600160a01b0384166000908152600160205260408120600501805485908110612d5857fe5b60009182526020808320909101546001600160a01b03881683526001808352604080852083865284529384902080548551601f600260001961010085881615020190931692909204918201869004860281018601909652808652929550939092849283918301828280156112375780601f1061120c57610100808354040283529160200191611237565b60606000836040516020018082805190602001908083835b60208310612e195780518252601f199092019160209182019101612dfa565b51815160209384036101000a60001901801990921691161790526040805192909401828103601f1901835284528151918101919091206001600160a01b038b1660009081526001808452858220838352600301909352939093206004810154939650945060ff9092161515909114159150612f01905057600084815260038201602090815260409182902060010180548351818402810184019094528084529091830182828015612ef357602002820191906000526020600020905b81546001600160a01b03168152600190910190602001808311612ed5575b505050505092505050612f0d565b5060609150612f0d9050565b9392505050565b6001600160a01b03821660009081526001602081815260408084208585526002908101835293819020805482519481161561010002600019011694909404601f8101839004830284018301909152808352606093918301828280156120b95780601f1061208e576101008083540402835291602001916120b9565b612f976133bb565b6001600160a01b0316612fa86123b0565b6001600160a01b031614613003576040805162461bcd60e51b815260206004820181905260248201527f4f776e61626c653a2063616c6c6572206973206e6f7420746865206f776e6572604482015290519081900360640190fd5b6001600160a01b0381166130485760405162461bcd60e51b81526004018080602001828103825260268152602001806134716026913960400191505060405180910390fd5b600080546040516001600160a01b03808516939216917f8be0079c531659141344cd1fd0a4f28419497f9722a3daafe3b4186f6b6457e091a3600080546001600160a01b0319166001600160a01b0392909216919091179055565b6000806000846040516020018082805190602001908083835b602083106130db5780518252601f1990920191602091820191016130bc565b51815160209384036101000a60001901801990921691161790526040805192909401828103601f19018352808552825192820192909220600254633cff017d60e21b845233600485015294519097506001600160a01b03909416955085945063f3fc05f493602480840194509192909190829003018186803b15801561316057600080fd5b505afa158015613174573d6000803e3d6000fd5b505050506040513d602081101561318a57600080fd5b5051156133a957336001600160a01b0388161461339a576001600160a01b03871660009081526001602081815260408084208685526003019091529091206004810154909160ff90911615151480156131e7575085816002015410155b1561338a5760008681526003820160209081526040808320338452918290529091205460ff161515600114613377576001816000016000336001600160a01b03166001600160a01b0316815260200190815260200160002060006101000a81548160ff02191690831515021790555080600101339080600181540180825580915050600190039060005260206000200160009091909190916101000a8154816001600160a01b0302191690836001600160a01b03160217905550336001600160a01b03167f5f523ab48c668169143c2b6488fe34bff58c10376955c8d62946caca70be59608a8a846001018054905060405180846001600160a01b0316815260200180602001838152602001828103825284818151815260200191508051906020019080838360005b83811015613328578181015183820152602001613310565b50505050905090810190601f1680156133555780820380516001836020036101000a031916815260200191505b5094505050505060405180910390a2600101546004955093506133b392505050565b600101546003955093506133b392505050565b60026000945094505050506133b3565b600160009350935050506133b3565b6000809350935050505b935093915050565b3390565b828054600181600116156101000203166002900490600052602060002090601f016020900481019282601f1061340057805160ff191683800117855561342d565b8280016001018555821561342d579182015b8281111561342d578251825591602001919060010190613412565b5061343992915061345b565b5090565b60405180608001604052806004906020820280368337509192915050565b5b80821115613439576000815560010161345c56fe4f776e61626c653a206e6577206f776e657220697320746865207a65726f2061646472657373a26469706673582212206f7bf916fa5b38b05389c850cd9a82e17aca1fb66fe54ae1803e82ed7557d96164736f6c63430007010033",
  "immutableReferences": {},
  "source": "pragma solidity ^0.7.1;\n//SPDX-License-Identifier: UNLICENSED\n\nimport \"./Interfaces/ITrustAnchorManager.sol\";\nimport \"./Interfaces/ITrustAnchorExtraData_Unique.sol\";\nimport \"@openzeppelin/contracts/access/Ownable.sol\";\n\n/// @dev\n/// | The Trust Anchor Extra Data [Unique] reference contract\n/// | This contract is an example of the type of parameters most useful in a Regulatory/Onboarding/Verification context. A very malleable construction of variables is used, with:\n/// | a) a mapping of hashes (for lookups on various databases) with a string name for human readability.\n/// | b) a mapping of ip endpoints (for the transfer of sensitive documents) with a string name for human readability.\n/// | c) a mapping of 256-bit numeric identifiers (for various indexing purposes) with a string name for human readability.\n/// | d) a string for public metadata.\n\ncontract TrustAnchorExtraData_Unique is Ownable, ITrustAnchorExtraData_Unique {\n\n    /// @dev Event for creating an End Point\n    event EVT_setTrustAnchorEndPointCreated(address indexed _trustAnchorAddress, string _endpointName, uint8[4] _ipv4Address);\n    /// @dev Event for updating an End Point\n    event EVT_setTrustAnchorEndPointUpdated(address indexed _trustAnchorAddress, string _endpointName, uint8[4] _ipv4Address);\n\n    /// @dev Event for Data Retrieval Endpoint is Enabled for a specific Endpoint name.\n    event EVT_setTrustAnchorEndpointIsEnabled(address indexed _trustAnchorAddress, string _endpointName, bool _isEnabled);\n\n    /// @dev Event for creating a Hash Mapping\n    event EVT_setTrustAnchorHashMappingCreated(address indexed _trustAnchorAddress, string _hashMappingName, bytes32 _hashMappingValue);\n    /// @dev Event for updating a Hash Mapping\n    event EVT_setTrustAnchorHashMappingUpdated(address indexed _trustAnchorAddress, string _hashMappingName, bytes32 _hashMappingValue);\n\n    /// @dev Event for creating a Numeric Identifier\n    event EVT_setTrustAnchorNumericIdentifierCreated(address indexed _trustAnchorAddress, string _numericIdentifierName, uint256 _numericIdentifierValue);\n    /// @dev Event for updating a Numeric Identifier\n    event EVT_setTrustAnchorNumericIdentifierUpdated(address indexed _trustAnchorAddress, string _numericIdentifierName, uint256 _numericIdentifierValue);\n\n    /// @dev Event for creating a Key-Value Pair (String to String relationship)\n    event EVT_setTrustAnchorKeyValuePairCreated(address indexed _trustAnchorAddress, string _keyValuePairName, string _keyValuePairValue);\n    /// @dev Event for updating a Key-Value Pair (String to String relationship)\n    event EVT_setTrustAnchorKeyValuePairUpdated(address indexed _trustAnchorAddress, string _keyValuePairName, string _keyValuePairValue);\n\n    /// @dev Event for setting validation for a specific key-value pair\n    event EVT_setValidationForKeyValuePairData(address indexed _validatorAddress, address _trustAnchorAddress, string _keyValuePairName, uint256 _numValidations);\n\n    /// @dev Event for setting Public Metadata\n    event EVT_setTrustAnchorPublicMetaData(address indexed _trustAnchorAddress, string _metaData);\n\n    /// @dev Struct for a Trust Anchor data retrieval ip address endpoints with a string to associated names.\n    struct endpoint {\n        string endpointName;\n        uint8[4] ipv4Address;\n\n        bool isEnabled;\n        bool doesExist;\n    }\n\n    /// @dev Struct for the \"hash mappings\" for lookups on various databases.\n    struct hashMapping {\n        string hashName;\n        bytes32 hashValue;\n\n        bool doesExist;\n    }\n\n    /// @dev Struct for the \"numeric identifiers\" for various indexing purposes.\n    struct numericIdentifier {\n        string numericIdentifierName;\n        uint256 numericIdentifierValue;\n\n        bool doesExist;\n    }\n\n    /// @dev Struct for the validation of data.\n    struct validationData {\n        mapping(address => bool) addressValidationMapping;\n        address[] addressValidationArray;\n    }\n\n    /// @dev Struct for the \"key value pair\" for various indexing purposes.\n    struct keyValuePair {\n        string keyValuePairName;\n        string keyValuePairValue;\n\n        uint256 nonce;\n\n        // nonce to validationsData mapping\n        mapping(uint256 => validationData) validationsMappingNonce;\n\n        bool doesExist;\n    }\n\n    /// @dev Struct for a Trust Anchor unique extraData\n    struct trustAnchorUniqueExtraDataParameters {\n        mapping(bytes32 => endpoint) keccakHash_to_dataRetrievalEndpoint;\n        mapping(bytes32 => hashMapping) keccakHash_to_hashMapping;\n        mapping(bytes32 => numericIdentifier) keccakHash_to_numericIdentifier;\n        mapping(bytes32 => keyValuePair) keccakHash_to_keyValuePair;\n\n        string publicMetaData;\n\n        bytes32[] dataRetrievalEndpointHashArray;\n        bytes32[] hashMappingsHashArray;\n        bytes32[] numericIdentifiersHashArray;\n        bytes32[] keyValuePairsHashArray;\n\n        bool doesExist;\n    }\n\n    /// @dev Mapping for a Trust Anchor to its unique extraData parameters.\n    mapping(address => trustAnchorUniqueExtraDataParameters) extraData_uniqueParameters;\n\n    /// @dev The Trust Anchor Manager address that this contract is bound to.\n    address trustAnchorManagerAddress = address(0);\n\n    /// @dev Initializes this contract with the owner set to the calling public address.\n\n    constructor() Ownable() {\n    }\n\n    /// @param _trustAnchorManagerAddress The smart contract address for the Trust Anchor Manager that should be linked.\n    /// @dev Links Trust Anchor Manager to this contract's function flow.\n    /// @return result\n    ///    | false: [ will never return false due to require() ]\n    ///    | true: trust anchor manager address set correctly\n\n    function setTrustAnchorManagerAddress(address _trustAnchorManagerAddress) public override onlyOwner returns (bool result) {\n        require(_trustAnchorManagerAddress != address(0));\n\n        trustAnchorManagerAddress = _trustAnchorManagerAddress;\n\n        //trust anchor manager address set correctly\n        return true;\n    }\n\n    /// @dev Gets the Trust Anchor Manager associated to this contract.\n    /// @return result trust anchor manager address\n\n    function getTrustAnchorManagerAddress() public override view returns (address result) {\n        //get trust anchor manager address\n        return trustAnchorManagerAddress;\n    }\n\n    /// @param _trustAnchorAddress The Trust Anchor address that is checked for unique extraData availability.\n    /// @dev Checks whether a specific Trust Anchor has extraData associated to it, updates if necessary, and returns the status.\n    /// @return result\n    ///    | false: trust anchor has no extraData parameters allocated\n    ///    | true: trust anchor does has extraData parameters allocated\n\n    function doesTrustAnchorHaveUniqueExtraData(address _trustAnchorAddress) public override view returns (bool result) {\n        if (extraData_uniqueParameters[_trustAnchorAddress].doesExist == true) {\n            //trust anchor does has extraData parameters allocated\n            return true;\n        } else {\n            //trust anchor has no extraData parameters allocated\n            return false;\n        }\n    }\n\n    // ** extraData data retrieval ** //\n\n    /// @param _endpointName The name of the endpoint.\n    /// @param _ipv4Address The ipv4 address, an array of 4 uint8's (0-255) corresponding to w.x.y.z components of an ip address.\n    /// @dev Checks whether a specific Trust Anchor has \"generic\" extraData associated to it with a specific endpoint name, updates if necessary, and returns the status. Sets the endpoint to \"enabled\" status if it's being set for the first time.\n    /// @notice Called by an already setup Trust Anchor.\n    /// @return result\n    ///    | 0: trust anchor is not verified\n    ///    | 1: endpoint set for the first time\n    ///    | 2: endpoint updated\n\n    function setTrustAnchorDataRetrievalEndpoint(string memory _endpointName, uint8[4] memory _ipv4Address) public override returns (uint8 result) {\n        bytes32 endpointKeccak = keccak256(abi.encodePacked(_endpointName));\n\n        //@note: need to check Trust Anchor jurisdiction in Trust Anchor manager lookup\n        ITrustAnchorManager trustAnchorManager = ITrustAnchorManager(trustAnchorManagerAddress);\n\n        // check whether trust Anchor manager is verified\n        if (trustAnchorManager.isTrustAnchorVerified(msg.sender)) {\n\n            // get the endpoint if it already exists, otherwise create a new endpoint.\n            endpoint storage newEndpoint = extraData_uniqueParameters[msg.sender].keccakHash_to_dataRetrievalEndpoint[endpointKeccak];\n\n            // set the parameters based on inputs.\n            newEndpoint.endpointName = _endpointName;\n\n            newEndpoint.ipv4Address[0] = _ipv4Address[0];\n            newEndpoint.ipv4Address[1] = _ipv4Address[1];\n            newEndpoint.ipv4Address[2] = _ipv4Address[2];\n            newEndpoint.ipv4Address[3] = _ipv4Address[3];\n\n            // checks whether this particular endpoint already exists for this Trust Anchor.\n            if (newEndpoint.doesExist == true) {\n                // emit updated event\n                emit EVT_setTrustAnchorEndPointUpdated(msg.sender, _endpointName, _ipv4Address);\n                //endpoint updated\n                return 2;\n            } else {\n                // if endpoint doesn't already exist, set the parameters required for further lookups.\n                newEndpoint.doesExist = true;\n                newEndpoint.isEnabled = true;\n\n                // sets the global \"doesExist\" for this Trust Anchor to true.. if it was already set, this doesn't cost\n                // any extra gas at the end of the day because it's not changing state.\n                extraData_uniqueParameters[msg.sender].doesExist = true;\n\n                // pushes the new endpointKeccak to the endpoint array.\n                extraData_uniqueParameters[msg.sender].dataRetrievalEndpointHashArray.push(endpointKeccak);\n\n                // emit created event\n                emit EVT_setTrustAnchorEndPointCreated(msg.sender, _endpointName, _ipv4Address);\n\n                //endpoint set for the first time\n                return 1;\n            }\n        } else {\n            //trust anchor is not verified\n            return 0;\n        }\n    }\n\n    /// @param _endpointName The name of the endpoint.\n    /// @param _isEnabled The boolean yes/no of whether this endpoint should be set to enabled or not.\n    /// @dev Checks whether a specific Trust Anchor has \"generic\" extraData associated to it with a specific endpoint name, and updates the isEnabled if it already exists, and returns the status.\n    /// @notice Called by an already setup Trust Anchor.\n    /// @return result\n    ///    | 0: trust anchor is not verified\n    ///    | 1: endpoint does not exist\n    ///    | 2: endpoint's enabled status updated\n\n    function setTrustAnchorDataRetrievalEndpointIsEnabled(string memory _endpointName, bool _isEnabled) public override returns (uint8 result) {\n        bytes32 endpointKeccak = keccak256(abi.encodePacked(_endpointName));\n\n        ITrustAnchorManager trustAnchorManager = ITrustAnchorManager(trustAnchorManagerAddress);\n\n        // check whether trust Anchor manager is verified\n        if (trustAnchorManager.isTrustAnchorVerified(msg.sender)) {\n\n            // get the endpoint if it already exists.\n            endpoint storage existingEndpoint = extraData_uniqueParameters[msg.sender].keccakHash_to_dataRetrievalEndpoint[endpointKeccak];\n\n            // if this endpoint already exists, set the isEnabled flag based on input parameters.\n            if (existingEndpoint.doesExist == true) {\n                existingEndpoint.isEnabled = _isEnabled;\n\n                // emit the updated enabled event\n                emit EVT_setTrustAnchorEndpointIsEnabled(msg.sender, _endpointName, _isEnabled);\n\n                //endpoint's enabled status updated\n                return 2;\n            } else {\n                //endpoint does not exist\n                return 1;\n            }\n        } else {\n            //trust anchor is not verified\n            return 0;\n        }\n    }\n\n    /// @param _trustAnchorAddress The Trust Anchor address related to this unique extraData.\n    /// @dev Gets the number of endpoints associated to this Trust Anchor.\n    /// @return result the number of endpoints associated to this Trust Anchor.\n\n    function getTrustAnchorNumberOfEndpoints(address _trustAnchorAddress) public override view returns (uint256 result) {\n        return extraData_uniqueParameters[_trustAnchorAddress].dataRetrievalEndpointHashArray.length;\n    }\n\n    /// @param _trustAnchorAddress The Trust Anchor address related to this unique extraData.\n    /// @param _index The index within this Trust Anchor's endpoint array.\n    /// @dev Gets the endpoint name for a specific index within the Trust Anchor's endpoint array.\n    /// @notice Checks to make sure that the _index parameter is not out of bounds.\n    /// @return doesExist whether the endpoint data exists, ( false, \"\" ): endpoint data does not exist\n    /// @return endpointName the endpoint name\n\n    function getTrustAnchorEndpointNameByIndex(address _trustAnchorAddress, uint256 _index) public override view returns (bool doesExist, string memory endpointName) {\n        // checks whether this particular hash mapping already exists for this Trust Anchor.\n        if (extraData_uniqueParameters[_trustAnchorAddress].dataRetrievalEndpointHashArray.length > _index) {\n            bytes32 endpointKeccak = extraData_uniqueParameters[_trustAnchorAddress].dataRetrievalEndpointHashArray[_index];\n\n            endpoint storage existingEndpoint = extraData_uniqueParameters[_trustAnchorAddress].keccakHash_to_dataRetrievalEndpoint[endpointKeccak];\n\n            //endpoint data exists, returns the endpoint name\n            return (true, existingEndpoint.endpointName);\n        } else {\n            //endpoint data does not exist\n            return (false, \"\");\n        }\n    }\n\n    /// @param _trustAnchorAddress The Trust Anchor address related to this unique extraData.\n    /// @param _endpointName The name of the endpoint.\n    /// @dev Gets the data retrieval parameters (whether it exists, the actual endpoint data, and whether it's enabled) for this particular _endpointName.\n    /// @return doesExist whether the endpoint data exists, ( false, [0, 0, 0, 0], false ): endpoint data does not exist\n    /// @return ipv4Address the ipv4 components\n    /// @return isEnabled whether this endpoint is enabled\n\n    function getTrustAnchorDataEndpoint(address _trustAnchorAddress, string memory _endpointName) public override view returns (bool doesExist, uint8[4] memory ipv4Address, bool isEnabled) {\n        bytes32 endpointKeccak = keccak256(abi.encodePacked(_endpointName));\n\n        // gets the endpoint.\n        endpoint storage existingEndpoint = extraData_uniqueParameters[_trustAnchorAddress].keccakHash_to_dataRetrievalEndpoint[endpointKeccak];\n\n        // checks whether this particular endpoint already exists for this Trust Anchor.\n        if (existingEndpoint.doesExist == true) {\n            //if the endpoint exists, the extraData ip address parameters for this Trust Anchor have a proper endpoint.\n\n            //endpoint data exists, and the return components\n            return (true, existingEndpoint.ipv4Address, existingEndpoint.isEnabled);\n        } else {\n            //endpoint data does not exist\n            return (false, [0,0,0,0], false);\n        }\n    }\n\n    /// @param _trustAnchorAddress The trust anchor address related to this extraData.\n    /// @param _endpointKeccak The endpoint keccak\n    /// @dev Gets the endpoint name for a specific endpoint keccak for a Trust Anchor.\n    /// @return endpointName endpoint data exists, returns the endpoint name\n    function getTrustAnchorEndpointNameByEndpointKeccak(address _trustAnchorAddress, bytes32 _endpointKeccak) public override view returns (string memory endpointName) {\n        //returns the endpoint name\n        return extraData_uniqueParameters[_trustAnchorAddress].keccakHash_to_dataRetrievalEndpoint[_endpointKeccak].endpointName;\n    }\n\n    // ** extraData hash mappings ** //\n\n    /// @param _hashName The name of the hash mapping.\n    /// @param _hashValue The value for this hash mapping, as a bytes32 (256 bits) format.\n    /// @dev Checks whether a specific Trust Anchor has \"unique\" extraData associated to it with a specific hash name, updates if necessary, and returns the status.\n    /// @notice Called by an already setup Trust Anchor.\n    /// @return result\n    ///    | 0: trust anchor is not verified\n    ///    | 1: hash mapping set for the first time\n    ///    | 2: hash mapping updated\n\n    function setTrustAnchorHashMapping(string memory _hashName, bytes32 _hashValue) public override returns (uint8 result) {\n        bytes32 hashValueKeccak = keccak256(abi.encodePacked(_hashName));\n\n        //@note: need to check Trust Anchor jurisdiction in Trust Anchor manager lookup\n        ITrustAnchorManager trustAnchorManager = ITrustAnchorManager(trustAnchorManagerAddress);\n\n        // check whether trust Anchor manager is verified\n        if (trustAnchorManager.isTrustAnchorVerified(msg.sender)) {\n\n            // get the hash mapping if it already exists, otherwise create a new hash mapping.\n            hashMapping storage newHashValue = extraData_uniqueParameters[msg.sender].keccakHash_to_hashMapping[hashValueKeccak];\n\n            // set the parameters based on inputs.\n            newHashValue.hashName = _hashName;\n            newHashValue.hashValue = _hashValue;\n\n            // checks whether this particular hash mapping already exists for this Trust Anchor.\n            if (newHashValue.doesExist == true) {\n                // emit updated event\n                emit EVT_setTrustAnchorHashMappingUpdated(msg.sender, _hashName, _hashValue);\n\n                //hash mapping updated\n                return 2;\n            } else {\n                // if hash mapping doesn't already exist, set the parameters required for further lookups.\n                newHashValue.doesExist = true;\n\n                // sets the global \"doesExist\" for this Trust Anchor to true.. if it was already set, this doesn't cost\n                // any extra gas at the end of the day because it's not changing state.\n                extraData_uniqueParameters[msg.sender].doesExist = true;\n\n                // pushes the new hashValueKeccak to the hash mappings array.\n                extraData_uniqueParameters[msg.sender].hashMappingsHashArray.push(hashValueKeccak);\n\n                // emit created event\n                emit EVT_setTrustAnchorHashMappingCreated(msg.sender, _hashName, _hashValue);\n\n                //hash mapping set for the first time\n                return 1;\n            }\n        } else {\n            //trust anchor is not verified\n            return 0;\n        }\n    }\n\n    /// @param _trustAnchorAddress The Trust Anchor address related to this unique extraData.\n    /// @dev Gets the number of hash mappings associated to this Trust Anchor.\n    /// @return result the number of hash mappings associated to this Trust Anchor.\n\n    function getTrustAnchorNumberOfHashMappings(address _trustAnchorAddress) public override view returns (uint256 result) {\n        return extraData_uniqueParameters[_trustAnchorAddress].hashMappingsHashArray.length;\n    }\n\n    /// @param _trustAnchorAddress The Trust Anchor address related to this unique extraData.\n    /// @param _index The index within this Trust Anchor's hash mapping array.\n    /// @dev Gets the hash mapping name for a specific index within the Trust Anchor's hash mapping array.\n    /// @notice Checks to make sure that the _index parameter is not out of bounds.\n    /// @return doesExist whether the hash mapping data exists, ( false, \"\" ): hash mapping data does not exist\n    /// @return hashMappingName the hash mapping name\n\n    function getTrustAnchorHashMappingNameByIndex(address _trustAnchorAddress, uint256 _index) public override view returns (bool doesExist, string memory hashMappingName) {\n        // checks whether this particular endpoint already exists for this Trust Anchor.\n        if (extraData_uniqueParameters[_trustAnchorAddress].hashMappingsHashArray.length > _index) {\n            bytes32 hashMappingKeccak = extraData_uniqueParameters[_trustAnchorAddress].hashMappingsHashArray[_index];\n\n            hashMapping storage existingHashMapping = extraData_uniqueParameters[_trustAnchorAddress].keccakHash_to_hashMapping[hashMappingKeccak];\n\n            //hash mapping data exists, returns the hash mapping name\n            return (true, existingHashMapping.hashName);\n        } else {\n            //hash mapping data does not exist\n            return (false, \"\");\n        }\n    }\n\n    /// @param _trustAnchorAddress The Trust Anchor address related to this unique extraData.\n    /// @param _hashMappingName The name of the hash mapping.\n    /// @dev Gets the hash mapping value parameters (whether it exists, the actual hash mapping value) for this particular _hashMappingName.\n    /// @return doesExist whether hash mapping data exists, ( false, 0 ): hash mapping data does not exist\n    /// @return hashValue the hash mapping value\n\n    function getTrustAnchorHashMappingValue(address _trustAnchorAddress, string memory _hashMappingName) public override view returns (bool doesExist, bytes32 hashValue) {\n        bytes32 hashMappingKeccak = keccak256(abi.encodePacked(_hashMappingName));\n\n        // gets the hash mapping\n        hashMapping storage existingHashMapping = extraData_uniqueParameters[_trustAnchorAddress].keccakHash_to_hashMapping[hashMappingKeccak];\n\n        // checks whether this particular hash mapping already exists for this Trust Anchor.\n        if (existingHashMapping.doesExist == true) {\n            //hash mapping data exists, and the hash value\n            return (true, existingHashMapping.hashValue);\n        } else {\n            //hash mapping data does not exist\n            return (false, 0);\n        }\n    }\n\n    /// @param _trustAnchorAddress The trust anchor address related to this extraData.\n    /// @param _hashMappingKeccak The hash mapping keccak\n    /// @dev Gets the hash mapping name for a specific hash mapping keccak for a Trust Anchor.\n    /// @return hashMappingName hash mapping data exists, returns the hash mapping name\n    function getTrustAnchorHashMappingNameByHashMappingKeccak(address _trustAnchorAddress, bytes32 _hashMappingKeccak) public override view returns (string memory hashMappingName) {\n        //returns the endpoint name\n        return extraData_uniqueParameters[_trustAnchorAddress].keccakHash_to_hashMapping[_hashMappingKeccak].hashName;\n    }\n\n    // ** extraData numeric identifiers ** //\n\n    /// @param _numericIdentifierName The name of the numeric identifier.\n    /// @param _numericIdentifierValue The value for this numeric identifier, as a bytes32 (256 bits) format.\n    /// @dev Checks whether a specific Trust Anchor has \"unique\" extraData associated to it with a specific numeric identifier name, updates if necessary, and returns the status.\n    /// @notice Called by an already setup Trust Anchor.\n    /// @return result\n    ///    | 0: trust anchor is not verified\n    ///    | 1: numeric identifier set for the first time\n    ///    | 2: numeric identifier updated\n\n    function setTrustAnchorNumericIdentifier(string memory _numericIdentifierName, uint256 _numericIdentifierValue) public override returns (uint8 result) {\n        bytes32 numericIdentifierKeccak = keccak256(abi.encodePacked(_numericIdentifierName));\n\n        //@note: need to check Trust Anchor jurisdiction in Trust Anchor manager lookup\n        ITrustAnchorManager trustAnchorManager = ITrustAnchorManager(trustAnchorManagerAddress);\n\n        // check whether trust Anchor manager is verified\n        if (trustAnchorManager.isTrustAnchorVerified(msg.sender)) {\n\n            // get the numeric identifier if it already exists, otherwise create a new numeric identifier.\n            numericIdentifier storage newNumericIdentifier = extraData_uniqueParameters[msg.sender].keccakHash_to_numericIdentifier[numericIdentifierKeccak];\n\n            // set the parameters based on inputs.\n            newNumericIdentifier.numericIdentifierName = _numericIdentifierName;\n            newNumericIdentifier.numericIdentifierValue = _numericIdentifierValue;\n\n            // checks whether this particular numeric identifier already exists for this Trust Anchor.\n            if (newNumericIdentifier.doesExist == true) {\n                // emit updated event\n                emit EVT_setTrustAnchorNumericIdentifierUpdated(msg.sender, _numericIdentifierName, _numericIdentifierValue);\n\n                //numeric identifier updated\n                return 2;\n            } else {\n                // if numeric identifier doesn't already exist, set the parameters required for further lookups.\n                newNumericIdentifier.doesExist = true;\n\n                // sets the global \"doesExist\" for this Trust Anchor to true.. if it was already set, this doesn't cost\n                // any extra gas at the end of the day because it's not changing state.\n                extraData_uniqueParameters[msg.sender].doesExist = true;\n\n                // pushes the new numericIdentifierKeccak to the numeric identifiers array.\n                extraData_uniqueParameters[msg.sender].numericIdentifiersHashArray.push(numericIdentifierKeccak);\n\n                // emit created event\n                emit EVT_setTrustAnchorNumericIdentifierCreated(msg.sender, _numericIdentifierName, _numericIdentifierValue);\n\n                //numeric identifier set for the first time\n                return 1;\n            }\n        } else {\n            //trust anchor is not verified\n            return 0;\n        }\n    }\n\n    /// @param _trustAnchorAddress The Trust Anchor address related to this unique extraData.\n    /// @dev Gets the number of numeric identifiers associated to this Trust Anchor.\n    /// @return result the number of numeric identifiers associated to this Trust Anchor.\n\n    function getTrustAnchorNumberOfNumericIdentifiers(address _trustAnchorAddress) public override view returns (uint256 result) {\n        return extraData_uniqueParameters[_trustAnchorAddress].numericIdentifiersHashArray.length;\n    }\n\n    /// @param _trustAnchorAddress The Trust Anchor address related to this unique extraData.\n    /// @param _index The index within this Trust Anchor's numeric identifier array.\n    /// @dev Gets the numeric identifier name for a specific index within the Trust Anchor's numeric identifier array.\n    /// @notice Checks to make sure that the _index parameter is not out of bounds.\n    /// @return doesExist whether numeric identifier data exists, ( false, \"\" ): numeric identifier data does not exist\n    /// @return numericIdentifierName the numeric identifier name\n\n    function getTrustAnchorNumericIdentifierNameByIndex(address _trustAnchorAddress, uint256 _index) public override view returns (bool doesExist, string memory numericIdentifierName) {\n        // checks whether this particular endpoint already exists for this Trust Anchor.\n        if (extraData_uniqueParameters[_trustAnchorAddress].numericIdentifiersHashArray.length > _index) {\n            bytes32 numericIdentifierKeccak = extraData_uniqueParameters[_trustAnchorAddress].numericIdentifiersHashArray[_index];\n\n            numericIdentifier storage existingNumericIdentifier = extraData_uniqueParameters[_trustAnchorAddress].keccakHash_to_numericIdentifier[numericIdentifierKeccak];\n\n            //numeric identifier data exists, returns the numeric identifier name\n            return (true, existingNumericIdentifier.numericIdentifierName);\n        } else {\n            //numeric identifier data does not exist\n            return (false, \"\");\n        }\n    }\n\n    /// @param _trustAnchorAddress The Trust Anchor address related to this unique extraData.\n    /// @param _numericIdentifierName The name of the numeric identifier.\n    /// @dev Gets the numeric identifier value parameters (whether it exists, the actual numeric identifier value) for this particular _numericIdentifierName.\n    /// @return doesExist whether numeric identifier data exists, ( false, 0 ): numeric identifier data does not exist\n    /// @return numericIdentifierValue the numeric identifier value\n\n    function getTrustAnchorNumericIdentifierValue(address _trustAnchorAddress, string memory _numericIdentifierName) public override view returns (bool doesExist, uint256 numericIdentifierValue) {\n        bytes32 numericIdentifierKeccak = keccak256(abi.encodePacked(_numericIdentifierName));\n\n        // gets the hash mapping\n        numericIdentifier storage existingNumericIdentifier = extraData_uniqueParameters[_trustAnchorAddress].keccakHash_to_numericIdentifier[numericIdentifierKeccak];\n\n        // checks whether this particular hash mapping already exists for this Trust Anchor.\n        if (existingNumericIdentifier.doesExist == true) {\n            //numeric identifier data exists, and the hash value\n            return (true, existingNumericIdentifier.numericIdentifierValue);\n        } else {\n            //numeric identifier data does not exist\n            return (false, 0);\n        }\n    }\n\n    /// @param _trustAnchorAddress The trust anchor address related to this extraData.\n    /// @param _numericIdentifierKeccak The numeric identifier keccak\n    /// @dev Gets the numeric identifier name for a specific numeric identifier keccak for a Trust Anchor.\n    /// @return numericIdentifierName numeric identifier data exists, returns the numeric identifier name\n    function getTrustAnchorNumericIdentifierNameByNumericIdentifierKeccak(address _trustAnchorAddress, bytes32 _numericIdentifierKeccak) public override view returns (string memory numericIdentifierName) {\n        //returns the numeric identifier name\n        return extraData_uniqueParameters[_trustAnchorAddress].keccakHash_to_numericIdentifier[_numericIdentifierKeccak].numericIdentifierName;\n    }\n\n    // ** extraData key value pairs ** //\n\n    /// @param _keyValuePairName The name of the key-value pair.\n    /// @param _keyValuePairValue The value for this key-value pair, as a String format.\n    /// @dev | Checks whether a specific Trust Anchor has \"unique\" extraData associated to it with a specific key-value pair name, updates if necessary, and returns the status.\n    ///      | Updates internal Nonce to assist in Validations of this key-value pair.\n    /// @notice Called by an already setup Trust Anchor.\n    /// @return result\n    ///    | 0: trust anchor is not verified\n    ///    | 1: key-value pair set for the first time\n    ///    | 2: key-value pair updated\n\n    function setTrustAnchorKeyValuePair(string memory _keyValuePairName, string memory _keyValuePairValue) public override returns (uint8 result) {\n        bytes32 keyValuePairKeccak = keccak256(abi.encodePacked(_keyValuePairName));\n\n        //@note: need to check Trust Anchor jurisdiction in Trust Anchor manager lookup\n        ITrustAnchorManager trustAnchorManager = ITrustAnchorManager(trustAnchorManagerAddress);\n\n        // check whether trust Anchor manager is verified\n        if (trustAnchorManager.isTrustAnchorVerified(msg.sender)) {\n\n            // get the key-value pair if it already exists, otherwise create a new key-value pair.\n            keyValuePair storage newKeyValuePair = extraData_uniqueParameters[msg.sender].keccakHash_to_keyValuePair[keyValuePairKeccak];\n\n            // set the parameters based on inputs.\n            newKeyValuePair.keyValuePairName = _keyValuePairName;\n            newKeyValuePair.keyValuePairValue = _keyValuePairValue;\n\n            // checks whether this particular key-value pair already exists for this Trust Anchor.\n            if (newKeyValuePair.doesExist == true) {\n                // emit updated event\n                emit EVT_setTrustAnchorKeyValuePairUpdated(msg.sender, _keyValuePairName, _keyValuePairValue);\n\n                //update the nonce for future validation\n                newKeyValuePair.nonce = newKeyValuePair.nonce + 1;\n\n                //key-value pair updated\n                return 2;\n            } else {\n                // if key-value pair doesn't already exist, set the parameters required for further lookups.\n                newKeyValuePair.doesExist = true;\n\n                // sets the global \"doesExist\" for this Trust Anchor to true.. if it was already set, this doesn't cost\n                // any extra gas at the end of the day because it's not changing state.\n                extraData_uniqueParameters[msg.sender].doesExist = true;\n\n                // pushes the new keyValuePairKeccak to the key-value pairs array.\n                extraData_uniqueParameters[msg.sender].keyValuePairsHashArray.push(keyValuePairKeccak);\n\n                // emit created event\n                emit EVT_setTrustAnchorKeyValuePairCreated(msg.sender, _keyValuePairName, _keyValuePairValue);\n\n                //key-value pair set for the first time\n                return 1;\n            }\n        } else {\n            //trust anchor is not verified\n            return 0;\n        }\n    }\n\n    /// @param _taAddress The name of the key-value pair.\n    /// @param _keyValuePairName The name of the key-value pair.\n    /// @param _nonce The name of the key-value pair.\n    /// @dev Sets the validations for specific key-value pair data, at a specific nonce.\n    /// @return result\n    ///    | 0: not a trust anchor\n    ///    | 1: cannot self-validate\n    ///    | 2: key-value pair cannot be validated\n    ///    | 3: trust anchor has already validated this\n    ///    | 4: set validation for key-value pair\n    /// @return numValidations number of validations for key-value pair, only returns value for result codes 3 & 4\n\n    function setValidationForKeyValuePairData(address _taAddress, string memory _keyValuePairName, uint256 _nonce) public override returns (uint8 result, uint256 numValidations) {\n        bytes32 keyValuePairKeccak = keccak256(abi.encodePacked(_keyValuePairName));\n\n        //@note: need to check Trust Anchor jurisdiction in Trust Anchor manager lookup\n        ITrustAnchorManager trustAnchorManager = ITrustAnchorManager(trustAnchorManagerAddress);\n\n        // check whether trust Anchor manager is verified\n        if (trustAnchorManager.isTrustAnchorVerified(msg.sender)) {\n            if (msg.sender != _taAddress) {\n                keyValuePair storage existingKeyValuePair = extraData_uniqueParameters[_taAddress].keccakHash_to_keyValuePair[keyValuePairKeccak];\n                if (existingKeyValuePair.doesExist == true && existingKeyValuePair.nonce >= _nonce) {\n\n                    validationData storage validations = existingKeyValuePair.validationsMappingNonce[_nonce];\n\n                    //check and see whether this key-value pair has already been validated by this Trust Anchor.\n                    if (validations.addressValidationMapping[msg.sender] != true) {\n\n                        validations.addressValidationMapping[msg.sender] = true;\n                        validations.addressValidationArray.push(msg.sender);\n\n                        emit EVT_setValidationForKeyValuePairData(msg.sender, _taAddress, _keyValuePairName, validations.addressValidationArray.length);\n\n                        // set validation for key-value pair\n                        return (4, validations.addressValidationArray.length);\n                    } else {\n                        // trust anchor has already validated this\n                        return (3, validations.addressValidationArray.length);\n                    }\n                } else {\n                    // key-value pair cannot be validated\n                    return (2, 0);\n                }\n            } else {\n                // cannot self-validate\n                return (1, 0);\n            }\n        } else {\n            // not a trust anchor\n            return (0, 0);\n        }\n    }\n\n\n    /// @param _taAddress The name of the key-value pair.\n    /// @param _keyValuePairName The name of the key-value pair.\n    /// @dev gets the current nonce for a specific key-value pair.\n    /// @return result the current nonce\n\n    function getKeyValuePairCurrentNonce(address _taAddress, string memory _keyValuePairName) public override view returns (uint256 result) {\n        bytes32 keyValuePairKeccak = keccak256(abi.encodePacked(_keyValuePairName));\n\n        keyValuePair storage existingKeyValuePair = extraData_uniqueParameters[_taAddress].keccakHash_to_keyValuePair[keyValuePairKeccak];\n\n        // return the current nonce\n        return existingKeyValuePair.nonce;\n    }\n\n    /// @param _taAddress The name of the key-value pair.\n    /// @param _keyValuePairName The name of the key-value pair.\n    /// @param _nonce The name of the key-value pair.\n    /// @dev Gets the current nonce for a specific key-value pair.\n    /// @return validationsAddressArray the current validations as an array of address\n\n    function getValidationsArrayForKeyValuePairNonce(address _taAddress, string memory _keyValuePairName, uint256 _nonce) public override view returns (address[] memory validationsAddressArray) {\n        bytes32 keyValuePairKeccak = keccak256(abi.encodePacked(_keyValuePairName));\n\n        keyValuePair storage existingKeyValuePair = extraData_uniqueParameters[_taAddress].keccakHash_to_keyValuePair[keyValuePairKeccak];\n\n        // if the existing key-value pair exists, return that array\n        if (existingKeyValuePair.doesExist == true) {\n            return existingKeyValuePair.validationsMappingNonce[_nonce].addressValidationArray;\n        } else {\n            // otherwise, return a null array\n            address[] memory emptyArray;\n            return emptyArray;\n        }\n    }\n\n    /// @param _taAddress The name of the key-value pair.\n    /// @param _keyValuePairName The name of the key-value pair.\n    /// @dev Gets the number of validations for the latest nonce of a specific key-value pair.\n    /// @return result the number of current validations for the latest nonce\n\n    function getNumValidationsForLatestKeyValuePair(address _taAddress, string memory _keyValuePairName) public override view returns (uint256 result) {\n        bytes32 keyValuePairKeccak = keccak256(abi.encodePacked(_keyValuePairName));\n\n        keyValuePair storage existingKeyValuePair = extraData_uniqueParameters[_taAddress].keccakHash_to_keyValuePair[keyValuePairKeccak];\n\n        if (existingKeyValuePair.doesExist == true) {\n            return existingKeyValuePair.validationsMappingNonce[existingKeyValuePair.nonce].addressValidationArray.length;\n        } else {\n            return 0;\n        }\n    }\n\n    /// @param _trustAnchorAddress The Trust Anchor address related to this unique extraData.\n    /// @dev Gets the number of key-value pairs associated to this Trust Anchor.\n    /// @return result the number of key-value pairs associated to this Trust Anchor.\n\n    function getTrustAnchorNumberOfKeyValuePairs(address _trustAnchorAddress) public override view returns (uint256 result) {\n        return extraData_uniqueParameters[_trustAnchorAddress].keyValuePairsHashArray.length;\n    }\n\n    /// @param _trustAnchorAddress The Trust Anchor address related to this unique extraData.\n    /// @param _index The index within this Trust Anchor's key-value pair array.\n    /// @dev Gets the key-value pair name (key) for a specific index within the Trust Anchor's key-value pair array.\n    /// @notice Checks to make sure that the _index parameter is not out of bounds.\n    /// @return doesExist whether the key-value pair data exists, ( false, \"\" ): key-value pair data does not exist\n    /// @return keyValuePairName the key-value pair name (key)\n\n    function getTrustAnchorKeyValuePairNameByIndex(address _trustAnchorAddress, uint256 _index) public override view returns (bool doesExist, string memory keyValuePairName) {\n        // checks whether this particular endpoint already exists for this Trust Anchor.\n        if (extraData_uniqueParameters[_trustAnchorAddress].keyValuePairsHashArray.length > _index) {\n            bytes32 keyValuePairKeccak = extraData_uniqueParameters[_trustAnchorAddress].keyValuePairsHashArray[_index];\n\n            keyValuePair storage existingKeyValuePair = extraData_uniqueParameters[_trustAnchorAddress].keccakHash_to_keyValuePair[keyValuePairKeccak];\n\n            //key-value pair data exists, returns the key-value pair name (key)\n            return (true, existingKeyValuePair.keyValuePairName);\n        } else {\n            //key-value pair data does not exist\n            return (false, \"\");\n        }\n    }\n\n    /// @param _trustAnchorAddress The Trust Anchor address related to this unique extraData.\n    /// @param _keyValuePairName The name of the key-value pair.\n    /// @dev Gets the key-value pair value parameters (whether it exists, the actual key-value pair value) for this particular _keyValuePairName.\n    /// @return doesExist whether the key-value pair data exists, ( false, \"\" ): key-value pair data does not exist\n    /// @return keyValuePairValue the key-value pair value\n\n    function getTrustAnchorKeyValuePairValue(address _trustAnchorAddress, string memory _keyValuePairName) public override view returns (bool doesExist, string memory keyValuePairValue) {\n        bytes32 keyValuePairKeccak = keccak256(abi.encodePacked(_keyValuePairName));\n\n        // gets the hash mapping\n        keyValuePair storage existingKeyValuePair = extraData_uniqueParameters[_trustAnchorAddress].keccakHash_to_keyValuePair[keyValuePairKeccak];\n\n        // checks whether this particular hash mapping already exists for this Trust Anchor.\n        if (existingKeyValuePair.doesExist == true) {\n            //key-value pair data exists, and the hash value\n            return (true, existingKeyValuePair.keyValuePairValue);\n        } else {\n            //key-value pair data does not exist\n            return (false, \"\");\n        }\n    }\n\n    /// @param _trustAnchorAddress The trust anchor address related to this extraData.\n    /// @param _keyValuePairKeccak The key-value pair keccak\n    /// @dev Gets the key-value pair name for a specific key-value pair keccak for a Trust Anchor.\n    /// @return keyValuePairName key-value pair data exists, returns the key-value pair name\n    function getTrustAnchorKeyValuePairNameByKeyValuePairKeccak(address _trustAnchorAddress, bytes32 _keyValuePairKeccak) public override view returns (string memory keyValuePairName) {\n        //returns the key-value pair name\n        return extraData_uniqueParameters[_trustAnchorAddress].keccakHash_to_keyValuePair[_keyValuePairKeccak].keyValuePairName;\n    }\n\n    // ** extraData public metadata ** //\n\n    /// @param _publicMetaData The public metadata to set.\n    /// @dev Sets public metadata for this trust anchor. This could relate to purpose/status/etc. Any further calls to this will overwrite existing public metadata that has previously been set.\n    /// @return result\n    ///    | 0: trust anchor is not verified\n    ///    | 1: public metadata set\n\n    function setTrustAnchorPublicMetaData(string memory _publicMetaData) public override returns (uint8 result) {\n        //@note: need to check Trust Anchor jurisdiction in Trust Anchor manager lookup\n        ITrustAnchorManager trustAnchorManager = ITrustAnchorManager(trustAnchorManagerAddress);\n\n        // check whether trust Anchor manager is verified\n        if (trustAnchorManager.isTrustAnchorVerified(msg.sender)) {\n\n            // set public metadata.\n            extraData_uniqueParameters[msg.sender].publicMetaData = _publicMetaData;\n\n            // emit set event\n            emit EVT_setTrustAnchorPublicMetaData(msg.sender, _publicMetaData);\n\n            //public metadata set\n            return 1;\n        } else {\n            //trust anchor is not verified\n            return 0;\n        }\n    }\n\n    /// @param _trustAnchorAddress The Trust Anchor address related to this unique extraData.\n    /// @dev Gets the public metadata for this Trust Anchor.\n    /// @return publicMetaData the public metadata for this trust anchor\n\n    function getTrustAnchorPublicMetaData(address _trustAnchorAddress) public override view returns (string memory publicMetaData) {\n        // returns the public metadata\n        return extraData_uniqueParameters[_trustAnchorAddress].publicMetaData;\n    }\n}\n",
  "sourcePath": "/home/ubuntu/shyft_shyftcorecontracts/contracts/TrustAnchorExtraData_Unique.sol",
  "compiler": {
    "name": "solc",
    "version": "0.7.1+commit.f4a555be.Emscripten.clang"
  },
  "schemaVersion": "3.4.7",
  "updatedAt": "2022-04-19T20:59:55.956Z",
  "networkType": "ethereum",
  "devdoc": {
    "details": "| The Trust Anchor Extra Data [Unique] reference contract | This contract is an example of the type of parameters most useful in a Regulatory/Onboarding/Verification context. A very malleable construction of variables is used, with: | a) a mapping of hashes (for lookups on various databases) with a string name for human readability. | b) a mapping of ip endpoints (for the transfer of sensitive documents) with a string name for human readability. | c) a mapping of 256-bit numeric identifiers (for various indexing purposes) with a string name for human readability. | d) a string for public metadata.",
    "events": {
      "EVT_setTrustAnchorEndPointCreated(address,string,uint8[4])": {
        "details": "Event for creating an End Point"
      },
      "EVT_setTrustAnchorEndPointUpdated(address,string,uint8[4])": {
        "details": "Event for updating an End Point"
      },
      "EVT_setTrustAnchorEndpointIsEnabled(address,string,bool)": {
        "details": "Event for Data Retrieval Endpoint is Enabled for a specific Endpoint name."
      },
      "EVT_setTrustAnchorHashMappingCreated(address,string,bytes32)": {
        "details": "Event for creating a Hash Mapping"
      },
      "EVT_setTrustAnchorHashMappingUpdated(address,string,bytes32)": {
        "details": "Event for updating a Hash Mapping"
      },
      "EVT_setTrustAnchorKeyValuePairCreated(address,string,string)": {
        "details": "Event for creating a Key-Value Pair (String to String relationship)"
      },
      "EVT_setTrustAnchorKeyValuePairUpdated(address,string,string)": {
        "details": "Event for updating a Key-Value Pair (String to String relationship)"
      },
      "EVT_setTrustAnchorNumericIdentifierCreated(address,string,uint256)": {
        "details": "Event for creating a Numeric Identifier"
      },
      "EVT_setTrustAnchorNumericIdentifierUpdated(address,string,uint256)": {
        "details": "Event for updating a Numeric Identifier"
      },
      "EVT_setTrustAnchorPublicMetaData(address,string)": {
        "details": "Event for setting Public Metadata"
      },
      "EVT_setValidationForKeyValuePairData(address,address,string,uint256)": {
        "details": "Event for setting validation for a specific key-value pair"
      }
    },
    "kind": "dev",
    "methods": {
      "constructor": {
        "details": "Initializes this contract with the owner set to the calling public address."
      },
      "doesTrustAnchorHaveUniqueExtraData(address)": {
        "details": "Checks whether a specific Trust Anchor has extraData associated to it, updates if necessary, and returns the status.",
        "params": {
          "_trustAnchorAddress": "The Trust Anchor address that is checked for unique extraData availability."
        },
        "returns": {
          "result": "   | false: trust anchor has no extraData parameters allocated    | true: trust anchor does has extraData parameters allocated"
        }
      },
      "getKeyValuePairCurrentNonce(address,string)": {
        "details": "gets the current nonce for a specific key-value pair.",
        "params": {
          "_keyValuePairName": "The name of the key-value pair.",
          "_taAddress": "The name of the key-value pair."
        },
        "returns": {
          "result": "the current nonce"
        }
      },
      "getNumValidationsForLatestKeyValuePair(address,string)": {
        "details": "Gets the number of validations for the latest nonce of a specific key-value pair.",
        "params": {
          "_keyValuePairName": "The name of the key-value pair.",
          "_taAddress": "The name of the key-value pair."
        },
        "returns": {
          "result": "the number of current validations for the latest nonce"
        }
      },
      "getTrustAnchorDataEndpoint(address,string)": {
        "details": "Gets the data retrieval parameters (whether it exists, the actual endpoint data, and whether it's enabled) for this particular _endpointName.",
        "params": {
          "_endpointName": "The name of the endpoint.",
          "_trustAnchorAddress": "The Trust Anchor address related to this unique extraData."
        },
        "returns": {
          "doesExist": "whether the endpoint data exists, ( false, [0, 0, 0, 0], false ): endpoint data does not exist",
          "ipv4Address": "the ipv4 components",
          "isEnabled": "whether this endpoint is enabled"
        }
      },
      "getTrustAnchorEndpointNameByEndpointKeccak(address,bytes32)": {
        "details": "Gets the endpoint name for a specific endpoint keccak for a Trust Anchor.",
        "params": {
          "_endpointKeccak": "The endpoint keccak",
          "_trustAnchorAddress": "The trust anchor address related to this extraData."
        },
        "returns": {
          "endpointName": "endpoint data exists, returns the endpoint name"
        }
      },
      "getTrustAnchorEndpointNameByIndex(address,uint256)": {
        "details": "Gets the endpoint name for a specific index within the Trust Anchor's endpoint array.",
        "params": {
          "_index": "The index within this Trust Anchor's endpoint array.",
          "_trustAnchorAddress": "The Trust Anchor address related to this unique extraData."
        },
        "returns": {
          "doesExist": "whether the endpoint data exists, ( false, \"\" ): endpoint data does not exist",
          "endpointName": "the endpoint name"
        }
      },
      "getTrustAnchorHashMappingNameByHashMappingKeccak(address,bytes32)": {
        "details": "Gets the hash mapping name for a specific hash mapping keccak for a Trust Anchor.",
        "params": {
          "_hashMappingKeccak": "The hash mapping keccak",
          "_trustAnchorAddress": "The trust anchor address related to this extraData."
        },
        "returns": {
          "hashMappingName": "hash mapping data exists, returns the hash mapping name"
        }
      },
      "getTrustAnchorHashMappingNameByIndex(address,uint256)": {
        "details": "Gets the hash mapping name for a specific index within the Trust Anchor's hash mapping array.",
        "params": {
          "_index": "The index within this Trust Anchor's hash mapping array.",
          "_trustAnchorAddress": "The Trust Anchor address related to this unique extraData."
        },
        "returns": {
          "doesExist": "whether the hash mapping data exists, ( false, \"\" ): hash mapping data does not exist",
          "hashMappingName": "the hash mapping name"
        }
      },
      "getTrustAnchorHashMappingValue(address,string)": {
        "details": "Gets the hash mapping value parameters (whether it exists, the actual hash mapping value) for this particular _hashMappingName.",
        "params": {
          "_hashMappingName": "The name of the hash mapping.",
          "_trustAnchorAddress": "The Trust Anchor address related to this unique extraData."
        },
        "returns": {
          "doesExist": "whether hash mapping data exists, ( false, 0 ): hash mapping data does not exist",
          "hashValue": "the hash mapping value"
        }
      },
      "getTrustAnchorKeyValuePairNameByIndex(address,uint256)": {
        "details": "Gets the key-value pair name (key) for a specific index within the Trust Anchor's key-value pair array.",
        "params": {
          "_index": "The index within this Trust Anchor's key-value pair array.",
          "_trustAnchorAddress": "The Trust Anchor address related to this unique extraData."
        },
        "returns": {
          "doesExist": "whether the key-value pair data exists, ( false, \"\" ): key-value pair data does not exist",
          "keyValuePairName": "the key-value pair name (key)"
        }
      },
      "getTrustAnchorKeyValuePairNameByKeyValuePairKeccak(address,bytes32)": {
        "details": "Gets the key-value pair name for a specific key-value pair keccak for a Trust Anchor.",
        "params": {
          "_keyValuePairKeccak": "The key-value pair keccak",
          "_trustAnchorAddress": "The trust anchor address related to this extraData."
        },
        "returns": {
          "keyValuePairName": "key-value pair data exists, returns the key-value pair name"
        }
      },
      "getTrustAnchorKeyValuePairValue(address,string)": {
        "details": "Gets the key-value pair value parameters (whether it exists, the actual key-value pair value) for this particular _keyValuePairName.",
        "params": {
          "_keyValuePairName": "The name of the key-value pair.",
          "_trustAnchorAddress": "The Trust Anchor address related to this unique extraData."
        },
        "returns": {
          "doesExist": "whether the key-value pair data exists, ( false, \"\" ): key-value pair data does not exist",
          "keyValuePairValue": "the key-value pair value"
        }
      },
      "getTrustAnchorManagerAddress()": {
        "details": "Gets the Trust Anchor Manager associated to this contract.",
        "returns": {
          "result": "trust anchor manager address"
        }
      },
      "getTrustAnchorNumberOfEndpoints(address)": {
        "details": "Gets the number of endpoints associated to this Trust Anchor.",
        "params": {
          "_trustAnchorAddress": "The Trust Anchor address related to this unique extraData."
        },
        "returns": {
          "result": "the number of endpoints associated to this Trust Anchor."
        }
      },
      "getTrustAnchorNumberOfHashMappings(address)": {
        "details": "Gets the number of hash mappings associated to this Trust Anchor.",
        "params": {
          "_trustAnchorAddress": "The Trust Anchor address related to this unique extraData."
        },
        "returns": {
          "result": "the number of hash mappings associated to this Trust Anchor."
        }
      },
      "getTrustAnchorNumberOfKeyValuePairs(address)": {
        "details": "Gets the number of key-value pairs associated to this Trust Anchor.",
        "params": {
          "_trustAnchorAddress": "The Trust Anchor address related to this unique extraData."
        },
        "returns": {
          "result": "the number of key-value pairs associated to this Trust Anchor."
        }
      },
      "getTrustAnchorNumberOfNumericIdentifiers(address)": {
        "details": "Gets the number of numeric identifiers associated to this Trust Anchor.",
        "params": {
          "_trustAnchorAddress": "The Trust Anchor address related to this unique extraData."
        },
        "returns": {
          "result": "the number of numeric identifiers associated to this Trust Anchor."
        }
      },
      "getTrustAnchorNumericIdentifierNameByIndex(address,uint256)": {
        "details": "Gets the numeric identifier name for a specific index within the Trust Anchor's numeric identifier array.",
        "params": {
          "_index": "The index within this Trust Anchor's numeric identifier array.",
          "_trustAnchorAddress": "The Trust Anchor address related to this unique extraData."
        },
        "returns": {
          "doesExist": "whether numeric identifier data exists, ( false, \"\" ): numeric identifier data does not exist",
          "numericIdentifierName": "the numeric identifier name"
        }
      },
      "getTrustAnchorNumericIdentifierNameByNumericIdentifierKeccak(address,bytes32)": {
        "details": "Gets the numeric identifier name for a specific numeric identifier keccak for a Trust Anchor.",
        "params": {
          "_numericIdentifierKeccak": "The numeric identifier keccak",
          "_trustAnchorAddress": "The trust anchor address related to this extraData."
        },
        "returns": {
          "numericIdentifierName": "numeric identifier data exists, returns the numeric identifier name"
        }
      },
      "getTrustAnchorNumericIdentifierValue(address,string)": {
        "details": "Gets the numeric identifier value parameters (whether it exists, the actual numeric identifier value) for this particular _numericIdentifierName.",
        "params": {
          "_numericIdentifierName": "The name of the numeric identifier.",
          "_trustAnchorAddress": "The Trust Anchor address related to this unique extraData."
        },
        "returns": {
          "doesExist": "whether numeric identifier data exists, ( false, 0 ): numeric identifier data does not exist",
          "numericIdentifierValue": "the numeric identifier value"
        }
      },
      "getTrustAnchorPublicMetaData(address)": {
        "details": "Gets the public metadata for this Trust Anchor.",
        "params": {
          "_trustAnchorAddress": "The Trust Anchor address related to this unique extraData."
        },
        "returns": {
          "publicMetaData": "the public metadata for this trust anchor"
        }
      },
      "getValidationsArrayForKeyValuePairNonce(address,string,uint256)": {
        "details": "Gets the current nonce for a specific key-value pair.",
        "params": {
          "_keyValuePairName": "The name of the key-value pair.",
          "_nonce": "The name of the key-value pair.",
          "_taAddress": "The name of the key-value pair."
        },
        "returns": {
          "validationsAddressArray": "the current validations as an array of address"
        }
      },
      "owner()": {
        "details": "Returns the address of the current owner."
      },
      "renounceOwnership()": {
        "details": "Leaves the contract without owner. It will not be possible to call `onlyOwner` functions anymore. Can only be called by the current owner. NOTE: Renouncing ownership will leave the contract without an owner, thereby removing any functionality that is only available to the owner."
      },
      "setTrustAnchorDataRetrievalEndpoint(string,uint8[4])": {
        "details": "Checks whether a specific Trust Anchor has \"generic\" extraData associated to it with a specific endpoint name, updates if necessary, and returns the status. Sets the endpoint to \"enabled\" status if it's being set for the first time.",
        "params": {
          "_endpointName": "The name of the endpoint.",
          "_ipv4Address": "The ipv4 address, an array of 4 uint8's (0-255) corresponding to w.x.y.z components of an ip address."
        },
        "returns": {
          "result": "   | 0: trust anchor is not verified    | 1: endpoint set for the first time    | 2: endpoint updated"
        }
      },
      "setTrustAnchorDataRetrievalEndpointIsEnabled(string,bool)": {
        "details": "Checks whether a specific Trust Anchor has \"generic\" extraData associated to it with a specific endpoint name, and updates the isEnabled if it already exists, and returns the status.",
        "params": {
          "_endpointName": "The name of the endpoint.",
          "_isEnabled": "The boolean yes/no of whether this endpoint should be set to enabled or not."
        },
        "returns": {
          "result": "   | 0: trust anchor is not verified    | 1: endpoint does not exist    | 2: endpoint's enabled status updated"
        }
      },
      "setTrustAnchorHashMapping(string,bytes32)": {
        "details": "Checks whether a specific Trust Anchor has \"unique\" extraData associated to it with a specific hash name, updates if necessary, and returns the status.",
        "params": {
          "_hashName": "The name of the hash mapping.",
          "_hashValue": "The value for this hash mapping, as a bytes32 (256 bits) format."
        },
        "returns": {
          "result": "   | 0: trust anchor is not verified    | 1: hash mapping set for the first time    | 2: hash mapping updated"
        }
      },
      "setTrustAnchorKeyValuePair(string,string)": {
        "details": "| Checks whether a specific Trust Anchor has \"unique\" extraData associated to it with a specific key-value pair name, updates if necessary, and returns the status.      | Updates internal Nonce to assist in Validations of this key-value pair.",
        "params": {
          "_keyValuePairName": "The name of the key-value pair.",
          "_keyValuePairValue": "The value for this key-value pair, as a String format."
        },
        "returns": {
          "result": "   | 0: trust anchor is not verified    | 1: key-value pair set for the first time    | 2: key-value pair updated"
        }
      },
      "setTrustAnchorManagerAddress(address)": {
        "details": "Links Trust Anchor Manager to this contract's function flow.",
        "params": {
          "_trustAnchorManagerAddress": "The smart contract address for the Trust Anchor Manager that should be linked."
        },
        "returns": {
          "result": "   | false: [ will never return false due to require() ]    | true: trust anchor manager address set correctly"
        }
      },
      "setTrustAnchorNumericIdentifier(string,uint256)": {
        "details": "Checks whether a specific Trust Anchor has \"unique\" extraData associated to it with a specific numeric identifier name, updates if necessary, and returns the status.",
        "params": {
          "_numericIdentifierName": "The name of the numeric identifier.",
          "_numericIdentifierValue": "The value for this numeric identifier, as a bytes32 (256 bits) format."
        },
        "returns": {
          "result": "   | 0: trust anchor is not verified    | 1: numeric identifier set for the first time    | 2: numeric identifier updated"
        }
      },
      "setTrustAnchorPublicMetaData(string)": {
        "details": "Sets public metadata for this trust anchor. This could relate to purpose/status/etc. Any further calls to this will overwrite existing public metadata that has previously been set.",
        "params": {
          "_publicMetaData": "The public metadata to set."
        },
        "returns": {
          "result": "   | 0: trust anchor is not verified    | 1: public metadata set"
        }
      },
      "setValidationForKeyValuePairData(address,string,uint256)": {
        "details": "Sets the validations for specific key-value pair data, at a specific nonce.",
        "params": {
          "_keyValuePairName": "The name of the key-value pair.",
          "_nonce": "The name of the key-value pair.",
          "_taAddress": "The name of the key-value pair."
        },
        "returns": {
          "numValidations": "number of validations for key-value pair, only returns value for result codes 3 & 4",
          "result": "   | 0: not a trust anchor    | 1: cannot self-validate    | 2: key-value pair cannot be validated    | 3: trust anchor has already validated this    | 4: set validation for key-value pair"
        }
      },
      "transferOwnership(address)": {
        "details": "Transfers ownership of the contract to a new account (`newOwner`). Can only be called by the current owner."
      }
    },
    "stateVariables": {
      "extraData_uniqueParameters": {
        "details": "Mapping for a Trust Anchor to its unique extraData parameters."
      },
      "trustAnchorManagerAddress": {
        "details": "The Trust Anchor Manager address that this contract is bound to."
      }
    },
    "version": 1
  },
  "userdoc": {
    "kind": "user",
    "methods": {
      "getTrustAnchorEndpointNameByIndex(address,uint256)": {
        "notice": "Checks to make sure that the _index parameter is not out of bounds."
      },
      "getTrustAnchorHashMappingNameByIndex(address,uint256)": {
        "notice": "Checks to make sure that the _index parameter is not out of bounds."
      },
      "getTrustAnchorKeyValuePairNameByIndex(address,uint256)": {
        "notice": "Checks to make sure that the _index parameter is not out of bounds."
      },
      "getTrustAnchorNumericIdentifierNameByIndex(address,uint256)": {
        "notice": "Checks to make sure that the _index parameter is not out of bounds."
      },
      "setTrustAnchorDataRetrievalEndpoint(string,uint8[4])": {
        "notice": "Called by an already setup Trust Anchor."
      },
      "setTrustAnchorDataRetrievalEndpointIsEnabled(string,bool)": {
        "notice": "Called by an already setup Trust Anchor."
      },
      "setTrustAnchorHashMapping(string,bytes32)": {
        "notice": "Called by an already setup Trust Anchor."
      },
      "setTrustAnchorKeyValuePair(string,string)": {
        "notice": "Called by an already setup Trust Anchor."
      },
      "setTrustAnchorNumericIdentifier(string,uint256)": {
        "notice": "Called by an already setup Trust Anchor."
      }
    },
    "version": 1
  }
}