{
  "contractName": "TrustAnchorStorage_Availability",
  "abi": [
    {
      "inputs": [],
      "stateMutability": "nonpayable",
      "type": "constructor"
    },
    {
      "anonymous": false,
      "inputs": [
        {
          "indexed": false,
          "internalType": "uint256",
          "name": "accumulatedAmount",
          "type": "uint256"
        }
      ],
      "name": "EVT_D",
      "type": "event"
    },
    {
      "anonymous": false,
      "inputs": [
        {
          "indexed": false,
          "internalType": "bytes32",
          "name": "_attestationKeccak",
          "type": "bytes32"
        },
        {
          "indexed": false,
          "internalType": "address",
          "name": "currentRetrieverAddress",
          "type": "address"
        },
        {
          "indexed": false,
          "internalType": "uint256",
          "name": "totalAmount",
          "type": "uint256"
        },
        {
          "indexed": false,
          "internalType": "uint256",
          "name": "trustAnchorDataRetrievalShare",
          "type": "uint256"
        }
      ],
      "name": "EVT_appliedEscrow",
      "type": "event"
    },
    {
      "anonymous": false,
      "inputs": [
        {
          "indexed": false,
          "internalType": "bytes32",
          "name": "attestationKeccak",
          "type": "bytes32"
        },
        {
          "indexed": false,
          "internalType": "address",
          "name": "sentFrom",
          "type": "address"
        },
        {
          "indexed": false,
          "internalType": "uint256",
          "name": "totalEscrowApplied",
          "type": "uint256"
        }
      ],
      "name": "EVT_cancelEscrow",
      "type": "event"
    },
    {
      "anonymous": false,
      "inputs": [
        {
          "indexed": false,
          "internalType": "bytes32",
          "name": "attestationKeccak",
          "type": "bytes32"
        },
        {
          "indexed": false,
          "internalType": "address",
          "name": "dataRetrievalEntityAddress",
          "type": "address"
        },
        {
          "indexed": false,
          "internalType": "address",
          "name": "contestationOracleAddress",
          "type": "address"
        }
      ],
      "name": "EVT_contestEscrow",
      "type": "event"
    },
    {
      "anonymous": false,
      "inputs": [
        {
          "indexed": false,
          "internalType": "bytes32",
          "name": "attestationKeccak",
          "type": "bytes32"
        },
        {
          "indexed": false,
          "internalType": "address",
          "name": "dataTargetAddress",
          "type": "address"
        },
        {
          "indexed": false,
          "internalType": "address",
          "name": "recipientAddress",
          "type": "address"
        },
        {
          "indexed": false,
          "internalType": "uint256",
          "name": "recipientAmount",
          "type": "uint256"
        },
        {
          "indexed": false,
          "internalType": "bool",
          "name": "wasCompleted",
          "type": "bool"
        }
      ],
      "name": "EVT_settledRecipient",
      "type": "event"
    },
    {
      "anonymous": false,
      "inputs": [
        {
          "indexed": false,
          "internalType": "bytes32",
          "name": "_attestationKeccak",
          "type": "bytes32"
        },
        {
          "indexed": false,
          "internalType": "address",
          "name": "currentRetrieverAddress",
          "type": "address"
        },
        {
          "indexed": false,
          "internalType": "uint256",
          "name": "totalAmount",
          "type": "uint256"
        },
        {
          "indexed": false,
          "internalType": "uint256",
          "name": "trustAnchorDataRetrievalShare",
          "type": "uint256"
        }
      ],
      "name": "EVT_updatedEscrow",
      "type": "event"
    },
    {
      "anonymous": false,
      "inputs": [
        {
          "indexed": true,
          "internalType": "address",
          "name": "previousOwner",
          "type": "address"
        },
        {
          "indexed": true,
          "internalType": "address",
          "name": "newOwner",
          "type": "address"
        }
      ],
      "name": "OwnershipTransferred",
      "type": "event"
    },
    {
      "inputs": [],
      "name": "owner",
      "outputs": [
        {
          "internalType": "address",
          "name": "",
          "type": "address"
        }
      ],
      "stateMutability": "view",
      "type": "function"
    },
    {
      "inputs": [],
      "name": "renounceOwnership",
      "outputs": [],
      "stateMutability": "nonpayable",
      "type": "function"
    },
    {
      "inputs": [
        {
          "internalType": "address",
          "name": "newOwner",
          "type": "address"
        }
      ],
      "name": "transferOwnership",
      "outputs": [],
      "stateMutability": "nonpayable",
      "type": "function"
    },
    {
      "inputs": [
        {
          "internalType": "address",
          "name": "_trustAnchorManagerAddress",
          "type": "address"
        }
      ],
      "name": "setTrustAnchorManagerAddress",
      "outputs": [
        {
          "internalType": "bool",
          "name": "result",
          "type": "bool"
        }
      ],
      "stateMutability": "nonpayable",
      "type": "function"
    },
    {
      "inputs": [
        {
          "internalType": "address",
          "name": "_trustAnchorStorageAddress",
          "type": "address"
        }
      ],
      "name": "setTrustAnchorStorageAddress",
      "outputs": [
        {
          "internalType": "bool",
          "name": "result",
          "type": "bool"
        }
      ],
      "stateMutability": "nonpayable",
      "type": "function"
    },
    {
      "inputs": [
        {
          "internalType": "bytes32",
          "name": "_attestationKeccak",
          "type": "bytes32"
        },
        {
          "internalType": "address",
          "name": "_contestationOracleAddress",
          "type": "address"
        },
        {
          "internalType": "uint256",
          "name": "_contestationTimePeriod",
          "type": "uint256"
        }
      ],
      "name": "applyEscrow",
      "outputs": [
        {
          "internalType": "uint8",
          "name": "result",
          "type": "uint8"
        }
      ],
      "stateMutability": "payable",
      "type": "function"
    },
    {
      "inputs": [
        {
          "internalType": "bytes32",
          "name": "_attestationKeccak",
          "type": "bytes32"
        },
        {
          "internalType": "address",
          "name": "_dataRetrievalEntityAddress",
          "type": "address"
        }
      ],
      "name": "getOracleCanContestEscrow",
      "outputs": [
        {
          "internalType": "uint8",
          "name": "result",
          "type": "uint8"
        }
      ],
      "stateMutability": "view",
      "type": "function"
    },
    {
      "inputs": [
        {
          "internalType": "bytes32",
          "name": "_attestationKeccak",
          "type": "bytes32"
        },
        {
          "internalType": "address",
          "name": "_dataRetrievalEntityAddress",
          "type": "address"
        }
      ],
      "name": "contestEscrow",
      "outputs": [
        {
          "internalType": "uint8",
          "name": "result",
          "type": "uint8"
        }
      ],
      "stateMutability": "nonpayable",
      "type": "function"
    },
    {
      "inputs": [
        {
          "internalType": "bytes32",
          "name": "_attestationKeccak",
          "type": "bytes32"
        }
      ],
      "name": "cancelEscrow",
      "outputs": [
        {
          "internalType": "uint8",
          "name": "result",
          "type": "uint8"
        }
      ],
      "stateMutability": "nonpayable",
      "type": "function"
    },
    {
      "inputs": [
        {
          "internalType": "bytes32[]",
          "name": "_attestationKeccaks",
          "type": "bytes32[]"
        },
        {
          "internalType": "address[]",
          "name": "_retrieverAddresses",
          "type": "address[]"
        },
        {
          "internalType": "address",
          "name": "_outputAddress",
          "type": "address"
        }
      ],
      "name": "settleEscrow",
      "outputs": [
        {
          "internalType": "uint8",
          "name": "result",
          "type": "uint8"
        }
      ],
      "stateMutability": "nonpayable",
      "type": "function"
    },
    {
      "inputs": [
        {
          "internalType": "bytes32",
          "name": "_attestationKeccak",
          "type": "bytes32"
        },
        {
          "internalType": "address",
          "name": "_dataRetrievalEntityAddress",
          "type": "address"
        }
      ],
      "name": "getEscrow",
      "outputs": [
        {
          "internalType": "address",
          "name": "sentFrom",
          "type": "address"
        },
        {
          "internalType": "uint256",
          "name": "totalAmount",
          "type": "uint256"
        },
        {
          "internalType": "uint256",
          "name": "userAmount",
          "type": "uint256"
        },
        {
          "internalType": "uint256",
          "name": "trustAnchorAmount",
          "type": "uint256"
        },
        {
          "internalType": "address",
          "name": "contestationOracleAddress",
          "type": "address"
        },
        {
          "internalType": "uint256",
          "name": "contestationTimePeriod",
          "type": "uint256"
        },
        {
          "internalType": "uint256",
          "name": "setTimestamp",
          "type": "uint256"
        },
        {
          "internalType": "bool",
          "name": "wasCompleted",
          "type": "bool"
        },
        {
          "internalType": "bool",
          "name": "wasCancelled",
          "type": "bool"
        }
      ],
      "stateMutability": "view",
      "type": "function"
    },
    {
      "inputs": [
        {
          "internalType": "address",
          "name": "_dataRetrievalEntityAddress",
          "type": "address"
        },
        {
          "internalType": "address",
          "name": "_escrowRecipientAddress",
          "type": "address"
        }
      ],
      "name": "getEscrowBalanceFromRetriever",
      "outputs": [
        {
          "internalType": "uint256",
          "name": "balance",
          "type": "uint256"
        }
      ],
      "stateMutability": "view",
      "type": "function"
    },
    {
      "inputs": [
        {
          "internalType": "address",
          "name": "_escrowRecipientAddress",
          "type": "address"
        }
      ],
      "name": "getEscrowBalanceSum",
      "outputs": [
        {
          "internalType": "uint256",
          "name": "balance",
          "type": "uint256"
        }
      ],
      "stateMutability": "view",
      "type": "function"
    },
    {
      "inputs": [],
      "name": "getBaseEscrowExpiryTime",
      "outputs": [
        {
          "internalType": "uint256",
          "name": "timeAmount",
          "type": "uint256"
        }
      ],
      "stateMutability": "view",
      "type": "function"
    }
  ],
  "bytecode": "0x608060405262278d00600155600680546001600160a01b031990811690915560078054909116905534801561003357600080fd5b50600061003e61008d565b600080546001600160a01b0319166001600160a01b0383169081178255604051929350917f8be0079c531659141344cd1fd0a4f28419497f9722a3daafe3b4186f6b6457e0908290a350610091565b3390565b6121fe806100a06000396000f3fe6080604052600436106100dd5760003560e01c8063c3227b521161007f578063e3aae5f711610059578063e3aae5f71461045a578063ee5e3b8114610495578063f2fde38b146104bf578063fc866bb8146104f2576100dd565b8063c3227b5214610359578063c4e90b4a14610392578063d534d02714610427576100dd565b806371457397116100bb57806371457397146102b5578063715018a6146102fc5780638da5cb5b14610313578063967ecf1b14610344576100dd565b8063422b2cc3146100e25780635373299a146102375780635ec65a5b14610270575b600080fd5b3480156100ee57600080fd5b506102216004803603606081101561010557600080fd5b81019060208101813564010000000081111561012057600080fd5b82018360208201111561013257600080fd5b8035906020019184602083028401116401000000008311171561015457600080fd5b91908080602002602001604051908101604052809392919081815260200183836020028082843760009201919091525092959493602081019350359150506401000000008111156101a457600080fd5b8201836020820111156101b657600080fd5b803590602001918460208302840111640100000000831117156101d857600080fd5b919080806020026020016040519081016040528093929190818152602001838360200280828437600092019190915250929550505090356001600160a01b031691506105249050565b6040805160ff9092168252519081900360200190f35b34801561024357600080fd5b506102216004803603604081101561025a57600080fd5b50803590602001356001600160a01b0316610c79565b34801561027c57600080fd5b506102a36004803603602081101561029357600080fd5b50356001600160a01b0316610e27565b60408051918252519081900360200190f35b3480156102c157600080fd5b506102e8600480360360208110156102d857600080fd5b50356001600160a01b0316610e46565b604080519115158252519081900360200190f35b34801561030857600080fd5b50610311610f14565b005b34801561031f57600080fd5b50610328610fc0565b604080516001600160a01b039092168252519081900360200190f35b34801561035057600080fd5b506102a3610fcf565b34801561036557600080fd5b506102216004803603604081101561037c57600080fd5b50803590602001356001600160a01b0316610fd5565b34801561039e57600080fd5b506103cb600480360360408110156103b557600080fd5b50803590602001356001600160a01b0316611097565b604080516001600160a01b039a8b168152602081019990995288810197909752606088019590955292909616608086015260a085015260c084019490945292151560e08301529115156101008201529051908190036101200190f35b34801561043357600080fd5b506102e86004803603602081101561044a57600080fd5b50356001600160a01b031661110d565b34801561046657600080fd5b506102a36004803603604081101561047d57600080fd5b506001600160a01b03813581169160200135166111db565b3480156104a157600080fd5b50610221600480360360208110156104b857600080fd5b5035611206565b3480156104cb57600080fd5b50610311600480360360208110156104e257600080fd5b50356001600160a01b03166116ec565b6102216004803603606081101561050857600080fd5b508035906001600160a01b0360208201351690604001356117ee565b600754825184516000926001600160a01b031691839182911415610c6a5760005b8751811015610b7157600088828151811061055c57fe5b60200260200101519050600088838151811061057457fe5b602002602001015190506000866001600160a01b031663b7500ac3846040518263ffffffff1660e01b81526004018082815260200191505060206040518083038186803b1580156105c457600080fd5b505afa1580156105d8573d6000803e3d6000fd5b505050506040513d60208110156105ee57600080fd5b505160408051639db4980960e01b81526004810186905290519192506000916001600160a01b038a1691639db49809916024808301926020929190829003018186803b15801561063d57600080fd5b505afa158015610651573d6000803e3d6000fd5b505050506040513d602081101561066757600080fd5b505160008581526002602090815260408083206001600160a01b0388168452909152902080549192509060ff16151560011415610b63576000896001600160a01b031663cd74e79a87876040518363ffffffff1660e01b815260040180838152602001826001600160a01b031681526020019250505060206040518083038186803b1580156106f557600080fd5b505afa158015610709573d6000803e3d6000fd5b505050506040513d602081101561071f57600080fd5b50519050600060018215151415610738575060016107f3565b60008b6001600160a01b031663f082544b89896040518363ffffffff1660e01b815260040180838152602001826001600160a01b031681526020019250505060206040518083038186803b15801561078f57600080fd5b505afa1580156107a3573d6000803e3d6000fd5b505050506040513d60208110156107b957600080fd5b5051905080156107f15760048401546000906001600160a01b0316156107e0575060058401545b8082014211156107ef57600192505b505b505b60018115151415610b5757600080336001600160a01b038716141561082357600885015460ff1661082357600191505b336001600160a01b0388161415610849576008850154610100900460ff16610849575060015b600182151514156109b6576002850154610864908c90611e00565b60028601546001600160a01b03808b166000908152600460209081526040808320938c1683529290522054919c5061089c9190611e12565b6001600160a01b03808a166000908152600460209081526040808320938b168352928152828220939093556002880154600590935220546108dc91611e12565b6001600160a01b038716600090815260056020526040902055600285015460035461090691611e12565b60035560088501805460ff191660019081179182905561010090910460ff16151514156109495760088501805462ff0000191662010000179055845460ff191685555b60028501546008860154604080518c81526001600160a01b038c811660208301528a168183015260608101939093526201000090910460ff1615156080830152517fa4ea88b7f81131ab37ad5824502de9ebdd2501d900b54c2598739810eebee8a19160a0908290030190a15b60018115151415610b1f5760038501546109d1908c90611e00565b60038601546001600160a01b03808b166000908152600460209081526040808320938d1683529290522054919c50610a099190611e12565b6001600160a01b03808a166000908152600460209081526040808320938c16835292815282822093909355600388015460059093522054610a4991611e12565b6001600160a01b0388166000908152600560205260409020556003808601549054610a7391611e12565b60035560088501805461ff001916610100179081905560ff16151560011415610ab25760088501805462ff0000191662010000179055845460ff191685555b60038501546008860154604080518c81526001600160a01b038c811660208301528b168183015260608101939093526201000090910460ff1615156080830152517fa4ea88b7f81131ab37ad5824502de9ebdd2501d900b54c2598739810eebee8a19160a0908290030190a15b60018115151480610b3257506001821515145b15610b495760019b50505050505050505050610b69565b505050505050505050610b69565b50505050505050610b69565b50505050505b600101610545565b506040805182815290517f276b1cd932e6c80d9168b9847bffc135907d6f1cfeffb93aa20dd8127b9b47a59181900360200190a160018215151415610c5e576040516000906001600160a01b0387169083908381818185875af1925050503d8060008114610bfb576040519150601f19603f3d011682016040523d82523d6000602084013e610c00565b606091505b5050905080610c51576040805162461bcd60e51b8152602060048201526018602482015277646964206e6f74206f757470757420636f72726563746c7960401b604482015290519081900360640190fd5b6002945050505050610c72565b60019350505050610c72565b600093505050505b9392505050565b60075460008381526002602090815260408083206001600160a01b0386811685529252822080549293919091169160ff16151560011415610e1a5760048101546000906001600160a01b031615610df7576000836001600160a01b0316630d84216188886040518363ffffffff1660e01b815260040180838152602001826001600160a01b031681526020019250505060206040518083038186803b158015610d2157600080fd5b505afa158015610d35573d6000803e3d6000fd5b505050506040513d6020811015610d4b57600080fd5b50516040805163f082544b60e01b8152600481018a90526001600160a01b03898116602483015291519293506000929187169163f082544b91604480820192602092909190829003018186803b158015610da457600080fd5b505afa158015610db8573d6000803e3d6000fd5b505050506040513d6020811015610dce57600080fd5b505190506001821515148015610dea5750836005015481014211155b15610df457600192505b50505b60018115151415610e0e5760029350505050610e21565b60019350505050610e21565b6000925050505b92915050565b6001600160a01b0381166000908152600560205260409020545b919050565b6000610e50611e27565b6001600160a01b0316610e61610fc0565b6001600160a01b031614610eaa576040805162461bcd60e51b8152602060048201819052602482015260008051602061217f833981519152604482015290519081900360640190fd5b6001600160a01b038216610eef5760405162461bcd60e51b815260040180806020018281038252602a81526020018061219f602a913960400191505060405180910390fd5b50600780546001600160a01b0383166001600160a01b03199091161790556001919050565b610f1c611e27565b6001600160a01b0316610f2d610fc0565b6001600160a01b031614610f76576040805162461bcd60e51b8152602060048201819052602482015260008051602061217f833981519152604482015290519081900360640190fd5b600080546040516001600160a01b03909116907f8be0079c531659141344cd1fd0a4f28419497f9722a3daafe3b4186f6b6457e0908390a3600080546001600160a01b0319169055565b6000546001600160a01b031690565b60015490565b6000610fe18383610c79565b60ff166002141561108f5760008381526002602090815260408083206001600160a01b038087168552925290912060048101549091163314156110855760068101805460ff191660011790556004810154604080518681526001600160a01b03808716602083015290921682820152517fd2058bd324c27f0e8ee94c53c1f42902844e0789457491cda2bec304cb7245899181900360600190a16002915050610e21565b6001915050610e21565b506000610e21565b60009182526002602081815260408085206001600160a01b039485168652909152909220805460018201549382015460038301546004840154600585015460078601546008909601546101009095048716989396929591909216939192909160ff62010000820481169263010000009092041690565b6000611117611e27565b6001600160a01b0316611128610fc0565b6001600160a01b031614611171576040805162461bcd60e51b8152602060048201819052602482015260008051602061217f833981519152604482015290519081900360640190fd5b6001600160a01b0382166111b65760405162461bcd60e51b815260040180806020018281038252602a815260200180612155602a913960400191505060405180910390fd5b50600680546001600160a01b0383166001600160a01b03199091161790556001919050565b6001600160a01b03918216600090815260046020908152604080832093909416825291909152205490565b60075460008281526002602090815260408083203380855292528220805492936001600160a01b03908116936101009004168214156116e0576000836001600160a01b031663b7500ac3876040518263ffffffff1660e01b81526004018082815260200191505060206040518083038186803b15801561128557600080fd5b505afa158015611299573d6000803e3d6000fd5b505050506040513d60208110156112af57600080fd5b505160408051639db4980960e01b81526004810189905290519192506000916001600160a01b03871691639db49809916024808301926020929190829003018186803b1580156112fe57600080fd5b505afa158015611312573d6000803e3d6000fd5b505050506040513d602081101561132857600080fd5b5051604080516366ba73cd60e11b8152600481018a90526001600160a01b03878116602483015291519293506000929188169163cd74e79a91604480820192602092909190829003018186803b15801561138157600080fd5b505afa158015611395573d6000803e3d6000fd5b505050506040513d60208110156113ab57600080fd5b50519050806116d1576000866001600160a01b0316630d8421618a886040518363ffffffff1660e01b815260040180838152602001826001600160a01b031681526020019250505060206040518083038186803b15801561140b57600080fd5b505afa15801561141f573d6000803e3d6000fd5b505050506040513d602081101561143557600080fd5b50519050600081158015611450575060015486600701540142115b600687015490915060ff1615156001148061146d57506001811515145b156116c057855460ff1916865560088601805463ff0000001916630100000017905560018601546003546114a091611e12565b60035560028601546001600160a01b038089166000908152600460209081526040808320938916835292905220546114d791611e12565b6001600160a01b03888116600090815260046020908152604080832089851684529091528082209390935560038901549188168152919091205461151a91611e12565b6001600160a01b0380891660009081526004602090815260408083208a8516845282528083209490945560028a0154928816825260059052919091205461156091611e12565b6001600160a01b038086166000908152600560205260408082209390935560038901549188168152919091205461159691611e12565b6001600160a01b0380871660009081526005602090815260409182902093909355885460035482518f81526101009092049093169381019390935282810191909152517f99d777ec1b22021e04fdaaae0d8e222669ea5219d1f05cd9a3bff99b17bb1c3e9181900360600190a18554600187015460405160009261010090046001600160a01b031691908381818185875af1925050503d8060008114611658576040519150601f19603f3d011682016040523d82523d6000602084013e61165d565b606091505b50509050806116ae576040805162461bcd60e51b8152602060048201526018602482015277646964206e6f74206f757470757420636f72726563746c7960401b604482015290519081900360640190fd5b60039950505050505050505050610e41565b600298505050505050505050610e41565b60019650505050505050610e41565b60009350505050610e41565b6116f4611e27565b6001600160a01b0316611705610fc0565b6001600160a01b03161461174e576040805162461bcd60e51b8152602060048201819052602482015260008051602061217f833981519152604482015290519081900360640190fd5b6001600160a01b0381166117935760405162461bcd60e51b815260040180806020018281038252602681526020018061212f6026913960400191505060405180910390fd5b600080546040516001600160a01b03808516939216917f8be0079c531659141344cd1fd0a4f28419497f9722a3daafe3b4186f6b6457e091a3600080546001600160a01b0319166001600160a01b0392909216919091179055565b60065460075460408051633cff017d60e21b8152336004820181905291516000946001600160a01b0390811694169291849163f3fc05f491602480820192602092909190829003018186803b15801561184657600080fd5b505afa15801561185a573d6000803e3d6000fd5b505050506040513d602081101561187057600080fd5b5051156100dd576000826001600160a01b031663b7500ac3896040518263ffffffff1660e01b81526004018082815260200191505060206040518083038186803b1580156118bd57600080fd5b505afa1580156118d1573d6000803e3d6000fd5b505050506040513d60208110156118e757600080fd5b505160408051639db4980960e01b8152600481018b905290519192506000916001600160a01b03861691639db49809916024808301926020929190829003018186803b15801561193657600080fd5b505afa15801561194a573d6000803e3d6000fd5b505050506040513d602081101561196057600080fd5b50516040805163bd208f9560e01b8152600481018c905290519192506000916001600160a01b0387169163bd208f95916024808301926020929190829003018186803b1580156119af57600080fd5b505afa1580156119c3573d6000803e3d6000fd5b505050506040513d60208110156119d957600080fd5b50516040805163ec5f1f5560e01b8152600481018d90526001600160a01b038781166024830152915163ffffffff90931693509087169163ec5f1f5591604480820192602092909190829003018186803b158015611a3657600080fd5b505afa158015611a4a573d6000803e3d6000fd5b505050506040513d6020811015611a6057600080fd5b5051156100dd576305f5e10081116100dd57600354611a7f9034611e00565b6003556000611a92826305f5e100611e2b565b90506000611aa08234611ec7565b90506000611aae3483611e12565b6001600160a01b038089166000908152600460209081526040808320938a1683529290522054909150611ae19083611e00565b6001600160a01b0388811660009081526004602090815260408083208a851684529091528082209390935590881681522054611b1d9082611e00565b6001600160a01b0380891660009081526004602090815260408083208b85168452825280832094909455918816815260059091522054611b5d9083611e00565b6001600160a01b038087166000908152600560205260408082209390935590881681522054611b8c9082611e00565b60056000886001600160a01b03166001600160a01b03168152602001908152602001600020819055506000600260008f81526020019081526020016000206000896001600160a01b03166001600160a01b0316815260200190815260200160002090508060000160009054906101000a900460ff161515600115151415611cbb576001810154611c1c9034611e00565b60018201556002810154611c309084611e00565b60028201556003810154611c449083611e00565b81600301819055507f8a0aaae5303dc324bb5e86758055017d66526ad02de52c18762ce04513619ee68e8983600101548560405180858152602001846001600160a01b0316815260200183815260200182815260200194505050505060405180910390a160049a5050505050505050505050610c72565b60018160000160006101000a81548160ff02191690831515021790555060008160080160026101000a81548160ff02191690831515021790555060008160080160036101000a81548160ff021916908315150217905550878160000160016101000a8154816001600160a01b0302191690836001600160a01b031602179055508c8160040160006101000a8154816001600160a01b0302191690836001600160a01b031602179055508b81600501819055504281600701819055503481600101819055508281600201819055508181600301819055507f25f8a56f7af2bae632e809839490e66a70a12d20da38f1f8f218f87055ca13268e8983600101548560405180858152602001846001600160a01b0316815260200183815260200182815260200194505050505060405180910390a160039a5050505050505050505050610c72565b600082820183811015610c7257600080fd5b600082821115611e2157600080fd5b50900390565b3390565b600081611e3757600080fd5b600080841215611e4c57836000039350600190505b6000831215611e5e5760009290920391155b6000611e6a8585611f7c565b90508115611e98576001607f1b816001600160801b03161115611e8c57600080fd5b6000039150610e219050565b6f7fffffffffffffffffffffffffffffff816001600160801b03161115611ebe57600080fd5b9150610e219050565b6000600f83900b6f7fffffffffffffffffffffffffffffff191415611f19576002600160c01b03198212158015611f025750600160c01b8213155b611f0b57600080fd5b506000819003603f1b610e21565b60008084600f0b1215611f3157836000039350600190505b6000831215611f435760009290920391155b6000611f4f85856120c6565b90508115611f6857600160ff1b811115611e8c57600080fd5b6001600160ff1b03811115611ebe57600080fd5b600081611f8857600080fd5b60006001600160c01b038411611fad5782604085901b81611fa557fe5b0490506120b2565b60c084811c6401000000008110611fc6576020918201911c5b620100008110611fd8576010918201911c5b6101008110611fe9576008918201911c5b60108110611ff9576004918201911c5b60048110612009576002918201911c5b60028110612018576001820191505b60bf820360018603901c6001018260ff0387901b8161203357fe5b0492506001600160801b0383111561204a57600080fd5b608085901c83026001600160801b038616840260c088901c604089901b82811015612076576001820391505b608084901b9290038281101561208d576001820391505b829003608084901c821461209d57fe5b8881816120a657fe5b04870196505050505050505b6001600160801b03811115610c7257600080fd5b6000816120d557506000610e21565b600083600f0b12156120e657600080fd5b600f83900b6001600160801b038316810260401c90608084901c026001600160c01b0381111561211557600080fd5b60401b811981111561212657600080fd5b01939250505056fe4f776e61626c653a206e6577206f776e657220697320746865207a65726f2061646472657373747275737420616e63686f72206d616e616765722061646472657373206d7573742062652076616c69644f776e61626c653a2063616c6c6572206973206e6f7420746865206f776e6572747275737420616e63686f722073746f726167652061646472657373206d7573742062652076616c6964a2646970667358221220c1bbe2ea6c297a8de4e5ac720543f263c3ad851fa7bf4198c6b30eb427af952f64736f6c63430007010033",
  "immutableReferences": {},
  "source": "//pragma experimental ABIEncoderV2;\npragma solidity ^0.7.1;\n//SPDX-License-Identifier: UNLICENSED\n\nimport \"./Libraries/ABDKMath64x64.sol\";\nimport \"./Libraries/SafeMath.sol\";\n\nimport \"./Interfaces/ITrustAnchorManager.sol\";\nimport \"./Interfaces/ITrustAnchorStorage.sol\";\n\nimport \"@openzeppelin/contracts/access/Ownable.sol\";\n\n/// @dev\n/// | A reference contract related to the Trust Anchor Storage's availability address component within the attestations, which is an ethereum-type address corresponding to the smart contract that manages the various economic & regulatory conditions of data transfer from a Trust Anchor to a data retriever.\n/// | Within the Trust Anchor Storage's attestation framework, the availability address is generally encrypted via symmetric AES to prevent abstracted PII from being leaked on the blockchain directly. Once revealed however, this contract and all of its storage variables are trivially linked to the attestation that sets this.\n/// |\n/// | those applying escrow need to be trust anchors\n/// | workflow looks like:\n/// |\n/// | 1) attestation is set\n/// |\n/// | 2a) managed (user gives pii-holding trust anchor permission to deal with data transfer, select targets, etc.) sets a data retrieval target (must be valid ta)\n/// |\n/// | 2b) unmanaged (user gives permission/consent to pii-holding trust anchor to transfer data to another trust anchor manually) sets a data retrieval target (must be valid ta)\n/// |\n/// | 3) destination trust anchor puts escrow funds (SHFT tokens) into this smart contract via the \"applyEscrow\" function. this specific smart contract *only* uses SHFT tokens to transfer, this can be extended by either re-linking an upgraded version of this smart contract on the trust anchor manager or extending a SHFT<->Bancor (or equivalent) token bridge.\n/// |\n/// | 4a) source trust anchor, watching this contract's events, sees that this escrow event has occurred. that means it can send its data depending on:\n/// |\n/// | 4a i) the \"contestation oracle\", an address that can sign to contest (cancel) an escrow even if the documents have been sent. This \"contestation oracle\" can be equal to address(0) (a null address, and thus no contestation oracle), or the data retrieval entity itself.\n/// |\n/// | 4a ii) the \"contestation time period\", the amount of time after the sender has triggered a \"sent the documents\" message that the predetermined oracle has to respond and perform the contestation step if they determine the quality/veracity of the documents sent are questionable.\n/// |\n/// | 4b i) source trust anchor does (an offchain) transfer of user's consented pii data, with the consented data structure available via encrypted bytes in step 2.\n/// |\n/// | 4b ii) source trust anchor triggers the \"setDataSenderDidSendDocuments\" function in the Trust Anchor Storage. This indicates the transfer of source documents, and gives the oracle (4a i) the predetermined time (4a ii) to respond to the quality of the sent documents.\n/// |\n/// | 5) destination trust anchor, having received user's pii data, confirms all of the documents transferred match the consented data structure (at this point both ta's have signed/sent at least one message to the trust anchor manager smart contract, so their public keys are available bilaterally for encrypted communications).\n/// |\n/// | 6) destination trust anchor triggers the \"dataRetrievalEntityValidateAttestation\" function in the trust anchor storage smart contract, completing the chain-of-custody relationship.\n/// |\n/// | 7a) the source trust anchor then triggers the \"settleEscrow\" function, which confirms that step 6 was performed, and releases the escrow to the source trust anchor.\n/// |\n/// | 7b) the end-user may trigger the \"settleEscrow\" function at any point after step 6.\n/// |\n/// | 8) after 30 days, the data retrieval target may cancel their escrow if the sender has not triggered the \"sent the documents\" message.\n\n//@note:@todo: escrow w/ ERC20 tokens?\n\ncontract TrustAnchorStorage_Availability is Ownable {\n    event EVT_D(uint256 accumulatedAmount);\n\n    /// @dev event for logging of an \"escrow\" struct. mostly useful for debugging purposes.\n//    event EVT_logEscrow(escrow existingEscrow);\n    /// @dev event for application of escrow by data retrieval target, including all pertinent details (things like block timestamp can be calculated offline for logging purposes).\n    event EVT_appliedEscrow(bytes32 _attestationKeccak, address currentRetrieverAddress, uint256 totalAmount, uint256 trustAnchorDataRetrievalShare);\n    /// @dev event for updating of escrow by data retrieval target, including all pertinent details (things like block timestamp can be calculated offline for logging purposes).\n    event EVT_updatedEscrow(bytes32 _attestationKeccak, address currentRetrieverAddress, uint256 totalAmount, uint256 trustAnchorDataRetrievalShare);\n    /// @dev event for successful contestation of an escrow.\n    event EVT_contestEscrow(bytes32 attestationKeccak, address dataRetrievalEntityAddress, address contestationOracleAddress);\n    /// @dev event for successful cancellation of an escrow.\n    event EVT_cancelEscrow(bytes32 attestationKeccak, address sentFrom, uint256 totalEscrowApplied);\n    /// @dev event for settlement for a recipient.\n    event EVT_settledRecipient(bytes32 attestationKeccak, address dataTargetAddress, address recipientAddress, uint256 recipientAmount, bool wasCompleted);\n\n    /// @dev using the SafeMath library for any uint256 values.\n    using SafeMath for uint256;\n    uint256 baseEscrowExpiryTime = 1 * 60 * 60 * 24 * 30; // 30 days expiry time from initial set of escrow.\n\n    /// @dev struct of the escrow components\n    struct escrow {\n        bool isActive;\n        address sentFrom;\n        uint256 totalAmount;\n        uint256 userAmount;\n        uint256 trustAnchorAmount;\n\n        address contestationOracleAddress;\n        uint256 contestationTimePeriod;\n        bool oracleDidContest;\n\n        uint256 setTimestamp;\n\n        bool hasUserSettled;\n        bool hasTrustAnchorSettled;\n\n        bool wasCompleted;\n        bool wasCancelled;\n    }\n\n    /// @dev mapping of attestation keccak to the retrieval entity to the Escrow itself. escrow = attestationEscrow[_attestationKeccak][dataRetrievalEntityAddress]\n    mapping (bytes32 => mapping(address => escrow)) attestationEscrow;\n\n    /// @dev total escrow applied (waiting for settlement based on state machine parameter).\n    uint256 totalEscrowApplied;\n\n    /// @dev mapping of the escrow applied from the data retrieval entity to the destination. escrow_ready_to_settle = escrowApplied[dataRetrievalEntityAddress][destinationAddressThatCanRedeem]\n    mapping (address => mapping(address => uint256)) escrowApplied;\n\n    /// @dev mapping of the escrow applied to the target. escrow_ready_to_settle = escrowAppliedSum[destinationAddressThatCanRedeem]\n    mapping (address => uint256) escrowAppliedSum;\n\n    /// @dev The Trust Anchor Manager address that this contract is bound to.\n    address trustAnchorManagerAddress = address(0);\n\n    /// @dev The Trust Anchor Storage address that this contract is bound to.\n    address trustAnchorStorageAddress = address(0);\n\n    /// @dev Initializes this contract with the owner set to the calling public address.\n\n    constructor() Ownable() {\n    }\n\n    /// @param _trustAnchorManagerAddress The smart contract address for the Trust Anchor Manager that should be linked.\n    /// @dev Links Trust Anchor Manager to this contract's function flow.\n    /// @return result\n    ///    | false: [ will never return false due to require() ]\n    ///    | true: trust anchor manager address set correctly\n\n    function setTrustAnchorManagerAddress(address _trustAnchorManagerAddress) public onlyOwner returns (bool result) {\n        require(_trustAnchorManagerAddress != address(0), \"trust anchor manager address must be valid\");\n\n        trustAnchorManagerAddress = _trustAnchorManagerAddress;\n\n        //trust anchor manager address set correctly\n        return true;\n    }\n\n    /// @param _trustAnchorStorageAddress The smart contract address for the Trust Anchor Storage that should be linked.\n    /// @dev Links Trust Anchor Storage to this contract's function flow.\n    /// @return result\n    ///    | false: [ will never return false due to require() ]\n    ///    | true: trust anchor storage address set correctly\n\n    function setTrustAnchorStorageAddress(address _trustAnchorStorageAddress) public onlyOwner returns (bool result) {\n        require(_trustAnchorStorageAddress != address(0), \"trust anchor storage address must be valid\");\n\n        trustAnchorStorageAddress = _trustAnchorStorageAddress;\n\n        //trust anchor storage address set correctly\n        return true;\n    }\n\n    // those applying escrow need to be trust anchors\n    // workflow looks like:\n\n    // 1) attestation is set\n    // 2a) managed (user gives pii-holding trust anchor permission to deal with data transfer, select targets, etc.) sets a data retrieval target (must be valid ta)\n    // 2b) unmanaged (user gives permission/consent to pii-holding trust anchor to transfer data to another trust anchor manually) sets a data retrieval target (must be valid ta)\n    // 3) destination trust anchor puts escrow funds (SHFT tokens) into this smart contract via the \"applyEscrow\" function. this specific smart contract *only* uses SHFT tokens to transfer, this can be extended by either re-linking an upgraded version of this smart contract on the trust anchor manager or extending a SHFT<->Bancor (or equivalent) token bridge.\n    // 4a) source trust anchor, watching this contract's events, sees that this escrow event has occurred. that means it can send its data depending on:\n    // 4a i) the \"contestation oracle\", an address that can sign to contest (cancel) an escrow even if the documents have been sent. This \"contestation oracle\" can be equal to address(0) (a null address, and thus no contestation oracle), or the data retrieval entity itself.\n    // 4a ii) the \"contestation time period\", the amount of time after the sender has triggered a \"sent the documents\" message that the predetermined oracle has to respond and perform the contestation step if they determine the quality/veracity of the documents sent are questionable.\n    // 4b i) source trust anchor does (an offchain) transfer of user's consented pii data, with the consented data structure available via encrypted bytes in step 2.\n    // 4b ii) source trust anchor triggers the \"setDataSenderDidSendDocuments\" function in the Trust Anchor Storage. This indicates the transfer of source documents, and gives the oracle (4a i) the predetermined time (4a ii) to respond to the quality of the sent documents.\n    // 5) destination trust anchor, having received user's pii data, confirms all of the documents transferred match the consented data structure (at this point both ta's have signed/sent at least one message to the trust anchor manager smart contract, so their public keys are available bilaterally for encrypted communications).\n    // 6) destination trust anchor triggers the \"dataRetrievalEntityValidateAttestation\" function in the trust anchor storage smart contract, completing the chain-of-custody relationship.\n    // 7a) the source trust anchor then triggers the \"settleEscrow\" function, which confirms that step 6 was performed, and releases the escrow to the source trust anchor.\n    // 7b) the end-user may trigger the \"settleEscrow\" function at any point after step 6.\n    // 8) after 30 days, the data retrieval target may cancel their escrow if the sender has not triggered the \"sent the documents\" message.\n\n    function applyEscrow(bytes32 _attestationKeccak, address _contestationOracleAddress, uint256 _contestationTimePeriod) public payable returns (uint8 result) {\n        ITrustAnchorManager trustAnchorManager = ITrustAnchorManager(trustAnchorManagerAddress);\n        ITrustAnchorStorage trustAnchorStorage = ITrustAnchorStorage(trustAnchorStorageAddress);\n\n        address currentRetrieverAddress = msg.sender;\n\n        // those applying escrow need to be trust anchors\n        if (trustAnchorManager.isTrustAnchorVerified(currentRetrieverAddress)) {\n            address trustAnchorAddress = trustAnchorStorage.getAttestationTrustAnchorAddress(_attestationKeccak);\n            address identifiedAddress = trustAnchorStorage.getAttestationOriginalIdentifiedAddress(_attestationKeccak);\n\n            uint256 dataRetrievalRevenueSharePercentage = trustAnchorStorage.getAttestationIdentifiedAddressToTrustAnchorDataRetrievalRevenueSharePercentage(_attestationKeccak);\n\n            // those applying escrow need to be valid data retrievers for this attestation.\n            if (trustAnchorStorage.getAttestationIsRetrievableFromRetriever(_attestationKeccak, currentRetrieverAddress)) {\n                // the user's share of revenue cannot be over 100%.\n                if (dataRetrievalRevenueSharePercentage <= 100000000) {\n                    // add the total escrow applied to the contract for bookkeeping.\n                    totalEscrowApplied = totalEscrowApplied.add(msg.value);\n\n                    // 6 decimals for the input precision (0.000001% minimum sharing = \"1\", \"1000000\" = 1.0%, \"100000000\" = 100.0%)\n                    int128 userDataRetrievalShare64x64 = ABDKMath64x64.divi(int256(dataRetrievalRevenueSharePercentage), 100000000);\n\n                    // do some fixed point math to figure out what the user's share of the assets is.\n                    uint256 userDataRetrievalShare = uint256(ABDKMath64x64.muli(userDataRetrievalShare64x64, int256(msg.value)));\n\n                    uint256 trustAnchorDataRetrievalShare = msg.value.sub(userDataRetrievalShare);\n\n                    // the trust anchor's share is the total sent (msg.value) minus the user's share.\n                    escrowApplied[currentRetrieverAddress][identifiedAddress] = escrowApplied[currentRetrieverAddress][identifiedAddress].add(userDataRetrievalShare);\n                    escrowApplied[currentRetrieverAddress][trustAnchorAddress] = escrowApplied[currentRetrieverAddress][trustAnchorAddress].add(trustAnchorDataRetrievalShare);\n\n                    escrowAppliedSum[identifiedAddress] = escrowAppliedSum[identifiedAddress].add(userDataRetrievalShare);\n                    escrowAppliedSum[trustAnchorAddress] = escrowAppliedSum[trustAnchorAddress].add(trustAnchorDataRetrievalShare);\n\n                    // get the \"escrow\" struct data pointer from storage\n                    escrow storage newEscrow = attestationEscrow[_attestationKeccak][currentRetrieverAddress];\n\n                    // in the case where an escrow for this attestation from this retrieval entity already exists, increment the escrow amount.\n                    if (newEscrow.isActive == true) {\n                        // update the amounts based on the message's value (the amount of native gas-equivalent units sent into\n                        // this contract from the data retrieval entity for the purpose of escrow.\n                        newEscrow.totalAmount = newEscrow.totalAmount.add(msg.value);\n                        newEscrow.userAmount = newEscrow.userAmount.add(userDataRetrievalShare);\n                        newEscrow.trustAnchorAmount = newEscrow.trustAnchorAmount.add(trustAnchorDataRetrievalShare);\n\n                        emit EVT_updatedEscrow(_attestationKeccak, currentRetrieverAddress, newEscrow.totalAmount, trustAnchorDataRetrievalShare);\n\n                        //escrow was updated\n                        return 4;\n                    } else {\n                        // otherwise, set this attestation's base values (ownership, timestamps, et al.)\n                        newEscrow.isActive = true;\n                        // clear the previous completion or cancellation if it already exists (re-sending data for example)\n                        newEscrow.wasCompleted = false;\n                        newEscrow.wasCancelled = false;\n\n                        newEscrow.sentFrom = currentRetrieverAddress;\n\n                        // the data retrieval entity sets these in the function initalizer, signalling to the source trust\n                        // anchors the parameters for a \"contestation\" step, where there is a limited time from signalling\n                        // \"sent\" by the sender, to the oracle (either \"none\" via address(0), another party that will manage\n                        // this relationship as a trusted third party, or the address of the data retrieval entity themselves.\n\n                        newEscrow.contestationOracleAddress = _contestationOracleAddress;\n                        newEscrow.contestationTimePeriod = _contestationTimePeriod;\n\n                        // set the original timestamp of when this attestation's escrow pool from the retrieval entity was set.\n                        newEscrow.setTimestamp = block.timestamp;\n\n                        // set the amounts based on the message's value (the amount of native gas-equivalent units sent into\n                        // this contract from the data retrieval entity for the purpose of escrow.\n                        newEscrow.totalAmount = msg.value;\n                        newEscrow.userAmount = userDataRetrievalShare;\n                        newEscrow.trustAnchorAmount = trustAnchorDataRetrievalShare;\n\n                        emit EVT_appliedEscrow(_attestationKeccak, currentRetrieverAddress, newEscrow.totalAmount, trustAnchorDataRetrievalShare);\n\n                        //escrow was set\n                        return 3;\n                    }\n                } else {\n                    // end-user's data retrieval share percentage is > 100%, this isn't valid.\n                    //@note: must revert() due to asset transactions already having occurred.\n                    revert();\n//                        return 2;\n                }\n            } else {\n                //this trust anchor does not have permission to retrieve this asset.\n                //@note: must revert() due to asset transactions already having occurred.\n                revert();\n//                    return 1;\n            }\n        } else {\n            //not a valid trust anchor\n            //@note: must revert() due to asset transactions already having occurred.\n            revert();\n//                return 0;\n        }\n    }\n\n    // there needs to be a setup where the escrow can be revoked, before the dataRetrievalEntityValidateAttestation step, but not after that step.\n\n    // there are 2 cases where escrow can be reverted:\n    // 1) if the total escrow expiry time passes (30 days), the trust anchor that set the escrow can receive it back if the sending trust anchor does not confirm they have sent the documents.\n\n    // 2) after confirming sending of the documents, there is a (24 hour) window where this receipt of the documents can be confirmed by an additional party that both trust anchors trust to perform a cancellation on the escrow (an external oracle).\n\n    function getOracleCanContestEscrow(bytes32 _attestationKeccak, address _dataRetrievalEntityAddress) public view returns (uint8 result) {\n        ITrustAnchorStorage trustAnchorStorage = ITrustAnchorStorage(trustAnchorStorageAddress);\n\n        escrow storage existingEscrow = attestationEscrow[_attestationKeccak][_dataRetrievalEntityAddress];\n\n        if (existingEscrow.isActive == true) {\n            bool canCancelEscrow = false;\n\n            if (existingEscrow.contestationOracleAddress != address(0)) {\n                //@note: for block.timestamp, any miners could not cheat in the timestamp by a tolerance of 900 seconds. so if you check outside this interval you are safe.\n                bool senderDidSendDocuments = trustAnchorStorage.getAttestationDataWasSentToRetrievalEntity(_attestationKeccak, _dataRetrievalEntityAddress);\n                uint256 sentDocumentsTimestamp = trustAnchorStorage.getAttestationDataWasSentToRetrievalEntityTimestamp(_attestationKeccak, _dataRetrievalEntityAddress);\n\n                if (senderDidSendDocuments == true && (block.timestamp <= sentDocumentsTimestamp + existingEscrow.contestationTimePeriod)) {\n                    canCancelEscrow = true;\n                }\n            }\n\n            if (canCancelEscrow == true) {\n                //oracle can cancel escrow at the current time\n                return 2;\n            } else {\n                //oracle cannot cancel escrow\n                return 1;\n            }\n        } else {\n            //escrow does not exist\n            return 0;\n        }\n    }\n\n    function contestEscrow(bytes32 _attestationKeccak, address _dataRetrievalEntityAddress) public returns (uint8 result) {\n        if (getOracleCanContestEscrow(_attestationKeccak, _dataRetrievalEntityAddress) == 2) {\n\n            escrow storage existingEscrow = attestationEscrow[_attestationKeccak][_dataRetrievalEntityAddress];\n\n            if (existingEscrow.contestationOracleAddress == msg.sender) {\n                existingEscrow.oracleDidContest = true;\n                //oracle successfully contested\n\n                emit EVT_contestEscrow(_attestationKeccak, _dataRetrievalEntityAddress, existingEscrow.contestationOracleAddress);\n\n                return 2;\n            } else {\n                //message sender is not the contestation oracle\n                return 1;\n            }\n        } else {\n            //no oracle can contest escrow\n            return 0;\n        }\n    }\n\n    function cancelEscrow(bytes32 _attestationKeccak) public returns (uint8 result) {\n        ITrustAnchorStorage trustAnchorStorage = ITrustAnchorStorage(trustAnchorStorageAddress);\n\n        address currentRetrieverAddress = msg.sender;\n\n        escrow storage existingEscrow = attestationEscrow[_attestationKeccak][currentRetrieverAddress];\n        if (existingEscrow.sentFrom == currentRetrieverAddress) {\n            address trustAnchorAddress = trustAnchorStorage.getAttestationTrustAnchorAddress(_attestationKeccak);\n            address identifiedAddress = trustAnchorStorage.getAttestationOriginalIdentifiedAddress(_attestationKeccak);\n\n            bool sourceDataWasRetrieved = trustAnchorStorage.getAttestationIsValidFromRetriever(_attestationKeccak, currentRetrieverAddress);\n\n            if (sourceDataWasRetrieved == false) {\n                //@note: for block.timestamp, any miners could not cheat in the timestamp by a tolerance of 900 seconds. so if you check outside this interval you are safe.\n                bool senderDidSendDocuments = trustAnchorStorage.getAttestationDataWasSentToRetrievalEntity(_attestationKeccak, currentRetrieverAddress);\n\n                bool senderDidNotTransmitDocumentsIn30Days = ((senderDidSendDocuments == false) && (block.timestamp > existingEscrow.setTimestamp + baseEscrowExpiryTime));\n\n                //if either the oracle explicitly cancelled the escrow, *or* the documents were not sent in 30 days, the escrow can be cancelled.\n                if (existingEscrow.oracleDidContest == true || senderDidNotTransmitDocumentsIn30Days == true) {\n                    existingEscrow.isActive = false;\n                    existingEscrow.wasCancelled = true;\n\n                    //reverts all the internal contract balances to reflect the cancellation.\n                    totalEscrowApplied = totalEscrowApplied.sub(existingEscrow.totalAmount);\n\n                    escrowApplied[currentRetrieverAddress][identifiedAddress] = escrowApplied[currentRetrieverAddress][identifiedAddress].sub(existingEscrow.userAmount);\n                    escrowApplied[currentRetrieverAddress][trustAnchorAddress] = escrowApplied[currentRetrieverAddress][trustAnchorAddress].sub(existingEscrow.trustAnchorAmount);\n\n                    escrowAppliedSum[identifiedAddress] = escrowAppliedSum[identifiedAddress].sub(existingEscrow.userAmount);\n                    escrowAppliedSum[trustAnchorAddress] = escrowAppliedSum[trustAnchorAddress].sub(existingEscrow.trustAnchorAmount);\n\n                    //sends the native gas-equivalent tokens back to the original sender of the escrow.\n\n                    //@note:@test:@internalaudit: make sure to check for double-entry issues.. I believe everything is properly closed off at the moment,\n                    // but what happens if it triggers another \"applyEscrow\".. is that an issue at all?\n\n                    emit EVT_cancelEscrow(_attestationKeccak, existingEscrow.sentFrom, totalEscrowApplied);\n\n                    (bool success, ) = existingEscrow.sentFrom.call{value: existingEscrow.totalAmount}(\"\");\n                    require(success, \"did not output correctly\");\n\n                    //escrow reverted\n                    return 3;\n                } else {\n                    //either the oracle didn't explicitly cancel the escrow (or) the time period of the document sending timeout has not occurred yet\n                    return 2;\n                }\n            } else {\n                //source data was already retrieved\n                return 1;\n            }\n        } else {\n            //not the entity that originally set the escrow\n            return 0;\n        }\n    }\n\n    ///notice: Escrow-receiving party doesn't need to be an active trust anchor, they simply need to have been a trust anchor in the past. (ie. even if they've been removed from the system, their past actions of data transmission are valid, preventing malicious extortion vectors from the upper-level trust anchor manager administrators)\n    // alternatively, the identifiedAddress (end-user) can be used to redeem their proportion of the data retrieval revenue share.\n\n    function settleEscrow(bytes32[] memory _attestationKeccaks, address[] memory _retrieverAddresses, address _outputAddress) public returns (uint8 result) {\n        ITrustAnchorStorage trustAnchorStorage = ITrustAnchorStorage(trustAnchorStorageAddress);\n\n        bool escrowWasProcessed = false;\n\n        uint256 accumulatedAmount = 0;\n\n        if (_attestationKeccaks.length == _retrieverAddresses.length) {\n            for (uint i = 0; i < _attestationKeccaks.length; i++) {\n                bytes32 curAttestationKeccak = _attestationKeccaks[i];\n                address curRetrieverAddress = _retrieverAddresses[i];\n                address trustAnchorAddress = trustAnchorStorage.getAttestationTrustAnchorAddress(curAttestationKeccak);\n                address identifiedAddress = trustAnchorStorage.getAttestationOriginalIdentifiedAddress(curAttestationKeccak);\n\n                escrow storage existingEscrow = attestationEscrow[curAttestationKeccak][curRetrieverAddress];\n//                emit EVT_logEscrow(existingEscrow);\n                if (existingEscrow.isActive == true) {\n                    //reference the attestation by the original identified address\n                    bool sourceDataWasRetrieved = trustAnchorStorage.getAttestationIsValidFromRetriever(curAttestationKeccak, curRetrieverAddress);\n\n                    bool canProcessSettlement = false;\n                    // the easiest case is that the data retrieval entity marked this document as \"valid\".\n                    if (sourceDataWasRetrieved == true) {\n                        canProcessSettlement = true;\n                    } else {\n                        // and more the more complicated one is the contestation window.. if the sender sets their \"I've sent\n                        // the source data\" message, from that point until the contestationTimePeriod ends, this escrow\n                        // cannot be \"settled\", by any party. If they haven't sent that message, the data retrieval entity\n                        // can cancel the escrow 30 days after first setting it.\n\n                        // data retrieval entities will never process a \"valid\" source document transfer while in a contestation\n                        // phase unless they do not wish to activate the arbitration.\n\n                        uint256 sentDocumentsTimestamp = trustAnchorStorage.getAttestationDataWasSentToRetrievalEntityTimestamp(curAttestationKeccak, curRetrieverAddress);\n                        if (sentDocumentsTimestamp > 0) {\n                            uint256 settlementWindow = 0;\n\n                            if (existingEscrow.contestationOracleAddress != address(0)) {\n                                settlementWindow = existingEscrow.contestationTimePeriod;\n                            }\n\n                            if (block.timestamp > sentDocumentsTimestamp + settlementWindow) {\n                                canProcessSettlement = true;\n                            }\n                        }\n                    }\n\n                    if (canProcessSettlement == true) {\n                        bool processUser = false;\n                        bool processTrustAnchor = false;\n\n                        if (msg.sender == identifiedAddress) {\n                            if (existingEscrow.hasUserSettled == false) {\n                                processUser = true;\n                            }\n                        }\n\n                        if (msg.sender == trustAnchorAddress) {\n                            if (existingEscrow.hasTrustAnchorSettled == false) {\n                                processTrustAnchor = true;\n                            }\n                        }\n\n                        if (processUser == true) {\n                            //output the end user's escrow amount to their identified address.\n                            accumulatedAmount = accumulatedAmount.add(existingEscrow.userAmount);\n\n                            //reduce total escrow values by the amount redeemed\n                            escrowApplied[curRetrieverAddress][identifiedAddress] = escrowApplied[curRetrieverAddress][identifiedAddress].sub(existingEscrow.userAmount);\n                            escrowAppliedSum[identifiedAddress] = escrowAppliedSum[identifiedAddress].sub(existingEscrow.userAmount);\n\n                            totalEscrowApplied = totalEscrowApplied.sub(existingEscrow.userAmount);\n\n                            existingEscrow.hasUserSettled = true;\n\n                            if (existingEscrow.hasTrustAnchorSettled == true) {\n                                existingEscrow.wasCompleted = true;\n                                existingEscrow.isActive = false;\n                            }\n\n                            emit EVT_settledRecipient(curAttestationKeccak, curRetrieverAddress, identifiedAddress, existingEscrow.userAmount, existingEscrow.wasCompleted);\n                        }\n\n                        if (processTrustAnchor == true) {\n                            //output the trust anchor's escrow amount to their trust anchor address.\n                            accumulatedAmount = accumulatedAmount.add(existingEscrow.trustAnchorAmount);\n\n                            //reduce total escrow values by the amount redeemed\n                            escrowApplied[curRetrieverAddress][trustAnchorAddress] = escrowApplied[curRetrieverAddress][trustAnchorAddress].sub(existingEscrow.trustAnchorAmount);\n                            escrowAppliedSum[trustAnchorAddress] = escrowAppliedSum[trustAnchorAddress].sub(existingEscrow.trustAnchorAmount);\n\n                            totalEscrowApplied = totalEscrowApplied.sub(existingEscrow.trustAnchorAmount);\n\n                            existingEscrow.hasTrustAnchorSettled = true;\n\n                            if (existingEscrow.hasUserSettled == true) {\n                                existingEscrow.wasCompleted = true;\n                                existingEscrow.isActive = false;\n                            }\n\n                            emit EVT_settledRecipient(curAttestationKeccak, curRetrieverAddress, trustAnchorAddress, existingEscrow.trustAnchorAmount, existingEscrow.wasCompleted);\n                        }\n\n                        if (processTrustAnchor == true || processUser == true) {\n                            //redeemed escrow amount\n                            escrowWasProcessed = true;\n                            continue;\n                        } else {\n                            //escrow not redeemed\n                            continue;\n                        }\n                    } else {\n                        //cannot process settlement (source data not sent, or contestation period still in effect)\n                        continue;\n                    }\n                } else {\n                    //escrow is not active for this attestation and receiver\n                    continue;\n                }\n            }\n\n            emit EVT_D(accumulatedAmount);\n\n            if (escrowWasProcessed == true) {\n                // send the accumulated amount to the output address.\n                (bool success, ) = _outputAddress.call{value: accumulatedAmount}(\"\");\n                require(success, \"did not output correctly\");\n\n                //escrow was processed for input parameters\n                return 2;\n            } else {\n                //no escrow processed for input parameters\n                return 1;\n            }\n        } else {\n            //length of attestations array is not identical to the length of the retriever addresses array\n            return 0;\n        }\n    }\n\n    function getEscrow(bytes32 _attestationKeccak, address _dataRetrievalEntityAddress) public view returns (address sentFrom, uint256 totalAmount, uint256 userAmount, uint256 trustAnchorAmount, address contestationOracleAddress, uint256 contestationTimePeriod, uint256 setTimestamp, bool wasCompleted, bool wasCancelled) {\n        escrow storage existingEscrow = attestationEscrow[_attestationKeccak][_dataRetrievalEntityAddress];\n\n        return (existingEscrow.sentFrom,\n                existingEscrow.totalAmount,\n                existingEscrow.userAmount,\n                existingEscrow.trustAnchorAmount,\n                existingEscrow.contestationOracleAddress,\n                existingEscrow.contestationTimePeriod,\n                existingEscrow.setTimestamp,\n                existingEscrow.wasCompleted,\n                existingEscrow.wasCancelled);\n    }\n\n    function getEscrowBalanceFromRetriever(address _dataRetrievalEntityAddress, address _escrowRecipientAddress) public view returns (uint256 balance) {\n        return escrowApplied[_dataRetrievalEntityAddress][_escrowRecipientAddress];\n    }\n\n    function getEscrowBalanceSum(address _escrowRecipientAddress) public view returns (uint256 balance) {\n        return escrowAppliedSum[_escrowRecipientAddress];\n    }\n\n    function getBaseEscrowExpiryTime() public view returns (uint256 timeAmount) {\n        return baseEscrowExpiryTime;\n    }\n}\n",
  "sourcePath": "/home/ubuntu/shyft_shyftcorecontracts/contracts/TrustAnchorStorage_Availability.sol",
  "compiler": {
    "name": "solc",
    "version": "0.7.1+commit.f4a555be.Emscripten.clang"
  },
  "schemaVersion": "3.4.5",
  "updatedAt": "2022-02-22T18:34:31.235Z",
  "networkType": "ethereum",
  "devdoc": {
    "details": "| A reference contract related to the Trust Anchor Storage's availability address component within the attestations, which is an ethereum-type address corresponding to the smart contract that manages the various economic & regulatory conditions of data transfer from a Trust Anchor to a data retriever. | Within the Trust Anchor Storage's attestation framework, the availability address is generally encrypted via symmetric AES to prevent abstracted PII from being leaked on the blockchain directly. Once revealed however, this contract and all of its storage variables are trivially linked to the attestation that sets this. | | those applying escrow need to be trust anchors | workflow looks like: | | 1) attestation is set | | 2a) managed (user gives pii-holding trust anchor permission to deal with data transfer, select targets, etc.) sets a data retrieval target (must be valid ta) | | 2b) unmanaged (user gives permission/consent to pii-holding trust anchor to transfer data to another trust anchor manually) sets a data retrieval target (must be valid ta) | | 3) destination trust anchor puts escrow funds (SHFT tokens) into this smart contract via the \"applyEscrow\" function. this specific smart contract *only* uses SHFT tokens to transfer, this can be extended by either re-linking an upgraded version of this smart contract on the trust anchor manager or extending a SHFT<->Bancor (or equivalent) token bridge. | | 4a) source trust anchor, watching this contract's events, sees that this escrow event has occurred. that means it can send its data depending on: | | 4a i) the \"contestation oracle\", an address that can sign to contest (cancel) an escrow even if the documents have been sent. This \"contestation oracle\" can be equal to address(0) (a null address, and thus no contestation oracle), or the data retrieval entity itself. | | 4a ii) the \"contestation time period\", the amount of time after the sender has triggered a \"sent the documents\" message that the predetermined oracle has to respond and perform the contestation step if they determine the quality/veracity of the documents sent are questionable. | | 4b i) source trust anchor does (an offchain) transfer of user's consented pii data, with the consented data structure available via encrypted bytes in step 2. | | 4b ii) source trust anchor triggers the \"setDataSenderDidSendDocuments\" function in the Trust Anchor Storage. This indicates the transfer of source documents, and gives the oracle (4a i) the predetermined time (4a ii) to respond to the quality of the sent documents. | | 5) destination trust anchor, having received user's pii data, confirms all of the documents transferred match the consented data structure (at this point both ta's have signed/sent at least one message to the trust anchor manager smart contract, so their public keys are available bilaterally for encrypted communications). | | 6) destination trust anchor triggers the \"dataRetrievalEntityValidateAttestation\" function in the trust anchor storage smart contract, completing the chain-of-custody relationship. | | 7a) the source trust anchor then triggers the \"settleEscrow\" function, which confirms that step 6 was performed, and releases the escrow to the source trust anchor. | | 7b) the end-user may trigger the \"settleEscrow\" function at any point after step 6. | | 8) after 30 days, the data retrieval target may cancel their escrow if the sender has not triggered the \"sent the documents\" message.",
    "events": {
      "EVT_appliedEscrow(bytes32,address,uint256,uint256)": {
        "details": "event for application of escrow by data retrieval target, including all pertinent details (things like block timestamp can be calculated offline for logging purposes)."
      },
      "EVT_cancelEscrow(bytes32,address,uint256)": {
        "details": "event for successful cancellation of an escrow."
      },
      "EVT_contestEscrow(bytes32,address,address)": {
        "details": "event for successful contestation of an escrow."
      },
      "EVT_settledRecipient(bytes32,address,address,uint256,bool)": {
        "details": "event for settlement for a recipient."
      },
      "EVT_updatedEscrow(bytes32,address,uint256,uint256)": {
        "details": "event for updating of escrow by data retrieval target, including all pertinent details (things like block timestamp can be calculated offline for logging purposes)."
      }
    },
    "kind": "dev",
    "methods": {
      "constructor": {
        "details": "Initializes this contract with the owner set to the calling public address."
      },
      "owner()": {
        "details": "Returns the address of the current owner."
      },
      "renounceOwnership()": {
        "details": "Leaves the contract without owner. It will not be possible to call `onlyOwner` functions anymore. Can only be called by the current owner. NOTE: Renouncing ownership will leave the contract without an owner, thereby removing any functionality that is only available to the owner."
      },
      "setTrustAnchorManagerAddress(address)": {
        "details": "Links Trust Anchor Manager to this contract's function flow.",
        "params": {
          "_trustAnchorManagerAddress": "The smart contract address for the Trust Anchor Manager that should be linked."
        },
        "returns": {
          "result": "   | false: [ will never return false due to require() ]    | true: trust anchor manager address set correctly"
        }
      },
      "setTrustAnchorStorageAddress(address)": {
        "details": "Links Trust Anchor Storage to this contract's function flow.",
        "params": {
          "_trustAnchorStorageAddress": "The smart contract address for the Trust Anchor Storage that should be linked."
        },
        "returns": {
          "result": "   | false: [ will never return false due to require() ]    | true: trust anchor storage address set correctly"
        }
      },
      "transferOwnership(address)": {
        "details": "Transfers ownership of the contract to a new account (`newOwner`). Can only be called by the current owner."
      }
    },
    "stateVariables": {
      "attestationEscrow": {
        "details": "mapping of attestation keccak to the retrieval entity to the Escrow itself. escrow = attestationEscrow[_attestationKeccak][dataRetrievalEntityAddress]"
      },
      "escrowApplied": {
        "details": "mapping of the escrow applied from the data retrieval entity to the destination. escrow_ready_to_settle = escrowApplied[dataRetrievalEntityAddress][destinationAddressThatCanRedeem]"
      },
      "escrowAppliedSum": {
        "details": "mapping of the escrow applied to the target. escrow_ready_to_settle = escrowAppliedSum[destinationAddressThatCanRedeem]"
      },
      "totalEscrowApplied": {
        "details": "total escrow applied (waiting for settlement based on state machine parameter)."
      },
      "trustAnchorManagerAddress": {
        "details": "The Trust Anchor Manager address that this contract is bound to."
      },
      "trustAnchorStorageAddress": {
        "details": "The Trust Anchor Storage address that this contract is bound to."
      }
    },
    "version": 1
  },
  "userdoc": {
    "kind": "user",
    "methods": {
      "settleEscrow(bytes32[],address[],address)": {
        "notice": "notice: Escrow-receiving party doesn't need to be an active trust anchor, they simply need to have been a trust anchor in the past. (ie. even if they've been removed from the system, their past actions of data transmission are valid, preventing malicious extortion vectors from the upper-level trust anchor manager administrators)"
      }
    },
    "version": 1
  }
}