{
  "contractName": "TrustAnchorManager",
  "abi": [
    {
      "inputs": [],
      "stateMutability": "nonpayable",
      "type": "constructor"
    },
    {
      "anonymous": false,
      "inputs": [
        {
          "indexed": false,
          "internalType": "address",
          "name": "_admin",
          "type": "address"
        }
      ],
      "name": "EVT_AdminPromoted",
      "type": "event"
    },
    {
      "anonymous": false,
      "inputs": [
        {
          "indexed": false,
          "internalType": "address",
          "name": "_admin",
          "type": "address"
        }
      ],
      "name": "EVT_AdminRevoked",
      "type": "event"
    },
    {
      "anonymous": false,
      "inputs": [
        {
          "indexed": false,
          "internalType": "uint16",
          "name": "jurisdiction",
          "type": "uint16"
        },
        {
          "indexed": false,
          "internalType": "address",
          "name": "trustAnchorAddress",
          "type": "address"
        }
      ],
      "name": "EVT_GettingJurisdictionFromTrustAnchor",
      "type": "event"
    },
    {
      "anonymous": false,
      "inputs": [
        {
          "indexed": false,
          "internalType": "address",
          "name": "trustAnchorAddress",
          "type": "address"
        }
      ],
      "name": "EVT_JurisdictionDoesRequireChange",
      "type": "event"
    },
    {
      "anonymous": false,
      "inputs": [
        {
          "indexed": false,
          "internalType": "address",
          "name": "_admin",
          "type": "address"
        }
      ],
      "name": "EVT_PrimaryAdminAdded",
      "type": "event"
    },
    {
      "anonymous": false,
      "inputs": [
        {
          "indexed": false,
          "internalType": "address",
          "name": "trustAnchorAddress",
          "type": "address"
        }
      ],
      "name": "EVT_onboardTrustAnchor",
      "type": "event"
    },
    {
      "anonymous": false,
      "inputs": [
        {
          "indexed": false,
          "internalType": "address",
          "name": "genericExtraDataAddress",
          "type": "address"
        }
      ],
      "name": "EVT_setGenericTrustAnchorExtraDataAddress",
      "type": "event"
    },
    {
      "anonymous": false,
      "inputs": [
        {
          "indexed": false,
          "internalType": "address",
          "name": "trustAnchorAddress",
          "type": "address"
        },
        {
          "indexed": false,
          "internalType": "address",
          "name": "uniqueExtraDataAddress",
          "type": "address"
        }
      ],
      "name": "EVT_setUniqueTrustAnchorExtraDataAddress",
      "type": "event"
    },
    {
      "anonymous": false,
      "inputs": [
        {
          "indexed": false,
          "internalType": "address",
          "name": "trustAnchorAddress",
          "type": "address"
        }
      ],
      "name": "EVT_verifyTrustAnchor",
      "type": "event"
    },
    {
      "inputs": [
        {
          "internalType": "uint32",
          "name": "_proposalIndex",
          "type": "uint32"
        }
      ],
      "name": "changeCurrentAdminConfirmationThreshold",
      "outputs": [
        {
          "internalType": "uint8",
          "name": "result",
          "type": "uint8"
        }
      ],
      "stateMutability": "nonpayable",
      "type": "function"
    },
    {
      "inputs": [
        {
          "internalType": "address",
          "name": "_administratorAddress",
          "type": "address"
        }
      ],
      "name": "getAdminAccess",
      "outputs": [
        {
          "internalType": "enum Administrable.AdministratorAccess",
          "name": "result",
          "type": "uint8"
        }
      ],
      "stateMutability": "view",
      "type": "function",
      "constant": true
    },
    {
      "inputs": [
        {
          "internalType": "uint32",
          "name": "_proposalIndex",
          "type": "uint32"
        }
      ],
      "name": "getAdminConfirmationProposal",
      "outputs": [
        {
          "internalType": "uint256",
          "name": "adminThreshold",
          "type": "uint256"
        },
        {
          "internalType": "uint256",
          "name": "endTime",
          "type": "uint256"
        },
        {
          "internalType": "bool",
          "name": "isCompleted",
          "type": "bool"
        }
      ],
      "stateMutability": "view",
      "type": "function",
      "constant": true
    },
    {
      "inputs": [],
      "name": "getAdminConfirmationThreshold",
      "outputs": [
        {
          "internalType": "uint256",
          "name": "results",
          "type": "uint256"
        }
      ],
      "stateMutability": "view",
      "type": "function",
      "constant": true
    },
    {
      "inputs": [],
      "name": "getNumAdminConfirmationProposals",
      "outputs": [
        {
          "internalType": "uint256",
          "name": "result",
          "type": "uint256"
        }
      ],
      "stateMutability": "view",
      "type": "function",
      "constant": true
    },
    {
      "inputs": [
        {
          "internalType": "bytes32",
          "name": "_keyKeccak",
          "type": "bytes32"
        }
      ],
      "name": "getPermissionsForMultisignKey",
      "outputs": [
        {
          "internalType": "uint256",
          "name": "result",
          "type": "uint256"
        }
      ],
      "stateMutability": "view",
      "type": "function",
      "constant": true
    },
    {
      "inputs": [
        {
          "internalType": "address",
          "name": "_administratorAddress",
          "type": "address"
        }
      ],
      "name": "isAdministrator",
      "outputs": [
        {
          "internalType": "bool",
          "name": "result",
          "type": "bool"
        }
      ],
      "stateMutability": "view",
      "type": "function",
      "constant": true
    },
    {
      "inputs": [
        {
          "internalType": "uint256",
          "name": "_confirmationNumber",
          "type": "uint256"
        }
      ],
      "name": "isConfirmationsIsOverThreshold",
      "outputs": [
        {
          "internalType": "bool",
          "name": "result",
          "type": "bool"
        }
      ],
      "stateMutability": "view",
      "type": "function",
      "constant": true
    },
    {
      "inputs": [],
      "name": "numAdministrators",
      "outputs": [
        {
          "internalType": "uint256",
          "name": "",
          "type": "uint256"
        }
      ],
      "stateMutability": "view",
      "type": "function",
      "constant": true
    },
    {
      "inputs": [],
      "name": "owner",
      "outputs": [
        {
          "internalType": "address",
          "name": "",
          "type": "address"
        }
      ],
      "stateMutability": "view",
      "type": "function",
      "constant": true
    },
    {
      "inputs": [
        {
          "internalType": "address",
          "name": "_newAdministratorAddress",
          "type": "address"
        }
      ],
      "name": "promoteAdministrator",
      "outputs": [
        {
          "internalType": "uint8",
          "name": "result",
          "type": "uint8"
        }
      ],
      "stateMutability": "nonpayable",
      "type": "function"
    },
    {
      "inputs": [
        {
          "internalType": "uint256",
          "name": "_newThreshold",
          "type": "uint256"
        }
      ],
      "name": "proposeChangeCurrentAdminConfirmationThreshold",
      "outputs": [
        {
          "internalType": "uint8",
          "name": "result",
          "type": "uint8"
        }
      ],
      "stateMutability": "nonpayable",
      "type": "function"
    },
    {
      "inputs": [
        {
          "internalType": "address",
          "name": "_revokeAdministratorAddress",
          "type": "address"
        }
      ],
      "name": "revokeAdministrator",
      "outputs": [
        {
          "internalType": "uint8",
          "name": "result",
          "type": "uint8"
        }
      ],
      "stateMutability": "nonpayable",
      "type": "function"
    },
    {
      "inputs": [
        {
          "internalType": "address",
          "name": "_newAdministratorAddress",
          "type": "address"
        }
      ],
      "name": "setPrimaryAdministrator",
      "outputs": [
        {
          "internalType": "uint8",
          "name": "result",
          "type": "uint8"
        }
      ],
      "stateMutability": "nonpayable",
      "type": "function"
    },
    {
      "inputs": [],
      "name": "shyftConduitAddress",
      "outputs": [
        {
          "internalType": "address",
          "name": "",
          "type": "address"
        }
      ],
      "stateMutability": "view",
      "type": "function",
      "constant": true
    },
    {
      "inputs": [
        {
          "internalType": "address",
          "name": "_shyftConduitAddress",
          "type": "address"
        }
      ],
      "name": "setupShyftConduit",
      "outputs": [
        {
          "internalType": "uint8",
          "name": "result",
          "type": "uint8"
        }
      ],
      "stateMutability": "nonpayable",
      "type": "function"
    },
    {
      "inputs": [
        {
          "internalType": "address",
          "name": "_trustAnchorAddress",
          "type": "address"
        }
      ],
      "name": "onboardTrustAnchor",
      "outputs": [
        {
          "internalType": "uint8",
          "name": "result",
          "type": "uint8"
        }
      ],
      "stateMutability": "nonpayable",
      "type": "function"
    },
    {
      "inputs": [
        {
          "internalType": "address",
          "name": "_trustAnchorAddress",
          "type": "address"
        }
      ],
      "name": "verifyTrustAnchor",
      "outputs": [
        {
          "internalType": "uint8",
          "name": "result",
          "type": "uint8"
        }
      ],
      "stateMutability": "nonpayable",
      "type": "function"
    },
    {
      "inputs": [
        {
          "internalType": "address",
          "name": "_trustAnchorAddress",
          "type": "address"
        }
      ],
      "name": "demoteTrustAnchor",
      "outputs": [
        {
          "internalType": "uint8",
          "name": "result",
          "type": "uint8"
        }
      ],
      "stateMutability": "nonpayable",
      "type": "function"
    },
    {
      "inputs": [
        {
          "internalType": "address",
          "name": "_trustAnchorAddress",
          "type": "address"
        }
      ],
      "name": "isTrustAnchorVerified",
      "outputs": [
        {
          "internalType": "bool",
          "name": "result",
          "type": "bool"
        }
      ],
      "stateMutability": "view",
      "type": "function",
      "constant": true
    },
    {
      "inputs": [
        {
          "internalType": "address",
          "name": "_trustAnchorAddress",
          "type": "address"
        }
      ],
      "name": "hasTrustAnchorBeenVerified",
      "outputs": [
        {
          "internalType": "bool",
          "name": "result",
          "type": "bool"
        }
      ],
      "stateMutability": "view",
      "type": "function",
      "constant": true
    },
    {
      "inputs": [
        {
          "internalType": "address",
          "name": "_trustAnchorAddress",
          "type": "address"
        }
      ],
      "name": "getTrustAnchorIndex",
      "outputs": [
        {
          "internalType": "uint32",
          "name": "result",
          "type": "uint32"
        }
      ],
      "stateMutability": "view",
      "type": "function",
      "constant": true
    },
    {
      "inputs": [
        {
          "internalType": "uint32",
          "name": "_trustAnchorIndex",
          "type": "uint32"
        }
      ],
      "name": "getTrustAnchorAddress",
      "outputs": [
        {
          "internalType": "address",
          "name": "result",
          "type": "address"
        }
      ],
      "stateMutability": "view",
      "type": "function",
      "constant": true
    },
    {
      "inputs": [
        {
          "internalType": "uint16",
          "name": "_newJurisdiction",
          "type": "uint16"
        }
      ],
      "name": "setupTrustAnchorJurisdiction",
      "outputs": [
        {
          "internalType": "uint8",
          "name": "result",
          "type": "uint8"
        }
      ],
      "stateMutability": "nonpayable",
      "type": "function"
    },
    {
      "inputs": [
        {
          "internalType": "address",
          "name": "_trustAnchorAddress",
          "type": "address"
        }
      ],
      "name": "approveChange",
      "outputs": [
        {
          "internalType": "uint8",
          "name": "result",
          "type": "uint8"
        }
      ],
      "stateMutability": "nonpayable",
      "type": "function"
    },
    {
      "inputs": [
        {
          "internalType": "address",
          "name": "_trustAnchorAddress",
          "type": "address"
        }
      ],
      "name": "getTrustAnchorJurisdiction",
      "outputs": [
        {
          "internalType": "uint16",
          "name": "result",
          "type": "uint16"
        }
      ],
      "stateMutability": "nonpayable",
      "type": "function"
    },
    {
      "inputs": [
        {
          "internalType": "address",
          "name": "_genericExtraDataAddress",
          "type": "address"
        }
      ],
      "name": "setGenericTrustAnchorExtraDataAddress",
      "outputs": [
        {
          "internalType": "uint8",
          "name": "result",
          "type": "uint8"
        }
      ],
      "stateMutability": "nonpayable",
      "type": "function"
    },
    {
      "inputs": [],
      "name": "getGenericTrustAnchorExtraDataAddress",
      "outputs": [
        {
          "internalType": "address",
          "name": "result",
          "type": "address"
        }
      ],
      "stateMutability": "view",
      "type": "function",
      "constant": true
    },
    {
      "inputs": [
        {
          "internalType": "address",
          "name": "_uniqueExtraDataAddress",
          "type": "address"
        }
      ],
      "name": "setUniqueTrustAnchorExtraDataAddress",
      "outputs": [
        {
          "internalType": "uint8",
          "name": "result",
          "type": "uint8"
        }
      ],
      "stateMutability": "nonpayable",
      "type": "function"
    },
    {
      "inputs": [
        {
          "internalType": "address",
          "name": "_trustAnchorAddress",
          "type": "address"
        }
      ],
      "name": "getUniqueTrustAnchorExtraDataAddress",
      "outputs": [
        {
          "internalType": "address",
          "name": "result",
          "type": "address"
        }
      ],
      "stateMutability": "view",
      "type": "function",
      "constant": true
    },
    {
      "inputs": [
        {
          "internalType": "address",
          "name": "_primeRevocationManagerAddress",
          "type": "address"
        }
      ],
      "name": "isPrimeRevocationManager",
      "outputs": [
        {
          "internalType": "bool",
          "name": "result",
          "type": "bool"
        }
      ],
      "stateMutability": "nonpayable",
      "type": "function"
    }
  ],
  "bytecode": "0x60806040526002600055600d80546001600160a01b0319908116909155600f8054909116905534801561003157600080fd5b5060018054336001600160a01b03199182168117909116179055611be18061005a6000396000f3fe608060405234801561001057600080fd5b50600436106101e45760003560e01c80637fd60c5c1161010f578063d26d983a116100a2578063f3e512d311610071578063f3e512d3146105fe578063f3fc05f414610606578063f7e7c4901461062c578063f8ad840714610649576101e4565b8063d26d983a1461054e578063d9af51e314610574578063dcdfe327146105bb578063e9977096146105e1576101e4565b80639528d270116100de5780639528d270146104b9578063b4d7d11d146104df578063b9568dd814610505578063c4ebf5df14610528576101e4565b80637fd60c5c1461046057806389e81ee7146104685780638da5cb5b1461048e57806394f24df414610496576101e4565b806348eb69d51161018757806368878cde1161015657806368878cde146103d25780636efc25c8146103f35780637899320f146104325780637a303a9c14610458576101e4565b806348eb69d51461034557806349d222501461036957806350a9101814610386578063512f3d65146103ac576101e4565b806323dfe730116101c357806323dfe730146102a257806325b953b3146102c85780633370426d146103055780634402bba31461031f576101e4565b8062913af6146101e9578063064ad7c21461022c5780630a2eb30114610268575b600080fd5b61020c600480360360208110156101ff57600080fd5b503563ffffffff1661066f565b604080519384526020840192909252151582820152519081900360600190f35b6102526004803603602081101561024257600080fd5b50356001600160a01b03166106f6565b6040805160ff9092168252519081900360200190f35b61028e6004803603602081101561027e57600080fd5b50356001600160a01b031661079a565b604080519115158252519081900360200190f35b610252600480360360208110156102b857600080fd5b50356001600160a01b03166107d5565b6102ee600480360360208110156102de57600080fd5b50356001600160a01b0316610a38565b6040805161ffff9092168252519081900360200190f35b61030d610ab2565b60408051918252519081900360200190f35b6102526004803603602081101561033557600080fd5b50356001600160a01b0316610ab8565b61034d610c8c565b604080516001600160a01b039092168252519081900360200190f35b6102526004803603602081101561037f57600080fd5b5035610c9b565b6102526004803603602081101561039c57600080fd5b50356001600160a01b0316610d7d565b61028e600480360360208110156103c257600080fd5b50356001600160a01b0316610f77565b610252600480360360208110156103e857600080fd5b503561ffff16611028565b6104196004803603602081101561040957600080fd5b50356001600160a01b03166110da565b6040805163ffffffff9092168252519081900360200190f35b6102526004803603602081101561044857600080fd5b50356001600160a01b03166110fb565b61030d6111cf565b61034d6111d5565b6102526004803603602081101561047e57600080fd5b50356001600160a01b03166111e4565b61034d6112bf565b61034d600480360360208110156104ac57600080fd5b503563ffffffff166112ce565b610252600480360360208110156104cf57600080fd5b50356001600160a01b03166112ef565b610252600480360360208110156104f557600080fd5b50356001600160a01b0316611418565b6102526004803603602081101561051b57600080fd5b503563ffffffff16611471565b6102526004803603602081101561053e57600080fd5b50356001600160a01b0316611630565b6102526004803603602081101561056457600080fd5b50356001600160a01b0316611713565b61059a6004803603602081101561058a57600080fd5b50356001600160a01b03166117a9565b604051808260028111156105aa57fe5b815260200191505060405180910390f35b61034d600480360360208110156105d157600080fd5b50356001600160a01b03166117c7565b61028e600480360360208110156105f757600080fd5b50356117e5565b61030d6117f7565b61028e6004803603602081101561061c57600080fd5b50356001600160a01b03166117fd565b61030d6004803603602081101561064257600080fd5b5035611829565b61028e6004803603602081101561065f57600080fd5b50356001600160a01b031661184e565b600080600060068463ffffffff168154811061068757fe5b90600052602060002090600302016000015460068563ffffffff16815481106106ac57fe5b90600052602060002090600302016001015460068663ffffffff16815481106106d157fe5b6000918252602090912060026003909202010154919450925060ff1690509193909250565b6001546000906001600160a01b031633141561079157600354610789576001600160a01b038216600090815260026020526040902080546001919060ff191682800217905550600380546001019055604080516001600160a01b038416815290517f1767f5d6fdb0884c185778bf3ba4d303dc6af28da0798c96577f7c5450631d8b9181900360200190a1506002610795565b506001610795565b5060005b919050565b600060016001600160a01b03831660009081526002602081905260409091205460ff16908111156107c757fe5b141561079157506001610795565b60006107e03361079a565b156107915760016001600160a01b03831660009081526002602081905260409091205460ff169081111561081057fe5b1461078957600260035410610985576040805173383937b6b7ba32a0b236b4b734b9ba3930ba37b960611b6020808301919091526001600160601b0319606086901b1660348301528251602881840301815260489092019092528051910120600061087a82611829565b905060008054821061088e575060016108ab565b600061089984611894565b905060005481106108a957600191505b505b60018115151415610979576001600160a01b0385166000908152600260205260409020805460ff191660019081179091556003805490910190556108ee8361199e565b50610931426040516020018080671c1c9bdb5bdd195960c21b81525060080182815260200191505060405160208183030381529060405280519060200120611a9d565b604080516001600160a01b038716815290517f7f477eb04f5a964ab231fdc42872d9356c3010171ed2c961d9166f49239786979181900360200190a160029350505050610795565b60039350505050610795565b6001600160a01b038216600090815260026020908152604091829020805460ff191660019081179091556003805490910190558151671c1c9bdb5bdd195960c21b818301524260288083019190915283518083039091018152604890910190925281519101206109f490611a9d565b604080516001600160a01b038416815290517f7f477eb04f5a964ab231fdc42872d9356c3010171ed2c961d9166f49239786979181900360200190a1506002610795565b6001600160a01b0381166000818152600b6020908152604080832054815161ffff909116815291820193909352825191927f6f09dfd97060366f89eddd6c6d9673457fed4f97f4da23994acbb845bdb32d5392918290030190a1506001600160a01b03166000908152600b602052604090205461ffff1690565b60065490565b6000610ac33361079a565b156107915760016001600160a01b03831660009081526002602081905260409091205460ff1690811115610af357fe5b141561078957604080517f61646d696e697374726174696f6e5265766f636174696f6e566f7465000000006020808301919091526001600160601b0319606086901b16603c83015282516030818403018152605090920190925280519101206000610b5d82611829565b9050600080548210610b7157506001610b8e565b6000610b7c84611894565b90506000548110610b8c57600191505b505b60018115151415610c80576001600160a01b038516600090815260026020818152604092839020805460ff1916909217909155600380546000190190558151661c995d9bdad95960ca1b81830152426027808301919091528351808303909101815260479091019092528151910120610c0690611a9d565b6000546003541015610c2e5760026003541115610c2857600354600055610c2e565b60026000555b610c378361199e565b50604080516001600160a01b038716815290517f79830203ee788345fbc4b7afa193ed483738eaecd94975fa1fa50c09c9a5be1f9181900360200190a160039350505050610795565b60029350505050610795565b600d546001600160a01b031690565b6000610ca63361079a565b1561079157600082118015610cbd57506003548211155b1561078957610cca611b06565b828152426202a30001602082019081526006805460018101825560009190915282517ff652222313e28459528d920b65115c16c04f3efc82aaedc97be59f3f377c0d3f60039092029182015590517ff652222313e28459528d920b65115c16c04f3efc82aaedc97be59f3f377c0d408201556040909101517ff652222313e28459528d920b65115c16c04f3efc82aaedc97be59f3f377c0d41909101805460ff1916911515919091179055506002610795565b6000610d883361079a565b156107915760408051703b32b934b33caa393ab9ba20b731b437b960791b6020808301919091526001600160601b0319606086901b16603183015282516025818403018152604590920190925280519101206000610de582611894565b90506000548110610f6c5760016001600160a01b03851660009081526007602052604090205460ff166003811115610e1957fe5b1480610e4b575060036001600160a01b03851660009081526007602052604090205460ff166003811115610e4957fe5b145b15610f57576001600160a01b0384166000908152600760209081526040808320805460ff19166002179055600b8252808320805461ffff61ffff19909116179055600890915290205463ffffffff16610f0657600a805463ffffffff808216600101811663ffffffff19928316178084556001600160a01b0388166000818152600860209081526040808320805490971694861694909417909555945490921684526009909252912080546001600160a01b03191690911790555b610f0f8261199e565b50604080516001600160a01b038616815290517f29733ffc55579118aff1ed22c814f7b85132d50c71172d0c2c07d8572d8009f79181900360200190a1600392505050610795565b610f608261199e565b50600292505050610795565b600192505050610795565b600f546000906001600160a01b0316801580159061100f5750806001600160a01b031663512f3d65846040518263ffffffff1660e01b815260040180826001600160a01b0316815260200191505060206040518083038186803b158015610fdd57600080fd5b505afa158015610ff1573d6000803e3d6000fd5b505050506040513d602081101561100757600080fd5b505115156001145b1561101e576001915050610795565b6000915050610795565b6000611033336117fd565b15156001141561079157336000908152600b602052604090205461ffff908116141561107f5750336000908152600b60205260409020805461ffff191661ffff83161790556002610795565b336000818152600c6020908152604091829020805461ffff191661ffff8716179055815192835290517f84548859412b54336f26dc5c85182cd2a4328a6203d88a9d259944c80f90328e9281900390910190a1506001610795565b6001600160a01b031660009081526008602052604090205463ffffffff1690565b60006111063361079a565b15610791576001600160a01b0382166000908152600b602052604090205461ffff1615610789576001600160a01b0382166000908152600c602052604090205461ffff161580159061118357506001600160a01b0382166000908152600b6020908152604080832054600c9092529091205461ffff908116911614155b156111c757506001600160a01b0381166000908152600c6020908152604080832054600b909252909120805461ffff191661ffff9092169190911790556003610795565b506002610795565b60005490565b600f546001600160a01b031681565b60006111ef3361079a565b156107915760408051703232b6b7ba32aa393ab9ba20b731b437b960791b6020808301919091526001600160601b0319606086901b1660318301528251602581840301815260459092019092528051910120600061124c82611894565b90506000548110610f6c5760026001600160a01b03851660009081526007602052604090205460ff16600381111561128057fe5b14156112b4575050506001600160a01b0381166000908152600760205260409020805460ff19166003908117909155610795565b600292505050610795565b6001546001600160a01b031681565b63ffffffff166000908152600960205260409020546001600160a01b031690565b60006112fa3361079a565b1561079157604080517137b73137b0b9322a393ab9ba20b731b437b960711b6020808301919091526001600160601b0319606086901b1660328301528251602681840301815260469092019092528051910120600061135882611894565b90506000548110610f6c576001600160a01b0384161580159061139f57506001600160a01b03841660009081526007602052604081205460ff16600381111561139d57fe5b145b15610f57576001600160a01b0384166000908152600760205260409020805460ff191660011790556113d08261199e565b50604080516001600160a01b038616815290517fd61cae8f9973da03d48aef4fff48656328e9f8d9e572ad1100add7ecf014d4e79181900360200190a1600392505050610795565b60006114233361079a565b1561079157600f546001600160a01b031615801561144957506001600160a01b03821615155b156107895750600f80546001600160a01b0319166001600160a01b0383161790556002610795565b600061147c3361079a565b156107915760065463ffffffff831610156107895760035460068363ffffffff16815481106114a757fe5b906000526020600020906003020160000154116111c75760068263ffffffff16815481106114d157fe5b600091825260209091206002600390920201015460ff16158015611519575060068263ffffffff168154811061150357fe5b9060005260206000209060030201600101544211155b15611628576000826040516020018080611b64602291396022018263ffffffff1660e01b8152600401915050604051602081830303815290604052805190602001209050600061156882611829565b905060008054821061157c57506001611599565b600061158784611894565b9050600054811061159757600191505b505b6001811515141561161c5760068563ffffffff16815481106115b757fe5b906000526020600020906003020160000154600081905550600160068663ffffffff16815481106115e457fe5b60009182526020909120600390910201600201805460ff191691151591909117905561160f8361199e565b5060059350505050610795565b60049350505050610795565b506003610795565b600061163b3361079a565b15610791576000826040516020018080611b8660269139602601826001600160a01b031660601b8152601401915050604051602081830303815290604052805190602001209050600061168d82611894565b90506000548110610f6c576001600160a01b038416156112b457600d80546001600160a01b0319166001600160a01b03868116919091179182905560408051929091168252517fd641031ecf44b466f4f097a27b98e2d24277142d973d7ac2c74377634913dd4b916020908290030190a16117078261199e565b50600392505050610795565b6000803360009081526007602052604090205460ff16600381111561173457fe5b1461079157336000818152600e602090815260409182902080546001600160a01b0319166001600160a01b0387811691909117918290558351948552169083015280517f8fe24b7e79af5ebe5c9c47fd5c59840ecfc56c45f7eab4ff9107e92ddd527fcf9281900390910190a1506001610795565b6001600160a01b031660009081526002602052604090205460ff1690565b6001600160a01b039081166000908152600e60205260409020541690565b60008054821061079157506001610795565b60035481565b600060025b6001600160a01b03831660009081526007602052604090205460ff1660038111156107c757fe5b60008061183583611ad7565b6000908152600460205260409020600201549392505050565b600060026001600160a01b03831660009081526007602052604090205460ff16600381111561187957fe5b148061188757506003611802565b1561079157506001610795565b600061189f3361079a565b156107915760006118af83611ad7565b60035460008281526004602052604090206002015491925011801561192a5750600081815260046020908152604080832033845290915281205460ff1660038111156118f757fe5b148061192a57506003600082815260046020908152604080832033845290915290205460ff16600381111561192857fe5b145b15611985576000818152600460208181526040808420600281018054600190810190915533808752828552928620805460ff191682179055938352830180549384018155845292200180546001600160a01b03191690911790555b6000908152600460205260409020600201549050610795565b60006119a93361079a565b156107915760006119b983611ad7565b60008181526004602052604090206002015490915015611a935760005b600082815260046020526040902060010154811015611a57576000828152600460205260408120600181018054600393919085908110611a1257fe5b60009182526020808320909101546001600160a01b031683528201929092526040019020805460ff19166001836003811115611a4a57fe5b02179055506001016119d6565b506000818152600460205260408120611a7591600190910190611b29565b60009081526004602052604081206002908101919091559050610795565b6001915050610795565b6005548160405160200180838152602001828152602001925050506040516020818303038152906040528051906020012060058190555050565b600554604080516020808201939093528082019390935280518084038201815260609093019052815191012090565b604051806060016040528060008152602001600081526020016000151581525090565b5080546000825590600052602060002090810190611b479190611b4a565b50565b5b80821115611b5f5760008155600101611b4b565b509056fe61646d696e436f6e6669726d6174696f6e5468726573686f6c6450726f706f73616c73657447656e657269635472757374416e63686f72457874726144617461436f6e7472616374a2646970667358221220cdc155c540f55d74049c3ed68590f1ae25dc8a7f73d9451a9caa1134a42e2c0864736f6c63430007010033",
  "immutableReferences": {},
  "source": "// pragma experimental ABIEncoderV2;\n\npragma solidity ^0.7.1;\n//SPDX-License-Identifier: UNLICENSED\n\nimport \"./Interfaces/ITrustAnchorManager.sol\";\nimport \"./Interfaces/IShyftConduit.sol\";\n\nimport \"./ECRecovery.sol\";\nimport \"./Administrable.sol\";\n\n/// @author Chris Forrester, 2018+ Shyft. all rights reserved.\n\n/// @dev\n/// | The Trust Anchor Manager is the basic building block for the associative mechanism of data holders (Trust Anchors) to end users.\n/// | This contract manages the Trust Anchors themselves, with sparse data points (mainly Jurisdiction) that are required for a top-level directory service.\n\n/// | Administrators of this contract are able to be set in order to allow for better management practices, with multi-signature support from the Administrable contract.\n\n\n//@note:\n// patterns used:\n// owner pattern.\n// administrator pattern.\n\n// irregular usages:\n//\n// (1) structure:\n// hash table based mirrored data accessors for maximum read with a bit of write overhead.\n// (1) rationale:\n// most contracts depend on this and keeping two hash tables in memory constantly when > 90% of transactions should eventually be using the kyc\n// database to at least trigger friendly events re: reputation token is a useful thing.\n\n// compatibility:\n// fully ethereum EVM compliant.\n\n// future work:\n// research into cost/benefit of upgradability.\n// further caching and improvement of read performance/cost.\n\n\ncontract TrustAnchorManager is Administrable, ITrustAnchorManager {\n    /// @dev Event for a Trust Anchor requiring multisignature permission before a Jurisdiction change.\n    event EVT_JurisdictionDoesRequireChange( address trustAnchorAddress );\n    /// @dev Event for getting the Jurisdiction for a Trust Anchor.\n    event EVT_GettingJurisdictionFromTrustAnchor( uint16 jurisdiction, address trustAnchorAddress );\n\n    /// @dev Event for setting up a generic Trust Anchor's ExtraData fields.\n    event EVT_setGenericTrustAnchorExtraDataAddress( address genericExtraDataAddress );\n    /// @dev Event for setting up a unique Trust Anchor's ExtraData fields.\n    event EVT_setUniqueTrustAnchorExtraDataAddress( address trustAnchorAddress, address uniqueExtraDataAddress );\n    /// @dev Event for onboarding a Trust Anchor.\n    event EVT_onboardTrustAnchor( address trustAnchorAddress );\n    /// @dev Event for verifying a Trust Anchor.\n    event EVT_verifyTrustAnchor( address trustAnchorAddress );\n\n//    event EVT_isPrimeRevocationManager(address shyftConduitAddress, address _address);\n\n    /// @dev Enum for Trust Anchor system permission status.\n    enum TrustAnchorAccess { Unknown, Onboarded, Verified, Demoted }\n\n    //trust anchors\n    /// @dev Mapping for Trust Anchor public addresses the enum of TrustAnchorAccess to keep track of system permission status.\n    mapping (address => TrustAnchorAccess) trustAnchorAccess;\n    /// @dev Mapping for Trust Anchor public addresses to Indexes.\n    mapping (address => uint32) trustAnchorIndexes;\n    /// @dev Mapping for Trust Anchor Indexes to public addresses.\n    mapping (uint32 => address) trustAnchorIndexToAddressMap;\n\n    /// @dev Number of Trust Anchors in this Trust Anchor Manager.\n    uint32 numTrustAnchors;\n\n    //jurisdictions\n    /// @dev Mapping for Trust Anchor public addresses to Jurisdictions.\n    mapping (address => uint16) jurisdictions;\n    /// @dev Mapping for Trust Anchor public addresses to Jurisdictions requiring permissions to change.\n    mapping (address => uint16) jurisdictionsRequiringChange;\n\n    //extraData\n    /// @dev Mapping for a generic system-wide extra data smart contract (ex: ENS-like registration for web2.0 ip addresses for data retrieval).\n    address genericExtraDataAddress = address(0);\n    /// @dev Mapping for Trust Anchor public addresses to smart contracts that define the Trust Anchor's extra data (Trust-Anchor specific data, like regulator-specific requirements).\n    mapping (address => address) uniqueExtraDataAddress;\n\n    /// @dev Base constant for no Jurisdiction set, the default for all Verified Trust Anchors.\n    uint16 constant NoJurisdiction = 2 ** 16 - 1;\n\n    /// @dev The Shyft Conduit public address, set post-initialization using multisignature.\n    address public shyftConduitAddress = address(0);\n\n    /// @dev Initializes Trust Anchor Manager with the owner set to the calling public address.\n    constructor() {\n        owner = msg.sender;\n    }\n\n    // ** conduit management ** //\n\n    /// @param _shyftConduitAddress The smart contract address for the Shyft Conduit that should be linked.\n    /// @dev | Links Shyft Conduit to this contract's function flow.\n    ///      | Uses Multi-signature permissions.\n    /// @return result\n    ///    | 0: not administrator\n    ///    | 1: could not set conduit address\n    ///    | 2: set conduit address\n\n    function setupShyftConduit(address _shyftConduitAddress) public returns (uint8 result) {\n        if (isAdministrator(msg.sender)) {\n            //conduit is a stable address anyhow\n            if (shyftConduitAddress == address(0) && _shyftConduitAddress != address(0)) {\n                shyftConduitAddress = _shyftConduitAddress;\n\n                //set conduit address\n                return 2;\n            } else {\n                //could not set conduit address\n                return 1;\n            }\n        } else {\n            //not administrator\n            return 0;\n        }\n    }\n\n    // ** trust anchor primary management ** //\n\n    /// @param _trustAnchorAddress The smart contract address for the trust anchor that should be onboarded.\n    /// @dev | Onboards a Trust Anchor, using a public address.\n    ///      | Uses Multi-signature permissions.\n    /// @return result\n    ///    | 0 = not administrator\n    ///    | 1 = not enough administrators have permissioned change\n    ///    | 2 = trust anchor not unknown status, or is zero address\n    ///    | 3 = trust anchor onboarded\n\n    function onboardTrustAnchor(address _trustAnchorAddress) public returns (uint8 result) {\n        if (isAdministrator(msg.sender)) {\n            bytes32 keyKeccak = keccak256(abi.encodePacked(\"onboardTrustAnchor\", _trustAnchorAddress));\n\n            uint256 numConfirmedPermissions = adminApplyAndGetPermissionsForMultisignKey(keyKeccak);\n            if (numConfirmedPermissions >= adminConfirmationThreshold) {\n                if (_trustAnchorAddress != address(0) && trustAnchorAccess[_trustAnchorAddress] == TrustAnchorAccess.Unknown) {\n                    trustAnchorAccess[_trustAnchorAddress] = TrustAnchorAccess.Onboarded;\n\n                    adminResetPermissionsForMultisignKey(keyKeccak);\n\n                    //trust anchor onboarded\n                    emit EVT_onboardTrustAnchor(_trustAnchorAddress);\n                    return 3;\n                } else {\n                    adminResetPermissionsForMultisignKey(keyKeccak);\n\n                    //trust anchor not unknown status, or is zero address\n                    return 2;\n                }\n            } else {\n                //not enough administrators have permissioned change\n                return 1;\n\n            }\n        } else {\n            //not an administrator\n            return 0;\n        }\n    }\n\n    // ** trust anchor primary management ** //\n\n    /// @param _trustAnchorAddress The smart contract address for the trust anchor that should be verified.\n    /// @dev | Verifies Trust Anchor, using a public address. Onboarded and Verified are seperate processes to keep track of Trust Anchors that may be temporarily Demoted.\n    ///      | Also useful as the pattern 1. Onboarded -> 2. Trust Anchor sets their own \"extraData\" which contains details that are required (for regulations etc.) -> 3. Administrators vote to have Trust Anchors fully verified having examined the data in the extraData smart contract pointer.\n    ///      | Uses Multi-signature permissions.\n    /// @return result\n    ///    | 0 = not administrator\n    ///    | 1 = not enough administrators have permissioned change\n    ///    | 2 = trust anchor not onboarded status\n    ///    | 3 = trust anchor verified\n\n    function verifyTrustAnchor(address _trustAnchorAddress) public returns (uint8 result) {\n        if (isAdministrator(msg.sender)) {\n            bytes32 keyKeccak = keccak256(abi.encodePacked(\"verifyTrustAnchor\", _trustAnchorAddress));\n\n            uint256 numConfirmedPermissions = adminApplyAndGetPermissionsForMultisignKey(keyKeccak);\n            if (numConfirmedPermissions >= adminConfirmationThreshold) {\n                if (trustAnchorAccess[_trustAnchorAddress] == TrustAnchorAccess.Onboarded ||\n                trustAnchorAccess[_trustAnchorAddress] == TrustAnchorAccess.Demoted) {\n                    trustAnchorAccess[_trustAnchorAddress] = TrustAnchorAccess.Verified;\n                    jurisdictions[_trustAnchorAddress] = NoJurisdiction;\n\n                    if (trustAnchorIndexes[_trustAnchorAddress] == 0) {\n                        //NOTE that the first index of trustAnchorIndexes is now empty.\n                        numTrustAnchors++;\n                        trustAnchorIndexes[_trustAnchorAddress] = numTrustAnchors;\n                        trustAnchorIndexToAddressMap[numTrustAnchors] = _trustAnchorAddress;\n                    }\n\n                    adminResetPermissionsForMultisignKey(keyKeccak);\n                    \n                    //trust anchor verified\n                    emit EVT_verifyTrustAnchor(_trustAnchorAddress);\n                    return 3;\n                } else {\n                    adminResetPermissionsForMultisignKey(keyKeccak);\n\n                    //trust anchor not unknown state\n                    return 2;\n                }\n            } else {\n                //not enough administrators have permissioned change\n                return 1;\n            }\n        } else {\n            //not an administrator\n            return 0;\n        }\n    }\n\n    /// @param _trustAnchorAddress The smart contract address for the trust anchor that should be demoted.\n    /// @dev | Demotes Trust Anchor, using a public address.\n    ///      | Uses Multi-signature permissions.\n    /// @return result\n    ///    | 0 = not administrator\n    ///    | 1 = not enough administrators have permissioned change\n    ///    | 2 = trust anchor not verified status\n    ///    | 3 = trust anchor successfully demoted\n\n    function demoteTrustAnchor(address _trustAnchorAddress) public returns (uint8 result) {\n        if (isAdministrator(msg.sender)) {\n            bytes32 keyKeccak = keccak256(abi.encodePacked(\"demoteTrustAnchor\", _trustAnchorAddress));\n\n            uint256 numConfirmedPermissions = adminApplyAndGetPermissionsForMultisignKey(keyKeccak);\n            if (numConfirmedPermissions >= adminConfirmationThreshold) {\n                if (trustAnchorAccess[_trustAnchorAddress] == TrustAnchorAccess.Verified) {\n                    trustAnchorAccess[_trustAnchorAddress] = TrustAnchorAccess.Demoted;\n\n                    //trust anchor successfully demoted\n                    return 3;\n                } else {\n                    //trust anchor not verified state\n                    return 2;\n                }\n\n            } else {\n                //not enough administrators have permissioned change\n                return 1;\n\n            }\n        } else {\n            //not an administrator\n            return 0;\n        }\n    }\n\n    /// @param _trustAnchorAddress The smart contract address that is checked for Verified status.\n    /// @dev Checks whether a Trust Anchor is verified, using a public address.\n    /// @return result\n    ///    | false = not verified\n    ///    | true = is verified\n\n    function isTrustAnchorVerified(address _trustAnchorAddress) public view override returns (bool result) {\n        if (trustAnchorAccess[_trustAnchorAddress] == TrustAnchorAccess.Verified) {\n            //is verified\n            return true;\n        } else {\n            //not verified\n            return false;\n        }\n    }\n\n    /// @param _trustAnchorAddress The smart contract address that is checked for Verified status.\n    /// @dev Checks whether a Trust Anchor has ever been verified (could currently be Demoted, but must have been Verified at least once in the past), using a public address.\n    /// @return result\n    ///    | false = has not been verified\n    ///    | true = has been verified\n\n    function hasTrustAnchorBeenVerified(address _trustAnchorAddress) public view override returns (bool result) {\n        if (trustAnchorAccess[_trustAnchorAddress] == TrustAnchorAccess.Verified || trustAnchorAccess[_trustAnchorAddress] == TrustAnchorAccess.Demoted) {\n            //has been verified\n            return true;\n        } else {\n            //has not been verified\n            return false;\n        }\n    }\n\n    /// @param _trustAnchorAddress The smart contract address that is checked for the Index for this Trust Anchor.\n    /// @dev | Gets the Index of a Trust Anchor, using a public address. This Index is a simple integer value\n    ///      | that relates to the order of Trust Anchors that have been onboarded into this contract.\n    /// @return result\n    ///    | 0 -> 2^32-1 = index of trust anchor\n\n    function getTrustAnchorIndex(address _trustAnchorAddress) external view override returns (uint32 result) {\n        return trustAnchorIndexes[_trustAnchorAddress];\n    }\n\n    /// @param _trustAnchorIndex The Index that is checked for the public address for this Trust Anchor.\n    /// @dev Gets the public address of a Trust Anchor, using an Index. This public address.\n    /// @return result the public address of this trust anchor\n\n    function getTrustAnchorAddress(uint32 _trustAnchorIndex) external view override returns (address result) {\n        return trustAnchorIndexToAddressMap[_trustAnchorIndex];\n    }\n\n\n    // ** jurisdictions management ** //\n\n    /// @param _newJurisdiction Jurisdiction to be set for a specific Trust Anchor.\n    /// @dev | Sets up a Jurisdiction for a Trust Anchor, contract is called by the Trust Anchors themselves.\n    ///      | Requires multisignature approval for changing jurisdiction.\n    /// @return result\n    ///    | 0 = not verified\n    ///    | 1 = jurisdiction already set, now waiting for approval\n    ///    | 2 = trust anchor jurisdiction has been set up first time\n\n    function setupTrustAnchorJurisdiction(uint16 _newJurisdiction) public returns (uint8 result) {\n        if (isTrustAnchorVerified(msg.sender) == true) {\n            if (jurisdictions[msg.sender] == NoJurisdiction) {\n                jurisdictions[msg.sender] = _newJurisdiction;\n\n                //trust anchor jurisdiction has been set up first time\n                return 2;\n            } else {\n                jurisdictionsRequiringChange[msg.sender] = _newJurisdiction;\n                emit EVT_JurisdictionDoesRequireChange(msg.sender);\n\n                //jurisdiction already set, now waiting for approval\n                return 1;\n            }\n        } else {\n            //not verified\n            return 0;\n        }\n    }\n\n    /// @param _trustAnchorAddress Trust Anchor public address to confirm a change of Jurisdiction.\n    /// @dev | Approves the change to a Jurisdiction for a Trust Anchor.\n    ///      | Uses Multi-signature permissions.\n    /// @return result\n    ///    | 0 = not administrator\n    ///    | 1 = no trust anchor found\n    ///    | 2 = no jurisdiction change necessary\n    ///    | 3 = jurisdiction change occurred\n\n    function approveChange(address _trustAnchorAddress) public returns (uint8 result) {\n        if (isAdministrator(msg.sender)) {\n            //@note:@here:@next:@todo: set up a multi-signature requirement for approval?\n            if (jurisdictions[_trustAnchorAddress] != 0) {\n                if (jurisdictionsRequiringChange[_trustAnchorAddress] != 0 &&\n                    jurisdictionsRequiringChange[_trustAnchorAddress] != jurisdictions[_trustAnchorAddress]) {\n                    jurisdictions[_trustAnchorAddress] = jurisdictionsRequiringChange[_trustAnchorAddress];\n                    //@note: @here: this would cause this call to fail with a \"Error: base fee exceeds gas limit\" error.\n                    //not sure why.\n                    //delete jurisdictionsRequiringChange[_trustAnchor];\n\n                    //jurisdiction change occurred\n                    return 3;\n                } else {\n                    //no jurisdiction change necessary\n                    return 2;\n                }\n            } else {\n                //no trust anchor found\n                return 1;\n            }\n        } else {\n            //not administrator\n            return 0;\n        }\n    }\n\n    /// @param _trustAnchorAddress Trust Anchor public address to get the Jurisdiction of.\n    /// @dev Gets the Jurisdiction for a Trust Anchor. Any invalid Trust Ancors will return 0.\n    /// @return result\n    ///    | 0 -> 2 ** 16 - 2 = jurisdiction found\n    ///    | 2 ** 16 - 1 = no jurisdiction found\n\n    function getTrustAnchorJurisdiction(address _trustAnchorAddress) public override returns (uint16 result) {\n        //jurisdiction found, or 2 ** 31 - 1 is no jurisdiction set\n\n        emit EVT_GettingJurisdictionFromTrustAnchor(jurisdictions[_trustAnchorAddress], _trustAnchorAddress);\n\n        return jurisdictions[_trustAnchorAddress];\n    }\n\n\n    // ** generic & unique extra data management ** //\n\n    /// @param _genericExtraDataAddress The smart contract address that contains additional functionality/variables that are useful to the Shyft ecosystem. All Trust Anchors set up in this contract would find these useful.\n    /// @dev | Sets the generic ExtraData that would be useful to all of the Trust Anchors associated to this smart contract, mediated by the administrators of this smart contract.\n    ///      | An example of this \"ExtraData\" would be the web2.0 ip addresses that correspond to data retrieval of end user's PII according to the consent rules.\n    ///      | Uses Multi-signature permissions.\n    /// @return result\n    ///    | 0 = not administrator\n    ///    | 1 = not enough administrators have permissioned change\n    ///    | 2 = invalid extraData address\n    ///    | 3 = set generic extraData address\n\n    function setGenericTrustAnchorExtraDataAddress(address _genericExtraDataAddress) public returns (uint8 result) {\n        if (isAdministrator(msg.sender)) {\n            bytes32 keyKeccak = keccak256(abi.encodePacked(\"setGenericTrustAnchorExtraDataContract\", _genericExtraDataAddress));\n\n            uint256 numConfirmedPermissions = adminApplyAndGetPermissionsForMultisignKey(keyKeccak);\n            if (numConfirmedPermissions >= adminConfirmationThreshold) {\n                if (_genericExtraDataAddress != address(0)) {\n                    genericExtraDataAddress = _genericExtraDataAddress;\n\n                    emit EVT_setGenericTrustAnchorExtraDataAddress(genericExtraDataAddress);\n\n                    adminResetPermissionsForMultisignKey(keyKeccak);\n                    //set generic extraData\n                    return 3;\n                } else {\n                    //invalid extraData address\n                    return 2;\n                }\n            } else {\n                //not enough administrators have permissioned change\n                return 1;\n\n            }\n        } else {\n            //not an administrator\n            return 0;\n        }\n    }\n\n    /// @dev | Gets the generic ExtraData that would be useful to all of the Trust Anchors associated to this smart contract, mediated by the administrators of this smart contract.\n    ///      | An example of this \"ExtraData\" would be the web2.0 ip addresses that correspond to data retrieval of end user's PII according to the consent rules.\n    /// @return result returns the generic extraData smart contract address\n\n    function getGenericTrustAnchorExtraDataAddress() public view override returns (address result) {\n        // returns the generic extraData smart contract address\n        return genericExtraDataAddress;\n    }\n\n    /// @param _uniqueExtraDataAddress The smart contract address that contains additional functionality/variables that are useful to the Shyft ecosystem, but are not included in the generic ExtraData.\n    /// @dev | Sets the \"ExtraData\" smart contract address for a Trust Anchor. This points to another smart contract which can handle variable data that can evolve over time without impacting this contract, this function call is mediated by the Trust Anchor themselves.\n    ///      | Some examples of this \"ExtraData\" would be any local regulatory requirements (web 2.0 links, embedded files, signatures from regulators, etc) that would need to be fulfilled, other examples would include smart contract addresses that link to blockchain systems that are not Shyft but are compliance-related.\n    /// @return result\n    ///    | 0 = sender is not a valid trust anchor\n    ///    | 1 = set trust anchor specific extraData\n\n    function setUniqueTrustAnchorExtraDataAddress(address _uniqueExtraDataAddress) public returns (uint8 result) {\n        if (trustAnchorAccess[msg.sender] != TrustAnchorAccess.Unknown) {\n            uniqueExtraDataAddress[msg.sender] = _uniqueExtraDataAddress;\n\n            emit EVT_setUniqueTrustAnchorExtraDataAddress(msg.sender, uniqueExtraDataAddress[msg.sender]);\n\n            //set trust anchor specific extraData\n            return 1;\n        } else {\n            //sender is not a valid trust anchor\n            return 0;\n        }\n    }\n\n    /// @param _trustAnchorAddress Trust Anchor public address to get the Jurisdiction of.\n    /// @dev | Gets the \"ExtraData\" smart contract address for a Trust Anchor. This points to another smart contract which can handle variable data that can evolve over time without impacting this contract, mediated by the Trust Anchor themselves.\n    ///      | Some examples of this \"ExtraData\" would be any local regulatory requirements (web 2.0 links, embedded files, signatures from regulators, etc) that would need to be fulfilled, other examples would include smart contract addresses that link to blockchain systems that are not Shyft but are compliance-related.\n    /// @return result the smart contract address associated to a specific trust anchor that will contain any other data relevant to its functioning\n\n    function getUniqueTrustAnchorExtraDataAddress(address _trustAnchorAddress) public view override returns (address result) {\n        //returns the smart contract address associated to a specific trust anchor that will contain any other data relevant to its functioning\n        return uniqueExtraDataAddress[_trustAnchorAddress];\n    }\n\n    // ** prime revocation manager address retrieval ** //\n\n    /// @param _primeRevocationManagerAddress A public address to check for equality to the Prime Revocation Address.\n    /// @dev | The Prime Revocation Address is one which is set in the internal Shyft Core architecture.\n    ///      | This Prime Revocation Address is responsible & allowed to perform revocations for edge-cases, such as a malicious Trust Anchor that has been forcibly removed from the system without it clearing its attestations beforehand.\n    /// @return result\n    ///    | true = is the prime revocation address\n    ///    | false = is not the prime revocation address\n\n    function isPrimeRevocationManager(address _primeRevocationManagerAddress) public override returns (bool result) {\n        IShyftConduit shyftConduit = IShyftConduit(shyftConduitAddress);\n\n//        emit EVT_isPrimeRevocationManager(shyftConduitAddress, _primeRevocationManagerAddress);\n\n        if (shyftConduitAddress != address(0) && shyftConduit.isPrimeRevocationManager(_primeRevocationManagerAddress) == true) {\n            return true;\n        } else {\n            return false;\n        }\n    }\n}\n",
  "sourcePath": "/home/ubuntu/shyft_shyftcorecontracts/contracts/TrustAnchorManager.sol",
  "compiler": {
    "name": "solc",
    "version": "0.7.1+commit.f4a555be.Emscripten.clang"
  },
  "schemaVersion": "3.4.7",
  "updatedAt": "2022-04-19T20:59:55.543Z",
  "networkType": "ethereum",
  "devdoc": {
    "events": {
      "EVT_GettingJurisdictionFromTrustAnchor(uint16,address)": {
        "details": "Event for getting the Jurisdiction for a Trust Anchor."
      },
      "EVT_JurisdictionDoesRequireChange(address)": {
        "details": "Event for a Trust Anchor requiring multisignature permission before a Jurisdiction change."
      },
      "EVT_onboardTrustAnchor(address)": {
        "details": "Event for onboarding a Trust Anchor."
      },
      "EVT_setGenericTrustAnchorExtraDataAddress(address)": {
        "details": "Event for setting up a generic Trust Anchor's ExtraData fields."
      },
      "EVT_setUniqueTrustAnchorExtraDataAddress(address,address)": {
        "details": "Event for setting up a unique Trust Anchor's ExtraData fields."
      },
      "EVT_verifyTrustAnchor(address)": {
        "details": "Event for verifying a Trust Anchor."
      }
    },
    "kind": "dev",
    "methods": {
      "approveChange(address)": {
        "details": "| Approves the change to a Jurisdiction for a Trust Anchor.      | Uses Multi-signature permissions.",
        "params": {
          "_trustAnchorAddress": "Trust Anchor public address to confirm a change of Jurisdiction."
        },
        "returns": {
          "result": "   | 0 = not administrator    | 1 = no trust anchor found    | 2 = no jurisdiction change necessary    | 3 = jurisdiction change occurred"
        }
      },
      "changeCurrentAdminConfirmationThreshold(uint32)": {
        "details": "| This function takes in an index for a proposal ot change the current administrator confirmation threshold.      | Uses Multi-signature permissions.",
        "params": {
          "_proposalIndex": "The index for a specific proposal to change the current administrator confirmation threshold."
        },
        "returns": {
          "result": "   | 0 = not an administrator    | 1 = invalid proposal index    | 2 = not enough administrators to achieve confirmation threshold    | 3 = proposal has expired    | 4 = not enough administrators have permissioned change    | 5 = admin confirmation threshold set"
        }
      },
      "constructor": {
        "details": "Initializes Trust Anchor Manager with the owner set to the calling public address."
      },
      "demoteTrustAnchor(address)": {
        "details": "| Demotes Trust Anchor, using a public address.      | Uses Multi-signature permissions.",
        "params": {
          "_trustAnchorAddress": "The smart contract address for the trust anchor that should be demoted."
        },
        "returns": {
          "result": "   | 0 = not administrator    | 1 = not enough administrators have permissioned change    | 2 = trust anchor not verified status    | 3 = trust anchor successfully demoted"
        }
      },
      "getAdminAccess(address)": {
        "details": "Gets the level of access for a specific administrator.",
        "returns": {
          "result": "the level of access for this administrator"
        }
      },
      "getAdminConfirmationProposal(uint32)": {
        "details": "Gets the components of a specific NofM change proposal.",
        "params": {
          "_proposalIndex": "A proposal index"
        },
        "returns": {
          "adminThreshold": "the threshold of the NofM voting within this proposal",
          "endTime": "the end time of this proposal, after which it cannot be voted on",
          "isCompleted": "whether this proposal has been completed by multisig parties"
        }
      },
      "getAdminConfirmationThreshold()": {
        "details": "Gets the NofM threshold currently required for passing multisig votes.",
        "returns": {
          "results": "the current NofM threshold"
        }
      },
      "getGenericTrustAnchorExtraDataAddress()": {
        "details": "| Gets the generic ExtraData that would be useful to all of the Trust Anchors associated to this smart contract, mediated by the administrators of this smart contract.      | An example of this \"ExtraData\" would be the web2.0 ip addresses that correspond to data retrieval of end user's PII according to the consent rules.",
        "returns": {
          "result": "returns the generic extraData smart contract address"
        }
      },
      "getNumAdminConfirmationProposals()": {
        "details": "Gets the number of a specific NofM change proposal.",
        "returns": {
          "result": "the number of a specific NofM proposals"
        }
      },
      "getPermissionsForMultisignKey(bytes32)": {
        "details": "Gets whether there have been a specific number of multisignature confirmations for a specific vote.",
        "params": {
          "_keyKeccak": "A hash to reference as the key/value vote subject."
        },
        "returns": {
          "result": "0 to numAdministrators = #confirmations"
        }
      },
      "getTrustAnchorAddress(uint32)": {
        "details": "Gets the public address of a Trust Anchor, using an Index. This public address.",
        "params": {
          "_trustAnchorIndex": "The Index that is checked for the public address for this Trust Anchor."
        },
        "returns": {
          "result": "the public address of this trust anchor"
        }
      },
      "getTrustAnchorIndex(address)": {
        "details": "| Gets the Index of a Trust Anchor, using a public address. This Index is a simple integer value      | that relates to the order of Trust Anchors that have been onboarded into this contract.",
        "params": {
          "_trustAnchorAddress": "The smart contract address that is checked for the Index for this Trust Anchor."
        },
        "returns": {
          "result": "   | 0 -> 2^32-1 = index of trust anchor"
        }
      },
      "getTrustAnchorJurisdiction(address)": {
        "details": "Gets the Jurisdiction for a Trust Anchor. Any invalid Trust Ancors will return 0.",
        "params": {
          "_trustAnchorAddress": "Trust Anchor public address to get the Jurisdiction of."
        },
        "returns": {
          "result": "   | 0 -> 2 ** 16 - 2 = jurisdiction found    | 2 ** 16 - 1 = no jurisdiction found"
        }
      },
      "getUniqueTrustAnchorExtraDataAddress(address)": {
        "details": "| Gets the \"ExtraData\" smart contract address for a Trust Anchor. This points to another smart contract which can handle variable data that can evolve over time without impacting this contract, mediated by the Trust Anchor themselves.      | Some examples of this \"ExtraData\" would be any local regulatory requirements (web 2.0 links, embedded files, signatures from regulators, etc) that would need to be fulfilled, other examples would include smart contract addresses that link to blockchain systems that are not Shyft but are compliance-related.",
        "params": {
          "_trustAnchorAddress": "Trust Anchor public address to get the Jurisdiction of."
        },
        "returns": {
          "result": "the smart contract address associated to a specific trust anchor that will contain any other data relevant to its functioning"
        }
      },
      "hasTrustAnchorBeenVerified(address)": {
        "details": "Checks whether a Trust Anchor has ever been verified (could currently be Demoted, but must have been Verified at least once in the past), using a public address.",
        "params": {
          "_trustAnchorAddress": "The smart contract address that is checked for Verified status."
        },
        "returns": {
          "result": "   | false = has not been verified    | true = has been verified"
        }
      },
      "isAdministrator(address)": {
        "details": "Returns whether a given address is an administrator.",
        "params": {
          "_administratorAddress": "The public address of a specific administrator."
        },
        "returns": {
          "result": "   | true = is administrator    | false = either administrator unset or demoted"
        }
      },
      "isConfirmationsIsOverThreshold(uint256)": {
        "details": "Returns whether a reference number is over the system's administrator confirmation threshold (ie. the vote passes).",
        "params": {
          "_confirmationNumber": "A number to reference as the confirmation number"
        },
        "returns": {
          "result": "   | true = is over threshold    | false = not over threshold"
        }
      },
      "isPrimeRevocationManager(address)": {
        "details": "| The Prime Revocation Address is one which is set in the internal Shyft Core architecture.      | This Prime Revocation Address is responsible & allowed to perform revocations for edge-cases, such as a malicious Trust Anchor that has been forcibly removed from the system without it clearing its attestations beforehand.",
        "params": {
          "_primeRevocationManagerAddress": "A public address to check for equality to the Prime Revocation Address."
        },
        "returns": {
          "result": "   | true = is the prime revocation address    | false = is not the prime revocation address"
        }
      },
      "isTrustAnchorVerified(address)": {
        "details": "Checks whether a Trust Anchor is verified, using a public address.",
        "params": {
          "_trustAnchorAddress": "The smart contract address that is checked for Verified status."
        },
        "returns": {
          "result": "   | false = not verified    | true = is verified"
        }
      },
      "onboardTrustAnchor(address)": {
        "details": "| Onboards a Trust Anchor, using a public address.      | Uses Multi-signature permissions.",
        "params": {
          "_trustAnchorAddress": "The smart contract address for the trust anchor that should be onboarded."
        },
        "returns": {
          "result": "   | 0 = not administrator    | 1 = not enough administrators have permissioned change    | 2 = trust anchor not unknown status, or is zero address    | 3 = trust anchor onboarded"
        }
      },
      "promoteAdministrator(address)": {
        "details": "| Promotes a new administrator. If there is only a primary Administrator set, this will allow the addition of the second administrator and enable multisignature requirements for any actions of this contract (or those inheriting it).      | Uses Multi-signature permissions if there is more than one Administrator onboarded.",
        "params": {
          "_newAdministratorAddress": "The new Administrator's public address."
        },
        "returns": {
          "result": "   | 0 = not administrator    | 1 = administrator already promoted    | 2 = new administrator promoted    | 3 = added vote to promote administrator"
        }
      },
      "proposeChangeCurrentAdminConfirmationThreshold(uint256)": {
        "details": "This function proposes a change to the threshold of voting required (N signatories of M total set size = NofM). To prevent stale inattention results, timeout after 2 days.",
        "params": {
          "_newThreshold": "The new threshold (N of M multisig) that is needed to be passed."
        },
        "returns": {
          "result": "   | 0 = not an administrator    | 1 = not enough administrators to achieve confirmation threshold    | 2 = new proposal added"
        }
      },
      "revokeAdministrator(address)": {
        "details": "| Revokes an existing administrator from the multisignature set, checks to see if the # of required votes would be higher then the administrator set size, and if so adjusts to match.      | Uses Multi-signature permissions if there is more than one Administrator onboarded.",
        "params": {
          "_revokeAdministratorAddress": "An existing Administrator's public address."
        },
        "returns": {
          "result": "result"
        }
      },
      "setGenericTrustAnchorExtraDataAddress(address)": {
        "details": "| Sets the generic ExtraData that would be useful to all of the Trust Anchors associated to this smart contract, mediated by the administrators of this smart contract.      | An example of this \"ExtraData\" would be the web2.0 ip addresses that correspond to data retrieval of end user's PII according to the consent rules.      | Uses Multi-signature permissions.",
        "params": {
          "_genericExtraDataAddress": "The smart contract address that contains additional functionality/variables that are useful to the Shyft ecosystem. All Trust Anchors set up in this contract would find these useful."
        },
        "returns": {
          "result": "   | 0 = not administrator    | 1 = not enough administrators have permissioned change    | 2 = invalid extraData address    | 3 = set generic extraData address"
        }
      },
      "setPrimaryAdministrator(address)": {
        "details": "Sets the primary Administrator for this contract (or those that inherit from it). This transfers ownership of this contracts first administration duties (to find and onboard a second party for multisignature requirements) to the set Administrator's public address.",
        "params": {
          "_newAdministratorAddress": "The new Administrator's public address."
        },
        "returns": {
          "result": "   | 0 = not owner    | 1 = already set first administrator    | 2 = setup first administrator"
        }
      },
      "setUniqueTrustAnchorExtraDataAddress(address)": {
        "details": "| Sets the \"ExtraData\" smart contract address for a Trust Anchor. This points to another smart contract which can handle variable data that can evolve over time without impacting this contract, this function call is mediated by the Trust Anchor themselves.      | Some examples of this \"ExtraData\" would be any local regulatory requirements (web 2.0 links, embedded files, signatures from regulators, etc) that would need to be fulfilled, other examples would include smart contract addresses that link to blockchain systems that are not Shyft but are compliance-related.",
        "params": {
          "_uniqueExtraDataAddress": "The smart contract address that contains additional functionality/variables that are useful to the Shyft ecosystem, but are not included in the generic ExtraData."
        },
        "returns": {
          "result": "   | 0 = sender is not a valid trust anchor    | 1 = set trust anchor specific extraData"
        }
      },
      "setupShyftConduit(address)": {
        "details": "| Links Shyft Conduit to this contract's function flow.      | Uses Multi-signature permissions.",
        "params": {
          "_shyftConduitAddress": "The smart contract address for the Shyft Conduit that should be linked."
        },
        "returns": {
          "result": "   | 0: not administrator    | 1: could not set conduit address    | 2: set conduit address"
        }
      },
      "setupTrustAnchorJurisdiction(uint16)": {
        "details": "| Sets up a Jurisdiction for a Trust Anchor, contract is called by the Trust Anchors themselves.      | Requires multisignature approval for changing jurisdiction.",
        "params": {
          "_newJurisdiction": "Jurisdiction to be set for a specific Trust Anchor."
        },
        "returns": {
          "result": "   | 0 = not verified    | 1 = jurisdiction already set, now waiting for approval    | 2 = trust anchor jurisdiction has been set up first time"
        }
      },
      "verifyTrustAnchor(address)": {
        "details": "| Verifies Trust Anchor, using a public address. Onboarded and Verified are seperate processes to keep track of Trust Anchors that may be temporarily Demoted.      | Also useful as the pattern 1. Onboarded -> 2. Trust Anchor sets their own \"extraData\" which contains details that are required (for regulations etc.) -> 3. Administrators vote to have Trust Anchors fully verified having examined the data in the extraData smart contract pointer.      | Uses Multi-signature permissions.",
        "params": {
          "_trustAnchorAddress": "The smart contract address for the trust anchor that should be verified."
        },
        "returns": {
          "result": "   | 0 = not administrator    | 1 = not enough administrators have permissioned change    | 2 = trust anchor not onboarded status    | 3 = trust anchor verified"
        }
      }
    },
    "stateVariables": {
      "NoJurisdiction": {
        "details": "Base constant for no Jurisdiction set, the default for all Verified Trust Anchors."
      },
      "genericExtraDataAddress": {
        "details": "Mapping for a generic system-wide extra data smart contract (ex: ENS-like registration for web2.0 ip addresses for data retrieval)."
      },
      "jurisdictions": {
        "details": "Mapping for Trust Anchor public addresses to Jurisdictions."
      },
      "jurisdictionsRequiringChange": {
        "details": "Mapping for Trust Anchor public addresses to Jurisdictions requiring permissions to change."
      },
      "numTrustAnchors": {
        "details": "Number of Trust Anchors in this Trust Anchor Manager."
      },
      "shyftConduitAddress": {
        "details": "The Shyft Conduit public address, set post-initialization using multisignature."
      },
      "trustAnchorAccess": {
        "details": "Mapping for Trust Anchor public addresses the enum of TrustAnchorAccess to keep track of system permission status."
      },
      "trustAnchorIndexToAddressMap": {
        "details": "Mapping for Trust Anchor Indexes to public addresses."
      },
      "trustAnchorIndexes": {
        "details": "Mapping for Trust Anchor public addresses to Indexes."
      },
      "uniqueExtraDataAddress": {
        "details": "Mapping for Trust Anchor public addresses to smart contracts that define the Trust Anchor's extra data (Trust-Anchor specific data, like regulator-specific requirements)."
      }
    },
    "version": 1
  },
  "userdoc": {
    "kind": "user",
    "methods": {
      "changeCurrentAdminConfirmationThreshold(uint32)": {
        "notice": "Multiple proposals can be constructed for different sets to apply to change the administrator threshold. As the permissions for multisig keys use a voting set nonce underneath the hood, a change in the current administrator set will cancel all current votes."
      },
      "getPermissionsForMultisignKey(bytes32)": {
        "notice": "Uses composition features (based on current validator set) so data structure may be orphaned when promotion/demotion events occur."
      },
      "promoteAdministrator(address)": {
        "notice": "| Uses composition features (based on current validator set) so data structure may be orphaned when promotion/demotion events occur.         | Whenever this function is called (with a passing vote), there will be a re-hashing of the voting set nonce, so all current votes will become invalidated."
      },
      "revokeAdministrator(address)": {
        "notice": "| Uses composition features (based on current validator set) so data structure may be orphaned when promotion/demotion events occur.         | Whenever this function is called (with a passing vote), there will be a re-hashing of the voting set nonce, so all current votes will become invalidated."
      }
    },
    "notice": "| Administrators of this contract are able to be set in order to allow for better management practices, with multi-signature support from the Administrable contract.",
    "version": 1
  }
}