{
  "contractName": "BytesLib",
  "abi": [
    {
      "inputs": [
        {
          "internalType": "address",
          "name": "a",
          "type": "address"
        }
      ],
      "name": "fromAddress",
      "outputs": [
        {
          "internalType": "bytes",
          "name": "b",
          "type": "bytes"
        }
      ],
      "stateMutability": "pure",
      "type": "function"
    }
  ],
  "bytecode": "0x610127610026600b82828239805160001a60731461001957fe5b30600052607381538281f3fe730000000000000000000000000000000000000000301460806040526004361060335760003560e01c8063b72e717d146038575b600080fd5b605b60048036036020811015604c57600080fd5b50356001600160a01b031660cd565b6040805160208082528351818301528351919283929083019185019080838360005b838110156093578181015183820152602001607d565b50505050905090810190601f16801560bf5780820380516001836020036101000a031916815260200191505b509250505060405180910390f35b604080516001600160a01b0392909216600560a21b1860148301526034820190529056fea26469706673582212209a5a2453b228444c52f1a589c10b2308d855d95578bfa61a6b784d97d99b645a64736f6c63430007010033",
  "immutableReferences": {},
  "source": "pragma solidity ^0.7.1;\n//SPDX-License-Identifier: UNLICENSED\n\nlibrary BytesLib {\n    function concat(\n        bytes memory _preBytes,\n        bytes memory _postBytes\n    )\n    internal\n    pure\n    returns (bytes memory)\n    {\n        bytes memory tempBytes;\n\n        assembly {\n            // Get a location of some free memory and store it in tempBytes as\n            // Solidity does for memory variables.\n            tempBytes := mload(0x40)\n\n            // Store the length of the first bytes array at the beginning of\n            // the memory for tempBytes.\n            let length := mload(_preBytes)\n            mstore(tempBytes, length)\n\n            // Maintain a memory counter for the current write location in the\n            // temp bytes array by adding the 32 bytes for the array length to\n            // the starting location.\n            let mc := add(tempBytes, 0x20)\n            // Stop copying when the memory counter reaches the length of the\n            // first bytes array.\n            let end := add(mc, length)\n\n            for {\n                // Initialize a copy counter to the start of the _preBytes data,\n                // 32 bytes into its memory.\n                let cc := add(_preBytes, 0x20)\n            } lt(mc, end) {\n                // Increase both counters by 32 bytes each iteration.\n                mc := add(mc, 0x20)\n                cc := add(cc, 0x20)\n            } {\n                // Write the _preBytes data into the tempBytes memory 32 bytes\n                // at a time.\n                mstore(mc, mload(cc))\n            }\n\n            // Add the length of _postBytes to the current length of tempBytes\n            // and store it as the new length in the first 32 bytes of the\n            // tempBytes memory.\n            length := mload(_postBytes)\n            mstore(tempBytes, add(length, mload(tempBytes)))\n\n            // Move the memory counter back from a multiple of 0x20 to the\n            // actual end of the _preBytes data.\n            mc := end\n            // Stop copying when the memory counter reaches the new combined\n            // length of the arrays.\n            end := add(mc, length)\n\n            for {\n                let cc := add(_postBytes, 0x20)\n            } lt(mc, end) {\n                mc := add(mc, 0x20)\n                cc := add(cc, 0x20)\n            } {\n                mstore(mc, mload(cc))\n            }\n\n            // Update the free-memory pointer by padding our last write location\n            // to 32 bytes: add 31 bytes to the end of tempBytes to move to the\n            // next 32 byte block, then round down to the nearest multiple of\n            // 32. If the sum of the length of the two arrays is zero then add\n            // one before rounding down to leave a blank 32 bytes (the length block with 0).\n            mstore(0x40, and(\n              add(add(end, iszero(add(length, mload(_preBytes)))), 31),\n              not(31) // Round down to the nearest 32 bytes.\n            ))\n        }\n\n        return tempBytes;\n    }\n\n    function slice(\n        bytes memory _bytes,\n        uint _start,\n        uint _length\n    )\n    internal\n    pure\n    returns (bytes memory)\n    {\n        require(_bytes.length >= (_start + _length));\n\n        bytes memory tempBytes;\n\n        assembly {\n            switch iszero(_length)\n            case 0 {\n                // Get a location of some free memory and store it in tempBytes as\n                // Solidity does for memory variables.\n                tempBytes := mload(0x40)\n\n                // The first word of the slice result is potentially a partial\n                // word read from the original array. To read it, we calculate\n                // the length of that partial word and start copying that many\n                // bytes into the array. The first word we copy will start with\n                // data we don't care about, but the last `lengthmod` bytes will\n                // land at the beginning of the contents of the new array. When\n                // we're done copying, we overwrite the full first word with\n                // the actual length of the slice.\n                let lengthmod := and(_length, 31)\n\n                // The multiplication in the next line is necessary\n                // because when slicing multiples of 32 bytes (lengthmod == 0)\n                // the following copy loop was copying the origin's length\n                // and then ending prematurely not copying everything it should.\n                let mc := add(add(tempBytes, lengthmod), mul(0x20, iszero(lengthmod)))\n                let end := add(mc, _length)\n\n                for {\n                    // The multiplication in the next line has the same exact purpose\n                    // as the one above.\n                    let cc := add(add(add(_bytes, lengthmod), mul(0x20, iszero(lengthmod))), _start)\n                } lt(mc, end) {\n                    mc := add(mc, 0x20)\n                    cc := add(cc, 0x20)\n                } {\n                    mstore(mc, mload(cc))\n                }\n\n                mstore(tempBytes, _length)\n\n                //update free-memory pointer\n                //allocating the array padded to 32 bytes like the compiler does now\n                mstore(0x40, and(add(mc, 31), not(31)))\n            }\n            //if we want a zero-length slice let's just return a zero-length array\n            default {\n                tempBytes := mload(0x40)\n\n                mstore(0x40, add(tempBytes, 0x20))\n            }\n        }\n\n        return tempBytes;\n    }\n\n    // Pad a bytes array to 32 bytes\n    function leftPad(bytes memory _bytes) internal pure returns (bytes memory ) {\n      bytes memory newBytes = new bytes(32 - _bytes.length);\n      return concat(newBytes, _bytes);\n    }\n\n    function toBytes32(bytes memory _bytes, uint _start) internal  pure returns (bytes32) {\n        require(_bytes.length >= (_start + 32));\n        bytes32 tempBytes32;\n\n        assembly {\n            tempBytes32 := mload(add(add(_bytes, 0x20), _start))\n        }\n\n        return tempBytes32;\n    }\n\n    //@note: from answer on:\n    //https://ethereum.stackexchange.com/questions/884/how-to-convert-an-address-to-bytes-in-solidity\n    function fromAddress(address a) public pure returns (bytes memory b) {\n        assembly {\n            let m := mload(0x40)\n            a := and(a, 0xFFFFFFFFFFFFFFFFFFFFFFFFFFFFFFFFFFFFFFFF)\n            mstore(add(m, 20), xor(0x140000000000000000000000000000000000000000, a))\n            mstore(0x40, add(m, 52))\n            b := m\n        }\n    }\n//    function toBytes32(bytes b) internal pure returns (bytes32) {\n//      bytes32 out;\n//      for (uint i = 0; i < 32; i++) {\n//        out |= bytes32(b[i] & 0xFF) >> (i * 8);\n//      }\n//      return out;\n//    }\n\n    function fromBytes32(bytes32 x) internal pure returns (bytes memory ) {\n      bytes memory b = new bytes(32);\n      for (uint i = 0; i < 32; i++) {\n        b[i] = byte(uint8(uint(x) / (2**(8*(19 - i)))));\n      }\n      return b;\n    }\n\n    function toUint(bytes memory _bytes, uint _start) internal pure returns (uint256) {\n      require(_bytes.length >= (_start + 32));\n      uint256 tempUint;\n      assembly {\n        tempUint := mload(add(add(_bytes, 0x20), _start))\n      }\n\n      return tempUint;\n    }\n\n    function toAddress(bytes memory _bytes, uint _start) internal pure returns (address) {\n        require(_bytes.length >= (_start + 20));\n        address tempAddress;\n\n        assembly {\n            tempAddress := div(mload(add(add(_bytes, 0x20), _start)), 0x1000000000000000000000000)\n        }\n\n        return tempAddress;\n    }\n}\n",
  "sourcePath": "/opt/shyft-ta-node/contracts/Libraries/BytesLib.sol",
  "compiler": {
    "name": "solc",
    "version": "0.7.1+commit.f4a555be.Emscripten.clang"
  },
  "schemaVersion": "3.3.4",
  "updatedAt": "2021-09-16T18:31:15.337Z",
  "devdoc": {
    "kind": "dev",
    "methods": {},
    "version": 1
  },
  "userdoc": {
    "kind": "user",
    "methods": {},
    "version": 1
  }
}