{
  "contractName": "CuratedBinding",
  "abi": [
    {
      "inputs": [],
      "stateMutability": "nonpayable",
      "type": "constructor"
    },
    {
      "anonymous": false,
      "inputs": [
        {
          "indexed": false,
          "internalType": "address",
          "name": "_admin",
          "type": "address"
        }
      ],
      "name": "EVT_AdminPromoted",
      "type": "event"
    },
    {
      "anonymous": false,
      "inputs": [
        {
          "indexed": false,
          "internalType": "address",
          "name": "_admin",
          "type": "address"
        }
      ],
      "name": "EVT_AdminRevoked",
      "type": "event"
    },
    {
      "anonymous": false,
      "inputs": [
        {
          "indexed": false,
          "internalType": "address",
          "name": "_admin",
          "type": "address"
        }
      ],
      "name": "EVT_PrimaryAdminAdded",
      "type": "event"
    },
    {
      "inputs": [
        {
          "internalType": "uint32",
          "name": "_proposalIndex",
          "type": "uint32"
        }
      ],
      "name": "changeCurrentAdminConfirmationThreshold",
      "outputs": [
        {
          "internalType": "uint8",
          "name": "result",
          "type": "uint8"
        }
      ],
      "stateMutability": "nonpayable",
      "type": "function"
    },
    {
      "inputs": [
        {
          "internalType": "address",
          "name": "_administratorAddress",
          "type": "address"
        }
      ],
      "name": "getAdminAccess",
      "outputs": [
        {
          "internalType": "enum Administrable.AdministratorAccess",
          "name": "result",
          "type": "uint8"
        }
      ],
      "stateMutability": "view",
      "type": "function"
    },
    {
      "inputs": [
        {
          "internalType": "uint32",
          "name": "_proposalIndex",
          "type": "uint32"
        }
      ],
      "name": "getAdminConfirmationProposal",
      "outputs": [
        {
          "internalType": "uint256",
          "name": "adminThreshold",
          "type": "uint256"
        },
        {
          "internalType": "uint256",
          "name": "endTime",
          "type": "uint256"
        },
        {
          "internalType": "bool",
          "name": "isCompleted",
          "type": "bool"
        }
      ],
      "stateMutability": "view",
      "type": "function"
    },
    {
      "inputs": [],
      "name": "getAdminConfirmationThreshold",
      "outputs": [
        {
          "internalType": "uint256",
          "name": "results",
          "type": "uint256"
        }
      ],
      "stateMutability": "view",
      "type": "function"
    },
    {
      "inputs": [],
      "name": "getNumAdminConfirmationProposals",
      "outputs": [
        {
          "internalType": "uint256",
          "name": "result",
          "type": "uint256"
        }
      ],
      "stateMutability": "view",
      "type": "function"
    },
    {
      "inputs": [
        {
          "internalType": "address",
          "name": "_administratorAddress",
          "type": "address"
        }
      ],
      "name": "isAdministrator",
      "outputs": [
        {
          "internalType": "bool",
          "name": "result",
          "type": "bool"
        }
      ],
      "stateMutability": "view",
      "type": "function"
    },
    {
      "inputs": [],
      "name": "numAdministrators",
      "outputs": [
        {
          "internalType": "uint256",
          "name": "",
          "type": "uint256"
        }
      ],
      "stateMutability": "view",
      "type": "function"
    },
    {
      "inputs": [],
      "name": "owner",
      "outputs": [
        {
          "internalType": "address",
          "name": "",
          "type": "address"
        }
      ],
      "stateMutability": "view",
      "type": "function"
    },
    {
      "inputs": [
        {
          "internalType": "address",
          "name": "_newAdministratorAddress",
          "type": "address"
        }
      ],
      "name": "promoteAdministrator",
      "outputs": [
        {
          "internalType": "uint8",
          "name": "result",
          "type": "uint8"
        }
      ],
      "stateMutability": "nonpayable",
      "type": "function"
    },
    {
      "inputs": [
        {
          "internalType": "uint256",
          "name": "_newThreshold",
          "type": "uint256"
        }
      ],
      "name": "proposeChangeCurrentAdminConfirmationThreshold",
      "outputs": [
        {
          "internalType": "uint8",
          "name": "result",
          "type": "uint8"
        }
      ],
      "stateMutability": "nonpayable",
      "type": "function"
    },
    {
      "inputs": [
        {
          "internalType": "address",
          "name": "_revokeAdministratorAddress",
          "type": "address"
        }
      ],
      "name": "revokeAdministrator",
      "outputs": [
        {
          "internalType": "uint8",
          "name": "result",
          "type": "uint8"
        }
      ],
      "stateMutability": "nonpayable",
      "type": "function"
    },
    {
      "inputs": [
        {
          "internalType": "address",
          "name": "_newAdministratorAddress",
          "type": "address"
        }
      ],
      "name": "setPrimaryAdministrator",
      "outputs": [
        {
          "internalType": "uint8",
          "name": "result",
          "type": "uint8"
        }
      ],
      "stateMutability": "nonpayable",
      "type": "function"
    },
    {
      "inputs": [
        {
          "internalType": "bytes32",
          "name": "_merkleRoot",
          "type": "bytes32"
        },
        {
          "internalType": "uint256",
          "name": "_channelForm",
          "type": "uint256"
        }
      ],
      "name": "setHeader",
      "outputs": [
        {
          "internalType": "uint8",
          "name": "result",
          "type": "uint8"
        }
      ],
      "stateMutability": "nonpayable",
      "type": "function"
    },
    {
      "inputs": [
        {
          "internalType": "bytes32",
          "name": "_headerKeccak",
          "type": "bytes32"
        }
      ],
      "name": "getMerkleRootFromHeader",
      "outputs": [
        {
          "internalType": "bytes32",
          "name": "result",
          "type": "bytes32"
        }
      ],
      "stateMutability": "nonpayable",
      "type": "function"
    },
    {
      "inputs": [
        {
          "internalType": "bytes32",
          "name": "_headerKeccak",
          "type": "bytes32"
        }
      ],
      "name": "getChannelFormFromHeader",
      "outputs": [
        {
          "internalType": "uint256",
          "name": "result",
          "type": "uint256"
        }
      ],
      "stateMutability": "nonpayable",
      "type": "function"
    },
    {
      "inputs": [
        {
          "internalType": "bytes32",
          "name": "_headerKeccak",
          "type": "bytes32"
        }
      ],
      "name": "getTrustAnchorFromHeaderKeccak",
      "outputs": [
        {
          "internalType": "address",
          "name": "result",
          "type": "address"
        }
      ],
      "stateMutability": "nonpayable",
      "type": "function"
    }
  ],
  "bytecode": "0x60806040526002600055600c80546001600160a01b031916905534801561002557600080fd5b5060018054336001600160a01b0319918216811790911617905561108c8061004e6000396000f3fe608060405234801561001057600080fd5b50600436106100ff5760003560e01c80636f17c08a11610097578063c7e777cf11610066578063c7e777cf146102c9578063d9af51e3146102ec578063f3e512d314610333578063f5d51b0d1461033b576100ff565b80636f17c08a1461025d5780637a303a9c146102965780638da5cb5b1461029e578063b9568dd8146102a6576100ff565b80633370426d116100d35780633370426d146101e35780634402bba3146101fd57806349d2225014610223578063597801f014610240576100ff565b8062913af614610104578063064ad7c2146101475780630a2eb3011461018357806323dfe730146101bd575b600080fd5b6101276004803603602081101561011a57600080fd5b503563ffffffff16610358565b604080519384526020840192909252151582820152519081900360600190f35b61016d6004803603602081101561015d57600080fd5b50356001600160a01b03166103df565b6040805160ff9092168252519081900360200190f35b6101a96004803603602081101561019957600080fd5b50356001600160a01b0316610483565b604080519115158252519081900360200190f35b61016d600480360360208110156101d357600080fd5b50356001600160a01b03166104be565b6101eb610726565b60408051918252519081900360200190f35b61016d6004803603602081101561021357600080fd5b50356001600160a01b031661072c565b61016d6004803603602081101561023957600080fd5b5035610905565b6101eb6004803603602081101561025657600080fd5b50356109e7565b61027a6004803603602081101561027357600080fd5b50356109f9565b604080516001600160a01b039092168252519081900360200190f35b6101eb610a14565b61027a610a1a565b61016d600480360360208110156102bc57600080fd5b503563ffffffff16610a29565b61016d600480360360408110156102df57600080fd5b5080359060200135610bf0565b6103126004803603602081101561030257600080fd5b50356001600160a01b0316610d0a565b6040518082600281111561032257fe5b815260200191505060405180910390f35b6101eb610d28565b6101eb6004803603602081101561035157600080fd5b5035610d2e565b600080600060068463ffffffff168154811061037057fe5b90600052602060002090600302016000015460068563ffffffff168154811061039557fe5b90600052602060002090600302016001015460068663ffffffff16815481106103ba57fe5b6000918252602090912060026003909202010154919450925060ff1690509193909250565b6001546000906001600160a01b031633141561047a57600354610472576001600160a01b038216600090815260026020526040902080546001919060ff191682800217905550600380546001019055604080516001600160a01b038416815290517f1767f5d6fdb0884c185778bf3ba4d303dc6af28da0798c96577f7c5450631d8b9181900360200190a150600261047e565b50600161047e565b5060005b919050565b600060016001600160a01b03831660009081526002602081905260409091205460ff16908111156104b057fe5b141561047a5750600161047e565b60006104c933610483565b1561047a5760016001600160a01b03831660009081526002602081905260409091205460ff16908111156104f957fe5b1461047257600260035410610673576040805173383937b6b7ba32a0b236b4b734b9ba3930ba37b960611b6020808301919091526bffffffffffffffffffffffff19606086901b1660348301528251602881840301815260489092019092528051910120600061056882610d40565b905060008054821061057c57506001610599565b600061058784610d65565b9050600054811061059757600191505b505b60018115151415610667576001600160a01b0385166000908152600260205260409020805460ff191660019081179091556003805490910190556105dc83610e6f565b5061061f426040516020018080671c1c9bdb5bdd195960c21b81525060080182815260200191505060405160208183030381529060405280519060200120610f6e565b604080516001600160a01b038716815290517f7f477eb04f5a964ab231fdc42872d9356c3010171ed2c961d9166f49239786979181900360200190a16002935050505061047e565b6003935050505061047e565b6001600160a01b038216600090815260026020908152604091829020805460ff191660019081179091556003805490910190558151671c1c9bdb5bdd195960c21b818301524260288083019190915283518083039091018152604890910190925281519101206106e290610f6e565b604080516001600160a01b038416815290517f7f477eb04f5a964ab231fdc42872d9356c3010171ed2c961d9166f49239786979181900360200190a150600261047e565b60065490565b600061073733610483565b1561047a5760016001600160a01b03831660009081526002602081905260409091205460ff169081111561076757fe5b141561047257604080517f61646d696e697374726174696f6e5265766f636174696f6e566f7465000000006020808301919091526bffffffffffffffffffffffff19606086901b16603c830152825160308184030181526050909201909252805191012060006107d682610d40565b90506000805482106107ea57506001610807565b60006107f584610d65565b9050600054811061080557600191505b505b600181151514156108f9576001600160a01b038516600090815260026020818152604092839020805460ff1916909217909155600380546000190190558151661c995d9bdad95960ca1b8183015242602780830191909152835180830390910181526047909101909252815191012061087f90610f6e565b60005460035410156108a757600260035411156108a1576003546000556108a7565b60026000555b6108b083610e6f565b50604080516001600160a01b038716815290517f79830203ee788345fbc4b7afa193ed483738eaecd94975fa1fa50c09c9a5be1f9181900360200190a16003935050505061047e565b6002935050505061047e565b600061091033610483565b1561047a5760008211801561092757506003548211155b1561047257610934610fd7565b828152426202a30001602082019081526006805460018101825560009190915282517ff652222313e28459528d920b65115c16c04f3efc82aaedc97be59f3f377c0d3f60039092029182015590517ff652222313e28459528d920b65115c16c04f3efc82aaedc97be59f3f377c0d408201556040909101517ff652222313e28459528d920b65115c16c04f3efc82aaedc97be59f3f377c0d41909101805460ff191691151591909117905550600261047e565b60009081526008602052604090205490565b6000908152600b60205260409020546001600160a01b031690565b60005490565b6001546001600160a01b031681565b6000610a3433610483565b1561047a5760065463ffffffff831610156104725760035460068363ffffffff1681548110610a5f57fe5b90600052602060002090600302016000015411610be85760068263ffffffff1681548110610a8957fe5b600091825260209091206002600390920201015460ff16158015610ad1575060068263ffffffff1681548110610abb57fe5b9060005260206000209060030201600101544211155b15610be0576000826040516020018080611035602291396022018263ffffffff1660e01b81526004019150506040516020818303038152906040528051906020012090506000610b2082610d40565b9050600080548210610b3457506001610b51565b6000610b3f84610d65565b90506000548110610b4f57600191505b505b60018115151415610bd45760068563ffffffff1681548110610b6f57fe5b906000526020600020906003020160000154600081905550600160068663ffffffff1681548110610b9c57fe5b60009182526020909120600390910201600201805460ff1916911515919091179055610bc783610e6f565b506005935050505061047e565b6004935050505061047e565b50600361047e565b50600261047e565b600c5460408051633cff017d60e21b815233600482015290516000926001600160a01b031691829163f3fc05f491602480820192602092909190829003018186803b158015610c3e57600080fd5b505afa158015610c52573d6000803e3d6000fd5b505050506040513d6020811015610c6857600080fd5b505115610cfe5750506040805133606081901b6020808401919091526034808401879052845180850390910181526054909301845282519281019290922060008181526008845284812087905560098452848120869055828152600a845284812080546001818101835591835285832001889055918152600b9093529290912080546001600160a01b0319169091179055610d04565b60009150505b92915050565b6001600160a01b031660009081526002602052604090205460ff1690565b60035481565b60009081526009602052604090205490565b600080610d4c83610fa8565b6000908152600460205260409020600201549392505050565b6000610d7033610483565b1561047a576000610d8083610fa8565b600354600082815260046020526040902060020154919250118015610dfb5750600081815260046020908152604080832033845290915281205460ff166003811115610dc857fe5b1480610dfb57506003600082815260046020908152604080832033845290915290205460ff166003811115610df957fe5b145b15610e56576000818152600460208181526040808420600281018054600190810190915533808752828552928620805460ff191682179055938352830180549384018155845292200180546001600160a01b03191690911790555b600090815260046020526040902060020154905061047e565b6000610e7a33610483565b1561047a576000610e8a83610fa8565b60008181526004602052604090206002015490915015610f645760005b600082815260046020526040902060010154811015610f28576000828152600460205260408120600181018054600393919085908110610ee357fe5b60009182526020808320909101546001600160a01b031683528201929092526040019020805460ff19166001836003811115610f1b57fe5b0217905550600101610ea7565b506000818152600460205260408120610f4691600190910190610ffa565b6000908152600460205260408120600290810191909155905061047e565b600191505061047e565b6005548160405160200180838152602001828152602001925050506040516020818303038152906040528051906020012060058190555050565b600554604080516020808201939093528082019390935280518084038201815260609093019052815191012090565b604051806060016040528060008152602001600081526020016000151581525090565b5080546000825590600052602060002090810190611018919061101b565b50565b5b80821115611030576000815560010161101c565b509056fe61646d696e436f6e6669726d6174696f6e5468726573686f6c6450726f706f73616ca26469706673582212206134b5181ab1ca1462483f0c1d966353cb94139dd831f439baf1613e6443a51364736f6c63430007010033",
  "immutableReferences": {},
  "source": "pragma solidity ^0.7.1;\n//SPDX-License-Identifier: UNLICENSED\n\nimport \"./Administrable.sol\";\nimport \"./Interfaces/ITrustAnchorManager.sol\";\nimport \"./Interfaces/ICuratedBinding.sol\";\n\ncontract CuratedBinding is Administrable, ICuratedBinding {\n\n    string name;\n    mapping(bytes32 => bytes32) merkleRoots;\n    mapping(bytes32 => uint256) channelForms;\n\n    mapping(address => bytes32[]) trustAnchorMerkleRootsArray;\n\n    //reverse mapping to get the trust anchor that proposed the a merkle header.\n    mapping(bytes32 => address) headerKeccakToTrustAnchorSourceMapping;\n\n    address trustAnchorManagerAddress = address(0);\n\n    constructor() {\n        owner = msg.sender;\n    }\n\n    //returns:\n    // false = not owner\n    // true = is owner\n\n    function isOwner() internal view returns (bool result) {\n        if (msg.sender == owner) {\n            //is owner\n            return true;\n        } else {\n            //not owner\n            return false;\n        }\n    }\n\n    //returns:\n    // 0 = trust anchor is not verified\n    // 1 = set header correctly\n\n    function setHeader(bytes32 _merkleRoot, uint256 _channelForm) public override returns (uint8 result) {\n        ITrustAnchorManager trustAnchorManager = ITrustAnchorManager(trustAnchorManagerAddress);\n\n        if (trustAnchorManager.isTrustAnchorVerified(msg.sender)) {\n            bytes32 headerKeccak = keccak256(abi.encodePacked(msg.sender, _merkleRoot));\n\n            merkleRoots[headerKeccak] = _merkleRoot;\n            channelForms[headerKeccak] = _channelForm;\n\n            trustAnchorMerkleRootsArray[msg.sender].push(_merkleRoot);\n\n            headerKeccakToTrustAnchorSourceMapping[headerKeccak] = msg.sender;\n\n            //set header correctly\n            return 1;\n        } else {\n            //trust anchor is not verified\n            return 0;\n        }\n    }\n\n    //returns:\n    // n = merkle header for hash\n    function getMerkleRootFromHeader(bytes32 _headerKeccak) public override returns (bytes32 result) {\n        return merkleRoots[_headerKeccak];\n    }\n\n    //returns:\n    // n = channel form for hash\n    function getChannelFormFromHeader(bytes32 _headerKeccak) public override returns (uint256 result) {\n        return channelForms[_headerKeccak];\n    }\n\n    function getTrustAnchorFromHeaderKeccak(bytes32 _headerKeccak) public override returns (address result) {\n        return headerKeccakToTrustAnchorSourceMapping[_headerKeccak];\n    }\n}\n",
  "sourcePath": "/opt/shyft-ta-node/contracts/CuratedBinding.sol",
  "compiler": {
    "name": "solc",
    "version": "0.7.1+commit.f4a555be.Emscripten.clang"
  },
  "schemaVersion": "3.3.4",
  "updatedAt": "2021-09-16T18:31:15.229Z",
  "devdoc": {
    "kind": "dev",
    "methods": {
      "changeCurrentAdminConfirmationThreshold(uint32)": {
        "details": "| This function takes in an index for a proposal ot change the current administrator confirmation threshold.      | Uses Multi-signature permissions.",
        "params": {
          "_proposalIndex": "The index for a specific proposal to change the current administrator confirmation threshold."
        },
        "returns": {
          "result": "   | 0 = not an administrator    | 1 = invalid proposal index    | 2 = not enough administrators to achieve confirmation threshold    | 3 = proposal has expired    | 4 = not enough administrators have permissioned change    | 5 = admin confirmation threshold set"
        }
      },
      "getAdminAccess(address)": {
        "details": "Gets the level of access for a specific administrator.",
        "returns": {
          "result": "the level of access for this administrator"
        }
      },
      "getAdminConfirmationProposal(uint32)": {
        "details": "Gets the components of a specific NofM change proposal.",
        "params": {
          "_proposalIndex": "A proposal index"
        },
        "returns": {
          "adminThreshold": "the threshold of the NofM voting within this proposal",
          "endTime": "the end time of this proposal, after which it cannot be voted on",
          "isCompleted": "whether this proposal has been completed by multisig parties"
        }
      },
      "getAdminConfirmationThreshold()": {
        "details": "Gets the NofM threshold currently required for passing multisig votes.",
        "returns": {
          "results": "the current NofM threshold"
        }
      },
      "getNumAdminConfirmationProposals()": {
        "details": "Gets the number of a specific NofM change proposal.",
        "returns": {
          "result": "the number of a specific NofM proposals"
        }
      },
      "isAdministrator(address)": {
        "details": "Returns whether a given address is an administrator.",
        "params": {
          "_administratorAddress": "The public address of a specific administrator."
        },
        "returns": {
          "result": "   | true = is administrator    | false = either administrator unset or demoted"
        }
      },
      "promoteAdministrator(address)": {
        "details": "| Promotes a new administrator. If there is only a primary Administrator set, this will allow the addition of the second administrator and enable multisignature requirements for any actions of this contract (or those inheriting it).      | Uses Multi-signature permissions if there is more than one Administrator onboarded.",
        "params": {
          "_newAdministratorAddress": "The new Administrator's public address."
        },
        "returns": {
          "result": "   | 0 = not administrator    | 1 = administrator already promoted    | 2 = new administrator promoted    | 3 = added vote to promote administrator"
        }
      },
      "proposeChangeCurrentAdminConfirmationThreshold(uint256)": {
        "details": "This function proposes a change to the threshold of voting required (N signatories of M total set size = NofM). To prevent stale inattention results, timeout after 2 days.",
        "params": {
          "_newThreshold": "The new threshold (N of M multisig) that is needed to be passed."
        },
        "returns": {
          "result": "   | 0 = not an administrator    | 1 = not enough administrators to achieve confirmation threshold    | 2 = new proposal added"
        }
      },
      "revokeAdministrator(address)": {
        "details": "| Revokes an existing administrator from the multisignature set, checks to see if the # of required votes would be higher then the administrator set size, and if so adjusts to match.      | Uses Multi-signature permissions if there is more than one Administrator onboarded.",
        "params": {
          "_revokeAdministratorAddress": "An existing Administrator's public address."
        },
        "returns": {
          "result": "result"
        }
      },
      "setPrimaryAdministrator(address)": {
        "details": "Sets the primary Administrator for this contract (or those that inherit from it). This transfers ownership of this contracts first administration duties (to find and onboard a second party for multisignature requirements) to the set Administrator's public address.",
        "params": {
          "_newAdministratorAddress": "The new Administrator's public address."
        },
        "returns": {
          "result": "   | 0 = not owner    | 1 = already set first administrator    | 2 = setup first administrator"
        }
      }
    },
    "version": 1
  },
  "userdoc": {
    "kind": "user",
    "methods": {
      "changeCurrentAdminConfirmationThreshold(uint32)": {
        "notice": "Multiple proposals can be constructed for different sets to apply to change the administrator threshold. As the permissions for multisig keys use a voting set nonce underneath the hood, a change in the current administrator set will cancel all current votes."
      },
      "promoteAdministrator(address)": {
        "notice": "| Uses composition features (based on current validator set) so data structure may be orphaned when promotion/demotion events occur.         | Whenever this function is called (with a passing vote), there will be a re-hashing of the voting set nonce, so all current votes will become invalidated."
      },
      "revokeAdministrator(address)": {
        "notice": "| Uses composition features (based on current validator set) so data structure may be orphaned when promotion/demotion events occur.         | Whenever this function is called (with a passing vote), there will be a re-hashing of the voting set nonce, so all current votes will become invalidated."
      }
    },
    "version": 1
  }
}