{
  "contractName": "Erc223Reference",
  "abi": [
    {
      "inputs": [
        {
          "internalType": "uint256",
          "name": "_initialAmount",
          "type": "uint256"
        },
        {
          "internalType": "string",
          "name": "_tokenName",
          "type": "string"
        },
        {
          "internalType": "uint8",
          "name": "_decimalUnits",
          "type": "uint8"
        },
        {
          "internalType": "string",
          "name": "_tokenSymbol",
          "type": "string"
        }
      ],
      "stateMutability": "nonpayable",
      "type": "constructor"
    },
    {
      "anonymous": false,
      "inputs": [
        {
          "indexed": false,
          "internalType": "address",
          "name": "_to",
          "type": "address"
        },
        {
          "indexed": false,
          "internalType": "uint256",
          "name": "_value",
          "type": "uint256"
        },
        {
          "indexed": false,
          "internalType": "bytes",
          "name": "_data",
          "type": "bytes"
        },
        {
          "indexed": false,
          "internalType": "bytes4",
          "name": "shyftConduitSig",
          "type": "bytes4"
        },
        {
          "indexed": false,
          "internalType": "bytes4",
          "name": "sig",
          "type": "bytes4"
        }
      ],
      "name": "EVT_transferredToConduitCustody",
      "type": "event"
    },
    {
      "anonymous": false,
      "inputs": [
        {
          "indexed": true,
          "internalType": "address",
          "name": "from",
          "type": "address"
        },
        {
          "indexed": true,
          "internalType": "address",
          "name": "to",
          "type": "address"
        },
        {
          "indexed": false,
          "internalType": "uint256",
          "name": "value",
          "type": "uint256"
        },
        {
          "indexed": true,
          "internalType": "bytes",
          "name": "data",
          "type": "bytes"
        }
      ],
      "name": "Transfer",
      "type": "event"
    },
    {
      "inputs": [],
      "name": "decimals",
      "outputs": [
        {
          "internalType": "uint8",
          "name": "",
          "type": "uint8"
        }
      ],
      "stateMutability": "view",
      "type": "function"
    },
    {
      "inputs": [],
      "name": "name",
      "outputs": [
        {
          "internalType": "string",
          "name": "",
          "type": "string"
        }
      ],
      "stateMutability": "view",
      "type": "function"
    },
    {
      "inputs": [],
      "name": "owner",
      "outputs": [
        {
          "internalType": "address",
          "name": "",
          "type": "address"
        }
      ],
      "stateMutability": "view",
      "type": "function"
    },
    {
      "inputs": [],
      "name": "symbol",
      "outputs": [
        {
          "internalType": "string",
          "name": "",
          "type": "string"
        }
      ],
      "stateMutability": "view",
      "type": "function"
    },
    {
      "inputs": [],
      "name": "tokenPurchaseMultiplier",
      "outputs": [
        {
          "internalType": "uint256",
          "name": "",
          "type": "uint256"
        }
      ],
      "stateMutability": "view",
      "type": "function"
    },
    {
      "stateMutability": "payable",
      "type": "receive"
    },
    {
      "inputs": [],
      "name": "totalSupply",
      "outputs": [
        {
          "internalType": "uint256",
          "name": "",
          "type": "uint256"
        }
      ],
      "stateMutability": "view",
      "type": "function"
    },
    {
      "inputs": [
        {
          "internalType": "address",
          "name": "_address",
          "type": "address"
        }
      ],
      "name": "getIsTokenContractWhiteListed",
      "outputs": [
        {
          "internalType": "bool",
          "name": "result",
          "type": "bool"
        }
      ],
      "stateMutability": "view",
      "type": "function"
    },
    {
      "inputs": [
        {
          "internalType": "address",
          "name": "_address",
          "type": "address"
        },
        {
          "internalType": "bool",
          "name": "_isWhiteListed",
          "type": "bool"
        }
      ],
      "name": "setIsTokenContractWhiteListed",
      "outputs": [
        {
          "internalType": "bool",
          "name": "result",
          "type": "bool"
        }
      ],
      "stateMutability": "nonpayable",
      "type": "function"
    },
    {
      "inputs": [
        {
          "internalType": "address",
          "name": "_to",
          "type": "address"
        },
        {
          "internalType": "uint256",
          "name": "_value",
          "type": "uint256"
        }
      ],
      "name": "transfer",
      "outputs": [
        {
          "internalType": "bool",
          "name": "success",
          "type": "bool"
        }
      ],
      "stateMutability": "nonpayable",
      "type": "function"
    },
    {
      "inputs": [
        {
          "internalType": "address",
          "name": "_to",
          "type": "address"
        },
        {
          "internalType": "uint256",
          "name": "_value",
          "type": "uint256"
        },
        {
          "internalType": "bytes",
          "name": "_data",
          "type": "bytes"
        }
      ],
      "name": "transfer",
      "outputs": [
        {
          "internalType": "bool",
          "name": "success",
          "type": "bool"
        }
      ],
      "stateMutability": "nonpayable",
      "type": "function"
    },
    {
      "inputs": [
        {
          "internalType": "address",
          "name": "_to",
          "type": "address"
        },
        {
          "internalType": "uint256",
          "name": "_value",
          "type": "uint256"
        },
        {
          "internalType": "bytes",
          "name": "_data",
          "type": "bytes"
        },
        {
          "internalType": "string",
          "name": "_custom_fallback",
          "type": "string"
        }
      ],
      "name": "transfer",
      "outputs": [
        {
          "internalType": "bool",
          "name": "success",
          "type": "bool"
        }
      ],
      "stateMutability": "nonpayable",
      "type": "function"
    },
    {
      "inputs": [
        {
          "internalType": "address",
          "name": "_owner",
          "type": "address"
        }
      ],
      "name": "balanceOf",
      "outputs": [
        {
          "internalType": "uint256",
          "name": "balance",
          "type": "uint256"
        }
      ],
      "stateMutability": "view",
      "type": "function"
    },
    {
      "inputs": [
        {
          "internalType": "address",
          "name": "_to",
          "type": "address"
        },
        {
          "internalType": "uint256",
          "name": "_value",
          "type": "uint256"
        },
        {
          "internalType": "bytes",
          "name": "_data",
          "type": "bytes"
        }
      ],
      "name": "tokenFallback",
      "outputs": [
        {
          "internalType": "bool",
          "name": "ok",
          "type": "bool"
        }
      ],
      "stateMutability": "nonpayable",
      "type": "function"
    }
  ],
  "bytecode": "0x60c060405260056080819052642a37b5b2b760d91b60a090815262000028916001919062000293565b50604080518082019091526003808252622a25a760e91b6020909201918252620000559160029162000293565b506003805460ff1916601217905560016005556008805463ce034ca363ffffffff199091161790553480156200008a57600080fd5b50604051620014883803806200148883398181016040526080811015620000b057600080fd5b815160208301805160405192949293830192919084640100000000821115620000d857600080fd5b908301906020820185811115620000ee57600080fd5b82516401000000008111828201881017156200010957600080fd5b82525081516020918201929091019080838360005b83811015620001385781810151838201526020016200011e565b50505050905090810190601f168015620001665780820380516001836020036101000a031916815260200191505b506040818152602083015192018051929491939192846401000000008211156200018f57600080fd5b908301906020820185811115620001a557600080fd5b8251640100000000811182820188101715620001c057600080fd5b82525081516020918201929091019080838360005b83811015620001ef578181015183820152602001620001d5565b50505050905090810190601f1680156200021d5780820380516001836020036101000a031916815260200191505b50604090815233600090815260208181529190208890556004889055865162000250945060019350908701915062000293565b506003805460ff191660ff841617905580516200027590600290602084019062000293565b5050600680546001600160a01b03191633179055506200032f915050565b828054600181600116156101000203166002900490600052602060002090601f016020900481019282601f10620002d657805160ff191683800117855562000306565b8280016001018555821562000306579182015b8281111562000306578251825591602001919060010190620002e9565b506200031492915062000318565b5090565b5b8082111562000314576000815560010162000319565b611149806200033f6000396000f3fe6080604052600436106100c65760003560e01c806395d89b411161007f578063c0ee0b8a11610059578063c0ee0b8a146103a4578063eafcf5881461046a578063f17f2f111461049d578063f6368f8a146104d857610122565b806395d89b411461027c578063a9059cbb14610291578063be45fd62146102de57610122565b806306fdde031461012757806318160ddd146101b15780631c9da82c146101d8578063313ce567146101ed57806370a08231146102185780638da5cb5b1461024b57610122565b366101225760006100e26005543461062390919063ffffffff16565b336000908152602081905260409020549091506100ff9082610653565b3360009081526020819052604090205560045461011c9082610653565b60045550005b600080fd5b34801561013357600080fd5b5061013c610665565b6040805160208082528351818301528351919283929083019185019080838360005b8381101561017657818101518382015260200161015e565b50505050905090810190601f1680156101a35780820380516001836020036101000a031916815260200191505b509250505060405180910390f35b3480156101bd57600080fd5b506101c66106f2565b60408051918252519081900360200190f35b3480156101e457600080fd5b506101c66106f8565b3480156101f957600080fd5b506102026106fe565b6040805160ff9092168252519081900360200190f35b34801561022457600080fd5b506101c66004803603602081101561023b57600080fd5b50356001600160a01b0316610707565b34801561025757600080fd5b50610260610722565b604080516001600160a01b039092168252519081900360200190f35b34801561028857600080fd5b5061013c610731565b34801561029d57600080fd5b506102ca600480360360408110156102b457600080fd5b506001600160a01b038135169060200135610789565b604080519115158252519081900360200190f35b3480156102ea57600080fd5b506102ca6004803603606081101561030157600080fd5b6001600160a01b0382351691602081013591810190606081016040820135600160201b81111561033057600080fd5b82018360208201111561034257600080fd5b803590602001918460018302840111600160201b8311171561036357600080fd5b91908080601f0160208091040260200160405190810160405280939291908181526020018383808284376000920191909152509295506107b9945050505050565b3480156103b057600080fd5b506102ca600480360360608110156103c757600080fd5b6001600160a01b0382351691602081013591810190606081016040820135600160201b8111156103f657600080fd5b82018360208201111561040857600080fd5b803590602001918460018302840111600160201b8311171561042957600080fd5b91908080601f0160208091040260200160405190810160405280939291908181526020018383808284376000920191909152509295506107ed945050505050565b34801561047657600080fd5b506102ca6004803603602081101561048d57600080fd5b50356001600160a01b0316610a51565b3480156104a957600080fd5b506102ca600480360360408110156104c057600080fd5b506001600160a01b0381351690602001351515610a6f565b3480156104e457600080fd5b506102ca600480360360808110156104fb57600080fd5b6001600160a01b0382351691602081013591810190606081016040820135600160201b81111561052a57600080fd5b82018360208201111561053c57600080fd5b803590602001918460018302840111600160201b8311171561055d57600080fd5b91908080601f0160208091040260200160405190810160405280939291908181526020018383808284376000920191909152509295949360208101935035915050600160201b8111156105af57600080fd5b8201836020820111156105c157600080fd5b803590602001918460018302840111600160201b831117156105e257600080fd5b91908080601f016020809104026020016040519081016040528093929190818152602001838380828437600092019190915250929550610ab8945050505050565b6000826106325750600061064d565b8282028284828161063f57fe5b041461064a57600080fd5b90505b92915050565b60008282018381101561064a57600080fd5b60018054604080516020600284861615610100026000190190941693909304601f810184900484028201840190925281815292918301828280156106ea5780601f106106bf576101008083540402835291602001916106ea565b820191906000526020600020905b8154815290600101906020018083116106cd57829003601f168201915b505050505081565b60045490565b60055481565b60035460ff1681565b6001600160a01b031660009081526020819052604090205490565b6006546001600160a01b031681565b6002805460408051602060018416156101000260001901909316849004601f810184900484028201840190925281815292918301828280156106ea5780601f106106bf576101008083540402835291602001916106ea565b6000606061079684610de0565b156107ae576107a6848483610de6565b91505061064d565b6107a6848483610fe4565b60006107c484610de0565b156107db576107d4848484610de6565b90506107e6565b6107d4848484610fe4565b9392505050565b3360009081526007602052604081205460ff16151560011415610a495760008260008151811061081957fe5b602001015160f81c60f81b6001600160f81b03191660e01c60088460018151811061084057fe5b016020015185516001600160f81b031990911690911c60e01c906010908690600290811061086a57fe5b016020015186516001600160f81b031990911690911c60e01c906018908790600390811061089457fe5b602001015160f81c60f81b6001600160f81b0319166001600160e01b031916901c60e01c01010160e01b90507f9c425042297c0693149ba696bae734ecff92cb6e1d372c71a1f482ae03db9d32858585600860009054906101000a900460e01b8560405180866001600160a01b0316815260200185815260200180602001846001600160e01b0319168152602001836001600160e01b0319168152602001828103825285818151815260200191508051906020019080838360005b8381101561096757818101518382015260200161094f565b50505050905090810190601f1680156109945780820380516001836020036101000a031916815260200191505b50965050505050505060405180910390a160085460e01b6001600160e01b03199081169082161415610a3f57336000908152602081905260409020548411610a3f57336000908152602081905260409020546109f090856110fe565b33600090815260208190526040808220929092556001600160a01b03871681522054610a1c9085610653565b6001600160a01b03861660009081526020819052604090205550600190506107e6565b60009150506107e6565b5060016107e6565b6001600160a01b031660009081526007602052604090205460ff1690565b6006546000906001600160a01b03163314610a8957600080fd5b506001600160a01b0382166000908152600760205260409020805482151560ff19909116179055600192915050565b6000610ac385610de0565b15610dca5783610ad233610707565b1015610add57600080fd5b33600090815260208190526040902054610af790856110fe565b33600090815260208190526040808220929092556001600160a01b03871681522054610b239085610653565b600080876001600160a01b03166001600160a01b0316815260200190815260200160002081905550846001600160a01b03166000836040516020018082805190602001908083835b60208310610b8a5780518252601f199092019160209182019101610b6b565b6001836020036101000a0380198251168184511680821785525050505050509050019150506040516020818303038152906040528051906020012033878760405160240180846001600160a01b0316815260200183815260200180602001828103825283818151815260200191508051906020019080838360005b83811015610c1d578181015183820152602001610c05565b50505050905090810190601f168015610c4a5780820380516001836020036101000a031916815260200191505b5060408051601f198184030181529181526020820180516001600160e01b03166001600160e01b031990991698909817885251815191979096508695509350915081905083835b60208310610cb05780518252601f199092019160209182019101610c91565b6001836020036101000a03801982511681845116808217855250505050505090500191505060006040518083038185875af1925050503d8060008114610d12576040519150601f19603f3d011682016040523d82523d6000602084013e610d17565b606091505b5090915050600181151514610d2b57600080fd5b826040518082805190602001908083835b60208310610d5b5780518252601f199092019160209182019101610d3c565b51815160209384036101000a6000190180199092169116179052604080519290940182900382208a835293519395506001600160a01b038b16945033937fe19260aff97b920c7df27010903aeb9c8d2be5d310a2c67824cf3f15396e4c169350918290030190a4506001610dd8565b610dd5858585610fe4565b90505b949350505050565b3b151590565b600082610df233610707565b1015610dfd57600080fd5b33600090815260208190526040902054610e1790846110fe565b33600090815260208190526040808220929092556001600160a01b03861681522054610e439084610653565b6001600160a01b03851660008181526020818152604080832094909455925163607705c560e11b81523360048201818152602483018990526060604484019081528851606485015288518b9763c0ee0b8a9694958c958c959493608490920192860191908190849084905b83811015610ec6578181015183820152602001610eae565b50505050905090810190601f168015610ef35780820380516001836020036101000a031916815260200191505b50945050505050602060405180830381600087803b158015610f1457600080fd5b505af1158015610f28573d6000803e3d6000fd5b505050506040513d6020811015610f3e57600080fd5b50506040518351849190819060208401908083835b60208310610f725780518252601f199092019160209182019101610f53565b51815160209384036101000a6000190180199092169116179052604080519290940182900382208a835293519395506001600160a01b038b16945033937fe19260aff97b920c7df27010903aeb9c8d2be5d310a2c67824cf3f15396e4c169350918290030190a4506001949350505050565b600082610ff033610707565b1015610ffb57600080fd5b3360009081526020819052604090205461101590846110fe565b33600090815260208190526040808220929092556001600160a01b038616815220546110419084610653565b6001600160a01b038516600090815260208181526040918290209290925551835184928291908401908083835b6020831061108d5780518252601f19909201916020918201910161106e565b51815160209384036101000a60001901801990921691161790526040805192909401829003822089835293519395506001600160a01b038a16945033937fe19260aff97b920c7df27010903aeb9c8d2be5d310a2c67824cf3f15396e4c169350918290030190a45060019392505050565b60008282111561110d57600080fd5b5090039056fea26469706673582212204efcf4ca25abcbdec60266584b04ac46042a2f10dab3aca68591079229e0fc0664736f6c63430007010033",
  "immutableReferences": {},
  "source": "pragma solidity ^0.7.1;\n//SPDX-License-Identifier: UNLICENSED\n\nimport \"../Interfaces/IErc223.sol\";\nimport \"../Libraries/SafeMath.sol\";\n\ncontract Erc223Reference is IErc223, IErc223ReceivingContract {\n    using SafeMath for uint256;\n\n    event EVT_transferredToConduitCustody(address _to, uint256 _value, bytes _data, bytes4 shyftConduitSig, bytes4 sig);\n\n    mapping(address => uint) balances;\n\n    string public name    = \"Token\";\n    string public symbol  = \"TKN\";\n    uint8 public decimals = 18;\n    uint256 thisTotalSupply;\n\n    uint256 public tokenPurchaseMultiplier = 1;\n\n    address public owner;\n\n    //adding a bit for contract whitelisting to flex the tokenFallback functionality a bit.\n    mapping (address => bool) tokenContractWhitelist;\n\n    //signature for triggering 'tokenFallback' in erc223 receiver contracts\n    bytes4 shyftConduitSig = bytes4(keccak256(\"fromShyftConduit(address,address,uint256)\")); // function signature\n\n    constructor (\n        uint256 _initialAmount,\n        string memory _tokenName,\n        uint8 _decimalUnits,\n        string memory _tokenSymbol\n    ) {\n        balances[msg.sender] = _initialAmount;               // Give the creator all initial tokens\n        thisTotalSupply = _initialAmount;                        // Update total supply\n        name = _tokenName;                                   // Set the name for display purposes\n        decimals = _decimalUnits;                            // Amount of decimals for display purposes\n        symbol = _tokenSymbol;                               // Set the symbol for display purposes\n        owner = msg.sender;\n    }\n\n    function totalSupply() public view override returns (uint256) {\n        return thisTotalSupply;\n    }\n\n    function getIsTokenContractWhiteListed(address _address) public view returns (bool result) {\n        return tokenContractWhitelist[_address];\n    }\n\n    function setIsTokenContractWhiteListed(address _address, bool _isWhiteListed) public returns (bool result) {\n        require(msg.sender == owner);\n\n        tokenContractWhitelist[_address] = _isWhiteListed;\n\n        return true;\n    }\n\n    // Function that is called when a user or another contract wants to transfer funds .\n    function transfer(address _to, uint _value, bytes memory _data, string memory _custom_fallback) public returns (bool success) {\n\n        if(isContract(_to)) {\n            if (balanceOf(msg.sender) < _value) revert();\n            balances[msg.sender] = balances[msg.sender].sub(_value);\n            balances[_to] = balances[_to].add(_value);\n\n            (success, ) = _to.call{value:0}(abi.encodeWithSelector(bytes4(keccak256(abi.encodePacked(_custom_fallback))), msg.sender, _value, _data));\n            require(success == true);\n\n            emit Transfer(msg.sender, _to, _value, _data);\n            return true;\n        }\n        else {\n            return transferToAddress(_to, _value, _data);\n        }\n    }\n\n\n    // Function that is called when a user or another contract wants to transfer funds .\n    function transfer(address _to, uint _value, bytes memory _data) public override returns (bool success) {\n\n        if(isContract(_to)) {\n            return transferToContract(_to, _value, _data);\n        }\n        else {\n            return transferToAddress(_to, _value, _data);\n        }\n    }\n\n    // Standard function transfer similar to ERC20 transfer with no _data .\n    // Added due to backwards compatibility reasons .\n    function transfer(address _to, uint _value) public override returns (bool success) {\n\n        //standard function transfer similar to ERC20 transfer with no _data\n        //added due to backwards compatibility reasons\n        bytes memory empty;\n        if(isContract(_to)) {\n            return transferToContract(_to, _value, empty);\n        }\n        else {\n            return transferToAddress(_to, _value, empty);\n        }\n    }\n\n    //assemble the given address bytecode. If bytecode exists then the _addr is a contract.\n    function isContract(address _addr) private view returns (bool is_contract) {\n        uint length;\n        assembly {\n        //retrieve the size of the code on target address, this needs assembly\n            length := extcodesize(_addr)\n        }\n        return (length>0);\n    }\n\n    //function that is called when transaction target is an address\n    function transferToAddress(address _to, uint _value, bytes memory _data) private returns (bool success) {\n        if (balanceOf(msg.sender) < _value) revert();\n        balances[msg.sender] = balances[msg.sender].sub(_value);\n        balances[_to] = balances[_to].add(_value);\n        emit Transfer(msg.sender, _to, _value, _data);\n        return true;\n    }\n\n    //function that is called when transaction target is a contract\n    function transferToContract(address _to, uint _value, bytes memory _data) private returns (bool success) {\n        if (balanceOf(msg.sender) < _value) revert();\n        balances[msg.sender] = balances[msg.sender].sub(_value);\n        balances[_to] = balances[_to].add(_value);\n\n        IErc223ReceivingContract receiver = IErc223ReceivingContract(_to);\n        receiver.tokenFallback(msg.sender, _value, _data);\n        emit Transfer(msg.sender, _to, _value, _data);\n        return true;\n    }\n\n\n    function balanceOf(address _owner) public view override returns (uint balance) {\n        return balances[_owner];\n    }\n\n    //@conduit:\n    //@note: this function has been modified to be a reference for the shyft conduit incoming conterminous token output.\n    function tokenFallback(address _to, uint256 _value, bytes memory _data) public override returns (bool ok) {\n        if (tokenContractWhitelist[msg.sender] == true) {\n            bytes4 sig = bytes4(uint32(bytes4(bytes1(_data[3])) >> 24) + uint32(bytes4(bytes1(_data[2])) >> 16) + uint32(bytes4(bytes1(_data[1])) >> 8) + uint32(bytes4(bytes1(_data[0]))));\n            emit EVT_transferredToConduitCustody(_to, _value, _data, shyftConduitSig, sig);\n\n            if (sig == shyftConduitSig) {\n                if (balances[msg.sender] >= _value) {\n                    balances[msg.sender] = balances[msg.sender].sub(_value);\n                    balances[_to] = balances[_to].add(_value);\n\n                    return true;\n                } else {\n                    return false;\n                }\n            } else {\n                return false;\n            }\n        } else {\n            return true;\n        }\n    }\n\n    receive() external payable {\n        uint256 totalAddedTokens = msg.value.mul(tokenPurchaseMultiplier);\n\n        balances[msg.sender] = balances[msg.sender].add(totalAddedTokens);\n        thisTotalSupply = thisTotalSupply.add(totalAddedTokens);\n    }\n}",
  "sourcePath": "/opt/shyft-ta-node/contracts/Reference/Erc223Reference.sol",
  "compiler": {
    "name": "solc",
    "version": "0.7.1+commit.f4a555be.Emscripten.clang"
  },
  "schemaVersion": "3.3.4",
  "updatedAt": "2021-09-16T18:31:15.418Z",
  "devdoc": {
    "kind": "dev",
    "methods": {},
    "version": 1
  },
  "userdoc": {
    "kind": "user",
    "methods": {},
    "version": 1
  }
}