{
  "contractName": "ShyftBridge",
  "abi": [
    {
      "inputs": [
        {
          "internalType": "uint256",
          "name": "_nativeBip32X_type",
          "type": "uint256"
        }
      ],
      "stateMutability": "nonpayable",
      "type": "constructor"
    },
    {
      "anonymous": false,
      "inputs": [
        {
          "indexed": false,
          "internalType": "address",
          "name": "_admin",
          "type": "address"
        }
      ],
      "name": "EVT_AdminPromoted",
      "type": "event"
    },
    {
      "anonymous": false,
      "inputs": [
        {
          "indexed": false,
          "internalType": "address",
          "name": "_admin",
          "type": "address"
        }
      ],
      "name": "EVT_AdminRevoked",
      "type": "event"
    },
    {
      "anonymous": false,
      "inputs": [
        {
          "indexed": false,
          "internalType": "address",
          "name": "_user",
          "type": "address"
        },
        {
          "indexed": false,
          "internalType": "uint256",
          "name": "_bip32X_type",
          "type": "uint256"
        },
        {
          "indexed": false,
          "internalType": "uint256",
          "name": "_amount",
          "type": "uint256"
        },
        {
          "indexed": false,
          "internalType": "bytes32",
          "name": "_txRoot",
          "type": "bytes32"
        }
      ],
      "name": "EVT_PreparedWithdrawal",
      "type": "event"
    },
    {
      "anonymous": false,
      "inputs": [
        {
          "indexed": false,
          "internalType": "address",
          "name": "_admin",
          "type": "address"
        }
      ],
      "name": "EVT_PrimaryAdminAdded",
      "type": "event"
    },
    {
      "anonymous": false,
      "inputs": [
        {
          "indexed": false,
          "internalType": "address",
          "name": "_to",
          "type": "address"
        },
        {
          "indexed": false,
          "internalType": "bytes32",
          "name": "_receiptsRoot",
          "type": "bytes32"
        }
      ],
      "name": "EVT_ProveWithdrawalReceipt",
      "type": "event"
    },
    {
      "anonymous": false,
      "inputs": [
        {
          "indexed": false,
          "internalType": "address",
          "name": "chain",
          "type": "address"
        },
        {
          "indexed": false,
          "internalType": "uint256",
          "name": "start",
          "type": "uint256"
        },
        {
          "indexed": true,
          "internalType": "uint256",
          "name": "end",
          "type": "uint256"
        },
        {
          "indexed": true,
          "internalType": "bytes32",
          "name": "headerRoot",
          "type": "bytes32"
        },
        {
          "indexed": true,
          "internalType": "uint256",
          "name": "i",
          "type": "uint256"
        }
      ],
      "name": "EVT_RootStorage",
      "type": "event"
    },
    {
      "anonymous": false,
      "inputs": [
        {
          "indexed": true,
          "internalType": "address",
          "name": "fromChain",
          "type": "address"
        },
        {
          "indexed": true,
          "internalType": "uint256",
          "name": "bip32X_type_orig",
          "type": "uint256"
        },
        {
          "indexed": true,
          "internalType": "uint256",
          "name": "bip32X_type_new",
          "type": "uint256"
        }
      ],
      "name": "EVT_TokenAdded",
      "type": "event"
    },
    {
      "anonymous": false,
      "inputs": [
        {
          "indexed": true,
          "internalType": "address",
          "name": "toChain",
          "type": "address"
        },
        {
          "indexed": true,
          "internalType": "uint256",
          "name": "bip32X_type_from",
          "type": "uint256"
        },
        {
          "indexed": true,
          "internalType": "uint256",
          "name": "bip32X_type_to",
          "type": "uint256"
        }
      ],
      "name": "EVT_TokenAssociated",
      "type": "event"
    },
    {
      "anonymous": false,
      "inputs": [
        {
          "indexed": true,
          "internalType": "address",
          "name": "shyftSafe",
          "type": "address"
        },
        {
          "indexed": true,
          "internalType": "address",
          "name": "toChain",
          "type": "address"
        },
        {
          "indexed": true,
          "internalType": "address",
          "name": "toAddress",
          "type": "address"
        },
        {
          "indexed": false,
          "internalType": "uint256",
          "name": "bip32X_type",
          "type": "uint256"
        },
        {
          "indexed": false,
          "internalType": "uint256",
          "name": "amount",
          "type": "uint256"
        },
        {
          "indexed": false,
          "internalType": "address",
          "name": "fromChain",
          "type": "address"
        }
      ],
      "name": "EVT_TransitAsset",
      "type": "event"
    },
    {
      "anonymous": false,
      "inputs": [
        {
          "indexed": true,
          "internalType": "address",
          "name": "shyftSafe",
          "type": "address"
        },
        {
          "indexed": true,
          "internalType": "address",
          "name": "fromChain",
          "type": "address"
        },
        {
          "indexed": true,
          "internalType": "address",
          "name": "fromAddress",
          "type": "address"
        },
        {
          "indexed": false,
          "internalType": "uint256",
          "name": "bip32X_type",
          "type": "uint256"
        },
        {
          "indexed": false,
          "internalType": "uint256",
          "name": "amount",
          "type": "uint256"
        }
      ],
      "name": "EVT_WithdrawAsset",
      "type": "event"
    },
    {
      "anonymous": false,
      "inputs": [
        {
          "indexed": false,
          "internalType": "bytes32",
          "name": "_receiptsRoot",
          "type": "bytes32"
        },
        {
          "indexed": false,
          "internalType": "bytes32",
          "name": "leaf",
          "type": "bytes32"
        }
      ],
      "name": "EVT_WithdrawTest",
      "type": "event"
    },
    {
      "anonymous": false,
      "inputs": [
        {
          "indexed": false,
          "internalType": "address",
          "name": "_address",
          "type": "address"
        },
        {
          "indexed": false,
          "internalType": "uint256",
          "name": "amount",
          "type": "uint256"
        },
        {
          "indexed": false,
          "internalType": "uint256",
          "name": "bip32X_type",
          "type": "uint256"
        },
        {
          "indexed": false,
          "internalType": "address",
          "name": "proofAddress",
          "type": "address"
        },
        {
          "indexed": false,
          "internalType": "uint256",
          "name": "proofAmount",
          "type": "uint256"
        },
        {
          "indexed": false,
          "internalType": "uint256",
          "name": "proofBip32XType",
          "type": "uint256"
        },
        {
          "indexed": false,
          "internalType": "address",
          "name": "_thisChain",
          "type": "address"
        },
        {
          "indexed": false,
          "internalType": "address",
          "name": "proofToChain",
          "type": "address"
        }
      ],
      "name": "EVT_confirmTxContractParameters",
      "type": "event"
    },
    {
      "anonymous": false,
      "inputs": [],
      "name": "ElectionComplete",
      "type": "event"
    },
    {
      "anonymous": false,
      "inputs": [
        {
          "indexed": false,
          "internalType": "address",
          "name": "_relayer",
          "type": "address"
        }
      ],
      "name": "RelayerAdded",
      "type": "event"
    },
    {
      "anonymous": false,
      "inputs": [],
      "name": "ResetElection",
      "type": "event"
    },
    {
      "anonymous": false,
      "inputs": [
        {
          "indexed": true,
          "internalType": "address",
          "name": "_voter",
          "type": "address"
        },
        {
          "indexed": true,
          "internalType": "address",
          "name": "_elected",
          "type": "address"
        }
      ],
      "name": "Reveal",
      "type": "event"
    },
    {
      "anonymous": false,
      "inputs": [
        {
          "indexed": true,
          "internalType": "address",
          "name": "_voter",
          "type": "address"
        },
        {
          "indexed": false,
          "internalType": "bytes32",
          "name": "_commitment",
          "type": "bytes32"
        }
      ],
      "name": "SetVote",
      "type": "event"
    },
    {
      "anonymous": false,
      "inputs": [],
      "name": "VotingComplete",
      "type": "event"
    },
    {
      "inputs": [
        {
          "internalType": "address",
          "name": "relayerToAdd",
          "type": "address"
        }
      ],
      "name": "addRelayer",
      "outputs": [
        {
          "internalType": "bool",
          "name": "",
          "type": "bool"
        }
      ],
      "stateMutability": "nonpayable",
      "type": "function"
    },
    {
      "inputs": [
        {
          "internalType": "uint32",
          "name": "_proposalIndex",
          "type": "uint32"
        }
      ],
      "name": "changeCurrentAdminConfirmationThreshold",
      "outputs": [
        {
          "internalType": "uint8",
          "name": "result",
          "type": "uint8"
        }
      ],
      "stateMutability": "nonpayable",
      "type": "function"
    },
    {
      "inputs": [
        {
          "internalType": "address",
          "name": "_administratorAddress",
          "type": "address"
        }
      ],
      "name": "getAdminAccess",
      "outputs": [
        {
          "internalType": "enum Administrable.AdministratorAccess",
          "name": "result",
          "type": "uint8"
        }
      ],
      "stateMutability": "view",
      "type": "function"
    },
    {
      "inputs": [
        {
          "internalType": "uint32",
          "name": "_proposalIndex",
          "type": "uint32"
        }
      ],
      "name": "getAdminConfirmationProposal",
      "outputs": [
        {
          "internalType": "uint256",
          "name": "adminThreshold",
          "type": "uint256"
        },
        {
          "internalType": "uint256",
          "name": "endTime",
          "type": "uint256"
        },
        {
          "internalType": "bool",
          "name": "isCompleted",
          "type": "bool"
        }
      ],
      "stateMutability": "view",
      "type": "function"
    },
    {
      "inputs": [],
      "name": "getAdminConfirmationThreshold",
      "outputs": [
        {
          "internalType": "uint256",
          "name": "results",
          "type": "uint256"
        }
      ],
      "stateMutability": "view",
      "type": "function"
    },
    {
      "inputs": [],
      "name": "getElectedRelayer",
      "outputs": [
        {
          "internalType": "address",
          "name": "",
          "type": "address"
        }
      ],
      "stateMutability": "view",
      "type": "function"
    },
    {
      "inputs": [],
      "name": "getNumAdminConfirmationProposals",
      "outputs": [
        {
          "internalType": "uint256",
          "name": "result",
          "type": "uint256"
        }
      ],
      "stateMutability": "view",
      "type": "function"
    },
    {
      "inputs": [
        {
          "internalType": "uint256",
          "name": "i",
          "type": "uint256"
        }
      ],
      "name": "getRelayerAt",
      "outputs": [
        {
          "internalType": "address",
          "name": "",
          "type": "address"
        }
      ],
      "stateMutability": "view",
      "type": "function"
    },
    {
      "inputs": [
        {
          "internalType": "address",
          "name": "_administratorAddress",
          "type": "address"
        }
      ],
      "name": "isAdministrator",
      "outputs": [
        {
          "internalType": "bool",
          "name": "result",
          "type": "bool"
        }
      ],
      "stateMutability": "view",
      "type": "function"
    },
    {
      "inputs": [
        {
          "internalType": "address",
          "name": "toCheck",
          "type": "address"
        }
      ],
      "name": "isInRelayerSet",
      "outputs": [
        {
          "internalType": "bool",
          "name": "",
          "type": "bool"
        }
      ],
      "stateMutability": "view",
      "type": "function"
    },
    {
      "inputs": [],
      "name": "numAdministrators",
      "outputs": [
        {
          "internalType": "uint256",
          "name": "",
          "type": "uint256"
        }
      ],
      "stateMutability": "view",
      "type": "function"
    },
    {
      "inputs": [],
      "name": "numRelayers",
      "outputs": [
        {
          "internalType": "uint256",
          "name": "",
          "type": "uint256"
        }
      ],
      "stateMutability": "view",
      "type": "function"
    },
    {
      "inputs": [],
      "name": "owner",
      "outputs": [
        {
          "internalType": "address",
          "name": "",
          "type": "address"
        }
      ],
      "stateMutability": "view",
      "type": "function"
    },
    {
      "inputs": [
        {
          "internalType": "address",
          "name": "_newAdministratorAddress",
          "type": "address"
        }
      ],
      "name": "promoteAdministrator",
      "outputs": [
        {
          "internalType": "uint8",
          "name": "result",
          "type": "uint8"
        }
      ],
      "stateMutability": "nonpayable",
      "type": "function"
    },
    {
      "inputs": [
        {
          "internalType": "uint256",
          "name": "_newThreshold",
          "type": "uint256"
        }
      ],
      "name": "proposeChangeCurrentAdminConfirmationThreshold",
      "outputs": [
        {
          "internalType": "uint8",
          "name": "result",
          "type": "uint8"
        }
      ],
      "stateMutability": "nonpayable",
      "type": "function"
    },
    {
      "inputs": [
        {
          "internalType": "address",
          "name": "_addr",
          "type": "address"
        }
      ],
      "name": "removeRelayer",
      "outputs": [
        {
          "internalType": "bool",
          "name": "",
          "type": "bool"
        }
      ],
      "stateMutability": "nonpayable",
      "type": "function"
    },
    {
      "inputs": [],
      "name": "resetElection",
      "outputs": [
        {
          "internalType": "bool",
          "name": "",
          "type": "bool"
        }
      ],
      "stateMutability": "nonpayable",
      "type": "function"
    },
    {
      "inputs": [
        {
          "internalType": "address",
          "name": "relayerToElect",
          "type": "address"
        }
      ],
      "name": "reveal",
      "outputs": [
        {
          "internalType": "bool",
          "name": "",
          "type": "bool"
        }
      ],
      "stateMutability": "nonpayable",
      "type": "function"
    },
    {
      "inputs": [
        {
          "internalType": "address",
          "name": "_revokeAdministratorAddress",
          "type": "address"
        }
      ],
      "name": "revokeAdministrator",
      "outputs": [
        {
          "internalType": "uint8",
          "name": "result",
          "type": "uint8"
        }
      ],
      "stateMutability": "nonpayable",
      "type": "function"
    },
    {
      "inputs": [
        {
          "internalType": "address",
          "name": "_newAdministratorAddress",
          "type": "address"
        }
      ],
      "name": "setPrimaryAdministrator",
      "outputs": [
        {
          "internalType": "uint8",
          "name": "result",
          "type": "uint8"
        }
      ],
      "stateMutability": "nonpayable",
      "type": "function"
    },
    {
      "inputs": [
        {
          "internalType": "bytes32",
          "name": "commitment",
          "type": "bytes32"
        }
      ],
      "name": "setVote",
      "outputs": [
        {
          "internalType": "bool",
          "name": "",
          "type": "bool"
        }
      ],
      "stateMutability": "nonpayable",
      "type": "function"
    },
    {
      "inputs": [],
      "name": "shyftSafeAddress",
      "outputs": [
        {
          "internalType": "address",
          "name": "",
          "type": "address"
        }
      ],
      "stateMutability": "view",
      "type": "function"
    },
    {
      "inputs": [
        {
          "internalType": "bytes32",
          "name": "_root",
          "type": "bytes32"
        },
        {
          "internalType": "address",
          "name": "_chainId",
          "type": "address"
        },
        {
          "internalType": "uint256",
          "name": "_start",
          "type": "uint256"
        },
        {
          "internalType": "uint256",
          "name": "_end",
          "type": "uint256"
        },
        {
          "internalType": "bytes",
          "name": "_sig",
          "type": "bytes"
        }
      ],
      "name": "addRoot",
      "outputs": [
        {
          "internalType": "uint256",
          "name": "",
          "type": "uint256"
        }
      ],
      "stateMutability": "nonpayable",
      "type": "function"
    },
    {
      "inputs": [
        {
          "internalType": "address",
          "name": "_toChain",
          "type": "address"
        },
        {
          "internalType": "uint256",
          "name": "_bip32X_type",
          "type": "uint256"
        }
      ],
      "name": "getBip32X_typeAllowedForTransit",
      "outputs": [
        {
          "internalType": "bool",
          "name": "result",
          "type": "bool"
        }
      ],
      "stateMutability": "view",
      "type": "function"
    },
    {
      "inputs": [
        {
          "internalType": "address",
          "name": "_address",
          "type": "address"
        },
        {
          "internalType": "uint256",
          "name": "_holdIndexBond",
          "type": "uint256"
        }
      ],
      "name": "getBondPassesBalanceRequirementsForTransit",
      "outputs": [
        {
          "internalType": "bool",
          "name": "result",
          "type": "bool"
        }
      ],
      "stateMutability": "view",
      "type": "function"
    },
    {
      "inputs": [
        {
          "internalType": "address",
          "name": "_address",
          "type": "address"
        },
        {
          "internalType": "uint256",
          "name": "_amount",
          "type": "uint256"
        },
        {
          "internalType": "uint256",
          "name": "_bip32X_type",
          "type": "uint256"
        },
        {
          "internalType": "uint256",
          "name": "_holdIndex",
          "type": "uint256"
        },
        {
          "internalType": "uint256",
          "name": "_holdIndexBond",
          "type": "uint256"
        },
        {
          "internalType": "address",
          "name": "_toChainId",
          "type": "address"
        }
      ],
      "name": "transitAsset",
      "outputs": [
        {
          "internalType": "uint8",
          "name": "result",
          "type": "uint8"
        }
      ],
      "stateMutability": "nonpayable",
      "type": "function"
    },
    {
      "inputs": [
        {
          "internalType": "uint256",
          "name": "_amount",
          "type": "uint256"
        },
        {
          "internalType": "uint256",
          "name": "_bip32X_type",
          "type": "uint256"
        },
        {
          "internalType": "address",
          "name": "_fromChain",
          "type": "address"
        },
        {
          "internalType": "bytes32",
          "name": "_txRoot",
          "type": "bytes32"
        },
        {
          "internalType": "bytes",
          "name": "_path",
          "type": "bytes"
        },
        {
          "internalType": "bytes",
          "name": "_parentNodes",
          "type": "bytes"
        },
        {
          "internalType": "bytes",
          "name": "_rlpTransitTx",
          "type": "bytes"
        }
      ],
      "name": "prepareWithdrawalOfAsset",
      "outputs": [
        {
          "internalType": "uint8",
          "name": "result",
          "type": "uint8"
        }
      ],
      "stateMutability": "nonpayable",
      "type": "function"
    },
    {
      "inputs": [
        {
          "internalType": "bytes32",
          "name": "_receiptsRoot",
          "type": "bytes32"
        },
        {
          "internalType": "bytes",
          "name": "_rlpTransitTx",
          "type": "bytes"
        },
        {
          "internalType": "bytes",
          "name": "_receiptPath",
          "type": "bytes"
        },
        {
          "internalType": "bytes",
          "name": "_receiptParentNodes",
          "type": "bytes"
        },
        {
          "internalType": "bytes",
          "name": "_rlpTransitReceipt",
          "type": "bytes"
        }
      ],
      "name": "proveWithdrawalReceipt",
      "outputs": [
        {
          "internalType": "uint8",
          "name": "result",
          "type": "uint8"
        }
      ],
      "stateMutability": "nonpayable",
      "type": "function"
    },
    {
      "inputs": [
        {
          "internalType": "uint256",
          "name": "_referenceBlockNumber",
          "type": "uint256"
        },
        {
          "internalType": "uint256",
          "name": "_requiredBlocks",
          "type": "uint256"
        }
      ],
      "name": "isBlockConfirmationBlocksRequiredConfirmed",
      "outputs": [
        {
          "internalType": "bool",
          "name": "result",
          "type": "bool"
        }
      ],
      "stateMutability": "view",
      "type": "function"
    },
    {
      "inputs": [
        {
          "internalType": "bytes",
          "name": "_proof",
          "type": "bytes"
        },
        {
          "internalType": "uint256",
          "name": "_blockNum",
          "type": "uint256"
        },
        {
          "internalType": "uint256",
          "name": "_timestamp",
          "type": "uint256"
        },
        {
          "internalType": "bytes32",
          "name": "_previousHeader",
          "type": "bytes32"
        },
        {
          "internalType": "uint256",
          "name": "_rootIndex",
          "type": "uint256"
        },
        {
          "internalType": "bytes",
          "name": "_rlpTransitTx",
          "type": "bytes"
        }
      ],
      "name": "withdrawAsset",
      "outputs": [
        {
          "internalType": "uint8",
          "name": "result",
          "type": "uint8"
        },
        {
          "internalType": "uint256",
          "name": "holdIndex",
          "type": "uint256"
        }
      ],
      "stateMutability": "nonpayable",
      "type": "function"
    },
    {
      "inputs": [
        {
          "internalType": "address",
          "name": "_tokenChainAddress",
          "type": "address"
        },
        {
          "internalType": "uint256",
          "name": "_nativeTokenType",
          "type": "uint256"
        },
        {
          "internalType": "bool",
          "name": "_isTestnet",
          "type": "bool"
        },
        {
          "internalType": "bool",
          "name": "_isPrivatenet",
          "type": "bool"
        },
        {
          "internalType": "uint256",
          "name": "_averageBlockTime",
          "type": "uint256"
        },
        {
          "internalType": "uint256",
          "name": "_baseConfirmationBlocksRequired",
          "type": "uint256"
        }
      ],
      "name": "setupTokenChainInfo",
      "outputs": [
        {
          "internalType": "uint8",
          "name": "result",
          "type": "uint8"
        }
      ],
      "stateMutability": "nonpayable",
      "type": "function"
    },
    {
      "inputs": [
        {
          "internalType": "address",
          "name": "_tokenChainAddress",
          "type": "address"
        },
        {
          "internalType": "uint256",
          "name": "_bip32X_Type",
          "type": "uint256"
        },
        {
          "internalType": "bool",
          "name": "_isAllowed",
          "type": "bool"
        }
      ],
      "name": "tokenChainSetAllowedBip32X_typeTransfer",
      "outputs": [
        {
          "internalType": "uint8",
          "name": "result",
          "type": "uint8"
        }
      ],
      "stateMutability": "nonpayable",
      "type": "function"
    },
    {
      "inputs": [
        {
          "internalType": "address",
          "name": "_tokenChainAddress",
          "type": "address"
        },
        {
          "internalType": "uint256",
          "name": "_transitBondBip32X_Type",
          "type": "uint256"
        },
        {
          "internalType": "uint256",
          "name": "_transitBondAmount",
          "type": "uint256"
        }
      ],
      "name": "tokenChainSetTransitBondParameters",
      "outputs": [
        {
          "internalType": "uint8",
          "name": "result",
          "type": "uint8"
        }
      ],
      "stateMutability": "nonpayable",
      "type": "function"
    },
    {
      "inputs": [
        {
          "internalType": "address",
          "name": "_shyftSafeAddress",
          "type": "address"
        }
      ],
      "name": "setPermissionsForShyftSafe",
      "outputs": [
        {
          "internalType": "uint256",
          "name": "result",
          "type": "uint256"
        }
      ],
      "stateMutability": "nonpayable",
      "type": "function"
    },
    {
      "inputs": [
        {
          "internalType": "address",
          "name": "_shyftSafeAddress",
          "type": "address"
        }
      ],
      "name": "getPermissionsForShyftSafe",
      "outputs": [
        {
          "internalType": "uint256",
          "name": "result",
          "type": "uint256"
        }
      ],
      "stateMutability": "view",
      "type": "function"
    },
    {
      "inputs": [
        {
          "internalType": "address",
          "name": "_shyftSafeAddress",
          "type": "address"
        }
      ],
      "name": "setShyftSafeAddress",
      "outputs": [
        {
          "internalType": "uint8",
          "name": "result",
          "type": "uint8"
        }
      ],
      "stateMutability": "nonpayable",
      "type": "function"
    },
    {
      "inputs": [
        {
          "internalType": "uint256",
          "name": "newThreshold",
          "type": "uint256"
        }
      ],
      "name": "setRelayerThreshold",
      "outputs": [
        {
          "internalType": "uint8",
          "name": "",
          "type": "uint8"
        }
      ],
      "stateMutability": "nonpayable",
      "type": "function"
    },
    {
      "inputs": [
        {
          "internalType": "address",
          "name": "_tokenChainAddress",
          "type": "address"
        },
        {
          "internalType": "uint256",
          "name": "_tokenBip32X_type",
          "type": "uint256"
        },
        {
          "internalType": "uint256",
          "name": "_baseConfirmationBlocksRequired",
          "type": "uint256"
        }
      ],
      "name": "setBaseConfirmationBlocksRequired",
      "outputs": [
        {
          "internalType": "uint8",
          "name": "result",
          "type": "uint8"
        }
      ],
      "stateMutability": "nonpayable",
      "type": "function"
    },
    {
      "inputs": [
        {
          "internalType": "address",
          "name": "_tokenChainAddress",
          "type": "address"
        },
        {
          "internalType": "uint256",
          "name": "_tokenBip32X_type",
          "type": "uint256"
        },
        {
          "internalType": "uint256",
          "name": "numSteps",
          "type": "uint256"
        }
      ],
      "name": "increaseConfirmationTime",
      "outputs": [
        {
          "internalType": "uint8",
          "name": "result",
          "type": "uint8"
        }
      ],
      "stateMutability": "nonpayable",
      "type": "function"
    },
    {
      "inputs": [
        {
          "internalType": "address",
          "name": "_tokenChainAddress",
          "type": "address"
        },
        {
          "internalType": "uint256",
          "name": "_tokenBip32X_type",
          "type": "uint256"
        }
      ],
      "name": "resetConfirmationBlocksRequired",
      "outputs": [
        {
          "internalType": "uint8",
          "name": "result",
          "type": "uint8"
        }
      ],
      "stateMutability": "nonpayable",
      "type": "function"
    },
    {
      "inputs": [
        {
          "internalType": "address",
          "name": "_tokenChainAddress",
          "type": "address"
        }
      ],
      "name": "getTokenChainInfo",
      "outputs": [
        {
          "internalType": "bool",
          "name": "isTestnet",
          "type": "bool"
        },
        {
          "internalType": "bool",
          "name": "isPrivatenet",
          "type": "bool"
        },
        {
          "internalType": "uint256",
          "name": "nativeTokenType",
          "type": "uint256"
        },
        {
          "internalType": "uint256",
          "name": "transitBondBip32X_type",
          "type": "uint256"
        },
        {
          "internalType": "uint256",
          "name": "transitBondAmount",
          "type": "uint256"
        },
        {
          "internalType": "uint256",
          "name": "averageBlockTime",
          "type": "uint256"
        },
        {
          "internalType": "uint256",
          "name": "confirmationBlocksRequiredNative",
          "type": "uint256"
        },
        {
          "internalType": "uint256",
          "name": "baseConfirmationBlocksRequiredNative",
          "type": "uint256"
        }
      ],
      "stateMutability": "view",
      "type": "function"
    },
    {
      "inputs": [
        {
          "internalType": "bytes",
          "name": "_proof",
          "type": "bytes"
        },
        {
          "internalType": "bytes32",
          "name": "_leaf",
          "type": "bytes32"
        },
        {
          "internalType": "bytes32",
          "name": "_root",
          "type": "bytes32"
        }
      ],
      "name": "prove",
      "outputs": [
        {
          "internalType": "bool",
          "name": "",
          "type": "bool"
        }
      ],
      "stateMutability": "pure",
      "type": "function"
    },
    {
      "inputs": [
        {
          "internalType": "address",
          "name": "_a",
          "type": "address"
        }
      ],
      "name": "getLastBlock",
      "outputs": [
        {
          "internalType": "uint256",
          "name": "",
          "type": "uint256"
        }
      ],
      "stateMutability": "view",
      "type": "function"
    },
    {
      "inputs": [],
      "name": "getOwner",
      "outputs": [
        {
          "internalType": "address",
          "name": "",
          "type": "address"
        }
      ],
      "stateMutability": "view",
      "type": "function"
    },
    {
      "inputs": [],
      "name": "getRelayerThreshold",
      "outputs": [
        {
          "internalType": "uint256",
          "name": "",
          "type": "uint256"
        }
      ],
      "stateMutability": "view",
      "type": "function"
    },
    {
      "inputs": [
        {
          "internalType": "address",
          "name": "_a",
          "type": "address"
        }
      ],
      "name": "getLastRootIndex",
      "outputs": [
        {
          "internalType": "uint256",
          "name": "",
          "type": "uint256"
        }
      ],
      "stateMutability": "view",
      "type": "function"
    },
    {
      "inputs": [
        {
          "internalType": "address",
          "name": "_a",
          "type": "address"
        },
        {
          "internalType": "uint256",
          "name": "_index",
          "type": "uint256"
        }
      ],
      "name": "getRoot",
      "outputs": [
        {
          "internalType": "bytes32",
          "name": "",
          "type": "bytes32"
        }
      ],
      "stateMutability": "view",
      "type": "function"
    },
    {
      "inputs": [
        {
          "internalType": "bytes32",
          "name": "_root",
          "type": "bytes32"
        },
        {
          "internalType": "address",
          "name": "_chainId",
          "type": "address"
        },
        {
          "internalType": "uint256",
          "name": "_start",
          "type": "uint256"
        },
        {
          "internalType": "uint256",
          "name": "_end",
          "type": "uint256"
        },
        {
          "internalType": "bytes",
          "name": "_sig",
          "type": "bytes"
        }
      ],
      "name": "checkSignatures",
      "outputs": [
        {
          "internalType": "uint256",
          "name": "",
          "type": "uint256"
        }
      ],
      "stateMutability": "view",
      "type": "function"
    },
    {
      "inputs": [
        {
          "internalType": "address",
          "name": "_addr",
          "type": "address"
        }
      ],
      "name": "isRelayer",
      "outputs": [
        {
          "internalType": "bool",
          "name": "",
          "type": "bool"
        }
      ],
      "stateMutability": "view",
      "type": "function"
    }
  ],
  "bytecode": "0x60806040526002600055600d805462010000600160b01b031916905560016013553480156200002d57600080fd5b506040516200515738038062005157833981810160405260208110156200005357600080fd5b505160018054336001600160a01b031991821681179091161790556200007862000125565b33808252600980546001600160a01b0319169091179055602080820151600a55604080830151600b8054606086015160808701511515620100000262ff0000199115156101000261ff001995151560ff199094169390931794909416919091171691909117905560a090920151600c5530600090815260148252828120600f600882015560018101859055848252600781018352838220600690819055948252840190915220556200015a565b6040805160c081018252600080825260208201819052918101829052606081018290526080810182905260a081019190915290565b614fed806200016a6000396000f3fe608060405234801561001057600080fd5b50600436106102ba5760003560e01c8063677ce4e111610182578063b4082736116100e9578063d5c89114116100a2578063e8f305231161007c578063e8f3052314611095578063f0374edc1461109d578063f3e512d3146110a5578063f85008a2146110ad576102ba565b8063d5c8911414610ff6578063d9af51e314611028578063dd39f00d1461106f576102ba565b8063b408273614610cb8578063b8e6ab6914610ce4578063b9568dd814610d0a578063c392cf4114610d2d578063ca51b12814610d53578063cb291ab514610dbc576102ba565b80638a015e5b1161013b5780638a015e5b14610b1b5780638da5cb5b14610be0578063963afe6f14610be85780639bbee01114610c2e5780639c48f49914610c5a578063aa5f791314610c86576102ba565b8063677ce4e11461095357806368328ec61461095b57806376398712146109875780637a303a9c146109ad57806381030623146109b5578063893d20e814610b13576102ba565b80633370426d11610226578063541d5548116101df578063541d5548146107fc578063545917d01461082257806357416e0c146108cb5780635bc028a3146108ff57806360f0a5ac14610907578063676920ea1461092d576102ba565b80633370426d1461072057806338b8584e146107285780634402bba31461074b5780634929dfa11461077157806349d222501461079757806353366fa7146107b4576102ba565b806313dba2011161027857806313dba201146104895780631534c5e6146104af57806323dfe7301461067e57806323f0aa60146106a45780632ace01ec146106ca5780632f7850df146106e7576102ba565b8062913af6146102bf5780630216ee2d14610302578063064ad7c21461034a57806307b63af9146103705780630a2eb301146104475780630ca21c2414610481575b600080fd5b6102e2600480360360208110156102d557600080fd5b503563ffffffff166110ca565b604080519384526020840192909252151582820152519081900360600190f35b6103346004803603606081101561031857600080fd5b506001600160a01b038135169060208101359060400135611151565b6040805160ff9092168252519081900360200190f35b6103346004803603602081101561036057600080fd5b50356001600160a01b03166111dd565b610435600480360360a081101561038657600080fd5b8135916001600160a01b036020820135169160408201359160608101359181019060a081016080820135600160201b8111156103c157600080fd5b8201836020820111156103d357600080fd5b803590602001918460018302840111600160201b831117156103f457600080fd5b91908080601f016020809104026020016040519081016040528093929190818152602001838380828437600092019190915250929550611281945050505050565b60408051918252519081900360200190f35b61046d6004803603602081101561045d57600080fd5b50356001600160a01b031661143d565b604080519115158252519081900360200190f35b610435611478565b6104356004803603602081101561049f57600080fd5b50356001600160a01b031661147e565b610334600480360360e08110156104c557600080fd5b8135916020810135916001600160a01b036040830135169160608101359181019060a081016080820135600160201b81111561050057600080fd5b82018360208201111561051257600080fd5b803590602001918460018302840111600160201b8311171561053357600080fd5b91908080601f0160208091040260200160405190810160405280939291908181526020018383808284376000920191909152509295949360208101935035915050600160201b81111561058557600080fd5b82018360208201111561059757600080fd5b803590602001918460018302840111600160201b831117156105b857600080fd5b91908080601f0160208091040260200160405190810160405280939291908181526020018383808284376000920191909152509295949360208101935035915050600160201b81111561060a57600080fd5b82018360208201111561061c57600080fd5b803590602001918460018302840111600160201b8311171561063d57600080fd5b91908080601f0160208091040260200160405190810160405280939291908181526020018383808284376000920191909152509295506114d6945050505050565b6103346004803603602081101561069457600080fd5b50356001600160a01b031661167d565b61046d600480360360208110156106ba57600080fd5b50356001600160a01b03166118e0565b610334600480360360208110156106e057600080fd5b5035611907565b610704600480360360208110156106fd57600080fd5b5035611924565b604080516001600160a01b039092168252519081900360200190f35b61043561195e565b61046d6004803603604081101561073e57600080fd5b5080359060200135611964565b6103346004803603602081101561076157600080fd5b50356001600160a01b0316611981565b6104356004803603602081101561078757600080fd5b50356001600160a01b0316611b55565b610334600480360360208110156107ad57600080fd5b5035611b70565b610334600480360360c08110156107ca57600080fd5b506001600160a01b03813516906020810135906040810135151590606081013515159060808101359060a00135611c52565b61046d6004803603602081101561081257600080fd5b50356001600160a01b0316611dcf565b61046d6004803603606081101561083857600080fd5b810190602081018135600160201b81111561085257600080fd5b82018360208201111561086457600080fd5b803590602001918460018302840111600160201b8311171561088557600080fd5b91908080601f0160208091040260200160405190810160405280939291908181526020018383808284376000920191909152509295505082359350505060200135611dda565b610334600480360360608110156108e157600080fd5b506001600160a01b0381351690602081013590604001351515611ea0565b610704611fe5565b61046d6004803603602081101561091d57600080fd5b50356001600160a01b0316611ff4565b6103346004803603602081101561094357600080fd5b50356001600160a01b03166120e5565b6104356121cc565b61046d6004803603604081101561097157600080fd5b506001600160a01b0381351690602001356121d2565b6104356004803603602081101561099d57600080fd5b50356001600160a01b0316612347565b610435612366565b610af6600480360360c08110156109cb57600080fd5b810190602081018135600160201b8111156109e557600080fd5b8201836020820111156109f757600080fd5b803590602001918460018302840111600160201b83111715610a1857600080fd5b91908080601f016020809104026020016040519081016040528093929190818152602001838380828437600092019190915250929584359560208601359560408101359550606081013594509192509060a081019060800135600160201b811115610a8257600080fd5b820183602082011115610a9457600080fd5b803590602001918460018302840111600160201b83111715610ab557600080fd5b91908080601f01602080910402602001604051908101604052809392919081815260200183838082843760009201919091525092955061236c945050505050565b6040805160ff909316835260208301919091528051918290030190f35b610704612689565b610435600480360360a0811015610b3157600080fd5b8135916001600160a01b036020820135169160408201359160608101359181019060a081016080820135600160201b811115610b6c57600080fd5b820183602082011115610b7e57600080fd5b803590602001918460018302840111600160201b83111715610b9f57600080fd5b91908080601f016020809104026020016040519081016040528093929190818152602001838380828437600092019190915250929550612698945050505050565b6107046127a1565b610334600480360360c0811015610bfe57600080fd5b506001600160a01b03813581169160208101359160408201359160608101359160808201359160a00135166127b0565b61046d60048036036040811015610c4457600080fd5b506001600160a01b038135169060200135612b03565b61043560048036036040811015610c7057600080fd5b506001600160a01b038135169060200135612bca565b61033460048036036060811015610c9c57600080fd5b506001600160a01b038135169060208101359060400135612c01565b61033460048036036040811015610cce57600080fd5b506001600160a01b038135169060200135612d1b565b61043560048036036020811015610cfa57600080fd5b50356001600160a01b0316612e8d565b61033460048036036020811015610d2057600080fd5b503563ffffffff16612ee5565b61046d60048036036020811015610d4357600080fd5b50356001600160a01b03166130ac565b610d7960048036036020811015610d6957600080fd5b50356001600160a01b03166132f6565b6040805198151589529615156020890152878701959095526060870193909352608086019190915260a085015260c084015260e083015251908190036101000190f35b610334600480360360a0811015610dd257600080fd5b81359190810190604081016020820135600160201b811115610df357600080fd5b820183602082011115610e0557600080fd5b803590602001918460018302840111600160201b83111715610e2657600080fd5b91908080601f0160208091040260200160405190810160405280939291908181526020018383808284376000920191909152509295949360208101935035915050600160201b811115610e7857600080fd5b820183602082011115610e8a57600080fd5b803590602001918460018302840111600160201b83111715610eab57600080fd5b91908080601f0160208091040260200160405190810160405280939291908181526020018383808284376000920191909152509295949360208101935035915050600160201b811115610efd57600080fd5b820183602082011115610f0f57600080fd5b803590602001918460018302840111600160201b83111715610f3057600080fd5b91908080601f0160208091040260200160405190810160405280939291908181526020018383808284376000920191909152509295949360208101935035915050600160201b811115610f8257600080fd5b820183602082011115610f9457600080fd5b803590602001918460018302840111600160201b83111715610fb557600080fd5b91908080601f01602080910402602001604051908101604052809392919081815260200183838082843760009201919091525092955061335c945050505050565b6103346004803603606081101561100c57600080fd5b506001600160a01b03813516906020810135906040013561348b565b61104e6004803603602081101561103e57600080fd5b50356001600160a01b031661358f565b6040518082600281111561105e57fe5b815260200191505060405180910390f35b61046d6004803603602081101561108557600080fd5b50356001600160a01b03166135ad565b61046d61371e565b61070461389f565b6104356138b4565b61046d600480360360208110156110c357600080fd5b50356138ba565b600080600060068463ffffffff16815481106110e257fe5b90600052602060002090600302016000015460068563ffffffff168154811061110757fe5b90600052602060002090600302016001015460068663ffffffff168154811061112c57fe5b6000918252602090912060026003909202010154919450925060ff1690509193909250565b600061115c3361143d565b156111d25760018211156111ca576001600160a01b038416600090815260146020908152604080832086845260060190915290205461119b9083613a1b565b6001600160a01b03851660009081526014602090815260408083208784526006019091529020555060026111d6565b5060016111d6565b5060005b9392505050565b6001546000906001600160a01b031633141561127857600354611270576001600160a01b038216600090815260026020526040902080546001919060ff191682800217905550600380546001019055604080516001600160a01b038416815290517f1767f5d6fdb0884c185778bf3ba4d303dc6af28da0798c96577f7c5450631d8b9181900360200190a150600261127c565b50600161127c565b5060005b919050565b6000604182518161128e57fe5b061561129957600080fd5b604080518082018252601c81527f19457468657265756d205369676e6564204d6573736167653a0a33320000000060208083019190915282518082018a90526001600160601b031960608a901b168185015260548101889052607480820188905284518083039091018152609490910190935282519201919091206000808080805b885181101561142b578060200189015194508060400189015193508060600189015160001a92506000600188886040516020018083805190602001908083835b6020831061137a5780518252601f19909201916020918201910161135b565b51815160209384036101000a600019018019909216911617905292019384525060408051808503815284830180835281519184019190912060009091528185018083525260ff8a166060850152608084018c905260a084018b90525160c080850195509193601f198201935081900390910190855afa158015611401573d6000803e3d6000fd5b505050602060405103519050611416816118e0565b15611422576001909201915b5060410161131b565b50955050505050505b95945050505050565b600060016001600160a01b03831660009081526002602081905260409091205460ff169081111561146a57fe5b14156112785750600161127c565b60085490565b604080516f7368796674536166654164647265737360801b6020808301919091526001600160601b0319606085901b16603083015282516024818403018152604490920190925280519101206000906111d681613a42565b60006114e482338a8a613b4c565b60ff166001141561166e5760006114fd83868689613cbe565b905060018115151415611664576000836040516020018082805190602001908083835b6020831061153f5780518252601f199092019160209182019101611520565b51815160209384036101000a60001901801990921691161790526040805192909401828103601f190183528452815191810191909120336000908152600f8352848120828252909252929020600781015492955093505060ff16151590506116585760078101805460ff191660019081179091558a8255810180546001600160a01b03808c166001600160a01b031992831617909255600d5460028401805490921662010000909104909216919091179055600381018b90556004810188905543600682015560408051338152602081018c90528082018d9052606081018a905290517f77291344de79bf705bd655501fbeb116fb55217a8373bde9d76cb6b79d4669539181900360800190a160039350505050611672565b60029350505050611672565b6001915050611672565b5060005b979650505050505050565b60006116883361143d565b156112785760016001600160a01b03831660009081526002602081905260409091205460ff16908111156116b857fe5b146112705760026003541061182d576040805173383937b6b7ba32a0b236b4b734b9ba3930ba37b960611b6020808301919091526001600160601b0319606086901b1660348301528251602881840301815260489092019092528051910120600061172282613fc6565b905060008054821061173657506001611753565b600061174184613a42565b9050600054811061175157600191505b505b60018115151415611821576001600160a01b0385166000908152600260205260409020805460ff1916600190811790915560038054909101905561179683613feb565b506117d9426040516020018080671c1c9bdb5bdd195960c21b815250600801828152602001915050604051602081830303815290604052805190602001206140ea565b604080516001600160a01b038716815290517f7f477eb04f5a964ab231fdc42872d9356c3010171ed2c961d9166f49239786979181900360200190a16002935050505061127c565b6003935050505061127c565b6001600160a01b038216600090815260026020908152604091829020805460ff191660019081179091556003805490910190558151671c1c9bdb5bdd195960c21b8183015242602880830191909152835180830390910181526048909101909252815191012061189c906140ea565b604080516001600160a01b038416815290517f7f477eb04f5a964ab231fdc42872d9356c3010171ed2c961d9166f49239786979181900360200190a150600261127c565b6001600160a01b031660009081526007602052604090206002015462010000900460ff1690565b60006119123361143d565b1561127857506013819055600161127c565b60006008611930611478565b838161193857fe5b068154811061194357fe5b6000918252602090912001546001600160a01b031692915050565b60065490565b600081834303106119775750600161197b565b5060005b92915050565b600061198c3361143d565b156112785760016001600160a01b03831660009081526002602081905260409091205460ff16908111156119bc57fe5b141561127057604080517f61646d696e697374726174696f6e5265766f636174696f6e566f7465000000006020808301919091526001600160601b0319606086901b16603c83015282516030818403018152605090920190925280519101206000611a2682613fc6565b9050600080548210611a3a57506001611a57565b6000611a4584613a42565b90506000548110611a5557600191505b505b60018115151415611b49576001600160a01b038516600090815260026020818152604092839020805460ff1916909217909155600380546000190190558151661c995d9bdad95960ca1b81830152426027808301919091528351808303909101815260479091019092528151910120611acf906140ea565b6000546003541015611af75760026003541115611af157600354600055611af7565b60026000555b611b0083613feb565b50604080516001600160a01b038716815290517f79830203ee788345fbc4b7afa193ed483738eaecd94975fa1fa50c09c9a5be1f9181900360200190a16003935050505061127c565b6002935050505061127c565b6001600160a01b031660009081526011602052604090205490565b6000611b7b3361143d565b1561127857600082118015611b9257506003548211155b1561127057611b9f614e5c565b828152426202a30001602082019081526006805460018101825560009190915282517ff652222313e28459528d920b65115c16c04f3efc82aaedc97be59f3f377c0d3f60039092029182015590517ff652222313e28459528d920b65115c16c04f3efc82aaedc97be59f3f377c0d408201556040909101517ff652222313e28459528d920b65115c16c04f3efc82aaedc97be59f3f377c0d41909101805460ff191691151591909117905550600261127c565b6000611c5d3361143d565b15611dc15760408051727365747570546f6b656e436861696e496e666f60681b6020808301919091526001600160601b031960608b901b1660338301526047820189905287151560f890811b6067840152871515901b6068830152606980830186905283518084039091018152608990920190925280519101206000611ce282613a42565b9050600080548210611cf657506001611d13565b6000611d0184613a42565b90506000548110611d1157600191505b505b8015611db557611d2283613feb565b506001600160a01b038a166000908152601460205260409020805460ff16611da8578054600160ff19909116811762ff00001916620100008a1515021761ff0019166101008b15150217825581018a905560008a815260078201602090815260408083208990556006840190915290208690556008018690555060039250611dc5915050565b6002945050505050611dc5565b60019350505050611dc5565b5060005b9695505050505050565b600061197b826118e0565b60006020845181611de757fe5b0615611df257600080fd5b6020840151600090604090859083905b88518411611e925788840151600182811696509092501c8415611e555782826040516020018083815260200182815260200192505050604051602081830303815290604052805190602001209250611e87565b818360405160200180838152602001828152602001925050506040516020818303038152906040528051906020012092505b602084019350611e02565b505090931495945050505050565b6000611eab3361143d565b156111d25760008484846040516020018080614f8e602a9139602a01846001600160a01b031660601b815260140183815260200182151560f81b815260010193505050506040516020818303038152906040528051906020012090506000611f1282613a42565b9050600080548210611f2657506001611f43565b6000611f3184613a42565b90506000548110611f4157600191505b505b8015611fd957611f5283613feb565b506001600160a01b03871660009081526014602052604090205460ff16151560011415611fcd57505050506001600160a01b038316600090815260146020908152604080832085845260028101835281842080548615801560ff199283161790925560039283019094529190932080549092161790556111d6565b600293505050506111d6565b600193505050506111d6565b6009546001600160a01b031690565b6001546000906001600160a01b0316331461200e57600080fd5b612017826118e0565b61202057600080fd5b6001600160a01b038216600090815260076020526040812080546001600160a01b03191681556001810182905560028101805462ffffff191690556003018190555b61206a611478565b8110156120db57826001600160a01b03166008828154811061208857fe5b6000918252602090912001546001600160a01b031614156120d357600881815481106120b057fe5b600091825260209091200180546001600160a01b0319169055506001905061127c565b600101612062565b5061197b826118e0565b60006001600160a01b0382166120fa57600080fd5b6121033361143d565b1561127857604080516f7368796674536166654164647265737360801b6020808301919091526001600160601b0319606086901b1660308301528251602481840301815260449092019092528051910120600061215f82613a42565b905060005481106121c157600d80546001600160a01b038087166201000090810262010000600160b01b03199093169290921792839055600e80546001600160a01b03191692909304161790556121b582613feb565b5060029250505061127c565b60019250505061127c565b60135490565b3060009081526014602052604081206005015481901561233d57600e54604080516343727b1160e01b81526001600160a01b03878116600483015260248201879052915160009392909216916343727b1191604480820192602092909190829003018186803b15801561224457600080fd5b505afa158015612258573d6000803e3d6000fd5b505050506040513d602081101561226e57600080fd5b5051600e5460408051631d6e484160e31b81526001600160a01b038981166004830152602482018990529151939450600093919092169163eb724208916044808301926020929190829003018186803b1580156122ca57600080fd5b505afa1580156122de573d6000803e3d6000fd5b505050506040513d60208110156122f457600080fd5b505130600090815260146020526040902060050154909150821080159061232c57503060009081526014602052604090206004015481145b1561233657600192505b50506111d6565b5060019392505050565b6001600160a01b03166000908152601060205260409020546000190190565b60005490565b6000806000836040516020018082805190602001908083835b602083106123a45780518252601f199092019160209182019101612385565b51815160209384036101000a60001901801990921691161790526040805192909401828103601f190183528452815191810191909120336000908152600f83528481208282529092529290206007810154929550935050600160ff9091161515141590506126745760018101546001600160a01b0316600090815260146020908152604080832084548452600690810190925290912054908201546124499082611964565b1561266457600482015460058301546040805160208082018d90528183018e9052606082018f9052608082019490945260a08082018490528251808303909101815260c08201808452815191909501209290935260e083018290525190917fb769d33e21fcd393ad4cceb01ecdd9a2be24ce9c9a2fa327e6a84966c9ad2a1b91908190036101000190a160018301546001600160a01b031660009081526010602052604090208054612514918e918491908c90811061250457fe5b9060005260206000200154611dda565b1515600114156126535760078301805461ff001916610100179055600e546003840154845460408051634eee55f360e01b81523360048201526024810193909352604483019190915260006064830181905281519093849384936001600160a01b0390921692634eee55f39260848084019391929182900301818787803b15801561259e57600080fd5b505af11580156125b2573d6000803e3d6000fd5b505050506040513d60408110156125c857600080fd5b5080516020909101519092509050600260ff831614156102ba576001860154600d5487546003890154604080519283526020830191909152805133946001600160a01b039081169462010000900416927f3c22fd8f01cdf75b1c482bad07576afdf88820a2c037e306683a31533840097b92908290030190a460049850965061267e95505050505050565b60026000955095505050505061267e565b600160009450945050505061267e565b6000809350935050505b965096945050505050565b6001546001600160a01b031690565b6001600160a01b038416600090815260116020526040812054600101841480156126c157508383115b6126ca57600080fd5b6009546001600160a01b031633146126e157600080fd5b6013546126f18787878787611281565b10156126fc57600080fd5b6001600160a01b03851660008181526010602090815260408083208054600181018255818552838520018b90559284905291548251938452908301879052815160001990910192899287927f691277be7a3936f5965398fcea7e9b8dba715de92a20dccdab651b06046ab95c9281900390910190a4506001600160a01b0384166000908152601160209081526040808320859055601090915290205495945050505050565b6001546001600160a01b031681565b6000336001600160a01b0388161415611dc157600e5460408051631d6e484160e31b81523360048201526024810187905290516001600160a01b039092169163eb72420891604480820192602092909190829003018186803b15801561281557600080fd5b505afa158015612829573d6000803e3d6000fd5b505050506040513d602081101561283f57600080fd5b5051851480156128cb5750600e54604080516343727b1160e01b81523360048201526024810187905290516001600160a01b03909216916343727b1191604480820192602092909190829003018186803b15801561289c57600080fd5b505afa1580156128b0573d6000803e3d6000fd5b505050506040513d60208110156128c657600080fd5b505186145b15612afb576128dd3386868686614124565b60ff1660061415612af357600e5460408051632e8874a360e01b815233600482015260248101879052815160009384936001600160a01b0390911692632e8874a3926044808301939282900301818787803b15801561293b57600080fd5b505af115801561294f573d6000803e3d6000fd5b505050506040513d604081101561296557600080fd5b5080516020909101519092509050600660ff831614156102ba57600e546040805163c59c240560e01b81526004810184905290516000926001600160a01b03169163c59c240591602480830192602092919082900301818787803b1580156129cc57600080fd5b505af11580156129e0573d6000803e3d6000fd5b505050506040513d60208110156129f657600080fd5b50519050600260ff821614156102ba57600e5460408051632ea8ee3560e11b81526004810185905290516000926001600160a01b031691635d51dc6a91602480830192602092919082900301818787803b158015612a5357600080fd5b505af1158015612a67573d6000803e3d6000fd5b505050506040513d6020811015612a7d57600080fd5b50519050600560ff821614156102ba57600d54604080518b8152602081018d90523081830152905133926001600160a01b038a8116936201000090920416917fac3c4d62969c329246e9938bebd3b23524d50277b1fe6f144beb8c43f353525e9181900360600190a46006945050505050611dc5565b506002611dc5565b506001611dc5565b6001600160a01b038216600090815260146020526040812080546001918291610100900460ff161515821480612b455750805462010000900460ff1615156001145b15612b775780600101548514612b7257600085815260028201602052604090205460ff16612b7257600092505b612b9a565b600085815260038201602052604090205460ff16151560011415612b9a57600091505b6001831515148015612bae57506001821515145b15612bbc5760019350612bc1565b600093505b50505092915050565b6001600160a01b0382166000908152601060205260408120805483908110612bee57fe5b9060005260206000200154905092915050565b6000612c0c3361143d565b156111d25760008484846040516020018080614f2960219139602101846001600160a01b031660601b815260140183815260200182815260200193505050506040516020818303038152906040528051906020012090506000612c6e82613a42565b9050600080548210612c8257506001612c9f565b6000612c8d84613a42565b90506000548110612c9d57600191505b505b8015611fd957612cae83613feb565b506001600160a01b03871660009081526014602052604090205460ff16151560011415611fcd578415612d0f575050506001600160a01b038416600090815260146020908152604080832086845260070190915290208290555060046111d6565b600393505050506111d6565b6000612d263361143d565b1561197757604080517f7265736574436f6e6669726d6174696f6e426c6f636b735265717569726564006020808301919091526001600160601b0319606087901b16603f830152605380830186905283518084039091018152607390920190925280519101206000612d9782613a42565b9050600080548210612dab57506001612dc8565b6000612db684613a42565b90506000548110612dc657600191505b505b8015612e8157612dd783613feb565b506001600160a01b03861660009081526014602052604090205460ff16151560011415612e75576001600160a01b038616600090815260146020908152604080832088845260070190915290205415612e6957505050506001600160a01b038216600090815260146020908152604080832084845260078101835281842054600690910190925290912055600461197b565b6003935050505061197b565b6002935050505061197b565b6001935050505061197b565b604080516f7368796674536166654164647265737360801b6020808301919091526001600160601b0319606085901b16603083015282516024818403018152604490920190925280519101206000906111d681613fc6565b6000612ef03361143d565b156112785760065463ffffffff831610156112705760035460068363ffffffff1681548110612f1b57fe5b906000526020600020906003020160000154116130a45760068263ffffffff1681548110612f4557fe5b600091825260209091206002600390920201015460ff16158015612f8d575060068263ffffffff1681548110612f7757fe5b9060005260206000209060030201600101544211155b1561309c576000826040516020018080614f6c602291396022018263ffffffff1660e01b81526004019150506040516020818303038152906040528051906020012090506000612fdc82613fc6565b9050600080548210612ff05750600161300d565b6000612ffb84613a42565b9050600054811061300b57600191505b505b600181151514156130905760068563ffffffff168154811061302b57fe5b906000526020600020906003020160000154600081905550600160068663ffffffff168154811061305857fe5b60009182526020909120600390910201600201805460ff191691151591909117905561308383613feb565b506005935050505061127c565b6004935050505061127c565b50600361127c565b50600261127c565b6000336001600160a01b03831614156130c457600080fd5b6130cd336118e0565b6130d657600080fd5b6130df826118e0565b6130e857600080fd5b336000908152600760205260409020600281015460ff1661310857600080fd5b823360405160200180836001600160a01b031660601b8152601401826001600160a01b031660601b8152601401925050506040516020818303038152906040528051906020012081600101541461315e57600080fd5b6002810154610100900460ff161561317557600080fd5b60028101805461ffff19166101001790556001600160a01b038316600090815260076020526040902060038101805460010190819055600c541015613239578054600980546001600160a01b039092166001600160a01b03199092169190911790556001810154600a55600281018054600b805460ff191660ff928316151517808255835461ff0019909116610100918290048416151590910217808255925462ff000019909316620100009384900490921615159092021790556003810154600c555b6040516001600160a01b0385169033907f1c000bbf6dd37ae2e40aad976c068a1e12352f887ea363538ec5536e8eb5ae1090600090a3600d805460ff61010080830482166001019091160261ff00199091161790556002613298611478565b8161329f57fe5b04600d60019054906101000a900460ff1660ff161061233d576040517f71458a6ef696bda1a4c388dee0833fb06826402ee262df6b29c067d093a51be990600090a1600d805461ff00191690555060019392505050565b6001600160a01b0316600090815260146020908152604080832080546001820154600483015460058401546008850154838952600686018852868920546007909601909752949096205460ff610100840481169862010000909404169691959194939192565b60008061336b8386868a613cbe565b905060018115151415613481576000866040516020018082805190602001908083835b602083106133ad5780518252601f19909201916020918201910161338e565b6001836020036101000a0380198251168184511680821785525050505050509050019150506040516020818303038152906040528051906020012090506000600f6000336001600160a01b03166001600160a01b03168152602001908152602001600020600083815260200190815260200160002090508881600501819055507f82f4a3d95048d46f977da336e1a98a30e94a4396e2d9ea8b715077fdc5333992338a60405180836001600160a01b031681526020018281526020019250505060405180910390a160019350505050611434565b6000915050611434565b60006134963361143d565b156111d25760008484846040516020018080614f4a60229139602201846001600160a01b031660601b8152601401838152602001828152602001935050505060405160208183030381529060405280519060200120905060006134f882613a42565b905060008054821061350c57506001613529565b600061351784613a42565b9050600054811061352757600191505b505b8015611fd95761353883613feb565b506001600160a01b03871660009081526014602052604090205460ff16151560011415611fcd575050506001600160a01b0384166000908152601460205260409020600481018490556005018290555060036111d6565b6001600160a01b031660009081526002602052604090205460ff1690565b6001546000906001600160a01b031633146135c757600080fd5b6135d0826118e0565b156135da57600080fd5b6135e2614e7f565b6001600160a01b038084168083527fc5d2460186f7233c927e7db2dcc703c0e500b653ca82273b7bfad8045d85a47060208085019182526000604080870182815260608801838152600160808a0181815260a08b01868152898752600788528587208c5181549c166001600160a01b03199c8d161781559851898401559351600289018054945192511515620100000262ff0000199315156101000261ff001993151560ff19909716969096179290921694909417919091161790915590516003909501949094556008805494850181559091527ff3f7a9fe364faab93b216da50a3214154f22a0a2b415b23a84c8169e8b636ee3909201805490941683179093558051918252517f03580ee9f53a62b7cb409a2cb56f9be87747dd15017afc5cef6eef321e4fb2c5929181900390910190a150600192915050565b6001546000906001600160a01b0316331461373857600080fd5b600d805461ffff1916905560005b60085481101561386f576000600760006008848154811061376357fe5b60009182526020808320909101546001600160a01b03168352820192909252604001812060030191909155600880546007918391859081106137a157fe5b60009182526020808320909101546001600160a01b03168352820192909252604001812060010191909155600880546007918391859081106137df57fe5b6000918252602080832091909101546001600160a01b031683528201929092526040018120600201805460ff1916921515929092179091556008805460079183918590811061382a57fe5b60009182526020808320909101546001600160a01b03168352820192909252604001902060020180549115156101000261ff0019909216919091179055600101613746565b506040517f653f143b0f65caf97199c94ab208a5ff52424b7ee35dd6356adefb27aac9268590600090a150600190565b600d546201000090046001600160a01b031681565b60035481565b60006138c5336118e0565b6138ce57600080fd5b7fc5d2460186f7233c927e7db2dcc703c0e500b653ca82273b7bfad8045d85a4708214156138fb57600080fd5b604080513360601b60208083018290526034830191909152825160288184030181526048909201909252805191012082141561393657600080fd5b336000908152600760205260409020600281015460ff1661396857600d805460ff8082166001011660ff199091161790555b600181810184905560028201805460ff191690911761ff001916905560408051848152905133917f59ef77d27ab0cc97bad48290b138d686cd4f9a6276c529992d1b9cc659a6dca1916020918190039190910190a260026139c7611478565b816139ce57fe5b600d5491900460ff90911610613a12576040517f94952e77d0e8498eed40be9fb464640d8a6ea76fb1f15a5387255938091b0a4890600090a1600d805460ff191690555b50600192915050565b600082613a2a5750600061197b565b82820282848281613a3757fe5b04146111d657600080fd5b6000613a4d3361143d565b15611278576000613a5d836144e4565b600354600082815260046020526040902060020154919250118015613ad85750600081815260046020908152604080832033845290915281205460ff166003811115613aa557fe5b1480613ad857506003600082815260046020908152604080832033845290915290205460ff166003811115613ad657fe5b145b15613b33576000818152600460208181526040808420600281018054600190810190915533808752828552928620805460ff191682179055938352830180549384018155845292200180546001600160a01b03191690911790555b600090815260046020526040902060020154905061127c565b6000613b56614eb4565b613b5f86614513565b90506060613b6c82614556565b90506060613b8d82600581518110613b8057fe5b602002602001015161461f565b90506000613ba8613ba18360066020614690565b6000614710565b90506000613bbc613ba18460266020614690565b90506000613bd0613ba18560466020614690565b90506000613be4613ba18660a66020614690565b604080516001600160a01b03808f168252602082018e90528183018d905280881660608301526080820187905260a082018690523060c0830152831660e082015290519192507f1482be5d6296f96b864596db7d1a52317e8e07618e794c57e43c226a22ead60f91908190036101000190a18a6001600160a01b0316846001600160a01b0316148015613c7657508983145b8015613c8157508882145b8015613c9557506001600160a01b03811630145b15613caa576001975050505050505050613cb6565b60009750505050505050505b949350505050565b6000613cc8614eb4565b613cd184614513565b90506060613cde82614556565b905060608085600082613cf08b61472c565b9050805160001415613d0c576000975050505050505050613cb6565b60005b8651811015613fb657613d27878281518110613b8057fe5b9550613d45878281518110613d3857fe5b6020026020010151614556565b9450845160111415613eb8578151831415613e6d578c6040516020018082805190602001908083835b60208310613d8d5780518252601f199092019160209182019101613d6e565b6001836020036101000a03801982511681845116808217855250505050505090500191505060405160208183030381529060405280519060200120613dd886601081518110613b8057fe5b6040516020018082805190602001908083835b60208310613e0a5780518252601f199092019160209182019101613deb565b6001836020036101000a038019825116818451168082178552505050505050905001915050604051602081830303815290604052805190602001201415613e5c57600198505050505050505050613cb6565b600098505050505050505050613cb6565b6000828481518110613e7b57fe5b602001015160f81c60f81b60f81c9050613eaa868260ff1681518110613e9d57fe5b6020026020010151614889565b945060018401935050613fae565b845160021415613e5c57613ee9613ee286600081518110613ed557fe5b6020026020010151614894565b8385614910565b8251930192831415613f73578c6040516020018082805190602001908083835b60208310613f285780518252601f199092019160209182019101613f09565b6001836020036101000a03801982511681845116808217855250505050505090500191505060405160208183030381529060405280519060200120613dd886600181518110613ed557fe5b613f86613ee286600081518110613ed557fe5b613f9b57600098505050505050505050613cb6565b613fab85600181518110613e9d57fe5b93505b600101613d0f565b5050505050505050949350505050565b600080613fd2836144e4565b6000908152600460205260409020600201549392505050565b6000613ff63361143d565b15611278576000614006836144e4565b600081815260046020526040902060020154909150156140e05760005b6000828152600460205260409020600101548110156140a457600082815260046020526040812060018101805460039391908590811061405f57fe5b60009182526020808320909101546001600160a01b031683528201929092526040019020805460ff1916600183600381111561409757fe5b0217905550600101614023565b5060008181526004602052604081206140c291600190910190614ece565b6000908152600460205260408120600290810191909155905061127c565b600191505061127c565b6005548160405160200180838152602001828152602001925050506040516020818303038152906040528051906020012060058190555050565b60006141308286612b03565b1515600114156144dc578284146144d457600e54604080516304022f3b60e01b81526001600160a01b03898116600483015260248201889052915191909216916304022f3b916044808301926020929190829003018186803b15801561419557600080fd5b505afa1580156141a9573d6000803e3d6000fd5b505050506040513d60208110156141bf57600080fd5b505160ff1660021480156142555750600e54604080516304022f3b60e01b81526001600160a01b03898116600483015260248201879052915191909216916304022f3b916044808301926020929190829003018186803b15801561422257600080fd5b505afa158015614236573d6000803e3d6000fd5b505050506040513d602081101561424c57600080fd5b505160ff166002145b156144cc57600e546040805163eea8af3360e01b81526001600160a01b038981166004830152602482018890529151919092169163eea8af33916044808301926020929190829003018186803b1580156142ae57600080fd5b505afa1580156142c2573d6000803e3d6000fd5b505050506040513d60208110156142d857600080fd5b505160ff16600214801561436e5750600e546040805163eea8af3360e01b81526001600160a01b038981166004830152602482018790529151919092169163eea8af33916044808301926020929190829003018186803b15801561433b57600080fd5b505afa15801561434f573d6000803e3d6000fd5b505050506040513d602081101561436557600080fd5b505160ff166002145b156144c457600e54604080516330de37e760e21b81526001600160a01b038981166004830152306024830152604482018890529151919092169163c378df9c916064808301926020929190829003018186803b1580156143cd57600080fd5b505afa1580156143e1573d6000803e3d6000fd5b505050506040513d60208110156143f757600080fd5b505160ff1660021480156144935750600e54604080516330de37e760e21b81526001600160a01b038981166004830152306024830152604482018790529151919092169163c378df9c916064808301926020929190829003018186803b15801561446057600080fd5b505afa158015614474573d6000803e3d6000fd5b505050506040513d602081101561448a57600080fd5b505160ff166002145b156144bc576144a286846121d2565b1515600114156144b457506006611434565b506005611434565b506004611434565b506003611434565b506002611434565b506001611434565b506000611434565b600554604080516020808201939093528082019390935280518084038201815260609093019052815191012090565b61451b614eb4565b81518061453d575050604080518082019091526000808252602082015261127c565b6040805180820190915260209384018152928301525090565b606061456182614abb565b61456a57600080fd5b600061457583614ae2565b90508067ffffffffffffffff8111801561458e57600080fd5b506040519080825280602002602001820160405280156145c857816020015b6145b5614eb4565b8152602001906001900390816145ad5790505b5091506145d3614eef565b6145dc84614b3c565b905060005b6145ea82614b73565b15614617576145f882614b92565b84828151811061460457fe5b60209081029190910101526001016145e1565b505050919050565b60208101516060908061463657506060905061127c565b8067ffffffffffffffff8111801561464d57600080fd5b506040519080825280601f01601f191660200182016040528015614678576020820181803683370190505b50915061468a83600001518383614bd2565b50919050565b6060818301845110156146a257600080fd5b6060821580156146bd57604051915060208201604052614707565b6040519150601f8416801560200281840101858101878315602002848b0101015b818310156146f65780518352602092830192016146de565b5050858452601f01601f1916604052505b50949350505050565b6000816020018351101561472357600080fd5b50016020015190565b60608060008351111561197b57600080614747600086614c10565b60f81c9050600181148061475e57508060ff166003145b156147ed57600185516002020367ffffffffffffffff8111801561478157600080fd5b506040519080825280601f01601f1916602001820160405280156147ac576020820181803683370190505b50925060006147bc600187614c10565b905080846000815181106147cc57fe5b60200101906001600160f81b031916908160001a905350600192505061483e565b600285516002020367ffffffffffffffff8111801561480b57600080fd5b506040519080825280601f01601f191660200182016040528015614836576020820181803683370190505b509250600091505b60ff82165b8351811015612bc15761485e8360ff16820360020187614c10565b84828151811061486a57fe5b60200101906001600160f81b031916908160001a905350600101614843565b600061197b82614c6d565b606061489f82614cbd565b6148a857600080fd5b6000806148b484614ce3565b90925090508067ffffffffffffffff811180156148d057600080fd5b506040519080825280601f01601f1916602001820160405280156148fb576020820181803683370190505b509250614909828483614bd2565b5050919050565b600080606061491e8661472c565b90506060815167ffffffffffffffff8111801561493a57600080fd5b506040519080825280601f01601f191660200182016040528015614965576020820181803683370190505b509050845b825186018110156149bf57600087828151811061498357fe5b602001015160f81c60f81b905080838884038151811061499f57fe5b60200101906001600160f81b031916908160001a9053505060010161496a565b50806040516020018082805190602001908083835b602083106149f35780518252601f1990920191602091820191016149d4565b6001836020036101000a03801982511681845116808217855250505050505090500191505060405160208183030381529060405280519060200120826040516020018082805190602001908083835b60208310614a615780518252601f199092019160209182019101614a42565b6001836020036101000a038019825116818451168082178552505050505050905001915050604051602081830303815290604052805190602001201415614aab5781519250614ab0565b600092505b509095945050505050565b6000816020015160001415614ad25750600061127c565b50515160c060009190911a101590565b6000614aed82614abb565b614af95750600061127c565b81518051600090811a9190614b0d85614d51565b6020860151908301915082016000190160005b818311611dc557614b3083614dcf565b90920191600101614b20565b614b44614eef565b614b4d82614abb565b614b5657600080fd5b6000614b6183614d51565b83519383529092016020820152919050565b6000614b7d614eb4565b50508051602080820151915192015191011190565b614b9a614eb4565b614ba382614b73565b156102ba5760208201516000614bb882614dcf565b82845260208085018290529201918401919091525061127c565b6020601f820104836020840160005b83811015614bfd57602081028381015190830152600101614be1565b5050505060008251602001830152505050565b60006002830615614c41576010826002850481518110614c2c57fe5b016020015160f81c81614c3b57fe5b06614c63565b6010826002850481518110614c5257fe5b016020015160f81c81614c6157fe5b045b60f81b9392505050565b6000614c7882614cbd565b614c8157600080fd5b600080614c8d84614ce3565b90925090506020811180614c9f575080155b15614ca957600080fd5b806020036101000a82510492505050919050565b6000816020015160001415614cd45750600061127c565b50515160c060009190911a1090565b600080614cef83614cbd565b614cf857600080fd5b8251805160001a906080821015614d155780935060019250614d4a565b60b8821015614d335760018560200151039250806001019350614d4a565b602085015182820160b51901945082900360b60192505b5050915091565b6000816020015160001415614d685750600061127c565b8151805160001a906080821015614d845760009250505061127c565b60b8821080614d9f575060c08210158015614d9f575060f882105b15614daf5760019250505061127c565b60c0821015614dc4575060b51901905061127c565b5060f5190192915050565b8051600090811a6080811015614de8576001915061468a565b60b8811015614dfd57607e198101915061468a565b60c0811015614e2657600183015160b76020839003016101000a9004810160b51901915061468a565b60f8811015614e3b5760be198101915061468a565b6001929092015160f76020849003016101000a900490910160f51901919050565b604051806060016040528060008152602001600081526020016000151581525090565b6040805160c081018252600080825260208201819052918101829052606081018290526080810182905260a081019190915290565b604051806040016040528060008152602001600081525090565b5080546000825590600052602060002090810190614eec9190614f0f565b50565b6040518060400160405280614f02614eb4565b8152602001600081525090565b5b80821115614f245760008155600101614f10565b509056fe73657442617365436f6e6669726d6174696f6e426c6f636b735265717569726564746f6b656e436861696e5365745472616e736974426f6e64506172616d657465727361646d696e436f6e6669726d6174696f6e5468726573686f6c6450726f706f73616c746f6b656e436861696e4d6f64696679416c6c6f7765644269703332585f747970655472616e73666572a2646970667358221220fcef84ac332f032d49057ebfeecd97f7534cc74ef6381f19bdb1579a71fb257a64736f6c63430007010033",
  "immutableReferences": {},
  "source": "//@note:@todo:@next: build a tool that allow an attestation from the bridge to other accounts to become\n// possible, tracking the originating blockchain account's immediate attestation settings. A trust channel\n// map could theoretically be able to be done.\n\n/*\n    **** The Shyft Bridge ****\n\n    This smart contract is the primary mechanism for the book-keeping (not the cross chain architecture that does\n    oracalized bridging) for the Shyft Bridge. There are many functions that relate to both the entry into the bridge\n    (transitAsset for example) and functions on the exit of the bridge (withdrawAsset for example).\n\n    All entrances are guarded by Safe Holds being timelocked up until the point where transitAsset is called (holds are\n    done by timestamps based on expiry time (the Safe's holdSafeBalanceForTypeWithPermissions for example), with\n    permissions for the Bridge itself to aquire those synthetic assets, burn them on the source chain, and create them\n    on the withdrawal chain.\n\n    Both transaction roots and transaction receipt roots are required for proof of proper transfer.\n\n    Upon withdrawal, funds are created as Safe Holds within the destination address's control on the destination chain,\n    thus can be converted into either the synthetic *or* if the destination chain's native fuel *is* the synthetic asset\n    type, it can be converted to native fuel re: ShyftKycContract (which inherits the Safe functionality).\n*/\n\n\n\npragma solidity ^0.7.1;\n//SPDX-License-Identifier: UNLICENSED\n\nimport \"./Interfaces/IShyftSafe.sol\";\nimport \"./Libraries/MerklePatriciaProof.sol\";\n\nimport \"./Libraries/SafeMath.sol\";\n\nimport \"./Constants/TokenConstants.sol\";\n\nimport \"./Libraries/BytesLib.sol\";\n\nimport \"./RelayerElection.sol\";\n\ncontract ShyftBridge is RelayerElection, TokenConstants {\n    using SafeMath for uint256;\n\n    event EVT_RootStorage(address chain, uint256 start,\n        uint256 indexed end, bytes32 indexed headerRoot, uint indexed i);\n\n    event EVT_TransitAsset(address indexed shyftSafe, address indexed toChain, address indexed toAddress, uint256 bip32X_type,\n        uint256 amount, address fromChain);\n\n    event EVT_WithdrawAsset(address indexed shyftSafe, address indexed fromChain,\n        address indexed fromAddress, uint256 bip32X_type, uint256 amount);\n\n    event EVT_TokenAdded(address indexed fromChain, uint256 indexed bip32X_type_orig,\n        uint256 indexed bip32X_type_new);\n\n    event EVT_TokenAssociated(address indexed toChain, uint256 indexed bip32X_type_from,\n        uint256 indexed bip32X_type_to);\n\n//    event EVT_withdrawAsset(bool hasBeenSetup, bytes32 rlpWithdrawTx, uint256 withdrawalPrepareBlockNumber, uint256 blockTime, uint256 confirmationTime);\n\n    event EVT_PreparedWithdrawal(address _user, uint256 _bip32X_type, uint256 _amount, bytes32 _txRoot);\n\n    event EVT_WithdrawTest(bytes32 _receiptsRoot, bytes32 leaf);\n\n    event EVT_ProveWithdrawalReceipt(address _to, bytes32 _receiptsRoot);\n\n    event EVT_confirmTxContractParameters(address _address, uint256 amount, uint256 bip32X_type, address proofAddress, uint256 proofAmount, uint256 proofBip32XType, address _thisChain, address proofToChain);\n//    event EVT_debugRLPTransitTx(uint256 nonce, uint256 gasPrice, uint256 gas, address to, uint256 amount, bytes input, bytes32 v, bytes32 r, bytes32 s, bytes32 inputHash);\n\n    // The user prepares a withdrawal with Safe data and then releases it with a withdraw.\n    struct Withdrawal {\n        uint256 bip32X_type;\n        address fromChain;\n        address safeAddress;\n        uint256 amount;\n        bytes32 txRoot;\n        bytes32 receiptsRoot;\n        uint256 withdrawalPrepareBlockNumber;\n\n        bool hasBeenSetup;\n        bool hasBeenProcessed;\n    }\n\n    address public shyftSafeAddress = address(0);\n\n    IShyftSafe shyftSafe;\n\n    // The key is a shyftSafe address and the rlpWithdrawTx, and the value is a withdrawal struct.\n    mapping(address => mapping(bytes32 => Withdrawal)) userWithdrawals;\n\n    // Roots of merkle trees made up of consecutive block headers\n    // The key is the bridged chain and the value is the corresponding root.\n    mapping(address => bytes32[]) roots;\n\n    // Tracking the last block for each bridge network\n    mapping(address => uint256) lastBlock;\n\n    // Tokens need to be associated between chains.\n    // fromChainAddress => (oldToken => newToken)\n    mapping(address => mapping(uint32 => uint32)) tokens;\n\n    uint256 relayerThreshold = 1;\n\n    struct tokenChainInfo {\n        bool isSetup;\n        bool isTestnet;\n        bool isPrivatenet;\n\n        uint256 nativeTokenType;\n\n        mapping(uint256 => bool) bip32X_typeTokenAllowed;\n        mapping(uint256 => bool) bip32X_typeTokenDisallowed;\n\n        uint256 transitBondBip32X_type;\n        uint256 transitBondAmount;\n\n        mapping(uint256 => uint256) confirmationBlocksRequired;\n        mapping(uint256 => uint256) baseConfirmationBlocksRequired;\n\n        uint256 averageBlockTime;\n    }\n\n    mapping(address => tokenChainInfo) tokenChains;\n\n    constructor(uint256 _nativeBip32X_type) {\n        owner = msg.sender;\n        Relayer memory temp;\n        temp.addr = msg.sender;\n        nextRelayer = temp;\n\n        uint256 averageBlockTime = 15;\n\n        uint256 blocksRequired = 6;\n        //set initial confirmation time for 1 minute\n        tokenChains[address(this)].averageBlockTime = averageBlockTime;\n        tokenChains[address(this)].nativeTokenType = _nativeBip32X_type;\n\n        tokenChains[address(this)].baseConfirmationBlocksRequired[_nativeBip32X_type] = blocksRequired;\n        tokenChains[address(this)].confirmationBlocksRequired[_nativeBip32X_type] = blocksRequired;\n    }\n\n    /**************** RELAYER FUNCTIONS *************/\n\n    // @dev: Since we are assuming Shyft is honest, there's no need to propose a root.\n    // Thus, we can simply set an appropriate root.\n    //\n    // @dev: This function saves a hash to an append-only array of block header hashes\n    // associated with the given origin chain address-id.\n    //\n    // @param _root , the root we want to add\n    // @param _chainId, the bridge contract addess on the bridged network from which the header root comes from\n    // @param _end, index to ensure that we are indeed adding blocks\n    // @param _sig, array of signatures of relayers signing [_root, _chainId, _start, _end]\n    function addRoot(bytes32 _root, address _chainId, uint256 _start, uint256 _end, bytes memory _sig) public returns (uint) {\n      // Make sure we are adding blocks\n      require(_start == lastBlock[_chainId] + 1 && _end > _start);\n\n      // Only currently elected relayer can add a root.\n      require(msg.sender == nextRelayer.addr);\n\n      // Ensure that the other relayers sign off on the header root\n      require(checkSignatures(_root, _chainId, _start, _end, _sig) >= relayerThreshold);\n\n      // Add the header roots\n      roots[_chainId].push(_root);\n\n      // Log that Shyft has added a root\n      emit EVT_RootStorage(_chainId, _start, _end, _root, roots[_chainId].length - 1);\n      lastBlock[_chainId] = _end;\n\n      return roots[_chainId].length;\n    }\n\n    /**************** USER/SHYFT SAFE FUNCTIONS *************/\n\n    // @note: a (wallet) user calls this function to begin the process of \"transiting\" (moving) their assets across\n    // blockchains.\n    //\n    // the user needs to have assets currently within their Safe hold(s). as long as the asset is with their Safe hold(s)\n    // it is guaranteed to be a balance they can transit. in order to induce a proper locking mechanism, the asset has a\n    // minimum block confirmation of 6 blocks\n    //\n    // additionally, there is a requirement for a bond to be passed in that is valid.\n\n    //@note:@todo:@future: integrate IEV with bonding mechanism\n//    function setIEVForAsset(uint256 _bip32X_type) public returns (uint8 result) {\n//\n//    }\n//\n//    function getIEVForAsset(uint256 _amount, uint256 _bip32X_type) public returns (uint256 result) {\n//    }\n\n    //@note:@todo:@critical: create full tests for this.\n    //returns:\n    // false = token bip32X_type not allowed for transit\n    // true = token bip32X_type allowed for transit\n\n    function getBip32X_typeAllowedForTransit(address _toChain, uint256 _bip32X_type) public view returns (bool result) {\n        bool passedWhitelist = true;\n        bool passedBlacklist = true;\n\n        tokenChainInfo storage tokenChain = tokenChains[_toChain];\n\n        //@note: special requirements for testnet and privatenet\n        if (tokenChain.isTestnet == true || tokenChain.isPrivatenet == true) {\n            //native types are always allowed (1:1 backed at all times)\n            if (_bip32X_type != tokenChain.nativeTokenType) {\n                //specific testnet tokens can be relayed, but the destination chain must support this\n                if (tokenChain.bip32X_typeTokenAllowed[_bip32X_type] == false) {\n                    passedWhitelist = false;\n                }\n            }\n        } else {\n            //otherwise, everything is allowed that is not on the list\n            if (tokenChain.bip32X_typeTokenDisallowed[_bip32X_type] == true) {\n                passedBlacklist = false;\n            }\n        }\n\n        if (passedWhitelist == true && passedBlacklist == true) {\n            //token bip32X_type allowed for transit\n            result = true;\n        } else {\n            //token bip32X_type not allowed for transit\n            result = false;\n        }\n\n        return result;\n    }\n\n    function getBondPassesBalanceRequirementsForTransit(address _address, uint256 _holdIndexBond) public view returns (bool result) {\n        bool isApproved = false;\n\n        if (tokenChains[address(this)].transitBondAmount > 0) {\n            uint256 holdAmount = shyftSafe.getAmountForHold(_address, _holdIndexBond);\n            uint256 holdBip32X_type = shyftSafe.getBip32XTypeForHold(_address, _holdIndexBond);\n\n            if (holdAmount >= tokenChains[address(this)].transitBondAmount &&\n            holdBip32X_type == tokenChains[address(this)].transitBondBip32X_type) {\n                isApproved = true;\n            }\n\n            //@note:@todo:@future: integrate IEV with bonding mechanism\n            //        uint256 totalRemaining = bridgeConfig.totalRequirement;\n\n            //        for (uint256 i = 0; i < bridgeConfig.bondTypesApproved.length; i++) {\n            //            uint256 currentBalance = getIEVForAsset(shyftSafe.getSafeBalance(_address, bridgeConfig.bondTypesApproved[i]), bridgeConfig.bondTypesApproved[i]);\n            //            if (currentBalance >= totalRemaining) {\n            //                isApproved = true;\n            //            } else {\n            //                //@note: no need for safemath given the subtraction is already bounds-checked\n            //                totalRemaining -= currentBalance;\n            //            }\n            //        }\n        } else {\n            //no bond was set, so passes automatically\n            isApproved = true;\n        }\n\n        return isApproved;\n    }\n\n    //returns:\n    // 0 = token type not allowed for transit\n    // 1 = hold index cannot equal the transit's bond index\n    // 2 = not active\n    // 3 = not permissioned\n    // 4 = transfer permissions don't match\n    // 5 = bond does not pass balance requirements\n    // 6 = pre-transit requirements pass\n\n    function preTransitRequirementsCheck(address _address, uint256 _bip32X_type, uint256 _holdIndex, uint256 _holdIndexBond, address _toChain) internal view returns (uint8 result) {\n        if (getBip32X_typeAllowedForTransit(_toChain, _bip32X_type) == true) {\n            if (_holdIndex != _holdIndexBond) {\n                // prove that the user's safe hold is active\n                if (shyftSafe.getIsActiveForHold(_address, _holdIndex) == 2 &&\n                shyftSafe.getIsActiveForHold(_address, _holdIndexBond) == 2) {\n                    // check if the safe hold is still timelocked\n                    if (shyftSafe.getIsTimelockedForHold(_address, _holdIndex) == 2 &&\n                    shyftSafe.getIsTimelockedForHold(_address, _holdIndexBond) == 2) {\n                        // check if the permissions match\n                        if (shyftSafe.getIsTransferPermissionedAddressForHold(_address, address(this), _holdIndex) == 2 &&\n                        shyftSafe.getIsTransferPermissionedAddressForHold(_address, address(this), _holdIndexBond) == 2) {\n\n                            //@note:@future: extending this with per-chain transit bond requirements could lead to\n                            // interesting economic incentive structures.\n\n                            //do a pre-check to see whether a bond requirement exists, and check the bond's hold if so\n                            if (getBondPassesBalanceRequirementsForTransit(_address, _holdIndexBond) == true) {\n                                //pre-transit requirements pass\n                                return 6;\n                            } else {\n                                //bond does not pass balance requirements\n                                return 5;\n                            }\n                        } else {\n                            //transfer permissions don't match\n                            return 4;\n                        }\n                    } else {\n                        //not permissioned\n                        return 3;\n                    }\n                } else {\n                    //not active\n                    return 2;\n                }\n            } else {\n                //hold index cannot equal the transit's bond index\n                return 1;\n            }\n        } else {\n            //token type not allowed for transit\n            return 0;\n        }\n    }\n\n    //@note: this function requires some variables that would appear to be extant (address, validTimelyBlockNumber)\n    // this is because these are the variables that can are read for via confirmed transaction receipts.\n\n    // returns:\n    // 0 = msg.sender is not address specified\n    // 1 = amount and value don't match\n    // 2 = pre-transfer requirements don't check out\n    // 3 = transferFrom did not succeed\n    // 4 = could not set hold to destructible\n    // 5 = could not burn hold\n    // 6 = asset set up for transmission\n\n    function transitAsset(  address _address,\n                            uint256 _amount,\n                            uint256 _bip32X_type,\n                            uint256 _holdIndex,\n                            uint256 _holdIndexBond,\n                            address _toChainId) public returns (uint8 result) {\n        if (msg.sender == _address) {\n            // make sure that _amount and _bip32X_type match, these will be used later.\n            if (_bip32X_type == shyftSafe.getBip32XTypeForHold(msg.sender, _holdIndex) && _amount == shyftSafe.getAmountForHold(msg.sender, _holdIndex)) {\n                // prove that the user's safe hold is active\n                if (preTransitRequirementsCheck(msg.sender, _bip32X_type, _holdIndex, _holdIndexBond, _toChainId) == 6) {\n                    // safe hold is still timelocked, and the Bridge has permission to move the asset, so make a deposit\n                    // bound for a particular chain.\n\n                    //transfer the safe hold from the user to the Bridge.\n                    uint8 transferFromResult;\n                    uint256 bridgeNewHoldIndex;\n                    (transferFromResult, bridgeNewHoldIndex) = shyftSafe.transferFromSafeHold(msg.sender, _holdIndex);\n\n                    // make sure the transfer completes successfully\n                    if (transferFromResult == 6) {\n                        //@note:@todo:@future: in order to prevent defaults such as the Bridge not actually\n                        // transmitting a message, either this Bridge needs to know about subsequent block headers\n                        // that include more recent commit messages, or the user has to prove their hold is expired\n                        // on another blockchain.\n\n                        // this can be accomplished by proving:\n                        // a. that the user has a bridge meta-header hash on *any blockchain*\n                        // b. that the user can prove that this header transaction was signed by the bridge agent(s)\n                        // c. that the user's transaction, given by the transaction hash they'd need to withdraw, does not\n                        //    exist within the other blockchain.\n\n                        //@note: at the moment, we simply trigger a two-step task to set the Hold to 'destructible' and\n                        // then burn the tokens on the source chain, creating on the destination chain later.\n\n                        // 2 step process, first mark the new safe hold owned by the Bridge to destructible\n\n                        uint8 setSafeHoldDestructibleResult = shyftSafe.setSafeHoldDestructible(bridgeNewHoldIndex);\n                        if (setSafeHoldDestructibleResult == 2) {\n                            uint8 burnResult = shyftSafe.burnSafeHold(bridgeNewHoldIndex);\n\n                            // then burn the hold, & the associated tokens within\n                            if (burnResult == 5) {\n                                emit EVT_TransitAsset(shyftSafeAddress, _toChainId, msg.sender, _bip32X_type, _amount, address(this));\n\n                                //asset set up for transmission\n                                return 6;\n                            } else {\n                                //could not burn hold\n                                //@note: must revert here, since values were modified downstream in the inherited contracts.\n                                revert();\n//                                return 5;\n                            }\n                        } else {\n                            //could not set hold to destructible\n                            //@note: must revert here, since values were modified downstream in the inherited contracts.\n                            revert();\n//                            return 4;\n                        }\n                    } else {\n                        //transferFrom did not succeed\n                        //@note: must revert here, since values were modified downstream in the inherited contracts.\n                        revert();\n//                        return 3;\n                    }\n                } else {\n                    //pre-transfer requirements don't check out\n                    return 2;\n                }\n            } else {\n                //amount and value don't match\n                return 1;\n            }\n        } else {\n            //msg.sender is not address specified\n            return 0;\n        }\n    }\n\n\n    // @dev: Prepares the withdrawal of an asset in a destination chain\n    //\n    // @params _bip32X_type, asset user wants to withdraw.\n    // @param _amount, amount of the asset user wants to withdraw.\n    // @param _fromChain, the chain on which user Transited the asset.\n    // @param _txRoot, the transaction root of the block in the \"from\" chain in which the Transit was made.\n    // @param _path, path in which the Transited transaction block resides in. It is generated off-chain.\n    // @param _parentNodes, list of parent nodes in the Transit transaction.\n    // @param _rlpTransitTx, rlp-encoded Transit transaction data.\n\n    //returns:\n    // 0 = could not confirm tx parameters\n    // 1 = merkle tree proof failed\n    // 2 = signature check failed\n    // 3 = proof already prepared\n    // 4 = proof is now prepared\n\n\n    function prepareWithdrawalOfAsset(  uint256 _amount,\n                                        uint256 _bip32X_type,\n                                        address _fromChain,\n                                        bytes32 _txRoot,\n                                        bytes memory _path,\n                                        bytes memory _parentNodes,\n                                        bytes memory _rlpTransitTx) public returns (uint8 result) {\n//        debugRLPTransitTx(_rlpTransitTx);\n\n        //confirm that the transaction has the proper amount and bip32X type.\n        if (confirmTxContractParameters(_rlpTransitTx, msg.sender, _amount, _bip32X_type) == 1) {\n            // Prove the transaction root;\n            // If on an EVM-compatible chain, use MerklePatriciaProof,\n            // otherwise, it should be sufficient to use prove.\n            bool merkleTreeProofResult = MerklePatriciaProof.verify(_rlpTransitTx, _path, _parentNodes, _txRoot);\n\n            if (merkleTreeProofResult == true) {\n                bytes32 rlpTransitTxHash = keccak256(abi.encodePacked(_rlpTransitTx));\n\n                Withdrawal storage userWithdrawal = userWithdrawals[msg.sender][rlpTransitTxHash];\n                if (userWithdrawal.hasBeenSetup == false) {\n\n                    userWithdrawal.hasBeenSetup = true;\n                    userWithdrawal.bip32X_type = _bip32X_type;\n                    userWithdrawal.fromChain = _fromChain;\n                    userWithdrawal.safeAddress = shyftSafeAddress;\n                    userWithdrawal.amount = _amount;\n                    userWithdrawal.txRoot = _txRoot;\n                    userWithdrawal.withdrawalPrepareBlockNumber = block.number;\n\n                    emit EVT_PreparedWithdrawal(msg.sender, _bip32X_type, _amount, _txRoot);\n\n                    //proof is now prepared\n                    return 3;\n                } else {\n                    //proof already prepared\n                    return 2;\n                }\n            } else {\n                //merkle tree proof failed\n                return 1;\n            }\n        } else {\n            //could not confirm tx parameters\n            return 0;\n        }\n    }\n\n    function proveWithdrawalReceipt(    bytes32 _receiptsRoot,\n                                        bytes memory _rlpTransitTx,\n                                        bytes memory _receiptPath,\n                                        bytes memory _receiptParentNodes,\n                                        bytes memory _rlpTransitReceipt) public returns (uint8 result) {\n        // elizabeth:TODO: prove receipts root\n        // need to extend util/txProof.js to generate proofs for receipts trie as well as tx trie\n        bool receiptProofResult = MerklePatriciaProof.verify(_rlpTransitReceipt, _receiptPath, _receiptParentNodes, _receiptsRoot);\n\n//        emit TryProveReceipt(_receiptsRoot);\n\n        // TODO: make sure that status is 1\n        if (receiptProofResult == true) {\n            bytes32 rlpTransitTxHash = keccak256(abi.encodePacked(_rlpTransitTx));\n            Withdrawal storage userWithdrawal = userWithdrawals[msg.sender][rlpTransitTxHash];\n            userWithdrawal.receiptsRoot = _receiptsRoot;\n\n            emit EVT_ProveWithdrawalReceipt(msg.sender, _receiptsRoot);\n\n            return 1;\n        } else {\n            return 0;\n        }\n    }\n\n    //results:\n    // 0 = v,r,s doesn't match\n    // 1 = amount/bip32X_type doesn't match\n    // 2 = confirmed transaction parameters\n\n    function confirmTxContractParameters(bytes memory _rlpTransitTx, address _address, uint256 _amount, uint256 _bip32X_type) internal returns(uint8 result) {\n        RLP.RLPItem memory item = RLP.toRLPItem(_rlpTransitTx);\n        RLP.RLPItem[] memory values = RLP.toList(item);\n\n//        ** transitAsset **\n//        address _address,\n//        uint256 _amount,\n//        uint256 _bip32X_type,\n//        uint256 _holdIndex,\n//        uint256 _holdIndexBond,\n//        address _toChainId\n\n        bytes memory input = RLP.toBytes(values[5]);\n\n        // skip 2 bytes ('0x') + 4 (methodID) initially.\n        address proofAddress = address(BytesLib.toUint(BytesLib.slice(input, 6, 32), 0));\n\n        //decodes amount & bip32X_type from \"input\" in tx.\n        uint256 proofAmount = BytesLib.toUint(BytesLib.slice(input, 6 + 32, 32), 0);\n        uint256 proofBip32XType = BytesLib.toUint(BytesLib.slice(input, 6 + 64, 32), 0);\n//        uint32 holdIndex = BytesLib.toUint(BytesLib.slice(input, 6 + 96, 32), 0);\n//        uint32 holdIndexBond = BytesLib.toUint(BytesLib.slice(input, 6 + 128, 32), 0);\n        address proofToChain = address(BytesLib.toUint(BytesLib.slice(input, 6 + 160, 32), 0));\n\n//        bytes memory proofSlice = BytesLib.slice(input, 6, 32);\n\n        emit EVT_confirmTxContractParameters(_address, _amount, _bip32X_type, proofAddress, proofAmount, proofBip32XType, address(this), proofToChain);\n\n        //confirm the parameters match, and the \"toChain\" is this smart contract's address\n        if (proofAddress == _address && proofAmount == _amount && proofBip32XType == _bip32X_type && proofToChain == address(this)) {\n            //confirmed transaction parameters\n            return 1;\n        } else {\n            //amount/bip32X_type doesn't match\n            return 0;\n        }\n    }\n\n//    function debugRLPTransitTx(bytes _rlpTransitTx) public {\n//        RLP.RLPItem memory item = RLP.toRLPItem(_rlpTransitTx);\n//        RLP.RLPItem[] memory values = RLP.toList(item);\n//\n//        uint nonce = RLP.toUint(values[0]);\n//        uint gasPrice = RLP.toUint(values[1]);\n//        uint gas = RLP.toUint(values[2]);\n//        address to = RLP.toAddress(values[3]);\n//        uint amount;\n//\n//        if (RLP.isData(values[4]) == true) {\n//            amount = 0;\n//        } else {\n//            amount = RLP.toUint(values[4]);\n//        }\n//        bytes memory input = RLP.toBytes(values[5]);\n//        bytes32 v = RLP.toBytes32(values[6]);\n//        bytes32 r = RLP.toBytes32(values[7]);\n//        bytes32 s = RLP.toBytes32(values[8]);\n//\n//        emit EVT_debugRLPTransitTx(nonce, gasPrice, gas, to, amount, input, v, r, s, keccak256(abi.encodePacked(input)));\n//    }\n\n    //returns:\n    // false = number of block requirements not passed\n    // true = number of block requirements passed\n\n    function isBlockConfirmationBlocksRequiredConfirmed(uint256 _referenceBlockNumber, uint256 _requiredBlocks) public view returns (bool result) {\n        if (block.number - _referenceBlockNumber >= _requiredBlocks) {\n            //number of block requirements passed\n            return true;\n        } else {\n            //number of block requirements not passed\n            return false;\n        }\n    }\n\n    // @dev: This function lets the user withdraw their assets into their ShyftSafe on the new chain\n    // @param _proof, Merkle proof.\n    // @param _blockNum, block number of the block containing the Transit on the bridged chain.\n    // @param _timestamp, timestamp of the block containing the Transit on the bridged chain.\n    // @param _previousHeader, modified header of the block containing the Transit.\n    // @param _rootIndex, index of the header root on the origin chain.\n    // @param _rlpTransitTx, the rlp Transit transaction to create a hash from.\n\n\n    //returns:\n    // 0 = withdrawal cannot be processed\n    // 1 = confirmation time has not been reached\n    // 2 = signature check failed\n    // 3 = invalid proof\n    // 4 = could not mint safe hold\n    // 5 = processed withdrawal\n\n    function withdrawAsset( bytes memory _proof,\n                            uint256 _blockNum,\n                            uint256 _timestamp,\n                            bytes32 _previousHeader,\n                            uint _rootIndex,\n                            bytes memory _rlpTransitTx) public returns (uint8 result, uint256 holdIndex) {\n\n        bytes32 rlpTransitTxHash = keccak256(abi.encodePacked(_rlpTransitTx));\n\n        Withdrawal storage userWithdrawal = userWithdrawals[msg.sender][rlpTransitTxHash];\n\n//        emit EVT_withdrawAsset(userWithdrawal.hasBeenSetup, userWithdrawal.rlpWithdrawTx, userWithdrawal.withdrawalPrepareBlockNumber, block.timestamp, confirmationBlocksRequired[address(this)]);\n        //check to make sure withdrawal has been setup and has not already been processed.\n        if (userWithdrawal.hasBeenSetup == true) {\n            uint256 blocksRequired = tokenChains[userWithdrawal.fromChain].confirmationBlocksRequired[userWithdrawal.bip32X_type];\n\n            if (isBlockConfirmationBlocksRequiredConfirmed(userWithdrawal.withdrawalPrepareBlockNumber, blocksRequired)) {\n                // prove that the user has the correct header\n                // elizabeth:TODO: add receipts root to this, prove that correct receipts root is also included in header\n                bytes32 leaf = keccak256(abi.encodePacked(_previousHeader, _timestamp, _blockNum, userWithdrawal.txRoot, userWithdrawal.receiptsRoot));\n                //bytes32 leaf = keccak256(abi.encodePacked(_previousHeader, _timestamp, _blockNum, userWithdrawal.txRoot));\n\n                emit EVT_WithdrawTest(userWithdrawal.receiptsRoot, leaf);\n\n                if (prove(_proof, leaf, roots[userWithdrawal.fromChain][_rootIndex]) == true) {\n                    userWithdrawal.hasBeenProcessed = true;\n\n                    //sets the expiry time to zero to allow immediate accessibility.\n                    uint64 safeExpiryTime = 0;\n                    // mint new tokens to the _address\n                    // @note: *needs to be linked in ShyftSafe to accept this bridge address as permissioned to mint*\n                    uint8 mintSafeHoldResult;\n                    uint256 mintHoldIndex;\n                    (mintSafeHoldResult, mintHoldIndex) = shyftSafe.mintSafeHold(msg.sender, userWithdrawal.amount, userWithdrawal.bip32X_type, safeExpiryTime);\n\n                    if (mintSafeHoldResult == 2) {\n                        // emit event for withdrawal\n\n                        emit EVT_WithdrawAsset(shyftSafeAddress, userWithdrawal.fromChain, msg.sender, userWithdrawal.bip32X_type, userWithdrawal.amount);\n\n                        //processed withdrawal\n                        return (4, mintHoldIndex);\n                    } else {\n                        //could not mint safe hold\n                        //@note: must revert here, since values were modified downstream in the inherited contracts.\n                        revert();\n//                        return (3, 0);\n                    }\n                } else {\n                    //invalid proof\n                    return (2, 0);\n                }\n            } else {\n                //confirmation # of blocks has not been reached\n                return (1, 0);\n            }\n        } else {\n            //withdrawal cannot be processed\n            return (0, 0);\n        }\n    }\n\n\n    /**************** ADMIN FUNCTIONS *************/\n\n    //@note: these functions set up and modify white/blacklists for various connected networks.\n\n    //returns:\n    // 0 = not an administrator\n    // 1 = not enough administrators have permissioned change\n    // 2 = token chain already set up\n    // 3 = token chain setup completed\n\n    function setupTokenChainInfo(   address _tokenChainAddress,\n                                    uint256 _nativeTokenType,\n                                    bool _isTestnet,\n                                    bool _isPrivatenet,\n                                    uint256 _averageBlockTime,\n                                    uint256 _baseConfirmationBlocksRequired) public returns (uint8 result) {\n\n//        emit EVT_setupTokenChainInfo(_tokenChainAddress, _nativeTokenType, _isTestnet, _isPrivatenet, _averageBlockTime, _baseConfirmationBlocksRequired);\n        if (isAdministrator(msg.sender)) {\n            bytes32 keyKeccak = keccak256(abi.encodePacked(\"setupTokenChainInfo\",_tokenChainAddress, _nativeTokenType, _isTestnet, _isPrivatenet, _baseConfirmationBlocksRequired));\n\n            uint256 numPermissions = adminApplyAndGetPermissionsForMultisignKey(keyKeccak);\n\n            bool permittedToModify;\n\n            if (numPermissions >= adminConfirmationThreshold) {\n                permittedToModify = true;\n            } else {\n                uint256 numConfirmedPermissions = adminApplyAndGetPermissionsForMultisignKey(keyKeccak);\n\n                if (numConfirmedPermissions >= adminConfirmationThreshold) {\n                    permittedToModify = true;\n                }\n            }\n\n            if (permittedToModify) {\n                adminResetPermissionsForMultisignKey(keyKeccak);\n\n                tokenChainInfo storage tokenChain = tokenChains[_tokenChainAddress];\n\n                if (tokenChain.isSetup == false) {\n                    tokenChain.isSetup = true;\n\n                    tokenChain.isPrivatenet = _isPrivatenet;\n                    tokenChain.isTestnet = _isTestnet;\n\n                    tokenChain.nativeTokenType = _nativeTokenType;\n\n                    tokenChain.baseConfirmationBlocksRequired[_nativeTokenType] = _baseConfirmationBlocksRequired;\n                    tokenChain.confirmationBlocksRequired[_nativeTokenType] = _baseConfirmationBlocksRequired;\n\n                    tokenChain.averageBlockTime = _averageBlockTime;\n                    // token chain setup completed\n                    return 3;\n                } else {\n                    //token chain already set up\n                    return 2;\n                }\n            } else {\n                // not enough administrators have permissioned change\n                return 1;\n            }\n        } else {\n            //not an administrator\n            return 0;\n        }\n    }\n\n    //returns:\n    // 0 = not an administrator\n    // 1 = not enough administrators have permissioned change\n    // 2 = token chain not already set up\n    // 3 = token chain white/blacklist modification completed\n\n    function tokenChainSetAllowedBip32X_typeTransfer(address _tokenChainAddress, uint256 _bip32X_Type, bool _isAllowed) public returns (uint8 result) {\n        if (isAdministrator(msg.sender)) {\n            bytes32 keyKeccak = keccak256(abi.encodePacked(\"tokenChainModifyAllowedBip32X_typeTransfer\", _tokenChainAddress, _bip32X_Type, _isAllowed));\n\n            uint256 numPermissions = adminApplyAndGetPermissionsForMultisignKey(keyKeccak);\n\n            bool permittedToModify;\n\n            if (numPermissions >= adminConfirmationThreshold) {\n                permittedToModify = true;\n            } else {\n                uint256 numConfirmedPermissions = adminApplyAndGetPermissionsForMultisignKey(keyKeccak);\n\n                if (numConfirmedPermissions >= adminConfirmationThreshold) {\n                    permittedToModify = true;\n                }\n            }\n            if (permittedToModify) {\n                adminResetPermissionsForMultisignKey(keyKeccak);\n\n                if (tokenChains[_tokenChainAddress].isSetup == true) {\n                    //set both allowed & disallowed (white & blacklist similarly), which have separate gateways\n                    tokenChains[_tokenChainAddress].bip32X_typeTokenAllowed[_bip32X_Type] = _isAllowed;\n                    tokenChains[_tokenChainAddress].bip32X_typeTokenDisallowed[_bip32X_Type] = !_isAllowed;\n                    // token chain white/blacklist modification completed\n                    return 3;\n                } else {\n                    //token chain not already set up\n                    return 2;\n                }\n            } else {\n                // not enough administrators have permissioned change\n                return 1;\n            }\n        } else {\n            //not an administrator\n            return 0;\n        }\n    }\n\n    //returns:\n    // 0 = not an administrator\n    // 1 = not enough administrators have permissioned change\n    // 2 = token chain not already set up\n    // 3 = token chain white/blacklist modification completed\n\n    function tokenChainSetTransitBondParameters(address _tokenChainAddress, uint256 _transitBondBip32X_Type, uint256 _transitBondAmount) public returns (uint8 result) {\n        if (isAdministrator(msg.sender)) {\n            bytes32 keyKeccak = keccak256(abi.encodePacked(\"tokenChainSetTransitBondParameters\", _tokenChainAddress, _transitBondBip32X_Type, _transitBondAmount));\n\n            uint256 numPermissions = adminApplyAndGetPermissionsForMultisignKey(keyKeccak);\n\n            bool permittedToModify;\n\n            if (numPermissions >= adminConfirmationThreshold) {\n                permittedToModify = true;\n            } else {\n                uint256 numConfirmedPermissions = adminApplyAndGetPermissionsForMultisignKey(keyKeccak);\n\n                if (numConfirmedPermissions >= adminConfirmationThreshold) {\n                    permittedToModify = true;\n                }\n            }\n\n            if (permittedToModify) {\n                adminResetPermissionsForMultisignKey(keyKeccak);\n\n                if (tokenChains[_tokenChainAddress].isSetup == true) {\n                    //set both allowed & disallowed (white & blacklist similarly), which have separate entrances\n                    tokenChains[_tokenChainAddress].transitBondBip32X_type = _transitBondBip32X_Type;\n                    tokenChains[_tokenChainAddress].transitBondAmount = _transitBondAmount;\n\n                    // token chain white/blacklist modification completed\n                    return 3;\n                } else {\n                    //token chain not already set up\n                    return 2;\n                }\n            } else {\n                // not enough administrators have permissioned change\n                return 1;\n            }\n        } else {\n            //not an administrator\n            return 0;\n        }\n    }\n\n    // @dev: Adds permission to a multisign key for a particular shyft safe address\n    //\n    // @params _shyftSafeAddress, address of the particular shyft safe address we want to add multisign key for\n    function setPermissionsForShyftSafe(address _shyftSafeAddress) public returns (uint256 result) {\n        bytes32 keyKeccak = keccak256(abi.encodePacked(\"shyftSafeAddress\", _shyftSafeAddress));\n        return adminApplyAndGetPermissionsForMultisignKey(keyKeccak);\n    }\n\n    function getPermissionsForShyftSafe(address _shyftSafeAddress) public view returns (uint256 result) {\n        bytes32 keyKeccak = keccak256(abi.encodePacked(\"shyftSafeAddress\", _shyftSafeAddress));\n        return getPermissionsForMultisignKey(keyKeccak);\n    }\n\n    // @dev: sets the shyft safe address\n    //returns:\n    // 0 = not an administrator\n    // 1 = not enough administrators have permissioned change\n    // 2 = shyft safe set\n\n    function setShyftSafeAddress(address _shyftSafeAddress) public returns (uint8 result) {\n        require(_shyftSafeAddress != address(0));\n\n        if (isAdministrator(msg.sender)) {\n            bytes32 keyKeccak = keccak256(abi.encodePacked(\"shyftSafeAddress\", _shyftSafeAddress));\n\n            uint256 numPermissions = adminApplyAndGetPermissionsForMultisignKey(keyKeccak);\n\n            // bool permittedToModify;\n\n            // if (numPermissions >= adminConfirmationThreshold) {\n            //     permittedToModify = true;\n            // } else {\n            //     uint256 numConfirmedPermissions = adminApplyAndGetPermissionsForMultisignKey(keyKeccak);\n\n            //     if (numConfirmedPermissions >= adminConfirmationThreshold) {\n            //         permittedToModify = true;\n            //     }\n            // }\n\n            if (numPermissions >= adminConfirmationThreshold) {\n\n                shyftSafeAddress = _shyftSafeAddress;\n                shyftSafe = IShyftSafe(shyftSafeAddress);\n\n                adminResetPermissionsForMultisignKey(keyKeccak);\n\n                // shyft safe set\n                return 2;\n            } else {\n                // not enough administrators have permissioned change\n                return 1;\n            }\n        } else {\n            // not an administrator\n            return 0;\n        }\n    }\n\n    function setRelayerThreshold(uint256 newThreshold) public returns (uint8) {\n      if(isAdministrator(msg.sender)) {\n        relayerThreshold = newThreshold;\n        return 1;\n      } else {\n        // Not an admin\n        return 0;\n      }\n    }\n\n    //results:\n    // 0 = not an administrator\n    // 1 = not enough administrators have permissioned change\n    // 2 = token chain not already set up\n    // 3 = invalid base confirmation # of blocks\n    // 4 = base confirmation # of blocks set\n\n    function setBaseConfirmationBlocksRequired(address _tokenChainAddress, uint256 _tokenBip32X_type, uint256 _baseConfirmationBlocksRequired) public returns (uint8 result) {\n        if (isAdministrator(msg.sender)) {\n            bytes32 keyKeccak = keccak256(abi.encodePacked(\"setBaseConfirmationBlocksRequired\", _tokenChainAddress, _tokenBip32X_type, _baseConfirmationBlocksRequired));\n\n            uint256 numPermissions = adminApplyAndGetPermissionsForMultisignKey(keyKeccak);\n\n            bool permittedToModify;\n\n            if (numPermissions >= adminConfirmationThreshold) {\n                permittedToModify = true;\n            } else {\n                uint256 numConfirmedPermissions = adminApplyAndGetPermissionsForMultisignKey(keyKeccak);\n\n                if (numConfirmedPermissions >= adminConfirmationThreshold) {\n                    permittedToModify = true;\n                }\n            }\n\n            if (permittedToModify) {\n                adminResetPermissionsForMultisignKey(keyKeccak);\n\n                if (tokenChains[_tokenChainAddress].isSetup == true) {\n                    if (_baseConfirmationBlocksRequired != 0) {\n                        //set base confirmation time\n                        tokenChains[_tokenChainAddress].baseConfirmationBlocksRequired[_tokenBip32X_type] = _baseConfirmationBlocksRequired;\n\n                        //base confirmation # of blocks set\n                        return 4;\n                    } else {\n                        //invalid base confirmation # of blocks\n                        return 3;\n                    }\n                } else {\n                    //token chain not already set up\n                    return 2;\n                }\n            } else {\n                //not enough administrators have permissioned change\n                return 1;\n            }\n        } else {\n            //not an administrator\n            return 0;\n        }\n    }\n\n    //@note: the following functions are quick-increases and reset of confirmation # of blocks required.\n    // \"increase\" doubles it, and only requires one administrator, while \"reset\" sets the current confirmation\n    // # of blocks required to the base for that chain.\n    //results:\n    // 0 = not an administrator\n    // 1 = not enough steps\n    // 2 = confirmation # of blocks increased\n\n    function increaseConfirmationTime(address _tokenChainAddress, uint256 _tokenBip32X_type, uint256 numSteps) public returns (uint8 result) {\n        //@note: only one administrator required due to time/synchronization sensitivity\n        if (isAdministrator(msg.sender)) {\n            if (numSteps > 1) {\n                tokenChains[_tokenChainAddress].confirmationBlocksRequired[_tokenBip32X_type] = tokenChains[_tokenChainAddress].confirmationBlocksRequired[_tokenBip32X_type].mul(numSteps);\n\n                //confirmation # of blocks increased\n                return 2;\n            } else {\n                //not enough steps\n                return 1;\n            }\n        } else {\n            //not an administrator\n            return 0;\n        }\n    }\n\n\n    //results:\n    // 0 = not an administrator\n    // 1 = not enough administrators have permissioned change\n    // 2 = token chain not already set up\n    // 3 = invalid base confirmation # of blocks\n    // 4 = confirmation # of blocks reset\n\n    function resetConfirmationBlocksRequired(address _tokenChainAddress, uint256 _tokenBip32X_type) public returns (uint8 result) {\n        if (isAdministrator(msg.sender)) {\n            bytes32 keyKeccak = keccak256(abi.encodePacked(\"resetConfirmationBlocksRequired\", _tokenChainAddress, _tokenBip32X_type));\n\n            uint256 numPermissions = adminApplyAndGetPermissionsForMultisignKey(keyKeccak);\n\n            bool permittedToModify;\n\n            if (numPermissions >= adminConfirmationThreshold) {\n                permittedToModify = true;\n            } else {\n                uint256 numConfirmedPermissions = adminApplyAndGetPermissionsForMultisignKey(keyKeccak);\n\n                if (numConfirmedPermissions >= adminConfirmationThreshold) {\n                    permittedToModify = true;\n                }\n            }\n\n            if (permittedToModify) {\n                adminResetPermissionsForMultisignKey(keyKeccak);\n\n                if (tokenChains[_tokenChainAddress].isSetup == true) {\n                    if (tokenChains[_tokenChainAddress].baseConfirmationBlocksRequired[_tokenBip32X_type] != 0) {\n                        //set base confirmation time\n                        tokenChains[_tokenChainAddress].confirmationBlocksRequired[_tokenBip32X_type] = tokenChains[_tokenChainAddress].baseConfirmationBlocksRequired[_tokenBip32X_type];\n\n                        //confirmation # of blocks reset\n                        return 4;\n                    } else {\n                        //invalid base confirmation # of blocks\n                        return 3;\n                    }\n                } else {\n                    //token chain not already set up\n                    return 2;\n                }\n            } else {\n                //not enough administrators have permissioned change\n                return 1;\n            }\n        } else {\n            //not an administrator\n            return 0;\n        }\n    }\n\n    function getTokenChainInfo(address _tokenChainAddress) public view returns( bool isTestnet,\n                                                                                bool isPrivatenet,\n\n                                                                                uint256 nativeTokenType,\n\n                                                                                uint256 transitBondBip32X_type,\n                                                                                uint256 transitBondAmount,\n\n                                                                                uint256 averageBlockTime,\n\n                                                                                uint256 confirmationBlocksRequiredNative,\n                                                                                uint256 baseConfirmationBlocksRequiredNative) {\n        tokenChainInfo storage tokenChain = tokenChains[_tokenChainAddress];\n\n        return (tokenChain.isTestnet,\n                tokenChain.isPrivatenet,\n\n                tokenChain.nativeTokenType,\n\n                tokenChain.transitBondBip32X_type,\n                tokenChain.transitBondAmount,\n\n                tokenChain.averageBlockTime,\n\n                tokenChain.confirmationBlocksRequired[tokenChain.nativeTokenType],\n                tokenChain.baseConfirmationBlocksRequired[tokenChain.nativeTokenType]\n        );\n    }\n\n\n    /**************** Synchronization Games *************/\n    // Synchronization Games\n    //\n    //\n    // Confirmation Game: The confirmation game allows any sender to commit messages from other blockchains to destroy\n    //  holds before they can default.\n    //\n    // Reward: they get a small funding to their account in native asset tokens equal to 3x gas price.\n\n    //@note:@todo:@next:@future: build this.\n\n//    function confirmGame(proof, blockheader, holdnumber) {\n//\n//    }\n\n//    function refundHold(uint32 holdIndex, address _refundTo) public returns (uint8 result) {\n//        return 0;\n//    }\n\n    /**************** PROVING FUNCTIONS *************/\n\n    // @dev: Verifies a Merkle proof proving the existence of a leaf in a merkle tree.\n    //\n    // @param _proof Merkle proof containing sibling hashed on the branch from the leaf to the root\n    // @param _root Merkle root\n    // @param _leaf Leaf of Merkle tree\n    function prove(bytes memory _proof, bytes32 _leaf, bytes32 _root) public pure returns (bool) {\n      require(_proof.length % 32 == 0);\n\n      bool appendRight;\n      uint i;\n      bytes32 computedHash = _leaf;\n      bytes32 proofElement;\n      bytes32 indicators;\n\n      assembly {\n        indicators := mload(add(_proof, 32))\n      }\n\n      for(i = 64; i <= _proof.length; i += 32){\n          assembly {\n              proofElement := mload(add(_proof, i)) // get proof element\n              appendRight := byte(31, and(indicators, 1)) // mask everything except last bit, get direction on which to append\n          }\n\n          indicators = indicators >> 1;\n\n          if(appendRight) {\n              computedHash = keccak256(abi.encodePacked(computedHash,proofElement));\n          } else {\n              computedHash = keccak256(abi.encodePacked(proofElement,computedHash));\n          }\n      }\n\n      return computedHash == _root;\n    }\n\n    //@mikerah_confirm: what's the probability of a false positive from the bloom filter check?\n\n    // @dev: This function proves that the event EVT_heldSafeBalanceForType has occurred.\n    // Source: https://github.com/figs999/Ethereum/blob/master/EventStorage.sol\n    //\n    // @param _logsBloom, bloom filter for the block in which the event occurred\n    // @param _amount, the amount of a particular asset that was added to the safe\n    // @param _bip32X_type, the asset that was added to the safe\n    // @param _holdIndex, the index of the holdArray in which the asset was deposited in the safe\n    // function proveSafeBalanceForType(\n    //   bytes _logsBloom,\n    //   uint256 _amount,\n    //   uint256 _bip32X_type,\n    //   uint32 _holdIndex) public view returns (bool) { //change back to internal after testing\n\n    //     bytes32 eventTopic = keccak256(abi.encodePacked(keccak256(abi.encodePacked(\"EVT_heldSafeBalanceForType(address,uint256,uint256,uint256,uint256)\"))));\n    //     bytes32 topicShyftSafeAddress = keccak256(abi.encodePacked(shyftSafeAddress));\n    //     bytes32 topicAmount = keccak256(abi.encodePacked(_amount));\n    //     bytes32 topicBIP32Token = keccak256(abi.encodePacked(_bip32X_type));\n    //     bytes32 topicHoldIndex = keccak256(abi.encodePacked(uint256(_holdIndex)));\n\n    //     bool foundInLogs = true;\n\n    //     for(uint b = 0; b < 8; b++) {\n    //       bytes32 bloom = 0;\n    //       for(uint i = 0; i < 6; i += 2){\n    //         assembly {\n\n    //           if eq(mod(byte(i, topicShyftSafeAddress), 8), b) {\n    //             bloom := or(bloom, exp(2, byte(add(1,i), topicShyftSafeAddress)))\n    //           }\n\n\n    //           if eq(mod(byte(i, eventTopic), 8), b) {\n    //             bloom := or(bloom, exp(2, byte(add(1, i), eventTopic)))\n    //           }\n\n\n    //           if eq(mod(byte(i, topicAmount), 8), b) {\n    //             bloom := or(bloom, exp(2, byte(add(1,i), topicAmount)))\n    //           }\n\n\n    //           if eq(mod(byte(i, topicBIP32Token), 8), b) {\n    //             bloom := or(bloom, exp(2, byte(add(1, i), topicBIP32Token)))\n    //           }\n\n\n    //           if eq(mod(byte(i, topicHoldIndex), 8), b) {\n    //             bloom := or(bloom, exp(2, byte(add(1,i), topicHoldIndex)))\n    //           }\n    //         }\n    //       }\n\n    //       assembly {\n    //         if gt(bloom, 0) {\n    //           let bloomAnd := and(mload(add(_logsBloom, mul(0x20, sub(8,b)))), bloom)\n    //           let equal := eq(bloomAnd, bloom)\n\n    //           if eq(equal, 0) {\n    //             b := 8\n    //             foundInLogs := 0\n    //           }\n    //         }\n    //       }\n    //     }\n\n    //     return foundInLogs;\n    // }\n\n    // @dev: This function proves that the transitAsset event was emitted from the Shyft Bridge\n    //\n    // @params _logsBloom, Bloom filter from the block containing the transaction in which the assets were transitted\n    // @param _shyftSafeAddress, Address of the shyft safe from where the assets come from\n    // @param _toChainId, address of the chain on which we want to transit the assets\n    // @param _bip32X_type, BIP32 token that we want to transit\n    // function proveTransitAssetEvent(\n    //   bytes _logsBloom,\n    //   address _shyftSafeAddress,\n    //   address _toChainId,\n    //   uint256 _bip32X_type)\n    //   public view returns (bool) {\n\n    //     bytes32 eventTopic = keccak256(keccak256(\"EVT_TransitAsset(address,address,address,uint256,uint256,address)\"));\n    //     bytes32 topicBridgeAddress = keccak256(address(this));\n    //     bytes32 topicSafeAddress = keccak256(_shyftSafeAddress);\n    //     bytes32 topicToChainId = keccak256(bytes32(_toChainId));\n    //     bytes32 topicBIP32Type = keccak256(_bip32X_type);\n\n    //     bool foundInLogs = true;\n\n    //     for(uint b = 0; b < 8; b++){\n    //         bytes32 bloom = 0;\n    //         for(uint i = 0; i < 6; i += 2) {\n    //           assembly {\n    //             if eq(mod(byte(i, topicBridgeAddress), 8), b) {\n    //               bloom := or(bloom, exp(2, byte(add(1,i), topicBridgeAddress)))\n    //             }\n\n    //             if eq(mod(byte(i, eventTopic), 8), b) {\n    //               bloom := or(bloom, exp(2, byte(add(1, i), eventTopic)))\n    //             }\n\n    //             if eq(mod(byte(i, topicSafeAddress), 8), b) {\n    //               bloom := or(bloom, exp(2, byte(add(1, i), topicSafeAddress)))\n    //             }\n\n    //             if eq(mod(byte(i, topicToChainId), 8), b) {\n    //               bloom := or(bloom, exp(2, byte(add(1, i), topicToChainId)))\n    //             }\n\n    //             if eq(mod(byte(i, topicBIP32Type), 8), b) {\n    //               bloom := or(bloom, exp(2, byte(add(1, i), topicBIP32Type)))\n    //             }\n    //           }\n    //        }\n\n    //        assembly {\n    //          if gt(bloom, 0) {\n    //            let bloomAnd := and(mload(add(_logsBloom, mul(0x20, sub(8,b)))), bloom)\n    //            let equal := eq(bloomAnd, bloom)\n\n    //            if eq(equal, 0) {\n    //              b := 8\n    //             foundInLogs := 0\n    //            }\n    //          }\n    //        }\n    //     }\n\n    //     return foundInLogs;\n    // }\n\n    /**************** HELPER FUNCTIONS *************/\n\n    // @dev: Checks if a given address is a ShyftSafe address\n    // returns:\n    // true = is shyftSafe\n    // false = not shyftSafe\n    function isShyftSafe(address _potentialShyftSafeAddress) internal view returns (bool result) {\n        return (shyftSafeAddress == _potentialShyftSafeAddress);\n    }\n\n    // @dev: Retrieves the last block for a particular chain\n    //\n    // @param: _a address of the chain that we want to get the last block from\n    function getLastBlock(address _a) public view returns(uint) {\n      return lastBlock[_a];\n    }\n\n    // @dev: Retrieves the owner of this contract\n    function getOwner() public view returns (address) {\n      return owner;\n    }\n\n    // @dev: Retrieves the relayer threshold\n    function getRelayerThreshold() public view returns (uint256) {\n      return relayerThreshold;\n    }\n\n    function getLastRootIndex(address _a) public view returns(uint) {\n      return roots[_a].length - 1;\n    }\n\n    function getRoot(address _a, uint _index) public view returns (bytes32) {\n      return roots[_a][_index];\n    }\n\n    // @dev: Returns the correct v (used for signing transactions) based on the passed network version\n    //\n    // @param: v, value from a transaction receipt\n    // @param: netVersion, network version needed\n    function getStandardV(bytes memory v, uint256 netVersion) internal pure returns (uint8) {\n      if (netVersion > 0) {\n        return uint8(BytesLib.toUint(BytesLib.leftPad(v), 0) - (netVersion * 2) - 8);\n      } else {\n        return uint8(BytesLib.toUint(BytesLib.leftPad(v), 0));\n      }\n    }\n\n    // @dev: Returns the number of signatures that meet the threshold.\n    //\n    // @param _root, _root that is being added\n    // @param _chainId, the chain from which the _root comes from\n    // @param _start, the beginning block header number from which the root starts from\n    // @param _end, the last block header number from which the roots ends\n    // @param _sig, byte array of signatures to check\n    function checkSignatures(bytes32 _root, address _chainId, uint256 _start, uint256 _end, bytes memory _sig)\n    public view returns (uint) {\n      require(_sig.length%65 == 0);\n\n      bytes memory prefix = \"\\x19Ethereum Signed Message:\\n32\";\n\n      bytes32 h = keccak256(abi.encodePacked(_root,_chainId,_start,_end));\n\n      bytes32 r;\n      bytes32 s;\n      uint8 v;\n\n      uint sigs;\n\n      for(uint i = 0; i < _sig.length; i += 65) {\n        assembly {\n            r := mload(add(_sig, add(32, i)))\n            s := mload(add(_sig, add(64, i)))\n            v := byte(0, mload(add( _sig, add(96, i) ) ) )\n        }\n\n        //emit Sig(r,s,v);\n        address relayerAddrTmp = ecrecover(keccak256(abi.encodePacked(prefix,h)),v,r,s);\n        if(isInRelayerSet(relayerAddrTmp)) {\n          sigs++;\n        }\n      }\n\n      return sigs;\n    }\n\n//    // @dev: Returns the address of the signer of the message\n//    //\n//    // @param _msg, the message that was signed\n//    // @param _sig, signature to check\n//    function checkSignature(bytes32 _msg, bytes memory _sig) public pure returns (address) {\n//      require(_sig.length%65 == 0);\n//\n//      bytes memory prefix = \"\\x19Ethereum Signed Message:\\n32\";\n//\n//      bytes32 r;\n//      bytes32 s;\n//      uint8 v;\n//\n//      assembly {\n//          r := mload(add(_sig, 32))\n//          s := mload(add(_sig, 64))\n//          v := byte(0, mload(add( _sig, 96 ) ) )\n//      }\n//\n//      return ecrecover(keccak256(abi.encodePacked(prefix,_msg)),v,r,s);\n//    }\n\n    function isRelayer(address _addr) public view returns (bool) {\n      return isInRelayerSet(_addr);\n    }\n\n\n\n    //@note:@todo:@research:@future:\n    //@note: require that the previous commit has a withdrawal time limit based on:\n    // the confirmation # of blocks * average block timed of *this* bridge\n    // <or>\n    // the confirmation # of blocks * average block timed of the source bridge\n    //\n    // whichever is higher is the required\n\n    // maybe it's actually something like a convertTokenChainBlockTime(_sourceNumberOfBlocks, _sourceAverageTime, _destinationAverageTime)\n    // = destinationNumberOfBlocks sorta thing?\n\n    // the main problem is that there's no guaranteed way to get a message to the source blockchain under event\n    // of a 51% attack, so asset locking in the case of source blockchain adverserial conditions needs to be met\n    // on the destination chain.\n    //\n    // the destination chain should really be in control of asset unlocks, but at that point without further\n    // synchronization the asset will be able to be unlocked anyhow\n    //\n    // so the solution should be something like: requires X checkpoints from the source blockchain to have been\n    // confirmed on the destination blockchain, where the block confirmation time required for the asset on the\n    // destination chain has to be satisfied relative to those checkpoints.\n    //\n    // in this way, the bridge can increase the block confirmations required for the asset on the bridged blockchain(s)\n    // and then simply not submit further block headers (which requires more mapping especially given the meta-header\n    // block lookup). if / when the source blockchain is re-bridged, the synchronization can be simply one inclusion\n    // in the next meta header (and associated mapping information).\n\n    // mapping is something like ->\n    //\n    // send:\n    //\n    // new meta header + source chain + indexes covered (allow rewriting up to X headers, where X depends on\n    // checkpoint time, allowing for the last known checkpoint to be updated)\n    //\n    // search:\n    //\n    // look at latest header with block number N included\n\n\n    // basically we want to make sure that the block confirmation #s per asset were met by the source bridge (which\n    //\n\n    //            uint256 blocksRequiredSource = tokenChains[userWithdrawal.fromChain].confirmationBlocksRequired[userWithdrawal.bip32X_type] * tokenChains[userWithdrawal.fromChain].averageBlockTime;\n    //            uint256 blocksRequiredDestination = tokenChains[address(this)].confirmationBlocksRequired[userWithdrawal.bip32X_type] * tokenChains[address(this)].averageBlockTime;\n\n}\n",
  "sourcePath": "/opt/shyft-ta-node/contracts/ShyftBridge.sol",
  "compiler": {
    "name": "solc",
    "version": "0.7.1+commit.f4a555be.Emscripten.clang"
  },
  "schemaVersion": "3.3.4",
  "updatedAt": "2021-09-16T18:31:15.445Z",
  "devdoc": {
    "kind": "dev",
    "methods": {
      "changeCurrentAdminConfirmationThreshold(uint32)": {
        "details": "| This function takes in an index for a proposal ot change the current administrator confirmation threshold.      | Uses Multi-signature permissions.",
        "params": {
          "_proposalIndex": "The index for a specific proposal to change the current administrator confirmation threshold."
        },
        "returns": {
          "result": "   | 0 = not an administrator    | 1 = invalid proposal index    | 2 = not enough administrators to achieve confirmation threshold    | 3 = proposal has expired    | 4 = not enough administrators have permissioned change    | 5 = admin confirmation threshold set"
        }
      },
      "getAdminAccess(address)": {
        "details": "Gets the level of access for a specific administrator.",
        "returns": {
          "result": "the level of access for this administrator"
        }
      },
      "getAdminConfirmationProposal(uint32)": {
        "details": "Gets the components of a specific NofM change proposal.",
        "params": {
          "_proposalIndex": "A proposal index"
        },
        "returns": {
          "adminThreshold": "the threshold of the NofM voting within this proposal",
          "endTime": "the end time of this proposal, after which it cannot be voted on",
          "isCompleted": "whether this proposal has been completed by multisig parties"
        }
      },
      "getAdminConfirmationThreshold()": {
        "details": "Gets the NofM threshold currently required for passing multisig votes.",
        "returns": {
          "results": "the current NofM threshold"
        }
      },
      "getNumAdminConfirmationProposals()": {
        "details": "Gets the number of a specific NofM change proposal.",
        "returns": {
          "result": "the number of a specific NofM proposals"
        }
      },
      "isAdministrator(address)": {
        "details": "Returns whether a given address is an administrator.",
        "params": {
          "_administratorAddress": "The public address of a specific administrator."
        },
        "returns": {
          "result": "   | true = is administrator    | false = either administrator unset or demoted"
        }
      },
      "promoteAdministrator(address)": {
        "details": "| Promotes a new administrator. If there is only a primary Administrator set, this will allow the addition of the second administrator and enable multisignature requirements for any actions of this contract (or those inheriting it).      | Uses Multi-signature permissions if there is more than one Administrator onboarded.",
        "params": {
          "_newAdministratorAddress": "The new Administrator's public address."
        },
        "returns": {
          "result": "   | 0 = not administrator    | 1 = administrator already promoted    | 2 = new administrator promoted    | 3 = added vote to promote administrator"
        }
      },
      "proposeChangeCurrentAdminConfirmationThreshold(uint256)": {
        "details": "This function proposes a change to the threshold of voting required (N signatories of M total set size = NofM). To prevent stale inattention results, timeout after 2 days.",
        "params": {
          "_newThreshold": "The new threshold (N of M multisig) that is needed to be passed."
        },
        "returns": {
          "result": "   | 0 = not an administrator    | 1 = not enough administrators to achieve confirmation threshold    | 2 = new proposal added"
        }
      },
      "revokeAdministrator(address)": {
        "details": "| Revokes an existing administrator from the multisignature set, checks to see if the # of required votes would be higher then the administrator set size, and if so adjusts to match.      | Uses Multi-signature permissions if there is more than one Administrator onboarded.",
        "params": {
          "_revokeAdministratorAddress": "An existing Administrator's public address."
        },
        "returns": {
          "result": "result"
        }
      },
      "setPrimaryAdministrator(address)": {
        "details": "Sets the primary Administrator for this contract (or those that inherit from it). This transfers ownership of this contracts first administration duties (to find and onboard a second party for multisignature requirements) to the set Administrator's public address.",
        "params": {
          "_newAdministratorAddress": "The new Administrator's public address."
        },
        "returns": {
          "result": "   | 0 = not owner    | 1 = already set first administrator    | 2 = setup first administrator"
        }
      }
    },
    "version": 1
  },
  "userdoc": {
    "kind": "user",
    "methods": {
      "changeCurrentAdminConfirmationThreshold(uint32)": {
        "notice": "Multiple proposals can be constructed for different sets to apply to change the administrator threshold. As the permissions for multisig keys use a voting set nonce underneath the hood, a change in the current administrator set will cancel all current votes."
      },
      "promoteAdministrator(address)": {
        "notice": "| Uses composition features (based on current validator set) so data structure may be orphaned when promotion/demotion events occur.         | Whenever this function is called (with a passing vote), there will be a re-hashing of the voting set nonce, so all current votes will become invalidated."
      },
      "revokeAdministrator(address)": {
        "notice": "| Uses composition features (based on current validator set) so data structure may be orphaned when promotion/demotion events occur.         | Whenever this function is called (with a passing vote), there will be a re-hashing of the voting set nonce, so all current votes will become invalidated."
      }
    },
    "version": 1
  }
}