{
  "contractName": "ShyftKycContract",
  "abi": [
    {
      "inputs": [
        {
          "internalType": "uint256",
          "name": "_nativeBip32X_type",
          "type": "uint256"
        }
      ],
      "stateMutability": "nonpayable",
      "type": "constructor"
    },
    {
      "anonymous": false,
      "inputs": [
        {
          "indexed": true,
          "internalType": "address",
          "name": "tokenOwner",
          "type": "address"
        },
        {
          "indexed": true,
          "internalType": "address",
          "name": "spender",
          "type": "address"
        },
        {
          "indexed": false,
          "internalType": "uint256",
          "name": "tokens",
          "type": "uint256"
        }
      ],
      "name": "Approval",
      "type": "event"
    },
    {
      "anonymous": false,
      "inputs": [
        {
          "indexed": false,
          "internalType": "address",
          "name": "msgSender",
          "type": "address"
        },
        {
          "indexed": false,
          "internalType": "address",
          "name": "_from",
          "type": "address"
        },
        {
          "indexed": false,
          "internalType": "uint256",
          "name": "value",
          "type": "uint256"
        },
        {
          "indexed": false,
          "internalType": "uint256",
          "name": "nativeTokenType",
          "type": "uint256"
        },
        {
          "indexed": false,
          "internalType": "uint256",
          "name": "bip32X_type",
          "type": "uint256"
        }
      ],
      "name": "EVT_Bip32X_TypeTokenFallback",
      "type": "event"
    },
    {
      "anonymous": false,
      "inputs": [
        {
          "indexed": false,
          "internalType": "address",
          "name": "_from",
          "type": "address"
        },
        {
          "indexed": false,
          "internalType": "uint256",
          "name": "_value",
          "type": "uint256"
        },
        {
          "indexed": false,
          "internalType": "bytes",
          "name": "_data",
          "type": "bytes"
        }
      ],
      "name": "EVT_Erc223TokenFallback",
      "type": "event"
    },
    {
      "anonymous": false,
      "inputs": [
        {
          "indexed": false,
          "internalType": "address",
          "name": "contractAddress",
          "type": "address"
        },
        {
          "indexed": false,
          "internalType": "address",
          "name": "msgSender",
          "type": "address"
        },
        {
          "indexed": false,
          "internalType": "address",
          "name": "to",
          "type": "address"
        },
        {
          "indexed": false,
          "internalType": "uint256",
          "name": "value",
          "type": "uint256"
        },
        {
          "indexed": false,
          "internalType": "uint256",
          "name": "bip32X_type",
          "type": "uint256"
        }
      ],
      "name": "EVT_TransferAndBurnBip32X_type",
      "type": "event"
    },
    {
      "anonymous": false,
      "inputs": [
        {
          "indexed": false,
          "internalType": "address",
          "name": "contractAddress",
          "type": "address"
        },
        {
          "indexed": false,
          "internalType": "address",
          "name": "msgSender",
          "type": "address"
        },
        {
          "indexed": false,
          "internalType": "uint256",
          "name": "value",
          "type": "uint256"
        },
        {
          "indexed": false,
          "internalType": "uint256",
          "name": "bip32X_type",
          "type": "uint256"
        }
      ],
      "name": "EVT_TransferAndMintBip32X_type",
      "type": "event"
    },
    {
      "anonymous": false,
      "inputs": [
        {
          "indexed": false,
          "internalType": "address",
          "name": "msgSender",
          "type": "address"
        },
        {
          "indexed": false,
          "internalType": "address",
          "name": "to",
          "type": "address"
        },
        {
          "indexed": false,
          "internalType": "uint256",
          "name": "value",
          "type": "uint256"
        },
        {
          "indexed": false,
          "internalType": "uint256",
          "name": "bip32X_type",
          "type": "uint256"
        }
      ],
      "name": "EVT_TransferBip32X_type",
      "type": "event"
    },
    {
      "anonymous": false,
      "inputs": [
        {
          "indexed": false,
          "internalType": "address",
          "name": "_from",
          "type": "address"
        },
        {
          "indexed": false,
          "internalType": "address",
          "name": "_to",
          "type": "address"
        },
        {
          "indexed": false,
          "internalType": "uint256",
          "name": "_value",
          "type": "uint256"
        }
      ],
      "name": "EVT_WithdrawToAddress",
      "type": "event"
    },
    {
      "anonymous": false,
      "inputs": [
        {
          "indexed": false,
          "internalType": "address",
          "name": "_from",
          "type": "address"
        },
        {
          "indexed": false,
          "internalType": "address",
          "name": "_to",
          "type": "address"
        },
        {
          "indexed": false,
          "internalType": "uint256",
          "name": "_value",
          "type": "uint256"
        }
      ],
      "name": "EVT_WithdrawToExternalContract",
      "type": "event"
    },
    {
      "anonymous": false,
      "inputs": [
        {
          "indexed": false,
          "internalType": "address",
          "name": "_from",
          "type": "address"
        },
        {
          "indexed": false,
          "internalType": "address",
          "name": "_to",
          "type": "address"
        },
        {
          "indexed": false,
          "internalType": "uint256",
          "name": "_value",
          "type": "uint256"
        }
      ],
      "name": "EVT_WithdrawToShyftKycContract",
      "type": "event"
    },
    {
      "anonymous": false,
      "inputs": [
        {
          "indexed": false,
          "internalType": "address",
          "name": "_address",
          "type": "address"
        },
        {
          "indexed": false,
          "internalType": "uint256",
          "name": "holdIndex",
          "type": "uint256"
        },
        {
          "indexed": false,
          "internalType": "uint256",
          "name": "numRemainingHolds",
          "type": "uint256"
        },
        {
          "indexed": false,
          "internalType": "enum ShyftSafe.HoldStatus",
          "name": "holdStatus",
          "type": "uint8"
        },
        {
          "indexed": false,
          "internalType": "uint256",
          "name": "freedAmount",
          "type": "uint256"
        },
        {
          "indexed": false,
          "internalType": "uint256",
          "name": "freedBip32X_type",
          "type": "uint256"
        },
        {
          "indexed": false,
          "internalType": "uint256",
          "name": "currentBlockTime",
          "type": "uint256"
        },
        {
          "indexed": false,
          "internalType": "uint256",
          "name": "safeExpiryTime",
          "type": "uint256"
        }
      ],
      "name": "EVT_burntSafeHold",
      "type": "event"
    },
    {
      "anonymous": false,
      "inputs": [
        {
          "indexed": false,
          "internalType": "address",
          "name": "_address",
          "type": "address"
        },
        {
          "indexed": false,
          "internalType": "uint256",
          "name": "holdIndex",
          "type": "uint256"
        },
        {
          "indexed": false,
          "internalType": "uint256",
          "name": "numRemainingHolds",
          "type": "uint256"
        },
        {
          "indexed": false,
          "internalType": "enum ShyftSafe.HoldStatus",
          "name": "holdStatus",
          "type": "uint8"
        },
        {
          "indexed": false,
          "internalType": "uint256",
          "name": "freedAmount",
          "type": "uint256"
        },
        {
          "indexed": false,
          "internalType": "uint256",
          "name": "freedBip32X_type",
          "type": "uint256"
        },
        {
          "indexed": false,
          "internalType": "uint256",
          "name": "currentBlockTime",
          "type": "uint256"
        },
        {
          "indexed": false,
          "internalType": "uint256",
          "name": "safeExpiryTime",
          "type": "uint256"
        }
      ],
      "name": "EVT_freedSafeHold",
      "type": "event"
    },
    {
      "anonymous": false,
      "inputs": [
        {
          "indexed": false,
          "internalType": "uint256",
          "name": "amount",
          "type": "uint256"
        },
        {
          "indexed": false,
          "internalType": "uint256",
          "name": "bip32X_type",
          "type": "uint256"
        },
        {
          "indexed": false,
          "internalType": "uint256",
          "name": "blockTimestamp",
          "type": "uint256"
        },
        {
          "indexed": false,
          "internalType": "uint256",
          "name": "holdSafeExpiryTime",
          "type": "uint256"
        }
      ],
      "name": "EVT_freedSafePreservation",
      "type": "event"
    },
    {
      "anonymous": false,
      "inputs": [
        {
          "indexed": false,
          "internalType": "address",
          "name": "_address",
          "type": "address"
        },
        {
          "indexed": true,
          "internalType": "uint256",
          "name": "amount",
          "type": "uint256"
        },
        {
          "indexed": true,
          "internalType": "uint256",
          "name": "bip32X_type",
          "type": "uint256"
        },
        {
          "indexed": false,
          "internalType": "uint256",
          "name": "safeExpiryTime",
          "type": "uint256"
        },
        {
          "indexed": true,
          "internalType": "uint256",
          "name": "holdIndex",
          "type": "uint256"
        }
      ],
      "name": "EVT_heldSafeBalanceForType",
      "type": "event"
    },
    {
      "anonymous": false,
      "inputs": [
        {
          "indexed": false,
          "internalType": "uint256",
          "name": "totalSupplyBip32X",
          "type": "uint256"
        },
        {
          "indexed": false,
          "internalType": "uint256",
          "name": "msgValue",
          "type": "uint256"
        },
        {
          "indexed": false,
          "internalType": "uint256",
          "name": "thisBalance",
          "type": "uint256"
        }
      ],
      "name": "EVT_migrateFromContract",
      "type": "event"
    },
    {
      "anonymous": false,
      "inputs": [
        {
          "indexed": false,
          "internalType": "address",
          "name": "updatedShyftKycContractAddress",
          "type": "address"
        },
        {
          "indexed": false,
          "internalType": "uint256",
          "name": "updatedContractBalance",
          "type": "uint256"
        },
        {
          "indexed": false,
          "internalType": "address",
          "name": "kycContractAddress",
          "type": "address"
        },
        {
          "indexed": false,
          "internalType": "address",
          "name": "to",
          "type": "address"
        },
        {
          "indexed": false,
          "internalType": "uint256",
          "name": "_amount",
          "type": "uint256"
        }
      ],
      "name": "EVT_migrateToKycContract",
      "type": "event"
    },
    {
      "anonymous": false,
      "inputs": [
        {
          "indexed": false,
          "internalType": "address",
          "name": "_mintAddress",
          "type": "address"
        },
        {
          "indexed": false,
          "internalType": "address",
          "name": "_address",
          "type": "address"
        },
        {
          "indexed": true,
          "internalType": "uint256",
          "name": "amount",
          "type": "uint256"
        },
        {
          "indexed": true,
          "internalType": "uint256",
          "name": "bip32X_type",
          "type": "uint256"
        },
        {
          "indexed": false,
          "internalType": "uint256",
          "name": "safeExpiryTime",
          "type": "uint256"
        },
        {
          "indexed": true,
          "internalType": "uint256",
          "name": "holdIndex",
          "type": "uint256"
        }
      ],
      "name": "EVT_mintSafeHold",
      "type": "event"
    },
    {
      "anonymous": false,
      "inputs": [
        {
          "indexed": false,
          "internalType": "uint256",
          "name": "amount",
          "type": "uint256"
        },
        {
          "indexed": false,
          "internalType": "uint256",
          "name": "bip32X_type",
          "type": "uint256"
        },
        {
          "indexed": false,
          "internalType": "uint256",
          "name": "preservationValue",
          "type": "uint256"
        }
      ],
      "name": "EVT_preserveSafeBalanceForType",
      "type": "event"
    },
    {
      "anonymous": false,
      "inputs": [
        {
          "indexed": false,
          "internalType": "uint256",
          "name": "holdIndex",
          "type": "uint256"
        },
        {
          "indexed": false,
          "internalType": "uint256",
          "name": "numRemainingHolds",
          "type": "uint256"
        },
        {
          "indexed": false,
          "internalType": "uint256",
          "name": "currentBlockTime",
          "type": "uint256"
        },
        {
          "indexed": false,
          "internalType": "uint256",
          "name": "safeExpiryTime",
          "type": "uint256"
        }
      ],
      "name": "EVT_safeHoldStillTimelocked",
      "type": "event"
    },
    {
      "anonymous": false,
      "inputs": [
        {
          "indexed": false,
          "internalType": "address",
          "name": "_address",
          "type": "address"
        },
        {
          "indexed": false,
          "internalType": "uint256",
          "name": "holdIndex",
          "type": "uint256"
        },
        {
          "indexed": false,
          "internalType": "uint256",
          "name": "keepHoldArrayLength",
          "type": "uint256"
        }
      ],
      "name": "EVT_setHoldDestructible",
      "type": "event"
    },
    {
      "anonymous": false,
      "inputs": [
        {
          "indexed": true,
          "internalType": "address",
          "name": "from",
          "type": "address"
        },
        {
          "indexed": true,
          "internalType": "address",
          "name": "to",
          "type": "address"
        },
        {
          "indexed": false,
          "internalType": "uint256",
          "name": "value",
          "type": "uint256"
        },
        {
          "indexed": true,
          "internalType": "bytes",
          "name": "data",
          "type": "bytes"
        }
      ],
      "name": "Transfer",
      "type": "event"
    },
    {
      "anonymous": false,
      "inputs": [
        {
          "indexed": true,
          "internalType": "address",
          "name": "from",
          "type": "address"
        },
        {
          "indexed": true,
          "internalType": "address",
          "name": "to",
          "type": "address"
        },
        {
          "indexed": false,
          "internalType": "uint256",
          "name": "tokens",
          "type": "uint256"
        }
      ],
      "name": "Transfer",
      "type": "event"
    },
    {
      "inputs": [],
      "name": "bridgeAddress",
      "outputs": [
        {
          "internalType": "address",
          "name": "",
          "type": "address"
        }
      ],
      "stateMutability": "view",
      "type": "function",
      "constant": true
    },
    {
      "inputs": [
        {
          "internalType": "uint256",
          "name": "_holdIndex",
          "type": "uint256"
        }
      ],
      "name": "burnSafeHold",
      "outputs": [
        {
          "internalType": "uint8",
          "name": "result",
          "type": "uint8"
        }
      ],
      "stateMutability": "nonpayable",
      "type": "function"
    },
    {
      "inputs": [],
      "name": "byfrostOrigin",
      "outputs": [
        {
          "internalType": "bool",
          "name": "",
          "type": "bool"
        }
      ],
      "stateMutability": "view",
      "type": "function",
      "constant": true
    },
    {
      "inputs": [
        {
          "internalType": "uint256",
          "name": "_holdIndex",
          "type": "uint256"
        }
      ],
      "name": "freeSafeHold",
      "outputs": [
        {
          "internalType": "uint8",
          "name": "result",
          "type": "uint8"
        }
      ],
      "stateMutability": "nonpayable",
      "type": "function"
    },
    {
      "inputs": [
        {
          "internalType": "uint256",
          "name": "_amount",
          "type": "uint256"
        },
        {
          "internalType": "uint256",
          "name": "_bip32X_type",
          "type": "uint256"
        }
      ],
      "name": "freeSafePreservation",
      "outputs": [
        {
          "internalType": "uint8",
          "name": "result",
          "type": "uint8"
        }
      ],
      "stateMutability": "nonpayable",
      "type": "function"
    },
    {
      "inputs": [
        {
          "internalType": "address",
          "name": "_address",
          "type": "address"
        },
        {
          "internalType": "uint256",
          "name": "_holdIndex",
          "type": "uint256"
        }
      ],
      "name": "getAmountForHold",
      "outputs": [
        {
          "internalType": "uint256",
          "name": "result",
          "type": "uint256"
        }
      ],
      "stateMutability": "view",
      "type": "function",
      "constant": true
    },
    {
      "inputs": [
        {
          "internalType": "address",
          "name": "_address",
          "type": "address"
        },
        {
          "internalType": "uint256",
          "name": "_holdIndex",
          "type": "uint256"
        }
      ],
      "name": "getBip32XTypeForHold",
      "outputs": [
        {
          "internalType": "uint256",
          "name": "result",
          "type": "uint256"
        }
      ],
      "stateMutability": "view",
      "type": "function",
      "constant": true
    },
    {
      "inputs": [
        {
          "internalType": "address",
          "name": "_address",
          "type": "address"
        },
        {
          "internalType": "uint256",
          "name": "_holdIndex",
          "type": "uint256"
        }
      ],
      "name": "getExpiryTimeForHold",
      "outputs": [
        {
          "internalType": "uint256",
          "name": "result",
          "type": "uint256"
        }
      ],
      "stateMutability": "view",
      "type": "function",
      "constant": true
    },
    {
      "inputs": [
        {
          "internalType": "uint256",
          "name": "_bip32X_type",
          "type": "uint256"
        }
      ],
      "name": "getHoldValuation",
      "outputs": [
        {
          "internalType": "uint256",
          "name": "result",
          "type": "uint256"
        }
      ],
      "stateMutability": "view",
      "type": "function",
      "constant": true
    },
    {
      "inputs": [
        {
          "internalType": "address",
          "name": "_address",
          "type": "address"
        },
        {
          "internalType": "uint256",
          "name": "_holdIndex",
          "type": "uint256"
        }
      ],
      "name": "getIsActiveForHold",
      "outputs": [
        {
          "internalType": "uint8",
          "name": "result",
          "type": "uint8"
        }
      ],
      "stateMutability": "view",
      "type": "function",
      "constant": true
    },
    {
      "inputs": [
        {
          "internalType": "address",
          "name": "_address",
          "type": "address"
        },
        {
          "internalType": "uint256",
          "name": "_holdIndex",
          "type": "uint256"
        }
      ],
      "name": "getIsTimelockedForHold",
      "outputs": [
        {
          "internalType": "uint8",
          "name": "result",
          "type": "uint8"
        }
      ],
      "stateMutability": "view",
      "type": "function",
      "constant": true
    },
    {
      "inputs": [
        {
          "internalType": "address",
          "name": "_address",
          "type": "address"
        },
        {
          "internalType": "address",
          "name": "_permissionedAddress",
          "type": "address"
        },
        {
          "internalType": "uint256",
          "name": "_holdIndex",
          "type": "uint256"
        }
      ],
      "name": "getIsTransferPermissionedAddressForHold",
      "outputs": [
        {
          "internalType": "uint8",
          "name": "result",
          "type": "uint8"
        }
      ],
      "stateMutability": "view",
      "type": "function",
      "constant": true
    },
    {
      "inputs": [],
      "name": "getNativeTokenType",
      "outputs": [
        {
          "internalType": "uint256",
          "name": "result",
          "type": "uint256"
        }
      ],
      "stateMutability": "view",
      "type": "function",
      "constant": true
    },
    {
      "inputs": [
        {
          "internalType": "address",
          "name": "_address",
          "type": "address"
        }
      ],
      "name": "getNumberOfHolds",
      "outputs": [
        {
          "internalType": "uint256",
          "name": "result",
          "type": "uint256"
        }
      ],
      "stateMutability": "view",
      "type": "function",
      "constant": true
    },
    {
      "inputs": [
        {
          "internalType": "uint256",
          "name": "_bip32X_type",
          "type": "uint256"
        }
      ],
      "name": "getPreservationValuation",
      "outputs": [
        {
          "internalType": "uint256",
          "name": "result",
          "type": "uint256"
        }
      ],
      "stateMutability": "view",
      "type": "function",
      "constant": true
    },
    {
      "inputs": [
        {
          "internalType": "address",
          "name": "_address",
          "type": "address"
        },
        {
          "internalType": "uint256",
          "name": "bip32X_type",
          "type": "uint256"
        }
      ],
      "name": "getSafeBalance",
      "outputs": [
        {
          "internalType": "uint256",
          "name": "balance",
          "type": "uint256"
        }
      ],
      "stateMutability": "view",
      "type": "function",
      "constant": true
    },
    {
      "inputs": [
        {
          "internalType": "address",
          "name": "_address",
          "type": "address"
        }
      ],
      "name": "getSafeBalance",
      "outputs": [
        {
          "internalType": "uint256",
          "name": "balance",
          "type": "uint256"
        }
      ],
      "stateMutability": "view",
      "type": "function",
      "constant": true
    },
    {
      "inputs": [],
      "name": "getShyftTokenType",
      "outputs": [
        {
          "internalType": "uint256",
          "name": "result",
          "type": "uint256"
        }
      ],
      "stateMutability": "pure",
      "type": "function",
      "constant": true
    },
    {
      "inputs": [],
      "name": "hasBeenUpdated",
      "outputs": [
        {
          "internalType": "bool",
          "name": "",
          "type": "bool"
        }
      ],
      "stateMutability": "view",
      "type": "function",
      "constant": true
    },
    {
      "inputs": [
        {
          "internalType": "uint256",
          "name": "_amount",
          "type": "uint256"
        },
        {
          "internalType": "uint256",
          "name": "_bip32X_type",
          "type": "uint256"
        },
        {
          "internalType": "uint256",
          "name": "_safeExpiryTime",
          "type": "uint256"
        }
      ],
      "name": "holdSafeBalanceForType",
      "outputs": [
        {
          "internalType": "uint256",
          "name": "holdIndex",
          "type": "uint256"
        }
      ],
      "stateMutability": "nonpayable",
      "type": "function"
    },
    {
      "inputs": [
        {
          "internalType": "uint256",
          "name": "_amount",
          "type": "uint256"
        },
        {
          "internalType": "uint256",
          "name": "_bip32X_type",
          "type": "uint256"
        },
        {
          "internalType": "uint256",
          "name": "_safeExpiryTime",
          "type": "uint256"
        },
        {
          "internalType": "address[]",
          "name": "_transferPermissionedAddresses",
          "type": "address[]"
        }
      ],
      "name": "holdSafeBalanceForTypeWithPermissions",
      "outputs": [
        {
          "internalType": "uint256",
          "name": "result",
          "type": "uint256"
        }
      ],
      "stateMutability": "nonpayable",
      "type": "function"
    },
    {
      "inputs": [
        {
          "internalType": "address",
          "name": "_addressToCheck",
          "type": "address"
        }
      ],
      "name": "isBridge",
      "outputs": [
        {
          "internalType": "bool",
          "name": "result",
          "type": "bool"
        }
      ],
      "stateMutability": "view",
      "type": "function",
      "constant": true
    },
    {
      "inputs": [
        {
          "internalType": "address",
          "name": "_address",
          "type": "address"
        },
        {
          "internalType": "uint256",
          "name": "_amount",
          "type": "uint256"
        },
        {
          "internalType": "uint256",
          "name": "_bip32X_type",
          "type": "uint256"
        },
        {
          "internalType": "uint64",
          "name": "_safeExpiryTime",
          "type": "uint64"
        }
      ],
      "name": "mintSafeHold",
      "outputs": [
        {
          "internalType": "uint8",
          "name": "result",
          "type": "uint8"
        },
        {
          "internalType": "uint256",
          "name": "holdIndex",
          "type": "uint256"
        }
      ],
      "stateMutability": "nonpayable",
      "type": "function"
    },
    {
      "inputs": [],
      "name": "owner",
      "outputs": [
        {
          "internalType": "address",
          "name": "",
          "type": "address"
        }
      ],
      "stateMutability": "view",
      "type": "function",
      "constant": true
    },
    {
      "inputs": [
        {
          "internalType": "uint256",
          "name": "_amount",
          "type": "uint256"
        },
        {
          "internalType": "uint256",
          "name": "_bip32X_type",
          "type": "uint256"
        }
      ],
      "name": "preserveSafeBalanceForType",
      "outputs": [
        {
          "internalType": "uint256",
          "name": "holdIndex",
          "type": "uint256"
        }
      ],
      "stateMutability": "nonpayable",
      "type": "function"
    },
    {
      "inputs": [
        {
          "internalType": "address",
          "name": "_addr",
          "type": "address"
        }
      ],
      "name": "setBridge",
      "outputs": [],
      "stateMutability": "nonpayable",
      "type": "function"
    },
    {
      "inputs": [],
      "name": "setBurningDisabledPermanently",
      "outputs": [],
      "stateMutability": "nonpayable",
      "type": "function"
    },
    {
      "inputs": [],
      "name": "setByfrostOrigin",
      "outputs": [
        {
          "internalType": "bool",
          "name": "",
          "type": "bool"
        }
      ],
      "stateMutability": "view",
      "type": "function",
      "constant": true
    },
    {
      "inputs": [
        {
          "internalType": "uint256",
          "name": "_holdIndex",
          "type": "uint256"
        }
      ],
      "name": "setSafeHoldDestructible",
      "outputs": [
        {
          "internalType": "uint8",
          "name": "result",
          "type": "uint8"
        }
      ],
      "stateMutability": "nonpayable",
      "type": "function"
    },
    {
      "inputs": [],
      "name": "shyftCacheGraphAddress",
      "outputs": [
        {
          "internalType": "address",
          "name": "",
          "type": "address"
        }
      ],
      "stateMutability": "view",
      "type": "function",
      "constant": true
    },
    {
      "inputs": [],
      "name": "shyftKycContractRegistryAddress",
      "outputs": [
        {
          "internalType": "address",
          "name": "",
          "type": "address"
        }
      ],
      "stateMutability": "view",
      "type": "function",
      "constant": true
    },
    {
      "inputs": [
        {
          "internalType": "address",
          "name": "_fromAddress",
          "type": "address"
        },
        {
          "internalType": "uint256",
          "name": "_holdIndex",
          "type": "uint256"
        }
      ],
      "name": "transferFromSafeHold",
      "outputs": [
        {
          "internalType": "uint8",
          "name": "result",
          "type": "uint8"
        },
        {
          "internalType": "uint256",
          "name": "holdIndex",
          "type": "uint256"
        }
      ],
      "stateMutability": "nonpayable",
      "type": "function"
    },
    {
      "inputs": [],
      "name": "updatedShyftKycContractAddress",
      "outputs": [
        {
          "internalType": "address",
          "name": "",
          "type": "address"
        }
      ],
      "stateMutability": "view",
      "type": "function",
      "constant": true
    },
    {
      "stateMutability": "payable",
      "type": "receive",
      "payable": true
    },
    {
      "inputs": [
        {
          "internalType": "uint256",
          "name": "_tokenAmount",
          "type": "uint256"
        },
        {
          "internalType": "uint256",
          "name": "_bip32X_type",
          "type": "uint256"
        },
        {
          "internalType": "address",
          "name": "_distributionContract",
          "type": "address"
        }
      ],
      "name": "setByfrostNetwork",
      "outputs": [
        {
          "internalType": "uint8",
          "name": "result",
          "type": "uint8"
        }
      ],
      "stateMutability": "nonpayable",
      "type": "function"
    },
    {
      "inputs": [],
      "name": "setPrimaryNetwork",
      "outputs": [
        {
          "internalType": "uint8",
          "name": "result",
          "type": "uint8"
        }
      ],
      "stateMutability": "nonpayable",
      "type": "function"
    },
    {
      "inputs": [],
      "name": "removeOwner",
      "outputs": [
        {
          "internalType": "bool",
          "name": "",
          "type": "bool"
        }
      ],
      "stateMutability": "nonpayable",
      "type": "function"
    },
    {
      "inputs": [
        {
          "internalType": "address",
          "name": "_shyftCacheGraphAddress",
          "type": "address"
        }
      ],
      "name": "setShyftCacheGraphAddress",
      "outputs": [
        {
          "internalType": "uint8",
          "name": "result",
          "type": "uint8"
        }
      ],
      "stateMutability": "nonpayable",
      "type": "function"
    },
    {
      "inputs": [
        {
          "internalType": "address",
          "name": "_identifiedAddress",
          "type": "address"
        },
        {
          "internalType": "uint256",
          "name": "_amount",
          "type": "uint256"
        },
        {
          "internalType": "uint256",
          "name": "_bip32X_type",
          "type": "uint256"
        },
        {
          "internalType": "bool",
          "name": "_requiredConsentFromAllParties",
          "type": "bool"
        },
        {
          "internalType": "bool",
          "name": "_payForDirty",
          "type": "bool"
        }
      ],
      "name": "kycSend",
      "outputs": [
        {
          "internalType": "uint8",
          "name": "result",
          "type": "uint8"
        }
      ],
      "stateMutability": "nonpayable",
      "type": "function"
    },
    {
      "inputs": [
        {
          "internalType": "address",
          "name": "_addr",
          "type": "address"
        }
      ],
      "name": "updateContract",
      "outputs": [
        {
          "internalType": "bool",
          "name": "",
          "type": "bool"
        }
      ],
      "stateMutability": "nonpayable",
      "type": "function"
    },
    {
      "inputs": [
        {
          "internalType": "address",
          "name": "_addr",
          "type": "address"
        }
      ],
      "name": "setShyftKycContractRegistryAddress",
      "outputs": [
        {
          "internalType": "bool",
          "name": "",
          "type": "bool"
        }
      ],
      "stateMutability": "nonpayable",
      "type": "function"
    },
    {
      "inputs": [
        {
          "internalType": "address payable",
          "name": "_to",
          "type": "address"
        }
      ],
      "name": "withdrawAllNative",
      "outputs": [
        {
          "internalType": "uint256",
          "name": "",
          "type": "uint256"
        }
      ],
      "stateMutability": "nonpayable",
      "type": "function"
    },
    {
      "inputs": [
        {
          "internalType": "address",
          "name": "_identifiedAddress",
          "type": "address"
        },
        {
          "internalType": "uint256",
          "name": "_bip32X_type",
          "type": "uint256"
        }
      ],
      "name": "getBalanceBip32X",
      "outputs": [
        {
          "internalType": "uint256",
          "name": "balance",
          "type": "uint256"
        }
      ],
      "stateMutability": "view",
      "type": "function",
      "constant": true
    },
    {
      "inputs": [
        {
          "internalType": "uint256",
          "name": "_bip32X_type",
          "type": "uint256"
        }
      ],
      "name": "getTotalSupplyBip32X",
      "outputs": [
        {
          "internalType": "uint256",
          "name": "balance",
          "type": "uint256"
        }
      ],
      "stateMutability": "view",
      "type": "function",
      "constant": true
    },
    {
      "inputs": [
        {
          "internalType": "address",
          "name": "_to",
          "type": "address"
        },
        {
          "internalType": "bool",
          "name": "_onlyUseKycContract",
          "type": "bool"
        }
      ],
      "name": "migrateFromKycContract",
      "outputs": [
        {
          "internalType": "bool",
          "name": "result",
          "type": "bool"
        }
      ],
      "stateMutability": "payable",
      "type": "function",
      "payable": true
    },
    {
      "inputs": [
        {
          "internalType": "bool",
          "name": "_onlyAcceptsKycInputValue",
          "type": "bool"
        }
      ],
      "name": "setOnlyAcceptsKycInput",
      "outputs": [
        {
          "internalType": "bool",
          "name": "result",
          "type": "bool"
        }
      ],
      "stateMutability": "nonpayable",
      "type": "function"
    },
    {
      "inputs": [],
      "name": "setLockOnlyAcceptsKycInputPermanently",
      "outputs": [
        {
          "internalType": "bool",
          "name": "result",
          "type": "bool"
        }
      ],
      "stateMutability": "nonpayable",
      "type": "function"
    },
    {
      "inputs": [
        {
          "internalType": "address",
          "name": "_identifiedAddress",
          "type": "address"
        }
      ],
      "name": "getOnlyAcceptsKycInput",
      "outputs": [
        {
          "internalType": "bool",
          "name": "result",
          "type": "bool"
        }
      ],
      "stateMutability": "view",
      "type": "function",
      "constant": true
    },
    {
      "inputs": [
        {
          "internalType": "address",
          "name": "_identifiedAddress",
          "type": "address"
        }
      ],
      "name": "getOnlyAcceptsKycInputPermanently",
      "outputs": [
        {
          "internalType": "bool",
          "name": "result",
          "type": "bool"
        }
      ],
      "stateMutability": "view",
      "type": "function",
      "constant": true
    },
    {
      "inputs": [
        {
          "internalType": "uint256",
          "name": "_value",
          "type": "uint256"
        }
      ],
      "name": "upgradeNativeTokens",
      "outputs": [
        {
          "internalType": "uint256",
          "name": "result",
          "type": "uint256"
        }
      ],
      "stateMutability": "nonpayable",
      "type": "function"
    },
    {
      "inputs": [
        {
          "internalType": "bool",
          "name": "_autoUpgrade",
          "type": "bool"
        }
      ],
      "name": "setAutoUpgrade",
      "outputs": [],
      "stateMutability": "nonpayable",
      "type": "function"
    },
    {
      "inputs": [
        {
          "internalType": "address payable",
          "name": "_to",
          "type": "address"
        },
        {
          "internalType": "uint256",
          "name": "_value",
          "type": "uint256"
        }
      ],
      "name": "withdrawNative",
      "outputs": [
        {
          "internalType": "bool",
          "name": "ok",
          "type": "bool"
        }
      ],
      "stateMutability": "nonpayable",
      "type": "function"
    },
    {
      "inputs": [
        {
          "internalType": "address",
          "name": "_to",
          "type": "address"
        },
        {
          "internalType": "uint256",
          "name": "_value",
          "type": "uint256"
        }
      ],
      "name": "withdrawToExternalContract",
      "outputs": [
        {
          "internalType": "bool",
          "name": "ok",
          "type": "bool"
        }
      ],
      "stateMutability": "nonpayable",
      "type": "function"
    },
    {
      "inputs": [
        {
          "internalType": "address",
          "name": "_shyftKycContractAddress",
          "type": "address"
        },
        {
          "internalType": "address",
          "name": "_to",
          "type": "address"
        },
        {
          "internalType": "uint256",
          "name": "_value",
          "type": "uint256"
        }
      ],
      "name": "withdrawToShyftKycContract",
      "outputs": [
        {
          "internalType": "bool",
          "name": "ok",
          "type": "bool"
        }
      ],
      "stateMutability": "nonpayable",
      "type": "function"
    },
    {
      "inputs": [
        {
          "internalType": "address",
          "name": "_from",
          "type": "address"
        },
        {
          "internalType": "uint256",
          "name": "_value",
          "type": "uint256"
        },
        {
          "internalType": "bytes",
          "name": "_data",
          "type": "bytes"
        }
      ],
      "name": "tokenFallback",
      "outputs": [
        {
          "internalType": "bool",
          "name": "ok",
          "type": "bool"
        }
      ],
      "stateMutability": "nonpayable",
      "type": "function"
    },
    {
      "inputs": [
        {
          "internalType": "address",
          "name": "_who",
          "type": "address"
        }
      ],
      "name": "balanceOf",
      "outputs": [
        {
          "internalType": "uint256",
          "name": "",
          "type": "uint256"
        }
      ],
      "stateMutability": "view",
      "type": "function",
      "constant": true
    },
    {
      "inputs": [],
      "name": "name",
      "outputs": [
        {
          "internalType": "string",
          "name": "_name",
          "type": "string"
        }
      ],
      "stateMutability": "pure",
      "type": "function",
      "constant": true
    },
    {
      "inputs": [],
      "name": "symbol",
      "outputs": [
        {
          "internalType": "string",
          "name": "_symbol",
          "type": "string"
        }
      ],
      "stateMutability": "pure",
      "type": "function",
      "constant": true
    },
    {
      "inputs": [],
      "name": "decimals",
      "outputs": [
        {
          "internalType": "uint8",
          "name": "_decimals",
          "type": "uint8"
        }
      ],
      "stateMutability": "pure",
      "type": "function",
      "constant": true
    },
    {
      "inputs": [],
      "name": "totalSupply",
      "outputs": [
        {
          "internalType": "uint256",
          "name": "result",
          "type": "uint256"
        }
      ],
      "stateMutability": "view",
      "type": "function",
      "constant": true
    },
    {
      "inputs": [
        {
          "internalType": "address",
          "name": "_to",
          "type": "address"
        },
        {
          "internalType": "uint256",
          "name": "_value",
          "type": "uint256"
        }
      ],
      "name": "transfer",
      "outputs": [
        {
          "internalType": "bool",
          "name": "ok",
          "type": "bool"
        }
      ],
      "stateMutability": "nonpayable",
      "type": "function"
    },
    {
      "inputs": [
        {
          "internalType": "address",
          "name": "_to",
          "type": "address"
        },
        {
          "internalType": "uint256",
          "name": "_value",
          "type": "uint256"
        },
        {
          "internalType": "bytes",
          "name": "data",
          "type": "bytes"
        }
      ],
      "name": "transfer",
      "outputs": [
        {
          "internalType": "bool",
          "name": "ok",
          "type": "bool"
        }
      ],
      "stateMutability": "nonpayable",
      "type": "function"
    },
    {
      "inputs": [
        {
          "internalType": "address",
          "name": "_tokenOwner",
          "type": "address"
        },
        {
          "internalType": "address",
          "name": "_spender",
          "type": "address"
        }
      ],
      "name": "allowance",
      "outputs": [
        {
          "internalType": "uint256",
          "name": "remaining",
          "type": "uint256"
        }
      ],
      "stateMutability": "view",
      "type": "function",
      "constant": true
    },
    {
      "inputs": [
        {
          "internalType": "address",
          "name": "_spender",
          "type": "address"
        },
        {
          "internalType": "uint256",
          "name": "_tokens",
          "type": "uint256"
        }
      ],
      "name": "approve",
      "outputs": [
        {
          "internalType": "bool",
          "name": "success",
          "type": "bool"
        }
      ],
      "stateMutability": "nonpayable",
      "type": "function"
    },
    {
      "inputs": [
        {
          "internalType": "address",
          "name": "_from",
          "type": "address"
        },
        {
          "internalType": "address",
          "name": "_to",
          "type": "address"
        },
        {
          "internalType": "uint256",
          "name": "_tokens",
          "type": "uint256"
        }
      ],
      "name": "transferFrom",
      "outputs": [
        {
          "internalType": "bool",
          "name": "success",
          "type": "bool"
        }
      ],
      "stateMutability": "nonpayable",
      "type": "function"
    },
    {
      "inputs": [
        {
          "internalType": "address",
          "name": "_to",
          "type": "address"
        },
        {
          "internalType": "uint256",
          "name": "_value",
          "type": "uint256"
        },
        {
          "internalType": "uint256",
          "name": "_bip32X_type",
          "type": "uint256"
        }
      ],
      "name": "transferBip32X_type",
      "outputs": [
        {
          "internalType": "bool",
          "name": "result",
          "type": "bool"
        }
      ],
      "stateMutability": "nonpayable",
      "type": "function"
    },
    {
      "inputs": [
        {
          "internalType": "address",
          "name": "_erc223ContractAddress",
          "type": "address"
        },
        {
          "internalType": "address",
          "name": "_to",
          "type": "address"
        },
        {
          "internalType": "uint256",
          "name": "_value",
          "type": "uint256"
        }
      ],
      "name": "withdrawTokenBip32X_typeToErc223",
      "outputs": [
        {
          "internalType": "bool",
          "name": "ok",
          "type": "bool"
        }
      ],
      "stateMutability": "nonpayable",
      "type": "function"
    },
    {
      "inputs": [
        {
          "internalType": "address",
          "name": "_erc20ContractAddress",
          "type": "address"
        },
        {
          "internalType": "uint256",
          "name": "_value",
          "type": "uint256"
        }
      ],
      "name": "transferFromErc20Token",
      "outputs": [
        {
          "internalType": "bool",
          "name": "ok",
          "type": "bool"
        }
      ],
      "stateMutability": "nonpayable",
      "type": "function"
    },
    {
      "inputs": [
        {
          "internalType": "address",
          "name": "_erc20ContractAddress",
          "type": "address"
        },
        {
          "internalType": "address",
          "name": "_to",
          "type": "address"
        },
        {
          "internalType": "uint256",
          "name": "_value",
          "type": "uint256"
        }
      ],
      "name": "withdrawTokenBip32X_typeToErc20",
      "outputs": [
        {
          "internalType": "bool",
          "name": "ok",
          "type": "bool"
        }
      ],
      "stateMutability": "nonpayable",
      "type": "function"
    }
  ],
  "bytecode": "0x6080604052600380546001600160a01b0319169055600f80546001600160c01b031916637182510b60a11b17905534801561003957600080fd5b5060405162004cca38038062004cca8339818101604052602081101561005e57600080fd5b5051600580546001600160a01b03191633179055600655614c4580620000856000396000f3fe6080604052600436106103f35760003560e01c80638dd1480211610208578063c65454d311610118578063df90225d116100ab578063eb7242081161007a578063eb724208146113eb578063eea8af3314611424578063f8c2e26f1461145d578063fb3d36d814611472578063fd9092cb14611487576104cf565b8063df90225d14611306578063e066d79c14611339578063e38d4d8314611369578063e3db17b8146113b8576104cf565b8063d9992d57116100e7578063d9992d571461121c578063d9f66db11461125f578063dd0660ae14611292578063dd62ed3e146112cb576104cf565b8063c65454d314611195578063ca4a1c5a146111aa578063d32439db146111d4578063d4eaf5b7146111e9576104cf565b8063b5d059971161019b578063bf5f94d61161016a578063bf5f94d614611018578063c01044a81461102d578063c0ee0b8a14611060578063c378df9c14611128578063c59c24051461116b576104cf565b8063b5d0599714610e9b578063bc804f5a14610ed4578063bcbca73614610f17578063be45fd6214610f50576104cf565b8063a02d4b99116101d7578063a02d4b9914610e0e578063a0dc05b314610e23578063a3c573eb14610e4d578063a9059cbb14610e62576104cf565b80638dd1480214610d7257806392e46a4414610da557806395d89b4114610dba578063989d881314610dcf576104cf565b80632e8874a3116103035780634f430c3411610296578063726600ce11610265578063726600ce14610cb85780637eb6298614610ceb5780637eeb644014610d0057806387fb0ffb14610d2a5780638da5cb5b14610d5d576104cf565b80634f430c3414610bd95780635d51dc6a14610c185780636aedaec314610c4257806370a0823114610c85576104cf565b806346149649116102d25780634614964914610afd5780634740404014610b305780634c3f3f1714610b605780634eee55f314610b8a576104cf565b80632e8874a314610a20578063313ce56714610a7657806341ba185514610a8b57806343727b1114610ac4576104cf565b80630d60cb8d1161038657806317d3003a1161035557806317d3003a1461097057806318160ddd146109855780631d29c3571461099a57806323b872dd146109c8578063246f8b9614610a0b576104cf565b80630d60cb8d1461082c57806313a4d935146108ef578063155edcb914610928578063160abcac1461093d576104cf565b806306fdde03116103c257806306fdde03146106f057806307b18bde1461077a578063095ea7b3146107c75780630cb35ea814610800576104cf565b806302f61800146105fc57806304022f3b14610628578063051468f81461067757806306f1c5c3146106bf576104cf565b366104cf57600d54610100900460ff16801561041e5750336000908152600a602052604090205460ff165b15610561573330146104db57336000908152600b602052604090205460ff161561044757600080fd5b3360009081526008602090815260408083206006805485529083528184208054908590559054845260079092529091205461048290826114b1565b600654600090815260076020526040812091909155600d546104bd906201000090046001600160a01b0316336104b885346114cb565b6114e4565b9050600181151514156104cf576104d4565b600080fd5b505061055c565b3260009081526008602090815260408083206006805485529083528184208054908590559054845260079092529091205461051690826114b1565b600654600090815260076020526040812091909155600d5461054c906201000090046001600160a01b0316326104b885346114cb565b9050600181151514156104cf5750505b6105fa565b3330148015906105805750336000908152600b602052604090205460ff165b1561058a57600080fd5b33600090815260086020908152604080832060065484529091529020546105b190346114cb565b33600090815260086020908152604080832060068054855290835281842094909455925482526007905220546105e790346114cb565b6006546000908152600760205260409020555b005b34801561060857600080fd5b506105fa6004803603602081101561061f57600080fd5b503515156115f9565b34801561063457600080fd5b506106616004803603604081101561064b57600080fd5b506001600160a01b038135169060200135611619565b6040805160ff9092168252519081900360200190f35b34801561068357600080fd5b506106ad6004803603606081101561069a57600080fd5b508035906020810135906040013561168c565b60408051918252519081900360200190f35b3480156106cb57600080fd5b506106d4611730565b604080516001600160a01b039092168252519081900360200190f35b3480156106fc57600080fd5b5061070561173f565b6040805160208082528351818301528351919283929083019185019080838360005b8381101561073f578181015183820152602001610727565b50505050905090810190601f16801561076c5780820380516001836020036101000a031916815260200191505b509250505060405180910390f35b34801561078657600080fd5b506107b36004803603604081101561079d57600080fd5b506001600160a01b038135169060200135611761565b604080519115158252519081900360200190f35b3480156107d357600080fd5b506107b3600480360360408110156107ea57600080fd5b506001600160a01b0381351690602001356118c2565b34801561080c57600080fd5b506107b36004803603602081101561082357600080fd5b50351515611932565b34801561083857600080fd5b506106ad6004803603608081101561084f57600080fd5b8135916020810135916040820135919081019060808101606082013564010000000081111561087d57600080fd5b82018360208201111561088f57600080fd5b803590602001918460208302840111640100000000831117156108b157600080fd5b919080806020026020016040519081016040528093929190818152602001838360200280828437600092019190915250929550611975945050505050565b3480156108fb57600080fd5b506107b36004803603604081101561091257600080fd5b506001600160a01b038135169060200135611a15565b34801561093457600080fd5b506107b3611c58565b34801561094957600080fd5b506106616004803603602081101561096057600080fd5b50356001600160a01b0316611c9a565b34801561097c57600080fd5b50610661611ce5565b34801561099157600080fd5b506106ad611d2f565b6107b3600480360360408110156109b057600080fd5b506001600160a01b0381351690602001351515611d41565b3480156109d457600080fd5b506107b3600480360360608110156109eb57600080fd5b506001600160a01b03813581169160208101359091169060400135611f09565b348015610a1757600080fd5b506107b36120e1565b348015610a2c57600080fd5b50610a5960048036036040811015610a4357600080fd5b506001600160a01b038135169060200135612111565b6040805160ff909316835260208301919091528051918290030190f35b348015610a8257600080fd5b5061066161234b565b348015610a9757600080fd5b506106ad60048036036040811015610aae57600080fd5b506001600160a01b038135169060200135612350565b348015610ad057600080fd5b506106ad60048036036040811015610ae757600080fd5b506001600160a01b038135169060200135612378565b348015610b0957600080fd5b506107b360048036036020811015610b2057600080fd5b50356001600160a01b03166123b9565b348015610b3c57600080fd5b5061066160048036036040811015610b5357600080fd5b50803590602001356123f8565b348015610b6c57600080fd5b506106ad60048036036020811015610b8357600080fd5b50356124de565b348015610b9657600080fd5b50610a5960048036036080811015610bad57600080fd5b5080356001600160a01b0316906020810135906040810135906060013567ffffffffffffffff166124fd565b348015610be557600080fd5b506107b360048036036060811015610bfc57600080fd5b506001600160a01b038135169060208101359060400135612682565b348015610c2457600080fd5b5061066160048036036020811015610c3b57600080fd5b50356127ab565b348015610c4e57600080fd5b506107b360048036036060811015610c6557600080fd5b506001600160a01b03813581169160208101359091169060400135612983565b348015610c9157600080fd5b506106ad60048036036020811015610ca857600080fd5b50356001600160a01b0316612bdb565b348015610cc457600080fd5b506107b360048036036020811015610cdb57600080fd5b50356001600160a01b0316612c03565b348015610cf757600080fd5b506106d4612c24565b348015610d0c57600080fd5b5061066160048036036020811015610d2357600080fd5b5035612c33565b348015610d3657600080fd5b506107b360048036036020811015610d4d57600080fd5b50356001600160a01b0316612dff565b348015610d6957600080fd5b506106d4612e1d565b348015610d7e57600080fd5b506105fa60048036036020811015610d9557600080fd5b50356001600160a01b0316612e2c565b348015610db157600080fd5b506106d4612ea6565b348015610dc657600080fd5b50610705612ebb565b348015610ddb57600080fd5b5061066160048036036060811015610df257600080fd5b50803590602081013590604001356001600160a01b0316612ed9565b348015610e1a57600080fd5b506106ad612f58565b348015610e2f57600080fd5b506106ad60048036036020811015610e4657600080fd5b5035612f5e565b348015610e5957600080fd5b506106d4612f70565b348015610e6e57600080fd5b506107b360048036036040811015610e8557600080fd5b506001600160a01b038135169060200135612f7f565b348015610ea757600080fd5b506106ad60048036036040811015610ebe57600080fd5b506001600160a01b0381351690602001356130a6565b348015610ee057600080fd5b506107b360048036036060811015610ef757600080fd5b506001600160a01b038135811691602081013590911690604001356130e7565b348015610f2357600080fd5b506106ad60048036036040811015610f3a57600080fd5b506001600160a01b0381351690602001356134c3565b348015610f5c57600080fd5b506107b360048036036060811015610f7357600080fd5b6001600160a01b0382351691602081013591810190606081016040820135640100000000811115610fa357600080fd5b820183602082011115610fb557600080fd5b80359060200191846001830284011164010000000083111715610fd757600080fd5b91908080601f0160208091040260200160405190810160405280939291908181526020018383808284376000920191909152509295506134eb945050505050565b34801561102457600080fd5b506105fa6137a9565b34801561103957600080fd5b506107b36004803603602081101561105057600080fd5b50356001600160a01b03166137c5565b34801561106c57600080fd5b506107b36004803603606081101561108357600080fd5b6001600160a01b03823516916020810135918101906060810160408201356401000000008111156110b357600080fd5b8201836020820111156110c557600080fd5b803590602001918460018302840111640100000000831117156110e757600080fd5b91908080601f0160208091040260200160405190810160405280939291908181526020018383808284376000920191909152509295506137e3945050505050565b34801561113457600080fd5b506106616004803603606081101561114b57600080fd5b506001600160a01b03813581169160208101359091169060400135613c56565b34801561117757600080fd5b506106616004803603602081101561118e57600080fd5b5035613cda565b3480156111a157600080fd5b506107b3613d48565b3480156111b657600080fd5b506106ad600480360360208110156111cd57600080fd5b5035613d56565b3480156111e057600080fd5b506107b3613e12565b3480156111f557600080fd5b506106ad6004803603602081101561120c57600080fd5b50356001600160a01b0316613e22565b34801561122857600080fd5b506107b36004803603606081101561123f57600080fd5b506001600160a01b03813581169160208101359091169060400135613e3d565b34801561126b57600080fd5b506106ad6004803603602081101561128257600080fd5b50356001600160a01b0316613ffa565b34801561129e57600080fd5b506107b3600480360360408110156112b557600080fd5b506001600160a01b038135169060200135614021565b3480156112d757600080fd5b506106ad600480360360408110156112ee57600080fd5b506001600160a01b03813581169160200135166142bd565b34801561131257600080fd5b506106ad6004803603602081101561132957600080fd5b50356001600160a01b03166142f2565b34801561134557600080fd5b506106ad6004803603604081101561135c57600080fd5b508035906020013561431a565b34801561137557600080fd5b50610661600480360360a081101561138c57600080fd5b506001600160a01b038135169060208101359060408101359060608101351515906080013515156143c2565b3480156113c457600080fd5b506107b3600480360360208110156113db57600080fd5b50356001600160a01b0316614599565b3480156113f757600080fd5b506106ad6004803603604081101561140e57600080fd5b506001600160a01b0381351690602001356145eb565b34801561143057600080fd5b506106616004803603604081101561144757600080fd5b506001600160a01b03813516906020013561462c565b34801561146957600080fd5b506106ad61467f565b34801561147e57600080fd5b506107b3614685565b34801561149357600080fd5b506106ad600480360360208110156114aa57600080fd5b5035614695565b6000828211156114c057600080fd5b508082035b92915050565b6000828201838110156114dd57600080fd5b9392505050565b600d54604080516001600160a01b0362010000909304831680825280316020830152868416828401529285166060820152608081018490529051600092917ffa917f8a36493643467cfffaadf46bd81954c63721283e6e5e147683a26a23c6919081900360a00190a160408051631d29c35760e01b81526001600160a01b038681166004830152600160248301529151600092841691631d29c3579162011170918891604480830192602092919082900301818589803b1580156115a757600080fd5b5088f11580156115bb573d6000803e3d6000fd5b5050505050506040513d60208110156115d357600080fd5b50519050600181151514156115ed576001925050506114dd565b50600095945050505050565b336000908152600a60205260409020805460ff1916911515919091179055565b6001600160a01b0382166000908152602081905260408120805483101561167b5780600001838154811061164957fe5b600091825260209091206006909102015460ff161515600114156116715760029150506114c5565b60019150506114c5565b60009150506114c5565b5092915050565b600080600061169b86866146b4565b9092509050600160ff831614156104cf5760006116ba3388888861477e565b90508060ff16600114156104cf5733600081815260208181526040918290208054835194855291840189905282519093600019909201928a928c927f9494bfc0664f18370575800d7719d303c067bfe298f0816711d2ff873f869e05929181900390910190a4546000190193506114dd92505050565b600f546001600160a01b031681565b604080518082019091526007815266109e599c9bdcdd60ca1b60208201525b90565b600d5460009060ff161561177457600080fd5b600d805460ff19166001179055336000908152600860209081526040808320600654845290915290205482116118ae57823b806118a35733600090815260086020908152604080832060065484529091529020546117d290846114b1565b336000908152600860209081526040808320600680548552908352818420949094559254825260079052205461180890846114b1565b6006546000908152600760205260408082209290925590516001600160a01b0386169185156108fc02918691818181858888f19350505050158015611851573d6000803e3d6000fd5b50604080513381526001600160a01b038616602082015280820185905290517f442f59271decdd708646c141272baa09d03c6f831aa19363239743105ecaf8d49181900360600190a1600191506118a8565b600091505b506118b2565b5060005b600d805460ff1916905592915050565b3360008181526009602090815260408083206001600160a01b038716808552908352818420611cad85528352818420869055815186815291519394909390927f8c5be1e5ebec7d5bd14f71427d1e84f3dd0314c0f7b2291e5b200ac8c7c3b925928290030190a350600192915050565b336000908152600c602052604081205460ff1661196c5750336000908152600b60205260409020805460ff19168215151790556001611970565b5060005b919050565b60008061198386868661168c565b3360009081526020819052604081209192505b8451811015611a095760018260000184815481106119b057fe5b906000526020600020906006020160040160008784815181106119cf57fe5b6020908102919091018101516001600160a01b03168252810191909152604001600020805460ff1916911515919091179055600101611996565b50909695505050505050565b600d5460009060ff1615611a2857600080fd5b600d805460ff191660011790556001600160a01b038316301415611a4b57600080fd5b336000908152600b602052604090205460ff1615611a6857600080fd5b60408051636eb1769f60e11b81523360048201523060248201529051849184916001600160a01b0384169163dd62ed3e916044808301926020929190829003018186803b158015611ab857600080fd5b505afa158015611acc573d6000803e3d6000fd5b505050506040513d6020811015611ae257600080fd5b505110611c4757604080516323b872dd60e01b81523360048201523060248201526044810185905290516000916001600160a01b038416916323b872dd9160648082019260209290919082900301818787803b158015611b4157600080fd5b505af1158015611b55573d6000803e3d6000fd5b505050506040513d6020811015611b6b57600080fd5b50519050600181151514156104cf57600654604080516020808201939093526001600160601b0319606089901b1681830152815160348183030181526054909101825280519083012033600090815260088452828120828252909352912054611bd490866114cb565b3360008181526008602090815260408083208684528252918290209390935580516001600160a01b038a1681529283019190915281810187905260608201839052517f14199c6685f8c284290bf8ed968c57daafbfa067b251d6505610183c4a64ea179181900360800190a16001935050505b50600d805460ff1916905592915050565b336000908152600c602052604081205460ff16611c925750336000908152600c60205260409020805460ff1916600190811790915561175e565b50600061175e565b60006001600160a01b038216611caf57600080fd5b6005546001600160a01b031633141561196c5750600f80546001600160a01b0319166001600160a01b0383161790556001611970565b6005546000906001600160a01b0316331415611c9257600f54600160c81b900460ff16611d275750600f805460ff60c81b1916600160c81b179055600261175e565b50600161175e565b6000611d3c611cad612f5e565b905090565b6006546000908152600760205260408120544790611d5f90346114cb565b1115611d6a57600080fd5b6001821515811415611df557600e5460408051630487e9b760e41b815233600482015290516001600160a01b039092169163487e9b7091602480820192602092909190829003018186803b158015611dc157600080fd5b505afa158015611dd5573d6000803e3d6000fd5b505050506040513d6020811015611deb57600080fd5b5051611df5575060005b6001600160a01b0384166000908152600b602052604090205460ff16151560011415611e1f575060005b600181151514156104cf576006546000908152600760209081526040918290205482519081523491810191909152478183015290517f838cab42561fe6d3ebf7e3c79b6d65906c27d79057b8c8ea0b2091022c5e932e9181900360600190a16001600160a01b03841660009081526008602090815260408083206006548452909152902054611eae90346114cb565b6001600160a01b03851660009081526008602090815260408083206006805485529083528184209490945592548252600790522054611eed90346114cb565b60065460009081526007602052604090205550600190506114c5565b6001600160a01b0382166000908152600b602052604081205460ff16158015611f6157506001600160a01b0380851660009081526009602090815260408083209387168352928152828220611cad8352905220548211155b8015611f9257506001600160a01b0384166000908152600860209081526040808320611cad84529091529020548211155b156120d9576001600160a01b0380851660009081526009602090815260408083209387168352928152828220611cad835290522054611fd190836114b1565b6001600160a01b0380861660008181526009602090815260408083209489168352938152838220611cad808452908252848320959095559181526008825282812093815292905290205461202590836114b1565b6001600160a01b038086166000908152600860208181526040808420611cad8086529083528185209690965593881683529081528282209382529290925290205461207090836114cb565b6001600160a01b038085166000818152600860209081526040808320611cad845282529182902094909455805186815290519193928816927fddf252ad1be2c89b69c2b068fc378daa952ba7f163c4a11628f55a4df523b3ef92918290030190a35060016114dd565b5060006114dd565b6005546000906001600160a01b031633146120fb57600080fd5b50600580546001600160a01b0319169055600190565b6001600160a01b0382166000908152602081905260408120805482919084101561233b57600081600001858154811061214657fe5b60009182526020909120600690910201805490915060ff1615156001141561232c5733600090815260048201602052604090205460ff1615156001141561231d57600061219d8733846001015485600201546148a1565b509050600160ff821614156104cf57815462ff000019166201000017825560006121c7888861496f565b90508060ff16600114156104cf577fb74cbaf749b28f2b4d229cf1e55887e2f462a4f1db023cbe01b964657f63e247338886600301548760090160009054906101000a900460ff1687600101548860020154428a6003015460405180896001600160a01b0316815260200188815260200187815260200186600281111561224a57fe5b81526020018581526020018481526020018381526020018281526020019850505050505050505060405180910390a160006122933385600101548660020154876003015461477e565b90508060ff16600114156104cf5733600081815260208181526040918290208054600289015460018a015460038b015486519788529487019490945284519295600019909201949093927f9494bfc0664f18370575800d7719d303c067bfe298f0816711d2ff873f869e059281900390910190a45460069750600019019550612344945050505050565b60026000935093505050612344565b60016000935093505050612344565b60008092509250505b9250929050565b601290565b6001600160a01b03919091166000908152600160209081526040808320938352929052205490565b6001600160a01b0382166000908152602081905260408120805481908490811061239e57fe5b90600052602060002090600602016001015491505092915050565b6005546000906001600160a01b031633146123d357600080fd5b50600e80546001600160a01b0383166001600160a01b03199091161790556001919050565b3360009081526020818152604080832084845260078101909252822054841161167b576000806124288686614af1565b9092509050600160ff831614156104cf576202a3004201600061244d3389898561477e565b90508060ff16600114156104cf57600087815260078601602052604090205461247690896114b1565b60008881526007870160209081526040918290209290925580518a8152918201899052428282015260608201849052517f48f09496f7004ba08cba4f774ed120ee9ccf5c5a03a94bfb4c5e6da237ed200f9181900360800190a16003955050505050506114c5565b3360009081526020818152604080832093835260079093019052205490565b33600090815260046020526040812054819060ff16151560011415612672576001600160a01b038616600090815260016020908152604080832087845290915290205461254a90866114cb565b6001600160a01b038716600090815260016020908152604080832088845290915281209190915561258787878767ffffffffffffffff881661477e565b90508060ff16600114156104cf576001600160a01b038716600081815260208181526040918290208054835194855267ffffffffffffffff891692850192909252825190936000199092019289928b927f9494bfc0664f18370575800d7719d303c067bfe298f0816711d2ff873f869e05929181900390910190a48054604080513381526001600160a01b038b16602082015267ffffffffffffffff88168183015290516000199092019188918a917fc77e8482d11d3631e4db80cfbf9d8f3d24ddccbdf70332bbc7db051df17996d89181900360600190a454600293506000190191506126799050565b5060009050805b94509492505050565b6001600160a01b0383166000908152600b602052604081205460ff16156126a857600080fd5b3360009081526008602090815260408083208584529091529020548311156126cf57600080fd5b3360009081526008602090815260408083208584529091529020546126f490846114b1565b3360009081526008602081815260408084208785528252808420949094556001600160a01b03881683529081528282208583529052205461273590846114cb565b6001600160a01b03851660008181526008602090815260408083208784528252918290209390935580513381529283019190915281810185905260608201849052517f843059d2ca7c2c51bca8441ad3c5be35e8f96b711261676adc77dffe263859c29181900360800190a15060019392505050565b3360009081526002602052604081205460ff1661196c5733600090815260208190526040902080548310156129795760008160000184815481106127eb57fe5b60009182526020909120600690910201805490915060ff16151560011480156128185750600581015460ff165b1561296e576001808201543360009081526020928352604080822060028601548352909352919091205410612963576000612853338661496f565b90508060ff1660011415612957576001808301543360009081526020928352604080822060028701548352909352919091205461288f916114b1565b3360008181526001602081815260408084206002808a018054875291845294829020969096556003808a015460098b0154948a01549754918a015483518881529485018e90529284018190527fb130f4b26a6f48a5b2cb358c17202011818c72a9369d819470160b8d4582ad0f978d96919560ff1694909342929091906060820190879081111561291c57fe5b81526020018581526020018481526020018381526020018281526020019850505050505050505060405180910390a160059350505050611970565b60049350505050611970565b600392505050611970565b600292505050611970565b6001915050611970565b600d5460009060ff161561299657600080fd5b600d805460ff19166001179055600654604080516020808201939093526001600160601b0319606088901b16818301528151603481830301815260549091018252805190830120336000908152600884528281208282529093529120548311156129ff57600080fd5b336000908152600860209081526040808320848452909152902054612a2490846114b1565b33600090815260086020908152604080832085845282528083209390935582517f7472616e7366657228616464726573732c75696e74323536290000000000000081830152835180820360190181526039820185528051908301206001600160a01b03898116605d840152607d8084018a905286518085039091018152609d909301865292820180516001600160e01b03166001600160e01b03198316178152945182519195938b169390918291908083835b60208310612af65780518252601f199092019160209182019101612ad7565b6001836020036101000a0380198251168184511680821785525050505050509050019150506000604051808303816000865af19150503d8060008114612b58576040519150601f19603f3d011682016040523d82523d6000602084013e612b5d565b606091505b5090915050600181151514156104cf57604080516001600160a01b03808a168252336020830152881681830152606081018790526080810185905290517fa5cad00f6cd43f46392bc0d304ca28391cc0d3353c7a962e3da3d5dd0687a7839181900360a00190a15050600d805460ff19169055506001949350505050565b6001600160a01b03166000908152600860209081526040808320611cad845290915290205490565b6003546000906001600160a01b038381169116141561196c57506001611970565b600e546001600160a01b031681565b336000908152602081905260408120805483108015612c765750806000018381548110612c5c57fe5b600091825260209091206006909102015460ff1615156001145b15612df5576000816000018481548110612c8c57fe5b9060005260206000209060060201905042816003015411612d9957600080612cbc83600101548460020154614af1565b9092509050600160ff831614156104cf576000612cd9338861496f565b90508060ff16600114156104cf577fb74cbaf749b28f2b4d229cf1e55887e2f462a4f1db023cbe01b964657f63e247338887600301548860090160009054906101000a900460ff1688600101548960020154428b6003015460405180896001600160a01b03168152602001888152602001878152602001866002811115612d5c57fe5b81526020018581526020018481526020018381526020018281526020019850505050505050505060405180910390a1600495505050505050611970565b6003808301549082015460408051878152602081019390935242838201526060830191909152517f96e92bea059454ffd6caf596fce58c01caa1e03d961b12ad17c093f58492a2429181900360800190a1600192505050611970565b6000915050611970565b6001600160a01b03166000908152600b602052604090205460ff1690565b6005546001600160a01b031681565b6003546001600160a01b031615612e4257600080fd5b6001600160a01b038116612e5557600080fd5b6005546001600160a01b03163314612e6c57600080fd5b600380546001600160a01b0319166001600160a01b039283161790819055166000908152600460205260409020805460ff19166001179055565b600d546201000090046001600160a01b031681565b604080518082019091526004815263109194d560e21b602082015290565b6005546000906001600160a01b03163314156120d957600f54600160c81b900460ff16612f505750600f805460ff60c81b1960ff60c01b19909116600160c01b1716600160c81b1790556001600160a01b0381166000908152600860209081526040808320858452909152902083905560026114dd565b5060016114dd565b60065490565b60009081526007602052604090205490565b6003546001600160a01b031681565b6001600160a01b0382166000908152600b602052604081205460ff16158015612fc45750336000908152600860209081526040808320611cad84529091529020548211155b1561309e57336000908152600860209081526040808320611cad8452909152902054612ff090836114b1565b336000908152600860208181526040808420611cad808652908352818520959095556001600160a01b038816845291815281832093835292909252205461303790836114cb565b6001600160a01b0384166000818152600860209081526040808320611cad84528252918290209390935580518581529051919233927fddf252ad1be2c89b69c2b068fc378daa952ba7f163c4a11628f55a4df523b3ef9281900390910190a35060016114c5565b5060006114c5565b6001600160a01b038216600090815260208190526040812080548190849081106130cc57fe5b90600052602060002090600602016003015491505092915050565b600d5460009060ff16156130fa57600080fd5b600d805460ff19166001179055600654604080516020808201939093526001600160601b0319606088901b168183015281516034818303018152605490910182528051908301203360009081526008845282812082825290935291205483111561316357600080fd5b33600090815260086020908152604080832084845290915290205460609061318b90856114b1565b33600090815260086020908152604080832086845282528083209390935582517f7472616e7366657228616464726573732c75696e743235362c62797465732900818301528351808203601f018152603f82019094528351938201939093206001600160a01b0389811660638601908152608386018a9052606060a38701908152875160c388015287519396928d169487948d948d948b949093909260e390920191908501908083838d5b8381101561324e578181015183820152602001613236565b50505050905090810190601f16801561327b5780820380516001836020036101000a031916815260200191505b5060408051601f198184030181529181526020820180516001600160e01b03166001600160e01b031990991698909817885251815191979096508695509350915081905083835b602083106132e15780518252601f1990920191602091820191016132c2565b6001836020036101000a0380198251168184511680821785525050505050509050019150506000604051808303816000865af19150503d8060008114613343576040519150601f19603f3d011682016040523d82523d6000602084013e613348565b606091505b505060405163607705c560e11b81523360048201818152602483018a90526060604484019081528751606485015287519495508c946000946001600160a01b0387169463c0ee0b8a9490938e938c936084019060208501908083838d5b838110156133bd5781810151838201526020016133a5565b50505050905090810190601f1680156133ea5780820380516001836020036101000a031916815260200191505b50945050505050602060405180830381600087803b15801561340b57600080fd5b505af115801561341f573d6000803e3d6000fd5b505050506040513d602081101561343557600080fd5b50519050600181151514801561344d57506001831515145b156104cf57604080516001600160a01b03808d1682523360208301528b1681830152606081018a90526080810188905290517fa5cad00f6cd43f46392bc0d304ca28391cc0d3353c7a962e3da3d5dd0687a7839181900360a00190a15050600d805460ff19169055506001979650505050505050565b6001600160a01b03919091166000908152600860209081526040808320938352929052205490565b600d5460009060ff16156134fe57600080fd5b600d805460ff191660011790556001600160a01b0384166000908152600b602052604090205460ff161580156135505750336000908152600860209081526040808320611cad84529091529020548311155b156136f557336000908152600860209081526040808320611cad8452909152902054843b9061357f90856114b1565b336000908152600860208181526040808420611cad808652908352818520959095556001600160a01b038a1684529181528183209383529290925220546135c690856114cb565b6001600160a01b0386166000908152600860209081526040808320611cad845290915290205580156136ee5760405163607705c560e11b815233600482018181526024830187905260606044840190815286516064850152865189946001600160a01b0386169463c0ee0b8a9490938b938b9360840190602085019080838360005b83811015613660578181015183820152602001613648565b50505050905090810190601f16801561368d5780820380516001836020036101000a031916815260200191505b50945050505050602060405180830381600087803b1580156136ae57600080fd5b505af11580156136c2573d6000803e3d6000fd5b505050506040513d60208110156136d857600080fd5b50511515600114156104cf5760019250506136f3565b600191505b505b6001811515141561379857816040518082805190602001908083835b602083106137305780518252601f199092019160209182019101613711565b51815160209384036101000a60001901801990921691161790526040805192909401829003822089835293519395506001600160a01b038a16945033937fe19260aff97b920c7df27010903aeb9c8d2be5d310a2c67824cf3f15396e4c169350918290030190a45b600d805460ff191690559392505050565b336000908152600260205260409020805460ff19166001179055565b6001600160a01b03166000908152600c602052604090205460ff1690565b600d5460009060ff16156137f657600080fd5b600d805460ff191660011790556001600160a01b0384166000908152600b602052604090205460ff161561382957600080fd5b60008060048451106138ea578360008151811061384257fe5b602001015160f81c60f81b6001600160f81b03191660e01c60088560018151811061386957fe5b016020015186516001600160f81b031990911690911c60e01c906010908790600290811061389357fe5b016020015187516001600160f81b031990911690911c60e01c90601890889060039081106138bd57fe5b602001015160f81c60f81b6001600160f81b0319166001600160e01b031916901c60e01c01010160e01b90505b600f546001600160e01b0319828116600160a01b90920460e01b161415613a5f57600e546040805163963beef560e01b815233600482015290516001600160a01b0390921691600091839163963beef591602480820192602092909190829003018186803b15801561395b57600080fd5b505afa15801561396f573d6000803e3d6000fd5b505050506040513d602081101561398557600080fd5b5051905080613a53576139a561399e8760006008614b73565b6000614bf3565b935060006139b961399e8860086020614b73565b9050611cad851480156139cb57508115155b156139d557600080fd5b6001600160a01b0389166000908152600860209081526040808320888452909152902054613a0390826114cb565b6001600160a01b038a166000908152600860209081526040808320898452825280832093909355600790522054613a3a90826114cb565b6000868152600760205260409020555060019450613a58565b600194505b5050613b85565b600654604080516020808201939093523360601b8183015281516034818303018152605490910182528051908301206001600160a01b038916600090815260088452828120828252909352912054909250613aba90866114cb565b6001600160a01b038716600081815260086020908152604080832087845282529182902093909355600654815133815293840192909252828101889052606083019190915260808201849052517fd29c9c1edf8b9220246362c1b491f78a99a0b16914c5940aa7187d38328e3e5e9181900360a00190a1604080513381526001600160a01b03881660208201528082018790526060810184905290517f14199c6685f8c284290bf8ed968c57daafbfa067b251d6505610183c4a64ea179181900360800190a1600192505b60018315151415613c43577fcb28d23b9b47350cc324953920d36be23cb21648fd8e65e9fc444fd726562dd486868660405180846001600160a01b0316815260200183815260200180602001828103825283818151815260200191508051906020019080838360005b83811015613c06578181015183820152602001613bee565b50505050905090810190601f168015613c335780820380516001836020036101000a031916815260200191505b5094505050505060405180910390a15b5050600d805460ff191690559392505050565b6001600160a01b03831660009081526020819052604081208054831015613cd057806000018381548110613c8657fe5b600091825260208083206001600160a01b03881684526004600690930201919091019052604090205460ff16151560011415613cc65760029150506114dd565b60019150506114dd565b60009150506114dd565b3360009081526020819052604081208054831015612df5576000816000018481548110613d0357fe5b60009182526020909120600690910201805490915060ff16151560011415613d3d57600501805460ff191660011790555060029050611970565b600192505050611970565b600d54610100900460ff1681565b600d5460009060ff1615613d6957600080fd5b600d805460ff191660019081179182905561010090910460ff1615151415613dff5733600090815260086020908152604080832060065484529091529020548211613df657336000818152600a60205260408120805460ff1916600117905590613dd590309085613e3d565b905060018115151415613deb5760039150613df0565b600291505b50613dfa565b5060015b613e03565b5060005b600d805460ff19169055919050565b600f54600160c81b900460ff1681565b6001600160a01b031660009081526020819052604090205490565b600d5460009060ff1615613e5057600080fd5b600d805460ff1916600117905533600090815260086020908152604080832060065484529091529020548211613fe657833b80613e905760009150613fe0565b3360009081526008602090815260408083206006548452909152902054613eb790846114b1565b3360009081526008602090815260408083206006805485529083528184209490945592548252600790522054613eed90846114b1565b6006546000908152600760209081526040808320939093558251631d29c35760e01b81526001600160a01b03888116600483015260248201939093529251889392841692631d29c3579262011170928992604480820193929182900301818589803b158015613f5b57600080fd5b5088f1158015613f6f573d6000803e3d6000fd5b5050505050506040513d6020811015613f8757600080fd5b5051613f9257600080fd5b604080513381526001600160a01b038716602082015280820186905290517f68434ca28a3fbf4e499cad0131f6418189d48b362a6d0109f633ff6dc93b4e5e9181900360600190a160019250505b50613798565b506000600d805460ff191690559392505050565b336000908152600860209081526040808320611cad84529091528120546116858382611761565b600d5460009060ff161561403457600080fd5b600d805460ff19166001179055336000908152600860209081526040808320600654845290915290205482116118ae57823b8061407457600091506118a8565b336000908152600860209081526040808320600654845290915290205461409b90846114b1565b33600090815260086020908152604080832060068054855290835281842094909455925482526007905220546140d190846114b1565b6006546000908152600760205260408082209290925590516001600160a01b0386169061753090869084818181858888f193505050503d8060008114614133576040519150601f19603f3d011682016040523d82523d6000602084013e614138565b606091505b505060408051633d2cc23f60e21b60208083019190915282518083036004018152602483019384905263607705c560e11b9093523360288301818152604884018a90526060606885019081528551608886015285519697508b966000966001600160a01b0389169663c0ee0b8a968e959294929360a890920191908501908083838d5b838110156141d35781810151838201526020016141bb565b50505050905090810190601f1680156142005780820380516001836020036101000a031916815260200191505b50945050505050602060405180830381600087803b15801561422157600080fd5b505af1158015614235573d6000803e3d6000fd5b505050506040513d602081101561424b57600080fd5b50519050600183151514801561426357506001811515145b156104cf57604080513381526001600160a01b038916602082015280820188905290517f7ef890cc5c54793e049a0ab68ef15df470197800624f8951d63953148d8f5f2f9181900360600190a160019450505050506118b2565b6001600160a01b039182166000908152600960209081526040808320939094168252918252828120611cad8252909152205490565b6001600160a01b03166000908152600160209081526040808320611cad845290915290205490565b600080600061432985856146b4565b9092509050600160ff831614156104cf5733600090815260208181526040808320878452600781019092529091205461436290876114cb565b6000868152600783016020908152604091829020839055815189815290810188905280820192909252517f57d0c4a678c1b38e990b789db1ec449d1c028c21a5bcb0f249a9af074deb13269181900360600190a1600193505050506114c5565b33600090815260086020908152604080832086845290915281205485116115ed576001600160a01b0386166000908152600b602052604090205460ff16158061443557506001600160a01b0386166000908152600b602052604090205460ff161515600114801561443557506001831515145b1561458c57600f5460408051634a32bffb60e01b81523360048201526001600160a01b0389811660248301526044820189905260648201889052861515608483015285151560a4830152915191909216916000918391634a32bffb9160c480830192602092919082900301818787803b1580156144b157600080fd5b505af11580156144c5573d6000803e3d6000fd5b505050506040513d60208110156144db57600080fd5b50519050600360ff821614156145815733600090815260086020908152604080832089845290915290205461451090886114b1565b3360009081526008602081815260408084208b85528252808420949094556001600160a01b038c1683529081528282208983529052205461455190886114cb565b6001600160a01b03891660009081526008602090815260408083208a845290915290205550600391506145909050565b600292505050614590565b5060015b95945050505050565b600e546000906001600160a01b031633146145b357600080fd5b50600d80546001600160a01b038316620100000262010000600160b01b031961ff001990921661010017919091161790556001919050565b6001600160a01b0382166000908152602081905260408120805481908490811061461157fe5b90600052602060002090600602016002015491505092915050565b6001600160a01b0382166000908152602081905260408120805483101561167b574281600001848154811061465d57fe5b90600052602060002090600602016003015411156116715760029150506114c5565b611cad90565b600f54600160c01b900460ff1681565b3360009081526020818152604080832093835260069093019052205490565b33600090815260086020908152604080832084845290915281205481908411614773573360009081526008602090815260408083208684529091529020546146fc90856114b1565b33600081815260086020908152604080832088845282528083209490945591815260018252828120868252909152205461473690856114cb565b3360008181526001602081815260408084208985528252808420959095559282526008835283822087835290925291909120549092509050612344565b506000905080612344565b6001600160a01b038416600090815260208181526040808320858452600681019092528220546147ae90866114cb565b6000858152600683016020526040812091909155815460018101808455838352919083908381106147db57fe5b6000918252602090912060016006909202018181018990556002810188905560038101879055805460ff1916821781559150600984015460ff16600281111561482057fe5b146148525760098301805460ff1916600190811790915560001983016004850181905560058501556003840155614893565b600583018054600019840160008181526002870160209081526040808320859055938252600180890190915292902081905590915560038401805490910190555b506001979650505050505050565b6001600160a01b038416600090815260016020908152604080832084845290915281205481908411612672576001600160a01b03851660009081526001602090815260408083208684529091529020546148fb90856114cb565b6001600160a01b038087166000908152600160208181526040808420898552825280842095909555928a1682528252828120868252909152205461493f90856114b1565b6001600160a01b038716600090815260016020818152604080842088855290915290912082905592509050612679565b6001600160a01b03821660009081526020819052604081208054829082908590811061499757fe5b60009182526020909120600690910201805490915060ff1680156149d957506001600160a01b0385163314806149d95750805462010000900460ff1615156001145b15614ae657600382018054600019019055805460ff19168155600181015460028201546000908152600684016020526040902054614a16916114b1565b600282015460009081526006840160205260409020556004820154841415614a65578160050154841415614a4957614a60565b600084815260018301602052604090205460048301555b614ac2565b8160050154841415614a8c5760008481526002830160205260409020546005830155614ac2565b60008481526002830160208181526040808420546001870180845282862054808752948452828620829055908552909152909120555b6003820154614adb5760098201805460ff191660021790555b6001925050506114c5565b6000925050506114c5565b3360009081526001602090815260408083208484529091528120548190841161477357336000908152600860209081526040808320868452909152902054614b3990856114cb565b33600081815260086020908152604080832088845282528083209490945591815260018252828120868252909152205461473690856114b1565b606081830184511015614b8557600080fd5b606082158015614ba057604051915060208201604052614bea565b6040519150601f8416801560200281840101858101878315602002848b0101015b81831015614bd9578051835260209283019201614bc1565b5050858452601f01601f1916604052505b50949350505050565b60008160200183511015614c0657600080fd5b5001602001519056fea26469706673582212200100efd9f90cfb8aa54360282eb48a9a6b244d7bcb147916b3a8dbb21d5ba8d864736f6c63430007010033",
  "immutableReferences": {},
  "source": "// pragma experimental ABIEncoderV2;\n\npragma solidity ^0.7.1;\n//SPDX-License-Identifier: UNLICENSED\n\nimport './Libraries/SafeMath.sol';\nimport \"./Libraries/BytesLib.sol\";\n\nimport \"./Interfaces/IShyftKycContractRegistry.sol\";\nimport \"./Interfaces/IShyftKycContract.sol\";\nimport \"./Interfaces/IShyftCacheGraph.sol\";\n\nimport \"./ShyftSafe.sol\";\n\n\n//@note:@update: bloom filters are no longer how this functions.. it's now bit fields that are 100%\n// deterministic.\n\n// the size of the bloom filters below will determine the probability of any particular attestation bitmap to\n// be present in the filter at that location.\n\n// the attestations are mapped by the keccak hash of the totality of the attestation (thus there are only ever\n// one or zero elements set at the keccak hash'd map).\n// this is creating a correspondence between the attestation itself and another independant variable (the\n// keccak hash of the attestation) with a much lower cost of deletion (described below). This cost can even be\n// mitigated by keeping a uint8 as the result space of type of this mapping. hence enum {unknown, enabled, disabled}\n// can be used to change the remove the kyc record.\n\n//https://ethereum.stackexchange.com/questions/594/what-are-the-limits-to-gas-refunds\n\n// this lowered cost is found within the context of the attestation creation continuum. as the cost to add\n// an attestation with all of the resultant lookups (CAL) is much higher than the cost to removed a kyc record\n// from this lookup procedure (RAKL), the total expense is always RAKL - CAL. (R)\n// this R \"value store\" can be used to assist in the half-expense of creating new kyc records.\n// by deleting members en-mass (through a routing scheme within an enumerated listing for \"disabled\" records,\n// externally from the smart contract), the initial store can be performed with the deletion of other members,\n// the number of which deletions corresponding to the maximum gas refund that can be obtained from the creation\n// contract.\n\n// this can be handled in the trust anchor machinery itself, correlating to a \"smart\" update strategy\n// similarly this strategy can be applied to the Shyft Bridge, enabling cheaper bridging with other blockchains\n// that follow the same evm/evm cost specification.\n// similarly this strategy can applied to the cross blockchain attestation formats that Shyft may want to apply\n// to say, PolyMath tokens on the Ethereum blockchain.\n\n\n// common questions:\n// q: \"why do you use weird return orders what is your ocd miss\"\n// a: \"in order to produce the most legible return orders within the code, everything is documented and cross referenced.\n//    tldr; \"deal w/ it\"\n\n// it should be noted that all payable functions should utilize revert, as they are dealing with assets.\n\n\n\n/// @dev |\n///      | what's next:\n///      |\n///      | addresses that only accept kyc input should be able to receive packages by the bridge that are only kyc'd across byfrost.\n///      | ultimate accountability chain could be difficult, though a hash map of critical ipfs resources of chain data could suffice.\n///      | this would be the same issue as data accountability by trying to leverage multiple chains for data sales as well.\n///      |\n///      |\n\n\n\ncontract ShyftKycContract is ShyftSafe, IShyftKycContract {\n    //@note: due to https://github.com/trufflesuite/truffle-contract/issues/8\n    // events will not log from called contracts (in the attestation revocation call for instance).\n    // this allows for debugging internally.\n\n    //@note: from ShyftSafe, required for event logs that the Shyft Bridge uses in cross-chain transactions.\n//    event EVT_heldSafeBalanceForType(address _address, uint256 indexed amount, uint256 indexed bip32X_type, uint256 safeExpiryTime, uint256 indexed holdIndex);\n//    event EVT_freedSafeHold(address _address, uint256 holdIndex, uint256 numRemainingHolds, HoldStatus holdStatus, uint256 freedAmount, uint256 freedBip32X_type, uint256 currentBlockTime, uint256 safeExpiryTime);\n\n    event EVT_migrateToKycContract(address updatedShyftKycContractAddress, uint256 updatedContractBalance, address kycContractAddress, address to, uint256 _amount);\n    event EVT_migrateFromContract(uint256 totalSupplyBip32X, uint256 msgValue, uint256 thisBalance);\n//    event EVT_child_overload_doTransferSafeFunds(address fromAddress, address toAddress, uint256 amount, uint256 bip32X_type, uint256 curBalance);\n//    event EVT_child_overload_doHoldSafe(address _txOrigin, address _msgSender, uint256 amount, uint256 bip32X_type, uint256 curBalance);\n\n//    event EVT_receivedNativeBalance(address _from, uint256 _value);\n\n//    event EVT_receivedShyftTokens(address _from, uint256 _value, bytes _data);\n\n    //@note:@todo:@next: define \"user attested identity\" into specs\n    // it would be good to research the use of dynamic forward contracts.. another contract that has specifications\n    // internal to itself (via an interface for example) and could run arbitrary code based on a user supplying the\n    // address with the function call. might need to have 1 2 3 4 variable overloads on it for a variety of purposes\n    // this could be useful on the front end as another database could have the function names as strings and a\n    // web3 interface could inject that into the dynamic call structure.\n    //\n    // the rationale behind this is that other forms of attestation may rely on things like merkle tree proof\n    // equivalents of other blockchains, and custom code might need to be ran in order to compactify the available\n    // data into the users cache graph.\n    //\n    // #hassomethingtodowithshyftbridge\n\n    event EVT_WithdrawToAddress(address _from, address _to, uint256 _value);\n    event EVT_WithdrawToShyftKycContract(address _from, address _to, uint256 _value);\n    event EVT_WithdrawToExternalContract(address _from, address _to, uint256 _value);\n\n    event EVT_Bip32X_TypeTokenFallback(address msgSender, address _from, uint256 value, uint256 nativeTokenType, uint256 bip32X_type);\n\n    event EVT_TransferAndMintBip32X_type(address contractAddress, address msgSender, uint256 value, uint256 bip32X_type);\n    event EVT_TransferAndBurnBip32X_type(address contractAddress, address msgSender, address to, uint256 value, uint256 bip32X_type);\n\n    event EVT_TransferBip32X_type(address msgSender, address to, uint256 value, uint256 bip32X_type);\n\n    /* ERC223 events */\n    event EVT_Erc223TokenFallback(address _from, uint256 _value, bytes _data);\n\n    using SafeMath for uint256;\n\n    //@note:@here:@todo: this is erc20/223 compatible balances\n    // system should be backwards compatible, basic table:\n    // 0 = Bitcoin\n    //  ..\n    //  ..\n    // ShyftTokenType = SHFT\n    //bip32X_type->balance\n    mapping(uint256 => uint256) totalSupplyBip32X;\n    //address->bip32X_type->balance\n    mapping(address => mapping(uint256 => uint256)) balances;\n    //address->address->bip32X_type->balance\n    mapping(address => mapping(address => mapping(uint256 => uint256))) allowed;\n\n    mapping(address => bool) autoUpgradeEnabled;\n    mapping(address => bool) onlyAcceptsKycInput;\n    mapping(address => bool) lockOnlyAcceptsKycInputPermanently;\n\n    // mutex lock, prevent recursion in functions that use external function calls\n    bool locked;\n\n    // new variables needed for upgradability\n    bool public hasBeenUpdated;\n    address public updatedShyftKycContractAddress;\n    address public shyftKycContractRegistryAddress;\n\n    address public shyftCacheGraphAddress = address(0);\n\n    //signature for triggering 'tokenFallback' in erc223 receiver contracts\n    bytes4 constant shyftKycContractSig = bytes4(keccak256(\"fromShyftKycContract(address,address,uint256,uint256)\")); // function signature\n\n    bytes4 shyftKycContractTokenUpgradeSig = bytes4(keccak256(\"updateShyftToken(address,uint256,uint256)\")); // function signature\n\n    bool public byfrostOrigin;\n    bool public setByfrostOrigin;\n\n    /// @param _nativeBip32X_type The native Bip32X type of this network. Ethereum is 60, Shyft is 7341, etc.\n    /// @dev Invoke the constructor for ShyftSafe, which sets the owner and nativeBip32X_type class variables\n    constructor(uint256 _nativeBip32X_type) ShyftSafe(_nativeBip32X_type) {\n    }\n\n    /// @param _tokenAmount The amount of tokens to be allocated.\n    /// @param _bip32X_type The Bip32X type that represents the synthetic tokens that will be allocated.\n    /// @param _distributionContract The public address of the distribution contract, that the tokens are allocated for.\n    /// @dev Set by the owner, this functions sets it such that this contract was deployed on a Byfrost arm of the Shyft Network (on Ethereum for example). With this is a token grant that this contract should make to a specific distribution contract (ie. in the case of the initial Shyft Network launch, we have a small allocation originating on the Ethereum network).\n    /// @notice | for created kyc contracts on other chains, they can be instantiated with specific bip32X_type amounts\n    ///         | (for example, the shyft distribution contract on eth vs. shyft native)\n    ///         |  '  uint256 bip32X_type = uint256(keccak256(abi.encodePacked(nativeBip32X_type, _erc20ContractAddress)));\n    ///         |  '  bip32X_type = uint256(keccak256(abi.encodePacked(nativeBip32X_type, msg.sender)));\n    ///         | the bip32X_type is formed by the hash of the native bip32x type (which is unique per-platform, as it depends on\n    ///         | the deployed contract address) - byfrost only touches non-replay networks.\n    ///         | so the formula for the bip32X_type would be HASH [ byfrost main chain bip32X_type ] & [ byfrost main chain kyc contract address ]\n    ///         | these minted tokens are given to the distribution contract for further distribution. This is all this contract\n    ///         | needs to know about the distribution contract.\n    /// @return result\n    ///    | 2 = set byfrost as origin\n    ///    | 1 = already set byfrost origin\n    ///    | 0 = not owner\n\n    function setByfrostNetwork(uint256 _tokenAmount, uint256 _bip32X_type, address _distributionContract) public returns (uint8 result) {\n        if (msg.sender == owner) {\n            if (setByfrostOrigin == false) {\n                byfrostOrigin = true;\n                setByfrostOrigin = true;\n\n                balances[_distributionContract][_bip32X_type] = _tokenAmount;\n\n                //set byfrost as origin\n                return 2;\n            } else {\n                //already set\n                return 1;\n            }\n        } else {\n            //not owner\n            return 0;\n        }\n    }\n\n    /// @dev Set by the owner, this function sets it such that this contract was deployed on the primary Shyft Network. No further calls to setByfrostNetwork may be made.\n    /// @return result\n    ///    | 2 = set primary network\n    ///    | 1 = already set byfrost origin\n    ///    | 0 = not owner\n\n    function setPrimaryNetwork() public returns (uint8 result) {\n        if (msg.sender == owner) {\n            if (setByfrostOrigin == false) {\n                setByfrostOrigin = true;\n\n                //set primary network\n                return 2;\n            } else {\n                //already set byfrost origin\n                return 1;\n            }\n        } else {\n            //not owner\n            return 0;\n        }\n    }\n\n    /// @dev Removes the owner (creator of this contract)'s control completely. Functions such as linking the registry & cachegraph (& shyftSafe's setBridge), and importantly initializing this as a byfrost contract, are triggered by the owner, and as such a setting phase and afterwards triggering this function could be seen as a completely appropriate workflow.\n    function removeOwner() public returns (bool) {\n        require(msg.sender == owner);\n\n        owner = address(0);\n        return true;\n    }\n\n    /// @param _shyftCacheGraphAddress The smart contract address for the Shyft CacheGraph that should be linked.\n    /// @dev Links Shyft CacheGraph to this contract's function flow.\n    /// @return result\n    ///    | 0: not owner\n    ///    | 1: set shyft cache graph address\n\n    function setShyftCacheGraphAddress(address _shyftCacheGraphAddress) public returns (uint8 result) {\n        require(_shyftCacheGraphAddress != address(0));\n        if (owner == msg.sender) {\n            shyftCacheGraphAddress = _shyftCacheGraphAddress;\n\n            //cacheGraph contract address set\n            return 1;\n        } else {\n            //not owner\n            return 0;\n        }\n    }\n\n    /**************** Cache Graph Utilization ****************/\n\n    /// @param _identifiedAddress The public address for the recipient to send assets (tokens) to.\n    /// @param _amount The amount of assets that will be sent.\n    /// @param _bip32X_type The bip32X type of the assets that will be sent. These are synthetic (wrapped) assets, based on atomic locking.\n    /// @param _requiredConsentFromAllParties Whether to match the routing algorithm on the \"consented\" layer which indicates 2 way buy in of counterparty's attestation(s)\n    /// @param _payForDirty Whether the sender will pay the additional cost to unify a cachegraph's relationships (if not, it will not complete).\n    /// @dev | Performs a \"kyc send\", which is an automatic search between addresses for counterparty relationships within Trust Channels (whos rules dictate accessibility for auditing/enforcement/jurisdiction/etc.). If there is a match, the designated amount of assets is sent to the recipient.\n    ///      | As there are accessor methods to check whether or not the counterparty's cachegraph is \"dirty\", there is little need to pass a \"true\" unless the transaction is critical (eg. DeFi atomic flash wrap) and there is a chance that there will need to be a unification pass before the transaction can pass with full assurety.\n    /// @notice | If the recipient has flags set to indicate that they *only* want to receive assets from kyc sources, *all* of the regular transfer functions will block except this one, and this one only passes on success.\n    /// @return result\n    ///    | 0 = not enough balance to send\n    ///    | 1 = consent required\n    ///    | 2 = transfer cannot be processed due to transfer rules\n    ///    | 3 = successful transfer\n\n    //@note:@todo:@critical: create tests for permutations of onlyAcceptsKycInput, _requiredConsentFromAllParties, etc.\n    function kycSend(address _identifiedAddress, uint256 _amount, uint256 _bip32X_type, bool _requiredConsentFromAllParties, bool _payForDirty) public returns (uint8 result) {\n        if (balances[msg.sender][_bip32X_type] >= _amount) {\n            if (onlyAcceptsKycInput[_identifiedAddress] == false || (onlyAcceptsKycInput[_identifiedAddress] == true && _requiredConsentFromAllParties == true)) {\n                IShyftCacheGraph shyftCacheGraph = IShyftCacheGraph(shyftCacheGraphAddress);\n\n                uint8 kycCanSendResult = shyftCacheGraph.getKycCanSend(msg.sender, _identifiedAddress, _amount, _bip32X_type, _requiredConsentFromAllParties, _payForDirty);\n\n                //getKycCanSend return 3 = can transfer successfully\n                if (kycCanSendResult == 3) {\n                    balances[msg.sender][_bip32X_type] = balances[msg.sender][_bip32X_type].sub(_amount);\n                    balances[_identifiedAddress][_bip32X_type] = balances[_identifiedAddress][_bip32X_type].add(_amount);\n\n                    //successful transfer\n                    return 3;\n                } else {\n                    //transfer cannot be processed due to transfer rules\n                    return 2;\n                }\n            } else {\n                //consent required\n                return 1;\n            }\n        } else {\n            //not enough balance to send\n            return 0;\n        }\n    }\n\n    /**************** Shyft Safe ****************/\n\n    //@note:@here: these is from ShyftSafe.sol inheritance\n\n    ///@dev overload function for doHoldSafe, used by this contract's superclass - Shyft Safe. exchanges a users general balance for their safeBalance.\n    ///@notice The Shyft Safe rules are: if you have it, and you're asked to hold it, remove it from your supply and place it into Safe's. also, if you transfer a balance and have an issue, you should revert. this revert case is unnecessary in this implementation as there are simple binary checks for balance availability.\n\n\n\n\n    //returns\n    // 0 = could not hold : 0\n    // 1 = held : balance of this contract\n\n    function child_overload_doHoldSafe(uint256 _amount, uint256 _bip32X_type) internal override returns (uint8 result, uint256 remainingBalance) {\n\n//        emit EVT_child_overload_doHoldSafe(tx.origin, msg.sender, _amount, _bip32X_type, balances[tx.origin][_bip32X_type]);\n\n        if (balances[msg.sender][_bip32X_type] >= _amount) {\n            balances[msg.sender][_bip32X_type] = balances[msg.sender][_bip32X_type].sub(_amount);\n            safeBalances[msg.sender][_bip32X_type] = safeBalances[msg.sender][_bip32X_type].add(_amount);\n\n            //held : balance of this contract\n            return(1, balances[msg.sender][_bip32X_type]);\n        } else {\n            //could not hold : 0\n            return(0, 0);\n        }\n    }\n\n    //@note:@here: this is from ShyftSafe.sol inheritance\n    // basic rules are: if you have it, and you're asked to hold it, remove it from your safe and place it into free supply.\n\n    //returns:\n    // 0 = could not free\n    // 1 = freed\n    function child_overload_doFreeSafe(uint256 _amount, uint256 _bip32X_type) internal override returns (uint8 result, uint256 remainingBalance) {\n        if (safeBalances[msg.sender][_bip32X_type] >= _amount) {\n            balances[msg.sender][_bip32X_type] = balances[msg.sender][_bip32X_type].add(_amount);\n            safeBalances[msg.sender][_bip32X_type] = safeBalances[msg.sender][_bip32X_type].sub(_amount);\n\n            //freed\n            return(1, balances[msg.sender][_bip32X_type]);\n        } else {\n            //could not free\n            return(0, 0);\n        }\n    }\n\n    //@note:@here: this is from ShyftSafe.sol inheritance\n    // basic rules are: if you have it, and you're asked to transfer it, remove it from your safe and place it into another\n    // users safe address.\n\n    //returns:\n    // 0 = could not transfer\n    // 1 = transferred\n    function child_overload_doTransferSafeFunds(address _fromAddress, address _toAddress, uint256 _amount, uint256 _bip32X_type) internal override returns (uint8 result, uint256 remainingBalance) {\n\n//            emit EVT_child_overload_doTransferSafeFunds(_fromAddress, _toAddress, _amount, _bip32X_type, safeBalances[_fromAddress][_bip32X_type]);\n\n        if (safeBalances[_fromAddress][_bip32X_type] >= _amount) {\n            safeBalances[_toAddress][_bip32X_type] = safeBalances[_toAddress][_bip32X_type].add(_amount);\n            safeBalances[_fromAddress][_bip32X_type] = safeBalances[_fromAddress][_bip32X_type].sub(_amount);\n\n            //transferred\n            return(1, safeBalances[_fromAddress][_bip32X_type]);\n        } else {\n            //could not transfer\n            return(0, 0);\n        }\n    }\n\n    /**************** Shyft KYC balances, fallback, send, receive, and withdrawal ****************/\n\n\n    modifier mutex() {\n        if (locked) revert();\n        locked = true;\n        _;\n        locked = false;\n    }\n\n    // @note: in token related functions, we need to update which contract the user's tokens are in\n    // by calling registry contract and update tokenLocation[msg.sender]\n    // not sure if we need to implement in /every/ token function\n    // I think we would need to if tokens somehow end up being directly sent to this contract\n    // despite there being an updated one\n    // if all withdraws go through the registry, it should keep track of where the tokens are ok\n\n\n    // new function needed for upgradability\n    function updateContract(address _addr) public override returns (bool) {\n        require(msg.sender == shyftKycContractRegistryAddress);\n\n        //@note:@here:@critical:@internalaudit:@todo: maybe make this a one time thing?\n        hasBeenUpdated = true;\n        updatedShyftKycContractAddress = _addr;\n        return true;\n    }\n\n    // new function needed for upgradability\n    function setShyftKycContractRegistryAddress(address _addr) public returns (bool) {\n        require(msg.sender == owner);\n\n        shyftKycContractRegistryAddress = _addr;\n        return true;\n    }\n\n    function withdrawAllNative(address payable _to) public returns (uint) {\n        uint _bal = balances[msg.sender][ShyftTokenType];\n        withdrawNative(_to, _bal);\n        return _bal;\n    }\n\n    //gets balance for Shyft KYC token type & synthetics\n    function getBalanceBip32X(address _identifiedAddress, uint256 _bip32X_type) public view override returns (uint256 balance) {\n        return balances[_identifiedAddress][_bip32X_type];\n    }\n\n    function getTotalSupplyBip32X(uint256 _bip32X_type) public view returns (uint256 balance) {\n        return totalSupplyBip32X[_bip32X_type];\n    }\n\n    //fallback function applies value to Shyft KYC token type\n\n    // fallback runs out of gas when called by a contract\n    // limited to 2300 gas\n    // idk if this is implementation is sketchy due to the external call,\n    // but we need to move the tokens if the contract is updated\n\n    receive() external payable {\n        //@note: this is the auto-upgrade path, which is an opt-in service to the users to be able to send any or all tokens\n        // to an upgraded kycContract.\n        if (hasBeenUpdated && autoUpgradeEnabled[msg.sender]) {\n            //@note: to prevent tokens from ever getting \"stuck\", this contract can only send to itself in a very\n            // specific manner.\n            //\n            // for example, the \"withdrawNative\" function will output native fuel to a destination.\n            // If it was sent to this contract, this function will trigger and know that the msg.sender is\n            // the originating kycContract.\n\n            if (msg.sender != address(this)) {\n                // stop the process if the message sender has set a flag that only allows kyc input\n                require(onlyAcceptsKycInput[msg.sender] == false);\n\n                // burn tokens in this contract\n                uint256 existingSenderBalance = balances[msg.sender][nativeBip32X_type];\n\n                balances[msg.sender][nativeBip32X_type] = 0;\n                totalSupplyBip32X[nativeBip32X_type] = totalSupplyBip32X[nativeBip32X_type].sub(existingSenderBalance);\n\n                //~70k gas for the contract \"call\"\n                //and 90k gas for the value transfer within this.\n                // total = ~160k+checks gas to perform this transaction.\n                bool didTransferSender = migrateToKycContract(updatedShyftKycContractAddress, msg.sender, existingSenderBalance.add(msg.value));\n\n                if (didTransferSender == true) {\n\n                } else {\n                    //@note: reverts since a transactional event has occurred.\n                    revert();\n                }\n            } else {\n                //****************************************************************************************************//\n                //@note: This *must* be the only route where tx.origin has to matter.\n                //****************************************************************************************************//\n\n                // duplicating the logic here for higher deploy cost vs. lower transactional costs (consider user costs\n                // where all users would want to migrate)\n\n                // burn tokens in this contract\n                uint256 existingOriginBalance = balances[tx.origin][nativeBip32X_type];\n\n                balances[tx.origin][nativeBip32X_type] = 0;\n                totalSupplyBip32X[nativeBip32X_type] = totalSupplyBip32X[nativeBip32X_type].sub(existingOriginBalance);\n\n                //~70k gas for the contract \"call\"\n                //and 90k gas for the value transfer within this.\n                // total = ~160k+checks gas to perform this transaction.\n\n                //@note:@todo:@security:@next:@internalaudit:@test: the worst case for chaining here is that this migrate function calls the default function calls the\n                // migrate function etc. does this eat up all gas available etc up to block gas limit?\n                bool didTransferOrigin = migrateToKycContract(updatedShyftKycContractAddress, tx.origin, existingOriginBalance.add(msg.value));\n\n                if (didTransferOrigin == true) {\n\n                } else {\n                    //@note: reverts since a transactional event has occurred.\n                    revert();\n                }\n            }\n        } else {\n            //@note: never accept this contract sending raw value to this fallback function, unless explicit cases\n            // have been met.\n            //@note: public addresses do not count as kyc'd addresses\n            if (msg.sender != address(this) && onlyAcceptsKycInput[msg.sender]) {\n                revert();\n            }\n\n            balances[msg.sender][nativeBip32X_type] = balances[msg.sender][nativeBip32X_type].add(msg.value);\n            totalSupplyBip32X[nativeBip32X_type] = totalSupplyBip32X[nativeBip32X_type].add(msg.value);\n\n//            emit EVT_receivedNativeBalance(msg.sender, msg.value);\n        }\n    }\n\n    //@note: this function is called from the fallback to allocate tokens properly to the upgraded contract.\n    //\n    // flow:\n    // 1. registry contract is set up\n    // 2. upgrade is called by registry contract\n    // 3. calls to fallback looks to see if upgrade is set\n    // 4. if so it asks the registry for the current contract address\n    // 5. it then uses the \"migrateFromKycContract\", which on the receiver's end will update the _to address\n    //    passed in with the progression and now has the value from the \"migrateFromKycContract\"'s payable\n    //    and thus the native fuel, to back the token increase to the _to's account.\n\n    //results:\n    // false = transfer did not complete\n    // true = transfer complete\n\n    function migrateToKycContract(address _kycContractAddress, address _to, uint256 _amount) internal returns (bool result) {\n        // call upgraded contract so that tokens are forwarded to the new contract under _to's account.\n        IShyftKycContract updatedKycContract = IShyftKycContract(updatedShyftKycContractAddress);\n\n        emit EVT_migrateToKycContract(updatedShyftKycContractAddress, address(updatedShyftKycContractAddress).balance, _kycContractAddress, _to, _amount);\n\n        //sending to ShyftKycContracts only; migrateFromKycContract uses ~75830 - 21000 gas to execute,\n        // with a registry lookup\n        bool transferResult = updatedKycContract.migrateFromKycContract{value: _amount, gas: 70000}(_to, true);\n\n        if (transferResult == true) {\n            //transfer complete\n            return true;\n        } else {\n            //transfer did not complete\n            return false;\n        }\n    }\n\n    //results:\n    // 0 = kyc contract not in registry *reverts*\n    // 1 = transfer complete\n\n    function migrateFromKycContract(address _to, bool _onlyUseKycContract) public payable override returns (bool result) {\n        //@note: doing a very strict check to make sure no unwanted additional tokens can be created.\n        // the way this work is that this.balance is updated *before* this code runs.\n        // thus, as long as we've always updated totalSupplyBip32X when we've created or destroyed tokens, we'll\n        // always be able to check against this.balance.\n\n        //regarding an issue found:\n        //\"Smart contracts, though they may not expect it, can receive ether forcibly, or could be deployed at an\n        // address that already received some ether.\"\n        // from:\n        // \"require(totalSupplyBip32X[nativeBip32X_type].add(msg.value) == address(this).balance);\"\n        //\n        // the worst case scenario in some non-atomic calls (without going through withdrawToShyftKycContract for example)\n        // is that someone self-destructs a contract and forcibly sends ether to this address, before this is triggered by\n        // someone using it.\n\n        // solution:\n        // we cannot do a simple equality check for address(this).balance. instead, we use an less-than-or-equal-to, as\n        // when the worst case above occurs, the total supply of this synthetic will be less than the balance within this\n        // contract.\n\n        require(totalSupplyBip32X[nativeBip32X_type].add(msg.value) <= address(this).balance);\n\n        bool doContinue = true;\n\n        // check if only using a known kyc contract communication cycle, then verify the message sender is a kyc contract.\n        if (_onlyUseKycContract == true) {\n            if (IShyftKycContractRegistry(shyftKycContractRegistryAddress).isShyftKycContract(address(msg.sender)) == false) {\n                doContinue = false;\n            }\n        }\n\n        // block transfers if the recipient only allows kyc input\n        if (onlyAcceptsKycInput[_to] == true) {\n            doContinue = false;\n        }\n\n        if (doContinue == true) {\n            emit EVT_migrateFromContract(totalSupplyBip32X[nativeBip32X_type], msg.value, address(this).balance);\n\n            balances[_to][nativeBip32X_type] = balances[_to][nativeBip32X_type].add(msg.value);\n            totalSupplyBip32X[nativeBip32X_type] = totalSupplyBip32X[nativeBip32X_type].add(msg.value);\n\n            //transfer complete\n            return true;\n        } else {\n            //kyc contract not in registry\n            //@note: transactional event has occurred, so revert() is necessary\n            revert();\n            //return false;\n        }\n    }\n\n    //@note:@todo: add tests for this.\n\n    //returns:\n    // true = updated onlyAcceptsKycInput\n    // false = cannot modify onlyAcceptsKycInput, as it is locked permanently by user\n    function setOnlyAcceptsKycInput(bool _onlyAcceptsKycInputValue) public returns (bool result) {\n        if (lockOnlyAcceptsKycInputPermanently[msg.sender] == false) {\n            onlyAcceptsKycInput[msg.sender] = _onlyAcceptsKycInputValue;\n\n            //updated onlyAcceptsKycInput\n            return true;\n        } else {\n\n            //cannot modify onlyAcceptsKycInput, as it is locked permanently by user\n            return false;\n        }\n    }\n\n    //@note:@todo: add tests for this.\n\n    //returns:\n    // true = set lock for onlyAcceptsKycInput\n    // false = already set lock for onlyAcceptsKycInput\n    function setLockOnlyAcceptsKycInputPermanently() public returns (bool result) {\n        if (lockOnlyAcceptsKycInputPermanently[msg.sender] == false) {\n            lockOnlyAcceptsKycInputPermanently[msg.sender] = true;\n            //set lock for onlyAcceptsKycInput\n            return true;\n        } else {\n            //already set lock for onlyAcceptsKycInput\n            return false;\n        }\n    }\n\n    function getOnlyAcceptsKycInput(address _identifiedAddress) public view override returns (bool result) {\n        return onlyAcceptsKycInput[_identifiedAddress];\n    }\n\n    function getOnlyAcceptsKycInputPermanently(address _identifiedAddress) public view override returns (bool result) {\n        return lockOnlyAcceptsKycInputPermanently[_identifiedAddress];\n    }\n\n    /**************** Token Upgrades ****************/\n\n\n    //@note: upgrade the user's tokens by value. also sets auto-upgrade to be enabled.\n\n    //****************************************************************************************************************//\n    //@note: instead of explicitly returning, assign return value to variable  allows the code after the _;\n    // in the mutex modifier to be run!\n    //****************************************************************************************************************//\n\n    //returns:\n    // true = result of withdrawToShyftKycContract\n    // false = could not update\n\n    function upgradeNativeTokens(uint256 _value) mutex public returns (uint256 result) {\n        //check if it's been updated\n        if (hasBeenUpdated == true) {\n            //make sure the msg.sender has enough synthetic fuel to transfer\n            if (balances[msg.sender][nativeBip32X_type] >= _value) {\n                autoUpgradeEnabled[msg.sender] = true;\n\n                //then proceed to send to address(this) to initiate the autoUpgrade\n                // to the new contract.\n                bool withdrawResult = withdrawToShyftKycContract(address(this), msg.sender, _value);\n                if (withdrawResult == true) {\n                    result = 3;\n                } else {\n                    //could not withdraw\n                    result = 2;\n                }\n            } else {\n                //not enough balance\n                result = 1;\n            }\n        } else {\n            result = 0;\n        }\n    }\n\n    //@note: sets auto upgrade for msg.sender, for fallback functionality to upgrade tokens on receipt.\n    // the only reason a user would want to call this function is to modify behaviour *after* this\n    // contract has been updated, thus allowing choice.\n\n    function setAutoUpgrade(bool _autoUpgrade) public {\n        autoUpgradeEnabled[msg.sender] = _autoUpgrade;\n    }\n\n    /**************** Native withdrawal / transfer functions ****************/\n\n    //@note: this function withdraws the native fuel (Shyft fuel, Ether, et al) to an address.\n    // because of the transactional nature, this contract may \"revert\".\n\n    //returns:\n    // true = success\n    // false = failure\n\n    function withdrawNative(address payable _to, uint256 _value) mutex public override returns (bool ok) {\n        if (balances[msg.sender][nativeBip32X_type] >= _value) {\n            uint codeLength;\n\n            //retrieve the size of the code on target address, this needs assembly\n            assembly {\n                codeLength := extcodesize(_to)\n            }\n\n            //makes sure it's sending to a native (non-contract) address\n            if (codeLength == 0) {\n                balances[msg.sender][nativeBip32X_type] = balances[msg.sender][nativeBip32X_type].sub(_value);\n                totalSupplyBip32X[nativeBip32X_type] = totalSupplyBip32X[nativeBip32X_type].sub(_value);\n\n                //@note: this is going to a regular account. the existing balance has already been reduced,\n                // and as such the only thing to do is to send the actual Shyft fuel (or Ether, etc) to the\n                // target address.\n\n                _to.transfer(_value);\n\n                emit EVT_WithdrawToAddress(msg.sender, _to, _value);\n                ok = true;\n            } else {\n                ok = false;\n            }\n        } else {\n            ok = false;\n        }\n    }\n\n    //@note: only withdraws to erc223 compatible contracts.\n    //30000 gas limit\n\n    function withdrawToExternalContract(address _to, uint256 _value) mutex public override returns (bool ok) {\n        if (balances[msg.sender][nativeBip32X_type] >= _value) {\n            uint codeLength;\n//            bytes memory empty;\n\n            //retrieve the size of the code on target address, this needs assembly\n            assembly {\n                codeLength := extcodesize(_to)\n            }\n\n            //makes sure it's sending to a contract address\n            if (codeLength == 0) {\n                ok = false;\n            } else {\n                balances[msg.sender][nativeBip32X_type] = balances[msg.sender][nativeBip32X_type].sub(_value);\n                totalSupplyBip32X[nativeBip32X_type] = totalSupplyBip32X[nativeBip32X_type].sub(_value);\n\n                //this will fail when sending to contracts with fallback functions that consume more than 20000 gas\n\n                (bool success, ) = _to.call{value: _value, gas: 30000}(\"\");\n\n                IErc223ReceivingContract receiver = IErc223ReceivingContract(_to);\n                bool fallbackSuccess = receiver.tokenFallback(msg.sender, _value, abi.encodePacked(shyftKycContractSig));\n\n                if (success == true && fallbackSuccess == true) {\n                    emit EVT_WithdrawToExternalContract(msg.sender, _to, _value);\n\n                    ok = true;\n                } else {\n                    //@note:@here: needs revert() due to asset transactions already having occurred\n                    revert();\n                    //ok = false;\n                }\n\n            }\n        } else {\n            ok = false;\n        }\n    }\n\n    //@note:@critical:@todo: create tests for only accept kyc input path.\n    function withdrawToShyftKycContract(address _shyftKycContractAddress, address _to, uint256 _value) mutex public override returns (bool ok) {\n        if (balances[msg.sender][nativeBip32X_type] >= _value) {\n            uint codeLength;\n//            bytes memory empty;\n\n            //retrieve the size of the code on target address, this needs assembly\n            assembly {\n                codeLength := extcodesize(_shyftKycContractAddress)\n            }\n\n            //makes sure it's sending to a contract address\n            if (codeLength == 0) {\n                ok = false;\n            } else {\n                balances[msg.sender][nativeBip32X_type] = balances[msg.sender][nativeBip32X_type].sub(_value);\n                totalSupplyBip32X[nativeBip32X_type] = totalSupplyBip32X[nativeBip32X_type].sub(_value);\n\n                IShyftKycContract receivingShyftKycContract = IShyftKycContract(_shyftKycContractAddress);\n\n                // sending to ShyftKycContracts only; migrateFromKycContract uses ~75830 - 21000 gas to execute,\n                // with a registry lookup\n                if (receivingShyftKycContract.migrateFromKycContract{gas: 70000, value: _value}(_to, false) == false) {\n                    revert();\n                }\n\n                emit EVT_WithdrawToShyftKycContract(msg.sender, _to, _value);\n\n                ok = true;\n            }\n        } else {\n            ok = false;\n        }\n    }\n\n    /**************** ERC 223 receiver ****************/\n\n    function tokenFallback(address _from, uint _value, bytes memory _data) mutex public override returns (bool ok) {\n        // block transfers if the recipient only allows kyc input, check other factors\n        require(onlyAcceptsKycInput[_from] == false);\n\n        uint256 bip32X_type;\n\n        bytes4 tokenSig;\n\n        //make sure we have enough bytes to determine a signature\n        if (_data.length >= 4) {\n            tokenSig = bytes4(uint32(bytes4(bytes1(_data[3])) >> 24) + uint32(bytes4(bytes1(_data[2])) >> 16) + uint32(bytes4(bytes1(_data[1])) >> 8) + uint32(bytes4(bytes1(_data[0]))));\n        }\n\n        //@note: for token upgrades, honour exactly the first//any version //exactly one previous\n        //@note:@todo:@critical: shyftKycContractTokenUpgradeSig isn't used anywhere, this function is obviously not completely settled on.\n        if (tokenSig == shyftKycContractTokenUpgradeSig) {\n            IShyftKycContractRegistry registry = IShyftKycContractRegistry(shyftKycContractRegistryAddress);\n            uint256 senderVersion = registry.getContractVersionOfAddress(msg.sender);\n\n            //@note:@todo:@critical: fix this and figure out exactly what constraints are more desirable.\n            if (senderVersion == 0) {//}registry.getContractVersionOfAddress(address(this)) - 1) {\n                //@note: these are constructed with the transfer function\n\n                //            uint32 shyftId = BytesLib.toUint(BytesLib.slice(_data, 0, 8));\n                bip32X_type = BytesLib.toUint(BytesLib.slice(_data, 0, 8), 0);\n                uint256 value = BytesLib.toUint(BytesLib.slice(_data, 8, 32), 0);\n\n                //@note: only accept tokenized versions of the ShyftTokenType to come from the distribution contract\n                // anything else is going to pass through withdrawToShyftKycContract\n                if (bip32X_type == ShyftTokenType && senderVersion != 0) {\n                    //@note: revert since the originating contract (distribution) is not valid.\n                    revert();\n                }\n\n                balances[_from][bip32X_type] = balances[_from][bip32X_type].add(value);\n                totalSupplyBip32X[bip32X_type] = totalSupplyBip32X[bip32X_type].add(value);\n\n                ok = true;\n            } else {\n                ok = true;\n            }\n        } else {\n            //@note: for token indexing, we use higher range addressable space (256 bit integer).\n            // this guarantees practically infinite indexes.\n            //@note: using msg.sender in the keccak hash since msg.sender in this case (should) be the\n            // contract itself (and allowing this to be passed in, instead of using msg.sender, does not\n            // suffice as any contract could then call this fallback.\n            //\n            // thus, this fallback will not function properly with abstracted synthetics.\n            bip32X_type = uint256(keccak256(abi.encodePacked(nativeBip32X_type, msg.sender)));\n            balances[_from][bip32X_type] = balances[_from][bip32X_type].add(_value);\n\n            emit EVT_Bip32X_TypeTokenFallback(msg.sender, _from, _value, nativeBip32X_type, bip32X_type);\n            emit EVT_TransferAndMintBip32X_type(msg.sender, _from, _value, bip32X_type);\n\n            ok = true;\n        }\n\n        if (ok == true) {\n            emit EVT_Erc223TokenFallback(_from, _value, _data);\n        }\n    }\n\n    /**************** ERC 223/20 ****************/\n\n    //@note: all of the erc20/223 transfers only use the Shyft token; \"BFST\" 1:1 for Shyft mainnet tokens.\n    // Additionally, this contract is built so that when the totalSupply is asked for, much like transfer et al.,\n    // it only references the ShyftTokenType. For getting the native balance, you'd call getTotalSupplyBip32X\n\n    //gets balance for Shyft KYC token type\n    function balanceOf(address _who) public view override returns (uint) {\n        return balances[_who][ShyftTokenType];\n    }\n\n    function name() public pure returns (string memory _name) {\n        return \"Byfrost\";\n    }\n\n    function symbol() public pure returns (string memory _symbol) {\n        //@note: \"SFT\" is the 3 letter variant\n        return \"BFST\";\n    }\n\n    function decimals() public pure returns (uint8 _decimals) {\n        return 18;\n    }\n\n    function totalSupply() public view override returns (uint256 result) {\n        return getTotalSupplyBip32X(ShyftTokenType);\n    }\n\n    //for the following, we assume the transfer is only for [ShyftTokenType] tokens.\n    //@note: erc20 style, with erc20 style events\n    function transfer(address _to, uint256 _value) public override returns (bool ok) {\n        // block transfers if the recipient only allows kyc input, check other factors\n        if (onlyAcceptsKycInput[_to] == false && balances[msg.sender][ShyftTokenType] >= _value) {\n            balances[msg.sender][ShyftTokenType] = balances[msg.sender][ShyftTokenType].sub(_value);\n\n            balances[_to][ShyftTokenType] = balances[_to][ShyftTokenType].add(_value);\n\n            emit Transfer(msg.sender, _to, _value);\n\n            return true;\n        } else {\n            return false;\n        }\n    }\n\n    function transfer(address _to, uint _value, bytes memory data) mutex public override returns (bool ok) {\n        // block transfers if the recipient only allows kyc input, check other factors\n        if (onlyAcceptsKycInput[_to] == false && balances[msg.sender][ShyftTokenType] >= _value) {\n            uint codeLength;\n\n            //retrieve the size of the code on target address, this needs assembly\n            assembly {\n                codeLength := extcodesize(_to)\n            }\n\n            balances[msg.sender][ShyftTokenType] = balances[msg.sender][ShyftTokenType].sub(_value);\n\n            balances[_to][ShyftTokenType] = balances[_to][ShyftTokenType].add(_value);\n\n\n            if (codeLength > 0) {\n                IErc223ReceivingContract receiver = IErc223ReceivingContract(_to);\n                if (receiver.tokenFallback(msg.sender, _value, data) == true) {\n                    ok = true;\n                } else {\n                    //@note: must revert() due to asset transactions already having occurred.\n                    revert();\n                }\n            } else {\n                ok = true;\n            }\n        }\n\n        if (ok == true) {\n            emit Transfer(msg.sender, _to, _value, data);\n        }\n    }\n\n    function allowance(address _tokenOwner, address _spender) public view override returns (uint remaining) {\n       return allowed[_tokenOwner][_spender][ShyftTokenType];\n    }\n\n    //@note:@warning: this (standard) function known to have an issue.\n    function approve(address _spender, uint _tokens) public override returns (bool success) {\n        allowed[msg.sender][_spender][ShyftTokenType] = _tokens;\n\n        //user a has 20 tokens allowed from zero :: no incentive to frontrun\n\n        //user a has +2 tokens allowed from 20 :: frontrunning would deplete 20 and add 2 :: incentive there.\n\n        emit Approval(msg.sender, _spender, _tokens);\n\n        return true;\n    }\n\n    function transferFrom(address _from, address _to, uint _tokens) public override returns (bool success) {\n        // block transfers if the recipient only allows kyc input, check other factors\n        if (onlyAcceptsKycInput[_to] == false && allowed[_from][_to][ShyftTokenType] >= _tokens && balances[_from][ShyftTokenType] >= _tokens) {\n            allowed[_from][_to][ShyftTokenType] = allowed[_from][_to][ShyftTokenType].sub(_tokens);\n\n            balances[_from][ShyftTokenType] = balances[_from][ShyftTokenType].sub(_tokens);\n            balances[_to][ShyftTokenType] = balances[_to][ShyftTokenType].add(_tokens);\n\n            emit Transfer(_from, _to, _tokens);\n\n            return true;\n        } else {\n            return false;\n        }\n    }\n\n    /**************** Shyft Token Transfer [KycContract] ****************/\n\n    //@note: does a simple transfer between accounts within this smart contract.\n    // bip32X_type compatible.\n    function transferBip32X_type(address _to, uint256 _value, uint256 _bip32X_type) public returns (bool result) {\n        // block transfers if the recipient only allows kyc input\n        require(onlyAcceptsKycInput[_to] == false);\n        require(balances[msg.sender][_bip32X_type] >= _value);\n\n        balances[msg.sender][_bip32X_type] = balances[msg.sender][_bip32X_type].sub(_value);\n        balances[_to][_bip32X_type] = balances[_to][_bip32X_type].add(_value);\n\n        emit EVT_TransferBip32X_type(msg.sender, _to, _value, _bip32X_type);\n        return true;\n    }\n\n    /**************** Shyft Token Transfer [Erc223] ****************/\n\n    //@note: withdraws tokens to an external contract. burns internal token balance within this\n    // contract.\n    // bip32X_type compatible.\n    // erc223-compatible targets only.\n    function withdrawTokenBip32X_typeToErc223(address _erc223ContractAddress, address _to, uint256 _value) mutex public returns (bool ok) {\n        uint256 bip32X_type = uint256(keccak256(abi.encodePacked(nativeBip32X_type, _erc223ContractAddress)));\n\n        require(balances[msg.sender][bip32X_type] >= _value);\n\n        bytes memory empty;\n\n        balances[msg.sender][bip32X_type] = balances[msg.sender][bip32X_type].sub(_value);\n\n        bytes4 sig = bytes4(keccak256(abi.encodePacked(\"transfer(address,uint256,bytes)\")));\n        (bool success, ) = _erc223ContractAddress.call(abi.encodeWithSelector(sig, _to, _value, empty));\n\n        IErc223ReceivingContract receiver = IErc223ReceivingContract(_erc223ContractAddress);\n        bool fallbackSuccess = receiver.tokenFallback(msg.sender, _value, empty);\n\n        if (fallbackSuccess == true && success == true) {\n            emit EVT_TransferAndBurnBip32X_type(_erc223ContractAddress, msg.sender, _to, _value, bip32X_type);\n\n            ok = true;\n        } else {\n            //@note: reverts since a transactional event has occurred.\n            revert();\n        }\n    }\n\n    /**************** Shyft Token Transfer [Erc20] ****************/\n\n    //returns:\n    // false = not enough allowance\n    // true = transfer successful\n\n    function transferFromErc20Token(address _erc20ContractAddress, uint256 _value) mutex public returns (bool ok) {\n        require(_erc20ContractAddress != address(this));\n\n        // block transfers if the recipient only allows kyc input, check other factors\n        require(onlyAcceptsKycInput[msg.sender] == false);\n\n        IErc20 erc20Contract = IErc20(_erc20ContractAddress);\n\n        if (erc20Contract.allowance(msg.sender, address(this)) >= _value) {\n            bool transferFromResult = erc20Contract.transferFrom(msg.sender, address(this), _value);\n\n            if (transferFromResult == true) {\n                //@note: using _erc20ContractAddress in the keccak hash since _erc20ContractAddress will be where\n                // the tokens are created and managed.\n                //\n                // thus, this fallback will not function properly with abstracted synthetics (including this contract)\n                // hence the initial require() check above to prevent this behaviour.\n\n                uint256 bip32X_type = uint256(keccak256(abi.encodePacked(nativeBip32X_type, _erc20ContractAddress)));\n                balances[msg.sender][bip32X_type] = balances[msg.sender][bip32X_type].add(_value);\n\n                emit EVT_TransferAndMintBip32X_type(_erc20ContractAddress, msg.sender, _value, bip32X_type);\n\n                //transfer successful\n                ok = true;\n            } else {\n                //@note: reverts since a transactional event has occurred.\n                revert();\n            }\n        } else {\n            //not enough allowance\n        }\n    }\n\n    //@note: withdraws tokens to an external contract. burns internal token balance within this\n    // contract.\n    // bip32X_type compatible.\n    // erc20-compatible targets only.\n    function withdrawTokenBip32X_typeToErc20(address _erc20ContractAddress, address _to, uint256 _value) mutex public returns (bool ok) {\n        uint256 bip32X_type = uint256(keccak256(abi.encodePacked(nativeBip32X_type, _erc20ContractAddress)));\n\n        require(balances[msg.sender][bip32X_type] >= _value);\n\n        balances[msg.sender][bip32X_type] = balances[msg.sender][bip32X_type].sub(_value);\n\n        bytes4 sig = bytes4(keccak256(abi.encodePacked(\"transfer(address,uint256)\")));\n        (bool success, ) = _erc20ContractAddress.call(abi.encodeWithSelector(sig, _to, _value));\n\n        if (success == true) {\n            emit EVT_TransferAndBurnBip32X_type(_erc20ContractAddress, msg.sender, _to, _value, bip32X_type);\n\n            ok = true;\n        } else {\n            //@note: reverts since a transactional event has occurred.\n            revert();\n        }\n    }\n}\n",
  "sourcePath": "/opt/shyft-ta-node/contracts/ShyftKycContract.sol",
  "compiler": {
    "name": "solc",
    "version": "0.7.1+commit.f4a555be.Emscripten.clang"
  },
  "schemaVersion": "3.3.4",
  "updatedAt": "2021-09-16T18:34:16.360Z",
  "networkType": "ethereum",
  "devdoc": {
    "details": "|      | what's next:      |      | addresses that only accept kyc input should be able to receive packages by the bridge that are only kyc'd across byfrost.      | ultimate accountability chain could be difficult, though a hash map of critical ipfs resources of chain data could suffice.      | this would be the same issue as data accountability by trying to leverage multiple chains for data sales as well.      |      |",
    "kind": "dev",
    "methods": {
      "constructor": {
        "details": "Invoke the constructor for ShyftSafe, which sets the owner and nativeBip32X_type class variables",
        "params": {
          "_nativeBip32X_type": "The native Bip32X type of this network. Ethereum is 60, Shyft is 7341, etc."
        }
      },
      "kycSend(address,uint256,uint256,bool,bool)": {
        "details": "| Performs a \"kyc send\", which is an automatic search between addresses for counterparty relationships within Trust Channels (whos rules dictate accessibility for auditing/enforcement/jurisdiction/etc.). If there is a match, the designated amount of assets is sent to the recipient.      | As there are accessor methods to check whether or not the counterparty's cachegraph is \"dirty\", there is little need to pass a \"true\" unless the transaction is critical (eg. DeFi atomic flash wrap) and there is a chance that there will need to be a unification pass before the transaction can pass with full assurety.",
        "params": {
          "_amount": "The amount of assets that will be sent.",
          "_bip32X_type": "The bip32X type of the assets that will be sent. These are synthetic (wrapped) assets, based on atomic locking.",
          "_identifiedAddress": "The public address for the recipient to send assets (tokens) to.",
          "_payForDirty": "Whether the sender will pay the additional cost to unify a cachegraph's relationships (if not, it will not complete).",
          "_requiredConsentFromAllParties": "Whether to match the routing algorithm on the \"consented\" layer which indicates 2 way buy in of counterparty's attestation(s)"
        },
        "returns": {
          "result": "   | 0 = not enough balance to send    | 1 = consent required    | 2 = transfer cannot be processed due to transfer rules    | 3 = successful transfer"
        }
      },
      "removeOwner()": {
        "details": "Removes the owner (creator of this contract)'s control completely. Functions such as linking the registry & cachegraph (& shyftSafe's setBridge), and importantly initializing this as a byfrost contract, are triggered by the owner, and as such a setting phase and afterwards triggering this function could be seen as a completely appropriate workflow."
      },
      "setByfrostNetwork(uint256,uint256,address)": {
        "details": "Set by the owner, this functions sets it such that this contract was deployed on a Byfrost arm of the Shyft Network (on Ethereum for example). With this is a token grant that this contract should make to a specific distribution contract (ie. in the case of the initial Shyft Network launch, we have a small allocation originating on the Ethereum network).",
        "params": {
          "_bip32X_type": "The Bip32X type that represents the synthetic tokens that will be allocated.",
          "_distributionContract": "The public address of the distribution contract, that the tokens are allocated for.",
          "_tokenAmount": "The amount of tokens to be allocated."
        },
        "returns": {
          "result": "   | 2 = set byfrost as origin    | 1 = already set byfrost origin    | 0 = not owner"
        }
      },
      "setPrimaryNetwork()": {
        "details": "Set by the owner, this function sets it such that this contract was deployed on the primary Shyft Network. No further calls to setByfrostNetwork may be made.",
        "returns": {
          "result": "   | 2 = set primary network    | 1 = already set byfrost origin    | 0 = not owner"
        }
      },
      "setShyftCacheGraphAddress(address)": {
        "details": "Links Shyft CacheGraph to this contract's function flow.",
        "params": {
          "_shyftCacheGraphAddress": "The smart contract address for the Shyft CacheGraph that should be linked."
        },
        "returns": {
          "result": "   | 0: not owner    | 1: set shyft cache graph address"
        }
      },
      "tokenFallback(address,uint256,bytes)": {
        "details": "Standard ERC223 function that will handle incoming token transfers.",
        "params": {
          "_data": "Transaction metadata.",
          "_from": "Token sender address.",
          "_value": "Amount of tokens."
        }
      }
    },
    "version": 1
  },
  "userdoc": {
    "kind": "user",
    "methods": {
      "kycSend(address,uint256,uint256,bool,bool)": {
        "notice": "| If the recipient has flags set to indicate that they *only* want to receive assets from kyc sources, *all* of the regular transfer functions will block except this one, and this one only passes on success."
      },
      "setByfrostNetwork(uint256,uint256,address)": {
        "notice": "| for created kyc contracts on other chains, they can be instantiated with specific bip32X_type amounts         | (for example, the shyft distribution contract on eth vs. shyft native)         |  '  uint256 bip32X_type = uint256(keccak256(abi.encodePacked(nativeBip32X_type, _erc20ContractAddress)));         |  '  bip32X_type = uint256(keccak256(abi.encodePacked(nativeBip32X_type, msg.sender)));         | the bip32X_type is formed by the hash of the native bip32x type (which is unique per-platform, as it depends on         | the deployed contract address) - byfrost only touches non-replay networks.         | so the formula for the bip32X_type would be HASH [ byfrost main chain bip32X_type ] & [ byfrost main chain kyc contract address ]         | these minted tokens are given to the distribution contract for further distribution. This is all this contract         | needs to know about the distribution contract."
      }
    },
    "version": 1
  }
}