{
  "contractName": "ShyftProtocolValidatorAdministration",
  "abi": [
    {
      "inputs": [],
      "stateMutability": "nonpayable",
      "type": "constructor"
    },
    {
      "anonymous": false,
      "inputs": [
        {
          "indexed": false,
          "internalType": "address",
          "name": "_validator",
          "type": "address"
        }
      ],
      "name": "EVT_AddValidator",
      "type": "event"
    },
    {
      "anonymous": false,
      "inputs": [
        {
          "indexed": false,
          "internalType": "address",
          "name": "_admin",
          "type": "address"
        }
      ],
      "name": "EVT_AdminPromoted",
      "type": "event"
    },
    {
      "anonymous": false,
      "inputs": [
        {
          "indexed": false,
          "internalType": "address",
          "name": "_admin",
          "type": "address"
        }
      ],
      "name": "EVT_AdminRevoked",
      "type": "event"
    },
    {
      "anonymous": false,
      "inputs": [
        {
          "indexed": false,
          "internalType": "address",
          "name": "_admin",
          "type": "address"
        }
      ],
      "name": "EVT_PrimaryAdminAdded",
      "type": "event"
    },
    {
      "anonymous": false,
      "inputs": [
        {
          "indexed": false,
          "internalType": "address",
          "name": "_relayedSet",
          "type": "address"
        }
      ],
      "name": "EVT_RelaySet_SetRelayed",
      "type": "event"
    },
    {
      "anonymous": false,
      "inputs": [
        {
          "indexed": false,
          "internalType": "uint256",
          "name": "_recentBlocks",
          "type": "uint256"
        }
      ],
      "name": "EVT_RelayedOwnedSet_SetRecentBlocks",
      "type": "event"
    },
    {
      "anonymous": false,
      "inputs": [
        {
          "indexed": false,
          "internalType": "address",
          "name": "_relaySet",
          "type": "address"
        }
      ],
      "name": "EVT_RelayedOwnedSet_SetRelay",
      "type": "event"
    },
    {
      "anonymous": false,
      "inputs": [
        {
          "indexed": false,
          "internalType": "address",
          "name": "_validator",
          "type": "address"
        }
      ],
      "name": "EVT_RemoveValidator",
      "type": "event"
    },
    {
      "anonymous": false,
      "inputs": [
        {
          "indexed": false,
          "internalType": "address",
          "name": "_blockRewardContractAddress",
          "type": "address"
        }
      ],
      "name": "EVT_SetBlockRewardContractAddress",
      "type": "event"
    },
    {
      "anonymous": false,
      "inputs": [
        {
          "indexed": false,
          "internalType": "address",
          "name": "_ownedContractAddress",
          "type": "address"
        },
        {
          "indexed": false,
          "internalType": "address",
          "name": "_newOwnerAddress",
          "type": "address"
        }
      ],
      "name": "EVT_SetNewOwner",
      "type": "event"
    },
    {
      "anonymous": false,
      "inputs": [
        {
          "indexed": false,
          "internalType": "address",
          "name": "_votingRelaySetContractAddress",
          "type": "address"
        },
        {
          "indexed": false,
          "internalType": "address",
          "name": "_votingTargetRelayedSetContractAddress",
          "type": "address"
        }
      ],
      "name": "EVT_SetVotingRelaySetContractAddress",
      "type": "event"
    },
    {
      "inputs": [],
      "name": "blockRewardContractAddress",
      "outputs": [
        {
          "internalType": "address",
          "name": "",
          "type": "address"
        }
      ],
      "stateMutability": "view",
      "type": "function"
    },
    {
      "inputs": [
        {
          "internalType": "uint32",
          "name": "_proposalIndex",
          "type": "uint32"
        }
      ],
      "name": "changeCurrentAdminConfirmationThreshold",
      "outputs": [
        {
          "internalType": "uint8",
          "name": "result",
          "type": "uint8"
        }
      ],
      "stateMutability": "nonpayable",
      "type": "function"
    },
    {
      "inputs": [
        {
          "internalType": "address",
          "name": "_administratorAddress",
          "type": "address"
        }
      ],
      "name": "getAdminAccess",
      "outputs": [
        {
          "internalType": "enum Administrable.AdministratorAccess",
          "name": "result",
          "type": "uint8"
        }
      ],
      "stateMutability": "view",
      "type": "function"
    },
    {
      "inputs": [
        {
          "internalType": "uint32",
          "name": "_proposalIndex",
          "type": "uint32"
        }
      ],
      "name": "getAdminConfirmationProposal",
      "outputs": [
        {
          "internalType": "uint256",
          "name": "adminThreshold",
          "type": "uint256"
        },
        {
          "internalType": "uint256",
          "name": "endTime",
          "type": "uint256"
        },
        {
          "internalType": "bool",
          "name": "isCompleted",
          "type": "bool"
        }
      ],
      "stateMutability": "view",
      "type": "function"
    },
    {
      "inputs": [],
      "name": "getAdminConfirmationThreshold",
      "outputs": [
        {
          "internalType": "uint256",
          "name": "results",
          "type": "uint256"
        }
      ],
      "stateMutability": "view",
      "type": "function"
    },
    {
      "inputs": [],
      "name": "getNumAdminConfirmationProposals",
      "outputs": [
        {
          "internalType": "uint256",
          "name": "result",
          "type": "uint256"
        }
      ],
      "stateMutability": "view",
      "type": "function"
    },
    {
      "inputs": [],
      "name": "numAdministrators",
      "outputs": [
        {
          "internalType": "uint256",
          "name": "",
          "type": "uint256"
        }
      ],
      "stateMutability": "view",
      "type": "function"
    },
    {
      "inputs": [],
      "name": "owner",
      "outputs": [
        {
          "internalType": "address",
          "name": "",
          "type": "address"
        }
      ],
      "stateMutability": "view",
      "type": "function"
    },
    {
      "inputs": [
        {
          "internalType": "uint256",
          "name": "_newThreshold",
          "type": "uint256"
        }
      ],
      "name": "proposeChangeCurrentAdminConfirmationThreshold",
      "outputs": [
        {
          "internalType": "uint8",
          "name": "result",
          "type": "uint8"
        }
      ],
      "stateMutability": "nonpayable",
      "type": "function"
    },
    {
      "inputs": [],
      "name": "votingRelaySetContractAddress",
      "outputs": [
        {
          "internalType": "address",
          "name": "",
          "type": "address"
        }
      ],
      "stateMutability": "view",
      "type": "function"
    },
    {
      "inputs": [],
      "name": "votingTargetRelayedSetContractAddress",
      "outputs": [
        {
          "internalType": "address",
          "name": "",
          "type": "address"
        }
      ],
      "stateMutability": "view",
      "type": "function"
    },
    {
      "inputs": [
        {
          "internalType": "address",
          "name": "_validatorAddress",
          "type": "address"
        }
      ],
      "name": "isAdministrator",
      "outputs": [
        {
          "internalType": "bool",
          "name": "result",
          "type": "bool"
        }
      ],
      "stateMutability": "view",
      "type": "function"
    },
    {
      "inputs": [],
      "name": "getNumValidators",
      "outputs": [
        {
          "internalType": "uint256",
          "name": "result",
          "type": "uint256"
        }
      ],
      "stateMutability": "view",
      "type": "function"
    },
    {
      "inputs": [
        {
          "internalType": "address",
          "name": "_votingRelaySetContractAddress",
          "type": "address"
        }
      ],
      "name": "setVotingRelaySetContractAddress",
      "outputs": [
        {
          "internalType": "uint8",
          "name": "result",
          "type": "uint8"
        }
      ],
      "stateMutability": "nonpayable",
      "type": "function"
    },
    {
      "inputs": [
        {
          "internalType": "address",
          "name": "_blockRewardContractAddress",
          "type": "address"
        }
      ],
      "name": "setBlockRewardContractAddress",
      "outputs": [
        {
          "internalType": "uint8",
          "name": "result",
          "type": "uint8"
        }
      ],
      "stateMutability": "nonpayable",
      "type": "function"
    },
    {
      "inputs": [
        {
          "internalType": "address",
          "name": "_newAdministratorAddress",
          "type": "address"
        }
      ],
      "name": "setPrimaryAdministrator",
      "outputs": [
        {
          "internalType": "uint8",
          "name": "result",
          "type": "uint8"
        }
      ],
      "stateMutability": "nonpayable",
      "type": "function"
    },
    {
      "inputs": [
        {
          "internalType": "address",
          "name": "_newAdministratorAddress",
          "type": "address"
        }
      ],
      "name": "promoteAdministrator",
      "outputs": [
        {
          "internalType": "uint8",
          "name": "result",
          "type": "uint8"
        }
      ],
      "stateMutability": "nonpayable",
      "type": "function"
    },
    {
      "inputs": [
        {
          "internalType": "address",
          "name": "_revokeAdministratorAddress",
          "type": "address"
        }
      ],
      "name": "revokeAdministrator",
      "outputs": [
        {
          "internalType": "uint8",
          "name": "result",
          "type": "uint8"
        }
      ],
      "stateMutability": "nonpayable",
      "type": "function"
    },
    {
      "inputs": [
        {
          "internalType": "address",
          "name": "_validatorAddress",
          "type": "address"
        }
      ],
      "name": "addValidator",
      "outputs": [
        {
          "internalType": "uint8",
          "name": "result",
          "type": "uint8"
        }
      ],
      "stateMutability": "nonpayable",
      "type": "function"
    },
    {
      "inputs": [
        {
          "internalType": "address",
          "name": "_validatorAddress",
          "type": "address"
        }
      ],
      "name": "removeValidator",
      "outputs": [
        {
          "internalType": "uint8",
          "name": "result",
          "type": "uint8"
        }
      ],
      "stateMutability": "nonpayable",
      "type": "function"
    },
    {
      "inputs": [
        {
          "internalType": "address",
          "name": "_newOwnerAddress",
          "type": "address"
        }
      ],
      "name": "votingRelaySet_setOwner",
      "outputs": [
        {
          "internalType": "uint8",
          "name": "result",
          "type": "uint8"
        }
      ],
      "stateMutability": "nonpayable",
      "type": "function"
    },
    {
      "inputs": [
        {
          "internalType": "address",
          "name": "_newOwnerAddress",
          "type": "address"
        }
      ],
      "name": "votingTargetRelayedSet_setOwner",
      "outputs": [
        {
          "internalType": "uint8",
          "name": "result",
          "type": "uint8"
        }
      ],
      "stateMutability": "nonpayable",
      "type": "function"
    },
    {
      "inputs": [
        {
          "internalType": "address",
          "name": "_relaySet",
          "type": "address"
        }
      ],
      "name": "votingTargetRelayedSet_setRelay",
      "outputs": [
        {
          "internalType": "uint8",
          "name": "result",
          "type": "uint8"
        }
      ],
      "stateMutability": "nonpayable",
      "type": "function"
    },
    {
      "inputs": [
        {
          "internalType": "uint256",
          "name": "_recentBlocks",
          "type": "uint256"
        }
      ],
      "name": "votingTargetRelayedSet_setRecentBlocks",
      "outputs": [
        {
          "internalType": "uint8",
          "name": "result",
          "type": "uint8"
        }
      ],
      "stateMutability": "nonpayable",
      "type": "function"
    },
    {
      "inputs": [
        {
          "internalType": "address",
          "name": "_relayedSet",
          "type": "address"
        }
      ],
      "name": "votingRelaySet_setRelayed",
      "outputs": [
        {
          "internalType": "uint8",
          "name": "result",
          "type": "uint8"
        }
      ],
      "stateMutability": "nonpayable",
      "type": "function"
    }
  ],
  "bytecode": "0x60806040526002600055600780546001600160a01b0319908116909155600880548216905560098054909116905534801561003957600080fd5b506001805460008290556001600160a01b031990811633908117909116179055611f0d806100686000396000f3fe608060405234801561001057600080fd5b50600436106101725760003560e01c80637a303a9c116100de578063b3e48c1211610097578063cec7272911610071578063cec72729146103d7578063d9af51e3146103fd578063f284218a14610444578063f3e512d31461046a57610172565b8063b3e48c1214610371578063b877da8b1461038e578063b9568dd8146103b457610172565b80637a303a9c146103235780638da5cb5b1461032b57806391e2e25214610333578063a49b0f851461033b578063a97a426814610343578063b06f78011461034b57610172565b806340a141ff1161013057806340a141ff146102705780634402bba3146101ba57806349d22250146102965780634d238c8e146102b35780636b67a48f146102d95780636ee6e911146102fd57610172565b8062913af614610177578063064ad7c2146101ba5780630a2eb301146101f657806323dfe730146101ba5780632bd4353b146102305780633370426d14610256575b600080fd5b61019a6004803603602081101561018d57600080fd5b503563ffffffff16610472565b604080519384526020840192909252151582820152519081900360600190f35b6101e0600480360360208110156101d057600080fd5b50356001600160a01b03166104f9565b6040805160ff9092168252519081900360200190f35b61021c6004803603602081101561020c57600080fd5b50356001600160a01b0316610501565b604080519115158252519081900360200190f35b6101e06004803603602081101561024657600080fd5b50356001600160a01b0316610586565b61025e610709565b60408051918252519081900360200190f35b6101e06004803603602081101561028657600080fd5b50356001600160a01b031661070f565b6101e0600480360360208110156102ac57600080fd5b50356107de565b6101e0600480360360208110156102c957600080fd5b50356001600160a01b03166108d0565b6102e1610998565b604080516001600160a01b039092168252519081900360200190f35b6101e06004803603602081101561031357600080fd5b50356001600160a01b03166109a7565b61025e610b1f565b6102e1610b25565b61025e610b34565b6102e1610bae565b6102e1610bbd565b6101e06004803603602081101561036157600080fd5b50356001600160a01b0316610bcc565b6101e06004803603602081101561038757600080fd5b5035610beb565b6101e0600480360360208110156103a457600080fd5b50356001600160a01b0316610d28565b6101e0600480360360208110156103ca57600080fd5b503563ffffffff16610d41565b6101e0600480360360208110156103ed57600080fd5b50356001600160a01b0316610f08565b6104236004803603602081101561041357600080fd5b50356001600160a01b0316611074565b6040518082600281111561043357fe5b815260200191505060405180910390f35b6101e06004803603602081101561045a57600080fd5b50356001600160a01b0316611092565b61025e61121f565b600080600060068463ffffffff168154811061048a57fe5b90600052602060002090600302016000015460068563ffffffff16815481106104af57fe5b90600052602060002090600302016001015460068663ffffffff16815481106104d457fe5b6000918252602090912060026003909202010154919450925060ff1690509193909250565b60005b919050565b60085460408051633d73119560e01b81526001600160a01b038481166004830152915160009392909216918291633d731195916024808301926020929190829003018186803b15801561055357600080fd5b505afa158015610567573d6000803e3d6000fd5b505050506040513d602081101561057d57600080fd5b50519392505050565b604080517f736574426c6f636b526577617264436f6e747261637441646472657373000000602080830191909152606084901b6001600160601b031916603d830152825180830360310181526051909201909252805191012060015460009190829081906001600160a01b0316331480156106015750600354155b1561060f5760019150610676565b61061833610501565b1561067657600061062884611225565b9050600054811061063c5760019250610659565b60006106478561124a565b9050600054811061065757600193505b505b6001831515146106705760019450505050506104fc565b60019150505b600182151514156106fd57600980546001600160a01b0319166001600160a01b038716179055801515600114156106b2576106b083611400565b505b600954604080516001600160a01b039092168252517f37084ccac94d48b4af91997d03c8db1fc7aabf1024df4d90151395b8827b8c709181900360200190a1600293505050506104fc565b600093505050506104fc565b60065490565b60008061071b836114ff565b90508060ff16600314156107d757600854604080516340a141ff60e01b81526001600160a01b0386811660048301529151919092169182916340a141ff9160248082019260009290919082900301818387803b15801561077a57600080fd5b505af115801561078e573d6000803e3d6000fd5b5050604080516001600160a01b038816815290517ff24aaae359140e567d260ea436bc2becb8e1c556db4acd757e3d0b4b6a2bb4ee9350908190036020019150a15090506104fc565b90506104fc565b60006107e933610501565b156108c85760008211801561080057506003548211155b156108c05761080d611e32565b828152426202a30001602082019081526006805460018101825560009190915282517ff652222313e28459528d920b65115c16c04f3efc82aaedc97be59f3f377c0d3f60039092029182015590517ff652222313e28459528d920b65115c16c04f3efc82aaedc97be59f3f377c0d408201556040909101517ff652222313e28459528d920b65115c16c04f3efc82aaedc97be59f3f377c0d41909101805460ff19169115159190911790555060026104fc565b5060016104fc565b5060006104fc565b6000806108dc836116d3565b90508060ff16600214156107d75760085460408051632691c64760e11b81526001600160a01b038681166004830152915191909216918291634d238c8e9160248082019260009290919082900301818387803b15801561093b57600080fd5b505af115801561094f573d6000803e3d6000fd5b5050604080516001600160a01b038816815290517f725876689fb7edbc4d22794c3d0ce8eacecce965903ea1289d0afa42b75e4e6b9350908190036020019150a15090506104fc565b6007546001600160a01b031681565b60006109b233610501565b156108c857604080517f766f74696e6754617267657452656c617965645365745f73657452656c6179006020808301919091526001600160601b0319606086901b16603f83015282516033818403018152605390920190925280519101206000610a1b82611225565b9050600080548210610a2f57506001610a4c565b6000610a3a8461124a565b90506000548110610a4a57600191505b505b60018115151415610b13576008546040805163c805f68b60e01b81526001600160a01b03888116600483015291519190921691829163c805f68b9160248082019260009290919082900301818387803b158015610aa857600080fd5b505af1158015610abc573d6000803e3d6000fd5b50505050610ac984611400565b50604080516001600160a01b038816815290517f64176ab11e9ba8a9067190b8141941d73fdf1e1f57fce8ea0e0ac2396487a3e19181900360200190a160029450505050506104fc565b600193505050506104fc565b60005490565b6001546001600160a01b031681565b600854604080516348f1712960e11b815290516000926001600160a01b03169182916391e2e25291600480820192602092909190829003018186803b158015610b7c57600080fd5b505afa158015610b90573d6000803e3d6000fd5b505050506040513d6020811015610ba657600080fd5b505191505090565b6009546001600160a01b031681565b6008546001600160a01b031681565b600854600090610be5906001600160a01b031683611936565b92915050565b6000610bf633610501565b156108c8576000826040516020018080611eb2602691396026018281526020019150506040516020818303038152906040528051906020012090506000610c3c82611225565b9050600080548210610c5057506001610c6d565b6000610c5b8461124a565b90506000548110610c6b57600191505b505b60018115151415610b135760085460408051638c90ac0760e01b81526004810188905290516001600160a01b03909216918291638c90ac0791602480830192600092919082900301818387803b158015610cc657600080fd5b505af1158015610cda573d6000803e3d6000fd5b50505050610ce784611400565b506040805187815290517f389b1a4312e278d6dbc608f8a03b8bce10622f003bb4ca6388273bdc48b9bc909181900360200190a160029450505050506104fc565b600754600090610be5906001600160a01b031683611936565b6000610d4c33610501565b156108c85760065463ffffffff831610156108c05760035460068363ffffffff1681548110610d7757fe5b90600052602060002090600302016000015411610f005760068263ffffffff1681548110610da157fe5b600091825260209091206002600390920201015460ff16158015610de9575060068263ffffffff1681548110610dd357fe5b9060005260206000209060030201600101544211155b15610ef8576000826040516020018080611e90602291396022018263ffffffff1660e01b81526004019150506040516020818303038152906040528051906020012090506000610e3882611225565b9050600080548210610e4c57506001610e69565b6000610e578461124a565b90506000548110610e6757600191505b505b60018115151415610eec5760068563ffffffff1681548110610e8757fe5b906000526020600020906003020160000154600081905550600160068663ffffffff1681548110610eb457fe5b60009182526020909120600390910201600201805460ff1916911515919091179055610edf83611400565b50600593505050506104fc565b600493505050506104fc565b5060036104fc565b5060026104fc565b6000610f1333610501565b156108c857604080517f766f74696e6752656c61795365745f73657452656c61796564000000000000006020808301919091526001600160601b0319606086901b1660398301528251602d818403018152604d90920190925280519101206000610f7c82611225565b9050600080548210610f9057506001610fad565b6000610f9b8461124a565b90506000548110610fab57600191505b505b60018115151415610b13576007546040805163bd96567760e01b81526001600160a01b03888116600483015291519190921691829163bd9656779160248082019260009290919082900301818387803b15801561100957600080fd5b505af115801561101d573d6000803e3d6000fd5b5050505061102a84611400565b50604080516001600160a01b038816815290517f424a85288532f6185be6371969f0a1e636899006a9d50b04a9bc5fc050c064bd9181900360200190a160029450505050506104fc565b6001600160a01b031660009081526002602052604090205460ff1690565b604080517f736574566f74696e6752656c6179536574436f6e747261637441646472657373602080830191909152606084901b6001600160601b03191682840152825180830360340181526054909201909252805191012060015460009190829081906001600160a01b03163314801561110c5750600354155b1561111a5760019150611181565b61112333610501565b1561118157600061113384611225565b905060005481106111475760019250611164565b60006111528561124a565b9050600054811061116257600193505b505b60018315151461117b5760019450505050506104fc565b60019150505b600182151514156106fd57600780546001600160a01b0319166001600160a01b038716179055801515600114156111bd576111bb83611400565b505b6111c685611ab7565b50600754600854604080516001600160a01b03938416815292909116602083015280517fcdff6bb76b3d63a5a6785cd97b150e6b19880a6af5556ba3555c8a835530c8079281900390910190a1600293505050506104fc565b60035481565b60008061123183611dc9565b6000908152600460205260409020600201549392505050565b6009546000906001600160a01b03168161126384611dc9565b90506000826001600160a01b03166320199cce336040518263ffffffff1660e01b815260040180826001600160a01b0316815260200191505060206040518083038186803b1580156112b457600080fd5b505afa1580156112c8573d6000803e3d6000fd5b505050506040513d60208110156112de57600080fd5b505190506001600160a01b0381166112f35750335b6112fb610b34565b600083815260046020526040902060020154108015611382575060008281526004602090815260408083206001600160a01b038516845290915281205460ff16600381111561134657fe5b14806113825750600360008381526004602090815260408083206001600160a01b038616845290915290205460ff16600381111561138057fe5b145b156113e657600082815260046020818152604080842060028101805460019081019091556001600160a01b038716808752828552928620805460ff191682179055938352830180549384018155845292200180546001600160a01b03191690911790555b506000908152600460205260409020600201549392505050565b600061140b33610501565b156108c857600061141b83611dc9565b600081815260046020526040902060020154909150156114f55760005b6000828152600460205260409020600101548110156114b957600082815260046020526040812060018101805460039391908590811061147457fe5b60009182526020808320909101546001600160a01b031683528201929092526040019020805460ff191660018360038111156114ac57fe5b0217905550600101611438565b5060008181526004602052604081206114d791600190910190611e55565b600090815260046020526040812060029081019190915590506104fc565b60019150506104fc565b600061150a33610501565b156108c85760016001600160a01b03831660009081526002602081905260409091205460ff169081111561153a57fe5b14156108c057604080517f61646d696e697374726174696f6e5265766f636174696f6e566f7465000000006020808301919091526001600160601b0319606086901b16603c830152825160308184030181526050909201909252805191012060006115a482611225565b90506000805482106115b8575060016115d5565b60006115c38461124a565b905060005481106115d357600191505b505b600181151514156116c7576001600160a01b038516600090815260026020818152604092839020805460ff1916909217909155600380546000190190558151661c995d9bdad95960ca1b8183015242602780830191909152835180830390910181526047909101909252815191012061164d90611df8565b6000546003541015611675576002600354111561166f57600354600055611675565b60026000555b61167e83611400565b50604080516001600160a01b038716815290517f79830203ee788345fbc4b7afa193ed483738eaecd94975fa1fa50c09c9a5be1f9181900360200190a1600393505050506104fc565b600293505050506104fc565b60006116de33610501565b156108c85760016001600160a01b03831660009081526002602081905260409091205460ff169081111561170e57fe5b146108c057600260035410611883576040805173383937b6b7ba32a0b236b4b734b9ba3930ba37b960611b6020808301919091526001600160601b0319606086901b1660348301528251602881840301815260489092019092528051910120600061177882611225565b905060008054821061178c575060016117a9565b60006117978461124a565b905060005481106117a757600191505b505b60018115151415611877576001600160a01b0385166000908152600260205260409020805460ff191660019081179091556003805490910190556117ec83611400565b5061182f426040516020018080671c1c9bdb5bdd195960c21b81525060080182815260200191505060405160208183030381529060405280519060200120611df8565b604080516001600160a01b038716815290517f7f477eb04f5a964ab231fdc42872d9356c3010171ed2c961d9166f49239786979181900360200190a1600293505050506104fc565b600393505050506104fc565b6001600160a01b038216600090815260026020908152604091829020805460ff191660019081179091556003805490910190558151671c1c9bdb5bdd195960c21b818301524260288083019190915283518083039091018152604890910190925281519101206118f290611df8565b604080516001600160a01b038416815290517f7f477eb04f5a964ab231fdc42872d9356c3010171ed2c961d9166f49239786979181900360200190a15060026104fc565b600061194133610501565b15611aae57604080516f3232b632b3b0ba32a732bba7bbb732b960811b6020808301919091526001600160601b0319606087811b8216603085015286901b166044830152825160388184030181526058909201909252805191012060006119a782611225565b90506000805482106119bb575060016119d8565b60006119c68461124a565b905060005481106119d657600191505b505b60018115151415611aa257604080516313af403560e01b81526001600160a01b038781166004830152915188928316916313af403591602480830192600092919082900301818387803b158015611a2e57600080fd5b505af1158015611a42573d6000803e3d6000fd5b50505050611a4f84611400565b50604080516001600160a01b03808a1682528816602082015281517ffc5ba9aee4b11a7bac66bcf1037fa9e3e01c89c89887736a5d183d3579f7be32929181900390910190a16002945050505050610be5565b60019350505050610be5565b50600092915050565b600080829050806001600160a01b03166308f81b776040518163ffffffff1660e01b815260040160206040518083038186803b158015611af657600080fd5b505afa158015611b0a573d6000803e3d6000fd5b505050506040513d6020811015611b2057600080fd5b5051600880546001600160a01b0319166001600160a01b0392831617908190551615611dbf576008546040805163b7ab4db560e01b815290516001600160a01b0390921691606091839163b7ab4db591600480820192600092909190829003018186803b158015611b9057600080fd5b505afa158015611ba4573d6000803e3d6000fd5b505050506040513d6000823e601f3d908101601f191682016040526020811015611bcd57600080fd5b8101908080516040519392919084640100000000821115611bed57600080fd5b908301906020820185811115611c0257600080fd5b8251866020820283011164010000000082111715611c1f57600080fd5b82525081516020918201928201910280838360005b83811015611c4c578181015183820152602001611c34565b50505050905001604052505050905060005b8151811015611db2576002806000848481518110611c7857fe5b6020908102919091018101516001600160a01b031682528101919091526040016000205460ff166002811115611caa57fe5b1480611cf75750600060026000848481518110611cc357fe5b6020908102919091018101516001600160a01b031682528101919091526040016000205460ff166002811115611cf557fe5b145b15611daa57600160026000848481518110611d0e57fe5b6020908102919091018101516001600160a01b03168252810191909152604001600020805460ff19166001836002811115611d4557fe5b021790555060038054600101905581517f7f477eb04f5a964ab231fdc42872d9356c3010171ed2c961d9166f492397869790839083908110611d8357fe5b602002602001015160405180826001600160a01b0316815260200191505060405180910390a15b600101611c5e565b50600193505050506104fc565b60009150506104fc565b600554604080516020808201939093528082019390935280518084038201815260609093019052815191012090565b6005548160405160200180838152602001828152602001925050506040516020818303038152906040528051906020012060058190555050565b604051806060016040528060008152602001600081526020016000151581525090565b5080546000825590600052602060002090810190611e739190611e76565b50565b5b80821115611e8b5760008155600101611e77565b509056fe61646d696e436f6e6669726d6174696f6e5468726573686f6c6450726f706f73616c766f74696e6754617267657452656c617965645365745f736574526563656e74426c6f636b73a26469706673582212209ee1b215d3dde27f38bcc2bb2c327eb54477a668e6a26beebf7af2a9552beb3364736f6c63430007010033",
  "immutableReferences": {},
  "source": "pragma solidity ^0.7.1;\n//SPDX-License-Identifier: UNLICENSED\n\nimport \"../Interfaces/IShyftBlockRewardAdministration.sol\";\nimport \"../Interfaces/IOwned.sol\";\nimport \"../Interfaces/IBaseOwnedSet.sol\";\nimport \"../Interfaces/IRelaySet.sol\";\nimport \"../Interfaces/IRelayedOwnedSet.sol\";\nimport \"../Administrable.sol\";\n\n///@dev This contract mediates the voting process for new members into the validator set.\n\ncontract ShyftProtocolValidatorAdministration is Administrable {\n    event EVT_AddValidator(address _validator);\n    event EVT_RemoveValidator(address _validator);\n    event EVT_SetNewOwner(address _ownedContractAddress, address _newOwnerAddress);\n\n    event EVT_SetVotingRelaySetContractAddress(address _votingRelaySetContractAddress, address _votingTargetRelayedSetContractAddress);\n    event EVT_SetBlockRewardContractAddress(address _blockRewardContractAddress);\n\n    event EVT_RelayedOwnedSet_SetRelay(address _relaySet);\n    event EVT_RelayedOwnedSet_SetRecentBlocks(uint256 _recentBlocks);\n\n    event EVT_RelaySet_SetRelayed(address _relayedSet);\n\n    address public votingRelaySetContractAddress = address(0);\n    address public votingTargetRelayedSetContractAddress = address(0);\n    address public blockRewardContractAddress = address(0);\n\n    constructor() {\n        //@note: override Administrable's defaults NofM multi-sig administrators confirmation thresholds.\n        adminConfirmationThreshold = 1;\n\n        // set owner to message sender.\n        owner = msg.sender;\n    }\n\n    // the administrator in this case could be a delegate previously set within the block reward context.\n    function isAdministrator(address _validatorAddress) public view override returns (bool result) {\n        IBaseOwnedSet baseOwnedSet = IBaseOwnedSet(votingTargetRelayedSetContractAddress);\n        return baseOwnedSet.getIsValidator(_validatorAddress);\n    }\n\n    function getNumValidators() public view returns (uint256 result) {\n        IBaseOwnedSet baseOwnedSet = IBaseOwnedSet(votingTargetRelayedSetContractAddress);\n        return baseOwnedSet.getNumValidators();\n    }\n\n    // ------------------------------------------------------\n    // System linkage/setup\n\n    function setVotingRelaySetContractAddress(address _votingRelaySetContractAddress) public returns (uint8 result) {\n        bytes32 keyKeccak = keccak256(abi.encodePacked(\"setVotingRelaySetContractAddress\", _votingRelaySetContractAddress));\n\n        bool permittedToModify;\n        bool multiSigMode;\n\n        if (msg.sender == owner && numAdministrators == 0) {\n            permittedToModify = true;\n        } else if (isAdministrator(msg.sender)) {\n\n            uint256 numPermissions = getPermissionsForMultisignKey(keyKeccak);\n\n            if (numPermissions >= adminConfirmationThreshold) {\n                permittedToModify = true;\n            } else {\n                uint256 numConfirmedPermissions = adminApplyAndGetPermissionsForMultisignKey(keyKeccak);\n\n                if (numConfirmedPermissions >= adminConfirmationThreshold) {\n                    permittedToModify = true;\n                }\n            }\n\n            if (permittedToModify != true) {\n                //added vote to add validator\n                return 1;\n            } else {\n                multiSigMode = true;\n            }\n        }\n\n        if (permittedToModify == true) {\n            votingRelaySetContractAddress = _votingRelaySetContractAddress;\n\n            if (multiSigMode == true) {\n                adminResetPermissionsForMultisignKey(keyKeccak);\n            }\n\n            updateVotingRelayedSetContractAddress(_votingRelaySetContractAddress);\n\n            emit EVT_SetVotingRelaySetContractAddress(votingRelaySetContractAddress, votingTargetRelayedSetContractAddress);\n\n            //set voting relay set & target relayed set addresses\n            return 2;\n        } else {\n            //not permitted to modify voting relay set address\n            return 0;\n        }\n    }\n\n    function updateVotingRelayedSetContractAddress(address _votingRelaySetAddress) internal returns (uint8 result) {\n        IRelaySet relaySet = IRelaySet(_votingRelaySetAddress);\n\n        votingTargetRelayedSetContractAddress = relaySet.getRelayed();\n\n        if (votingTargetRelayedSetContractAddress != address(0)) {\n            IBaseOwnedSet baseOwnedSet = IBaseOwnedSet(votingTargetRelayedSetContractAddress);\n\n            address[] memory curValidators = baseOwnedSet.getValidators();\n\n            // add the existing administrators into the set. perform these actions manually (referencing Administrable),\n            // making sure to increment the internal numAdministrators.\n            for (uint i = 0; i < curValidators.length; i++) {\n                // check for administrator already in the set, if so don't add again.\n                if (administrators[curValidators[i]] == AdministratorAccess.Demoted ||\n                    administrators[curValidators[i]] == AdministratorAccess.Unknown) {\n\n                    administrators[curValidators[i]] = AdministratorAccess.Promoted;\n                    numAdministrators++;\n\n                    emit EVT_AdminPromoted(curValidators[i]);\n                }\n            }\n\n            // at this point, the \"RelayOwnedSet\" contract needs to \"setOwner\" (from BaseOwnedSet->OwnedSet)\n            // to this contract's deployed address. At that point, this contract can add/remove validators,\n            // or update the ownership of the \"RelayOwnedSet\" contract address.\n\n            //set updated voting relayed set contract address and updated validators\n            return 1;\n        } else {\n\n            //set voting relayed set contract, but the address was zero\n            return 0;\n        }\n    }\n\n    function setBlockRewardContractAddress(address _blockRewardContractAddress) public returns (uint8 result) {\n        bytes32 keyKeccak = keccak256(abi.encodePacked(\"setBlockRewardContractAddress\", _blockRewardContractAddress));\n\n        bool permittedToModify;\n        bool multiSigMode;\n\n        if (msg.sender == owner && numAdministrators == 0) {\n            permittedToModify = true;\n        } else if (isAdministrator(msg.sender)) {\n\n            uint256 numPermissions = getPermissionsForMultisignKey(keyKeccak);\n\n            if (numPermissions >= adminConfirmationThreshold) {\n                permittedToModify = true;\n            } else {\n                uint256 numConfirmedPermissions = adminApplyAndGetPermissionsForMultisignKey(keyKeccak);\n\n                if (numConfirmedPermissions >= adminConfirmationThreshold) {\n                    permittedToModify = true;\n                }\n            }\n\n            if (permittedToModify != true) {\n                //added vote to add validator\n                return 1;\n            } else {\n                multiSigMode = true;\n            }\n        }\n\n        if (permittedToModify == true) {\n            blockRewardContractAddress = _blockRewardContractAddress;\n\n            if (multiSigMode == true) {\n                adminResetPermissionsForMultisignKey(keyKeccak);\n            }\n\n            emit EVT_SetBlockRewardContractAddress(blockRewardContractAddress);\n\n            //successfully set block reward address\n            return 2;\n        } else {\n            //not permitted to modify block reward address\n            return 0;\n        }\n    }\n\n    /// @param _keyKeccak A hash to reference as the key/value vote subject.\n    /// @dev Applies an administrator's vote & updates the votes for a specific multisignature key/value object.\n    /// @notice Uses composition features (based on current validator set) so data structure may be orphaned when promotion/demotion events occur.\n    /// @notice Override's Administrator's base implementation\n    /// @return result\n    ///    | 0 = not administrator\n    ///    | 1 to numAdministrators = #confirmations\n\n    function adminApplyAndGetPermissionsForMultisignKey(bytes32 _keyKeccak) internal override returns (uint256 result) {\n        IShyftBlockRewardAdministration blockRewardAdmin = IShyftBlockRewardAdministration(blockRewardContractAddress);\n\n        bytes32 composedKeyKeccak = composeKeyKeccak(_keyKeccak);\n\n        address delegatedBenefactorAddress = blockRewardAdmin.getDelegatedBenefactorAddress(msg.sender);\n\n        // if not a delegate, use msg.sender\n        if (delegatedBenefactorAddress == address(0))\n            delegatedBenefactorAddress = msg.sender;\n\n        if (administratorMultisignPermissionedKeys[composedKeyKeccak].numConfirmations < getNumValidators() &&\n            (administratorMultisignPermissionedKeys[composedKeyKeccak].administratorSignatures[delegatedBenefactorAddress] == KeyPermissionAccess.Unknown ||\n            administratorMultisignPermissionedKeys[composedKeyKeccak].administratorSignatures[delegatedBenefactorAddress] == KeyPermissionAccess.Reset)) {\n            // increase permission level of the key, apply signature.\n            administratorMultisignPermissionedKeys[composedKeyKeccak].numConfirmations++;\n            administratorMultisignPermissionedKeys[composedKeyKeccak].administratorSignatures[delegatedBenefactorAddress] = KeyPermissionAccess.Signed;\n\n            administratorMultisignPermissionedKeys[composedKeyKeccak].administrators.push(delegatedBenefactorAddress);\n        }\n\n        //(one to the numAdministrators) #confirmations\n        return administratorMultisignPermissionedKeys[composedKeyKeccak].numConfirmations;\n    }\n\n    // override adding/removing administrators, as the underlying validator set obtained from\n    // setVotingRelaySetContractAddress() is considered the source of truth for the \"administrators\" in this\n    // contract's management context.\n\n    function setPrimaryAdministrator(address _newAdministratorAddress) public override returns (uint8 result) {        // override always halts additions of administrators\n        //override always halts setting of the primary administrator\n        return 0;\n    }\n\n    function promoteAdministrator(address _newAdministratorAddress) public override returns (uint8 result) {\n        //override always halts additions of administrators\n        return 0;\n    }\n\n    function revokeAdministrator(address _revokeAdministratorAddress) public override returns (uint8 result) {\n        //override always halts revocation of administrators\n        return 0;\n    }\n\n    // ------------------------------------------------------\n    // \"BaseOwnedSet\" multi-sig function relays\n\n    function addValidator(address _validatorAddress) public returns (uint8 result) {\n        uint8 promoteResult = super.promoteAdministrator(_validatorAddress);\n        if (promoteResult == 2) {\n            IBaseOwnedSet baseOwnedSet = IBaseOwnedSet(votingTargetRelayedSetContractAddress);\n\n            baseOwnedSet.addValidator(_validatorAddress);\n\n            emit EVT_AddValidator(_validatorAddress);\n\n            //successfully added validator\n            return promoteResult;\n        } else {\n            //either not validator or already validator\n          return promoteResult;\n        }\n    }\n\n    function removeValidator(address _validatorAddress) public returns (uint8 result) {\n        uint8 removeResult = super.revokeAdministrator(_validatorAddress);\n        if (removeResult == 3) {\n            IBaseOwnedSet baseOwnedSet = IBaseOwnedSet(votingTargetRelayedSetContractAddress);\n\n            baseOwnedSet.removeValidator(_validatorAddress);\n\n            emit EVT_RemoveValidator(_validatorAddress);\n\n            //successfully removed validator\n            return removeResult;\n        } else {\n            //either not validator or already validator.\n            return removeResult;\n        }\n    }\n\n    // ------------------------------------------------------\n    // \"IOwner\" multi-sig function relays\n\n    // these functions set up new Owners for the [voting relay], and [voting target set] contracts.\n    // this can only be done *after* calling setOwner([this contract's address]) from the contracts.\n\n    function votingRelaySet_setOwner(address _newOwnerAddress) public returns (uint8 result) {\n        return delegateNewOwner(votingRelaySetContractAddress, _newOwnerAddress);\n    }\n\n    function votingTargetRelayedSet_setOwner(address _newOwnerAddress) public returns (uint8 result) {\n        return delegateNewOwner(votingTargetRelayedSetContractAddress, _newOwnerAddress);\n    }\n\n    function delegateNewOwner(address _ownedContractAddress, address _newOwnerAddress) internal returns (uint8 result) {\n        if (isAdministrator(msg.sender)) {\n            bytes32 keyKeccak = keccak256(abi.encodePacked(\"delegateNewOwner\", _ownedContractAddress, _newOwnerAddress));\n\n            uint256 numPermissions = getPermissionsForMultisignKey(keyKeccak);\n\n            bool permittedToModify;\n\n            if (numPermissions >= adminConfirmationThreshold) {\n                permittedToModify = true;\n            } else {\n                uint256 numConfirmedPermissions = adminApplyAndGetPermissionsForMultisignKey(keyKeccak);\n\n                if (numConfirmedPermissions >= adminConfirmationThreshold) {\n                    permittedToModify = true;\n                }\n            }\n\n            if (permittedToModify == true) {\n                IOwned owned = IOwned(_ownedContractAddress);\n\n                owned.setOwner(_newOwnerAddress);\n\n                adminResetPermissionsForMultisignKey(keyKeccak);\n\n                emit EVT_SetNewOwner(_ownedContractAddress, _newOwnerAddress);\n\n                //added validator\n                return 2;\n            } else {\n                //added vote to add validator\n                return 1;\n            }\n        } else {\n            //not validator\n            return 0;\n        }\n    }\n\n    // ------------------------------------------------------\n    // \"IRelayedOwnedSet\" and \"IBaseOwnedSet\" multi-sig function relays\n\n    function votingTargetRelayedSet_setRelay(address _relaySet) external returns (uint8 result) {\n        if (isAdministrator(msg.sender)) {\n            bytes32 keyKeccak = keccak256(abi.encodePacked(\"votingTargetRelayedSet_setRelay\", _relaySet));\n\n            uint256 numPermissions = getPermissionsForMultisignKey(keyKeccak);\n\n            bool permittedToModify;\n\n            if (numPermissions >= adminConfirmationThreshold) {\n                permittedToModify = true;\n            } else {\n                uint256 numConfirmedPermissions = adminApplyAndGetPermissionsForMultisignKey(keyKeccak);\n\n                if (numConfirmedPermissions >= adminConfirmationThreshold) {\n                    permittedToModify = true;\n                }\n            }\n\n            if (permittedToModify == true) {\n                IRelayedOwnedSet relayedOwnedSet = IRelayedOwnedSet(votingTargetRelayedSetContractAddress);\n\n                relayedOwnedSet.setRelay(_relaySet);\n\n                adminResetPermissionsForMultisignKey(keyKeccak);\n\n                emit EVT_RelayedOwnedSet_SetRelay(_relaySet);\n\n                //set relay set\n                return 2;\n            } else {\n                //added vote to add validator\n                return 1;\n            }\n        } else {\n            //not validator\n            return 0;\n        }\n    }\n\n    function votingTargetRelayedSet_setRecentBlocks(uint256 _recentBlocks) external returns (uint8 result) {\n        if (isAdministrator(msg.sender)) {\n            bytes32 keyKeccak = keccak256(abi.encodePacked(\"votingTargetRelayedSet_setRecentBlocks\", _recentBlocks));\n\n            uint256 numPermissions = getPermissionsForMultisignKey(keyKeccak);\n\n            bool permittedToModify;\n\n            if (numPermissions >= adminConfirmationThreshold) {\n                permittedToModify = true;\n            } else {\n                uint256 numConfirmedPermissions = adminApplyAndGetPermissionsForMultisignKey(keyKeccak);\n\n                if (numConfirmedPermissions >= adminConfirmationThreshold) {\n                    permittedToModify = true;\n                }\n            }\n\n            if (permittedToModify == true) {\n                IBaseOwnedSet baseOwnedSet = IBaseOwnedSet(votingTargetRelayedSetContractAddress);\n\n                baseOwnedSet.setRecentBlocks(_recentBlocks);\n\n                adminResetPermissionsForMultisignKey(keyKeccak);\n\n                emit EVT_RelayedOwnedSet_SetRecentBlocks(_recentBlocks);\n\n                //set recent blocks\n                return 2;\n            } else {\n                //added vote to add validator\n                return 1;\n            }\n        } else {\n            //not validator\n            return 0;\n        }\n    }\n\n    // ------------------------------------------------------\n    // \"IRelaySet\" multi-sig function relays\n\n    function votingRelaySet_setRelayed(address _relayedSet) external returns (uint8 result) {\n        if (isAdministrator(msg.sender)) {\n            bytes32 keyKeccak = keccak256(abi.encodePacked(\"votingRelaySet_setRelayed\", _relayedSet));\n\n            uint256 numPermissions = getPermissionsForMultisignKey(keyKeccak);\n\n            bool permittedToModify;\n\n            if (numPermissions >= adminConfirmationThreshold) {\n                permittedToModify = true;\n            } else {\n                uint256 numConfirmedPermissions = adminApplyAndGetPermissionsForMultisignKey(keyKeccak);\n\n                if (numConfirmedPermissions >= adminConfirmationThreshold) {\n                    permittedToModify = true;\n                }\n            }\n\n            if (permittedToModify == true) {\n                IRelaySet relaySet = IRelaySet(votingRelaySetContractAddress);\n\n                relaySet.setRelayed(_relayedSet);\n\n                adminResetPermissionsForMultisignKey(keyKeccak);\n\n                emit EVT_RelaySet_SetRelayed(_relayedSet);\n\n                //set relayed set\n                return 2;\n            } else {\n                //added vote to add validator\n                return 1;\n            }\n        } else {\n            //not validator\n            return 0;\n        }\n    }\n}\n",
  "sourcePath": "/opt/shyft-ta-node/contracts/ProtocolVoting/ShyftProtocolValidatorAdministration.sol",
  "compiler": {
    "name": "solc",
    "version": "0.7.1+commit.f4a555be.Emscripten.clang"
  },
  "schemaVersion": "3.3.4",
  "updatedAt": "2021-09-16T18:31:15.398Z",
  "devdoc": {
    "details": "This contract mediates the voting process for new members into the validator set.",
    "kind": "dev",
    "methods": {
      "changeCurrentAdminConfirmationThreshold(uint32)": {
        "details": "| This function takes in an index for a proposal ot change the current administrator confirmation threshold.      | Uses Multi-signature permissions.",
        "params": {
          "_proposalIndex": "The index for a specific proposal to change the current administrator confirmation threshold."
        },
        "returns": {
          "result": "   | 0 = not an administrator    | 1 = invalid proposal index    | 2 = not enough administrators to achieve confirmation threshold    | 3 = proposal has expired    | 4 = not enough administrators have permissioned change    | 5 = admin confirmation threshold set"
        }
      },
      "getAdminAccess(address)": {
        "details": "Gets the level of access for a specific administrator.",
        "returns": {
          "result": "the level of access for this administrator"
        }
      },
      "getAdminConfirmationProposal(uint32)": {
        "details": "Gets the components of a specific NofM change proposal.",
        "params": {
          "_proposalIndex": "A proposal index"
        },
        "returns": {
          "adminThreshold": "the threshold of the NofM voting within this proposal",
          "endTime": "the end time of this proposal, after which it cannot be voted on",
          "isCompleted": "whether this proposal has been completed by multisig parties"
        }
      },
      "getAdminConfirmationThreshold()": {
        "details": "Gets the NofM threshold currently required for passing multisig votes.",
        "returns": {
          "results": "the current NofM threshold"
        }
      },
      "getNumAdminConfirmationProposals()": {
        "details": "Gets the number of a specific NofM change proposal.",
        "returns": {
          "result": "the number of a specific NofM proposals"
        }
      },
      "promoteAdministrator(address)": {
        "details": "| Promotes a new administrator. If there is only a primary Administrator set, this will allow the addition of the second administrator and enable multisignature requirements for any actions of this contract (or those inheriting it).      | Uses Multi-signature permissions if there is more than one Administrator onboarded.",
        "params": {
          "_newAdministratorAddress": "The new Administrator's public address."
        },
        "returns": {
          "result": "   | 0 = not administrator    | 1 = administrator already promoted    | 2 = new administrator promoted    | 3 = added vote to promote administrator"
        }
      },
      "proposeChangeCurrentAdminConfirmationThreshold(uint256)": {
        "details": "This function proposes a change to the threshold of voting required (N signatories of M total set size = NofM). To prevent stale inattention results, timeout after 2 days.",
        "params": {
          "_newThreshold": "The new threshold (N of M multisig) that is needed to be passed."
        },
        "returns": {
          "result": "   | 0 = not an administrator    | 1 = not enough administrators to achieve confirmation threshold    | 2 = new proposal added"
        }
      },
      "revokeAdministrator(address)": {
        "details": "| Revokes an existing administrator from the multisignature set, checks to see if the # of required votes would be higher then the administrator set size, and if so adjusts to match.      | Uses Multi-signature permissions if there is more than one Administrator onboarded.",
        "params": {
          "_revokeAdministratorAddress": "An existing Administrator's public address."
        },
        "returns": {
          "result": "result"
        }
      },
      "setPrimaryAdministrator(address)": {
        "details": "Sets the primary Administrator for this contract (or those that inherit from it). This transfers ownership of this contracts first administration duties (to find and onboard a second party for multisignature requirements) to the set Administrator's public address.",
        "params": {
          "_newAdministratorAddress": "The new Administrator's public address."
        },
        "returns": {
          "result": "   | 0 = not owner    | 1 = already set first administrator    | 2 = setup first administrator"
        }
      }
    },
    "version": 1
  },
  "userdoc": {
    "kind": "user",
    "methods": {
      "changeCurrentAdminConfirmationThreshold(uint32)": {
        "notice": "Multiple proposals can be constructed for different sets to apply to change the administrator threshold. As the permissions for multisig keys use a voting set nonce underneath the hood, a change in the current administrator set will cancel all current votes."
      },
      "promoteAdministrator(address)": {
        "notice": "| Uses composition features (based on current validator set) so data structure may be orphaned when promotion/demotion events occur.         | Whenever this function is called (with a passing vote), there will be a re-hashing of the voting set nonce, so all current votes will become invalidated."
      },
      "revokeAdministrator(address)": {
        "notice": "| Uses composition features (based on current validator set) so data structure may be orphaned when promotion/demotion events occur.         | Whenever this function is called (with a passing vote), there will be a re-hashing of the voting set nonce, so all current votes will become invalidated."
      }
    },
    "version": 1
  }
}