{
  "contractName": "ShyftKycContractRegistry",
  "abi": [
    {
      "inputs": [],
      "stateMutability": "nonpayable",
      "type": "constructor"
    },
    {
      "anonymous": false,
      "inputs": [
        {
          "indexed": false,
          "internalType": "address",
          "name": "_admin",
          "type": "address"
        }
      ],
      "name": "EVT_AdminPromoted",
      "type": "event"
    },
    {
      "anonymous": false,
      "inputs": [
        {
          "indexed": false,
          "internalType": "address",
          "name": "_admin",
          "type": "address"
        }
      ],
      "name": "EVT_AdminRevoked",
      "type": "event"
    },
    {
      "anonymous": false,
      "inputs": [
        {
          "indexed": false,
          "internalType": "address",
          "name": "_admin",
          "type": "address"
        }
      ],
      "name": "EVT_PrimaryAdminAdded",
      "type": "event"
    },
    {
      "inputs": [
        {
          "internalType": "uint32",
          "name": "_proposalIndex",
          "type": "uint32"
        }
      ],
      "name": "changeCurrentAdminConfirmationThreshold",
      "outputs": [
        {
          "internalType": "uint8",
          "name": "result",
          "type": "uint8"
        }
      ],
      "stateMutability": "nonpayable",
      "type": "function"
    },
    {
      "inputs": [
        {
          "internalType": "uint256",
          "name": "",
          "type": "uint256"
        }
      ],
      "name": "contracts",
      "outputs": [
        {
          "internalType": "address",
          "name": "",
          "type": "address"
        }
      ],
      "stateMutability": "view",
      "type": "function"
    },
    {
      "inputs": [],
      "name": "currentContractVersion",
      "outputs": [
        {
          "internalType": "uint256",
          "name": "",
          "type": "uint256"
        }
      ],
      "stateMutability": "view",
      "type": "function"
    },
    {
      "inputs": [
        {
          "internalType": "address",
          "name": "_administratorAddress",
          "type": "address"
        }
      ],
      "name": "getAdminAccess",
      "outputs": [
        {
          "internalType": "enum Administrable.AdministratorAccess",
          "name": "result",
          "type": "uint8"
        }
      ],
      "stateMutability": "view",
      "type": "function"
    },
    {
      "inputs": [
        {
          "internalType": "uint32",
          "name": "_proposalIndex",
          "type": "uint32"
        }
      ],
      "name": "getAdminConfirmationProposal",
      "outputs": [
        {
          "internalType": "uint256",
          "name": "adminThreshold",
          "type": "uint256"
        },
        {
          "internalType": "uint256",
          "name": "endTime",
          "type": "uint256"
        },
        {
          "internalType": "bool",
          "name": "isCompleted",
          "type": "bool"
        }
      ],
      "stateMutability": "view",
      "type": "function"
    },
    {
      "inputs": [],
      "name": "getAdminConfirmationThreshold",
      "outputs": [
        {
          "internalType": "uint256",
          "name": "results",
          "type": "uint256"
        }
      ],
      "stateMutability": "view",
      "type": "function"
    },
    {
      "inputs": [],
      "name": "getNumAdminConfirmationProposals",
      "outputs": [
        {
          "internalType": "uint256",
          "name": "result",
          "type": "uint256"
        }
      ],
      "stateMutability": "view",
      "type": "function"
    },
    {
      "inputs": [
        {
          "internalType": "address",
          "name": "_administratorAddress",
          "type": "address"
        }
      ],
      "name": "isAdministrator",
      "outputs": [
        {
          "internalType": "bool",
          "name": "result",
          "type": "bool"
        }
      ],
      "stateMutability": "view",
      "type": "function"
    },
    {
      "inputs": [],
      "name": "numAdministrators",
      "outputs": [
        {
          "internalType": "uint256",
          "name": "",
          "type": "uint256"
        }
      ],
      "stateMutability": "view",
      "type": "function"
    },
    {
      "inputs": [],
      "name": "owner",
      "outputs": [
        {
          "internalType": "address",
          "name": "",
          "type": "address"
        }
      ],
      "stateMutability": "view",
      "type": "function"
    },
    {
      "inputs": [
        {
          "internalType": "address",
          "name": "_newAdministratorAddress",
          "type": "address"
        }
      ],
      "name": "promoteAdministrator",
      "outputs": [
        {
          "internalType": "uint8",
          "name": "result",
          "type": "uint8"
        }
      ],
      "stateMutability": "nonpayable",
      "type": "function"
    },
    {
      "inputs": [
        {
          "internalType": "uint256",
          "name": "_newThreshold",
          "type": "uint256"
        }
      ],
      "name": "proposeChangeCurrentAdminConfirmationThreshold",
      "outputs": [
        {
          "internalType": "uint8",
          "name": "result",
          "type": "uint8"
        }
      ],
      "stateMutability": "nonpayable",
      "type": "function"
    },
    {
      "inputs": [
        {
          "internalType": "address",
          "name": "_revokeAdministratorAddress",
          "type": "address"
        }
      ],
      "name": "revokeAdministrator",
      "outputs": [
        {
          "internalType": "uint8",
          "name": "result",
          "type": "uint8"
        }
      ],
      "stateMutability": "nonpayable",
      "type": "function"
    },
    {
      "inputs": [
        {
          "internalType": "address",
          "name": "_newAdministratorAddress",
          "type": "address"
        }
      ],
      "name": "setPrimaryAdministrator",
      "outputs": [
        {
          "internalType": "uint8",
          "name": "result",
          "type": "uint8"
        }
      ],
      "stateMutability": "nonpayable",
      "type": "function"
    },
    {
      "inputs": [
        {
          "internalType": "address",
          "name": "_initialKycContractAddress",
          "type": "address"
        }
      ],
      "name": "setShyftKycContractAddressInitial",
      "outputs": [
        {
          "internalType": "uint8",
          "name": "result",
          "type": "uint8"
        }
      ],
      "stateMutability": "nonpayable",
      "type": "function"
    },
    {
      "inputs": [
        {
          "internalType": "address",
          "name": "_newKycContractAddress",
          "type": "address"
        }
      ],
      "name": "upgradeShyftKycContract",
      "outputs": [
        {
          "internalType": "uint8",
          "name": "result",
          "type": "uint8"
        }
      ],
      "stateMutability": "nonpayable",
      "type": "function"
    },
    {
      "inputs": [
        {
          "internalType": "address",
          "name": "_addr",
          "type": "address"
        }
      ],
      "name": "isShyftKycContract",
      "outputs": [
        {
          "internalType": "bool",
          "name": "result",
          "type": "bool"
        }
      ],
      "stateMutability": "view",
      "type": "function"
    },
    {
      "inputs": [],
      "name": "getCurrentContractAddress",
      "outputs": [
        {
          "internalType": "address",
          "name": "",
          "type": "address"
        }
      ],
      "stateMutability": "view",
      "type": "function"
    },
    {
      "inputs": [
        {
          "internalType": "uint256",
          "name": "_version",
          "type": "uint256"
        }
      ],
      "name": "getContractAddressOfVersion",
      "outputs": [
        {
          "internalType": "address",
          "name": "",
          "type": "address"
        }
      ],
      "stateMutability": "view",
      "type": "function"
    },
    {
      "inputs": [
        {
          "internalType": "address",
          "name": "_address",
          "type": "address"
        }
      ],
      "name": "getContractVersionOfAddress",
      "outputs": [
        {
          "internalType": "uint256",
          "name": "result",
          "type": "uint256"
        }
      ],
      "stateMutability": "view",
      "type": "function"
    },
    {
      "inputs": [],
      "name": "getNumContracts",
      "outputs": [
        {
          "internalType": "uint256",
          "name": "",
          "type": "uint256"
        }
      ],
      "stateMutability": "view",
      "type": "function"
    },
    {
      "inputs": [
        {
          "internalType": "address",
          "name": "_addr",
          "type": "address"
        },
        {
          "internalType": "uint256",
          "name": "_bip32X_type",
          "type": "uint256"
        }
      ],
      "name": "getAllTokenLocations",
      "outputs": [
        {
          "internalType": "bool[]",
          "name": "resultLocations",
          "type": "bool[]"
        },
        {
          "internalType": "uint256",
          "name": "resultNumFound",
          "type": "uint256"
        }
      ],
      "stateMutability": "view",
      "type": "function"
    },
    {
      "inputs": [
        {
          "internalType": "address",
          "name": "_addr",
          "type": "address"
        },
        {
          "internalType": "uint256",
          "name": "_bip32X_type",
          "type": "uint256"
        }
      ],
      "name": "getAllTokenLocationsAndBalances",
      "outputs": [
        {
          "internalType": "bool[]",
          "name": "resultLocations",
          "type": "bool[]"
        },
        {
          "internalType": "uint256[]",
          "name": "resultBalances",
          "type": "uint256[]"
        },
        {
          "internalType": "uint256",
          "name": "resultNumFound",
          "type": "uint256"
        },
        {
          "internalType": "uint256",
          "name": "resultTotalBalance",
          "type": "uint256"
        }
      ],
      "stateMutability": "view",
      "type": "function"
    }
  ],
  "bytecode": "0x6080604052600260005534801561001557600080fd5b5060018054336001600160a01b0319918216811790911617905561186a8061003e6000396000f3fe608060405234801561001057600080fd5b506004361061014c5760003560e01c80638da5cb5b116100c3578063d3a567751161007c578063d3a5677514610398578063d7536f811461041f578063d9af51e314610427578063f01f68881461046e578063f1041a6a14610541578063f3e512d3146105675761014c565b80638da5cb5b1461031a578063963beef514610322578063a75d7a3414610348578063b9568dd814610365578063c6fd102014610388578063cfe10b30146103905761014c565b80633a7accd0116101155780633a7accd01461024a5780634402bba314610270578063474da79a14610296578063487e9b70146102cf57806349d22250146102f55780637a303a9c146103125761014c565b8062913af614610151578063064ad7c2146101945780630a2eb301146101d057806323dfe7301461020a5780633370426d14610230575b600080fd5b6101746004803603602081101561016757600080fd5b503563ffffffff1661056f565b604080519384526020840192909252151582820152519081900360600190f35b6101ba600480360360208110156101aa57600080fd5b50356001600160a01b03166105f6565b6040805160ff9092168252519081900360200190f35b6101f6600480360360208110156101e657600080fd5b50356001600160a01b031661069a565b604080519115158252519081900360200190f35b6101ba6004803603602081101561022057600080fd5b50356001600160a01b03166106d5565b610238610938565b60408051918252519081900360200190f35b6101ba6004803603602081101561026057600080fd5b50356001600160a01b031661093e565b6101ba6004803603602081101561028657600080fd5b50356001600160a01b0316610a20565b6102b3600480360360208110156102ac57600080fd5b5035610bf4565b604080516001600160a01b039092168252519081900360200190f35b6101f6600480360360208110156102e557600080fd5b50356001600160a01b0316610c1b565b6101ba6004803603602081101561030b57600080fd5b5035610c39565b610238610d1b565b6102b3610d21565b6102386004803603602081101561033857600080fd5b50356001600160a01b0316610d30565b6102b36004803603602081101561035e57600080fd5b5035610d7a565b6101ba6004803603602081101561037b57600080fd5b503563ffffffff16610db0565b6102b3610f77565b610238610fa2565b6103c4600480360360408110156103ae57600080fd5b506001600160a01b038135169060200135610fa8565b6040518080602001838152602001828103825284818151815260200191508051906020019060200280838360005b8381101561040a5781810151838201526020016103f2565b50505050905001935050505060405180910390f35b6102386110de565b61044d6004803603602081101561043d57600080fd5b50356001600160a01b03166110e4565b6040518082600281111561045d57fe5b815260200191505060405180910390f35b61049a6004803603604081101561048457600080fd5b506001600160a01b038135169060200135611102565b604051808060200180602001858152602001848152602001838103835287818151815260200191508051906020019060200280838360005b838110156104ea5781810151838201526020016104d2565b50505050905001838103825286818151815260200191508051906020019060200280838360005b83811015610529578181015183820152602001610511565b50505050905001965050505050505060405180910390f35b6101ba6004803603602081101561055757600080fd5b50356001600160a01b03166112c4565b610238611367565b600080600060068463ffffffff168154811061058757fe5b90600052602060002090600302016000015460068563ffffffff16815481106105ac57fe5b90600052602060002090600302016001015460068663ffffffff16815481106105d157fe5b6000918252602090912060026003909202010154919450925060ff1690509193909250565b6001546000906001600160a01b031633141561069157600354610689576001600160a01b038216600090815260026020526040902080546001919060ff191682800217905550600380546001019055604080516001600160a01b038416815290517f1767f5d6fdb0884c185778bf3ba4d303dc6af28da0798c96577f7c5450631d8b9181900360200190a1506002610695565b506001610695565b5060005b919050565b600060016001600160a01b03831660009081526002602081905260409091205460ff16908111156106c757fe5b141561069157506001610695565b60006106e03361069a565b156106915760016001600160a01b03831660009081526002602081905260409091205460ff169081111561071057fe5b1461068957600260035410610885576040805173383937b6b7ba32a0b236b4b734b9ba3930ba37b960611b6020808301919091526001600160601b0319606086901b1660348301528251602881840301815260489092019092528051910120600061077a8261136d565b905060008054821061078e575060016107ab565b600061079984611392565b905060005481106107a957600191505b505b60018115151415610879576001600160a01b0385166000908152600260205260409020805460ff191660019081179091556003805490910190556107ee8361149c565b50610831426040516020018080671c1c9bdb5bdd195960c21b8152506008018281526020019150506040516020818303038152906040528051906020012061159b565b604080516001600160a01b038716815290517f7f477eb04f5a964ab231fdc42872d9356c3010171ed2c961d9166f49239786979181900360200190a160029350505050610695565b60039350505050610695565b6001600160a01b038216600090815260026020908152604091829020805460ff191660019081179091556003805490910190558151671c1c9bdb5bdd195960c21b818301524260288083019190915283518083039091018152604890910190925281519101206108f49061159b565b604080516001600160a01b038416815290517f7f477eb04f5a964ab231fdc42872d9356c3010171ed2c961d9166f49239786979181900360200190a1506002610695565b60065490565b60006109493361069a565b156106915760408051631a5b9a5d60e21b6020808301919091526001600160601b0319606086901b166024830152825160188184030181526038909201909252805191012060006109998261136d565b90506000805482106109ad575060016109ca565b60006109b884611392565b905060005481106109c857600191505b505b60018115151415610a14576109de856115d5565b1515600114156109fe576109f18361149c565b5060039350505050610695565b610a078361149c565b5060029350505050610695565b60019350505050610695565b6000610a2b3361069a565b156106915760016001600160a01b03831660009081526002602081905260409091205460ff1690811115610a5b57fe5b141561068957604080517f61646d696e697374726174696f6e5265766f636174696f6e566f7465000000006020808301919091526001600160601b0319606086901b16603c83015282516030818403018152605090920190925280519101206000610ac58261136d565b9050600080548210610ad957506001610af6565b6000610ae484611392565b90506000548110610af457600191505b505b60018115151415610be8576001600160a01b038516600090815260026020818152604092839020805460ff1916909217909155600380546000190190558151661c995d9bdad95960ca1b81830152426027808301919091528351808303909101815260479091019092528151910120610b6e9061159b565b6000546003541015610b965760026003541115610b9057600354600055610b96565b60026000555b610b9f8361149c565b50604080516001600160a01b038716815290517f79830203ee788345fbc4b7afa193ed483738eaecd94975fa1fa50c09c9a5be1f9181900360200190a160039350505050610695565b60029350505050610695565b60078181548110610c0157fe5b6000918252602090912001546001600160a01b0316905081565b6001600160a01b031660009081526009602052604090205460ff1690565b6000610c443361069a565b1561069157600082118015610c5b57506003548211155b1561068957610c686117b5565b828152426202a30001602082019081526006805460018101825560009190915282517ff652222313e28459528d920b65115c16c04f3efc82aaedc97be59f3f377c0d3f60039092029182015590517ff652222313e28459528d920b65115c16c04f3efc82aaedc97be59f3f377c0d408201556040909101517ff652222313e28459528d920b65115c16c04f3efc82aaedc97be59f3f377c0d41909101805460ff1916911515919091179055506002610695565b60005490565b6001546001600160a01b031681565b6001600160a01b03811660009081526008602052604081205415610d7157506001600160a01b03811660009081526008602052604090205460001901610695565b50600019610695565b6007546000908210156106915760078281548110610d9457fe5b6000918252602090912001546001600160a01b03169050610695565b6000610dbb3361069a565b156106915760065463ffffffff831610156106895760035460068363ffffffff1681548110610de657fe5b90600052602060002090600302016000015411610f6f5760068263ffffffff1681548110610e1057fe5b600091825260209091206002600390920201015460ff16158015610e58575060068263ffffffff1681548110610e4257fe5b9060005260206000209060030201600101544211155b15610f67576000826040516020018080611813602291396022018263ffffffff1660e01b81526004019150506040516020818303038152906040528051906020012090506000610ea78261136d565b9050600080548210610ebb57506001610ed8565b6000610ec684611392565b90506000548110610ed657600191505b505b60018115151415610f5b5760068563ffffffff1681548110610ef657fe5b906000526020600020906003020160000154600081905550600160068663ffffffff1681548110610f2357fe5b60009182526020909120600390910201600201805460ff1916911515919091179055610f4e8361149c565b5060059350505050610695565b60049350505050610695565b506003610695565b506002610695565b60006007600a5481548110610f8857fe5b6000918252602090912001546001600160a01b0316905090565b60075490565b60606000606060078054905067ffffffffffffffff81118015610fca57600080fd5b50604051908082528060200260200182016040528015610ff4578160200160208202803683370190505b5090506000805b6007548110156110d25760006007828154811061101457fe5b600091825260208083209091015460408051635e5e539b60e11b81526001600160a01b038d81166004830152602482018d90529151919092169450849263bcbca7369260448082019391829003018186803b15801561107257600080fd5b505afa158015611086573d6000803e3d6000fd5b505050506040513d602081101561109c57600080fd5b505111156110c95760018483815181106110b257fe5b911515602092830291909101909101526001909201915b50600101610ffb565b50909590945092505050565b600a5481565b6001600160a01b031660009081526002602052604090205460ff1690565b606080600080606060078054905067ffffffffffffffff8111801561112657600080fd5b50604051908082528060200260200182016040528015611150578160200160208202803683370190505b5060075490915060609067ffffffffffffffff8111801561117057600080fd5b5060405190808252806020026020018201604052801561119a578160200160208202803683370190505b50905060008060008060005b6007548110156112b157600781815481106111bd57fe5b9060005260206000200160009054906101000a90046001600160a01b03169150816001600160a01b031663bcbca7368e8e6040518363ffffffff1660e01b815260040180836001600160a01b031681526020018281526020019250505060206040518083038186803b15801561123257600080fd5b505afa158015611246573d6000803e3d6000fd5b505050506040513d602081101561125c57600080fd5b5051945084156112a957600187828151811061127457fe5b6020026020010190151590811515815250508486828151811061129357fe5b6020908102919091010152928401926001909201915b6001016111a6565b50949b939a509850965090945050505050565b60006112cf3361069a565b156106915760408051667570677261646560c81b6020808301919091526001600160601b0319606086901b1660278301528251601b818403018152603b909201909252805191012060006113228261136d565b905060008054821061133657506001611353565b600061134184611392565b9050600054811061135157600191505b505b60018115151415610a14576109de85611654565b60035481565b60008061137983611786565b6000908152600460205260409020600201549392505050565b600061139d3361069a565b156106915760006113ad83611786565b6003546000828152600460205260409020600201549192501180156114285750600081815260046020908152604080832033845290915281205460ff1660038111156113f557fe5b148061142857506003600082815260046020908152604080832033845290915290205460ff16600381111561142657fe5b145b15611483576000818152600460208181526040808420600281018054600190810190915533808752828552928620805460ff191682179055938352830180549384018155845292200180546001600160a01b03191690911790555b6000908152600460205260409020600201549050610695565b60006114a73361069a565b156106915760006114b783611786565b600081815260046020526040902060020154909150156115915760005b60008281526004602052604090206001015481101561155557600082815260046020526040812060018101805460039391908590811061151057fe5b60009182526020808320909101546001600160a01b031683528201929092526040019020805460ff1916600183600381111561154857fe5b02179055506001016114d4565b506000818152600460205260408120611573916001909101906117d8565b60009081526004602052604081206002908101919091559050610695565b6001915050610695565b6005548160405160200180838152602001828152602001925050506040516020818303038152906040528051906020012060058190555050565b60075460009061069157506007805460018082019092557fa66cc928b5edb82af9bd49922954155ab7b0942694bea4ce44661d9a8736c6880180546001600160a01b0319166001600160a01b038416908117909155600090815260086020908152604080832084905560099091529020805460ff191682179055610695565b600754600090156106915760078054600180820183557fa66cc928b5edb82af9bd49922954155ab7b0942694bea4ce44661d9a8736c68890910180546001600160a01b0319166001600160a01b038616908117909155600a80546000928352600860209081526040808520928601909255600990528220805460ff1916841790558054928301905582549092919081106116ea57fe5b600091825260208083209091015460408051631c7b62f760e31b81526001600160a01b0388811660048301529151919092169450849263e3db17b8926024808201939182900301818787803b15801561174257600080fd5b505af1158015611756573d6000803e3d6000fd5b505050506040513d602081101561176c57600080fd5b505190506001811515141561014c57600192505050610695565b600554604080516020808201939093528082019390935280518084038201815260609093019052815191012090565b604051806060016040528060008152602001600081526020016000151581525090565b50805460008255906000526020600020908101906117f691906117f9565b50565b5b8082111561180e57600081556001016117fa565b509056fe61646d696e436f6e6669726d6174696f6e5468726573686f6c6450726f706f73616ca26469706673582212207f5a4385d18507425b141f94912fe5d7c5c67565ac616701bfb189c509fd38a064736f6c63430007010033",
  "immutableReferences": {},
  "source": "pragma solidity ^0.7.1;\n//SPDX-License-Identifier: UNLICENSED\n\nimport \"./Interfaces/IShyftKycContractRegistry.sol\";\nimport \"./Interfaces/IShyftKycContract.sol\";\nimport \"./Administrable.sol\";\n\n\n// This contract acts as a registry between past and current versions of the ShyftKycContract\n//\n// Also, it has convenience functions for user balances & the versions of the blockchain they're\n// using. All of the upgrade functions are hosted within ShyftKycContract.sol so tx.origin issues\n// don't crop up.\n\ncontract ShyftKycContractRegistry is IShyftKycContractRegistry, Administrable {\n    uint256 constant InvalidVersion = 2**256 -1;\n\n    address[] public contracts;\n    mapping(address => uint256) versions;\n    mapping(address => bool) kycContractMapping;\n\n    uint256 public currentContractVersion;\n\n    constructor() {\n        owner = msg.sender;\n    }\n\n    //@note: this will need to be called when the ShyftKycContract is deployed for the first time\n\n    //returns:\n    // 0 = not an administrator\n    // 1 = not enough administrators have permissioned change\n    // 2 = could not init\n    // 3 = init completed\n\n    function setShyftKycContractAddressInitial(address _initialKycContractAddress) public returns (uint8 result) {\n        if (isAdministrator(msg.sender)) {\n            bytes32 keyKeccak = keccak256(abi.encodePacked(\"init\", _initialKycContractAddress));\n\n            uint256 numPermissions = getPermissionsForMultisignKey(keyKeccak);\n\n            bool permittedToModify;\n\n            if (numPermissions >= adminConfirmationThreshold) {\n                permittedToModify = true;\n            } else {\n                uint256 numConfirmedPermissions = adminApplyAndGetPermissionsForMultisignKey(keyKeccak);\n\n                if (numConfirmedPermissions >= adminConfirmationThreshold) {\n                    permittedToModify = true;\n                }\n            }\n\n            if (permittedToModify == true) {\n                if (doInit(_initialKycContractAddress) == true) {\n                    adminResetPermissionsForMultisignKey(keyKeccak);\n\n                    //init completed\n                    return 3;\n                } else {\n\n                    adminResetPermissionsForMultisignKey(keyKeccak);\n                    //could not init\n                    return 2;\n                }\n            } else {\n                //not enough administrators have permissioned change\n                return 1;\n            }\n        } else {\n            //not an administrator\n            return 0;\n        }\n    }\n\n    //returns:\n    // false = already initialized\n    // true = initialized contract\n    function doInit(address _initialKycContractAddress) internal returns (bool result)  {\n        if (contracts.length == 0){\n            contracts.push(_initialKycContractAddress); // set original contract w/ version 0\n            versions[_initialKycContractAddress] = 1;\n            kycContractMapping[_initialKycContractAddress] = true;\n\n            //initialized contract\n            return true;\n        } else {\n            //already initialized\n            return false;\n        }\n    }\n\n    //returns:\n    // 0 = not an administrator\n    // 1 = not enough administrators have permissioned change\n    // 2 = upgrade not completed\n    // 3 = upgrade completed properly\n\n    function upgradeShyftKycContract(address _newKycContractAddress) public returns (uint8 result) {\n        if (isAdministrator(msg.sender)) {\n            bytes32 keyKeccak = keccak256(abi.encodePacked(\"upgrade\", _newKycContractAddress));\n\n            uint256 numPermissions = getPermissionsForMultisignKey(keyKeccak);\n\n            bool permittedToModify;\n\n            if (numPermissions >= adminConfirmationThreshold) {\n                permittedToModify = true;\n            } else {\n                uint256 numConfirmedPermissions = adminApplyAndGetPermissionsForMultisignKey(keyKeccak);\n\n                if (numConfirmedPermissions >= adminConfirmationThreshold) {\n                    permittedToModify = true;\n                }\n            }\n\n            if (permittedToModify == true) {\n                if (doUpgrade(_newKycContractAddress) == true) {\n                    adminResetPermissionsForMultisignKey(keyKeccak);\n\n                    //upgrade completed properly\n                    return 3;\n                } else {\n                    adminResetPermissionsForMultisignKey(keyKeccak);\n\n                    //upgrade not completed\n                    return 2;\n                }\n            } else {\n                //not enough administrators have permissioned change\n                return 1;\n            }\n        } else {\n            //not an administrator\n            return 0;\n        }\n    }\n\n    //returns\n    // true = upgrade set up properly\n    // false = @note: revert()s because of changes from calls :: upgrade did not succeed\n    \n    //@note: this will need to be called after an updated contract is deployed\n    function doUpgrade(address _newKycContractAddress) internal returns (bool) {\n        if (contracts.length > 0) {\n            contracts.push(_newKycContractAddress);\n            versions[_newKycContractAddress] = currentContractVersion + 1;\n            kycContractMapping[_newKycContractAddress] = true;\n\n            currentContractVersion++;\n\n            IShyftKycContract existingKycContract = IShyftKycContract(contracts[currentContractVersion-1]);\n            bool didUpdate = existingKycContract.updateContract(_newKycContractAddress);\n\n            if (didUpdate == true) {\n                return true;\n            } else {\n                //@note: revert because of changed state downstream\n                revert();\n                //return false;\n            }\n        } else {\n            //init has not been called\n            return false;\n        }\n    }\n\n    function isShyftKycContract(address _addr) public view override returns (bool result) {\n        return kycContractMapping[_addr];\n    }\n\n    function getCurrentContractAddress() public view override returns (address) {\n        return contracts[currentContractVersion];\n    }\n\n    function getContractAddressOfVersion(uint _version) public view override returns (address) {\n        if (_version < contracts.length) {\n            return contracts[_version];\n        } else {\n            return address(0);\n        }\n    }\n\n    function getContractVersionOfAddress(address _address) public view override returns (uint256 result) {\n        if (versions[_address] > 0) {\n            return versions[_address] - 1;\n        } else {\n            //make sure that the address exists in the mapping, otherwise return max uint256\n            return InvalidVersion;\n        }\n    }\n\n    function getNumContracts() public view returns (uint256) {\n        return contracts.length;\n    }\n\n    //@note: this function could potentially cost a lot of gas if you ran it outside of the .call external\n    // architecture.\n    //\n    // the return is a full sized array that can be reduced easily in JS etc, or iterated through\n\n    function getAllTokenLocations(address _addr, uint256 _bip32X_type) public view override returns (bool[] memory resultLocations, uint256 resultNumFound) {\n        bool[] memory allLocations = new bool[](contracts.length);\n\n        uint256 numFound;\n\n        for (uint256 i = 0; i < contracts.length; i++) {\n            IShyftKycContract kycContract = IShyftKycContract(contracts[i]);\n\n            if (kycContract.getBalanceBip32X(_addr, _bip32X_type) > 0) {\n                //add to array\n                allLocations[i] = true;\n\n                //increment number found\n                numFound++;\n            }\n        }\n\n        return (allLocations, numFound);\n    }\n\n    //@note: this function could potentially cost a lot of gas if you ran it outside of the .call external\n    // architecture.\n    //\n    // the return is a full sized array that can be reduced easily in JS etc, or iterated through\n\n    function getAllTokenLocationsAndBalances(address _addr, uint256 _bip32X_type) public view override returns (bool[] memory resultLocations, uint256[] memory resultBalances, uint256 resultNumFound, uint256 resultTotalBalance) {\n        bool[] memory allLocations = new bool[](contracts.length);\n        uint256[] memory totalSupplyBip32X = new uint256[](contracts.length);\n        uint256 kycContractUserBalance;\n        uint256 totalKycContractUserBalance;\n\n        uint256 numFound;\n\n        IShyftKycContract kycContract;\n\n        for (uint256 i = 0; i < contracts.length; i++) {\n            kycContract = IShyftKycContract(contracts[i]);\n\n            kycContractUserBalance = kycContract.getBalanceBip32X(_addr, _bip32X_type);\n            if (kycContractUserBalance > 0) {\n                //add to array\n                allLocations[i] = true;\n                totalSupplyBip32X[i] = kycContractUserBalance;\n\n                totalKycContractUserBalance += kycContractUserBalance;\n\n                //increment number found\n                numFound++;\n            }\n        }\n\n        return (allLocations, totalSupplyBip32X, numFound, totalKycContractUserBalance);\n    }\n}",
  "sourcePath": "/opt/shyft-ta-node/contracts/ShyftKycContractRegistry.sol",
  "compiler": {
    "name": "solc",
    "version": "0.7.1+commit.f4a555be.Emscripten.clang"
  },
  "schemaVersion": "3.3.4",
  "updatedAt": "2021-09-16T18:31:15.604Z",
  "devdoc": {
    "kind": "dev",
    "methods": {
      "changeCurrentAdminConfirmationThreshold(uint32)": {
        "details": "| This function takes in an index for a proposal ot change the current administrator confirmation threshold.      | Uses Multi-signature permissions.",
        "params": {
          "_proposalIndex": "The index for a specific proposal to change the current administrator confirmation threshold."
        },
        "returns": {
          "result": "   | 0 = not an administrator    | 1 = invalid proposal index    | 2 = not enough administrators to achieve confirmation threshold    | 3 = proposal has expired    | 4 = not enough administrators have permissioned change    | 5 = admin confirmation threshold set"
        }
      },
      "getAdminAccess(address)": {
        "details": "Gets the level of access for a specific administrator.",
        "returns": {
          "result": "the level of access for this administrator"
        }
      },
      "getAdminConfirmationProposal(uint32)": {
        "details": "Gets the components of a specific NofM change proposal.",
        "params": {
          "_proposalIndex": "A proposal index"
        },
        "returns": {
          "adminThreshold": "the threshold of the NofM voting within this proposal",
          "endTime": "the end time of this proposal, after which it cannot be voted on",
          "isCompleted": "whether this proposal has been completed by multisig parties"
        }
      },
      "getAdminConfirmationThreshold()": {
        "details": "Gets the NofM threshold currently required for passing multisig votes.",
        "returns": {
          "results": "the current NofM threshold"
        }
      },
      "getNumAdminConfirmationProposals()": {
        "details": "Gets the number of a specific NofM change proposal.",
        "returns": {
          "result": "the number of a specific NofM proposals"
        }
      },
      "isAdministrator(address)": {
        "details": "Returns whether a given address is an administrator.",
        "params": {
          "_administratorAddress": "The public address of a specific administrator."
        },
        "returns": {
          "result": "   | true = is administrator    | false = either administrator unset or demoted"
        }
      },
      "promoteAdministrator(address)": {
        "details": "| Promotes a new administrator. If there is only a primary Administrator set, this will allow the addition of the second administrator and enable multisignature requirements for any actions of this contract (or those inheriting it).      | Uses Multi-signature permissions if there is more than one Administrator onboarded.",
        "params": {
          "_newAdministratorAddress": "The new Administrator's public address."
        },
        "returns": {
          "result": "   | 0 = not administrator    | 1 = administrator already promoted    | 2 = new administrator promoted    | 3 = added vote to promote administrator"
        }
      },
      "proposeChangeCurrentAdminConfirmationThreshold(uint256)": {
        "details": "This function proposes a change to the threshold of voting required (N signatories of M total set size = NofM). To prevent stale inattention results, timeout after 2 days.",
        "params": {
          "_newThreshold": "The new threshold (N of M multisig) that is needed to be passed."
        },
        "returns": {
          "result": "   | 0 = not an administrator    | 1 = not enough administrators to achieve confirmation threshold    | 2 = new proposal added"
        }
      },
      "revokeAdministrator(address)": {
        "details": "| Revokes an existing administrator from the multisignature set, checks to see if the # of required votes would be higher then the administrator set size, and if so adjusts to match.      | Uses Multi-signature permissions if there is more than one Administrator onboarded.",
        "params": {
          "_revokeAdministratorAddress": "An existing Administrator's public address."
        },
        "returns": {
          "result": "result"
        }
      },
      "setPrimaryAdministrator(address)": {
        "details": "Sets the primary Administrator for this contract (or those that inherit from it). This transfers ownership of this contracts first administration duties (to find and onboard a second party for multisignature requirements) to the set Administrator's public address.",
        "params": {
          "_newAdministratorAddress": "The new Administrator's public address."
        },
        "returns": {
          "result": "   | 0 = not owner    | 1 = already set first administrator    | 2 = setup first administrator"
        }
      }
    },
    "version": 1
  },
  "userdoc": {
    "kind": "user",
    "methods": {
      "changeCurrentAdminConfirmationThreshold(uint32)": {
        "notice": "Multiple proposals can be constructed for different sets to apply to change the administrator threshold. As the permissions for multisig keys use a voting set nonce underneath the hood, a change in the current administrator set will cancel all current votes."
      },
      "promoteAdministrator(address)": {
        "notice": "| Uses composition features (based on current validator set) so data structure may be orphaned when promotion/demotion events occur.         | Whenever this function is called (with a passing vote), there will be a re-hashing of the voting set nonce, so all current votes will become invalidated."
      },
      "revokeAdministrator(address)": {
        "notice": "| Uses composition features (based on current validator set) so data structure may be orphaned when promotion/demotion events occur.         | Whenever this function is called (with a passing vote), there will be a re-hashing of the voting set nonce, so all current votes will become invalidated."
      }
    },
    "version": 1
  }
}