{
  "contractName": "TrustChannelManager",
  "abi": [
    {
      "inputs": [],
      "stateMutability": "nonpayable",
      "type": "constructor"
    },
    {
      "anonymous": false,
      "inputs": [
        {
          "indexed": false,
          "internalType": "address",
          "name": "_trustChannelAddress",
          "type": "address"
        }
      ],
      "name": "EVT_ActivateTrustChannel",
      "type": "event"
    },
    {
      "anonymous": false,
      "inputs": [
        {
          "indexed": false,
          "internalType": "uint256",
          "name": "ruleStorageIndex",
          "type": "uint256"
        },
        {
          "indexed": false,
          "internalType": "uint24",
          "name": "trustChannelLowestSubmapNumber",
          "type": "uint24"
        },
        {
          "indexed": false,
          "internalType": "uint24",
          "name": "trustChannelHighestSubmapNumber",
          "type": "uint24"
        },
        {
          "indexed": false,
          "internalType": "uint256",
          "name": "numTrustChannelsAssociatedToThisTrustAnchor",
          "type": "uint256"
        },
        {
          "indexed": false,
          "internalType": "address",
          "name": "_trustAnchorAddress",
          "type": "address"
        },
        {
          "indexed": false,
          "internalType": "address",
          "name": "_trustChannelAddress",
          "type": "address"
        }
      ],
      "name": "EVT_AddedTrustAnchorToTrustChannel",
      "type": "event"
    },
    {
      "anonymous": false,
      "inputs": [
        {
          "indexed": false,
          "internalType": "address",
          "name": "_admin",
          "type": "address"
        }
      ],
      "name": "EVT_AdminPromoted",
      "type": "event"
    },
    {
      "anonymous": false,
      "inputs": [
        {
          "indexed": false,
          "internalType": "address",
          "name": "_admin",
          "type": "address"
        }
      ],
      "name": "EVT_AdminRevoked",
      "type": "event"
    },
    {
      "anonymous": false,
      "inputs": [
        {
          "indexed": false,
          "internalType": "uint256",
          "name": "composedBitField",
          "type": "uint256"
        },
        {
          "indexed": false,
          "internalType": "uint32",
          "name": "trustAnchorIndex",
          "type": "uint32"
        },
        {
          "indexed": false,
          "internalType": "uint32",
          "name": "trustChannelIndex",
          "type": "uint32"
        },
        {
          "indexed": false,
          "internalType": "address",
          "name": "_trustAnchorAddress",
          "type": "address"
        },
        {
          "indexed": false,
          "internalType": "address",
          "name": "_trustChannelAddress",
          "type": "address"
        }
      ],
      "name": "EVT_ComposedTrustChannelWithTrustAnchor",
      "type": "event"
    },
    {
      "anonymous": false,
      "inputs": [
        {
          "indexed": false,
          "internalType": "address",
          "name": "_trustChannelAddress",
          "type": "address"
        }
      ],
      "name": "EVT_DeactivateTrustChannel",
      "type": "event"
    },
    {
      "anonymous": false,
      "inputs": [
        {
          "indexed": false,
          "internalType": "address",
          "name": "_trustChannelAdministratorAddress",
          "type": "address"
        },
        {
          "indexed": false,
          "internalType": "address",
          "name": "_trustChannelAddress",
          "type": "address"
        },
        {
          "indexed": false,
          "internalType": "bool",
          "name": "isTrustChannelAdministrator",
          "type": "bool"
        }
      ],
      "name": "EVT_IsTrustChannelAdministrator",
      "type": "event"
    },
    {
      "anonymous": false,
      "inputs": [
        {
          "indexed": false,
          "internalType": "address",
          "name": "_admin",
          "type": "address"
        }
      ],
      "name": "EVT_PrimaryAdminAdded",
      "type": "event"
    },
    {
      "anonymous": false,
      "inputs": [
        {
          "indexed": false,
          "internalType": "uint16",
          "name": "jurisdiction",
          "type": "uint16"
        },
        {
          "indexed": false,
          "internalType": "address",
          "name": "trustAnchorAddress",
          "type": "address"
        },
        {
          "indexed": false,
          "internalType": "address",
          "name": "trustChannelAddress",
          "type": "address"
        }
      ],
      "name": "EVT_ReceivedJurisdictionFromTrustAnchor",
      "type": "event"
    },
    {
      "anonymous": false,
      "inputs": [
        {
          "indexed": false,
          "internalType": "uint256",
          "name": "trustChannelIndexBitField",
          "type": "uint256"
        },
        {
          "indexed": false,
          "internalType": "uint32",
          "name": "trustAnchorIndex",
          "type": "uint32"
        },
        {
          "indexed": false,
          "internalType": "uint32",
          "name": "trustChannelIndex",
          "type": "uint32"
        },
        {
          "indexed": false,
          "internalType": "address",
          "name": "_trustAnchorAddress",
          "type": "address"
        },
        {
          "indexed": false,
          "internalType": "address",
          "name": "_trustChannelAddress",
          "type": "address"
        }
      ],
      "name": "EVT_RemovedTrustAnchorFromTrustChannel",
      "type": "event"
    },
    {
      "anonymous": false,
      "inputs": [
        {
          "indexed": false,
          "internalType": "address",
          "name": "_trustChannelAddress",
          "type": "address"
        },
        {
          "indexed": false,
          "internalType": "address",
          "name": "_primaryAdminAddress",
          "type": "address"
        },
        {
          "indexed": false,
          "internalType": "bool",
          "name": "_activateByDefault",
          "type": "bool"
        },
        {
          "indexed": false,
          "internalType": "bytes32",
          "name": "trustChannelKeccak",
          "type": "bytes32"
        },
        {
          "indexed": false,
          "internalType": "uint256",
          "name": "numTrustChannels",
          "type": "uint256"
        }
      ],
      "name": "EVT_SetupTrustChannel",
      "type": "event"
    },
    {
      "inputs": [
        {
          "internalType": "uint32",
          "name": "_proposalIndex",
          "type": "uint32"
        }
      ],
      "name": "changeCurrentAdminConfirmationThreshold",
      "outputs": [
        {
          "internalType": "uint8",
          "name": "result",
          "type": "uint8"
        }
      ],
      "stateMutability": "nonpayable",
      "type": "function"
    },
    {
      "inputs": [
        {
          "internalType": "address",
          "name": "_administratorAddress",
          "type": "address"
        }
      ],
      "name": "getAdminAccess",
      "outputs": [
        {
          "internalType": "enum Administrable.AdministratorAccess",
          "name": "result",
          "type": "uint8"
        }
      ],
      "stateMutability": "view",
      "type": "function",
      "constant": true
    },
    {
      "inputs": [
        {
          "internalType": "uint32",
          "name": "_proposalIndex",
          "type": "uint32"
        }
      ],
      "name": "getAdminConfirmationProposal",
      "outputs": [
        {
          "internalType": "uint256",
          "name": "adminThreshold",
          "type": "uint256"
        },
        {
          "internalType": "uint256",
          "name": "endTime",
          "type": "uint256"
        },
        {
          "internalType": "bool",
          "name": "isCompleted",
          "type": "bool"
        }
      ],
      "stateMutability": "view",
      "type": "function",
      "constant": true
    },
    {
      "inputs": [],
      "name": "getAdminConfirmationThreshold",
      "outputs": [
        {
          "internalType": "uint256",
          "name": "results",
          "type": "uint256"
        }
      ],
      "stateMutability": "view",
      "type": "function",
      "constant": true
    },
    {
      "inputs": [],
      "name": "getNumAdminConfirmationProposals",
      "outputs": [
        {
          "internalType": "uint256",
          "name": "result",
          "type": "uint256"
        }
      ],
      "stateMutability": "view",
      "type": "function",
      "constant": true
    },
    {
      "inputs": [
        {
          "internalType": "address",
          "name": "_administratorAddress",
          "type": "address"
        }
      ],
      "name": "isAdministrator",
      "outputs": [
        {
          "internalType": "bool",
          "name": "result",
          "type": "bool"
        }
      ],
      "stateMutability": "view",
      "type": "function",
      "constant": true
    },
    {
      "inputs": [],
      "name": "numAdministrators",
      "outputs": [
        {
          "internalType": "uint256",
          "name": "",
          "type": "uint256"
        }
      ],
      "stateMutability": "view",
      "type": "function",
      "constant": true
    },
    {
      "inputs": [],
      "name": "numTrustChannels",
      "outputs": [
        {
          "internalType": "uint32",
          "name": "",
          "type": "uint32"
        }
      ],
      "stateMutability": "view",
      "type": "function",
      "constant": true
    },
    {
      "inputs": [],
      "name": "owner",
      "outputs": [
        {
          "internalType": "address",
          "name": "",
          "type": "address"
        }
      ],
      "stateMutability": "view",
      "type": "function",
      "constant": true
    },
    {
      "inputs": [
        {
          "internalType": "address",
          "name": "_newAdministratorAddress",
          "type": "address"
        }
      ],
      "name": "promoteAdministrator",
      "outputs": [
        {
          "internalType": "uint8",
          "name": "result",
          "type": "uint8"
        }
      ],
      "stateMutability": "nonpayable",
      "type": "function"
    },
    {
      "inputs": [
        {
          "internalType": "uint256",
          "name": "_newThreshold",
          "type": "uint256"
        }
      ],
      "name": "proposeChangeCurrentAdminConfirmationThreshold",
      "outputs": [
        {
          "internalType": "uint8",
          "name": "result",
          "type": "uint8"
        }
      ],
      "stateMutability": "nonpayable",
      "type": "function"
    },
    {
      "inputs": [
        {
          "internalType": "address",
          "name": "_revokeAdministratorAddress",
          "type": "address"
        }
      ],
      "name": "revokeAdministrator",
      "outputs": [
        {
          "internalType": "uint8",
          "name": "result",
          "type": "uint8"
        }
      ],
      "stateMutability": "nonpayable",
      "type": "function"
    },
    {
      "inputs": [
        {
          "internalType": "address",
          "name": "_newAdministratorAddress",
          "type": "address"
        }
      ],
      "name": "setPrimaryAdministrator",
      "outputs": [
        {
          "internalType": "uint8",
          "name": "result",
          "type": "uint8"
        }
      ],
      "stateMutability": "nonpayable",
      "type": "function"
    },
    {
      "inputs": [],
      "name": "trustAnchorManagerAddress",
      "outputs": [
        {
          "internalType": "address",
          "name": "",
          "type": "address"
        }
      ],
      "stateMutability": "view",
      "type": "function",
      "constant": true
    },
    {
      "inputs": [],
      "name": "trustAnchorStorageAddress",
      "outputs": [
        {
          "internalType": "address",
          "name": "",
          "type": "address"
        }
      ],
      "stateMutability": "view",
      "type": "function",
      "constant": true
    },
    {
      "inputs": [
        {
          "internalType": "address",
          "name": "_trustAnchorManagerAddress",
          "type": "address"
        }
      ],
      "name": "setTrustAnchorManagerAddress",
      "outputs": [
        {
          "internalType": "uint8",
          "name": "result",
          "type": "uint8"
        }
      ],
      "stateMutability": "nonpayable",
      "type": "function"
    },
    {
      "inputs": [
        {
          "internalType": "address",
          "name": "_trustAnchorStorageAddress",
          "type": "address"
        }
      ],
      "name": "setTrustAnchorStorageAddress",
      "outputs": [
        {
          "internalType": "uint8",
          "name": "result",
          "type": "uint8"
        }
      ],
      "stateMutability": "nonpayable",
      "type": "function"
    },
    {
      "inputs": [
        {
          "internalType": "address",
          "name": "_trustChannelAddress",
          "type": "address"
        },
        {
          "internalType": "address",
          "name": "_primaryAdminAddress",
          "type": "address"
        },
        {
          "internalType": "bool",
          "name": "_activateByDefault",
          "type": "bool"
        }
      ],
      "name": "adminSetupTrustChannel",
      "outputs": [
        {
          "internalType": "uint8",
          "name": "result",
          "type": "uint8"
        }
      ],
      "stateMutability": "nonpayable",
      "type": "function"
    },
    {
      "inputs": [
        {
          "internalType": "address",
          "name": "_trustChannelAdministratorAddress",
          "type": "address"
        },
        {
          "internalType": "address",
          "name": "_trustChannelAddress",
          "type": "address"
        }
      ],
      "name": "isTrustChannelAdministrator",
      "outputs": [
        {
          "internalType": "bool",
          "name": "result",
          "type": "bool"
        }
      ],
      "stateMutability": "view",
      "type": "function",
      "constant": true
    },
    {
      "inputs": [
        {
          "internalType": "address",
          "name": "_trustChannelAddress",
          "type": "address"
        },
        {
          "internalType": "uint64",
          "name": "_index",
          "type": "uint64"
        }
      ],
      "name": "getTrustChannelAdministratorForTrustChannelByIndex",
      "outputs": [
        {
          "internalType": "address",
          "name": "result",
          "type": "address"
        }
      ],
      "stateMutability": "view",
      "type": "function",
      "constant": true
    },
    {
      "inputs": [
        {
          "internalType": "address",
          "name": "_newTrustChannelAdministratorAddress",
          "type": "address"
        },
        {
          "internalType": "address",
          "name": "_trustChannelAddress",
          "type": "address"
        }
      ],
      "name": "trustChannelAdministratorAddTrustChannelAdministrator",
      "outputs": [
        {
          "internalType": "uint8",
          "name": "result",
          "type": "uint8"
        }
      ],
      "stateMutability": "nonpayable",
      "type": "function"
    },
    {
      "inputs": [
        {
          "internalType": "address",
          "name": "_trustChannelAdministratorAddressToRemove",
          "type": "address"
        },
        {
          "internalType": "address",
          "name": "_trustChannelAddress",
          "type": "address"
        }
      ],
      "name": "trustChannelAdministratorRemoveTrustChannelAdministrator",
      "outputs": [
        {
          "internalType": "uint8",
          "name": "result",
          "type": "uint8"
        }
      ],
      "stateMutability": "nonpayable",
      "type": "function"
    },
    {
      "inputs": [
        {
          "internalType": "address",
          "name": "_trustChannelAddress",
          "type": "address"
        }
      ],
      "name": "adminDeactivateTrustChannel",
      "outputs": [
        {
          "internalType": "uint8",
          "name": "result",
          "type": "uint8"
        }
      ],
      "stateMutability": "nonpayable",
      "type": "function"
    },
    {
      "inputs": [
        {
          "internalType": "address",
          "name": "_trustChannelAddress",
          "type": "address"
        }
      ],
      "name": "adminReactivateTrustChannel",
      "outputs": [
        {
          "internalType": "uint8",
          "name": "result",
          "type": "uint8"
        }
      ],
      "stateMutability": "nonpayable",
      "type": "function"
    },
    {
      "inputs": [
        {
          "internalType": "address",
          "name": "_trustChannelAddress",
          "type": "address"
        },
        {
          "internalType": "bytes32",
          "name": "_keyKeccak",
          "type": "bytes32"
        }
      ],
      "name": "requireAndApplyTrustChannelAdministratorsConfirmation",
      "outputs": [
        {
          "internalType": "bool",
          "name": "result",
          "type": "bool"
        }
      ],
      "stateMutability": "nonpayable",
      "type": "function"
    },
    {
      "inputs": [
        {
          "internalType": "address",
          "name": "_trustAnchorAddress",
          "type": "address"
        },
        {
          "internalType": "address",
          "name": "_trustChannelAddress",
          "type": "address"
        }
      ],
      "name": "trustChannelAdministratorAddTrustAnchorToTrustChannel",
      "outputs": [
        {
          "internalType": "uint8",
          "name": "result",
          "type": "uint8"
        }
      ],
      "stateMutability": "nonpayable",
      "type": "function"
    },
    {
      "inputs": [
        {
          "internalType": "address",
          "name": "_trustChannelAddress",
          "type": "address"
        }
      ],
      "name": "getNumActiveTrustChannelAdministratorsForTrustChannel",
      "outputs": [
        {
          "internalType": "uint256",
          "name": "result",
          "type": "uint256"
        }
      ],
      "stateMutability": "view",
      "type": "function",
      "constant": true
    },
    {
      "inputs": [
        {
          "internalType": "address",
          "name": "_trustAnchorAddress",
          "type": "address"
        },
        {
          "internalType": "address",
          "name": "_trustChannelAddress",
          "type": "address"
        }
      ],
      "name": "trustChannelAdministratorRemoveTrustAnchorFromTrustChannel",
      "outputs": [
        {
          "internalType": "uint8",
          "name": "result",
          "type": "uint8"
        }
      ],
      "stateMutability": "nonpayable",
      "type": "function"
    },
    {
      "inputs": [
        {
          "internalType": "address",
          "name": "_trustChannelAddress",
          "type": "address"
        }
      ],
      "name": "getNumberOfTrustAnchorsForTrustChannel",
      "outputs": [
        {
          "internalType": "uint256",
          "name": "result",
          "type": "uint256"
        }
      ],
      "stateMutability": "view",
      "type": "function",
      "constant": true
    },
    {
      "inputs": [
        {
          "internalType": "address",
          "name": "_trustChannelAddress",
          "type": "address"
        },
        {
          "internalType": "uint256",
          "name": "_arrayIndex",
          "type": "uint256"
        }
      ],
      "name": "getTrustAnchorForTrustChannelByArrayIndex",
      "outputs": [
        {
          "internalType": "address",
          "name": "result",
          "type": "address"
        }
      ],
      "stateMutability": "view",
      "type": "function",
      "constant": true
    },
    {
      "inputs": [
        {
          "internalType": "address",
          "name": "_trustChannelAddress",
          "type": "address"
        }
      ],
      "name": "getAllTrustAnchorsForTrustChannel",
      "outputs": [
        {
          "internalType": "address[]",
          "name": "result",
          "type": "address[]"
        }
      ],
      "stateMutability": "view",
      "type": "function",
      "constant": true
    },
    {
      "inputs": [
        {
          "internalType": "address",
          "name": "_trustAnchorAddress",
          "type": "address"
        }
      ],
      "name": "getAllTrustChannelAddressesForTrustAnchor",
      "outputs": [
        {
          "internalType": "address[]",
          "name": "",
          "type": "address[]"
        }
      ],
      "stateMutability": "view",
      "type": "function",
      "constant": true
    },
    {
      "inputs": [
        {
          "internalType": "address",
          "name": "_trustAnchorAddress",
          "type": "address"
        }
      ],
      "name": "getAllTrustChannelIndexesForTrustAnchor",
      "outputs": [
        {
          "internalType": "uint32[]",
          "name": "",
          "type": "uint32[]"
        }
      ],
      "stateMutability": "view",
      "type": "function",
      "constant": true
    },
    {
      "inputs": [
        {
          "internalType": "address",
          "name": "_trustAnchorAddress",
          "type": "address"
        }
      ],
      "name": "getTrustChannelLowestSubmapNumberForTrustAnchorAddress",
      "outputs": [
        {
          "internalType": "uint24",
          "name": "result",
          "type": "uint24"
        }
      ],
      "stateMutability": "view",
      "type": "function",
      "constant": true
    },
    {
      "inputs": [
        {
          "internalType": "address",
          "name": "_trustAnchorAddress",
          "type": "address"
        }
      ],
      "name": "getTrustChannelHighestSubmapNumberForTrustAnchorAddress",
      "outputs": [
        {
          "internalType": "uint24",
          "name": "result",
          "type": "uint24"
        }
      ],
      "stateMutability": "view",
      "type": "function",
      "constant": true
    },
    {
      "inputs": [
        {
          "internalType": "uint32",
          "name": "_trustAnchorIndex",
          "type": "uint32"
        }
      ],
      "name": "getTrustChannelLowestSubmapNumberForTrustAnchorIndex",
      "outputs": [
        {
          "internalType": "uint24",
          "name": "result",
          "type": "uint24"
        }
      ],
      "stateMutability": "view",
      "type": "function",
      "constant": true
    },
    {
      "inputs": [
        {
          "internalType": "uint32",
          "name": "_trustAnchorIndex",
          "type": "uint32"
        }
      ],
      "name": "getTrustChannelHighestSubmapNumberForTrustAnchorIndex",
      "outputs": [
        {
          "internalType": "uint24",
          "name": "result",
          "type": "uint24"
        }
      ],
      "stateMutability": "view",
      "type": "function",
      "constant": true
    },
    {
      "inputs": [
        {
          "internalType": "uint32",
          "name": "_trustAnchorIndex",
          "type": "uint32"
        },
        {
          "internalType": "uint24",
          "name": "_submapNumber",
          "type": "uint24"
        }
      ],
      "name": "getTrustChannelIndexBitFieldAtSubmapNumberForTrustAnchorIndex",
      "outputs": [
        {
          "internalType": "uint256",
          "name": "result",
          "type": "uint256"
        }
      ],
      "stateMutability": "view",
      "type": "function",
      "constant": true
    },
    {
      "inputs": [
        {
          "internalType": "address",
          "name": "_trustChannelAddress",
          "type": "address"
        },
        {
          "internalType": "uint8",
          "name": "_ruleIndex",
          "type": "uint8"
        },
        {
          "internalType": "bool",
          "name": "_active",
          "type": "bool"
        }
      ],
      "name": "setTrustChannelRuleActive",
      "outputs": [
        {
          "internalType": "uint8",
          "name": "result",
          "type": "uint8"
        }
      ],
      "stateMutability": "nonpayable",
      "type": "function"
    },
    {
      "inputs": [
        {
          "internalType": "address",
          "name": "_trustChannelAddress",
          "type": "address"
        },
        {
          "internalType": "uint8",
          "name": "_ruleIndex",
          "type": "uint8"
        },
        {
          "internalType": "uint8",
          "name": "_ruleStorageSubindex",
          "type": "uint8"
        },
        {
          "internalType": "bytes32",
          "name": "_newValue",
          "type": "bytes32"
        }
      ],
      "name": "setTrustChannelRulesStorage",
      "outputs": [
        {
          "internalType": "uint8",
          "name": "result",
          "type": "uint8"
        }
      ],
      "stateMutability": "nonpayable",
      "type": "function"
    },
    {
      "inputs": [
        {
          "internalType": "address",
          "name": "_trustChannelAddress",
          "type": "address"
        },
        {
          "internalType": "uint8",
          "name": "_ruleIndex",
          "type": "uint8"
        },
        {
          "internalType": "uint8",
          "name": "_ruleStorageSubindex",
          "type": "uint8"
        }
      ],
      "name": "getTrustChannelRulesStorage",
      "outputs": [
        {
          "internalType": "bytes32",
          "name": "result",
          "type": "bytes32"
        }
      ],
      "stateMutability": "view",
      "type": "function",
      "constant": true
    },
    {
      "inputs": [
        {
          "internalType": "uint32",
          "name": "_trustChannelIndex",
          "type": "uint32"
        },
        {
          "internalType": "uint8",
          "name": "_ruleIndex",
          "type": "uint8"
        },
        {
          "internalType": "uint8",
          "name": "_ruleStorageSubindex",
          "type": "uint8"
        }
      ],
      "name": "getTrustChannelRulesStorage",
      "outputs": [
        {
          "internalType": "bytes32",
          "name": "result",
          "type": "bytes32"
        }
      ],
      "stateMutability": "view",
      "type": "function",
      "constant": true
    },
    {
      "inputs": [
        {
          "internalType": "uint32",
          "name": "_trustChannelIndex",
          "type": "uint32"
        }
      ],
      "name": "getActiveChannelRulesBitField",
      "outputs": [
        {
          "internalType": "uint8",
          "name": "result",
          "type": "uint8"
        },
        {
          "internalType": "uint256",
          "name": "channelRulesBitField",
          "type": "uint256"
        }
      ],
      "stateMutability": "view",
      "type": "function",
      "constant": true
    },
    {
      "inputs": [
        {
          "internalType": "bytes32",
          "name": "_trustChannelKeccak",
          "type": "bytes32"
        }
      ],
      "name": "getTrustChannelIndexFromTrustChannelKeccak",
      "outputs": [
        {
          "internalType": "uint32",
          "name": "result",
          "type": "uint32"
        }
      ],
      "stateMutability": "view",
      "type": "function",
      "constant": true
    },
    {
      "inputs": [
        {
          "internalType": "uint32",
          "name": "_trustChannelIndex",
          "type": "uint32"
        }
      ],
      "name": "getTrustChannelKeccakFromTrustChannelIndex",
      "outputs": [
        {
          "internalType": "bytes32",
          "name": "result",
          "type": "bytes32"
        }
      ],
      "stateMutability": "view",
      "type": "function",
      "constant": true
    }
  ],
  "bytecode": "0x608060405260026000556007805463ffffffff191663ffffffff17905534801561002857600080fd5b5060018054336001600160a01b03199182168117909116179055613e42806100516000396000f3fe608060405234801561001057600080fd5b506004361061027e5760003560e01c80638da5cb5b1161015c578063c4d4b1e9116100ce578063dbdd977211610087578063dbdd97721461094f578063dc93994d1461097d578063e720a1fe14610985578063f3e512d3146109ab578063f3e643bf146109b3578063f8a8f84a146109d95761027e565b8063c4d4b1e914610845578063c77e0bc61461086b578063cda1838e14610891578063d086c0ae146108bf578063d534d027146108e2578063d9af51e3146109085761027e565b8063af88c3e311610120578063af88c3e314610769578063b412affe146107a0578063b9568dd8146107ce578063b95f6f9f146107f1578063bfeabd58146107f9578063c27e1da81461081f5761027e565b80638da5cb5b146106af5780638f01b393146106b75780638fdc0532146106eb578063aa5d4de31461072a578063ae7cc8be146107325761027e565b806335544bcd116101f557806374278e05116101b957806374278e05146105af578063785a5a0c146105d5578063788465e71461060b5780637940d969146106435780637a303a9c146106715780637a610cd6146106795761027e565b806335544bcd146104f75780634402bba31461051a57806349d2225014610540578063571e812a1461055d57806371457397146105895761027e565b80631ac67f20116102475780631ac67f20146103e75780631f84142a1461041557806323dfe730146104435780632eb91ae8146104695780632f862262146104b15780633370426d146104ef5761027e565b8062913af6146102835780630636242d146102c6578063064ad7c2146102fb5780630a2eb301146103375780630f014cce14610371575b600080fd5b6102a66004803603602081101561029957600080fd5b503563ffffffff16610a19565b604080519384526020840192909252151582820152519081900360600190f35b6102e9600480360360208110156102dc57600080fd5b503563ffffffff16610aa0565b60408051918252519081900360200190f35b6103216004803603602081101561031157600080fd5b50356001600160a01b0316610abc565b6040805160ff9092168252519081900360200190f35b61035d6004803603602081101561034d57600080fd5b50356001600160a01b0316610b5f565b604080519115158252519081900360200190f35b6103976004803603602081101561038757600080fd5b50356001600160a01b0316610b9a565b60408051602080825283518183015283519192839290830191858101910280838360005b838110156103d35781810151838201526020016103bb565b505050509050019250505060405180910390f35b610321600480360360408110156103fd57600080fd5b506001600160a01b0381358116916020013516610d23565b6103216004803603604081101561042b57600080fd5b506001600160a01b0381358116916020013516610e4e565b6103216004803603602081101561045957600080fd5b50356001600160a01b0316610fdb565b6104956004803603604081101561047f57600080fd5b506001600160a01b03813516906020013561123e565b604080516001600160a01b039092168252519081900360200190f35b6104d7600480360360208110156104c757600080fd5b50356001600160a01b031661131d565b6040805162ffffff9092168252519081900360200190f35b6102e96113b1565b6104d76004803603602081101561050d57600080fd5b503563ffffffff166113b7565b6103216004803603602081101561053057600080fd5b50356001600160a01b03166113d4565b6103216004803603602081101561055657600080fd5b50356115a8565b61035d6004803603604081101561057357600080fd5b506001600160a01b03813516906020013561168a565b6103216004803603602081101561059f57600080fd5b50356001600160a01b03166116d3565b6102e9600480360360208110156105c557600080fd5b50356001600160a01b03166117d3565b6105f2600480360360208110156105eb57600080fd5b50356117ee565b6040805163ffffffff9092168252519081900360200190f35b6103216004803603606081101561062157600080fd5b506001600160a01b038135811691602081013590911690604001351515611806565b6103216004803603604081101561065957600080fd5b506001600160a01b0381358116916020013516611cc1565b6102e9611de4565b6104956004803603604081101561068f57600080fd5b5080356001600160a01b0316906020013567ffffffffffffffff16611dea565b610495611e5e565b6102e9600480360360608110156106cd57600080fd5b5063ffffffff8135169060ff60208201358116916040013516611e6d565b6103216004803603608081101561070157600080fd5b506001600160a01b038135169060ff602082013581169160408101359091169060600135611eb2565b6105f2611fbe565b6102e96004803603606081101561074857600080fd5b506001600160a01b038135169060ff60208201358116916040013516611fca565b6103216004803603606081101561077f57600080fd5b506001600160a01b038135169060ff60208201351690604001351515612012565b610321600480360360408110156107b657600080fd5b506001600160a01b0381358116916020013516612126565b610321600480360360208110156107e457600080fd5b503563ffffffff166122a3565b61049561246a565b6103976004803603602081101561080f57600080fd5b50356001600160a01b0316612479565b6103976004803603602081101561083557600080fd5b50356001600160a01b03166125e4565b6102e96004803603602081101561085b57600080fd5b50356001600160a01b0316612740565b6103216004803603602081101561088157600080fd5b50356001600160a01b031661276b565b61035d600480360360408110156108a757600080fd5b506001600160a01b03813581169160200135166128b2565b6104d7600480360360208110156108d557600080fd5b503563ffffffff166128ef565b610321600480360360208110156108f857600080fd5b50356001600160a01b031661290c565b61092e6004803603602081101561091e57600080fd5b50356001600160a01b03166129f3565b6040518082600281111561093e57fe5b815260200191505060405180910390f35b6102e96004803603604081101561096557600080fd5b50803563ffffffff16906020013562ffffff16612a11565b610495612a3d565b6104d76004803603602081101561099b57600080fd5b50356001600160a01b0316612a4c565b6102e9612ad8565b610321600480360360208110156109c957600080fd5b50356001600160a01b0316612ade565b6109fc600480360360208110156109ef57600080fd5b503563ffffffff16612c4c565b6040805160ff909316835260208301919091528051918290030190f35b600080600060068463ffffffff1681548110610a3157fe5b90600052602060002090600302016000015460068563ffffffff1681548110610a5657fe5b90600052602060002090600302016001015460068663ffffffff1681548110610a7b57fe5b6000918252602090912060026003909202010154919450925060ff1690509193909250565b63ffffffff81166000908152601760205260409020545b919050565b6001546000906001600160a01b0316331415610b5757600354610b4f576001600160a01b038216600090815260026020526040902080546001919060ff191682800217905550600380546001019055604080516001600160a01b038416815290517f1767f5d6fdb0884c185778bf3ba4d303dc6af28da0798c96577f7c5450631d8b9181900360200190a1506002610ab7565b506001610ab7565b506000610ab7565b600060016001600160a01b03831660009081526002602081905260409091205460ff1690811115610b8c57fe5b1415610b5757506001610ab7565b601a5460408051630ddf84b960e31b81526001600160a01b038481166004830152915160609392909216916000918391636efc25c891602480820192602092909190829003018186803b158015610bf057600080fd5b505afa158015610c04573d6000803e3d6000fd5b505050506040513d6020811015610c1a57600080fd5b505163ffffffff8116600090815260166020526040902080549192509060609067ffffffffffffffff81118015610c5057600080fd5b50604051908082528060200260200182016040528015610c7a578160200160208202803683370190505b50905060005b825463ffffffff82161015610d195760196000848363ffffffff1681548110610ca557fe5b6000918252602080832060088304015463ffffffff60046007909416939093026101000a900482168452830193909352604090910190205483516001600160a01b03909116918491908416908110610cf957fe5b6001600160a01b0390921660209283029190910190910152600101610c80565b5095945050505050565b6000610d2f33836128b2565b151560011415610e4457600083836040516020018080613de860259139602501836001600160a01b031660601b8152601401826001600160a01b031660601b815260140192505050604051602081830303815290604052805190602001209050610d99838261168a565b151560011415610e3a576001600160a01b0383166000908152600860209081526040808320548084526009909252909120610dd48584612ccc565b50805460ff16151560011415610e2e576001600160a01b0386166000908152600180830160205260409091205460ff1615151415610e2257610e168686612e1c565b60049350505050610e48565b60039350505050610e48565b60029350505050610e48565b6001915050610e48565b5060005b92915050565b6000610e5a33836128b2565b15610e4457610e6983836128b2565b151560011415610fd3576001600160a01b0382166000908152600e6020526040902054600190811015610f0c57600084846040516020018080613dc560239139602301836001600160a01b031660601b8152601401826001600160a01b031660601b8152601401925050506040516020818303038152906040528051906020012090506000610ef885836131b6565b9050600054811015610f0957600092505b50505b60018115151415610fc9576001600160a01b038084166000818152600b60209081526040808320948916808452948252808320805460ff19169055838352600c825280832094835293815283822054928252600d9052918220805467ffffffffffffffff909216929183908110610f7f57fe5b600091825260208083209190910180546001600160a01b0319166001600160a01b039485161790559186168152600e9091526040902080546000190190555060039150610e489050565b6002915050610e48565b506001610e48565b6000610fe633610b5f565b15610b575760016001600160a01b03831660009081526002602081905260409091205460ff169081111561101657fe5b14610b4f5760026003541061118b576040805173383937b6b7ba32a0b236b4b734b9ba3930ba37b960611b6020808301919091526001600160601b0319606086901b16603483015282516028818403018152604890920190925280519101206000611080826132ff565b9050600080548210611094575060016110b1565b600061109f84613324565b905060005481106110af57600191505b505b6001811515141561117f576001600160a01b0385166000908152600260205260409020805460ff191660019081179091556003805490910190556110f48361342e565b50611137426040516020018080671c1c9bdb5bdd195960c21b8152506008018281526020019150506040516020818303038152906040528051906020012061352d565b604080516001600160a01b038716815290517f7f477eb04f5a964ab231fdc42872d9356c3010171ed2c961d9166f49239786979181900360200190a160029350505050610ab7565b60039350505050610ab7565b6001600160a01b038216600090815260026020908152604091829020805460ff191660019081179091556003805490910190558151671c1c9bdb5bdd195960c21b818301524260288083019190915283518083039091018152604890910190925281519101206111fa9061352d565b604080516001600160a01b038416815290517f7f477eb04f5a964ab231fdc42872d9356c3010171ed2c961d9166f49239786979181900360200190a1506002610ab7565b601a546001600160a01b0383811660009081526008602090815260408083205483526009909152812060028101805492949390931692909183916394f24df4918790811061128857fe5b90600052602060002090600891828204019190066004029054906101000a900463ffffffff166040518263ffffffff1660e01b8152600401808263ffffffff16815260200191505060206040518083038186803b1580156112e857600080fd5b505afa1580156112fc573d6000803e3d6000fd5b505050506040513d602081101561131257600080fd5b505195945050505050565b601a5460408051630ddf84b960e31b81526001600160a01b0384811660048301529151600093929092169183918391636efc25c891602480820192602092909190829003018186803b15801561137257600080fd5b505afa158015611386573d6000803e3d6000fd5b505050506040513d602081101561139c57600080fd5b505190506113a9816113b7565b949350505050565b60065490565b63ffffffff1660009081526014602052604090205462ffffff1690565b60006113df33610b5f565b15610b575760016001600160a01b03831660009081526002602081905260409091205460ff169081111561140f57fe5b1415610b4f57604080517f61646d696e697374726174696f6e5265766f636174696f6e566f7465000000006020808301919091526001600160601b0319606086901b16603c83015282516030818403018152605090920190925280519101206000611479826132ff565b905060008054821061148d575060016114aa565b600061149884613324565b905060005481106114a857600191505b505b6001811515141561159c576001600160a01b038516600090815260026020818152604092839020805460ff1916909217909155600380546000190190558151661c995d9bdad95960ca1b818301524260278083019190915283518083039091018152604790910190925281519101206115229061352d565b600054600354101561154a57600260035411156115445760035460005561154a565b60026000555b6115538361342e565b50604080516001600160a01b038716815290517f79830203ee788345fbc4b7afa193ed483738eaecd94975fa1fa50c09c9a5be1f9181900360200190a160039350505050610ab7565b60029350505050610ab7565b60006115b333610b5f565b15610b57576000821180156115ca57506003548211155b15610b4f576115d7613d45565b828152426202a30001602082019081526006805460018101825560009190915282517ff652222313e28459528d920b65115c16c04f3efc82aaedc97be59f3f377c0d3f60039092029182015590517ff652222313e28459528d920b65115c16c04f3efc82aaedc97be59f3f377c0d408201556040909101517ff652222313e28459528d920b65115c16c04f3efc82aaedc97be59f3f377c0d41909101805460ff1916911515919091179055506002610ab7565b6001600160a01b0382166000908152600e60205260408120546001908110156116cc5760006116b985856131b6565b90506000548110156116ca57600091505b505b9392505050565b60006001600160a01b0382166116e857600080fd5b6116f133610b5f565b15610b5757604080517f7472757374416e63686f7253746f7261676541646472657373000000000000006020808301919091526001600160601b0319606086901b1660398301528251602d818403018152604d9092019092528051910120600061175a826132ff565b905060008054821061176e5750600161178b565b600061177984613324565b9050600054811061178957600191505b505b600181151514156117c757601b80546001600160a01b0319166001600160a01b0387161790556117ba8361342e565b5060029350505050610ab7565b60019350505050610ab7565b6001600160a01b03166000908152600e602052604090205490565b60009081526018602052604090205463ffffffff1690565b600061181133610b5f565b15611cb757604080517f61646d696e536574757054727573744368616e6e656c566f74650000000000006020808301919091526001600160601b0319606088811b8216603a85015287901b16604e83015284151560f81b60628301528251604381840301815260639092019092528051910120600061188f826132ff565b90506000805482106118a3575060016118c0565b60006118ae84613324565b905060005481106118be57600191505b505b60018115151415611cab57604080516001600160601b031960608a901b166020808301919091528251808303601401815260349092018352815191810191909120600081815260099092529190206119178561342e565b508054610100900460ff16611c9d57805487151560ff1961ff0019909216610100178216178255600482018054909116600117905560068101829055600060ff1660020a816004016001016000828254179250508190555081600860008b6001600160a01b03166001600160a01b0316815260200190815260200160002081905550600a60009054906101000a900463ffffffff166018600084815260200190815260200160002060006101000a81548163ffffffff021916908363ffffffff1602179055508160176000600a60009054906101000a900463ffffffff1663ffffffff1663ffffffff168152602001908152602001600020819055508860196000600a60009054906101000a900463ffffffff1663ffffffff1663ffffffff16815260200190815260200160002060006101000a8154816001600160a01b0302191690836001600160a01b031602179055506001600b60008b6001600160a01b03166001600160a01b0316815260200190815260200160002060008a6001600160a01b03166001600160a01b0316815260200190815260200160002060006101000a81548160ff0219169083151502179055506000600c60008b6001600160a01b03166001600160a01b0316815260200190815260200160002060008a6001600160a01b03166001600160a01b0316815260200190815260200160002060006101000a81548167ffffffffffffffff021916908367ffffffffffffffff160217905550600d60008a6001600160a01b03166001600160a01b03168152602001908152602001600020889080600181540180825580915050600190039060005260206000200160009091909190916101000a8154816001600160a01b0302191690836001600160a01b031602179055506001600e60008b6001600160a01b03166001600160a01b0316815260200190815260200160002081905550600a600081819054906101000a900463ffffffff168092919060010191906101000a81548163ffffffff021916908363ffffffff160217905550507fda116e954334f4e1cf74002ad58402f25bd79671405be36f506713bd939b475a89898985600a60009054906101000a900463ffffffff1660405180866001600160a01b03168152602001856001600160a01b0316815260200184151581526020018381526020018263ffffffff1681526020019550505050505060405180910390a16003955050505050506116cc565b6002955050505050506116cc565b600193505050506116cc565b5060009392505050565b6000611ccd33836128b2565b151560011415610e4457604080517f6164645472757374416e63686f72546f54727573744368616e6e656c566f74656020808301919091526001600160601b0319606087811b82168486015286901b1660548301528251604881840301815260689092019092528051910120611d43838261168a565b151560011415610e3a576001600160a01b0383166000908152600860209081526040808320548084526009909252909120611d7e8584612ccc565b50805460ff16151560011415610e2e576001600160a01b038616600090815260018201602052604090205460ff16610e22576000611dbd878784613567565b905060018115151415611dd7576005945050505050610e48565b6004945050505050610e48565b60005490565b6001600160a01b0382166000908152600d602052604081205467ffffffffffffffff83161015610e44576001600160a01b0383166000908152600d60205260409020805467ffffffffffffffff8416908110611e4257fe5b6000918252602090912001546001600160a01b03169050610e48565b6001546001600160a01b031681565b63ffffffff831660009081526017602090815260408083205483526009825280832061ffff60ff87811661010002908716011684526007019091529020549392505050565b6000611ebe33866128b2565b151560011415611fb357604080517f73657454727573744368616e6e656c52756c657353746f7261676500000000006020808301919091526001600160601b0319606089901b16603b8301526001600160f81b031960f888811b8216604f85015287901b16605083015260518083018690528351808403909101815260719092019092528051910120611f51868261168a565b151560011415611fa9576001600160a01b03861660009081526008602090815260408083205483526009825280832060ff8816845260078101909252909120849055611f9d8783612ccc565b506002925050506113a9565b60019150506113a9565b506000949350505050565b600a5463ffffffff1681565b6001600160a01b03831660009081526008602090815260408083205483526009825280832061ffff60ff87811661010002908716011684526007019091529020549392505050565b600061201e33856128b2565b151560011415611cb757604080517f73657454727573744368616e6e656c52756c6541637469766500000000000000602080830191909152606087901b6001600160601b031916603983015260f886811b6001600160f81b031916604d840152851515901b604e8301528251808303602f018152604f90920190925280519101206120a9858261168a565b15156001141561211c576001600160a01b0385166000908152600860209081526040808320548352600990915290206120e28683612ccc565b5060ff851660020a600185151514156121045760058201805482179055612110565b60058201805482191690555b600293505050506116cc565b60019150506116cc565b600061213233836128b2565b151560011415610e445761214683836128b2565b610fd3576001600160a01b0382166000908152600e60205260409020546001908110156121ef57604080517f61646454727573744368616e6e656c41646d696e6973747261746f72566f74656020808301919091526001600160601b0319606088811b82168486015287901b166054830152825160488184030181526068909201909252805191012060006121db85836131b6565b90506000548110156121ec57600092505b50505b60018115151415610fc95750506001600160a01b038181166000818152600b602090815260408083209487168084529482528083208054600160ff199091168117909155848452600d83528184208054600c85528386208887528552838620805467ffffffffffffffff191667ffffffffffffffff909216919091179055805480830182559085528385200180546001600160a01b031916909617909555928252600e905220805490910190556003610e48565b60006122ae33610b5f565b15610b575760065463ffffffff83161015610b4f5760035460068363ffffffff16815481106122d957fe5b906000526020600020906003020160000154116124625760068263ffffffff168154811061230357fe5b600091825260209091206002600390920201015460ff1615801561234b575060068263ffffffff168154811061233557fe5b9060005260206000209060030201600101544211155b1561245a576000826040516020018080613da3602291396022018263ffffffff1660e01b8152600401915050604051602081830303815290604052805190602001209050600061239a826132ff565b90506000805482106123ae575060016123cb565b60006123b984613324565b905060005481106123c957600191505b505b6001811515141561244e5760068563ffffffff16815481106123e957fe5b906000526020600020906003020160000154600081905550600160068663ffffffff168154811061241657fe5b60009182526020909120600390910201600201805460ff19169115159190911790556124418361342e565b5060059350505050610ab7565b60049350505050610ab7565b506003610ab7565b506002610ab7565b601b546001600160a01b031681565b601a546001600160a01b0382811660009081526008602090815260408083205483526009909152902060028101546060939290921691839067ffffffffffffffff811180156124c757600080fd5b506040519080825280602002602001820160405280156124f1578160200160208202803683370190505b50905060005b60028301548110156125db57836001600160a01b03166394f24df484600201838154811061252157fe5b90600052602060002090600891828204019190066004029054906101000a900463ffffffff166040518263ffffffff1660e01b8152600401808263ffffffff16815260200191505060206040518083038186803b15801561258157600080fd5b505afa158015612595573d6000803e3d6000fd5b505050506040513d60208110156125ab57600080fd5b505182518390839081106125bb57fe5b6001600160a01b03909216602092830291909101909101526001016124f7565b50949350505050565b601a5460408051630ddf84b960e31b81526001600160a01b038481166004830152915160609392909216916000918391636efc25c891602480820192602092909190829003018186803b15801561263a57600080fd5b505afa15801561264e573d6000803e3d6000fd5b505050506040513d602081101561266457600080fd5b505163ffffffff8116600090815260166020526040902080549192509060609067ffffffffffffffff8111801561269a57600080fd5b506040519080825280602002602001820160405280156126c4578160200160208202803683370190505b50905060005b825463ffffffff82161015610d1957828163ffffffff16815481106126eb57fe5b90600052602060002090600891828204019190066004029054906101000a900463ffffffff16828263ffffffff168151811061272357fe5b63ffffffff909216602092830291909101909101526001016126ca565b6001600160a01b03166000908152600860209081526040808320548352600990915290206002015490565b600061277633610b5f565b15610b5757604080517519195858dd1a5d985d19551c9d5cdd10da185b9b995b60521b6020808301919091526001600160601b0319606086901b1660368301528251602a818403018152604a909201909252805191012060006127d8826132ff565b90506000805482106127ec57506001612809565b60006127f784613324565b9050600054811061280757600191505b505b600181151514156117c757604080516001600160601b0319606088901b16602080830191909152825180830360140181526034909201835281519181019190912060008181526009909252919020805460ff191690556128688461342e565b50604080516001600160a01b038816815290517f629a6fb258fce5e2e252d843ae32a71cd2b06d50d52c24edf765708f0f315ed99181900360200190a16002945050505050610ab7565b6001600160a01b038082166000908152600b6020908152604080832093861683529290529081205460ff16151560011415610e4457506001610e48565b63ffffffff1660009081526015602052604090205462ffffff1690565b60006001600160a01b03821661292157600080fd5b61292a33610b5f565b15610b5757604080517f7472757374416e63686f724d616e6167657241646472657373000000000000006020808301919091526001600160601b0319606086901b1660398301528251602d818403018152604d90920190925280519101206000612993826132ff565b90506000805482106129a7575060016129c4565b60006129b284613324565b905060005481106129c257600191505b505b600181151514156117c757601a80546001600160a01b0319166001600160a01b0387161790556117ba8361342e565b6001600160a01b031660009081526002602052604090205460ff1690565b63ffffffff8216600090815260116020908152604080832062ffffff8516845290915290205492915050565b601a546001600160a01b031681565b601a5460408051630ddf84b960e31b81526001600160a01b0384811660048301529151600093929092169183918391636efc25c891602480820192602092909190829003018186803b158015612aa157600080fd5b505afa158015612ab5573d6000803e3d6000fd5b505050506040513d6020811015612acb57600080fd5b505190506113a9816128ef565b60035481565b6000612ae933610b5f565b15610b575760408051751c995858dd1a5d985d19551c9d5cdd10da185b9b995b60521b6020808301919091526001600160601b0319606086901b1660368301528251602a818403018152604a90920190925280519101206000612b4b826132ff565b9050600080548210612b5f57506001612b7c565b6000612b6a84613324565b90506000548110612b7a57600191505b505b600181151514156117c757604080516001600160601b0319606088901b16602080830191909152825180830360140181526034909201835281519181019190912060008181526009909252919020612bd38561342e565b50805460ff61010090910416151560011415612c3e57805460ff19166001178155604080516001600160a01b038916815290517ffc878102354830afb79bfc04d7f13356d8d596a5118dbcafa311069c768565979181900360200190a1600395505050505050610ab7565b600295505050505050610ab7565b63ffffffff81166000908152601760209081526040808320548352600990915281208054829190600482019060ff61010090910416151560011415612cbd57815460ff16151560011415612cab5760010154600293509150612cc79050565b60018160010154935093505050612cc7565b6000809350935050505b915091565b6000612cd833846128b2565b15610e44576001600160a01b0383166000908152600f6020908152604080832085845290915290206002015415610fd35760005b6001600160a01b0384166000908152600f60209081526040808320868452909152902060010154811015612db7576001600160a01b0384166000908152600f602090815260408083208684529091528120600181018054600393919085908110612d7257fe5b60009182526020808320909101546001600160a01b031683528201929092526040019020805460ff19166001836003811115612daa57fe5b0217905550600101612d0c565b506001600160a01b0383166000908152600f602090815260408083208584529091528120612dea91600190910190613d68565b506001600160a01b0382166000908152600f602090815260408083208484529091528120600290810191909155610e48565b6001600160a01b0380821660009081526008602090815260408083205480845260098352818420601a54888716808752600183018652848720805460ff191690558451630ddf84b960e31b8152600481019190915293519296919591169390928492636efc25c892602480840193919291829003018186803b158015612ea157600080fd5b505afa158015612eb5573d6000803e3d6000fd5b505050506040513d6020811015612ecb57600080fd5b505160008581526018602090815260408083205463ffffffff80861685526011845282852062ffffff600884901c16808752908552838620805460ff8516600281900a199091169091556001600160a01b038e16875260018b0190955292909420805460ff191690559394509190921691612f468685613a21565b63ffffffff841660009081526013602081815260408084208054600019019081905560168352932091905290612fbe5763ffffffff85166000908152601260209081526040808320805460ff1916905560148252808320805462ffffff199081169091556015909252909120805490911690556130fa565b600080612fcb8787613b1a565b63ffffffff89166000908152601460209081526040808320805462ffffff80881662ffffff199283161790925560159093529220805492841692909116919091179055845491935091508390600019810190811061302557fe5b6000918252602080832060088304015463ffffffff8a8116855260018801909252604090932054865460079093166004026101000a90930416918591811061306957fe5b600091825260208083206008830401805460079093166004026101000a63ffffffff8181021990941695841602949094179093558816815260018501918290526040812054855490929190869060001981019081106130c457fe5b6000918252602080832060088304015460079092166004026101000a90910463ffffffff16835282019290925260400190205550505b805481908061310557fe5b60008281526020808220600860001990940193840401805463ffffffff600460078716026101000a8102199091169091559290935587821680825260118452604080832062ffffff8916845285529182902054825190815293840152908616828201526001600160a01b03808d1660608401528b166080830152517f1f5250a9421dec5866c50942e765a81c96e1abf75ac97c3710466156628170ed9181900360a00190a150505050505050505050565b60006131c233846128b2565b15610e44576001600160a01b0383166000908152600f60209081526040808320858452825280832033845290915281205460ff16600381111561320157fe5b1480613246575060036001600160a01b0384166000908152600f60209081526040808320868452825280832033845290915290205460ff16600381111561324457fe5b145b156132d2576001600160a01b0383166000818152600f602090815260408083208684528252808320600281018054600190810190915533808652828552838620805460ff191683179055918101805480830182559086528486200180546001600160a01b0319168317905594845260108352818420908452825282208054938401815582529020018290555b506001600160a01b0382166000908152600f60209081526040808320848452909152902060020154610e48565b60008061330b83613cb8565b6000908152600460205260409020600201549392505050565b600061332f33610b5f565b15610b5757600061333f83613cb8565b6003546000828152600460205260409020600201549192501180156133ba5750600081815260046020908152604080832033845290915281205460ff16600381111561338757fe5b14806133ba57506003600082815260046020908152604080832033845290915290205460ff1660038111156133b857fe5b145b15613415576000818152600460208181526040808420600281018054600190810190915533808752828552928620805460ff191682179055938352830180549384018155845292200180546001600160a01b03191690911790555b6000908152600460205260409020600201549050610ab7565b600061343933610b5f565b15610b5757600061344983613cb8565b600081815260046020526040902060020154909150156135235760005b6000828152600460205260409020600101548110156134e75760008281526004602052604081206001810180546003939190859081106134a257fe5b60009182526020808320909101546001600160a01b031683528201929092526040019020805460ff191660018360038111156134da57fe5b0217905550600101613466565b50600081815260046020526040812061350591600190910190613d68565b60009081526004602052604081206002908101919091559050610ab7565b6001915050610ab7565b6005548160405160200180838152602001828152602001925050506040516020818303038152906040528051906020012060058190555050565b601a54604080516325b953b360e01b81526001600160a01b03868116600483015291516000939290921691839183916325b953b39160248082019260209290919082900301818787803b1580156135bd57600080fd5b505af11580156135d1573d6000803e3d6000fd5b505050506040513d60208110156135e757600080fd5b505160408051630ddf84b960e31b81526001600160a01b038981166004830152915192935060009291851691636efc25c891602480820192602092909190829003018186803b15801561363957600080fd5b505afa15801561364d573d6000803e3d6000fd5b505050506040513d602081101561366357600080fd5b50516040805161ffff851681526001600160a01b03808b16602083015289168183015290519192507f1908c596ed8b427f6cb6af6c89233b2a49493ec730d9f9bb2a4ec6b21cba17cf919081900360600190a1826001600160a01b031663f3fc05f4886040518263ffffffff1660e01b815260040180826001600160a01b0316815260200191505060206040518083038186803b15801561370357600080fd5b505afa158015613717573d6000803e3d6000fd5b505050506040513d602081101561372d57600080fd5b5051801561373f575061ffff82811614155b15613a1557604080516001600160601b0319606089901b1660208083019190915282518083036014018152603490920183528151918101919091206000908152601882528281205463ffffffff8581168084526011855285842062ffffff600885901c16808652908652868520805460ff808716600281900a9092179092559286526012909652959093205491169392166138165763ffffffff84166000908152601260209081526040808320805460ff1916600117905560149091529020805462ffffff841662ffffff19909116179055613862565b63ffffffff841660009081526014602052604090205462ffffff808416911611156138625763ffffffff84166000908152601460205260409020805462ffffff191662ffffff84161790555b63ffffffff841660009081526015602052604090205462ffffff808416911610156138ae5763ffffffff84166000908152601560205260409020805462ffffff191662ffffff84161790555b50506005860180546004908117909155600884901c60ff90811691820161ffff8116600090815260078a01602090815260408083208054958a16600281900a90961790556001600160a01b038e1683526001808d01909252909120805460ff1916909117905561391e8986613ce7565b63ffffffff80861660008181526013602081815260408084208054600190810182556016845282862080548d8a16808952828401875285892082905592810182559087528487206008820401805460046007909316929092026101000a9283029290990219161790965593835260148152838320546015825292849020549181529354835161ffff8716815262ffffff9384169581019590955291168383015260608301526001600160a01b03808e1660808401528c1660a0830152517fd27cb85a67f8b4523a8d0dc55a1c670e7b1b9144953293b32c0e94a6e9f4f69f9181900360c00190a160019750505050505050506116cc565b600093505050506116cc565b63ffffffff811660009081526003830160205260408120546002840180549192916000198101908110613a5057fe5b90600052602060002090600891828204019190066004029054906101000a900463ffffffff16905080846002018381548110613a8857fe5b600091825260208083206008830401805460079093166004026101000a63ffffffff818102199094169584160294909417909355838116825260038701909252604080822085905591851681529081205560028401805480613ae657fe5b600082815260209020600860001990920191820401805463ffffffff600460078516026101000a0219169055905550505050565b63ffffffff8216600090815260126020526040812054819060ff16613b4457506000905080613cb1565b63ffffffff84166000908152601160209081526040808320600887901c62ffffff168085529252909120805460ff8616600281900a1990911691829055908015613bbd575050505063ffffffff831660009081526014602090815260408083205460159092529091205462ffffff918216925016613cb1565b63ffffffff871660009081526014602090815260408083205460159092529091205462ffffff9182169650811694508316851415613c4657845b8462ffffff168162ffffff161015613c445763ffffffff8816600090815260116020908152604080832062ffffff8516845290915290205415613c3c57809550613c44565b600101613bf7565b505b8262ffffff168462ffffff161415613cad57835b6001860362ffffff168162ffffff161115613cab5763ffffffff8816600090815260116020908152604080832062ffffff8516845290915290205415613ca257809450613cab565b60001901613c5a565b505b5050505b9250929050565b600554604080516020808201939093528082019390935280518084038201815260609093019052815191012090565b600282018054600181018255600082815260208082206008840401805463ffffffff96871660046007909616959095026101000a85810297021916959095179094559154908252600390930190915260409020600019919091019055565b604051806060016040528060008152602001600081526020016000151581525090565b5080546000825590600052602060002090810190613d869190613d89565b50565b5b80821115613d9e5760008155600101613d8a565b509056fe61646d696e436f6e6669726d6174696f6e5468726573686f6c6450726f706f73616c7265766f6b6554727573744368616e6e656c41646d696e6973747261746f72566f746572656d6f76655472757374416e63686f7246726f6d54727573744368616e6e656c566f7465a264697066735822122057241f35af2f3fbe02bddb1554bfabcaa2b9d148a3409df8886aeed827a233eb64736f6c63430007010033",
  "immutableReferences": {},
  "source": "pragma solidity ^0.7.1;\n//SPDX-License-Identifier: UNLICENSED\n\nimport \"./Interfaces/ITrustAnchorManager.sol\";\nimport \"./Interfaces/ITrustChannelManager.sol\";\n\nimport \"./Administrable.sol\";\n\n/// @author Chris Forrester, 2018+ Shyft. all rights reserved.\n\n/// @dev\n/// | The Trust Channel Manager is an interface for Trust Anchors to collaborate and share directed financial communications channels in as close to a friction-free way as possible.\n/// |\n/// | Trust Anchors sign up to collaborate on the Trust Channel, assigning rules that must be in place to allow for the interface to function. Verifiability of documentation is a key differentiating factor from other identity solutions.\n/// |\n/// | Technically, the Trust Channel contract acts as a service-interface aggregator, relying heavily on bit-field manipulation to associate the DAG (directed acyclic graph) relations of the participating trust anchor efficiently.\n/// |\n/// | This process creates bounds on logic, as lookup tables increase linearly.\n/// |\n/// | Within this flow, the Trust Channels are initially set up by the administrators of this smart contract and within each Trust Channel is the ability to add \"Trust Channel Administrators\", who can manage the membership of each Trust Channel.\n/// |\n/// | Some notes: Administrators of Trust Channels do not need to be Trust Anchors.\n/// | Trust Anchors assigned to Trust Channels must be verified Trust Anchors.\n/// | When Trust Anchors are added to a Trust Channel by the administrators of that Trust Channel, the Trust Anchor's Jurisdiction is added to the mapping of allowed Jurisdictions in the Trust Channel's routing functionality.\n/// @notice\n/// As this methodology evolves, Bloom filters could theoretically be utilized to allow a probablistic pathing that might need to have heavier lookups in the future.\n\n\n//@note:@todo:@next: examine the use of a de-facto \"global id type\" section, with Shyft running the\n// attestor component via reading certificate-equivalents from signed messages having a valid\n// certificate from some third-party entity.\n//\n// second forms of identity may be used and collected like PGP methods.\n\n\n//@note:@todo:@next: structurally we would want the channel rules to be able to specify what tokens are able to be\n// transferred on what channel. Checking for which routes are available could be done before any messages need to be passed.\n\ncontract TrustChannelManager is Administrable, ITrustChannelManager {\n    // ** trust channel management ** //\n\n    /// @dev Event for the setup of a new Trust Channel.\n    event EVT_SetupTrustChannel(address _trustChannelAddress,\n                                address _primaryAdminAddress,\n                                bool _activateByDefault,\n                                bytes32 trustChannelKeccak,\n                                uint256 numTrustChannels);\n\n    /// @dev Event for the activation of a Trust Channel.\n    event EVT_ActivateTrustChannel(address _trustChannelAddress);\n\n    /// @dev Event for the deactivation of a Trust Channel.\n    event EVT_DeactivateTrustChannel(address _trustChannelAddress);\n\n    /// @dev Event for the check of whether the given address is a Trust Channel administrator.\n    event EVT_IsTrustChannelAdministrator(  address _trustChannelAdministratorAddress,\n                                            address _trustChannelAddress,\n                                            bool isTrustChannelAdministrator);\n\n    /// @dev Event for the retrieval of a Jurisdiction from a Trust Anchor.\n    event EVT_ReceivedJurisdictionFromTrustAnchor(  uint16 jurisdiction,\n                                                    address trustAnchorAddress,\n                                                    address trustChannelAddress );\n\n    /// @dev Event for the creation of a new Trust Channel with a given Trust Anchor.\n    event EVT_ComposedTrustChannelWithTrustAnchor(  uint256 composedBitField,\n                                                    uint32 trustAnchorIndex,\n                                                    uint32 trustChannelIndex,\n                                                    address _trustAnchorAddress,\n                                                    address _trustChannelAddress );\n\n    /// @dev Event for the addition of a Trust Anchor to a Trust Channel.\n    event EVT_AddedTrustAnchorToTrustChannel(   uint256 ruleStorageIndex,\n                                                uint24 trustChannelLowestSubmapNumber,\n                                                uint24 trustChannelHighestSubmapNumber,\n                                                uint256 numTrustChannelsAssociatedToThisTrustAnchor,\n//                                                uint32 trustAnchorIndex,\n                                                address _trustAnchorAddress,\n                                                address _trustChannelAddress );\n\n    /// @dev Event for the removal of a Trust Anchor to a Trust Channel.\n    event EVT_RemovedTrustAnchorFromTrustChannel(   uint256 trustChannelIndexBitField,\n                                                    uint32 trustAnchorIndex,\n                                                    uint32 trustChannelIndex,\n                                                    address _trustAnchorAddress,\n                                                    address _trustChannelAddress);\n\n    /// @dev Struct for the Trust Channel Map.\n    struct trustChannelMap {\n        bool isActive;\n        bool doesExist;\n        mapping(address => bool) trustAnchorAddressExists;\n\n        uint32[] trustAnchorsArray;\n        mapping(uint32=>uint256) trustAnchorsArrayPositionMapping;\n//        uint256[] trustAnchorIndexMapEXBitField;\n\n        trustChannelRules channelRules;\n    }\n\n    /// @dev simple constant for \"no link\" to cut down on runtime gas costs.\n    uint32 NO_LINK = 2**32-1;\n\n    /// @dev Mapping of Trust Channel addresses to a Trust Channel hash value.\n    mapping(address => bytes32) trustChannelAddressToTrustChannelKeccak;\n\n    /// @dev Mapping of Trust Channel hash to a Trust Channel Trust Channel Map struct.\n    mapping(bytes32 => trustChannelMap) trustChannelKeccakToTrustChannelMap;\n\n    /// @dev Number of Trust Channels in this contract.\n    uint32 public numTrustChannels;\n\n    /// @dev Mapping of administrators that exist in this Trust Channel.\n    mapping(address => mapping(address => bool)) trustChannelAdministratorExistsMapping;\n\n    /// @dev Mapping of administrators that by integer Index in this Trust Channel.\n    mapping(address => mapping(address => uint64)) trustChannelAdministratorsIndexMapping;\n\n    /// @dev Mapping of administrators array in a Trust Channel.\n    mapping(address => address[]) trustChannelAdministratorsArray;\n\n    /// @dev Mapping of number of administrators in a Trust Channel.\n    mapping(address => uint256) numActiveTrustChannelAdministrators;\n\n    /// @dev Mapping of a Trust Channel address to the Trust Channel Key Permissions (for multi-sig via key-value hash).\n    mapping (address => mapping(bytes32 => trustChannelKeyPermissions)) trustChannelAdministratorMultisignPermissionedKeys;\n\n    /// @dev Mapping of a Trust Channel address to the Trust Channel Key Permissions array (for multi-sig via key-value hash).\n    mapping (address => mapping(address => bytes32[])) trustChannelAdministratorToMultisignPermissionedKeysArray;\n\n    /// @dev | Struct of the Key Permissions (for multi-sig via key-value hash) for Trust Channel administrators.\n    ///      | This functions nearly identical to the Administrable contract's methods.\n    struct trustChannelKeyPermissions {\n        mapping(address => KeyPermissionAccess) trustChannelAdministratorSignatures;\n        address[] trustChannelAdministrators;\n\n        uint256 permissionLevel;\n    }\n\n    /// @dev | Mapping of a Trust Channel address to the Trust Channel Indexed Bit Field, within a 256-bit \"Sub-map\" of the Trust Channels.\n    ///      | This is an array of 0 & 1's that correspond to Trust Channel that have been added to this contract, corresponding to the Index per Trust Channel (first Trust Channel is the first bit, etc.)\n    ///      | Internally, the Shyft Core architecture's Route functionality is the most efficient per-32 bits (each bit representing an Indexed Trust Channel), with another performance (gas) benefit with the first 256 bits being most efficient, the second 256 bits being slightly less, and so on.\n    mapping(uint32 => mapping(uint24 => uint256)) trustAnchorIndexToTrustChannelIndexBitField;\n\n    /// @dev Mapping of whether a Trust Anchor (by Index) is associated to any Trust Channels.\n    mapping(uint32 => bool) trustAnchorIndexAssociatedToAnyTrustChannels;\n\n    /// @dev Mapping of Trust Anchor (by Index) to the number of Trust Channels it is associated to.\n    mapping(uint32 => uint256) trustAnchorIndexNumberOfTrustChannelsAssociated;\n\n    /// @dev Mapping of the Trust Anchor (by Index) to the \"Lowest Sub-map Number\", which is the lowest Trust Channel \"Sub-map\" (256 bits) that this Trust Anchor is associated to.\n    mapping(uint32 => uint24) trustAnchorIndexToTrustChannelLowestSubmapNumber;\n\n    /// @dev Mapping of the Trust Anchor (by Index) to the \"Highest Sub-map Number\", which is the highest Trust Channel \"Sub-map\" (256 bits) that this Trust Anchor is associated to.\n    mapping(uint32 => uint24) trustAnchorIndexToTrustChannelHighestSubmapNumber;\n\n    /// @dev | Struct for Trust Anchor Associations\n    ///      | Per Trust Anchor Index, an array of Trust Channel Indexes that this Trust Anchor is associated to, and, per Trust Anchor Index, an array of Trust Channel Indexes Mappings for array swap support on removal of this Trust Address from Trust Channels it is associated to.\n    /// @notice since Solidity doesn't really allow for re-sorting arrays, any of these that are removed later on will be marked as 2**32-1 (as trust channel 0 is a valid number).\n    struct trustAnchorAssociations {\n        uint32[] associatedTrustChannelIndexesArray;\n        mapping(uint32 => uint256) associatedTrustChannelIndexesMapping;\n    }\n\n    /// @dev Mapping of the Trust Anchor Index to associations to that Trust Anchor.\n    mapping(uint32 => trustAnchorAssociations) trustAnchorIndexToAssociations;\n\n    /// @dev Mapping of the Trust Channel Index to the Trust Channel Hash\n    mapping(uint32 => bytes32) trustChannelIndexToTrustChannelKeccak;\n\n    /// @dev Mapping of the Trust Channel Hash to the Trust Channel Index\n    mapping(bytes32 => uint32) trustChannelKeccakToTrustChannelIndex;\n\n    /// @dev Mapping of the Trust Channel Index to the Trust Channel Address\n    mapping(uint32 => address) trustChannelIndexToTrustChannelAddress;\n\n    /// @dev Base constant for no Jurisdiction set, the default for all Verified Trust Anchors.\n    uint16 constant NoJurisdiction = 2 ** 16 - 1;\n\n    /// @dev Address for the Trust Anchor Manager that is linked to this contract.\n    address public trustAnchorManagerAddress;\n\n    /// @dev Address for the Trust Anchor Storage that is linked to this contract.\n    address public trustAnchorStorageAddress;\n\n    /// @dev Initializes Trust Channel Manager with the owner set to the calling public address.\n\n    constructor() {\n        owner = msg.sender;\n    }\n\n    //@note:@here:@todo:@next: setup the following two functions to be multisig through Administrable, and write tests\n    // to match.\n\n    /// @param _trustAnchorManagerAddress The smart contract address for the Trust Anchor Manager that should be linked.\n    /// @dev | Links Trust Anchor Manager to this contract's function flow.\n    ///      | Uses Multi-signature permissions.\n    /// @return result\n    ///    | 0: not an administrator\n    ///    | 1: not enough administrators have permissioned change\n    ///    | 2: set trust anchor manager address\n\n    function setTrustAnchorManagerAddress(address _trustAnchorManagerAddress) public returns (uint8 result) {\n      require(_trustAnchorManagerAddress != address(0));\n\n      if (isAdministrator(msg.sender)) {\n          bytes32 keyKeccak = keccak256(abi.encodePacked(\"trustAnchorManagerAddress\", _trustAnchorManagerAddress));\n\n          uint256 numPermissions = getPermissionsForMultisignKey(keyKeccak);\n\n          bool permittedToModify;\n\n          if (numPermissions >= adminConfirmationThreshold) {\n              permittedToModify = true;\n          } else {\n              uint256 numConfirmedPermissions = adminApplyAndGetPermissionsForMultisignKey(keyKeccak);\n\n              if (numConfirmedPermissions >= adminConfirmationThreshold) {\n                  permittedToModify = true;\n              }\n          }\n\n          if (permittedToModify == true) {\n              trustAnchorManagerAddress = _trustAnchorManagerAddress;\n\n              adminResetPermissionsForMultisignKey(keyKeccak);\n\n              // set trust anchor manager address\n              return 2;\n\n          } else {\n              // not enough administrators have permissioned change\n              return 1;\n          }\n      } else {\n          // not an administrator\n          return 0;\n      }\n    }\n\n\n    /// @param _trustAnchorStorageAddress The smart contract address for the Trust Anchor Storage that should be linked.\n    /// @dev | Links Trust Anchor Storage to this contract's function flow.\n    ///      | Uses Multi-signature permissions.\n    /// @return result\n    ///    | 0: not an administrator\n    ///    | 1: not enough administrators have permissioned change\n    ///    | 2: set trust anchor storage address\n\n    function setTrustAnchorStorageAddress(address _trustAnchorStorageAddress) public returns (uint8 result) {\n        require(_trustAnchorStorageAddress != address(0));\n\n        if (isAdministrator(msg.sender)) {\n            bytes32 keyKeccak = keccak256(abi.encodePacked(\"trustAnchorStorageAddress\", _trustAnchorStorageAddress));\n\n            uint256 numPermissions = getPermissionsForMultisignKey(keyKeccak);\n\n            bool permittedToModify;\n\n            if (numPermissions >= adminConfirmationThreshold) {\n                permittedToModify = true;\n            } else {\n                uint256 numConfirmedPermissions = adminApplyAndGetPermissionsForMultisignKey(keyKeccak);\n\n                if (numConfirmedPermissions >= adminConfirmationThreshold) {\n                    permittedToModify = true;\n                }\n            }\n\n            if (permittedToModify == true) {\n                trustAnchorStorageAddress = _trustAnchorStorageAddress;\n\n                adminResetPermissionsForMultisignKey(keyKeccak);\n\n                // set trust anchor storage address\n                return 2;\n\n            } else {\n                // not enough administrators have permissioned change\n                return 1;\n            }\n        } else {\n            // not an administrator\n            return 0;\n        }\n    }\n\n\n    /// @param _trustAnchorAddress The smart contract address that is checked for Verified status.\n    /// @dev | Checks whether a Trust Anchor is verified, using a public address. Uses the Trust Anchor Manager linkage to return results.\n    /// @return result\n    ///    | false = not verified\n    ///    | true = is verified\n\n    function isTrustAnchorVerified(address _trustAnchorAddress) internal view returns (bool result){\n        ITrustAnchorManager trustAnchorManager = ITrustAnchorManager(trustAnchorManagerAddress);\n\n        if (trustAnchorManager.isTrustAnchorVerified(_trustAnchorAddress)) {\n            //verified address\n            return true;\n        } else {\n            //address not verified\n            return false;\n        }\n    }\n\n\n    /// @param _trustChannelAddress An ethereum-compatible address, used to identify this Trust Channel.\n    /// @param _primaryAdminAddress The address for the primary administrator for this Trust Channel.\n    /// @param _activateByDefault A boolean signifying whether this Trust Channel is activated by default.\n    /// @dev | Creates up a new Trust Channel.\n    ///      | The identifier for the Trust Channel is any ethereum-compatible address (to allow for off-chain verification of Trust Channel ownership rights via signature, for example). The Primary administrator is set, with an additional variable to signify whether this Trust Channel is activated by default (could be used delaying the ultimate activation of this Trust Channel until other parameters have been set).\n    ///      | This function is called by administrators of this smart contract.\n    ///      | Uses Multi-signature permissions.\n    /// @return result\n    ///    | 0 = not an administrator\n    ///    | 1 = not enough administrators have permissioned change\n    ///    | 2 = trust channel already exists\n    ///    | 3 = added trust channel\n\n    function adminSetupTrustChannel(address _trustChannelAddress, address _primaryAdminAddress, bool _activateByDefault) public returns (uint8 result) {\n        if (isAdministrator(msg.sender)) {\n            bytes32 keyKeccak = keccak256(abi.encodePacked(\"adminSetupTrustChannelVote\", _trustChannelAddress, _primaryAdminAddress, _activateByDefault));\n\n            uint256 numPermissions = getPermissionsForMultisignKey(keyKeccak);\n\n            bool permittedToModify;\n\n            if (numPermissions >= adminConfirmationThreshold) {\n                permittedToModify = true;\n            } else {\n                uint256 numConfirmedPermissions = adminApplyAndGetPermissionsForMultisignKey(keyKeccak);\n\n                if (numConfirmedPermissions >= adminConfirmationThreshold) {\n                    permittedToModify = true;\n                }\n            }\n\n            if (permittedToModify == true) {\n                //@note:@here:@future perhaps this should be modified so that any particular ethereum address can own\n                // multiple trust channels?\n                bytes32 trustChannelKeccak = keccak256(abi.encodePacked(_trustChannelAddress));\n                trustChannelMap storage channelMap = trustChannelKeccakToTrustChannelMap[trustChannelKeccak];\n\n                adminResetPermissionsForMultisignKey(keyKeccak);\n\n                //@note:@here:@todo:@critical: when channel is mapped to \"false\", maybe it's far better to have the\n                // trust channel keccak as an indexed version hash -> it would never collide and there would be the\n                // ability to have historic proofs re: storage trie proof on latest confirmed block <3\n\n                if (channelMap.doesExist == false) {\n                    channelMap.doesExist = true;\n                    channelMap.isActive = _activateByDefault;\n                    channelMap.channelRules.isActive = true;\n                    channelMap.channelRules.trustChannelKeccak = trustChannelKeccak;\n                    channelMap.channelRules.rulesActive |= uint256(2)**uint8(trustChannelRulesEnum.VerificationPolicyEnforced);\n//                    channelMap.channelRules.rulesActive |= 2**uint8(trustChannelRulesEnum.AllowTransitAcrossOtherChannels);\n                    //keccack256(trustChannelKeccak, TrustChannelRules.AllowTransitAcrossOtherChannels, \"A\")\n//                    channelMap.channelRules.rulesActive |= 2**uint8(trustChannelRulesEnum.AllowTransitAcrossJurisdictions);\n//                    channelMap.channelRules.rulesActive |= 2**uint8(trustChannelRulesEnum.MinimumSyntheticKycLevelRequired);\n//                    channelMap.channelRules.rulesActive |= 2**uint8(trustChannelRulesEnum.AmountLimitsEnforced);\n                    //keccack256(trustChannelKeccak, TrustChannelRules.AllowTransitAcrossJurisdiction, \"A\")\n\n                    trustChannelAddressToTrustChannelKeccak[_trustChannelAddress] = trustChannelKeccak;\n\n                    trustChannelKeccakToTrustChannelIndex[trustChannelKeccak] = numTrustChannels;\n                    trustChannelIndexToTrustChannelKeccak[numTrustChannels] = trustChannelKeccak;\n                    trustChannelIndexToTrustChannelAddress[numTrustChannels] = _trustChannelAddress;\n\n                    //setup the base administrator for this trust channel.\n                    trustChannelAdministratorExistsMapping[_trustChannelAddress][_primaryAdminAddress] = true;\n                    trustChannelAdministratorsIndexMapping[_trustChannelAddress][_primaryAdminAddress] = 0;\n                    trustChannelAdministratorsArray[_trustChannelAddress].push(_primaryAdminAddress);\n\n                    numActiveTrustChannelAdministrators[_trustChannelAddress] = 1;\n\n                    numTrustChannels++;\n\n                    emit EVT_SetupTrustChannel(_trustChannelAddress, _primaryAdminAddress, _activateByDefault, trustChannelKeccak, numTrustChannels);\n\n                    //added trust channel\n                    return 3;\n                } else {\n                    //trust channel already exists\n                    return 2;\n                }\n            } else {\n                // not enough administrators have permissioned change\n                return 1;\n            }\n        } else {\n            // not an administrator\n            return 0;\n        }\n    }\n\n\n    /// @param _trustChannelAdministratorAddress The address for an administrator for this Trust Channel.\n    /// @param _trustChannelAddress An ethereum-compatible address, used to identify this Trust Channel.\n    /// @dev Checks whether any specific administrator has permissions to administrate the Trust Channel specified.\n    /// @return result\n    ///    | false = not trust channel administrator\n    ///    | true = is trust channel administrator\n\n    function isTrustChannelAdministrator(address _trustChannelAdministratorAddress,\n                                         address _trustChannelAddress) public view override returns (bool result) {\n//        emit EVT_IsTrustChannelAdministrator(_trustChannelAdministratorAddress, _trustChannelAddress, trustChannelAdministratorExistsMapping[_trustChannelAddress][_trustChannelAdministratorAddress]);\n        if (trustChannelAdministratorExistsMapping[_trustChannelAddress][_trustChannelAdministratorAddress] == true) {\n            //is trust channel administrator\n            return true;\n        } else {\n            //not trust channel administrator\n            return false;\n        }\n    }\n\n    /// @param _trustChannelAddress An ethereum-compatible address, used to identify this Trust Channel.\n    /// @param _index The Index for the administrator for this Trust Channel specified via the Index inside of the array of administrators assigned to this Trust Channel.\n    /// @dev Checks whether any specific administrator has permissions to administrate the Trust Channel specified.\n    /// @notice For mapping, if a value is passed that does not exist in the mapping array, the response will be an address(0).\n    /// @return result\n    ///    | address(0) = no trust channel administrator found for this specific index\n    ///    | [address] = address of trust channel administrator\n\n    function getTrustChannelAdministratorForTrustChannelByIndex(address _trustChannelAddress,\n                                                                uint64 _index) public view override returns (address result) {\n        if (trustChannelAdministratorsArray[_trustChannelAddress].length > _index) {\n            return trustChannelAdministratorsArray[_trustChannelAddress][_index];\n        } else {\n            //not no trust channel administrator found\n            return address(0);\n        }\n    }\n\n\n    //@note: general administrators are not allowed in this build.\n//\n//    //only general administrators should be able to add admins to any trust channel without reaching threshold\n//    //\n//    // 0 = not an administrator\n//    // 1 = already a trust channel administrator for this trust channel\n//    // 2 = set new trust channel administrator for this trust channel\n//\n//    function administratorAddTrustChannelAdministrator(address _newTrustChannelAdministratorAddress, address _trustChannelAddress) public returns (uint8 result) {\n//        if (isAdministrator(msg.sender)) {\n//            if (isTrustChannelAdministrator(_newTrustChannelAdministratorAddress, _trustChannelAddress) == false) {\n//                trustChannelAdministratorExistsMapping[_trustChannelAddress][_newTrustChannelAdministratorAddress] = true;\n//                trustChannelAdministratorsIndexMapping[_trustChannelAddress][_newTrustChannelAdministratorAddress] = uint64(trustChannelAdministratorsArray[_trustChannelAddress].length);\n//                trustChannelAdministratorsArray[_trustChannelAddress].push(_newTrustChannelAdministratorAddress);\n//                numActiveTrustChannelAdministrators[_trustChannelAddress] += 1;\n//\n//                //set new trust channel administrator for this trust channel\n//                return 2;\n//            } else {\n//                //already a trust channel administrator for this trust channel\n//                return 1;\n//            }\n//\n//        } else {\n//\n//            //not trust channel administrator\n//            return 0;\n//        }\n//    }\n//\n//    //returns:\n//    // 0 = not trust channel administrator\n//    // 1 = trust channel administrator doesn't exist for this trust channel\n//    // 1 = trust channel administrator removed for this trust channel\n//\n//    //@note:@todo:@internalaudit: does this work better if we had a multisig equivalent for the channel administrators?\n//    //@note:@todo:@test: write tests surrounding this function.\n//    function administratorRemoveChannelAdministrator(address _trustChannelAdministratorAddressToRemove,\n//                                                                 address _trustChannelAddress) public returns (uint8 result) {\n//        if (isAdministrator(msg.sender) == true) {\n//            if (isTrustChannelAdministrator(_trustChannelAdministratorAddressToRemove, _trustChannelAddress) == true) {\n//                trustChannelAdministratorExistsMapping[_trustChannelAddress][_trustChannelAdministratorAddressToRemove] = false;\n//\n//                //clear out the trust channel administrator association at a specific index so that the getter for the\n//                // trust channel administrators at index N returns a zero address.\n//                uint64 index = trustChannelAdministratorsIndexMapping[_trustChannelAddress][_trustChannelAdministratorAddressToRemove];\n//                trustChannelAdministratorsArray[_trustChannelAddress][index] = address(0);\n//                numActiveTrustChannelAdministrators[_trustChannelAddress] -= 1;\n//\n//                //trust channel administrator removed for this trust channel\n//                return 2;\n//            } else {\n//                //trust channel administrator doesn't exist for this trust channel\n//                return 1;\n//            }\n//        } else {\n//            //not trust channel administrator\n//            return 0;\n//        }\n//    }\n//\n\n\n    /// @param _newTrustChannelAdministratorAddress The address for an administrator for this Trust Channel.\n    /// @param _trustChannelAddress An ethereum-compatible address, used to identify this Trust Channel.\n    /// @dev | Adds a new administrator to this Trust Channel. Called by existing administrators of this Trust Channel.\n    ///      | Uses Multi-signature permissions.\n    /// @return result\n    ///    | 0 = not a trust channel administrator\n    ///    | 1 = already a trust channel administrator for this trust channel\n    ///    | 2 = added vote to set new trust channel administrator for this trust channel\n    ///    | 3 = set new trust channel administrator for this trust channel\n\n    function trustChannelAdministratorAddTrustChannelAdministrator(address _newTrustChannelAdministratorAddress,\n                                                                   address _trustChannelAddress) public returns (uint8 result) {\n\n        if (isTrustChannelAdministrator(msg.sender, _trustChannelAddress) == true) {\n            if (isTrustChannelAdministrator(_newTrustChannelAdministratorAddress, _trustChannelAddress) == false) {\n                //@note:@here:@todo:@critical: this is now dependant on the upper level contract to dictate multisig rules, needs\n                // to change immediately bc if top level sets threshold to 3 and there's previously only 2 admins, there could be\n                // many issues. \"adminConfirmationThreshold\" should be local to the trust channel admins.\n\n                bool doProceed = true;\n\n                if (numActiveTrustChannelAdministrators[_trustChannelAddress] > 1) {\n                    bytes32 keyKeccak = keccak256(abi.encodePacked(\"addTrustChannelAdministratorVote\", _newTrustChannelAdministratorAddress, _trustChannelAddress));\n                    uint256 multisignResult = trustChannelAdminApplyAndGetPermissionsForMultisignKey(_trustChannelAddress, keyKeccak);\n\n                    if (multisignResult < adminConfirmationThreshold) {\n                        doProceed = false;\n                    }\n                }\n\n                if (doProceed == true) {\n                    trustChannelAdministratorExistsMapping[_trustChannelAddress][_newTrustChannelAdministratorAddress] = true;\n                    trustChannelAdministratorsIndexMapping[_trustChannelAddress][_newTrustChannelAdministratorAddress] = uint64(trustChannelAdministratorsArray[_trustChannelAddress].length);\n                    trustChannelAdministratorsArray[_trustChannelAddress].push(_newTrustChannelAdministratorAddress);\n                    numActiveTrustChannelAdministrators[_trustChannelAddress] += 1;\n\n                    //set new trust channel administrator for this trust channel\n                    return 3;\n                } else {\n                    //added vote to set new trust channel administrator for this trust channel\n                    return 2;\n                }\n            } else {\n                //already a trust channel administrator for this trust channel\n                return 1;\n            }\n        } else {\n            //not a trust channel administrator\n            return 0;\n        }\n    }\n\n\n    /// @param _trustChannelAdministratorAddressToRemove The address for an administrator for this Trust Channel that should be removed from this Trust Channel's administrators.\n    /// @param _trustChannelAddress An ethereum-compatible address, used to identify this Trust Channel.\n    /// @dev | Removes an administrator to this Trust Channel. Called by existing administrators of this Trust Channel.\n    ///      | Uses Multi-signature permissions.\n    /// @return result\n    ///    | 0 = not trust channel administrator\n    ///    | 1 = trust channel administrator doesn't exist for this trust channel\n    ///    | 2 = needs more administrator votes\n    ///    | 3 = trust channel administrator removed for this trust channel\n\n    function trustChannelAdministratorRemoveTrustChannelAdministrator(address _trustChannelAdministratorAddressToRemove,\n                                                                      address _trustChannelAddress) public returns (uint8 result) {\n        if (isTrustChannelAdministrator(msg.sender, _trustChannelAddress)) {\n            if (isTrustChannelAdministrator(_trustChannelAdministratorAddressToRemove, _trustChannelAddress) == true) {\n                //@note:@here:@todo:@critical: this is now dependant on the upper level contract to dictate multisig rules, needs\n                // to change immediately bc if top level sets threshold to 3 and there's previously only 2 admins, there could be\n                // many issues. \"adminConfirmationThreshold\" should be local to the trust channel admins.\n\n                bool doProceed = true;\n\n                if (numActiveTrustChannelAdministrators[_trustChannelAddress] > 1) {\n                    bytes32 keyKeccak = keccak256(abi.encodePacked(\"revokeTrustChannelAdministratorVote\", _trustChannelAdministratorAddressToRemove, _trustChannelAddress));\n                    uint256 multisignResult = trustChannelAdminApplyAndGetPermissionsForMultisignKey(_trustChannelAddress, keyKeccak);\n\n                    if (multisignResult < adminConfirmationThreshold) {\n                        doProceed = false;\n                    }\n                }\n\n                if (doProceed == true) {\n                    trustChannelAdministratorExistsMapping[_trustChannelAddress][_trustChannelAdministratorAddressToRemove] = false;\n                    uint64 index = trustChannelAdministratorsIndexMapping[_trustChannelAddress][_trustChannelAdministratorAddressToRemove];\n                    trustChannelAdministratorsArray[_trustChannelAddress][index] = address(0);\n                    numActiveTrustChannelAdministrators[_trustChannelAddress] -= 1;\n\n                    //@note:@todo:@here:@critical: for local confirmation threshold, reduce said threshold if there\n                    // are not enough admins.\n                    //@note: cannot remove past the multisig limit.\n                    // like \"revokeAdministrator\" in \"Administrable.sol\"\n\n                    //trust channel administrator removed for this trust channel\n                    return 3;\n                } else {\n                    //needs more administrator votes\n                    return 2;\n                }\n            } else {\n                //trust channel administrator doesn't exist for this trust channel\n                return 1;\n            }\n        } else {\n            //not trust channel administrator\n            return 0;\n        }\n    }\n\n\n    // @note re: removal of trust channels\n    // thoughts; you'd be able to process offline the users affected by that trust channel, and manually remove the trust channel\n    // from each, and from all of the trust anchors that it had been associated to. After that, it could be re-assigned.\n    // this could be a very heavy gas costs #statisticalmodelling.\n\n    // it should work fine across time & scale, the earlier channels can be rearranged and interestingly become commodities for\n    // guaranteed faster access/transport time (since the mapping speed is faster with the lower indexes).\n\n    /// @param _trustChannelAddress An ethereum-compatible address, used to identify this Trust Channel.\n    /// @dev | Deactivates a Trust Channel. Deactivating rather than removing the Trust Channel enables the routing function(s) to quickly determine pass/fail conditions. Called by administrators of this smart contract.\n    ///      | Uses Multi-signature permissions.\n    /// @return result\n    ///    | 0 = not administrator\n    ///    | 1 = not enough administrators have permissioned change\n    ///    | 2 = trust channel deactivated\n\n    function adminDeactivateTrustChannel(address _trustChannelAddress) public returns (uint8 result) {\n       if (isAdministrator(msg.sender)) {\n           bytes32 keyKeccak = keccak256(abi.encodePacked(\"deactivateTrustChannel\", _trustChannelAddress));\n\n           uint256 numPermissions = getPermissionsForMultisignKey(keyKeccak);\n\n           bool permittedToModify;\n\n           if (numPermissions >= adminConfirmationThreshold) {\n               permittedToModify = true;\n           } else {\n               uint256 numConfirmedPermissions = adminApplyAndGetPermissionsForMultisignKey(keyKeccak);\n\n               if (numConfirmedPermissions >= adminConfirmationThreshold) {\n                   permittedToModify = true;\n               }\n           }\n\n           if (permittedToModify == true) {\n               bytes32 trustChannelKeccak = keccak256(abi.encodePacked(_trustChannelAddress));\n\n               trustChannelKeccakToTrustChannelMap[trustChannelKeccak].isActive = false;\n\n               adminResetPermissionsForMultisignKey(keyKeccak);\n\n               emit EVT_DeactivateTrustChannel(_trustChannelAddress);\n\n               //trust channel deactivated\n               return 2;\n           } else {\n               //not enough administrators have permissioned change\n               return 1;\n           }\n       } else {\n           //not an administrator\n           return 0;\n       }\n    }\n\n\n    /// @param _trustChannelAddress An ethereum-compatible address, used to identify this Trust Channel.\n    /// @dev | Reactivates a previously deactivated Trust Channel. Called by administrators of this smart contract.\n    ///      | Uses Multi-signature permissions.\n    /// @return result\n    ///    | 0 = not administrator\n    ///    | 1 = not enough administrators have permissioned change\n    ///    | 2 = trust channel rules do not allow reactivation\n    ///    | 3 = trust channel reactivated\n\n    function adminReactivateTrustChannel(address _trustChannelAddress) public returns (uint8 result) {\n        if (isAdministrator(msg.sender)) {\n            bytes32 keyKeccak = keccak256(abi.encodePacked(\"reactivateTrustChannel\", _trustChannelAddress));\n\n            uint256 numPermissions = getPermissionsForMultisignKey(keyKeccak);\n\n            bool permittedToModify;\n\n            if (numPermissions >= adminConfirmationThreshold) {\n                permittedToModify = true;\n            } else {\n                uint256 numConfirmedPermissions = adminApplyAndGetPermissionsForMultisignKey(keyKeccak);\n\n                if (numConfirmedPermissions >= adminConfirmationThreshold) {\n                    permittedToModify = true;\n                }\n            }\n\n            if (permittedToModify == true) {\n                bytes32 trustChannelKeccak = keccak256(abi.encodePacked(_trustChannelAddress));\n                trustChannelMap storage channelMap = trustChannelKeccakToTrustChannelMap[trustChannelKeccak];\n\n                adminResetPermissionsForMultisignKey(keyKeccak);\n\n                if (channelMap.doesExist == true) {\n                    channelMap.isActive = true;\n\n                    emit EVT_ActivateTrustChannel(_trustChannelAddress);\n\n                    //trust channel reactivated\n                    return 3;\n                } else {\n                    //trust channel rules do not allow reactivation\n                    return 2;\n                }\n            } else {\n                //not enough administrators have permissioned change\n                return 1;\n            }\n        } else {\n            //not an administrator\n            return 0;\n        }\n    }\n\n\n    /// @param _trustChannelAddress An ethereum-compatible address, used to identify this Trust Channel.\n    /// @param _keyKeccak A hash of the key-value store that the administrators of Trust Channels can sign off on.\n    /// @dev Administrator this function applies multisig functionality for the administrators of specific Trust Channels.\n    /// @return result whether to proceed with the functions that call this relating to the hash of the key-value store\n\n    function requireAndApplyTrustChannelAdministratorsConfirmation(address _trustChannelAddress, bytes32 _keyKeccak) public returns (bool result) {\n        //@note:@here:@todo:@critical: this is now dependant on the upper level contract to dictate multisig rules, needs\n        // to change immediately bc if top level sets threshold to 3 and there's previously only 2 admins, there could be\n        // many issues. \"adminConfirmationThreshold\" should be local to the trust channel admins.\n\n        bool doProceed = true;\n\n        if (numActiveTrustChannelAdministrators[_trustChannelAddress] > 1) {\n            uint256 multisignResult = trustChannelAdminApplyAndGetPermissionsForMultisignKey(_trustChannelAddress, _keyKeccak);\n\n            if (multisignResult < adminConfirmationThreshold) {\n                doProceed = false;\n            }\n        }\n\n        //whether to proceed with the functions that call this relating to the hash of the key-value store\n        return doProceed;\n    }\n\n\n    //@note:@next:@todo:@internalaudit: what happens to the existing users of the trust anchor (w / prior attestations) when the\n    // trust anchor is associated to this new trust channel. ie are new attestations required?\n    //\n    //@response: I'd assume that this is so.\n\n    /// @param _trustAnchorAddress The address of a Trust Anchor.\n    /// @param _trustChannelAddress An ethereum-compatible address, used to identify this Trust Channel.\n    /// @dev | Adds a Trust Anchor to a Trust Channel. Called by administrators of this Trust Channel.\n    ///      | The Trust Anchor must have been previously Onboarded + Verified + set their Jurisdiction through the Trust Anchor Manager contract that this contract is linked to.\n    ///      | Uses Multi-signature permissions.\n    /// @return result\n    ///    | 0 = not trust channel administrator\n    ///    | 1 = requires more administrator votes\n    ///    | 2 = trust channel not active\n    ///    | 3 = trust anchor already within mapping\n    ///    | 4 = could not set up trust anchor (trust anchor has not been onboarded + verified and then has set their jurisdiction)\n    ///    | 5 = trust anchor added to trust channel\n\n    function trustChannelAdministratorAddTrustAnchorToTrustChannel( address _trustAnchorAddress,\n                                                                    address _trustChannelAddress) public returns (uint8 result) {\n        if (isTrustChannelAdministrator(msg.sender, _trustChannelAddress) == true) {\n            bytes32 keyKeccak = keccak256(abi.encodePacked(\"addTrustAnchorToTrustChannelVote\", _trustAnchorAddress, _trustChannelAddress));\n\n            if (requireAndApplyTrustChannelAdministratorsConfirmation(_trustChannelAddress, keyKeccak) == true) {\n                bytes32 trustChannelKeccak = trustChannelAddressToTrustChannelKeccak[_trustChannelAddress];\n                trustChannelMap storage channelMap = trustChannelKeccakToTrustChannelMap[trustChannelKeccak];\n\n                trustChannelAdminResetPermissionsForMultisignKey(_trustChannelAddress, keyKeccak);\n\n                if (channelMap.isActive == true) {\n                    if (channelMap.trustAnchorAddressExists[_trustAnchorAddress] == false) {\n                        bool setupResult = setupTrustChannelWithNewTrustAnchor(_trustAnchorAddress, _trustChannelAddress, channelMap);\n\n                        if (setupResult == true) {\n                            //trust anchor added to trust channel\n\n                            return 5;\n                        }  else {\n                            //could not set up trust anchor (trust anchor has not been onboarded + verified and then has set their jurisdiction)\n                            return 4;\n                        }\n                    } else {\n                        //trust anchor already within mapping\n                        return 3;\n                    }\n                } else {\n                    //trust channel not active\n                    return 2;\n                }\n            } else {\n                //requires more administrator votes\n                return 1;\n            }\n        } else {\n            //not channel administrator\n            return 0;\n        }\n    }\n\n    /// @param _trustAnchorAddress The address of a Trust Anchor.\n    /// @param _trustChannelAddress An ethereum-compatible address, used to identify this Trust Channel.\n    /// @param _channelMap A [storage] struct passed in which associates with a particular Trust Channel.\n    /// @dev | Internal function that performs the addition of a Trust Anchor to a Trust Channel.\n    ///      | The Trust Anchor must have been previously Onboarded + Verified + set their Jurisdiction through the Trust Anchor Manager contract that this contract is linked to.\n    /// @return result\n    ///    | false = no trust anchor jurisdiction set (trust anchor may not have been onboarded + verified either)\n    ///    | true = trust anchor added to trust channel\n\n    function setupTrustChannelWithNewTrustAnchor(address _trustAnchorAddress, address _trustChannelAddress, trustChannelMap storage _channelMap) internal returns (bool result) {\n        //@note: need to check trust anchor jurisdiction in trust anchor manager lookup\n        ITrustAnchorManager trustAnchorManager = ITrustAnchorManager(trustAnchorManagerAddress);\n\n        //@note: the only way that a jurisdiction can be set is for the Trust Anchor to call the TrustAnchorManager contract *after* they have been Onboarded+Verified by the administrators of that contract.\n        // so a Trust Anchor that doesn't exist in the Shyft Core architecture will have no jurisdiction set.\n        uint16 jurisdiction = trustAnchorManager.getTrustAnchorJurisdiction(_trustAnchorAddress);\n        uint32 trustAnchorIndex = trustAnchorManager.getTrustAnchorIndex(_trustAnchorAddress);\n\n        emit EVT_ReceivedJurisdictionFromTrustAnchor(jurisdiction, _trustAnchorAddress, _trustChannelAddress);\n\n        if (trustAnchorManager.isTrustAnchorVerified(_trustAnchorAddress) && jurisdiction != NoJurisdiction) {\n            uint32 trustChannelIndex = trustChannelKeccakToTrustChannelIndex[keccak256(abi.encodePacked(_trustChannelAddress))];\n\n            //separate out the trust channel index number with the sub-mapping. this keeps alignment to 256 bits.\n            //uint24 because the maximum value is the trustChannelIndex (a uint32) shifted over 8 bits.\n            uint24 submapNumber = uint24(trustChannelIndex >> 8);\n            uint8 subIndex = uint8(trustChannelIndex % 256);\n\n            //when the mapping is done, it is OR'd with the 2(to the power of)trustChannelIndex, subIndex being bounded between 0->2**24-1.\n            //this indicates the trust channel index in a (bounded, but still very very high) address space.\n\n            trustAnchorIndexToTrustChannelIndexBitField[trustAnchorIndex][submapNumber] |= uint256(2 ** uint256(subIndex));\n\n//            emit EVT_ComposedTrustChannelWithTrustAnchor(trustAnchorIndexToTrustChannelIndexBitField[trustAnchorIndex][submapNumber], trustAnchorIndex, trustChannelIndex, _trustAnchorAddress, _trustChannelAddress);\n\n            //@note: necessary for trust anchor revocations, and attestation revocation.\n            //\n            //                        //separate out the trust anchor submap index with the sub-mapping. this keeps alignment to 256 bits.\n            //                        uint24 submapNumber = uint24(trustAnchorIndex >> 8);\n            //                        uint8 subIndex = uint8(trustAnchorIndex % 256);\n            //\n            //                        if (channelMap.trustAnchorIndexMapEXBitField.length < (submapNumber + 1)) {\n            //                            channelMap.trustAnchorIndexMapEXBitField = submapNumber + 1;\n            //                        }\n            //                        //@note:@todo:@next: consider the additional complexity if the trust anchor itself is revoked.\n            //                        channelMap.trustAnchorIndexMapEXBitField[submapNumber] |= (2 ** uint256(subIndex));\n\n            //and we keep track of the highest channel index for later high-speed compares. for example larger systems\n            //might require more 256 bit table lookup/compares.\n            if (trustAnchorIndexAssociatedToAnyTrustChannels[trustAnchorIndex] == false) {\n                trustAnchorIndexAssociatedToAnyTrustChannels[trustAnchorIndex] = true;\n                trustAnchorIndexToTrustChannelLowestSubmapNumber[trustAnchorIndex] = submapNumber;\n            } else {\n                if (trustAnchorIndexToTrustChannelLowestSubmapNumber[trustAnchorIndex] > submapNumber) {\n                    trustAnchorIndexToTrustChannelLowestSubmapNumber[trustAnchorIndex] = submapNumber;\n                }\n            }\n\n            if (trustAnchorIndexToTrustChannelHighestSubmapNumber[trustAnchorIndex] < submapNumber) {\n                trustAnchorIndexToTrustChannelHighestSubmapNumber[trustAnchorIndex] = submapNumber;\n            }\n\n\n            _channelMap.channelRules.rulesActive |= uint256(2)**uint8(trustChannelRulesEnum.AllowTransitAcrossJurisdictions);\n\n            //@note: This part of the function appends the jurisdiction mapping within a bit field, aligned to\n            // the rules storage index of the \"AllowTransitAcrossJurisdictions\" ruleset.\n\n            //separate out the jurisdiction number with the sub-mapping. this keeps alignment to 256 bits.\n            //@note: reusing \"submapNumber\" which is uint24, casting to uint8 in further.\n            submapNumber = uint8(jurisdiction >> 8);\n            subIndex = uint8(jurisdiction % 256);\n            //when the mapping is done, it is OR'd with the 2(to the power of)subIndex, subIndex being bounded between 0->255.\n            //this indicates the jurisdiction in a (bounded, but still very very high) address space.\n\n            uint16 ruleStorageIndex = uint16(2 ** uint256(trustChannelRulesEnum.AllowTransitAcrossJurisdictions)) + uint8(submapNumber);\n\n            _channelMap.channelRules.rulesStorage[ruleStorageIndex] |= bytes32(2 ** uint256(subIndex));\n\n            _channelMap.trustAnchorAddressExists[_trustAnchorAddress] = true;\n            addTrustAnchorToChannelMapArray(_channelMap, trustAnchorIndex);\n\n            trustAnchorIndexNumberOfTrustChannelsAssociated[trustAnchorIndex]++;\n\n            // setup the association mapping (the position in the array of associated indexes), for a potential removal event in the future\n            trustAnchorIndexToAssociations[trustAnchorIndex].associatedTrustChannelIndexesMapping[trustChannelIndex] = trustAnchorIndexToAssociations[trustAnchorIndex].associatedTrustChannelIndexesArray.length;\n            trustAnchorIndexToAssociations[trustAnchorIndex].associatedTrustChannelIndexesArray.push(trustChannelIndex);\n\n            emit EVT_AddedTrustAnchorToTrustChannel( ruleStorageIndex,\n                trustAnchorIndexToTrustChannelLowestSubmapNumber[trustAnchorIndex],\n                trustAnchorIndexToTrustChannelHighestSubmapNumber[trustAnchorIndex],\n                trustAnchorIndexNumberOfTrustChannelsAssociated[trustAnchorIndex],\n//                trustAnchorIndex,\n                _trustAnchorAddress,\n                _trustChannelAddress);\n\n            //trust anchor added to trust channel\n            return true;\n        } else {\n            //no trust anchor jurisdiction set (trust anchor may not have been onboarded + verified either)\n            return false;\n        }\n    }\n\n    /// @param _trustChannelAddress An ethereum-compatible address, used to identify this Trust Channel.\n    /// @dev Gets the number of active Trust Channel administrators for this specific Trust Channel/\n    /// @return result the number of active trust channel administrators for this trust channel\n\n    function getNumActiveTrustChannelAdministratorsForTrustChannel(address _trustChannelAddress) public view returns (uint256 result) {\n        return numActiveTrustChannelAdministrators[_trustChannelAddress];\n    }\n\n    /// @param _trustChannelAddress An ethereum-compatible address, used to identify this Trust Channel.\n    /// @param _keyKeccak the key for the multi-signature key-value request.\n    /// @dev Gets the permission level (whether enough administrators have signed off) for the multi-signature key-value hash for this Trust Channel.\n    /// @return result the the permission level of the key-value multi-signature confirmation step\n\n    function getPermissionsForMultisignKeyForTrustChannel(address _trustChannelAddress, bytes32 _keyKeccak) internal view returns (uint256 result) {\n        return trustChannelAdministratorMultisignPermissionedKeys[_trustChannelAddress][_keyKeccak].permissionLevel;\n    }\n\n\n    /// @param _trustChannelAddress An ethereum-compatible address, used to identify this Trust Channel.\n    /// @param _keyKeccak the key for the multi-signature key-value request.\n    /// @dev Gets whether a specific administrator of a Trust Channel has key signatures (and what their level is) based on a specific Trust Channel address and a hash for the key-value mapping of proposals within that Trust Channel's multi-signature voting.\n    /// @return result\n    ///    | 0 = not trust channel administrator\n    ///    | 1 = signature not found\n    ///    | 2 = signature found\n    ///    | 3 = access revoked\n\n\n    function trustChannelAdminGetSelfConfirmedFromMultisignKey(address _trustChannelAddress, bytes32 _keyKeccak) internal view returns (uint16 result) {\n        if (isTrustChannelAdministrator(msg.sender, _trustChannelAddress)) {\n            if (trustChannelAdministratorMultisignPermissionedKeys[_trustChannelAddress][_keyKeccak].trustChannelAdministratorSignatures[msg.sender] == KeyPermissionAccess.Revoked) {\n                //access revoked\n                return 3;\n            } else if (trustChannelAdministratorMultisignPermissionedKeys[_trustChannelAddress][_keyKeccak].trustChannelAdministratorSignatures[msg.sender] == KeyPermissionAccess.Signed) {\n                //signature found\n                return 2;\n            } else {\n                //signature not found\n                return 1;\n            }\n        } else {\n            //not trust channel administrator\n            return 0;\n        }\n    }\n\n\n    /// @param _trustChannelAddress An ethereum-compatible address, used to identify this Trust Channel.\n    /// @param _keyKeccak the key for the multi-signature key-value request.\n    /// @dev | Allows a Trust Channel administrator to applies their signature for a specific key-value hash in the proposal array of a Trust Channel's voting.\n    ///      | Gets the resultant permission level (# of Trust Channel administrators that have signed this key-value hash).\n    /// @return result\n    ///    | 0 = not trust channel administrator\n    ///    | 1 or greater = #confirmations\n\n    function trustChannelAdminApplyAndGetPermissionsForMultisignKey(address _trustChannelAddress, bytes32 _keyKeccak) internal returns (uint256 result) {\n        if (isTrustChannelAdministrator(msg.sender, _trustChannelAddress)) {\n              if (trustChannelAdministratorMultisignPermissionedKeys[_trustChannelAddress][_keyKeccak].trustChannelAdministratorSignatures[msg.sender] == KeyPermissionAccess.Unknown ||\n                trustChannelAdministratorMultisignPermissionedKeys[_trustChannelAddress][_keyKeccak].trustChannelAdministratorSignatures[msg.sender] == KeyPermissionAccess.Reset) {\n\n                trustChannelAdministratorMultisignPermissionedKeys[_trustChannelAddress][_keyKeccak].permissionLevel++;\n                trustChannelAdministratorMultisignPermissionedKeys[_trustChannelAddress][_keyKeccak].trustChannelAdministratorSignatures[msg.sender] = KeyPermissionAccess.Signed;\n\n                trustChannelAdministratorMultisignPermissionedKeys[_trustChannelAddress][_keyKeccak].trustChannelAdministrators.push(msg.sender);\n                trustChannelAdministratorToMultisignPermissionedKeysArray[_trustChannelAddress][msg.sender].push(_keyKeccak);\n              }\n            //#confirmations\n            return trustChannelAdministratorMultisignPermissionedKeys[_trustChannelAddress][_keyKeccak].permissionLevel;\n        } else {\n            //not trust channel administrator\n            return 0;\n        }\n    }\n\n    /// @param _trustChannelAddress An ethereum-compatible address, used to identify this Trust Channel.\n    /// @param _keyKeccak the key for the multi-signature key-value request.\n    /// @dev Resets the permission level (and individual trust channel administrator's signature states) for the key-value hash of a specific Trust Channel proposal.\n    /// @return result\n    ///    | 0 = not trust channel administrator\n    ///    | 1 = already reset\n    ///    | 2 = reset correctly\n\n    function trustChannelAdminResetPermissionsForMultisignKey(address _trustChannelAddress, bytes32 _keyKeccak) internal returns (uint8 result) {\n        if (isTrustChannelAdministrator(msg.sender, _trustChannelAddress)) {\n            if (trustChannelAdministratorMultisignPermissionedKeys[_trustChannelAddress][_keyKeccak].permissionLevel != 0) {\n                //remove administrator references\n                for (uint i = 0; i < trustChannelAdministratorMultisignPermissionedKeys[_trustChannelAddress][_keyKeccak].trustChannelAdministrators.length; i++) {\n                    trustChannelAdministratorMultisignPermissionedKeys[_trustChannelAddress][_keyKeccak].trustChannelAdministratorSignatures[trustChannelAdministratorMultisignPermissionedKeys[_trustChannelAddress][_keyKeccak].trustChannelAdministrators[i]] = KeyPermissionAccess.Reset;\n                }\n\n\n                //delete the main holding array\n                delete trustChannelAdministratorMultisignPermissionedKeys[_trustChannelAddress][_keyKeccak].trustChannelAdministrators;\n\n                //and reset the permission level\n                trustChannelAdministratorMultisignPermissionedKeys[_trustChannelAddress][_keyKeccak].permissionLevel = 0;\n\n                //reset correctly\n                return 2;\n            } else {\n                //already reset\n                return 1;\n            }\n        } else {\n            //not trust channel administrator\n            return 0;\n        }\n    }\n\n\n\n    //@note:@here:@todo:@critical:@test: write tests for this.\n\n    //@note: This function removes a trust anchor from a trust channel. This will have ripple effects to the\n    // users that the trust anchor has already attested to, potentially causing a lot of further subprocessing.\n    // It is not efficient to remove attestations en-masse, and this function will have to be carefully\n    // balanced towards its use-case.\n\n    // however.\n\n    // as the determination of how many changes can be done without incurring blockchain processing time\n    // (being a local process), there is an absolute knowledge of what the ripple effect will entail.\n\n    //@note:@todo:@critical: does the Juridiction mapping in the rules need to be checked?\n    //@note:@todo:@critical: should general administrators (not just the administrators of this particular trust channel)\n    // be allowed to remove a Trust Anchor if they've been Demoted in the Trust Anchor Manager contract that this contract\n    // is linked to?\n    //@note:@todo:@critical: make sure that submaps for trust anchor (by index) are updated for other parts of the architecture that depend on these (re: routing).\n\n\n    /// @param _trustAnchorAddress The address of a Trust Anchor.\n    /// @param _trustChannelAddress An ethereum-compatible address, used to identify this Trust Channel.\n    /// @dev | Allows a Trust Channel administrator to remove a Trust Anchor from a Trust Channel.\n    ///      | Uses Multi-signature permissions.\n    /// @notice There are many side effects from removing a Trust Anchor from a given Trust Channel. Care must be taken when doing performing this procedure.\n    /// @return result\n    ///    | 0 = not an administrator for this trust channel\n    ///    | 1 = requires more administrator votes\n    ///    | 2 = trust channel is not active\n    ///    | 3 = trust anchor is not within this trust channel\n    ///    | 4 = trust anchor successfully removed from trust channel\n\n    function trustChannelAdministratorRemoveTrustAnchorFromTrustChannel(address _trustAnchorAddress, address _trustChannelAddress) public returns (uint8 result) {\n        if (isTrustChannelAdministrator(msg.sender, _trustChannelAddress) == true) {\n            bytes32 keyKeccak = keccak256(abi.encodePacked(\"removeTrustAnchorFromTrustChannelVote\", _trustAnchorAddress, _trustChannelAddress));\n\n            if (requireAndApplyTrustChannelAdministratorsConfirmation(_trustChannelAddress, keyKeccak) == true) {\n                bytes32 trustChannelKeccak = trustChannelAddressToTrustChannelKeccak[_trustChannelAddress];\n                trustChannelMap storage channelMap = trustChannelKeccakToTrustChannelMap[trustChannelKeccak];\n\n                trustChannelAdminResetPermissionsForMultisignKey(_trustChannelAddress, keyKeccak);\n\n                if (channelMap.isActive == true) {\n                    if (channelMap.trustAnchorAddressExists[_trustAnchorAddress] == true) {\n                        removeTrustAnchorFromTrustChannel(_trustAnchorAddress, _trustChannelAddress);\n\n                        //trust anchor successfully removed from trust channel\n                        return 4;\n                    } else {\n                        //trust anchor is not within this trust channel\n                        return 3;\n                    }\n                } else {\n                    //trust channel not active\n                    return 2;\n                }\n            } else {\n                //requires more administrator votes\n                return 1;\n            }\n        } else {\n            //not an administrator for this trust channel\n            return 0;\n        }\n    }\n\n    //@note:@critical:@todo: allow Trust Anchors to remove themselves from trust channels?\n    // in the case of a trust anchor being associated to a trust channel who's routing additions are\n    // costing more gas in checks than the market can bear, the trust anchor could remove themselves\n    // from the channel.\n\n    /// @param _trustAnchorAddress The address of a Trust Anchor.\n    /// @param _trustChannelAddress An ethereum-compatible address, used to identify this Trust Channel.\n    /// @dev Internal function to remove a Trust Anchor from a Trust Channel.\n    /// @notice There are many side effects from removing a Trust Anchor from a given Trust Channel. Care must be taken when doing performing this procedure.\n\n    function removeTrustAnchorFromTrustChannel(address _trustAnchorAddress, address _trustChannelAddress) internal {\n        bytes32 trustChannelKeccak = trustChannelAddressToTrustChannelKeccak[_trustChannelAddress];\n        trustChannelMap storage channelMap = trustChannelKeccakToTrustChannelMap[trustChannelKeccak];\n\n        ITrustAnchorManager trustAnchorManager = ITrustAnchorManager(trustAnchorManagerAddress);\n\n        channelMap.trustAnchorAddressExists[_trustAnchorAddress] = false;\n\n        uint32 trustAnchorIndex = trustAnchorManager.getTrustAnchorIndex(_trustAnchorAddress);\n\n        uint32 trustChannelIndex = trustChannelKeccakToTrustChannelIndex[trustChannelKeccak];\n\n        //separate out the trust channel index number with the sub-mapping. this keeps alignment to 256 bits.\n        //uint24 because the maximum value is the trustChannelIndex (a uint32) shifted over 8 bits.\n        uint24 submapNumber = uint24(trustChannelIndex >> 8);\n        uint8 subIndex = uint8(trustChannelIndex % 256);\n\n        // To remove the Trust Channel mapped to the Trust Anchor, when the mapping is done, it is AND'd with\n        // the negated bit field of the 2(to the power of)trustChannelIndex, subIndex being bounded between 0->2**24-1.\n\n        trustAnchorIndexToTrustChannelIndexBitField[trustAnchorIndex][submapNumber] &= ~(uint256(2 ** uint256(subIndex)));\n\n        channelMap.trustAnchorAddressExists[_trustAnchorAddress] = false;\n        removeTrustAnchorFromChannelMapArray(channelMap, trustAnchorIndex);\n\n        trustAnchorIndexNumberOfTrustChannelsAssociated[trustAnchorIndex]--;\n\n        trustAnchorAssociations storage taAssociations = trustAnchorIndexToAssociations[trustAnchorIndex];\n\n        //and we keep track of the highest channel index for later high-speed compares. for example larger systems\n        //might require more 256 bit table lookup/compares.\n        if (trustAnchorIndexNumberOfTrustChannelsAssociated[trustAnchorIndex] == 0) {\n            // if there's no current associated trust channels, set the lookups appropriately and zero out the lowest & highest submap numbers\n            trustAnchorIndexAssociatedToAnyTrustChannels[trustAnchorIndex] = false;\n\n            trustAnchorIndexToTrustChannelLowestSubmapNumber[trustAnchorIndex] = 0;\n            trustAnchorIndexToTrustChannelHighestSubmapNumber[trustAnchorIndex] = 0;\n        } else {\n            //@note: update the highest and lowest submap indexes. this may be computationally unfeasible in a single step with massive #'s of trust channels\n            (uint24 lowestSubmapNumber, uint24 highestSubmapNumber) = calculateLowestAndHighestSubmapForTrustAnchorIndexWithRemovalOfTrustChannel(trustAnchorIndex, trustChannelIndex);\n\n            trustAnchorIndexToTrustChannelLowestSubmapNumber[trustAnchorIndex] = lowestSubmapNumber;\n            trustAnchorIndexToTrustChannelHighestSubmapNumber[trustAnchorIndex] = highestSubmapNumber;\n\n            // swap the association array's last element with the element in the position of this removed trust channel index\n            taAssociations.associatedTrustChannelIndexesArray[taAssociations.associatedTrustChannelIndexesMapping[trustChannelIndex]] = taAssociations.associatedTrustChannelIndexesArray[taAssociations.associatedTrustChannelIndexesArray.length - 1];\n\n            // re-association the mapping (the position in the array of associated indexes), for the removed trust channel index in the trust anchor's association array.\n            taAssociations.associatedTrustChannelIndexesMapping[taAssociations.associatedTrustChannelIndexesArray[taAssociations.associatedTrustChannelIndexesArray.length - 1]] = taAssociations.associatedTrustChannelIndexesMapping[trustChannelIndex];\n        }\n\n        // remove the last index in the array\n        taAssociations.associatedTrustChannelIndexesArray.pop();\n\n        emit EVT_RemovedTrustAnchorFromTrustChannel(trustAnchorIndexToTrustChannelIndexBitField[trustAnchorIndex][submapNumber], trustAnchorIndex, trustChannelIndex, _trustAnchorAddress, _trustChannelAddress);\n    }\n\n    /// @param _channelMap The Channel Map of a Trust Channel.\n    /// @param _trustAnchorIndex The Index of a Trust Anchor.\n    /// @dev Adds a Trust Anchor from a Trust Channel's array mapping.\n\n    function addTrustAnchorToChannelMapArray(trustChannelMap storage _channelMap, uint32 _trustAnchorIndex) internal {\n        _channelMap.trustAnchorsArray.push(_trustAnchorIndex);\n        _channelMap.trustAnchorsArrayPositionMapping[_trustAnchorIndex] = _channelMap.trustAnchorsArray.length - 1;\n    }\n\n    /// @param _channelMap The Channel Map of a Trust Channel.\n    /// @param _trustAnchorIndex The Index of a Trust Anchor.\n    /// @dev Removes a Trust Anchor from a Trust Channel's array mapping.\n\n    function removeTrustAnchorFromChannelMapArray(trustChannelMap storage _channelMap, uint32 _trustAnchorIndex) internal {\n        uint256 curArrayPosition = _channelMap.trustAnchorsArrayPositionMapping[_trustAnchorIndex];\n\n        uint32 lastElement = _channelMap.trustAnchorsArray[_channelMap.trustAnchorsArray.length - 1];\n        _channelMap.trustAnchorsArray[curArrayPosition] = lastElement;\n\n        _channelMap.trustAnchorsArrayPositionMapping[lastElement] = curArrayPosition;\n        _channelMap.trustAnchorsArrayPositionMapping[_trustAnchorIndex] = 0;\n\n        _channelMap.trustAnchorsArray.pop();\n    }\n\n    /// @param _trustChannelAddress The address of a Trust Channel.\n    /// @dev Gets the number of Trust Anchors within the Trust Channel's associated Trust Anchor set.\n    /// @return result the number of trust anchors associated to this trust channel\n\n    function getNumberOfTrustAnchorsForTrustChannel(address _trustChannelAddress) external view override returns (uint256 result) {\n        trustChannelMap storage channelMap = trustChannelKeccakToTrustChannelMap[trustChannelAddressToTrustChannelKeccak[_trustChannelAddress]];\n\n        return channelMap.trustAnchorsArray.length;\n    }\n\n    /// @param _trustChannelAddress The address of a Trust Channel.\n    /// @param _arrayIndex The array index for the Trust Anchor it wishes to receive.\n    /// @dev Gets a specific Trust Anchor by array index within the Trust Channel's associated Trust Anchors.\n    /// @return result a trust anchor address\n\n    function getTrustAnchorForTrustChannelByArrayIndex(address _trustChannelAddress, uint256 _arrayIndex) external view override returns (address result) {\n        ITrustAnchorManager trustAnchorManager = ITrustAnchorManager(trustAnchorManagerAddress);\n        trustChannelMap storage channelMap = trustChannelKeccakToTrustChannelMap[trustChannelAddressToTrustChannelKeccak[_trustChannelAddress]];\n\n        return trustAnchorManager.getTrustAnchorAddress(channelMap.trustAnchorsArray[_arrayIndex]);\n    }\n\n    /// @param _trustChannelAddress The address of a Trust Channel.\n    /// @dev Gets all of the associated Trust Anchor Addresses for a specific Trust Channel.\n    /// @return result an array of trust anchor addresses\n\n    function getAllTrustAnchorsForTrustChannel(address _trustChannelAddress) external view override returns (address[] memory result) {\n        ITrustAnchorManager trustAnchorManager = ITrustAnchorManager(trustAnchorManagerAddress);\n        trustChannelMap storage channelMap = trustChannelKeccakToTrustChannelMap[trustChannelAddressToTrustChannelKeccak[_trustChannelAddress]];\n\n        address[] memory allTrustAnchors = new address[](channelMap.trustAnchorsArray.length);\n\n        for (uint i = 0; i < channelMap.trustAnchorsArray.length; i++) {\n            allTrustAnchors[i] = trustAnchorManager.getTrustAnchorAddress(channelMap.trustAnchorsArray[i]);\n        }\n\n        return allTrustAnchors;\n    }\n\n    /// @param _trustAnchorAddress The address of a Trust Anchor.\n    /// @dev Gets all of the associated Trust Channel Addresses for a specific Trust Anchor.\n    /// @return an array of trust channel addresses\n\n    function getAllTrustChannelAddressesForTrustAnchor(address _trustAnchorAddress) public view returns (address[] memory) {\n        ITrustAnchorManager trustAnchorManager = ITrustAnchorManager(trustAnchorManagerAddress);\n\n        uint32 trustAnchorIndex = trustAnchorManager.getTrustAnchorIndex(_trustAnchorAddress);\n\n        uint32[] storage allTrustChannelIndexes = trustAnchorIndexToAssociations[trustAnchorIndex].associatedTrustChannelIndexesArray;\n\n        address[] memory allTrustChannelAddressesToReturn = new address[](allTrustChannelIndexes.length);\n\n        for (uint32 i = 0; i < allTrustChannelIndexes.length; i++) {\n            allTrustChannelAddressesToReturn[i] = trustChannelIndexToTrustChannelAddress[allTrustChannelIndexes[i]];\n        }\n\n        return allTrustChannelAddressesToReturn;\n    }\n\n    /// @param _trustAnchorAddress The address of a Trust Anchor.\n    /// @dev Gets all of the associated Trust Channel Indexes for a specific Trust Anchor\n    /// @return\n    ///    an array of trust channel indexes\n\n    function getAllTrustChannelIndexesForTrustAnchor(address _trustAnchorAddress) public view returns (uint32[] memory) {\n        ITrustAnchorManager trustAnchorManager = ITrustAnchorManager(trustAnchorManagerAddress);\n\n        uint32 trustAnchorIndex = trustAnchorManager.getTrustAnchorIndex(_trustAnchorAddress);\n\n        uint32[] storage allTrustChannelIndexes = trustAnchorIndexToAssociations[trustAnchorIndex].associatedTrustChannelIndexesArray;\n\n        uint32[] memory allTrustChannelIndexesToReturn = new uint32[](allTrustChannelIndexes.length);\n\n        for (uint32 i = 0; i < allTrustChannelIndexes.length; i++) {\n            allTrustChannelIndexesToReturn[i] = allTrustChannelIndexes[i];\n        }\n\n        return allTrustChannelIndexesToReturn;\n    }\n\n    /// @param _trustAnchorIndex The Index of a Trust Anchor.\n    /// @param _trustChannelIndex The Index of a Trust Channel.\n    /// @dev returns the lowest & highest submap numbers in regards to the removal of a Trust Channel from a specific Trust Anchor.\n    /// @return lowestSubmapNumber = the lowest submap (bitfields of 256 members) for this trust anchor's associated trust channels\n    /// @return highestSubmapNumber = the highest submap (bitfields of 256 members) for this trust anchor's associated trust channels\n\n    function calculateLowestAndHighestSubmapForTrustAnchorIndexWithRemovalOfTrustChannel(uint32 _trustAnchorIndex, uint32 _trustChannelIndex) internal returns (uint24 lowestSubmapNumber, uint24 highestSubmapNumber) {\n        // this function should never be called if there are no trust channel relationships, but if it is, return zeros for lowest & highest submap indexes.\n\n        if (trustAnchorIndexAssociatedToAnyTrustChannels[_trustAnchorIndex] == false) {\n            return (0, 0);\n        } else {\n            //separate out the trust channel index number with the sub-mapping. this keeps alignment to 256 bits.\n            //uint24 because the maximum value is the trustChannelIndex (a uint32) shifted over 8 bits.\n            uint24 submapNumber = uint24(_trustChannelIndex >> 8);\n            uint8 subIndex = uint8(_trustChannelIndex % 256);\n\n            // creates a bit field with exclusion of the trust channel like:\n            // assuming trust channel in question is at position 5\n            // 10011000\n            //\n            // does an AND like:\n            // 11110111\n\n            // ie.  10011000\n            //      AND\n            //      11110111\n            //      --------\n            //      10010000\n\n            // the result is that the submap *still has members*, which is one of the important things to check in this case (as if it still has members, the result would be the same)\n\n            uint256 submapPostRemoval = trustAnchorIndexToTrustChannelIndexBitField[_trustAnchorIndex][submapNumber] &= ~(uint256(2 ** uint256(subIndex)));\n\n            // easy return if the submap still has members in it - the highest & lowest submaps have not changed for this trust anchor.\n            if (submapPostRemoval != 0) {\n                return (trustAnchorIndexToTrustChannelLowestSubmapNumber[_trustAnchorIndex], trustAnchorIndexToTrustChannelHighestSubmapNumber[_trustAnchorIndex]);\n            } else {\n                // if it doesn't have members, we need to iterate backwards (or forwards) to check for equality in the\n                // lowest & highest submaps already assigned to this trust anchor\n\n                // set the local lowest & highest submap numbers to reduce lookups further on\n                lowestSubmapNumber = trustAnchorIndexToTrustChannelLowestSubmapNumber[_trustAnchorIndex];\n                highestSubmapNumber = trustAnchorIndexToTrustChannelHighestSubmapNumber[_trustAnchorIndex];\n\n                if (lowestSubmapNumber == submapNumber) {\n                    // we need to find the second lowest submap number, so we iterate forwards\n                    for (uint24 curSubmapNumber = lowestSubmapNumber; curSubmapNumber < highestSubmapNumber; curSubmapNumber++) {\n                        // if this bitfield is not 0, there's at least one trust channel in this submap that this trust anchor is assigned to.\n                        if (trustAnchorIndexToTrustChannelIndexBitField[_trustAnchorIndex][curSubmapNumber] != 0) {\n                            lowestSubmapNumber = curSubmapNumber;\n                            break;\n                        }\n                    }\n                }\n\n                if (highestSubmapNumber == submapNumber) {\n                    // we need to find the second highest submap number, so we iterate backwards\n                    for (uint24 curSubmapNumber = highestSubmapNumber; curSubmapNumber > lowestSubmapNumber - 1; curSubmapNumber--) {\n                        // if this bitfield is not 0, there's at least one trust channel in this submap that this trust anchor is assigned to.\n                        if (trustAnchorIndexToTrustChannelIndexBitField[_trustAnchorIndex][curSubmapNumber] != 0) {\n                            highestSubmapNumber = curSubmapNumber;\n                            break;\n                        }\n                    }\n                }\n\n                return (lowestSubmapNumber, highestSubmapNumber);\n            }\n        }\n    }\n\n    /// @param _trustAnchorAddress The Address of a Trust Anchor.\n    /// @dev Gets the lowest \"submap number\" for a given Trust Anchor (by Address), the lowest Trust Channel \"Sub-map\" (256 bits) that this Trust Anchor is associated to.\n    /// @return result the lowest sub-map of trust channels that this trust anchor is associated to.\n\n    function getTrustChannelLowestSubmapNumberForTrustAnchorAddress(address _trustAnchorAddress) public view returns (uint24 result) {\n        ITrustAnchorManager trustAnchorManager = ITrustAnchorManager(trustAnchorManagerAddress);\n\n        uint32 trustAnchorIndex = trustAnchorManager.getTrustAnchorIndex(_trustAnchorAddress);\n\n        return getTrustChannelLowestSubmapNumberForTrustAnchorIndex(trustAnchorIndex);\n    }\n\n    /// @param _trustAnchorAddress The Address of a Trust Anchor.\n    /// @dev Gets the highest \"submap number\" for a given Trust Anchor (by Address), the highest Trust Channel \"Sub-map\" (256 bits) that this Trust Anchor is associated to.\n    /// @return result  the highest sub-map of trust channels that this trust anchor is associated to.\n\n    function getTrustChannelHighestSubmapNumberForTrustAnchorAddress(address _trustAnchorAddress) public view returns (uint24 result) {\n        ITrustAnchorManager trustAnchorManager = ITrustAnchorManager(trustAnchorManagerAddress);\n\n        uint32 trustAnchorIndex = trustAnchorManager.getTrustAnchorIndex(_trustAnchorAddress);\n\n        return getTrustChannelHighestSubmapNumberForTrustAnchorIndex(trustAnchorIndex);\n    }\n\n    /// @param _trustAnchorIndex The Index of a Trust Anchor.\n    /// @dev Gets the lowest \"submap number\" for a given Trust Anchor (by Index), the lowest Trust Channel \"Sub-map\" (256 bits) that this Trust Anchor is associated to.\n    /// @return result  the lowest sub-map of trust channels that this trust anchor is associated to.\n\n    function getTrustChannelLowestSubmapNumberForTrustAnchorIndex(uint32 _trustAnchorIndex) public view override returns (uint24 result) {\n        return trustAnchorIndexToTrustChannelLowestSubmapNumber[_trustAnchorIndex];\n    }\n\n    /// @param _trustAnchorIndex The Index of a Trust Anchor.\n    /// @dev Gets the highest \"submap number\" for a given Trust Anchor (by Index), the highest Trust Channel \"Sub-map\" (256 bits) that this Trust Anchor is associated to.\n    /// @return result  the highest sub-map of trust channels that this trust anchor is associated to.\n\n    function getTrustChannelHighestSubmapNumberForTrustAnchorIndex(uint32 _trustAnchorIndex) public view override returns (uint24 result) {\n        return trustAnchorIndexToTrustChannelHighestSubmapNumber[_trustAnchorIndex];\n    }\n\n    /// @param _trustAnchorIndex The Index of a Trust Anchor.\n    /// @param _submapNumber The submap number pf the Trust Channel Index bitfield within the Trust Anchor's associations of the Trust Channel.\n    /// @dev Gets the 0-255 bit value of the specific Trust Channel within a \"submap number\" for a given Trust Anchor (by Index). By getting the sub-map (the 256 bit \"page\" of memory) and using this 0-255 value, the resultant combination is the exact Trust Channel index that this Trust Anchor has been associated to.\n    /// @return result  the trust channel index within a specific submap that this trust anchor is associated to.\n\n    function getTrustChannelIndexBitFieldAtSubmapNumberForTrustAnchorIndex(uint32 _trustAnchorIndex, uint24 _submapNumber) public view override returns (uint256 result) {\n        return trustAnchorIndexToTrustChannelIndexBitField[_trustAnchorIndex][_submapNumber];\n    }\n\n    // ** trust channel rules ** //\n\n    /// @param _trustChannelAddress An ethereum-compatible address, used to identify this Trust Channel.\n    /// @param _ruleIndex The index for the rule to modify the status of.\n    /// @param _active A boolean to indicate whether the rule should be set, or not set.\n    /// @dev | Sets a specific Rule for a Trust Channel to \"on\" or \"off\". These rules form the basis of whether a Route is successful or not given sender & receiver parameters in the Routing function.\n    ///      | Uses Multi-signature permissions.\n    /// @return result\n    ///    | 0 = not an administrator for this trust channel\n    ///    | 1 = requires more trust channel administrator votes\n    ///    | 2 = trust channel rule set\n\n    //@note:@todo:@critical: create tests for this\n\n    function setTrustChannelRuleActive(address _trustChannelAddress, uint8 _ruleIndex, bool _active) public override returns (uint8 result) {\n        if (isTrustChannelAdministrator(msg.sender, _trustChannelAddress) == true) {\n            bytes32 keyKeccak = keccak256(abi.encodePacked(\"setTrustChannelRuleActive\", _trustChannelAddress, _ruleIndex, _active));\n\n            if (requireAndApplyTrustChannelAdministratorsConfirmation(_trustChannelAddress, keyKeccak) == true) {\n                trustChannelMap storage channelMap = trustChannelKeccakToTrustChannelMap[trustChannelAddressToTrustChannelKeccak[_trustChannelAddress]];\n\n                trustChannelAdminResetPermissionsForMultisignKey(_trustChannelAddress, keyKeccak);\n\n                //get the index in the bit field. ie rule #2 (starting at #1) would be (... 252 zeros ...) 0010\n                uint256 ruleIndexBitfield = uint256(2)**_ruleIndex;\n\n                if (_active == true) {\n                    //do an OR operation if active\n                    channelMap.channelRules.rulesActive |= ruleIndexBitfield;\n                } else {\n                    //otherwise do an AND with all but that bit set to 1 (ie. inverting the ruleIndexBitfield)\n                    channelMap.channelRules.rulesActive &= ~ruleIndexBitfield;\n                }\n\n                //trust channel rule set\n                return 2;\n            } else {\n                //requires more trust channel administrator votes\n                return 1;\n            }\n        } else {\n            //not an administrator for this trust channel\n            return 0;\n        }\n    }\n\n    /// @param _trustChannelAddress An ethereum-compatible address, used to identify this Trust Channel.\n    /// @param _ruleIndex The index for the rule to set.\n    /// @param _ruleStorageSubindex The sub-index for the rule to set.\n    /// @param _newValue A value to set the Rule Storage (at sub-index) to.\n    /// @dev | Sets a specific Rule Storage for a Rule to a specific value, for a given Trust Channel.\n    ///      | As an example, the \"Rule\" of how much assets can be transferred at one time can be set, with arbitrary numbers of other acceptable values or thresholds as addition \"Rule Storage sub-indexes\". When checking in routing function in the Shyft Core architecture, these rules can combine to form a comprehensive set of restrictions & allowances on asset transferance.\n    ///      | The _newValue parameter is set as bytes in this function, but as it's a 256 value, it can be cast from any other required value type.\n    ///      | Uses Multi-signature permissions.\n    /// @return result\n    ///    | 0 = not an administrator for this trust channel\n    ///    | 1 = requires more trust channel administrator votes\n    ///    | 2 = trust channel rules storage set\n\n    //@note:@todo:@critical: create tests for this\n\n    function setTrustChannelRulesStorage(address _trustChannelAddress, uint8 _ruleIndex, uint8 _ruleStorageSubindex, bytes32 _newValue) public override returns (uint8 result) {\n        if (isTrustChannelAdministrator(msg.sender, _trustChannelAddress) == true) {\n            bytes32 keyKeccak = keccak256(abi.encodePacked(\"setTrustChannelRulesStorage\", _trustChannelAddress, _ruleIndex, _ruleStorageSubindex, _newValue));\n\n            if (requireAndApplyTrustChannelAdministratorsConfirmation(_trustChannelAddress, keyKeccak) == true) {\n                trustChannelMap storage channelMap = trustChannelKeccakToTrustChannelMap[trustChannelAddressToTrustChannelKeccak[_trustChannelAddress]];\n\n                channelMap.channelRules.rulesStorage[_ruleStorageSubindex] = _newValue;\n\n                trustChannelAdminResetPermissionsForMultisignKey(_trustChannelAddress, keyKeccak);\n\n                //trust channel rules storage set\n                return 2;\n            } else {\n                //requires more trust channel administrator votes\n                return 1;\n            }\n        } else {\n            //not an administrator for this trust channel\n            return 0;\n        }\n    }\n\n    /// @param _trustChannelAddress An ethereum-compatible address, used to identify this Trust Channel.\n    /// @param _ruleIndex The index for the rule to set.\n    /// @param _ruleStorageSubindex The sub-index for the rule to set.\n    /// @dev | Gets a specific Rule Storage for a Rule to a specific value, for a given Trust Channel.\n    ///      | The returned results parameter is set as bytes in this function, but as it's a 256 value, it can be cast to any other required value type later on in the Shyft Core architecture.\n    /// @return result\n    ///    | n = rules storage value\n\n    //@note:@todo:@critical: create tests for this\n\n    function getTrustChannelRulesStorage(address _trustChannelAddress, uint8 _ruleIndex, uint8 _ruleStorageSubindex) public view override returns (bytes32 result) {\n        trustChannelMap storage channelMap = trustChannelKeccakToTrustChannelMap[trustChannelAddressToTrustChannelKeccak[_trustChannelAddress]];\n\n        return channelMap.channelRules.rulesStorage[_ruleIndex * uint16(256) + _ruleStorageSubindex];\n    }\n\n    /// @param _trustChannelIndex An Index used to identify this Trust Channel.\n    /// @param _ruleIndex The index for the rule to set.\n    /// @param _ruleStorageSubindex The sub-index for the rule to set.\n    /// @dev | Gets a specific Rule Storage for a Rule to a specific value, for a given Trust Channel (by Index).\n    ///      | The returned results parameter is set as bytes in this function, but as it's a 256 value, it can be cast to any other required value type later on in the Shyft Core architecture.\n    /// @return result\n    ///    | n = rules storage value\n\n    //@note:@todo:@critical: create tests for this\n\n    function getTrustChannelRulesStorage(uint32 _trustChannelIndex, uint8 _ruleIndex, uint8 _ruleStorageSubindex) public view override returns (bytes32 result) {\n        trustChannelMap storage channelMap = trustChannelKeccakToTrustChannelMap[trustChannelIndexToTrustChannelKeccak[_trustChannelIndex]];\n\n        return channelMap.channelRules.rulesStorage[_ruleIndex * uint16(256) + _ruleStorageSubindex];\n    }\n\n    /// @param _trustChannelIndex An Index used to identify this Trust Channel.\n    /// @dev | Gets the active Trust Channel Rules for this Trust Channel (by Index). This is used by Route functions in the Shyft Core Architecture.\n    /// @return result\n    ///    | 0 = [ channel doesn't exist, 0 ]\n    ///    | 1 = [ channel is not active, bit field of the rules that are active ]\n    ///    | 2 = [ channel active, bit field of the rules that are active ]\n    /// @return channelRulesBitField the channel rules bitfield\n\n    //@note:@todo:@critical: create tests for this and all the cases/configurations\n\n    function getActiveChannelRulesBitField(uint32 _trustChannelIndex) public view override returns (uint8 result, uint256 channelRulesBitField) {\n        trustChannelMap storage channelMap = trustChannelKeccakToTrustChannelMap[trustChannelIndexToTrustChannelKeccak[_trustChannelIndex]];\n        trustChannelRules storage channelRules = channelMap.channelRules;\n\n        if (channelMap.doesExist == true) {\n            if (channelMap.isActive == true) {\n                //channel active, returned channel map\n                return (2, channelRules.rulesActive);\n            } else {\n                //channel is not active, returned channel map\n                return (1, channelRules.rulesActive);\n            }\n        } else {\n            //channel doesn't exist\n            return (0, 0);\n        }\n    }\n\n    /// @param _trustChannelKeccak A Keccak Hash used to identify this Trust Channel.\n    /// @dev Gets the Trust Channel Keccak Index for a specific Trust Channel Hash.\n    /// @return result the trust channel index\n\n    function getTrustChannelIndexFromTrustChannelKeccak(bytes32 _trustChannelKeccak) public view override returns (uint32 result) {\n        return trustChannelKeccakToTrustChannelIndex[_trustChannelKeccak];\n    }\n\n    /// @param _trustChannelIndex An Index used to identify this Trust Channel.\n    /// @dev Gets the Trust Channel Hash for a specific Trust Channel Keccak Index.\n    /// @return result  the trust channel keccak hash\n\n    function getTrustChannelKeccakFromTrustChannelIndex(uint32 _trustChannelIndex) public view override returns (bytes32 result) {\n        return trustChannelIndexToTrustChannelKeccak[_trustChannelIndex];\n    }\n\n    // get trustAnchorIndexNumberOfTrustChannelsAssociated[trustAnchorIndex]--;\n    // get trustAnchorIndexAssociatedToAnyTrustChannels[trustAnchorIndex]\n}\n",
  "sourcePath": "/opt/shyft-ta-node/contracts/TrustChannelManager.sol",
  "compiler": {
    "name": "solc",
    "version": "0.7.1+commit.f4a555be.Emscripten.clang"
  },
  "schemaVersion": "3.3.4",
  "updatedAt": "2021-09-16T18:34:15.754Z",
  "networkType": "ethereum",
  "devdoc": {
    "details": "| The Trust Channel Manager is an interface for Trust Anchors to collaborate and share directed financial communications channels in as close to a friction-free way as possible. | | Trust Anchors sign up to collaborate on the Trust Channel, assigning rules that must be in place to allow for the interface to function. Verifiability of documentation is a key differentiating factor from other identity solutions. | | Technically, the Trust Channel contract acts as a service-interface aggregator, relying heavily on bit-field manipulation to associate the DAG (directed acyclic graph) relations of the participating trust anchor efficiently. | | This process creates bounds on logic, as lookup tables increase linearly. | | Within this flow, the Trust Channels are initially set up by the administrators of this smart contract and within each Trust Channel is the ability to add \"Trust Channel Administrators\", who can manage the membership of each Trust Channel. | | Some notes: Administrators of Trust Channels do not need to be Trust Anchors. | Trust Anchors assigned to Trust Channels must be verified Trust Anchors. | When Trust Anchors are added to a Trust Channel by the administrators of that Trust Channel, the Trust Anchor's Jurisdiction is added to the mapping of allowed Jurisdictions in the Trust Channel's routing functionality.",
    "events": {
      "EVT_ActivateTrustChannel(address)": {
        "details": "Event for the activation of a Trust Channel."
      },
      "EVT_AddedTrustAnchorToTrustChannel(uint256,uint24,uint24,uint256,address,address)": {
        "details": "Event for the addition of a Trust Anchor to a Trust Channel."
      },
      "EVT_ComposedTrustChannelWithTrustAnchor(uint256,uint32,uint32,address,address)": {
        "details": "Event for the creation of a new Trust Channel with a given Trust Anchor."
      },
      "EVT_DeactivateTrustChannel(address)": {
        "details": "Event for the deactivation of a Trust Channel."
      },
      "EVT_IsTrustChannelAdministrator(address,address,bool)": {
        "details": "Event for the check of whether the given address is a Trust Channel administrator."
      },
      "EVT_ReceivedJurisdictionFromTrustAnchor(uint16,address,address)": {
        "details": "Event for the retrieval of a Jurisdiction from a Trust Anchor."
      },
      "EVT_RemovedTrustAnchorFromTrustChannel(uint256,uint32,uint32,address,address)": {
        "details": "Event for the removal of a Trust Anchor to a Trust Channel."
      },
      "EVT_SetupTrustChannel(address,address,bool,bytes32,uint256)": {
        "details": "Event for the setup of a new Trust Channel."
      }
    },
    "kind": "dev",
    "methods": {
      "adminDeactivateTrustChannel(address)": {
        "details": "| Deactivates a Trust Channel. Deactivating rather than removing the Trust Channel enables the routing function(s) to quickly determine pass/fail conditions. Called by administrators of this smart contract.      | Uses Multi-signature permissions.",
        "params": {
          "_trustChannelAddress": "An ethereum-compatible address, used to identify this Trust Channel."
        },
        "returns": {
          "result": "   | 0 = not administrator    | 1 = not enough administrators have permissioned change    | 2 = trust channel deactivated"
        }
      },
      "adminReactivateTrustChannel(address)": {
        "details": "| Reactivates a previously deactivated Trust Channel. Called by administrators of this smart contract.      | Uses Multi-signature permissions.",
        "params": {
          "_trustChannelAddress": "An ethereum-compatible address, used to identify this Trust Channel."
        },
        "returns": {
          "result": "   | 0 = not administrator    | 1 = not enough administrators have permissioned change    | 2 = trust channel rules do not allow reactivation    | 3 = trust channel reactivated"
        }
      },
      "adminSetupTrustChannel(address,address,bool)": {
        "details": "| Creates up a new Trust Channel.      | The identifier for the Trust Channel is any ethereum-compatible address (to allow for off-chain verification of Trust Channel ownership rights via signature, for example). The Primary administrator is set, with an additional variable to signify whether this Trust Channel is activated by default (could be used delaying the ultimate activation of this Trust Channel until other parameters have been set).      | This function is called by administrators of this smart contract.      | Uses Multi-signature permissions.",
        "params": {
          "_activateByDefault": "A boolean signifying whether this Trust Channel is activated by default.",
          "_primaryAdminAddress": "The address for the primary administrator for this Trust Channel.",
          "_trustChannelAddress": "An ethereum-compatible address, used to identify this Trust Channel."
        },
        "returns": {
          "result": "   | 0 = not an administrator    | 1 = not enough administrators have permissioned change    | 2 = trust channel already exists    | 3 = added trust channel"
        }
      },
      "changeCurrentAdminConfirmationThreshold(uint32)": {
        "details": "| This function takes in an index for a proposal ot change the current administrator confirmation threshold.      | Uses Multi-signature permissions.",
        "params": {
          "_proposalIndex": "The index for a specific proposal to change the current administrator confirmation threshold."
        },
        "returns": {
          "result": "   | 0 = not an administrator    | 1 = invalid proposal index    | 2 = not enough administrators to achieve confirmation threshold    | 3 = proposal has expired    | 4 = not enough administrators have permissioned change    | 5 = admin confirmation threshold set"
        }
      },
      "constructor": {
        "details": "Initializes Trust Channel Manager with the owner set to the calling public address."
      },
      "getActiveChannelRulesBitField(uint32)": {
        "details": "| Gets the active Trust Channel Rules for this Trust Channel (by Index). This is used by Route functions in the Shyft Core Architecture.",
        "params": {
          "_trustChannelIndex": "An Index used to identify this Trust Channel."
        },
        "returns": {
          "channelRulesBitField": "the channel rules bitfield",
          "result": "   | 0 = [ channel doesn't exist, 0 ]    | 1 = [ channel is not active, bit field of the rules that are active ]    | 2 = [ channel active, bit field of the rules that are active ]"
        }
      },
      "getAdminAccess(address)": {
        "details": "Gets the level of access for a specific administrator.",
        "returns": {
          "result": "the level of access for this administrator"
        }
      },
      "getAdminConfirmationProposal(uint32)": {
        "details": "Gets the components of a specific NofM change proposal.",
        "params": {
          "_proposalIndex": "A proposal index"
        },
        "returns": {
          "adminThreshold": "the threshold of the NofM voting within this proposal",
          "endTime": "the end time of this proposal, after which it cannot be voted on",
          "isCompleted": "whether this proposal has been completed by multisig parties"
        }
      },
      "getAdminConfirmationThreshold()": {
        "details": "Gets the NofM threshold currently required for passing multisig votes.",
        "returns": {
          "results": "the current NofM threshold"
        }
      },
      "getAllTrustAnchorsForTrustChannel(address)": {
        "details": "Gets all of the associated Trust Anchor Addresses for a specific Trust Channel.",
        "params": {
          "_trustChannelAddress": "The address of a Trust Channel."
        },
        "returns": {
          "result": "an array of trust anchor addresses"
        }
      },
      "getAllTrustChannelAddressesForTrustAnchor(address)": {
        "details": "Gets all of the associated Trust Channel Addresses for a specific Trust Anchor.",
        "params": {
          "_trustAnchorAddress": "The address of a Trust Anchor."
        },
        "returns": {
          "_0": "an array of trust channel addresses"
        }
      },
      "getAllTrustChannelIndexesForTrustAnchor(address)": {
        "details": "Gets all of the associated Trust Channel Indexes for a specific Trust Anchor",
        "params": {
          "_trustAnchorAddress": "The address of a Trust Anchor."
        },
        "returns": {
          "_0": "an array of trust channel indexes"
        }
      },
      "getNumActiveTrustChannelAdministratorsForTrustChannel(address)": {
        "details": "Gets the number of active Trust Channel administrators for this specific Trust Channel/",
        "params": {
          "_trustChannelAddress": "An ethereum-compatible address, used to identify this Trust Channel."
        },
        "returns": {
          "result": "the number of active trust channel administrators for this trust channel"
        }
      },
      "getNumAdminConfirmationProposals()": {
        "details": "Gets the number of a specific NofM change proposal.",
        "returns": {
          "result": "the number of a specific NofM proposals"
        }
      },
      "getNumberOfTrustAnchorsForTrustChannel(address)": {
        "details": "Gets the number of Trust Anchors within the Trust Channel's associated Trust Anchor set.",
        "params": {
          "_trustChannelAddress": "The address of a Trust Channel."
        },
        "returns": {
          "result": "the number of trust anchors associated to this trust channel"
        }
      },
      "getTrustAnchorForTrustChannelByArrayIndex(address,uint256)": {
        "details": "Gets a specific Trust Anchor by array index within the Trust Channel's associated Trust Anchors.",
        "params": {
          "_arrayIndex": "The array index for the Trust Anchor it wishes to receive.",
          "_trustChannelAddress": "The address of a Trust Channel."
        },
        "returns": {
          "result": "a trust anchor address"
        }
      },
      "getTrustChannelAdministratorForTrustChannelByIndex(address,uint64)": {
        "details": "Checks whether any specific administrator has permissions to administrate the Trust Channel specified.",
        "params": {
          "_index": "The Index for the administrator for this Trust Channel specified via the Index inside of the array of administrators assigned to this Trust Channel.",
          "_trustChannelAddress": "An ethereum-compatible address, used to identify this Trust Channel."
        },
        "returns": {
          "result": "   | address(0) = no trust channel administrator found for this specific index    | [address] = address of trust channel administrator"
        }
      },
      "getTrustChannelHighestSubmapNumberForTrustAnchorAddress(address)": {
        "details": "Gets the highest \"submap number\" for a given Trust Anchor (by Address), the highest Trust Channel \"Sub-map\" (256 bits) that this Trust Anchor is associated to.",
        "params": {
          "_trustAnchorAddress": "The Address of a Trust Anchor."
        },
        "returns": {
          "result": " the highest sub-map of trust channels that this trust anchor is associated to."
        }
      },
      "getTrustChannelHighestSubmapNumberForTrustAnchorIndex(uint32)": {
        "details": "Gets the highest \"submap number\" for a given Trust Anchor (by Index), the highest Trust Channel \"Sub-map\" (256 bits) that this Trust Anchor is associated to.",
        "params": {
          "_trustAnchorIndex": "The Index of a Trust Anchor."
        },
        "returns": {
          "result": " the highest sub-map of trust channels that this trust anchor is associated to."
        }
      },
      "getTrustChannelIndexBitFieldAtSubmapNumberForTrustAnchorIndex(uint32,uint24)": {
        "details": "Gets the 0-255 bit value of the specific Trust Channel within a \"submap number\" for a given Trust Anchor (by Index). By getting the sub-map (the 256 bit \"page\" of memory) and using this 0-255 value, the resultant combination is the exact Trust Channel index that this Trust Anchor has been associated to.",
        "params": {
          "_submapNumber": "The submap number pf the Trust Channel Index bitfield within the Trust Anchor's associations of the Trust Channel.",
          "_trustAnchorIndex": "The Index of a Trust Anchor."
        },
        "returns": {
          "result": " the trust channel index within a specific submap that this trust anchor is associated to."
        }
      },
      "getTrustChannelIndexFromTrustChannelKeccak(bytes32)": {
        "details": "Gets the Trust Channel Keccak Index for a specific Trust Channel Hash.",
        "params": {
          "_trustChannelKeccak": "A Keccak Hash used to identify this Trust Channel."
        },
        "returns": {
          "result": "the trust channel index"
        }
      },
      "getTrustChannelKeccakFromTrustChannelIndex(uint32)": {
        "details": "Gets the Trust Channel Hash for a specific Trust Channel Keccak Index.",
        "params": {
          "_trustChannelIndex": "An Index used to identify this Trust Channel."
        },
        "returns": {
          "result": " the trust channel keccak hash"
        }
      },
      "getTrustChannelLowestSubmapNumberForTrustAnchorAddress(address)": {
        "details": "Gets the lowest \"submap number\" for a given Trust Anchor (by Address), the lowest Trust Channel \"Sub-map\" (256 bits) that this Trust Anchor is associated to.",
        "params": {
          "_trustAnchorAddress": "The Address of a Trust Anchor."
        },
        "returns": {
          "result": "the lowest sub-map of trust channels that this trust anchor is associated to."
        }
      },
      "getTrustChannelLowestSubmapNumberForTrustAnchorIndex(uint32)": {
        "details": "Gets the lowest \"submap number\" for a given Trust Anchor (by Index), the lowest Trust Channel \"Sub-map\" (256 bits) that this Trust Anchor is associated to.",
        "params": {
          "_trustAnchorIndex": "The Index of a Trust Anchor."
        },
        "returns": {
          "result": " the lowest sub-map of trust channels that this trust anchor is associated to."
        }
      },
      "getTrustChannelRulesStorage(address,uint8,uint8)": {
        "details": "| Gets a specific Rule Storage for a Rule to a specific value, for a given Trust Channel.      | The returned results parameter is set as bytes in this function, but as it's a 256 value, it can be cast to any other required value type later on in the Shyft Core architecture.",
        "params": {
          "_ruleIndex": "The index for the rule to set.",
          "_ruleStorageSubindex": "The sub-index for the rule to set.",
          "_trustChannelAddress": "An ethereum-compatible address, used to identify this Trust Channel."
        },
        "returns": {
          "result": "   | n = rules storage value"
        }
      },
      "getTrustChannelRulesStorage(uint32,uint8,uint8)": {
        "details": "| Gets a specific Rule Storage for a Rule to a specific value, for a given Trust Channel (by Index).      | The returned results parameter is set as bytes in this function, but as it's a 256 value, it can be cast to any other required value type later on in the Shyft Core architecture.",
        "params": {
          "_ruleIndex": "The index for the rule to set.",
          "_ruleStorageSubindex": "The sub-index for the rule to set.",
          "_trustChannelIndex": "An Index used to identify this Trust Channel."
        },
        "returns": {
          "result": "   | n = rules storage value"
        }
      },
      "isAdministrator(address)": {
        "details": "Returns whether a given address is an administrator.",
        "params": {
          "_administratorAddress": "The public address of a specific administrator."
        },
        "returns": {
          "result": "   | true = is administrator    | false = either administrator unset or demoted"
        }
      },
      "isTrustChannelAdministrator(address,address)": {
        "details": "Checks whether any specific administrator has permissions to administrate the Trust Channel specified.",
        "params": {
          "_trustChannelAddress": "An ethereum-compatible address, used to identify this Trust Channel.",
          "_trustChannelAdministratorAddress": "The address for an administrator for this Trust Channel."
        },
        "returns": {
          "result": "   | false = not trust channel administrator    | true = is trust channel administrator"
        }
      },
      "promoteAdministrator(address)": {
        "details": "| Promotes a new administrator. If there is only a primary Administrator set, this will allow the addition of the second administrator and enable multisignature requirements for any actions of this contract (or those inheriting it).      | Uses Multi-signature permissions if there is more than one Administrator onboarded.",
        "params": {
          "_newAdministratorAddress": "The new Administrator's public address."
        },
        "returns": {
          "result": "   | 0 = not administrator    | 1 = administrator already promoted    | 2 = new administrator promoted    | 3 = added vote to promote administrator"
        }
      },
      "proposeChangeCurrentAdminConfirmationThreshold(uint256)": {
        "details": "This function proposes a change to the threshold of voting required (N signatories of M total set size = NofM). To prevent stale inattention results, timeout after 2 days.",
        "params": {
          "_newThreshold": "The new threshold (N of M multisig) that is needed to be passed."
        },
        "returns": {
          "result": "   | 0 = not an administrator    | 1 = not enough administrators to achieve confirmation threshold    | 2 = new proposal added"
        }
      },
      "requireAndApplyTrustChannelAdministratorsConfirmation(address,bytes32)": {
        "details": "Administrator this function applies multisig functionality for the administrators of specific Trust Channels.",
        "params": {
          "_keyKeccak": "A hash of the key-value store that the administrators of Trust Channels can sign off on.",
          "_trustChannelAddress": "An ethereum-compatible address, used to identify this Trust Channel."
        },
        "returns": {
          "result": "whether to proceed with the functions that call this relating to the hash of the key-value store"
        }
      },
      "revokeAdministrator(address)": {
        "details": "| Revokes an existing administrator from the multisignature set, checks to see if the # of required votes would be higher then the administrator set size, and if so adjusts to match.      | Uses Multi-signature permissions if there is more than one Administrator onboarded.",
        "params": {
          "_revokeAdministratorAddress": "An existing Administrator's public address."
        },
        "returns": {
          "result": "result"
        }
      },
      "setPrimaryAdministrator(address)": {
        "details": "Sets the primary Administrator for this contract (or those that inherit from it). This transfers ownership of this contracts first administration duties (to find and onboard a second party for multisignature requirements) to the set Administrator's public address.",
        "params": {
          "_newAdministratorAddress": "The new Administrator's public address."
        },
        "returns": {
          "result": "   | 0 = not owner    | 1 = already set first administrator    | 2 = setup first administrator"
        }
      },
      "setTrustAnchorManagerAddress(address)": {
        "details": "| Links Trust Anchor Manager to this contract's function flow.      | Uses Multi-signature permissions.",
        "params": {
          "_trustAnchorManagerAddress": "The smart contract address for the Trust Anchor Manager that should be linked."
        },
        "returns": {
          "result": "   | 0: not an administrator    | 1: not enough administrators have permissioned change    | 2: set trust anchor manager address"
        }
      },
      "setTrustAnchorStorageAddress(address)": {
        "details": "| Links Trust Anchor Storage to this contract's function flow.      | Uses Multi-signature permissions.",
        "params": {
          "_trustAnchorStorageAddress": "The smart contract address for the Trust Anchor Storage that should be linked."
        },
        "returns": {
          "result": "   | 0: not an administrator    | 1: not enough administrators have permissioned change    | 2: set trust anchor storage address"
        }
      },
      "setTrustChannelRuleActive(address,uint8,bool)": {
        "details": "| Sets a specific Rule for a Trust Channel to \"on\" or \"off\". These rules form the basis of whether a Route is successful or not given sender & receiver parameters in the Routing function.      | Uses Multi-signature permissions.",
        "params": {
          "_active": "A boolean to indicate whether the rule should be set, or not set.",
          "_ruleIndex": "The index for the rule to modify the status of.",
          "_trustChannelAddress": "An ethereum-compatible address, used to identify this Trust Channel."
        },
        "returns": {
          "result": "   | 0 = not an administrator for this trust channel    | 1 = requires more trust channel administrator votes    | 2 = trust channel rule set"
        }
      },
      "setTrustChannelRulesStorage(address,uint8,uint8,bytes32)": {
        "details": "| Sets a specific Rule Storage for a Rule to a specific value, for a given Trust Channel.      | As an example, the \"Rule\" of how much assets can be transferred at one time can be set, with arbitrary numbers of other acceptable values or thresholds as addition \"Rule Storage sub-indexes\". When checking in routing function in the Shyft Core architecture, these rules can combine to form a comprehensive set of restrictions & allowances on asset transferance.      | The _newValue parameter is set as bytes in this function, but as it's a 256 value, it can be cast from any other required value type.      | Uses Multi-signature permissions.",
        "params": {
          "_newValue": "A value to set the Rule Storage (at sub-index) to.",
          "_ruleIndex": "The index for the rule to set.",
          "_ruleStorageSubindex": "The sub-index for the rule to set.",
          "_trustChannelAddress": "An ethereum-compatible address, used to identify this Trust Channel."
        },
        "returns": {
          "result": "   | 0 = not an administrator for this trust channel    | 1 = requires more trust channel administrator votes    | 2 = trust channel rules storage set"
        }
      },
      "trustChannelAdministratorAddTrustAnchorToTrustChannel(address,address)": {
        "details": "| Adds a Trust Anchor to a Trust Channel. Called by administrators of this Trust Channel.      | The Trust Anchor must have been previously Onboarded + Verified + set their Jurisdiction through the Trust Anchor Manager contract that this contract is linked to.      | Uses Multi-signature permissions.",
        "params": {
          "_trustAnchorAddress": "The address of a Trust Anchor.",
          "_trustChannelAddress": "An ethereum-compatible address, used to identify this Trust Channel."
        },
        "returns": {
          "result": "   | 0 = not trust channel administrator    | 1 = requires more administrator votes    | 2 = trust channel not active    | 3 = trust anchor already within mapping    | 4 = could not set up trust anchor (trust anchor has not been onboarded + verified and then has set their jurisdiction)    | 5 = trust anchor added to trust channel"
        }
      },
      "trustChannelAdministratorAddTrustChannelAdministrator(address,address)": {
        "details": "| Adds a new administrator to this Trust Channel. Called by existing administrators of this Trust Channel.      | Uses Multi-signature permissions.",
        "params": {
          "_newTrustChannelAdministratorAddress": "The address for an administrator for this Trust Channel.",
          "_trustChannelAddress": "An ethereum-compatible address, used to identify this Trust Channel."
        },
        "returns": {
          "result": "   | 0 = not a trust channel administrator    | 1 = already a trust channel administrator for this trust channel    | 2 = added vote to set new trust channel administrator for this trust channel    | 3 = set new trust channel administrator for this trust channel"
        }
      },
      "trustChannelAdministratorRemoveTrustAnchorFromTrustChannel(address,address)": {
        "details": "| Allows a Trust Channel administrator to remove a Trust Anchor from a Trust Channel.      | Uses Multi-signature permissions.",
        "params": {
          "_trustAnchorAddress": "The address of a Trust Anchor.",
          "_trustChannelAddress": "An ethereum-compatible address, used to identify this Trust Channel."
        },
        "returns": {
          "result": "   | 0 = not an administrator for this trust channel    | 1 = requires more administrator votes    | 2 = trust channel is not active    | 3 = trust anchor is not within this trust channel    | 4 = trust anchor successfully removed from trust channel"
        }
      },
      "trustChannelAdministratorRemoveTrustChannelAdministrator(address,address)": {
        "details": "| Removes an administrator to this Trust Channel. Called by existing administrators of this Trust Channel.      | Uses Multi-signature permissions.",
        "params": {
          "_trustChannelAddress": "An ethereum-compatible address, used to identify this Trust Channel.",
          "_trustChannelAdministratorAddressToRemove": "The address for an administrator for this Trust Channel that should be removed from this Trust Channel's administrators."
        },
        "returns": {
          "result": "   | 0 = not trust channel administrator    | 1 = trust channel administrator doesn't exist for this trust channel    | 2 = needs more administrator votes    | 3 = trust channel administrator removed for this trust channel"
        }
      }
    },
    "stateVariables": {
      "NO_LINK": {
        "details": "simple constant for \"no link\" to cut down on runtime gas costs."
      },
      "NoJurisdiction": {
        "details": "Base constant for no Jurisdiction set, the default for all Verified Trust Anchors."
      },
      "numActiveTrustChannelAdministrators": {
        "details": "Mapping of number of administrators in a Trust Channel."
      },
      "numTrustChannels": {
        "details": "Number of Trust Channels in this contract."
      },
      "trustAnchorIndexAssociatedToAnyTrustChannels": {
        "details": "Mapping of whether a Trust Anchor (by Index) is associated to any Trust Channels."
      },
      "trustAnchorIndexNumberOfTrustChannelsAssociated": {
        "details": "Mapping of Trust Anchor (by Index) to the number of Trust Channels it is associated to."
      },
      "trustAnchorIndexToAssociations": {
        "details": "Mapping of the Trust Anchor Index to associations to that Trust Anchor."
      },
      "trustAnchorIndexToTrustChannelHighestSubmapNumber": {
        "details": "Mapping of the Trust Anchor (by Index) to the \"Highest Sub-map Number\", which is the highest Trust Channel \"Sub-map\" (256 bits) that this Trust Anchor is associated to."
      },
      "trustAnchorIndexToTrustChannelIndexBitField": {
        "details": "| Mapping of a Trust Channel address to the Trust Channel Indexed Bit Field, within a 256-bit \"Sub-map\" of the Trust Channels.      | This is an array of 0 & 1's that correspond to Trust Channel that have been added to this contract, corresponding to the Index per Trust Channel (first Trust Channel is the first bit, etc.)      | Internally, the Shyft Core architecture's Route functionality is the most efficient per-32 bits (each bit representing an Indexed Trust Channel), with another performance (gas) benefit with the first 256 bits being most efficient, the second 256 bits being slightly less, and so on."
      },
      "trustAnchorIndexToTrustChannelLowestSubmapNumber": {
        "details": "Mapping of the Trust Anchor (by Index) to the \"Lowest Sub-map Number\", which is the lowest Trust Channel \"Sub-map\" (256 bits) that this Trust Anchor is associated to."
      },
      "trustAnchorManagerAddress": {
        "details": "Address for the Trust Anchor Manager that is linked to this contract."
      },
      "trustAnchorStorageAddress": {
        "details": "Address for the Trust Anchor Storage that is linked to this contract."
      },
      "trustChannelAddressToTrustChannelKeccak": {
        "details": "Mapping of Trust Channel addresses to a Trust Channel hash value."
      },
      "trustChannelAdministratorExistsMapping": {
        "details": "Mapping of administrators that exist in this Trust Channel."
      },
      "trustChannelAdministratorMultisignPermissionedKeys": {
        "details": "Mapping of a Trust Channel address to the Trust Channel Key Permissions (for multi-sig via key-value hash)."
      },
      "trustChannelAdministratorToMultisignPermissionedKeysArray": {
        "details": "Mapping of a Trust Channel address to the Trust Channel Key Permissions array (for multi-sig via key-value hash)."
      },
      "trustChannelAdministratorsArray": {
        "details": "Mapping of administrators array in a Trust Channel."
      },
      "trustChannelAdministratorsIndexMapping": {
        "details": "Mapping of administrators that by integer Index in this Trust Channel."
      },
      "trustChannelIndexToTrustChannelAddress": {
        "details": "Mapping of the Trust Channel Index to the Trust Channel Address"
      },
      "trustChannelIndexToTrustChannelKeccak": {
        "details": "Mapping of the Trust Channel Index to the Trust Channel Hash"
      },
      "trustChannelKeccakToTrustChannelIndex": {
        "details": "Mapping of the Trust Channel Hash to the Trust Channel Index"
      },
      "trustChannelKeccakToTrustChannelMap": {
        "details": "Mapping of Trust Channel hash to a Trust Channel Trust Channel Map struct."
      }
    },
    "version": 1
  },
  "userdoc": {
    "kind": "user",
    "methods": {
      "changeCurrentAdminConfirmationThreshold(uint32)": {
        "notice": "Multiple proposals can be constructed for different sets to apply to change the administrator threshold. As the permissions for multisig keys use a voting set nonce underneath the hood, a change in the current administrator set will cancel all current votes."
      },
      "getTrustChannelAdministratorForTrustChannelByIndex(address,uint64)": {
        "notice": "For mapping, if a value is passed that does not exist in the mapping array, the response will be an address(0)."
      },
      "promoteAdministrator(address)": {
        "notice": "| Uses composition features (based on current validator set) so data structure may be orphaned when promotion/demotion events occur.         | Whenever this function is called (with a passing vote), there will be a re-hashing of the voting set nonce, so all current votes will become invalidated."
      },
      "revokeAdministrator(address)": {
        "notice": "| Uses composition features (based on current validator set) so data structure may be orphaned when promotion/demotion events occur.         | Whenever this function is called (with a passing vote), there will be a re-hashing of the voting set nonce, so all current votes will become invalidated."
      },
      "trustChannelAdministratorRemoveTrustAnchorFromTrustChannel(address,address)": {
        "notice": "There are many side effects from removing a Trust Anchor from a given Trust Channel. Care must be taken when doing performing this procedure."
      }
    },
    "notice": "As this methodology evolves, Bloom filters could theoretically be utilized to allow a probablistic pathing that might need to have heavier lookups in the future.",
    "version": 1
  }
}