{
  "contractName": "TrustAnchorExtraData_Generic",
  "abi": [
    {
      "inputs": [],
      "stateMutability": "nonpayable",
      "type": "constructor"
    },
    {
      "anonymous": false,
      "inputs": [
        {
          "indexed": true,
          "internalType": "address",
          "name": "_trustAnchorAddress",
          "type": "address"
        },
        {
          "indexed": false,
          "internalType": "string",
          "name": "_endpointName",
          "type": "string"
        },
        {
          "indexed": false,
          "internalType": "uint8[4]",
          "name": "_ipv4Address",
          "type": "uint8[4]"
        }
      ],
      "name": "EVT_setDataRetrievalParametersCreated",
      "type": "event"
    },
    {
      "anonymous": false,
      "inputs": [
        {
          "indexed": true,
          "internalType": "address",
          "name": "_trustAnchorAddress",
          "type": "address"
        },
        {
          "indexed": false,
          "internalType": "string",
          "name": "_endpointName",
          "type": "string"
        },
        {
          "indexed": false,
          "internalType": "uint8[4]",
          "name": "_ipv4Address",
          "type": "uint8[4]"
        }
      ],
      "name": "EVT_setDataRetrievalParametersUpdated",
      "type": "event"
    },
    {
      "anonymous": false,
      "inputs": [
        {
          "indexed": true,
          "internalType": "address",
          "name": "_trustAnchorAddress",
          "type": "address"
        },
        {
          "indexed": false,
          "internalType": "string",
          "name": "_endpointName",
          "type": "string"
        },
        {
          "indexed": false,
          "internalType": "bool",
          "name": "_isEnabled",
          "type": "bool"
        }
      ],
      "name": "EVT_setTrustAnchorDataRetrievalEndpointIsEnabled",
      "type": "event"
    },
    {
      "inputs": [
        {
          "internalType": "address",
          "name": "_trustAnchorManagerAddress",
          "type": "address"
        }
      ],
      "name": "setTrustAnchorManagerAddress",
      "outputs": [
        {
          "internalType": "bool",
          "name": "result",
          "type": "bool"
        }
      ],
      "stateMutability": "nonpayable",
      "type": "function"
    },
    {
      "inputs": [],
      "name": "getTrustAnchorManagerAddress",
      "outputs": [
        {
          "internalType": "address",
          "name": "result",
          "type": "address"
        }
      ],
      "stateMutability": "view",
      "type": "function",
      "constant": true
    },
    {
      "inputs": [
        {
          "internalType": "address",
          "name": "_trustAnchorAddress",
          "type": "address"
        }
      ],
      "name": "doesTrustAnchorHaveExtraData",
      "outputs": [
        {
          "internalType": "bool",
          "name": "result",
          "type": "bool"
        }
      ],
      "stateMutability": "view",
      "type": "function",
      "constant": true
    },
    {
      "inputs": [
        {
          "internalType": "string",
          "name": "_endpointName",
          "type": "string"
        },
        {
          "internalType": "uint8[4]",
          "name": "_ipv4Address",
          "type": "uint8[4]"
        }
      ],
      "name": "setTrustAnchorDataRetrievalParameters",
      "outputs": [
        {
          "internalType": "uint8",
          "name": "result",
          "type": "uint8"
        }
      ],
      "stateMutability": "nonpayable",
      "type": "function"
    },
    {
      "inputs": [
        {
          "internalType": "string",
          "name": "_endpointName",
          "type": "string"
        },
        {
          "internalType": "bool",
          "name": "_isEnabled",
          "type": "bool"
        }
      ],
      "name": "setTrustAnchorDataRetrievalEndpointIsEnabled",
      "outputs": [
        {
          "internalType": "uint8",
          "name": "result",
          "type": "uint8"
        }
      ],
      "stateMutability": "nonpayable",
      "type": "function"
    },
    {
      "inputs": [
        {
          "internalType": "address",
          "name": "_trustAnchorAddress",
          "type": "address"
        }
      ],
      "name": "getTrustAnchorNumberOfEndpoints",
      "outputs": [
        {
          "internalType": "uint256",
          "name": "result",
          "type": "uint256"
        }
      ],
      "stateMutability": "view",
      "type": "function",
      "constant": true
    },
    {
      "inputs": [
        {
          "internalType": "address",
          "name": "_trustAnchorAddress",
          "type": "address"
        },
        {
          "internalType": "uint256",
          "name": "_index",
          "type": "uint256"
        }
      ],
      "name": "getTrustAnchorEndpointNameByIndex",
      "outputs": [
        {
          "internalType": "bool",
          "name": "doesExist",
          "type": "bool"
        },
        {
          "internalType": "string",
          "name": "endpointName",
          "type": "string"
        }
      ],
      "stateMutability": "view",
      "type": "function",
      "constant": true
    },
    {
      "inputs": [
        {
          "internalType": "address",
          "name": "_trustAnchorAddress",
          "type": "address"
        },
        {
          "internalType": "string",
          "name": "_endpointName",
          "type": "string"
        }
      ],
      "name": "getTrustAnchorDataRetrievalParameters",
      "outputs": [
        {
          "internalType": "bool",
          "name": "doesExist",
          "type": "bool"
        },
        {
          "internalType": "uint8[4]",
          "name": "ipv4Address",
          "type": "uint8[4]"
        },
        {
          "internalType": "bool",
          "name": "isEnabled",
          "type": "bool"
        }
      ],
      "stateMutability": "view",
      "type": "function",
      "constant": true
    },
    {
      "inputs": [
        {
          "internalType": "address",
          "name": "_trustAnchorAddress",
          "type": "address"
        },
        {
          "internalType": "bytes32",
          "name": "_endpointKeccak",
          "type": "bytes32"
        }
      ],
      "name": "getTrustAnchorEndpointNameByEndpointKeccak",
      "outputs": [
        {
          "internalType": "string",
          "name": "endpointName",
          "type": "string"
        }
      ],
      "stateMutability": "view",
      "type": "function",
      "constant": true
    }
  ],
  "bytecode": "0x6080604052600180546001600160a01b031990811690915560028054909116905534801561002c57600080fd5b50600180546001600160a01b03191633179055610f708061004e6000396000f3fe608060405234801561001057600080fd5b50600436106100935760003560e01c80633da3b915116100665780633da3b915146102c8578063b10ce9fc1461039a578063bd36590c1461043b578063d534d0271461045f578063e14512bb1461048557610093565b806313cf88eb146100985780632326d76c14610198578063243c64fa146101d05780633c5dc5481461028e575b600080fd5b61014e600480360360408110156100ae57600080fd5b6001600160a01b0382351691908101906040810160208201356401000000008111156100d957600080fd5b8201836020820111156100eb57600080fd5b8035906020019184600183028401116401000000008311171561010d57600080fd5b91908080601f016020809104026020016040519081016040528093929190818152602001838380828437600092019190915250929550610532945050505050565b60405183151581526020810183608080838360005b8381101561017b578181015183820152602001610163565b505050509050018215158152602001935050505060405180910390f35b6101be600480360360208110156101ae57600080fd5b50356001600160a01b031661068e565b60408051918252519081900360200190f35b610278600480360360408110156101e657600080fd5b81019060208101813564010000000081111561020157600080fd5b82018360208201111561021357600080fd5b8035906020019184600183028401116401000000008311171561023557600080fd5b91908080601f01602080910402602001604051908101604052809392919081815260200183838082843760009201919091525092955050505035151590506106b0565b6040805160ff9092168252519081900360200190f35b6102b4600480360360208110156102a457600080fd5b50356001600160a01b03166108ad565b604080519115158252519081900360200190f35b610278600480360360a08110156102de57600080fd5b8101906020810181356401000000008111156102f957600080fd5b82018360208201111561030b57600080fd5b8035906020019184600183028401116401000000008311171561032d57600080fd5b91908080601f0160208091040260200160405190810160405280939291908181526020018383808284376000920191909152505060408051608081810190925293969594818101949350915060049083908390808284376000920191909152509194506108de9350505050565b6103c6600480360360408110156103b057600080fd5b506001600160a01b038135169060200135610c60565b6040805160208082528351818301528351919283929083019185019080838360005b838110156104005781810151838201526020016103e8565b50505050905090810190601f16801561042d5780820380516001836020036101000a031916815260200191505b509250505060405180910390f35b610443610d12565b604080516001600160a01b039092168252519081900360200190f35b6102b46004803603602081101561047557600080fd5b50356001600160a01b0316610d21565b6104b16004803603604081101561049b57600080fd5b506001600160a01b038135169060200135610d5b565b60405180831515815260200180602001828103825283818151815260200191508051906020019080838360005b838110156104f65781810151838201526020016104de565b50505050905090810190601f1680156105235780820380516001836020036101000a031916815260200191505b50935050505060405180910390f35b600061053c610e89565b600080846040516020018082805190602001908083835b602083106105725780518252601f199092019160209182019101610553565b518151602093840361010090810a60001901801990931692909116919091179091526040805193909501838103601f1901845285528251928201929092206001600160a01b038d166000908152808352858120828252909252939020600281015493965094506001920460ff1615159190911415915061065990505760028101546040805160808101918290526001928385019260ff90911691908390600490826000855b825461010083900a900460ff16815260206001928301818104948501949093039092029101808411610617579050505050505091509450945094505050610687565b5050604080516080810182526000808252602082018190529181018290526060810182905290935091508290505b9250925092565b6001600160a01b0381166000908152602081905260409020600101545b919050565b600080836040516020018082805190602001908083835b602083106106e65780518252601f1990920191602091820191016106c7565b51815160209384036101000a60001901801990921691161790526040805192909401828103601f19018352808552825192820192909220600254633cff017d60e21b845233600485015294519097506001600160a01b03909416955085945063f3fc05f493602480840194509192909190829003018186803b15801561076b57600080fd5b505afa15801561077f573d6000803e3d6000fd5b505050506040513d602081101561079557600080fd5b5051156108a057336000908152602081815260408083208584529091529020600281015460ff6101009091041615156001141561089457336001600160a01b03167f0ca98f24eba105f2ec4e2812eb7d4a85ade851c2d16019450de6861c700fab87878760405180806020018315158152602001828103825284818151815260200191508051906020019080838360005b8381101561083e578181015183820152602001610826565b50505050905090810190601f16801561086b5780820380516001836020036101000a031916815260200191505b50935050505060405180910390a26002908101805460ff191686151517905592506108a7915050565b600193505050506108a7565b6000925050505b92915050565b6001600160a01b038116600090815260208190526040812060010154156108d6575060016106ab565b5060006106ab565b600080836040516020018082805190602001908083835b602083106109145780518252601f1990920191602091820191016108f5565b51815160209384036101000a60001901801990921691161790526040805192909401828103601f19018352808552825192820192909220600254633cff017d60e21b845233600485015294519097506001600160a01b03909416955085945063f3fc05f493602480840194509192909190829003018186803b15801561099957600080fd5b505afa1580156109ad573d6000803e3d6000fd5b505050506040513d60208110156109c357600080fd5b5051156108a057336000908152602081815260408083208584528252909120865190916109f4918391890190610ea7565b50845160018281018054602089015160408a015160608b015160ff918216620100000292821661010090810260ff199095169783169790971761ff0019169390931762ff000019169190911763ff00000019166301000000928216929092029190911790915560028401549290920490911615151415610b4a57336001600160a01b03167fc1c2a3c2243e6ecc8301ab82f6a5c94e357bac0d5b762460bfc68b7fd2bba17b8787604051808060200183600460200280838360005b83811015610ac7578181015183820152602001610aaf565b50505050905001828103825284818151815260200191508051906020019080838360005b83811015610b03578181015183820152602001610aeb565b50505050905090810190601f168015610b305780820380516001836020036101000a031916815260200191505b50935050505060405180910390a2600293505050506108a7565b336001600160a01b03167fc326e1a7943075d5fc7d2a419be2e4e861100366a9f3ca0a7b0825500920d8588787604051808060200183600460200280838360005b83811015610ba3578181015183820152602001610b8b565b50505050905001828103825284818151815260200191508051906020019080838360005b83811015610bdf578181015183820152602001610bc7565b50505050905090810190601f168015610c0c5780820380516001836020036101000a031916815260200191505b50935050505060405180910390a2600201805460ff1961ff001990911661010017166001908117909155336000908152602081815260408220830180548085018255908352912001929092555090506108a7565b6001600160a01b03821660009081526020818152604080832084845282529182902080548351601f6002600019610100600186161502019093169290920491820184900484028101840190945280845260609392830182828015610d055780601f10610cda57610100808354040283529160200191610d05565b820191906000526020600020905b815481529060010190602001808311610ce857829003601f168201915b5050505050905092915050565b6002546001600160a01b031690565b60006001600160a01b038216610d3657600080fd5b50600280546001600160a01b0383166001600160a01b03199091161790556001919050565b6001600160a01b038216600090815260208190526040812060010154606090831015610e6e576001600160a01b0384166000908152602081905260408120600101805485908110610da857fe5b6000918252602080832091909101546001600160a01b03881683528282526040808420828552835292839020805484516002600180841615610100026000190190931604601f8101869004860282018601909652858152929550909390928492918391830182828015610e5c5780601f10610e3157610100808354040283529160200191610e5c565b820191906000526020600020905b815481529060010190602001808311610e3f57829003601f168201915b50505050509050935093505050610e82565b505060408051602081019091526000808252905b9250929050565b60405180608001604052806004906020820280368337509192915050565b828054600181600116156101000203166002900490600052602060002090601f016020900481019282601f10610ee857805160ff1916838001178555610f15565b82800160010185558215610f15579182015b82811115610f15578251825591602001919060010190610efa565b50610f21929150610f25565b5090565b5b80821115610f215760008155600101610f2656fea2646970667358221220234b316e7735a53e8319ee58f1ddd6ded01f4c526e3b82804c63d2e3e8d126b164736f6c63430007010033",
  "immutableReferences": {},
  "source": "pragma solidity ^0.7.1;\n//SPDX-License-Identifier: UNLICENSED\n\nimport \"./Interfaces/ITrustAnchorManager.sol\";\n\n/// @dev\n/// | The Trust Anchor Extra Data [Generic] reference contract\n/// | This contract is an example of the type of parameters most useful in a Data Retrieval context. Primarily, it is the ip addresses that are associated to a variable number of endpoints.\n/// | Endpoint names are also part of the context to have a human-readable structure, and this name is keccak hashed for future quick lookups internally.\n\n\ncontract TrustAnchorExtraData_Generic {\n    /// @dev Event for Data Retrieval Endpoint is Enabled for a specific Endpoint name.\n    event EVT_setTrustAnchorDataRetrievalEndpointIsEnabled(address indexed _trustAnchorAddress, string _endpointName, bool _isEnabled);\n\n    /// @dev Event for Data Retrieval Parameters being created by a Trust Anchor.\n    event EVT_setDataRetrievalParametersCreated(address indexed _trustAnchorAddress, string _endpointName,  uint8[4] _ipv4Address);\n\n    /// @dev Event for Data Retrieval Parameters being updated by a Trust Anchor.\n    event EVT_setDataRetrievalParametersUpdated(address indexed _trustAnchorAddress, string _endpointName,  uint8[4] _ipv4Address);\n\n    /// @dev Struct for a Trust Anchor data retrieval ip address endpoints with a string to associated names.\n    struct endpoint {\n        string endpointName;\n        uint8[4] ipv4Address;\n\n        bool isEnabled;\n        bool doesExist;\n    }\n\n    /// @dev Struct for a Trust Anchor data retrieval parameters.\n    struct trustAnchorDataRetrievalParameters {\n        mapping(bytes32 => endpoint) keccakHash_to_dataRetrievalEndpoint;\n        bytes32[] dataRetrievalEndpointHashArray;\n    }\n\n    /// @dev Mapping for a Trust Anchor to its generic extraData parameters.\n    mapping(address => trustAnchorDataRetrievalParameters) extraData_dataRetrievalParameters;\n\n    /// @dev The owner of this contract.\n    address owner = address(0);\n\n    /// @dev The Trust Anchor Manager address that this contract is bound to.\n    address trustAnchorManagerAddress = address(0);\n\n    /// @dev Initializes this contract with the owner set to the calling public address.\n\n    constructor() {\n        owner = msg.sender;\n    }\n\n    /// @param _trustAnchorManagerAddress The smart contract address for the Trust Anchor Manager that should be linked.\n    /// @dev Links Trust Anchor Manager to this contract's function flow.\n    /// @return result\n    ///    | false: [ will never return false due to require() ]\n    ///    | true: trust anchor manager address set correctly\n\n    function setTrustAnchorManagerAddress(address _trustAnchorManagerAddress) public returns (bool result) {\n        require(_trustAnchorManagerAddress != address(0));\n\n        trustAnchorManagerAddress = _trustAnchorManagerAddress;\n\n        //trust anchor manager address set correctly\n        return true;\n    }\n\n    /// @dev Gets the Trust Anchor Manager associated to this contract.\n    /// @return result trust anchor manager address\n\n    function getTrustAnchorManagerAddress() public view returns (address result) {\n        //get trust anchor manager address\n        return trustAnchorManagerAddress;\n    }\n\n    /// @param _trustAnchorAddress The smart contract address that is checked for extraData availability.\n    /// @dev Checks whether a specific Trust Anchor has extraData associated to it.\n    /// @return result\n    ///    | false: trust anchor has no extraData parameters allocated\n    ///    | true: trust anchor does has extraData parameters allocated\n\n    function doesTrustAnchorHaveExtraData(address _trustAnchorAddress) public view returns (bool result) {\n        if (extraData_dataRetrievalParameters[_trustAnchorAddress].dataRetrievalEndpointHashArray.length > 0) {\n            //trust anchor does has extraData parameters allocated\n            return true;\n        } else {\n            //trust anchor has no extraData parameters allocated\n            return false;\n        }\n    }\n\n    /// @param _endpointName The name of the endpoint.\n    /// @param _ipv4Address The ipv4 address, an array of 4 uint8's (0-255) corresponding to w.x.y.z components of an ip address.\n    /// @dev Checks whether a specific Trust Anchor has \"generic\" extraData associated to it with a specific endpoint name, updates if necessary, and returns the status. Sets the endpoint to \"enabled\" status if it's being set for the first time.\n    /// @notice Must be called by the Trust Anchor that wants to set their associated generic data.\n    /// @return result\n    ///    | 0: trust anchor is not verified\n    ///    | 1: endpoint set for the first time\n    ///    | 2: endpoint updated\n\n    function setTrustAnchorDataRetrievalParameters(string memory _endpointName, uint8[4] memory _ipv4Address) public returns (uint8 result) {\n        bytes32 endpointKeccak = keccak256(abi.encodePacked(_endpointName));\n\n        ITrustAnchorManager trustAnchorManager = ITrustAnchorManager(trustAnchorManagerAddress);\n\n        // check whether trust Anchor manager is verified\n        if (trustAnchorManager.isTrustAnchorVerified(msg.sender)) {\n            // get the endpoint if it already exists, otherwise create a new endpoint.\n            endpoint storage newEndpoint = extraData_dataRetrievalParameters[msg.sender].keccakHash_to_dataRetrievalEndpoint[endpointKeccak];\n\n            // set the parameters based on inputs.\n            newEndpoint.endpointName = _endpointName;\n\n            newEndpoint.ipv4Address[0] = _ipv4Address[0];\n            newEndpoint.ipv4Address[1] = _ipv4Address[1];\n            newEndpoint.ipv4Address[2] = _ipv4Address[2];\n            newEndpoint.ipv4Address[3] = _ipv4Address[3];\n\n            // checks whether this particular endpoint already exists for this Trust Anchor.\n            if (newEndpoint.doesExist == true) {\n                emit EVT_setDataRetrievalParametersUpdated(msg.sender, _endpointName, _ipv4Address);\n                //endpoint updated\n                return 2;\n            } else {\n                emit EVT_setDataRetrievalParametersCreated(msg.sender, _endpointName, _ipv4Address);\n                // if endpoint doesn't already exist, set the parameters required for further lookups.\n                newEndpoint.doesExist = true;\n                newEndpoint.isEnabled = true;\n\n                // pushes the new endpointKeccak to the endpoint array.\n                extraData_dataRetrievalParameters[msg.sender].dataRetrievalEndpointHashArray.push(endpointKeccak);\n\n                //endpoint set for the first time\n                return 1;\n            }\n        } else {\n            //trust anchor is not verified\n            return 0;\n        }\n    }\n\n    /// @param _endpointName The name of the endpoint.\n    /// @param _isEnabled The boolean yes/no of whether this endpoint should be set to enabled or not.\n    /// @dev Checks whether a specific Trust Anchor has \"generic\" extraData associated to it with a specific endpoint name, and updates the isEnabled if it already exists, and returns the status.\n    /// @notice Must be called by the Trust Anchor that wants to set their associated generic data.\n    /// @return result\n    ///    | 0: trust anchor is not verified\n    ///    | 1: endpoint does not exist\n    ///    | 2: endpoint's enabled status updated\n\n    function setTrustAnchorDataRetrievalEndpointIsEnabled(string memory _endpointName, bool _isEnabled) public returns (uint8 result) {\n        bytes32 endpointKeccak = keccak256(abi.encodePacked(_endpointName));\n\n        ITrustAnchorManager trustAnchorManager = ITrustAnchorManager(trustAnchorManagerAddress);\n\n        // check whether trust Anchor manager is verified\n        if (trustAnchorManager.isTrustAnchorVerified(msg.sender)) {\n\n            // get the endpoint if it already exists.\n            endpoint storage existingEndpoint = extraData_dataRetrievalParameters[msg.sender].keccakHash_to_dataRetrievalEndpoint[endpointKeccak];\n\n            // if this endpoint already exists, set the isEnabled flag based on input parameters.\n            if (existingEndpoint.doesExist == true) {\n                emit EVT_setTrustAnchorDataRetrievalEndpointIsEnabled(msg.sender, _endpointName, _isEnabled);\n\n                existingEndpoint.isEnabled = _isEnabled;\n\n                //endpoint's enabled status updated\n                return 2;\n            } else {\n                //endpoint does not exist\n                return 1;\n            }\n        } else {\n            //trust anchor is not verified\n            return 0;\n        }\n    }\n\n    /// @param _trustAnchorAddress The trust anchor address related to this extraData.\n    /// @dev Gets the number of endpoints associated to this Trust Anchor.\n    /// @return result the number of endpoints associated to this Trust Anchor.\n\n    function getTrustAnchorNumberOfEndpoints(address _trustAnchorAddress) public view returns (uint256 result) {\n        return extraData_dataRetrievalParameters[_trustAnchorAddress].dataRetrievalEndpointHashArray.length;\n    }\n\n    /// @param _trustAnchorAddress The trust anchor address related to this extraData.\n    /// @param _index The index within this Trust Anchor's endpoint array.\n    /// @dev Gets the endpoint name for a specific index within the Trust Anchor's endpoint array.\n    /// @notice Checks to make sure that the _index parameter is not out of bounds.\n    /// @return doesExist whether the endpoint data exists, ( false, \"\" ): endpoint data does not exist\n    /// @return endpointName the endpoint name\n\n    function getTrustAnchorEndpointNameByIndex(address _trustAnchorAddress, uint256 _index) public view returns (bool doesExist, string memory endpointName) {\n        // checks whether this particular endpoint already exists for this Trust Anchor.\n        if (extraData_dataRetrievalParameters[_trustAnchorAddress].dataRetrievalEndpointHashArray.length > _index) {\n            bytes32 endpointKeccak = extraData_dataRetrievalParameters[_trustAnchorAddress].dataRetrievalEndpointHashArray[_index];\n\n            endpoint storage existingEndpoint = extraData_dataRetrievalParameters[_trustAnchorAddress].keccakHash_to_dataRetrievalEndpoint[endpointKeccak];\n\n            //endpoint data exists, returns the endpoint name\n            return (true, existingEndpoint.endpointName);\n        } else {\n            //endpoint data does not exist\n            return (false, \"\");\n        }\n    }\n\n    /// @param _trustAnchorAddress The trust anchor address related to this extraData.\n    /// @param _endpointName The name of the endpoint.\n    /// @dev Gets the data retrieval parameters (whether it exists, the actual endpoint data, and whether it's enabled) for this particular _endpointName.\n    /// @return doesExist whether the endpoint data exists, ( false, [0, 0, 0, 0], false ): endpoint data does not exist\n    /// @return ipv4Address the ipv4 components\n    /// @return isEnabled whether this endpoint is enabled\n\n    function getTrustAnchorDataRetrievalParameters(address _trustAnchorAddress, string memory _endpointName) public view returns (bool doesExist, uint8[4] memory ipv4Address, bool isEnabled) {\n        bytes32 endpointKeccak = keccak256(abi.encodePacked(_endpointName));\n\n        // gets the endpoint.\n        endpoint storage existingEndpoint = extraData_dataRetrievalParameters[_trustAnchorAddress].keccakHash_to_dataRetrievalEndpoint[endpointKeccak];\n\n        // checks whether this particular endpoint already exists for this Trust Anchor.\n        if (existingEndpoint.doesExist == true) {\n            //if the endpoint exists, the extraData ip address parameters for this Trust Anchor have a proper endpoint.\n\n            //endpoint data exists, and the return components\n            return (true, existingEndpoint.ipv4Address, existingEndpoint.isEnabled);\n        } else {\n            //endpoint data does not exist\n            return (false, [0,0,0,0], false);\n        }\n    }\n\n    /// @param _trustAnchorAddress The trust anchor address related to this extraData.\n    /// @param _endpointKeccak The endpoint keccak\n    /// @dev Gets the endpoint name for a specific endpoint keccak for a Trust Anchor.\n    /// @return endpointName endpoint data exists, returns the endpoint name\n\n    function getTrustAnchorEndpointNameByEndpointKeccak(address _trustAnchorAddress, bytes32 _endpointKeccak) public view returns (string memory endpointName) {\n        //returns the endpoint name\n        return extraData_dataRetrievalParameters[_trustAnchorAddress].keccakHash_to_dataRetrievalEndpoint[_endpointKeccak].endpointName;\n    }\n}\n",
  "sourcePath": "/opt/shyft-ta-node/contracts/TrustAnchorExtraData_Generic.sol",
  "compiler": {
    "name": "solc",
    "version": "0.7.1+commit.f4a555be.Emscripten.clang"
  },
  "schemaVersion": "3.3.4",
  "updatedAt": "2021-09-16T18:34:16.571Z",
  "networkType": "ethereum",
  "devdoc": {
    "details": "| The Trust Anchor Extra Data [Generic] reference contract | This contract is an example of the type of parameters most useful in a Data Retrieval context. Primarily, it is the ip addresses that are associated to a variable number of endpoints. | Endpoint names are also part of the context to have a human-readable structure, and this name is keccak hashed for future quick lookups internally.",
    "events": {
      "EVT_setDataRetrievalParametersCreated(address,string,uint8[4])": {
        "details": "Event for Data Retrieval Parameters being created by a Trust Anchor."
      },
      "EVT_setDataRetrievalParametersUpdated(address,string,uint8[4])": {
        "details": "Event for Data Retrieval Parameters being updated by a Trust Anchor."
      },
      "EVT_setTrustAnchorDataRetrievalEndpointIsEnabled(address,string,bool)": {
        "details": "Event for Data Retrieval Endpoint is Enabled for a specific Endpoint name."
      }
    },
    "kind": "dev",
    "methods": {
      "constructor": {
        "details": "Initializes this contract with the owner set to the calling public address."
      },
      "doesTrustAnchorHaveExtraData(address)": {
        "details": "Checks whether a specific Trust Anchor has extraData associated to it.",
        "params": {
          "_trustAnchorAddress": "The smart contract address that is checked for extraData availability."
        },
        "returns": {
          "result": "   | false: trust anchor has no extraData parameters allocated    | true: trust anchor does has extraData parameters allocated"
        }
      },
      "getTrustAnchorDataRetrievalParameters(address,string)": {
        "details": "Gets the data retrieval parameters (whether it exists, the actual endpoint data, and whether it's enabled) for this particular _endpointName.",
        "params": {
          "_endpointName": "The name of the endpoint.",
          "_trustAnchorAddress": "The trust anchor address related to this extraData."
        },
        "returns": {
          "doesExist": "whether the endpoint data exists, ( false, [0, 0, 0, 0], false ): endpoint data does not exist",
          "ipv4Address": "the ipv4 components",
          "isEnabled": "whether this endpoint is enabled"
        }
      },
      "getTrustAnchorEndpointNameByEndpointKeccak(address,bytes32)": {
        "details": "Gets the endpoint name for a specific endpoint keccak for a Trust Anchor.",
        "params": {
          "_endpointKeccak": "The endpoint keccak",
          "_trustAnchorAddress": "The trust anchor address related to this extraData."
        },
        "returns": {
          "endpointName": "endpoint data exists, returns the endpoint name"
        }
      },
      "getTrustAnchorEndpointNameByIndex(address,uint256)": {
        "details": "Gets the endpoint name for a specific index within the Trust Anchor's endpoint array.",
        "params": {
          "_index": "The index within this Trust Anchor's endpoint array.",
          "_trustAnchorAddress": "The trust anchor address related to this extraData."
        },
        "returns": {
          "doesExist": "whether the endpoint data exists, ( false, \"\" ): endpoint data does not exist",
          "endpointName": "the endpoint name"
        }
      },
      "getTrustAnchorManagerAddress()": {
        "details": "Gets the Trust Anchor Manager associated to this contract.",
        "returns": {
          "result": "trust anchor manager address"
        }
      },
      "getTrustAnchorNumberOfEndpoints(address)": {
        "details": "Gets the number of endpoints associated to this Trust Anchor.",
        "params": {
          "_trustAnchorAddress": "The trust anchor address related to this extraData."
        },
        "returns": {
          "result": "the number of endpoints associated to this Trust Anchor."
        }
      },
      "setTrustAnchorDataRetrievalEndpointIsEnabled(string,bool)": {
        "details": "Checks whether a specific Trust Anchor has \"generic\" extraData associated to it with a specific endpoint name, and updates the isEnabled if it already exists, and returns the status.",
        "params": {
          "_endpointName": "The name of the endpoint.",
          "_isEnabled": "The boolean yes/no of whether this endpoint should be set to enabled or not."
        },
        "returns": {
          "result": "   | 0: trust anchor is not verified    | 1: endpoint does not exist    | 2: endpoint's enabled status updated"
        }
      },
      "setTrustAnchorDataRetrievalParameters(string,uint8[4])": {
        "details": "Checks whether a specific Trust Anchor has \"generic\" extraData associated to it with a specific endpoint name, updates if necessary, and returns the status. Sets the endpoint to \"enabled\" status if it's being set for the first time.",
        "params": {
          "_endpointName": "The name of the endpoint.",
          "_ipv4Address": "The ipv4 address, an array of 4 uint8's (0-255) corresponding to w.x.y.z components of an ip address."
        },
        "returns": {
          "result": "   | 0: trust anchor is not verified    | 1: endpoint set for the first time    | 2: endpoint updated"
        }
      },
      "setTrustAnchorManagerAddress(address)": {
        "details": "Links Trust Anchor Manager to this contract's function flow.",
        "params": {
          "_trustAnchorManagerAddress": "The smart contract address for the Trust Anchor Manager that should be linked."
        },
        "returns": {
          "result": "   | false: [ will never return false due to require() ]    | true: trust anchor manager address set correctly"
        }
      }
    },
    "stateVariables": {
      "extraData_dataRetrievalParameters": {
        "details": "Mapping for a Trust Anchor to its generic extraData parameters."
      },
      "owner": {
        "details": "The owner of this contract."
      },
      "trustAnchorManagerAddress": {
        "details": "The Trust Anchor Manager address that this contract is bound to."
      }
    },
    "version": 1
  },
  "userdoc": {
    "kind": "user",
    "methods": {
      "getTrustAnchorEndpointNameByIndex(address,uint256)": {
        "notice": "Checks to make sure that the _index parameter is not out of bounds."
      },
      "setTrustAnchorDataRetrievalEndpointIsEnabled(string,bool)": {
        "notice": "Must be called by the Trust Anchor that wants to set their associated generic data."
      },
      "setTrustAnchorDataRetrievalParameters(string,uint8[4])": {
        "notice": "Must be called by the Trust Anchor that wants to set their associated generic data."
      }
    },
    "version": 1
  }
}