{
  "contractName": "TrustAnchorStorage",
  "abi": [
    {
      "inputs": [],
      "stateMutability": "nonpayable",
      "type": "constructor"
    },
    {
      "anonymous": false,
      "inputs": [
        {
          "indexed": false,
          "internalType": "address",
          "name": "_admin",
          "type": "address"
        }
      ],
      "name": "EVT_AdminPromoted",
      "type": "event"
    },
    {
      "anonymous": false,
      "inputs": [
        {
          "indexed": false,
          "internalType": "address",
          "name": "_admin",
          "type": "address"
        }
      ],
      "name": "EVT_AdminRevoked",
      "type": "event"
    },
    {
      "anonymous": false,
      "inputs": [
        {
          "indexed": false,
          "internalType": "address",
          "name": "sender",
          "type": "address"
        },
        {
          "indexed": false,
          "internalType": "address",
          "name": "_identifiedAddress",
          "type": "address"
        },
        {
          "indexed": false,
          "internalType": "bytes32",
          "name": "attestationKeccak",
          "type": "bytes32"
        }
      ],
      "name": "EVT_AttestationAlreadyExists",
      "type": "event"
    },
    {
      "anonymous": false,
      "inputs": [
        {
          "indexed": false,
          "internalType": "address",
          "name": "sender",
          "type": "address"
        },
        {
          "indexed": false,
          "internalType": "address",
          "name": "_identifiedAddress",
          "type": "address"
        },
        {
          "indexed": false,
          "internalType": "bytes32",
          "name": "attestationKeccak",
          "type": "bytes32"
        },
        {
          "indexed": false,
          "internalType": "uint256",
          "name": "_documentsMatrixEncryptedLength",
          "type": "uint256"
        },
        {
          "indexed": false,
          "internalType": "uint256",
          "name": "_availabilityAddressEncryptedLength",
          "type": "uint256"
        }
      ],
      "name": "EVT_AttestationNotValid",
      "type": "event"
    },
    {
      "anonymous": false,
      "inputs": [
        {
          "indexed": false,
          "internalType": "address",
          "name": "_admin",
          "type": "address"
        }
      ],
      "name": "EVT_PrimaryAdminAdded",
      "type": "event"
    },
    {
      "anonymous": false,
      "inputs": [
        {
          "indexed": false,
          "internalType": "bytes32",
          "name": "_attestationKeccak",
          "type": "bytes32"
        }
      ],
      "name": "EVT_REQ_reenableAttestation",
      "type": "event"
    },
    {
      "anonymous": false,
      "inputs": [
        {
          "indexed": false,
          "internalType": "address",
          "name": "msgSender",
          "type": "address"
        },
        {
          "indexed": false,
          "internalType": "bytes32",
          "name": "_attestationKeccak",
          "type": "bytes32"
        }
      ],
      "name": "EVT_REQ_revokeAttestation",
      "type": "event"
    },
    {
      "anonymous": false,
      "inputs": [
        {
          "indexed": false,
          "internalType": "bytes32",
          "name": "_attestationKeccak",
          "type": "bytes32"
        }
      ],
      "name": "EVT_dataRetrievalEntityHasValidatedAttestation",
      "type": "event"
    },
    {
      "anonymous": false,
      "inputs": [
        {
          "indexed": false,
          "internalType": "address",
          "name": "sender",
          "type": "address"
        },
        {
          "indexed": false,
          "internalType": "bytes32",
          "name": "_attestationKeccak",
          "type": "bytes32"
        },
        {
          "indexed": false,
          "internalType": "address",
          "name": "_dataRetrievalTarget",
          "type": "address"
        },
        {
          "indexed": false,
          "internalType": "bytes",
          "name": "_documentsRetrievalConsentedEncrypted",
          "type": "bytes"
        }
      ],
      "name": "EVT_enabledDataRetrievalManaged",
      "type": "event"
    },
    {
      "anonymous": false,
      "inputs": [
        {
          "indexed": false,
          "internalType": "address",
          "name": "sender",
          "type": "address"
        },
        {
          "indexed": false,
          "internalType": "bytes32",
          "name": "_attestationKeccak",
          "type": "bytes32"
        },
        {
          "indexed": false,
          "internalType": "address",
          "name": "_dataRetrievalTarget",
          "type": "address"
        },
        {
          "indexed": false,
          "internalType": "bytes",
          "name": "_documentsRetrievalConsentedEncrypted",
          "type": "bytes"
        }
      ],
      "name": "EVT_enabledDataRetrievalUnmanaged",
      "type": "event"
    },
    {
      "anonymous": false,
      "inputs": [
        {
          "indexed": false,
          "internalType": "bytes32",
          "name": "_attestationKeccak",
          "type": "bytes32"
        },
        {
          "indexed": false,
          "internalType": "address",
          "name": "trustAnchorAddress",
          "type": "address"
        },
        {
          "indexed": false,
          "internalType": "uint16",
          "name": "keccakArrayIndex",
          "type": "uint16"
        },
        {
          "indexed": false,
          "internalType": "bool",
          "name": "isMsgSenderPrimeRevocationManager",
          "type": "bool"
        }
      ],
      "name": "EVT_revokeAttestation",
      "type": "event"
    },
    {
      "anonymous": false,
      "inputs": [
        {
          "indexed": false,
          "internalType": "address",
          "name": "shyftCacheGraphAddress",
          "type": "address"
        }
      ],
      "name": "EVT_revokeAttestationDoRecompile",
      "type": "event"
    },
    {
      "anonymous": false,
      "inputs": [
        {
          "indexed": false,
          "internalType": "address",
          "name": "sender",
          "type": "address"
        },
        {
          "indexed": false,
          "internalType": "bytes32",
          "name": "_attestationKeccak",
          "type": "bytes32"
        },
        {
          "indexed": false,
          "internalType": "address",
          "name": "_dataRetrievalTarget",
          "type": "address"
        }
      ],
      "name": "EVT_revokedDataRetrievalManaged",
      "type": "event"
    },
    {
      "anonymous": false,
      "inputs": [
        {
          "indexed": false,
          "internalType": "address",
          "name": "sender",
          "type": "address"
        },
        {
          "indexed": false,
          "internalType": "bytes32",
          "name": "_attestationKeccak",
          "type": "bytes32"
        },
        {
          "indexed": false,
          "internalType": "address",
          "name": "_dataRetrievalTarget",
          "type": "address"
        }
      ],
      "name": "EVT_revokedDataRetrievalUnmanaged",
      "type": "event"
    },
    {
      "anonymous": false,
      "inputs": [
        {
          "indexed": false,
          "internalType": "bytes32",
          "name": "attestationKeccak",
          "type": "bytes32"
        },
        {
          "indexed": false,
          "internalType": "address",
          "name": "msg_sender",
          "type": "address"
        },
        {
          "indexed": false,
          "internalType": "address",
          "name": "_identifiedAddress",
          "type": "address"
        },
        {
          "indexed": false,
          "internalType": "uint16",
          "name": "_jurisdiction",
          "type": "uint16"
        },
        {
          "indexed": false,
          "internalType": "uint256",
          "name": "_effectiveTime",
          "type": "uint256"
        },
        {
          "indexed": false,
          "internalType": "uint256",
          "name": "_expiryTime",
          "type": "uint256"
        },
        {
          "indexed": false,
          "internalType": "bytes32",
          "name": "_publicData_0",
          "type": "bytes32"
        },
        {
          "indexed": false,
          "internalType": "bytes32",
          "name": "_documentsMatrixEncrypted_0",
          "type": "bytes32"
        },
        {
          "indexed": false,
          "internalType": "bytes32",
          "name": "_availabilityAddressEncrypted",
          "type": "bytes32"
        },
        {
          "indexed": false,
          "internalType": "bool",
          "name": "_isManaged",
          "type": "bool"
        },
        {
          "indexed": false,
          "internalType": "uint256",
          "name": "_publicDataLength",
          "type": "uint256"
        },
        {
          "indexed": false,
          "internalType": "uint256",
          "name": "_documentsMatrixEncryptedLength",
          "type": "uint256"
        }
      ],
      "name": "EVT_setAttestation",
      "type": "event"
    },
    {
      "anonymous": false,
      "inputs": [
        {
          "indexed": false,
          "internalType": "address",
          "name": "identifiedAddress",
          "type": "address"
        },
        {
          "indexed": false,
          "internalType": "address",
          "name": "_trustAnchorAddress",
          "type": "address"
        },
        {
          "indexed": false,
          "internalType": "uint32",
          "name": "_dataSharePercentage",
          "type": "uint32"
        }
      ],
      "name": "EVT_userSetDataRetrievalRevenueShare",
      "type": "event"
    },
    {
      "inputs": [
        {
          "internalType": "uint32",
          "name": "_proposalIndex",
          "type": "uint32"
        }
      ],
      "name": "changeCurrentAdminConfirmationThreshold",
      "outputs": [
        {
          "internalType": "uint8",
          "name": "result",
          "type": "uint8"
        }
      ],
      "stateMutability": "nonpayable",
      "type": "function"
    },
    {
      "inputs": [
        {
          "internalType": "address",
          "name": "_administratorAddress",
          "type": "address"
        }
      ],
      "name": "getAdminAccess",
      "outputs": [
        {
          "internalType": "enum Administrable.AdministratorAccess",
          "name": "result",
          "type": "uint8"
        }
      ],
      "stateMutability": "view",
      "type": "function",
      "constant": true
    },
    {
      "inputs": [
        {
          "internalType": "uint32",
          "name": "_proposalIndex",
          "type": "uint32"
        }
      ],
      "name": "getAdminConfirmationProposal",
      "outputs": [
        {
          "internalType": "uint256",
          "name": "adminThreshold",
          "type": "uint256"
        },
        {
          "internalType": "uint256",
          "name": "endTime",
          "type": "uint256"
        },
        {
          "internalType": "bool",
          "name": "isCompleted",
          "type": "bool"
        }
      ],
      "stateMutability": "view",
      "type": "function",
      "constant": true
    },
    {
      "inputs": [],
      "name": "getAdminConfirmationThreshold",
      "outputs": [
        {
          "internalType": "uint256",
          "name": "results",
          "type": "uint256"
        }
      ],
      "stateMutability": "view",
      "type": "function",
      "constant": true
    },
    {
      "inputs": [],
      "name": "getNumAdminConfirmationProposals",
      "outputs": [
        {
          "internalType": "uint256",
          "name": "result",
          "type": "uint256"
        }
      ],
      "stateMutability": "view",
      "type": "function",
      "constant": true
    },
    {
      "inputs": [
        {
          "internalType": "address",
          "name": "_administratorAddress",
          "type": "address"
        }
      ],
      "name": "isAdministrator",
      "outputs": [
        {
          "internalType": "bool",
          "name": "result",
          "type": "bool"
        }
      ],
      "stateMutability": "view",
      "type": "function",
      "constant": true
    },
    {
      "inputs": [],
      "name": "numAdministrators",
      "outputs": [
        {
          "internalType": "uint256",
          "name": "",
          "type": "uint256"
        }
      ],
      "stateMutability": "view",
      "type": "function",
      "constant": true
    },
    {
      "inputs": [],
      "name": "owner",
      "outputs": [
        {
          "internalType": "address",
          "name": "",
          "type": "address"
        }
      ],
      "stateMutability": "view",
      "type": "function",
      "constant": true
    },
    {
      "inputs": [
        {
          "internalType": "address",
          "name": "_newAdministratorAddress",
          "type": "address"
        }
      ],
      "name": "promoteAdministrator",
      "outputs": [
        {
          "internalType": "uint8",
          "name": "result",
          "type": "uint8"
        }
      ],
      "stateMutability": "nonpayable",
      "type": "function"
    },
    {
      "inputs": [
        {
          "internalType": "uint256",
          "name": "_newThreshold",
          "type": "uint256"
        }
      ],
      "name": "proposeChangeCurrentAdminConfirmationThreshold",
      "outputs": [
        {
          "internalType": "uint8",
          "name": "result",
          "type": "uint8"
        }
      ],
      "stateMutability": "nonpayable",
      "type": "function"
    },
    {
      "inputs": [
        {
          "internalType": "address",
          "name": "_revokeAdministratorAddress",
          "type": "address"
        }
      ],
      "name": "revokeAdministrator",
      "outputs": [
        {
          "internalType": "uint8",
          "name": "result",
          "type": "uint8"
        }
      ],
      "stateMutability": "nonpayable",
      "type": "function"
    },
    {
      "inputs": [
        {
          "internalType": "address",
          "name": "_newAdministratorAddress",
          "type": "address"
        }
      ],
      "name": "setPrimaryAdministrator",
      "outputs": [
        {
          "internalType": "uint8",
          "name": "result",
          "type": "uint8"
        }
      ],
      "stateMutability": "nonpayable",
      "type": "function"
    },
    {
      "inputs": [],
      "name": "shyftCacheGraphAddress",
      "outputs": [
        {
          "internalType": "address",
          "name": "",
          "type": "address"
        }
      ],
      "stateMutability": "view",
      "type": "function",
      "constant": true
    },
    {
      "inputs": [],
      "name": "trustAnchorManagerAddress",
      "outputs": [
        {
          "internalType": "address",
          "name": "",
          "type": "address"
        }
      ],
      "stateMutability": "view",
      "type": "function",
      "constant": true
    },
    {
      "inputs": [
        {
          "internalType": "address",
          "name": "_trustAnchorManagerAddress",
          "type": "address"
        }
      ],
      "name": "setTrustAnchorManagerAddress",
      "outputs": [
        {
          "internalType": "uint8",
          "name": "result",
          "type": "uint8"
        }
      ],
      "stateMutability": "nonpayable",
      "type": "function"
    },
    {
      "inputs": [
        {
          "internalType": "address",
          "name": "_shyftCacheGraphAddress",
          "type": "address"
        }
      ],
      "name": "setShyftCacheGraphAddress",
      "outputs": [
        {
          "internalType": "uint8",
          "name": "result",
          "type": "uint8"
        }
      ],
      "stateMutability": "nonpayable",
      "type": "function"
    },
    {
      "inputs": [
        {
          "internalType": "address",
          "name": "_identifiedAddress",
          "type": "address"
        },
        {
          "internalType": "uint16",
          "name": "_jurisdiction",
          "type": "uint16"
        },
        {
          "internalType": "uint64",
          "name": "_effectiveTime",
          "type": "uint64"
        },
        {
          "internalType": "uint64",
          "name": "_expiryTime",
          "type": "uint64"
        },
        {
          "internalType": "bytes",
          "name": "_publicData",
          "type": "bytes"
        },
        {
          "internalType": "bytes",
          "name": "_documentsMatrixEncrypted",
          "type": "bytes"
        },
        {
          "internalType": "bytes32",
          "name": "_availabilityAddressEncrypted",
          "type": "bytes32"
        },
        {
          "internalType": "bool",
          "name": "_isManaged",
          "type": "bool"
        }
      ],
      "name": "setAttestation",
      "outputs": [
        {
          "internalType": "uint8",
          "name": "result",
          "type": "uint8"
        },
        {
          "internalType": "bytes32",
          "name": "resultAttestationKeccak",
          "type": "bytes32"
        }
      ],
      "stateMutability": "nonpayable",
      "type": "function"
    },
    {
      "inputs": [
        {
          "internalType": "bytes32",
          "name": "_attestationKeccak",
          "type": "bytes32"
        },
        {
          "internalType": "uint8",
          "name": "_attestationValidityTrustAnchorSignatureV",
          "type": "uint8"
        },
        {
          "internalType": "bytes32[2]",
          "name": "_attestationValidityTrustAnchorSignatureRS",
          "type": "bytes32[2]"
        }
      ],
      "name": "signAttestationTrustAnchorSignature",
      "outputs": [
        {
          "internalType": "uint8",
          "name": "result",
          "type": "uint8"
        }
      ],
      "stateMutability": "nonpayable",
      "type": "function"
    },
    {
      "inputs": [
        {
          "internalType": "bytes32",
          "name": "_attestationKeccak",
          "type": "bytes32"
        },
        {
          "internalType": "uint8",
          "name": "_attestationValidityUserSignatureV",
          "type": "uint8"
        },
        {
          "internalType": "bytes32[2]",
          "name": "_attestationValidityUserSignatureRS",
          "type": "bytes32[2]"
        }
      ],
      "name": "signAttestationUserSignature",
      "outputs": [
        {
          "internalType": "uint8",
          "name": "result",
          "type": "uint8"
        }
      ],
      "stateMutability": "nonpayable",
      "type": "function"
    },
    {
      "inputs": [
        {
          "internalType": "bytes32",
          "name": "_attestationKeccak",
          "type": "bytes32"
        }
      ],
      "name": "revokeAttestation",
      "outputs": [
        {
          "internalType": "uint8",
          "name": "result",
          "type": "uint8"
        }
      ],
      "stateMutability": "nonpayable",
      "type": "function"
    },
    {
      "inputs": [
        {
          "internalType": "bytes32",
          "name": "_attestationKeccak",
          "type": "bytes32"
        }
      ],
      "name": "reenableAttestation",
      "outputs": [
        {
          "internalType": "uint8",
          "name": "result",
          "type": "uint8"
        }
      ],
      "stateMutability": "nonpayable",
      "type": "function"
    },
    {
      "inputs": [
        {
          "internalType": "bytes32",
          "name": "_attestationKeccak",
          "type": "bytes32"
        },
        {
          "internalType": "address",
          "name": "_dataRetrievalTarget",
          "type": "address"
        },
        {
          "internalType": "bytes",
          "name": "_documentsRetrievalConsentedEncrypted",
          "type": "bytes"
        }
      ],
      "name": "addDataRetrievalTargetManaged",
      "outputs": [
        {
          "internalType": "uint8",
          "name": "result",
          "type": "uint8"
        }
      ],
      "stateMutability": "nonpayable",
      "type": "function"
    },
    {
      "inputs": [
        {
          "internalType": "bytes32",
          "name": "_attestationKeccak",
          "type": "bytes32"
        },
        {
          "internalType": "address",
          "name": "_dataRetrievalTarget",
          "type": "address"
        },
        {
          "internalType": "bytes",
          "name": "_documentsRetrievalConsentedEncrypted",
          "type": "bytes"
        }
      ],
      "name": "addDataRetrievalTargetFromIdentifiedAddress",
      "outputs": [
        {
          "internalType": "uint8",
          "name": "result",
          "type": "uint8"
        }
      ],
      "stateMutability": "nonpayable",
      "type": "function"
    },
    {
      "inputs": [
        {
          "internalType": "bytes32",
          "name": "_attestationKeccak",
          "type": "bytes32"
        },
        {
          "internalType": "address",
          "name": "_dataRetrievalTarget",
          "type": "address"
        }
      ],
      "name": "removeDataRetrievalTargetManaged",
      "outputs": [
        {
          "internalType": "uint8",
          "name": "result",
          "type": "uint8"
        }
      ],
      "stateMutability": "nonpayable",
      "type": "function"
    },
    {
      "inputs": [
        {
          "internalType": "bytes32",
          "name": "_attestationKeccak",
          "type": "bytes32"
        },
        {
          "internalType": "address",
          "name": "_dataRetrievalTarget",
          "type": "address"
        }
      ],
      "name": "removeDataRetrievalTargetFromIdentifiedAddress",
      "outputs": [
        {
          "internalType": "uint8",
          "name": "result",
          "type": "uint8"
        }
      ],
      "stateMutability": "nonpayable",
      "type": "function"
    },
    {
      "inputs": [
        {
          "internalType": "bytes32",
          "name": "_attestationKeccak",
          "type": "bytes32"
        },
        {
          "internalType": "address",
          "name": "_dataRetrievalTarget",
          "type": "address"
        }
      ],
      "name": "setDataSenderDidSendDocuments",
      "outputs": [
        {
          "internalType": "uint8",
          "name": "result",
          "type": "uint8"
        }
      ],
      "stateMutability": "nonpayable",
      "type": "function"
    },
    {
      "inputs": [
        {
          "internalType": "bytes32",
          "name": "_attestationKeccak",
          "type": "bytes32"
        }
      ],
      "name": "dataRetrievalEntityValidateAttestation",
      "outputs": [
        {
          "internalType": "uint8",
          "name": "result",
          "type": "uint8"
        }
      ],
      "stateMutability": "nonpayable",
      "type": "function"
    },
    {
      "inputs": [
        {
          "internalType": "address",
          "name": "_trustAnchorAddress",
          "type": "address"
        },
        {
          "internalType": "uint32",
          "name": "_dataSharePercentage",
          "type": "uint32"
        }
      ],
      "name": "setDataRetrievalRevenueShare",
      "outputs": [
        {
          "internalType": "uint8",
          "name": "result",
          "type": "uint8"
        }
      ],
      "stateMutability": "nonpayable",
      "type": "function"
    },
    {
      "inputs": [
        {
          "internalType": "address",
          "name": "_identifiedAddress",
          "type": "address"
        },
        {
          "internalType": "address",
          "name": "_trustAnchorAddress",
          "type": "address"
        }
      ],
      "name": "getDataRetrievalRevenueShare",
      "outputs": [
        {
          "internalType": "uint32",
          "name": "dataSharePercentage",
          "type": "uint32"
        }
      ],
      "stateMutability": "view",
      "type": "function",
      "constant": true
    },
    {
      "inputs": [
        {
          "internalType": "address",
          "name": "_identifiedAddress",
          "type": "address"
        }
      ],
      "name": "getAttestationKeccakArrayLengthForIdentifiedAddress",
      "outputs": [
        {
          "internalType": "uint16",
          "name": "keccakArrayLength",
          "type": "uint16"
        }
      ],
      "stateMutability": "view",
      "type": "function",
      "constant": true
    },
    {
      "inputs": [
        {
          "internalType": "address",
          "name": "_trustAnchorAddress",
          "type": "address"
        }
      ],
      "name": "getAttestationKeccakArrayLengthForTrustAnchor",
      "outputs": [
        {
          "internalType": "uint16",
          "name": "keccakArrayLength",
          "type": "uint16"
        }
      ],
      "stateMutability": "view",
      "type": "function",
      "constant": true
    },
    {
      "inputs": [
        {
          "internalType": "bytes32",
          "name": "_attestationKeccak",
          "type": "bytes32"
        }
      ],
      "name": "getAttestationTrustAnchorAddress",
      "outputs": [
        {
          "internalType": "address",
          "name": "trustAnchorAddress",
          "type": "address"
        }
      ],
      "stateMutability": "view",
      "type": "function",
      "constant": true
    },
    {
      "inputs": [
        {
          "internalType": "bytes32",
          "name": "_attestationKeccak",
          "type": "bytes32"
        }
      ],
      "name": "getAttestationOriginalIdentifiedAddress",
      "outputs": [
        {
          "internalType": "address",
          "name": "identifiedAddress",
          "type": "address"
        }
      ],
      "stateMutability": "view",
      "type": "function",
      "constant": true
    },
    {
      "inputs": [
        {
          "internalType": "bytes32",
          "name": "_attestationKeccak",
          "type": "bytes32"
        }
      ],
      "name": "getAttestationCurrentIdentifiedAddress",
      "outputs": [
        {
          "internalType": "address",
          "name": "identifiedAddress",
          "type": "address"
        }
      ],
      "stateMutability": "view",
      "type": "function",
      "constant": true
    },
    {
      "inputs": [
        {
          "internalType": "bytes32",
          "name": "_attestationKeccak",
          "type": "bytes32"
        }
      ],
      "name": "getAttestationTrustAnchorIndex",
      "outputs": [
        {
          "internalType": "uint32",
          "name": "trustAnchorIndex",
          "type": "uint32"
        }
      ],
      "stateMutability": "view",
      "type": "function",
      "constant": true
    },
    {
      "inputs": [
        {
          "internalType": "address",
          "name": "_identifiedAddress",
          "type": "address"
        }
      ],
      "name": "getAttestationKeccakArrayForIdentifiedAddress",
      "outputs": [
        {
          "internalType": "bytes32[]",
          "name": "keccakArray",
          "type": "bytes32[]"
        }
      ],
      "stateMutability": "view",
      "type": "function",
      "constant": true
    },
    {
      "inputs": [
        {
          "internalType": "address",
          "name": "_identifiedAddress",
          "type": "address"
        },
        {
          "internalType": "uint16",
          "name": "_index",
          "type": "uint16"
        }
      ],
      "name": "getIndexedAttestationKeccakHashForIdentifiedUser",
      "outputs": [
        {
          "internalType": "bytes32",
          "name": "keccakHash",
          "type": "bytes32"
        }
      ],
      "stateMutability": "view",
      "type": "function",
      "constant": true
    },
    {
      "inputs": [
        {
          "internalType": "address",
          "name": "_trustAnchorAddress",
          "type": "address"
        }
      ],
      "name": "getAttestationKeccakArrayForTrustAnchor",
      "outputs": [
        {
          "internalType": "bytes32[]",
          "name": "keccakArray",
          "type": "bytes32[]"
        }
      ],
      "stateMutability": "view",
      "type": "function",
      "constant": true
    },
    {
      "inputs": [
        {
          "internalType": "address",
          "name": "_trustAnchorAddress",
          "type": "address"
        },
        {
          "internalType": "uint16",
          "name": "_index",
          "type": "uint16"
        }
      ],
      "name": "getIndexedAttestationKeccakHashForTrustAnchor",
      "outputs": [
        {
          "internalType": "bytes32",
          "name": "keccakHash",
          "type": "bytes32"
        }
      ],
      "stateMutability": "view",
      "type": "function",
      "constant": true
    },
    {
      "inputs": [
        {
          "internalType": "address",
          "name": "_identifiedAddress",
          "type": "address"
        },
        {
          "internalType": "uint16",
          "name": "_index",
          "type": "uint16"
        }
      ],
      "name": "getIndexedAttestationJurisdictionForIdentifiedUser",
      "outputs": [
        {
          "internalType": "uint16",
          "name": "jurisdiction",
          "type": "uint16"
        }
      ],
      "stateMutability": "view",
      "type": "function",
      "constant": true
    },
    {
      "inputs": [
        {
          "internalType": "address",
          "name": "_identifiedAddress",
          "type": "address"
        },
        {
          "internalType": "uint16",
          "name": "_index",
          "type": "uint16"
        }
      ],
      "name": "getIndexedAttestationEffectiveTimeForIdentifiedUser",
      "outputs": [
        {
          "internalType": "uint256",
          "name": "effectiveTime",
          "type": "uint256"
        }
      ],
      "stateMutability": "view",
      "type": "function",
      "constant": true
    },
    {
      "inputs": [
        {
          "internalType": "address",
          "name": "_identifiedAddress",
          "type": "address"
        },
        {
          "internalType": "uint16",
          "name": "_index",
          "type": "uint16"
        }
      ],
      "name": "getIndexedAttestationExpiryTimeForIdentifiedUser",
      "outputs": [
        {
          "internalType": "uint256",
          "name": "expiryTime",
          "type": "uint256"
        }
      ],
      "stateMutability": "view",
      "type": "function",
      "constant": true
    },
    {
      "inputs": [
        {
          "internalType": "address",
          "name": "_identifiedAddress",
          "type": "address"
        },
        {
          "internalType": "uint16",
          "name": "_index",
          "type": "uint16"
        }
      ],
      "name": "getIndexedAttestationAvailabilityAddressEncryptedForIdentifiedUser",
      "outputs": [
        {
          "internalType": "bytes32",
          "name": "availabilityAddressEncrypted",
          "type": "bytes32"
        }
      ],
      "stateMutability": "view",
      "type": "function",
      "constant": true
    },
    {
      "inputs": [
        {
          "internalType": "address",
          "name": "_identifiedAddress",
          "type": "address"
        },
        {
          "internalType": "uint16",
          "name": "_index",
          "type": "uint16"
        }
      ],
      "name": "getGraphConstructableAttestationInKeccakArray",
      "outputs": [
        {
          "internalType": "bytes32",
          "name": "keccakHash",
          "type": "bytes32"
        },
        {
          "internalType": "uint32",
          "name": "trustAnchorIndex",
          "type": "uint32"
        },
        {
          "internalType": "uint16",
          "name": "jurisdiction",
          "type": "uint16"
        },
        {
          "internalType": "bool",
          "name": "attestationStatusApproved",
          "type": "bool"
        }
      ],
      "stateMutability": "view",
      "type": "function",
      "constant": true
    },
    {
      "inputs": [
        {
          "internalType": "address",
          "name": "_identifiedAddress",
          "type": "address"
        },
        {
          "internalType": "uint16",
          "name": "_index",
          "type": "uint16"
        }
      ],
      "name": "getAttestationComponentsInKeccakArray",
      "outputs": [
        {
          "internalType": "address",
          "name": "trustAnchorAddress",
          "type": "address"
        },
        {
          "internalType": "uint16",
          "name": "jurisdiction",
          "type": "uint16"
        },
        {
          "internalType": "uint256",
          "name": "effectiveTime",
          "type": "uint256"
        },
        {
          "internalType": "uint256",
          "name": "expiryTime",
          "type": "uint256"
        },
        {
          "internalType": "bytes",
          "name": "publicData",
          "type": "bytes"
        },
        {
          "internalType": "bytes",
          "name": "documentsMatrixEncrypted",
          "type": "bytes"
        },
        {
          "internalType": "bytes32",
          "name": "availabilityAddressEncrypted",
          "type": "bytes32"
        },
        {
          "internalType": "bool",
          "name": "isManaged",
          "type": "bool"
        },
        {
          "internalType": "uint32",
          "name": "identifiedAddressToTrustAnchorDataRetrievalRevenueShare",
          "type": "uint32"
        }
      ],
      "stateMutability": "view",
      "type": "function",
      "constant": true
    },
    {
      "inputs": [
        {
          "internalType": "bytes32",
          "name": "_attestationKeccak",
          "type": "bytes32"
        }
      ],
      "name": "getAttestationComponents",
      "outputs": [
        {
          "internalType": "address",
          "name": "trustAnchorAddress",
          "type": "address"
        },
        {
          "internalType": "uint16",
          "name": "jurisdiction",
          "type": "uint16"
        },
        {
          "internalType": "uint256",
          "name": "effectiveTime",
          "type": "uint256"
        },
        {
          "internalType": "uint256",
          "name": "expiryTime",
          "type": "uint256"
        },
        {
          "internalType": "bytes",
          "name": "publicData",
          "type": "bytes"
        },
        {
          "internalType": "bytes",
          "name": "documentsMatrixEncrypted",
          "type": "bytes"
        },
        {
          "internalType": "bytes32",
          "name": "availabilityAddressEncrypted",
          "type": "bytes32"
        },
        {
          "internalType": "bool",
          "name": "isManaged",
          "type": "bool"
        }
      ],
      "stateMutability": "view",
      "type": "function",
      "constant": true
    },
    {
      "inputs": [
        {
          "internalType": "address",
          "name": "_identifiedAddress",
          "type": "address"
        },
        {
          "internalType": "uint16",
          "name": "_index",
          "type": "uint16"
        }
      ],
      "name": "getAttestationStatusApprovedInKeccakArray",
      "outputs": [
        {
          "internalType": "bool",
          "name": "attestationStatusApproved",
          "type": "bool"
        }
      ],
      "stateMutability": "view",
      "type": "function",
      "constant": true
    },
    {
      "inputs": [
        {
          "internalType": "address",
          "name": "_identifiedAddress",
          "type": "address"
        },
        {
          "internalType": "uint16",
          "name": "_index",
          "type": "uint16"
        }
      ],
      "name": "getConsentAvailableInKeccakArray",
      "outputs": [
        {
          "internalType": "uint8",
          "name": "consentAvailable",
          "type": "uint8"
        }
      ],
      "stateMutability": "view",
      "type": "function",
      "constant": true
    },
    {
      "inputs": [
        {
          "internalType": "address",
          "name": "_identifiedAddress",
          "type": "address"
        },
        {
          "internalType": "uint16",
          "name": "_index",
          "type": "uint16"
        }
      ],
      "name": "getTrustAnchorAddressInKeccakArray",
      "outputs": [
        {
          "internalType": "address",
          "name": "trustAnchorAddress",
          "type": "address"
        }
      ],
      "stateMutability": "view",
      "type": "function",
      "constant": true
    },
    {
      "inputs": [
        {
          "internalType": "address",
          "name": "_identifiedAddress",
          "type": "address"
        },
        {
          "internalType": "uint16",
          "name": "_index",
          "type": "uint16"
        }
      ],
      "name": "getAttestationValiditySignaturesInKeccakArray",
      "outputs": [
        {
          "internalType": "uint8",
          "name": "validityTrustAnchorSignatureV",
          "type": "uint8"
        },
        {
          "internalType": "bytes32[2]",
          "name": "validityTrustSignatureRS",
          "type": "bytes32[2]"
        },
        {
          "internalType": "uint8",
          "name": "validityUserSignatureV",
          "type": "uint8"
        },
        {
          "internalType": "bytes32[2]",
          "name": "validityUserSignatureRS",
          "type": "bytes32[2]"
        }
      ],
      "stateMutability": "view",
      "type": "function",
      "constant": true
    },
    {
      "inputs": [
        {
          "internalType": "address",
          "name": "_identifiedAddress",
          "type": "address"
        },
        {
          "internalType": "uint16",
          "name": "_index",
          "type": "uint16"
        }
      ],
      "name": "getAttestationValidationsArrayLengthInKeccakArray",
      "outputs": [
        {
          "internalType": "uint16",
          "name": "arrayLength",
          "type": "uint16"
        }
      ],
      "stateMutability": "view",
      "type": "function",
      "constant": true
    },
    {
      "inputs": [
        {
          "internalType": "address",
          "name": "_identifiedAddress",
          "type": "address"
        },
        {
          "internalType": "uint16",
          "name": "_index",
          "type": "uint16"
        },
        {
          "internalType": "address",
          "name": "_retrieverAddress",
          "type": "address"
        }
      ],
      "name": "getAttestationIsValidFromRetrieverInKeccakArray",
      "outputs": [
        {
          "internalType": "bool",
          "name": "isValid",
          "type": "bool"
        }
      ],
      "stateMutability": "view",
      "type": "function",
      "constant": true
    },
    {
      "inputs": [
        {
          "internalType": "bytes32",
          "name": "_attestationKeccak",
          "type": "bytes32"
        },
        {
          "internalType": "address",
          "name": "_retrieverAddress",
          "type": "address"
        }
      ],
      "name": "getAttestationIsValidFromRetriever",
      "outputs": [
        {
          "internalType": "bool",
          "name": "isValid",
          "type": "bool"
        }
      ],
      "stateMutability": "view",
      "type": "function",
      "constant": true
    },
    {
      "inputs": [
        {
          "internalType": "bytes32",
          "name": "_attestationKeccak",
          "type": "bytes32"
        }
      ],
      "name": "getAttestationAllValidations",
      "outputs": [
        {
          "internalType": "address[]",
          "name": "validationEntities",
          "type": "address[]"
        }
      ],
      "stateMutability": "view",
      "type": "function",
      "constant": true
    },
    {
      "inputs": [
        {
          "internalType": "address",
          "name": "_identifiedAddress",
          "type": "address"
        },
        {
          "internalType": "uint16",
          "name": "_index",
          "type": "uint16"
        }
      ],
      "name": "getAttestationDataRetrievalsArrayLengthInKeccakArray",
      "outputs": [
        {
          "internalType": "uint16",
          "name": "arrayLength",
          "type": "uint16"
        }
      ],
      "stateMutability": "view",
      "type": "function",
      "constant": true
    },
    {
      "inputs": [
        {
          "internalType": "address",
          "name": "_identifiedAddress",
          "type": "address"
        },
        {
          "internalType": "uint16",
          "name": "_index",
          "type": "uint16"
        },
        {
          "internalType": "address",
          "name": "_retrieverAddress",
          "type": "address"
        }
      ],
      "name": "getAttestationIsRetrievableFromRetrieverInKeccakArray",
      "outputs": [
        {
          "internalType": "bool",
          "name": "isRetrievable",
          "type": "bool"
        }
      ],
      "stateMutability": "view",
      "type": "function",
      "constant": true
    },
    {
      "inputs": [
        {
          "internalType": "bytes32",
          "name": "_attestationKeccak",
          "type": "bytes32"
        },
        {
          "internalType": "address",
          "name": "_retrieverAddress",
          "type": "address"
        }
      ],
      "name": "getAttestationIsRetrievableFromRetriever",
      "outputs": [
        {
          "internalType": "bool",
          "name": "isRetrievable",
          "type": "bool"
        }
      ],
      "stateMutability": "view",
      "type": "function",
      "constant": true
    },
    {
      "inputs": [
        {
          "internalType": "bytes32",
          "name": "_attestationKeccak",
          "type": "bytes32"
        },
        {
          "internalType": "address",
          "name": "_retrieverAddress",
          "type": "address"
        }
      ],
      "name": "getAttestationRetrievableDocumentsEncryptedFromRetriever",
      "outputs": [
        {
          "internalType": "bytes",
          "name": "consentedDocumentsEncrypted",
          "type": "bytes"
        }
      ],
      "stateMutability": "view",
      "type": "function",
      "constant": true
    },
    {
      "inputs": [
        {
          "internalType": "address",
          "name": "_identifiedAddress",
          "type": "address"
        },
        {
          "internalType": "uint16",
          "name": "_index",
          "type": "uint16"
        },
        {
          "internalType": "address",
          "name": "_retrieverAddress",
          "type": "address"
        }
      ],
      "name": "getAttestationIsSentToRetrieverInKeccakArray",
      "outputs": [
        {
          "internalType": "bool",
          "name": "attestationWasSentToDataRetrievalEntity",
          "type": "bool"
        }
      ],
      "stateMutability": "view",
      "type": "function",
      "constant": true
    },
    {
      "inputs": [
        {
          "internalType": "bytes32",
          "name": "_attestationKeccak",
          "type": "bytes32"
        },
        {
          "internalType": "address",
          "name": "_retrieverAddress",
          "type": "address"
        }
      ],
      "name": "getAttestationDataWasSentToRetrievalEntity",
      "outputs": [
        {
          "internalType": "bool",
          "name": "attestationWasSentToDataRetrievalEntity",
          "type": "bool"
        }
      ],
      "stateMutability": "view",
      "type": "function",
      "constant": true
    },
    {
      "inputs": [
        {
          "internalType": "bytes32",
          "name": "_attestationKeccak",
          "type": "bytes32"
        },
        {
          "internalType": "address",
          "name": "_retrieverAddress",
          "type": "address"
        }
      ],
      "name": "getAttestationDataWasSentToRetrievalEntityTimestamp",
      "outputs": [
        {
          "internalType": "uint256",
          "name": "attestationWasSentToDataRetrievalEntityTimestamp",
          "type": "uint256"
        }
      ],
      "stateMutability": "view",
      "type": "function",
      "constant": true
    },
    {
      "inputs": [
        {
          "internalType": "bytes32",
          "name": "_attestationKeccak",
          "type": "bytes32"
        }
      ],
      "name": "getAttestationIdentifiedAddressToTrustAnchorDataRetrievalRevenueSharePercentage",
      "outputs": [
        {
          "internalType": "uint32",
          "name": "identifiedAddressToTrustAnchorDataRetrievalRevenueShare",
          "type": "uint32"
        }
      ],
      "stateMutability": "view",
      "type": "function",
      "constant": true
    },
    {
      "inputs": [
        {
          "internalType": "bytes32",
          "name": "_attestationKeccak",
          "type": "bytes32"
        }
      ],
      "name": "getAttestationKeccakToIdentifiedAddressAttestationKeccakArrayIndex",
      "outputs": [
        {
          "internalType": "uint16",
          "name": "keccakArrayIndex",
          "type": "uint16"
        }
      ],
      "stateMutability": "view",
      "type": "function",
      "constant": true
    }
  ],
  "bytecode": "0x608060405260026000556007805462ff00001961ffff1990911661800017169055600e80546001600160a01b0319908116909155600f8054909116905534801561004857600080fd5b5060018054336001600160a01b031991821681179091161790556147bf806100716000396000f3fe608060405234801561001057600080fd5b50600436106103c45760003560e01c806376243573116101ff578063b9568dd81161011a578063dc93994d116100ad578063f167e5771161007c578063f167e5771461135c578063f3e512d31461138c578063f4bbdfb714611394578063f6a384b41461143f576103c4565b8063dc93994d146112d0578063e80bb72a146112d8578063ec5f1f5514611304578063f082544b14611330576103c4565b8063cd74e79a116100e9578063cd74e79a1461121a578063d534d02714611246578063d9af51e31461126c578063dbf3c8b9146112b3576103c4565b8063b9568dd814611183578063ba0d746f146111a6578063bd208f95146111c3578063c4ae5d73146111e0576103c4565b8063951538c911610192578063a1bb60ed11610161578063a1bb60ed146110e4578063aaa6d23314611110578063b67e237014611140578063b7500ac314611166576103c4565b8063951538c91461104a57806399aa56311461107a5780639afb2c75146110aa5780639db49809146110c7576103c4565b806383eef820116101ce57806383eef82014610fa657806388f62fce14610fd65780638da5cb5b1461100857806393c64cdb14611010576103c4565b80637624357314610dc85780637a303a9c14610f485780637f639be414610f505780637fd463ca14610f80576103c4565b8063363e8af6116102ef5780634d5e1da61161028257806358ab02891161025157806358ab028914610b97578063662399b014610c38578063675ae98d14610d6c57806376106e5e14610d98576103c4565b80634d5e1da614610acf5780634dfb81d214610aec5780634ea3f93414610b1a5780635890446314610b37576103c4565b80634402bba3116102be5780634402bba314610a1557806347c8c17214610a3b57806349d2225014610a825780634ce72a1314610a9f576103c4565b8063363e8af61461089c5780633816d032146108f65780633a4e5e1e1461092c5780633bb03d69146109e5576103c4565b80630f6fcaae11610367578063160abcac11610336578063160abcac146108065780632192ca121461082c57806323dfe7301461085c5780633370426d14610882576103c4565b80630f6fcaae1461054957806310ccdd881461069d57806312f129a014610713578063135a240a1461074d576103c4565b806306f1c5c3116103a357806306f1c5c3146104a257806308229ea9146104c65780630a2eb301146104e35780630d8421611461051d576103c4565b8062913af6146103c9578063063668c81461040c578063064ad7c21461047c575b600080fd5b6103ec600480360360208110156103df57600080fd5b503563ffffffff16611465565b604080519384526020840192909252151582820152519081900360600190f35b6104666004803603608081101561042257600080fd5b60408051808201825283359360ff60208201351693810192909160808301918084019060029083908390808284376000920191909152509194506114ec9350505050565b6040805160ff9092168252519081900360200190f35b6104666004803603602081101561049257600080fd5b50356001600160a01b0316611630565b6104aa6116d4565b604080516001600160a01b039092168252519081900360200190f35b610466600480360360208110156104dc57600080fd5b50356116e3565b610509600480360360208110156104f957600080fd5b50356001600160a01b031661181c565b604080519115158252519081900360200190f35b6105096004803603604081101561053357600080fd5b50803590602001356001600160a01b0316611857565b6105796004803603604081101561055f57600080fd5b5080356001600160a01b0316906020013561ffff1661188c565b604051808a6001600160a01b031681526020018961ffff168152602001888152602001878152602001806020018060200186815260200185151581526020018463ffffffff168152602001838103835288818151815260200191508051906020019080838360005b838110156105f95781810151838201526020016105e1565b50505050905090810190601f1680156106265780820380516001836020036101000a031916815260200191505b50838103825287518152875160209182019189019080838360005b83811015610659578181015183820152602001610641565b50505050905090810190601f1680156106865780820380516001836020036101000a031916815260200191505b509b50505050505050505050505060405180910390f35b6106c3600480360360208110156106b357600080fd5b50356001600160a01b0316611ad3565b60408051602080825283518183015283519192839290830191858101910280838360005b838110156106ff5781810151838201526020016106e7565b505050509050019250505060405180910390f35b6105096004803603606081101561072957600080fd5b506001600160a01b03813581169161ffff6020820135169160409091013516611b3f565b6104666004803603606081101561076357600080fd5b8135916001600160a01b0360208201351691810190606081016040820135600160201b81111561079257600080fd5b8201836020820111156107a457600080fd5b803590602001918460018302840111600160201b831117156107c557600080fd5b91908080601f016020809104026020016040519081016040528093929190818152602001838380828437600092019190915250929550611bab945050505050565b6104666004803603602081101561081c57600080fd5b50356001600160a01b0316611d8d565b6104666004803603604081101561084257600080fd5b5080356001600160a01b0316906020013561ffff16611e86565b6104666004803603602081101561087257600080fd5b50356001600160a01b0316611ee5565b61088a612148565b60408051918252519081900360200190f35b610466600480360360808110156108b257600080fd5b60408051808201825283359360ff602082013516938101929091608083019180840190600290839083908082843760009201919091525091945061214e9350505050565b6109136004803603602081101561090c57600080fd5b5035612244565b6040805163ffffffff9092168252519081900360200190f35b6104666004803603606081101561094257600080fd5b8135916001600160a01b0360208201351691810190606081016040820135600160201b81111561097157600080fd5b82018360208201111561098357600080fd5b803590602001918460018302840111600160201b831117156109a457600080fd5b91908080601f016020809104026020016040519081016040528093929190818152602001838380828437600092019190915250929550612266945050505050565b6104aa600480360360408110156109fb57600080fd5b5080356001600160a01b0316906020013561ffff16612402565b61046660048036036020811015610a2b57600080fd5b50356001600160a01b031661245f565b610a6b60048036036040811015610a5157600080fd5b5080356001600160a01b0316906020013561ffff16612633565b6040805161ffff9092168252519081900360200190f35b61046660048036036020811015610a9857600080fd5b5035612688565b610a6b60048036036040811015610ab557600080fd5b5080356001600160a01b0316906020013561ffff1661276a565b61046660048036036020811015610ae557600080fd5b50356127ca565b61091360048036036040811015610b0257600080fd5b506001600160a01b0381358116916020013516612a85565b610a6b60048036036020811015610b3057600080fd5b5035612ab6565b610b6760048036036040811015610b4d57600080fd5b5080356001600160a01b0316906020013561ffff16612acc565b6040805194855263ffffffff909316602085015261ffff9091168383015215156060830152519081900360800190f35b610bc360048036036040811015610bad57600080fd5b50803590602001356001600160a01b0316612b4d565b6040805160208082528351818301528351919283929083019185019080838360005b83811015610bfd578181015183820152602001610be5565b50505050905090810190601f168015610c2a5780820380516001836020036101000a031916815260200191505b509250505060405180910390f35b610c5560048036036020811015610c4e57600080fd5b5035612c06565b60405180896001600160a01b031681526020018861ffff16815260200187815260200186815260200180602001806020018581526020018415158152602001838103835287818151815260200191508051906020019080838360005b83811015610cc9578181015183820152602001610cb1565b50505050905090810190601f168015610cf65780820380516001836020036101000a031916815260200191505b50838103825286518152865160209182019188019080838360005b83811015610d29578181015183820152602001610d11565b50505050905090810190601f168015610d565780820380516001836020036101000a031916815260200191505b509a505050505050505050505060405180910390f35b61046660048036036040811015610d8257600080fd5b50803590602001356001600160a01b0316612def565b61050960048036036040811015610dae57600080fd5b5080356001600160a01b0316906020013561ffff16612eb7565b610f2b6004803603610100811015610ddf57600080fd5b6001600160a01b038235169161ffff602082013516916001600160401b03604083013581169260608101359091169181019060a081016080820135600160201b811115610e2b57600080fd5b820183602082011115610e3d57600080fd5b803590602001918460018302840111600160201b83111715610e5e57600080fd5b91908080601f0160208091040260200160405190810160405280939291908181526020018383808284376000920191909152509295949360208101935035915050600160201b811115610eb057600080fd5b820183602082011115610ec257600080fd5b803590602001918460018302840111600160201b83111715610ee357600080fd5b91908080601f01602080910402602001604051908101604052809392919081815260200183838082843760009201919091525092955050823593505050602001351515612f0b565b6040805160ff909316835260208301919091528051918290030190f35b61088a6133a7565b610a6b60048036036040811015610f6657600080fd5b5080356001600160a01b0316906020013561ffff166133ad565b610a6b60048036036020811015610f9657600080fd5b50356001600160a01b0316613402565b61088a60048036036040811015610fbc57600080fd5b5080356001600160a01b0316906020013561ffff1661341d565b61046660048036036040811015610fec57600080fd5b5080356001600160a01b0316906020013563ffffffff1661347a565b6104aa613515565b6105096004803603606081101561102657600080fd5b506001600160a01b03813581169161ffff6020820135169160409091013516613524565b61088a6004803603604081101561106057600080fd5b5080356001600160a01b0316906020013561ffff16613596565b61088a6004803603604081101561109057600080fd5b5080356001600160a01b0316906020013561ffff166135fa565b6106c3600480360360208110156110c057600080fd5b5035613635565b6104aa600480360360208110156110dd57600080fd5b50356136a3565b610466600480360360408110156110fa57600080fd5b50803590602001356001600160a01b03166136be565b61088a6004803603604081101561112657600080fd5b5080356001600160a01b0316906020013561ffff16613783565b610a6b6004803603602081101561115657600080fd5b50356001600160a01b03166137d5565b6104aa6004803603602081101561117c57600080fd5b50356137f0565b6104666004803603602081101561119957600080fd5b503563ffffffff1661380e565b610466600480360360208110156111bc57600080fd5b50356139d5565b610913600480360360208110156111d957600080fd5b5035613af8565b610509600480360360608110156111f657600080fd5b506001600160a01b03813581169161ffff6020820135169160409091013516613b13565b6105096004803603604081101561123057600080fd5b50803590602001356001600160a01b0316613b7f565b6104666004803603602081101561125c57600080fd5b50356001600160a01b0316613bae565b6112926004803603602081101561128257600080fd5b50356001600160a01b0316613c95565b604051808260028111156112a257fe5b815260200191505060405180910390f35b6104aa600480360360208110156112c957600080fd5b5035613cb3565b6104aa613cd1565b610466600480360360408110156112ee57600080fd5b50803590602001356001600160a01b0316613ce0565b6105096004803603604081101561131a57600080fd5b50803590602001356001600160a01b0316613dab565b61088a6004803603604081101561134657600080fd5b50803590602001356001600160a01b0316613dda565b61088a6004803603604081101561137257600080fd5b5080356001600160a01b0316906020013561ffff16613e09565b61088a613e31565b6113c4600480360360408110156113aa57600080fd5b5080356001600160a01b0316906020013561ffff16613e37565b604051808560ff16815260200184600260200280838360005b838110156113f55781810151838201526020016113dd565b505050509050018360ff16815260200182600260200280838360005b83811015611429578181015183820152602001611411565b5050505090500194505050505060405180910390f35b6106c36004803603602081101561145557600080fd5b50356001600160a01b0316613f25565b600080600060068463ffffffff168154811061147d57fe5b90600052602060002090600302016000015460068563ffffffff16815481106114a257fe5b90600052602060002090600302016001015460068663ffffffff16815481106114c757fe5b6000918252602090912060026003909202010154919450925060ff1690509193909250565b600083815260086020526040812060028101546001600160a01b031633141561162357600981015415611619576040805160208082018890523360601b8284015282518083036034018152605483018085528151918301919091208751888401516000938490526074860180885283905260ff8b16609487015260b486019190915260d48501529351909260019260f4808301939192601f198301929081900390910190855afa1580156115a4573d6000803e3d6000fd5b5050604051601f1901519150506001600160a01b03811633141561160d57600b8301805460ff191660ff88161790556115e260098401866002614645565b505050600e01805460ff61010080830482166001019091160261ff0019909116179055506003611629565b60029350505050611629565b6001915050611629565b60009150505b9392505050565b6001546000906001600160a01b03163314156116cb576003546116c3576001600160a01b038216600090815260026020526040902080546001919060ff191682800217905550600380546001019055604080516001600160a01b038416815290517f1767f5d6fdb0884c185778bf3ba4d303dc6af28da0798c96577f7c5450631d8b9181900360200190a15060026116cf565b5060016116cf565b5060005b919050565b600f546001600160a01b031681565b60008181526008602090815260408083208151858152915190927f3d09ec6b7e5447ff61e4bef62211632b5240bc0617d8df43d7895745bd9ae22b928290030190a161172e33613f8f565b8015611746575060028101546001600160a01b031633145b156118125760038101546001600160a01b0316158015906117695750805460ff16155b1561180857805460ff19166001178155600f5460038201546000858152600c602052604080822054815163318b4c3760e21b81526001600160a01b03948516600482015261ffff909116602482015290519290931692839263c62d30dc9260448084019391929182900301818387803b1580156117e557600080fd5b505af11580156117f9573d6000803e3d6000fd5b505050506002925050506116cf565b60019150506116cf565b60009150506116cf565b600060016001600160a01b03831660009081526002602081905260409091205460ff169081111561184957fe5b14156116cb575060016116cf565b60008281526008602090815260408083206001600160a01b0385168452601101909152902054610100900460ff165b92915050565b600080600080606080600080600080600b60008d6001600160a01b03166001600160a01b031681526020019081526020016000208b61ffff16815481106118cf57fe5b60009182526020808320919091015480835260088252604092839020600581018054855160026001831615610100026000190190921691909104601f810186900486028201860190965285815292955090936060938301828280156119755780601f1061194a57610100808354040283529160200191611975565b820191906000526020600020905b81548152906001019060200180831161195857829003601f168201915b5050505060068401805460408051602060026001851615610100026000190190941693909304601f8101849004840282018401909252818152949550606094935090830182828015611a085780601f106119dd57610100808354040283529160200191611a08565b820191906000526020600020905b8154815290600101906020018083116119eb57829003601f168201915b505050505090508260020160009054906101000a90046001600160a01b03168360030160149054906101000a900461ffff168460030160169054906101000a90046001600160401b03168560040160009054906101000a90046001600160401b0316858588600701548960080160009054906101000a900460ff168a60130160009054906101000a900463ffffffff16866001600160401b03169650856001600160401b031695509c509c509c509c509c509c509c509c509c50505050509295985092959850929598565b6001600160a01b0381166000908152600b6020908152604091829020805483518184028101840190945280845260609392830182828015611b3357602002820191906000526020600020905b815481526020019060010190808311611b1f575b50505050509050919050565b6001600160a01b0383166000908152600b602052604081208054600891839161ffff8716908110611b6c57fe5b6000918252602080832090910154835282810193909352604091820181206001600160a01b038616825260110190925290205460ff1690509392505050565b6000611bb633613f8f565b15611d8557611bc483613f8f565b15611d7d5760008481526008602081905260409091209081015460ff16151560011415611d735760028101546001600160a01b0316331415611d69576001600160a01b038416600090815260118201602052604090205460ff161515600114611d5f576001600160a01b03841660009081526011820160209081526040909120805460ff191660011781558451611c6392600390920191860190614683565b506012810180546001810182556000918252602080832090910180546001600160a01b0319166001600160a01b03881690811790915560408051338082528185018b90529181019290925260806060830181815288519184019190915287517f88afc620753083f44dc8bfa500e6554cbdaad77e578eede62e841f8f3623e3b79592948b948b948b949193919260a0850192908601918190849084905b83811015611d18578181015183820152602001611d00565b50505050905090810190601f168015611d455780820380516001836020036101000a031916815260200191505b509550505050505060405180910390a16005915050611629565b6004915050611629565b6003915050611629565b6002915050611629565b506001611629565b506000611629565b60006001600160a01b038216611da257600080fd5b611dab3361181c565b156116cb5760408051757368796674436163686547726170684164647265737360501b6020808301919091526001600160601b0319606086901b1660368301528251602a818403018152604a90920190925280519101206000611e0d8261401c565b9050600080548210611e2157506001611e3e565b6000611e2c84614041565b90506000548110611e3c57600191505b505b60018115151415611e7a57600f80546001600160a01b0319166001600160a01b038716179055611e6d8361414b565b50600293505050506116cf565b600193505050506116cf565b6001600160a01b0382166000908152600b602052604081208054600891839161ffff8616908110611eb357fe5b90600052602060002001548152602001908152602001600020600e0160019054906101000a900460ff16905092915050565b6000611ef03361181c565b156116cb5760016001600160a01b03831660009081526002602081905260409091205460ff1690811115611f2057fe5b146116c357600260035410612095576040805173383937b6b7ba32a0b236b4b734b9ba3930ba37b960611b6020808301919091526001600160601b0319606086901b16603483015282516028818403018152604890920190925280519101206000611f8a8261401c565b9050600080548210611f9e57506001611fbb565b6000611fa984614041565b90506000548110611fb957600191505b505b60018115151415612089576001600160a01b0385166000908152600260205260409020805460ff19166001908117909155600380549091019055611ffe8361414b565b50612041426040516020018080671c1c9bdb5bdd195960c21b81525060080182815260200191505060405160208183030381529060405280519060200120614240565b604080516001600160a01b038716815290517f7f477eb04f5a964ab231fdc42872d9356c3010171ed2c961d9166f49239786979181900360200190a1600293505050506116cf565b600393505050506116cf565b6001600160a01b038216600090815260026020908152604091829020805460ff191660019081179091556003805490910190558151671c1c9bdb5bdd195960c21b8183015242602880830191909152835180830390910181526048909101909252815191012061210490614240565b604080516001600160a01b038416815290517f7f477eb04f5a964ab231fdc42872d9356c3010171ed2c961d9166f49239786979181900360200190a15060026116cf565b60065490565b600083815260086020526040812060038101546001600160a01b031633141561162357600c81015415611619576040805160208082018890523360601b8284015282518083036034018152605483018085528151918301919091208751888401516000938490526074860180885283905260ff8b16609487015260b486019190915260d48501529351909260019260f4808301939192601f198301929081900390910190855afa158015612206573d6000803e3d6000fd5b5050604051601f1901519150506001600160a01b03811633141561160d57600e8301805460ff191660ff88161790556115e2600c8401866002614645565b600090815260086020526040902060020154600160a01b900463ffffffff1690565b600083815260086020526040812061227d84613f8f565b1561162357600881015460ff166116195760038101546001600160a01b0316331415611d73576001600160a01b038416600090815260118201602052604090205460ff161515600114611d69576001600160a01b03841660009081526011820160209081526040909120805460ff19166001178155845161230692600390920191860190614683565b506012810180546001810182556000918252602080832090910180546001600160a01b0319166001600160a01b03881690811790915560408051338082528185018b90529181019290925260806060830181815288519184019190915287517faae3efafde3bc26efec456222562ebc505526668664f38998c2bed94beafd4029592948b948b948b949193919260a0850192908601918190849084905b838110156123bb5781810151838201526020016123a3565b50505050905090810190601f1680156123e85780820380516001836020036101000a031916815260200191505b509550505050505060405180910390a16004915050611629565b6001600160a01b0382166000908152600b602052604081208054600891839161ffff861690811061242f57fe5b600091825260208083209091015483528201929092526040019020600201546001600160a01b0316905092915050565b600061246a3361181c565b156116cb5760016001600160a01b03831660009081526002602081905260409091205460ff169081111561249a57fe5b14156116c357604080517f61646d696e697374726174696f6e5265766f636174696f6e566f7465000000006020808301919091526001600160601b0319606086901b16603c830152825160308184030181526050909201909252805191012060006125048261401c565b905060008054821061251857506001612535565b600061252384614041565b9050600054811061253357600191505b505b60018115151415612627576001600160a01b038516600090815260026020818152604092839020805460ff1916909217909155600380546000190190558151661c995d9bdad95960ca1b818301524260278083019190915283518083039091018152604790910190925281519101206125ad90614240565b60005460035410156125d557600260035411156125cf576003546000556125d5565b60026000555b6125de8361414b565b50604080516001600160a01b038716815290517f79830203ee788345fbc4b7afa193ed483738eaecd94975fa1fa50c09c9a5be1f9181900360200190a1600393505050506116cf565b600293505050506116cf565b6001600160a01b0382166000908152600b602052604081208054600891839161ffff861690811061266057fe5b9060005260206000200154815260200190815260200160002060120180549050905092915050565b60006126933361181c565b156116cb576000821180156126aa57506003548211155b156116c3576126b76146f0565b828152426202a30001602082019081526006805460018101825560009190915282517ff652222313e28459528d920b65115c16c04f3efc82aaedc97be59f3f377c0d3f60039092029182015590517ff652222313e28459528d920b65115c16c04f3efc82aaedc97be59f3f377c0d408201556040909101517ff652222313e28459528d920b65115c16c04f3efc82aaedc97be59f3f377c0d41909101805460ff19169115159190911790555060026116cf565b6001600160a01b0382166000908152600b602052604081208054600891839161ffff861690811061279757fe5b9060005260206000200154815260200190815260200160002060030160149054906101000a900461ffff16905092915050565b600e5460008281526008602090815260408083208151338152928301869052815193946001600160a01b031693909285927f37812e0a2a6753289524cad2fd7a4fe37b531cad0b08b592107926056b49aabb92918290030190a161282d33613f8f565b15612836575060015b60028201546001600160a01b03163314801561284f5750805b806128ca57506040805163512f3d6560e01b815233600482015290516001600160a01b0385169163512f3d659160248083019260209291908290030181600087803b15801561289d57600080fd5b505af11580156128b1573d6000803e3d6000fd5b505050506040513d60208110156128c757600080fd5b50515b15612a795760028201546000868152600c6020908152604080832054815163512f3d6560e01b815233600482015291517fbca8d79269202fca4e947a016bbda449afdd3f366dcb90789b445d15846383ad958b956001600160a01b039182169561ffff90941694918b169363512f3d6593602480850194929391928390030190829087803b15801561295b57600080fd5b505af115801561296f573d6000803e3d6000fd5b505050506040513d602081101561298557600080fd5b5051604080519485526001600160a01b03909316602085015261ffff9091168383015215156060830152519081900360800190a160038201546001600160a01b0316158015906129db5750815460ff1615156001145b15611e7a57815460ff19168255600f5460038301546000878152600c602052604080822054815163318b4c3760e21b81526001600160a01b03948516600482015261ffff909116602482015290519290931692839263c62d30dc9260448084019391929182900301818387803b158015612a5457600080fd5b505af1158015612a68573d6000803e3d6000fd5b5050505060029450505050506116cf565b600093505050506116cf565b6001600160a01b039182166000908152600d6020908152604080832093909416825291909152205463ffffffff1690565b6000908152600c602052604090205461ffff1690565b6001600160a01b0382166000908152600b602052604081208054829182918291829161ffff8816908110612afc57fe5b60009182526020808320919091015480835260089091526040909120600281015460038201549154929a600160a01b9182900463ffffffff169a50910461ffff16975060ff90911695509350505050565b60008281526008602090815260408083206001600160a01b038516845260110182529182902060030180548351601f6002600019610100600186161502019093169290920491820184900484028101840190945280845260609392830182828015612bf95780601f10612bce57610100808354040283529160200191612bf9565b820191906000526020600020905b815481529060010190602001808311612bdc57829003601f168201915b5050505050905092915050565b6000818152600860209081526040808320600581018054835160026001831615610100026000190190921691909104601f8101869004860282018601909452838152859485948594606094859487948594879391830182828015612cab5780601f10612c8057610100808354040283529160200191612cab565b820191906000526020600020905b815481529060010190602001808311612c8e57829003601f168201915b5050505060068401805460408051602060026001851615610100026000190190941693909304601f8101849004840282018401909252818152949550606094935090830182828015612d3e5780601f10612d1357610100808354040283529160200191612d3e565b820191906000526020600020905b815481529060010190602001808311612d2157829003601f168201915b505050505090508260020160009054906101000a90046001600160a01b03168360030160149054906101000a900461ffff168460030160169054906101000a90046001600160401b03168560040160009054906101000a90046001600160401b0316858588600701548960080160009054906101000a900460ff16856001600160401b03169550846001600160401b031694509a509a509a509a509a509a509a509a50505050919395975091939597565b600082815260086020526040812060028101546001600160a01b0316331415612ead576001600160a01b038316600090815260118201602052604090205460ff16151560011415612ea3576001600160a01b0383166000908152601182016020526040902054610100900460ff16612e99576001600160a01b0383166000908152601190910160205260409020805461ff0019166101001781554260019190910155506003611886565b6002915050611886565b6001915050611886565b6000915050611886565b6001600160a01b0382166000908152600b602052604081208054600891839161ffff8616908110612ee457fe5b6000918252602080832090910154835282019290925260400190205460ff16905092915050565b600080612f1733613f8f565b15613393576000808751118015612f2f575060008651115b1561301157338b8b8b8b8b600081518110612f4657fe5b602001015160f81c60f81b6001600160f81b0319168b600081518110612f6857fe5b60209101810151604080516060998a1b6001600160601b0319908116828601529890991b909716603489015260f09590951b6001600160f01b031916604888015260c093841b6001600160c01b0319908116604a8901529290931b9091166052860152605a8501526001600160f81b0319909116607a840152609a830188905286151560f81b60ba8401528151808403609b01815260bb90930190915281519101209050613151565b8551156130cc57338b8b8b8b8a60008151811061302a57fe5b6020910181015160408051606098891b6001600160601b0319908116828601529790981b909616603488015260f09490941b6001600160f01b031916604887015260c092831b6001600160c01b0319908116604a8801529190921b1660528501526001600160f81b0319909116605a840152607a830188905286151560f81b609a8401528151808403607b018152609b90930190915281519101209050613151565b506040805133606090811b602080840191909152908d901b6001600160601b031916603483015260f08c901b6001600160f01b031916604883015260c08b811b6001600160c01b0319908116604a850152908b901b166052830152605a820187905285151560f81b607a8301528251808303605b018152607b90920190925280519101205b600061315f828d898961427a565b905060018115151415613326576000828152600a60205260409020546001600160a01b03166132ce5761319a82338e8e8e8e8e8e8e8e6142c3565b60096000336001600160a01b03166001600160a01b031681526020019081526020016000208290806001815401808255809150506001900390600052602060002001600090919091909150558b600a600084815260200190815260200160002060006101000a8154816001600160a01b0302191690836001600160a01b03160217905550600b60008d6001600160a01b03166001600160a01b0316815260200190815260200160002080549050600c600084815260200190815260200160002060006101000a81548161ffff021916908361ffff160217905550600b60008d6001600160a01b03166001600160a01b0316815260200190815260200160002082908060018154018082558091505060019003906000526020600020016000909190919091505560038293509350505061339a565b604080513381526001600160a01b038e16602082015280820184905290517f0b33c79aea0126b730178c626422d283b05afcb9a498ac8028f51a37ee2e807f9181900360600190a150600292506000915061339a9050565b8651604080513381526001600160a01b038f1660208281019190915281830186905260608201939093526080810192909252517f63ebb1d866d463b1f1d472a6bfd85cde26998f542ff4a8f68a29edcdcb4e47899181900360a00190a150600192506000915061339a9050565b5060009050805b9850989650505050505050565b60005490565b6001600160a01b0382166000908152600b602052604081208054600891839161ffff86169081106133da57fe5b9060005260206000200154815260200190815260200160002060100180549050905092915050565b6001600160a01b03166000908152600b602052604090205490565b6001600160a01b0382166000908152600b602052604081208054600891839161ffff861690811061344a57fe5b600091825260208083209091015483528201929092526040019020600401546001600160401b0316905092915050565b60006305f5e1008263ffffffff161161350d57336000818152600d602090815260408083206001600160a01b03881680855290835292819020805463ffffffff881663ffffffff19909116811790915581519485529184019290925282820152517f2e7d65bff2cffc184a90415da23f2f96c32020372d1b1a31df0f7f010bd6053a9181900360600190a1506001611886565b506000611886565b6001546001600160a01b031681565b6001600160a01b0383166000908152600b602052604081208054600891839161ffff871690811061355157fe5b6000918252602080832090910154835282810193909352604091820181206001600160a01b038616825260110190925290205460ff6101009091041690509392505050565b6001600160a01b0382166000908152600b602052604081208054600891839161ffff86169081106135c357fe5b600091825260208083209091015483528201929092526040019020600301546001600160401b03600160b01b909104169392505050565b6001600160a01b0382166000908152600960205260408120805461ffff841690811061362257fe5b9060005260206000200154905092915050565b600081815260086020908152604091829020601001805483518184028101840190945280845260609392830182828015611b3357602002820191906000526020600020905b81546001600160a01b0316815260019091019060200180831161367a5750505050509050919050565b6000908152600a60205260409020546001600160a01b031690565b600082815260086020819052604082209081015460ff16612ead5760038101546001600160a01b0316331415612ea3576001600160a01b038316600090815260118201602052604090205460ff16151560011415612e99576001600160a01b0383166000818152601183016020908152604091829020805460ff19169055815133815290810187905280820192909252517f4037ff9db4789dffd0d4c20e98fc0fa736138e152a574dd047cd1822ab6496ad9181900360600190a16003915050611886565b6001600160a01b0382166000908152600b602052604081208054600891839161ffff86169081106137b057fe5b9060005260206000200154815260200190815260200160002060070154905092915050565b6001600160a01b031660009081526009602052604090205490565b6000908152600860205260409020600201546001600160a01b031690565b60006138193361181c565b156116cb5760065463ffffffff831610156116c35760035460068363ffffffff168154811061384457fe5b906000526020600020906003020160000154116139cd5760068263ffffffff168154811061386e57fe5b600091825260209091206002600390920201015460ff161580156138b6575060068263ffffffff16815481106138a057fe5b9060005260206000209060030201600101544211155b156139c5576000826040516020018080614768602291396022018263ffffffff1660e01b815260040191505060405160208183030381529060405280519060200120905060006139058261401c565b905060008054821061391957506001613936565b600061392484614041565b9050600054811061393457600191505b505b600181151514156139b95760068563ffffffff168154811061395457fe5b906000526020600020906003020160000154600081905550600160068663ffffffff168154811061398157fe5b60009182526020909120600390910201600201805460ff19169115159190911790556139ac8361414b565b50600593505050506116cf565b600493505050506116cf565b5060036116cf565b5060026116cf565b600081815260086020526040812060028101546001600160a01b0316156118125760028101546001600160a01b031633146118085733600090815260118201602052604090205460ff61010090910416151560011415613aee57336000908152600f8201602052604090205460ff16613ae457336000818152600f8301602090815260408083208054600160ff19918216811790925560108701805480840182559086528486200180546001600160a01b03191687179055948452601186018352928190206002018054909416909217909255805185815290517f87c59259ae26e42a9d7e71d9508aa6ddde0abe9c0dfcf5421fe8b952a6c0a811929181900390910190a160049150506116cf565b60039150506116cf565b60029150506116cf565b60009081526008602052604090206013015463ffffffff1690565b6001600160a01b0383166000908152600b602052604081208054600891839161ffff8716908110613b4057fe5b6000918252602080832090910154835282810193909352604091820181206001600160a01b0386168252600f0190925290205460ff1690509392505050565b60008281526008602090815260408083206001600160a01b0385168452600f0190915290205460ff1692915050565b60006001600160a01b038216613bc357600080fd5b613bcc3361181c565b156116cb57604080517f7472757374416e63686f724d616e6167657241646472657373000000000000006020808301919091526001600160601b0319606086901b1660398301528251602d818403018152604d90920190925280519101206000613c358261401c565b9050600080548210613c4957506001613c66565b6000613c5484614041565b90506000548110613c6457600191505b505b60018115151415611e7a57600e80546001600160a01b0319166001600160a01b038716179055611e6d8361414b565b6001600160a01b031660009081526002602052604090205460ff1690565b6000908152600860205260409020600301546001600160a01b031690565b600e546001600160a01b031681565b600082815260086020819052604082209081015460ff16151560011415612ead5760038101546001600160a01b0316331415612ea3576001600160a01b038316600090815260118201602052604090205460ff16151560011415612e99576001600160a01b0383166000818152601183016020908152604091829020805460ff19169055815133815290810187905280820192909252517ffe5f24e331cb2c79fd92d2df0bbd2f751fbe0793ec3362ddba282377b0a2ee209181900360600190a16003915050611886565b60008281526008602090815260408083206001600160a01b038516845260110190915290205460ff1692915050565b60008281526008602090815260408083206001600160a01b038516845260110190915290206001015492915050565b6001600160a01b0382166000908152600b60205260408120805461ffff841690811061362257fe5b60035481565b6000613e41614713565b6000613e4b614713565b6001600160a01b0386166000908152600b602052604081208054600891839161ffff8a16908110613e7857fe5b60009182526020808320919091015483528201929092526040908101909120600b810154600e82015483518085019485905292945060ff9182169360098601939290911691600c860191849060029082845b815481526020019060010190808311613eca575050604080518082019182905294975085935060029250905082845b815481526020019060010190808311613ef9575050505050905094509450945094505092959194509250565b6001600160a01b038116600090815260096020908152604091829020805483518184028101840190945280845260609392830182828015611b335760200282019190600052602060002090815481526020019060010190808311611b1f5750505050509050919050565b600e5460408051633cff017d60e21b81526001600160a01b03848116600483015291516000939290921691829163f3fc05f4916024808301926020929190829003018186803b158015613fe157600080fd5b505afa158015613ff5573d6000803e3d6000fd5b505050506040513d602081101561400b57600080fd5b5051156118125760019150506116cf565b60008061402883614520565b6000908152600460205260409020600201549392505050565b600061404c3361181c565b156116cb57600061405c83614520565b6003546000828152600460205260409020600201549192501180156140d75750600081815260046020908152604080832033845290915281205460ff1660038111156140a457fe5b14806140d757506003600082815260046020908152604080832033845290915290205460ff1660038111156140d557fe5b145b15614132576000818152600460208181526040808420600281018054600190810190915533808752828552928620805460ff191682179055938352830180549384018155845292200180546001600160a01b03191690911790555b60009081526004602052604090206002015490506116cf565b60006141563361181c565b156116cb57600061416683614520565b600081815260046020526040902060020154909150156118085760005b6000828152600460205260409020600101548110156142045760008281526004602052604081206001810180546003939190859081106141bf57fe5b60009182526020808320909101546001600160a01b031683528201929092526040019020805460ff191660018360038111156141f757fe5b0217905550600101614183565b50600081815260046020526040812061422291600190910190614731565b600090815260046020526040812060029081019190915590506116cf565b6005548160405160200180838152602001828152602001925050506040516020818303038152906040528051906020012060058190555050565b6000841580159061429357506001600160a01b03841615155b801561429f5750825115155b80156142aa57508115155b156142b7575060016142bb565b5060005b949350505050565b600e5460008b81526008602052604090206001600160a01b0390911690426001600160401b0389161180159061431257506001600160401b0387161580614312575042876001600160401b0316115b815460ff19169015151781556002810180546001600160a01b0319166001600160a01b038d81169190911790915560408051630ddf84b960e31b8152336004820152905191841691636efc25c891602480820192602092909190829003018186803b15801561438057600080fd5b505afa158015614394573d6000803e3d6000fd5b505050506040513d60208110156143aa57600080fd5b81019080805190602001909291905050508160020160146101000a81548163ffffffff021916908363ffffffff160217905550898160030160006101000a8154816001600160a01b0302191690836001600160a01b03160217905550888160030160146101000a81548161ffff021916908361ffff160217905550878160030160166101000a8154816001600160401b0302191690836001600160401b03160217905550868160040160006101000a8154816001600160401b0302191690836001600160401b031602179055508581600501908051906020019061448f929190614683565b5084516144a59060068301906020880190614683565b506007810184905560088101805484151560ff199091161790556001600160a01b03808b166000908152600d60209081526040808320938f168352929052205460138201805463ffffffff191663ffffffff9092169190911790556145128c8c8c8c8c8c8c8c8c8c61454f565b505050505050505050505050565b600554604080516020808201939093528082019390935280518084038201815260609093019052815191012090565b7f2b8800c13998dca839efa5ed8dd48bf619a140269171d8a8584ca399e2d58bd88a8a8a8a8a8a8a60008151811061458357fe5b602001015160f81c60f81b6001600160f81b0319168a6000815181106145a557fe5b016020908101518d518d51604080519b8c526001600160a01b039a8b16948c0194909452979098168983015261ffff90951660608901526001600160401b0393841660808901529190921660a087015260c08601919091526001600160f81b031990911660e0850152610100840187905285151561012085015261014084019290925261016083015251908190036101800190a150505050505050505050565b8260028101928215614673579160200282015b82811115614673578251825591602001919060010190614658565b5061467f929150614752565b5090565b828054600181600116156101000203166002900490600052602060002090601f016020900481019282601f106146c457805160ff1916838001178555614673565b828001600101855582156146735791820182811115614673578251825591602001919060010190614658565b604051806060016040528060008152602001600081526020016000151581525090565b60405180604001604052806002906020820280368337509192915050565b508054600082559060005260206000209081019061474f9190614752565b50565b5b8082111561467f576000815560010161475356fe61646d696e436f6e6669726d6174696f6e5468726573686f6c6450726f706f73616ca2646970667358221220fa834d343b662e7b4925887c4c035807d14dfb139b70fc68bac18f01c01691e664736f6c63430007010033",
  "immutableReferences": {},
  "source": "pragma solidity ^0.7.1;\n//SPDX-License-Identifier: UNLICENSED\n\nimport \"./Interfaces/ITrustAnchorStorage.sol\";\nimport \"./Interfaces/ITrustAnchorManager.sol\";\nimport \"./Interfaces/IShyftCacheGraph.sol\";\n\nimport \"./ECRecovery.sol\";\nimport \"./Administrable.sol\";\nimport \"./DataModels/DMTrustAnchor.sol\";\n\n/// @author Chris Forrester, 2018+ Shyft. all rights reserved.\n\n/// @dev\n/// | The Trust Anchor Storage is the contract responsible for maintaining the chain-of-custody for all of the attestations on the Shyft Core architecture.\n/// | The primary design goals are to concentrate attestations into individual accounts, with the responsibility of maintenance of those attestations belonging to the Trust Anchors that has initially posted those attestations.\n/// | To prevent attestation \"spam\" (invalid attestations that end-users don't agree with), there is a signature provided by both the Trust Anchor and the end-user.\n/// | After attestation (prior to signatures), the connected Cache Graph contract can be used to map users to Trust Channels (which are the higher level connectivity to the Trust Anchor network) in an \"un-consented\" manner, after signatures, the Cache Graph can be used to map users to \"consented\" Trust Channels.\n/// |\n/// | There are two ways of managing who provides the permissions for the act of data retrieval.\n/// | One mechanism is a Managed context, where the end-user is giving permission to the Trust Anchor to fully manage the act of data transmission and retrieval on the user's behalf.\n/// | The other mechanism is an Un-managed context, where the end-user is the only entity that has permission to allow data transmission from the source Trust Anchor (that has provided the initial attestation) to another Trust Anchor.\n/// |\n/// | The contents of the attestation consist of:\n/// | 1. The end user's smart contract address that is being attested to.\n/// | 2. The jurisdiction of the attestation (may be different than the Trust Anchor's jurisdiction).\n/// | 3. The effective (start) time of the attestation (in Seconds from Unix Epoch Time).\n/// | 4. The expiry time of the attestation (in Seconds from Unix Epoch Time).\n/// | 5. Any non-PII public metadata (hash codes from the Trust Anchor, etc.)\n/// | 6. The document matrix, a series of 0's and 1's corresponding to the availability of specific pieces of \"hard\" documentation that the Trust Anchor holds. Generally encrypted via symmetric AES to prevent abstracted PII from being leaked on the blockchain directly.\n/// | 7. The availability address, an ethereum-type address corresponding to the smart contract that manages the various economic & regulatory conditions of data transfer from a Trust Anchor to a data retriever. Generally encrypted via symmetric AES to prevent abstracted PII from being leaked on the blockchain directly.\n/// | 8. Whether this attestation is managed by the Trust Anchor. This indicates that consent conditions are applied from the Trust Anchor instead of the end user.\n/// |\n/// | Administrators of this contract are able to be set in order to allow for better management practices, with multi-signature support from the Administrable contract.\n\ncontract TrustAnchorStorage is Administrable, ITrustAnchorStorage, DMTrustAnchor {\n    //@note: due to https://github.com/trufflesuite/truffle-contract/issues/8\n    // events will not log from called contracts (in the attestation revocation call for instance).\n    // this allows for debugging internally.\n//    event EVT_UpdatingCacheGraph(address _identifiedAddress,\n//        uint16 updateLength,\n//        uint16 oldAttestationKeccakArrayLength,\n//        uint16 attestationKeccakArrayLength);\n//    event EVT_DoCompileCacheGraph(address _identifiedAddress,\n//        uint32 i,\n//        uint16 idx);\n//    event EVT_DoConditionallyRemoveTrustChannelEXBitFields(address _identifiedAddress,\n//        uint32 trustAnchorIndex,\n//        bytes32 keccakHash);\n//    event EVT_GotAttestationStatus(address _identifiedAddress,\n//        bool attestationStatusApproved,\n//        bool didChangeApprovedStatus,\n//        uint16 attestationIndex,\n//        bool attestationHasAlreadyBeenProcessed);\n//    event EVT_CompareTime(uint256 _effectiveTime,\n//        uint256 blockTimestamp,\n//        uint256 _expiryTime,\n//        bool isActive);\n//    event EVT_DoCompileCacheGraphTrustChannelEXBitFields(address _identifiedAddress,\n//        bytes32 keccakHash,\n//        bool consentAvailable);\n//    event EVT_GetActiveTrustChannelEXBitFieldLength(uint24 senderHighestSubmapNumber,\n//        uint24 receiverHighestSubmapNumber,\n//        uint256 senderBitfield,\n//        uint256 receiverBitfield,\n//        uint256 andedBitField);\n//    event EVT_GotBitFieldFromTrustAnchor(address trustAnchorAddress,\n//        uint32 trustAnchorIndex,\n//        uint256 bitField);\n\n    //debug from TrustAnchorManager\n//    event EVT_isPrimeRevocationManager(address shyftConduitAddress, address _address);\n\n\n    //debug from ShyftCacheGraph\n//    event EVT_TrustChannelBitFieldWords(uint32 bitFieldWords);\n//    event EVT_TrustChannelBitFieldIndex(uint16 trustChannelIndex);\n//    event EVT_TrustChannelBitFieldIndexEXT(uint32 index,\n//        uint32 shifter,\n//        uint32 trustChannelBitFieldWord,\n//        uint256 trustChannelBitField,\n//        uint16 trustChannelIndex);\n//\n//    event EVT_GotHighestSubmapNumbers(uint24 senderHighestSubmapNumber,\n//        uint24 receiverHighestSubmapNumber);\n//\n//    event EVT_GotLowestAndHighestTrustChannelSubmapNumber(uint24 lowestTrustChannelSubmapNumber,\n//        uint24 highestTrustChannelSubmapNumber);\n//\n//    event EVT_TrustChannelRouted(uint24 trustChannelIndex,\n//        address _senderIdentifiedAddress,\n//        address _receiverIdentifiedAddress);\n\n    /// @dev Event for the setting of an attestation.\n    event EVT_setAttestation(bytes32 attestationKeccak,\n        address msg_sender,\n        address _identifiedAddress,\n        uint16 _jurisdiction,\n        uint256 _effectiveTime,\n        uint256 _expiryTime,\n        bytes32 _publicData_0,\n        bytes32 _documentsMatrixEncrypted_0,\n        bytes32 _availabilityAddressEncrypted,\n        bool _isManaged,\n        uint256 _publicDataLength,\n        uint256 _documentsMatrixEncryptedLength);\n\n    /// @dev Event for an attestation already existing when attempting setAttestation.\n    event EVT_AttestationAlreadyExists(address sender, address _identifiedAddress, bytes32 attestationKeccak);\n    /// @dev Event for an attestation not being valid when attempting setAttestation.\n    event EVT_AttestationNotValid(address sender, address _identifiedAddress, bytes32 attestationKeccak, uint256 _documentsMatrixEncryptedLength, uint256 _availabilityAddressEncryptedLength);\n\n    /// @dev Event for the revoking of an attestation.\n    event EVT_REQ_revokeAttestation(address msgSender, bytes32 _attestationKeccak);\n    /// @dev Event for the re-enabling of an attestation.\n    event EVT_REQ_reenableAttestation(bytes32 _attestationKeccak);\n\n    /// @dev Event for the main phase of the revocation process\n    event EVT_revokeAttestation(bytes32 _attestationKeccak,\n        address trustAnchorAddress,\n        uint16 keccakArrayIndex,\n        bool isMsgSenderPrimeRevocationManager);\n\n    /// @dev Event for the recompilation phase of the revocation process\n    event EVT_revokeAttestationDoRecompile(address shyftCacheGraphAddress);\n\n    /// @dev Event for enabling the data retrieval in a Managed context.\n    event EVT_enabledDataRetrievalManaged(address sender, bytes32 _attestationKeccak, address _dataRetrievalTarget, bytes _documentsRetrievalConsentedEncrypted);\n    /// @dev Event for enabling the data retrieval in a Un-managed context.\n    event EVT_enabledDataRetrievalUnmanaged(address sender, bytes32 _attestationKeccak, address _dataRetrievalTarget, bytes _documentsRetrievalConsentedEncrypted);\n\n    /// @dev Event for revoking the data retrieval in a Managed context.\n    event EVT_revokedDataRetrievalManaged(address sender, bytes32 _attestationKeccak, address _dataRetrievalTarget);\n    /// @dev Event for revoking the data retrieval in an Un-managed context.\n    event EVT_revokedDataRetrievalUnmanaged(address sender, bytes32 _attestationKeccak, address _dataRetrievalTarget);\n\n    /// @dev Event for a User setting their data retrieval revenue share in respect to a Trust Anchor.\n    event EVT_userSetDataRetrievalRevenueShare(address identifiedAddress, address _trustAnchorAddress, uint32 _dataSharePercentage);\n\n    /// @dev Event for a data retrieval entity (receiving a user's pii data) to confirm that they have validated that the pieces of data sent from the source Trust Anchor are consistent with the data retrieval parameters.\n    event EVT_dataRetrievalEntityHasValidatedAttestation(bytes32 _attestationKeccak);\n\n\n    /// @dev Mapping of the attestation keccak hash to the data model of the attestation, which would contain all pertinent properties of an attestation.\n    mapping(bytes32 => trustAnchorAttestation) attestationKeccak_to_attestation;\n\n    /// @dev Mapping of the Trust Anchor address to the attestation keccak array that they have set.\n    mapping(address => bytes32[]) trustAnchorAddress_to_attestationKeccakArray;\n\n    /// @dev Mapping of the attestation keccak hash to the identified address (end user)'s address that is associated with this attestation originally.\n    mapping(bytes32 => address) attestationKeccak_to_identifiedAddress;\n    /// @dev Mapping of the identified address (end user)'s address to the associated attestation array.\n    mapping(address => bytes32[]) identifiedAddress_to_attestationKeccakArray;\n\n    /// @dev Mapping of the attestation keccak hash to the Index in the identified address (end user)'s attestation array.\n    mapping(bytes32 => uint16) attestationKeccak_to_identifiedAddressAttestationKeccakArrayIndex;\n\n    /// @dev Mapping of the mapping of the end-users relation between themselves, their pii-maintaining trust anchor, and their current data revenue share.\n    mapping(address => mapping(address => uint32)) identifiedAddress_to_trustAnchor_to_dataRetrievalRevenueShare;\n\n    /// @dev Address for the Trust Anchor Manager that is linked to this contract.\n    address public trustAnchorManagerAddress = address(0);\n\n    /// @dev Address for the Shyft Cache Graph that is linked to this contract.\n    address public shyftCacheGraphAddress = address(0);\n\n    /// @dev Initializes Trust Anchor Storage with the owner set to the calling public address.\n\n    constructor() {\n        owner = msg.sender;\n    }\n\n    /// @param _trustAnchorManagerAddress The smart contract address for the Trust Anchor Manager that should be linked.\n    /// @dev | Links Trust Anchor Manager to this contract's function flow.\n    ///      | Uses Multi-signature permissions.\n    /// @return result\n    ///    | 0: not an administrator\n    ///    | 1: not enough administrators have permissioned change\n    ///    | 2: set trust anchor manager address\n\n    function setTrustAnchorManagerAddress(address _trustAnchorManagerAddress) public returns (uint8 result) {\n        require(_trustAnchorManagerAddress != address(0));\n\n        if (isAdministrator(msg.sender)) {\n            bytes32 keyKeccak = keccak256(abi.encodePacked(\"trustAnchorManagerAddress\", _trustAnchorManagerAddress));\n\n            uint256 numPermissions = getPermissionsForMultisignKey(keyKeccak);\n\n            bool permittedToModify;\n\n            if (numPermissions >= adminConfirmationThreshold) {\n                permittedToModify = true;\n            } else {\n                uint256 numConfirmedPermissions = adminApplyAndGetPermissionsForMultisignKey(keyKeccak);\n\n                if (numConfirmedPermissions >= adminConfirmationThreshold) {\n                    permittedToModify = true;\n                }\n            }\n\n            if (permittedToModify == true) {\n                trustAnchorManagerAddress = _trustAnchorManagerAddress;\n\n                adminResetPermissionsForMultisignKey(keyKeccak);\n\n                // trust anchor set\n                return 2;\n\n            } else {\n                // not enough administrators have permissioned change\n                return 1;\n            }\n        } else {\n            // not an administrator\n            return 0;\n        }\n    }\n\n    /// @param _shyftCacheGraphAddress The smart contract address for the Shyft CacheGraph that should be linked.\n    /// @dev | Links a Shyft Cache Graph to this contract's function flow.\n    ///      | Uses Multi-signature permissions.\n    /// @return result\n    ///    | 0: not an administrator\n    ///    | 1: not enough administrators have permissioned change\n    ///    | 2: set shyft cache graph address\n\n    function setShyftCacheGraphAddress(address _shyftCacheGraphAddress) public returns (uint8 result) {\n        require(_shyftCacheGraphAddress != address(0));\n\n        if (isAdministrator(msg.sender)) {\n            bytes32 keyKeccak = keccak256(abi.encodePacked(\"shyftCacheGraphAddress\", _shyftCacheGraphAddress));\n\n            uint256 numPermissions = getPermissionsForMultisignKey(keyKeccak);\n\n            bool permittedToModify;\n\n            if (numPermissions >= adminConfirmationThreshold) {\n                permittedToModify = true;\n            } else {\n                uint256 numConfirmedPermissions = adminApplyAndGetPermissionsForMultisignKey(keyKeccak);\n\n                if (numConfirmedPermissions >= adminConfirmationThreshold) {\n                    permittedToModify = true;\n                }\n            }\n\n            if (permittedToModify == true) {\n                shyftCacheGraphAddress = _shyftCacheGraphAddress;\n\n                adminResetPermissionsForMultisignKey(keyKeccak);\n\n                // trust anchor set\n                return 2;\n\n            } else {\n                // not enough administrators have permissioned change\n                return 1;\n            }\n        } else {\n            // not an administrator\n            return 0;\n        }\n    }\n\n    // ** attestations caching and management ** //\n\n    /// @param _trustAnchorAddress The smart contract address that is checked for Verified status.\n    /// @dev | Checks whether a Trust Anchor is verified, using a public address. Uses the Trust Anchor Manager linkage to return results.\n    /// @return result\n    ///    | false = not verified\n    ///    | true = is verified\n\n    function isTrustAnchorVerified(address _trustAnchorAddress) internal view returns (bool result){\n        ITrustAnchorManager trustAnchorManager = ITrustAnchorManager(trustAnchorManagerAddress);\n\n        if (trustAnchorManager.isTrustAnchorVerified(_trustAnchorAddress)) {\n            //verified address\n            return true;\n        } else {\n            //address not verified\n            return false;\n        }\n    }\n\n    //@reference: for remix input\n    //\"0x405346187a971f064f33a8e1368bb86dbf054368\", \"0x85d14957f6d70b3b3921a460e12b5c88186e44ef\", 12, 0, 0, \"gdageagsgc\", \"rtryrturuyrt\", \"0xe0b59a365a026b8ce1524e5b1f293effd626b380\", \"0xe0b59a365a026b8ce1524e5b1f293effd626b380\"\n    //\"0x405346187a971f064f33a8e1368bb86dbf054368\", \"0x85d14957f6d70b3b3921a460e12b5c88186e44ef\", 12, 0, 0, \"\", \"\", \"0xe0b59a365a026b8ce1524e5b1f293effd626b380\", \"0xe0b59a365a026b8ce1524e5b1f293effd626b380\"\n\n    //@note:@todo:@next:@here: maybe adding in coinflip-blinding around specific data fields & hence total kyc level would make sense.\n    // so it'd turn into a statistically relative level that could be attested to, without revealing the exact dimensionality of the\n    // individual's data.\n\n    //@note:@todo:@next:@here: it might be useful to add another field here of what the trust anchor's address\n    // is. That way, a mapping could be made by another trust anchor's source.\n    //\n    // The main issue with this is that the act of baking the trust anchor's trust channels requires the\n    // trust anchor's signature.\n\n    /// @param _identifiedAddress The end user's smart contract address that is being attested to.\n    /// @param _jurisdiction The jurisdiction of the attestation (may be different than the Trust Anchor's jurisdiction).\n    /// @param _effectiveTime The effective (start) time of the attestation (in Seconds from Unix Epoch Time).\n    /// @param _expiryTime The expiry time of the attestation (in Seconds from Unix Epoch Time).\n    /// @param _publicData Any non-PII public metadata (hash codes from the Trust Anchor, etc.)\n    /// @param _documentsMatrixEncrypted The document matrix, a series of 0's and 1's corresponding to the availability of specific pieces of \"hard\" documentation that the Trust Anchor holds. Generally encrypted via symmetric AES to prevent abstracted PII from being leaked on the blockchain directly.\n    /// @param _availabilityAddressEncrypted The availability address, an ethereum-type address corresponding to the smart contract that manages the various economic & regulatory conditions of data transfer from a Trust Anchor to a data retriever. Generally encrypted via symmetric AES to prevent abstracted PII from being leaked on the blockchain directly.\n    /// @param _isManaged Whether this attestation is managed by the Trust Anchor. This indicates that consent conditions are applied from the Trust Anchor instead of the end user.\n    /// @dev | Sets an attestation for a specific Shyft end-user, sent by a (Verified) Trust Anchor.\n    ///      | Contains all the information required to perform a lookup for the \"hard\" or \"light\" identity, via the \"document matrix\", as defined in the Shyft Bluepaper [ insert website link here ].\n    ///      | The \"availability address\" is a public address that contains the smart contract code for dealing with escrows for identity payment, restrictions, regulatory rules etc.\n    ///      | Symmetric AES encryption is a preferable way of encoding the \"document matrix\" and the \"availability address\", as these could contain (maximally) abstracted PII in the form of bit fields containing the documents that can be retrieved.\n    ///      | Given the nature of smart contract operation, any subsequent updates that rely on \"effectiveTime\" and \"expiryTime\" will need further calls to update the Shyft Cache Graph for full status updates within the Shyft Core architecture flow regarding the current validity of attestations to end-user's accounts.\n    /// @return result\n    ///               | 0 =  trust anchor is not verified\n    ///               | 1 =  attestation not valid\n    ///               | 2 =  attestation already exists\n    ///               | 3 =  attestation set (returns resultAttestationKeccak != 0)\n    /// @return resultAttestationKeccak resultant keccak hash of the attestation. used for further referencing within the shyft core architecture.\n\n    //@note:@todo:@next: add block number so that cachegraph updates can wait for N blocks\n    function setAttestation(address _identifiedAddress,\n                            uint16 _jurisdiction,\n                            uint64 _effectiveTime,\n                            uint64 _expiryTime,\n                            bytes memory _publicData,\n                            bytes memory _documentsMatrixEncrypted,\n                            bytes32 _availabilityAddressEncrypted,\n                            bool _isManaged) public override returns (uint8 result, bytes32 resultAttestationKeccak) {\n        if (isTrustAnchorVerified(msg.sender)) {\n            // Notes on Keccak hash:\n            // the bitmap from the _documents is used\n            // so is the nonce (first 8 bit unsigned int) from the publicData field.\n\n            bytes32 attestationKeccak;\n\n            if (_publicData.length > 0 && _documentsMatrixEncrypted.length > 0) {\n                attestationKeccak = keccak256(abi.encodePacked(\n                                                msg.sender,\n                                                _identifiedAddress,\n                                                _jurisdiction,\n                                                _effectiveTime,\n                                                _expiryTime,\n                                                bytes32(_publicData[0]),\n                                                bytes32(_documentsMatrixEncrypted[0]),\n                                                _availabilityAddressEncrypted,\n                                                _isManaged));\n            } else {\n                if (_documentsMatrixEncrypted.length > 0) {\n                    attestationKeccak = keccak256(abi.encodePacked(\n                                                    msg.sender,\n                                                    _identifiedAddress,\n                                                    _jurisdiction,\n                                                    _effectiveTime,\n                                                    _expiryTime,\n                                                    bytes32(_documentsMatrixEncrypted[0]),\n                                                    _availabilityAddressEncrypted,\n                                                    _isManaged));\n                } else {\n                    attestationKeccak = keccak256(abi.encodePacked(\n                                                    msg.sender,\n                                                    _identifiedAddress,\n                                                    _jurisdiction,\n                                                    _effectiveTime,\n                                                    _expiryTime,\n                                                    _availabilityAddressEncrypted,\n                                                    _isManaged));\n                }\n            }\n\n            bool verificationStatus = verifyAttestationValidity(attestationKeccak,\n                                                                _identifiedAddress,\n                                                                _documentsMatrixEncrypted,\n                                                                _availabilityAddressEncrypted);\n\n            if (verificationStatus == true) {\n                //@note: @checkwhenupdating: for reference\n                // address attestorAddress;\n\n                // address identifiedAddress;\n                // uint16 jurisdiction;\n                // uint64 effectiveTime;\n                // uint64 expiryTime;\n                // bytes publicData;\n\n                // bytes documentsMatrixEncrypted;\n                // bytes32 availabilityAddressEncrypted;\n\n                // bytes32 trustAnchorPublicAddressEncrypted;\n\n                //make sure the attestation has not been set for this identifiedAddress yet.\n                if (attestationKeccak_to_identifiedAddress[attestationKeccak] == address(0)) {\n                    //set the main attestation in storage\n                    createAttestation(  attestationKeccak,\n                                        msg.sender,\n                                        _identifiedAddress,\n                                        _jurisdiction,\n                                        _effectiveTime,\n                                        _expiryTime,\n                                        _publicData,\n                                        _documentsMatrixEncrypted,\n                                        _availabilityAddressEncrypted,\n                                        _isManaged);\n\n                    //add the attestation keccak to the trust anchor's list\n                    //@note:@here:@todo: not checking bounds.. will this be an issue?\n                    trustAnchorAddress_to_attestationKeccakArray[msg.sender].push(attestationKeccak);\n                    //create a attestation keccak to end-user mapping\n                    attestationKeccak_to_identifiedAddress[attestationKeccak] = _identifiedAddress;\n                    //add the attestation keccak to the users's list\n                    //@note:@here:@todo: not checking bounds.. will this be an issue?\n                    attestationKeccak_to_identifiedAddressAttestationKeccakArrayIndex[attestationKeccak] = uint16(identifiedAddress_to_attestationKeccakArray[_identifiedAddress].length);\n                    identifiedAddress_to_attestationKeccakArray[_identifiedAddress].push(attestationKeccak);\n\n                    //attestation set\n                    return (3, attestationKeccak);\n                } else {\n                    emit EVT_AttestationAlreadyExists(msg.sender, _identifiedAddress, attestationKeccak);\n                    //attestation already exists\n                    return (2, 0);\n                }\n            } else {\n                emit EVT_AttestationNotValid(msg.sender, _identifiedAddress, attestationKeccak, _documentsMatrixEncrypted.length, _availabilityAddressEncrypted.length);\n\n                //attestation not valid\n                return (1, 0);\n            }\n        } else {\n            //trust anchor is not verified\n            return (0, 0);\n        }\n    }\n\n    //@note:@todo:@critical: there is a differentiation of the \"current\" and \"original\" identified address.. the case where we'd\n    // want to be able to have trust anchors update the identified address of an attestation is a useful one in context where there\n    // is a need to change identity data (either on behalf of or directed by a user), to recover attestations for example.\n\n    /// @param _identifiedAddress The end user's smart contract address that is being attested to.\n    /// @param _trustAnchorAddress The trust anchor that this attestation is being created by.\n    /// @param _jurisdiction The jurisdiction of the attestation (may be different than the Trust Anchor's jurisdiction).\n    /// @param _effectiveTime The effective (start) time of the attestation (in Seconds from Unix Epoch Time).\n    /// @param _expiryTime The expiry time of the attestation (in Seconds from Unix Epoch Time).\n    /// @param _publicData Any non-PII public metadata (hash codes from the Trust Anchor, etc.)\n    /// @param _documentsMatrixEncrypted The document matrix, a series of 0's and 1's corresponding to the availability of specific pieces of \"hard\" documentation that the Trust Anchor holds. Generally encrypted via symmetric AES to prevent abstracted PII from being leaked on the blockchain directly.\n    /// @param _availabilityAddressEncrypted The availability address, an ethereum-type address corresponding to the smart contract that manages the various economic & regulatory conditions of data transfer from a Trust Anchor to a data retriever. Generally encrypted via symmetric AES to prevent abstracted PII from being leaked on the blockchain directly.\n    /// @param _isManaged Whether this attestation is managed by the Trust Anchor. This indicates that consent conditions are applied from the Trust Anchor instead of the end user.\n    /// @dev | Internally creates the attestation for a specific Shyft end-user, sent by a (Verified) Trust Anchor. Internally called from \"setAttestation\".\n\n    function createAttestation( bytes32 _attestationKeccak,\n                                address _trustAnchorAddress,\n                                address _identifiedAddress,\n                                uint16 _jurisdiction,\n                                uint64 _effectiveTime,\n                                uint64 _expiryTime,\n                                bytes memory _publicData,\n                                bytes memory _documentsMatrixEncrypted,\n                                bytes32 _availabilityAddressEncrypted,\n                                bool _isManaged) internal {\n        ITrustAnchorManager trustAnchorManager = ITrustAnchorManager(trustAnchorManagerAddress);\n\n        trustAnchorAttestation storage newAttestation = attestationKeccak_to_attestation[_attestationKeccak];\n\n        newAttestation.attestationStatusApproved = (_effectiveTime <= block.timestamp && (_expiryTime == 0 || _expiryTime > block.timestamp));\n\n        newAttestation.trustAnchorAddress = _trustAnchorAddress;\n        newAttestation.trustAnchorIndex = trustAnchorManager.getTrustAnchorIndex(msg.sender);\n        newAttestation.identifiedAddress = _identifiedAddress;\n        newAttestation.jurisdiction = _jurisdiction;\n        newAttestation.effectiveTime = _effectiveTime;\n        newAttestation.expiryTime = _expiryTime;\n        newAttestation.publicData = _publicData;\n\n        newAttestation.documentsMatrixEncrypted = _documentsMatrixEncrypted;\n        newAttestation.availabilityAddressEncrypted = _availabilityAddressEncrypted;\n\n        newAttestation.isManaged = _isManaged;\n\n        newAttestation.identifiedAddressToTrustAnchorDataRetrievalRevenueShare = identifiedAddress_to_trustAnchor_to_dataRetrievalRevenueShare[_identifiedAddress][_trustAnchorAddress];\n\n        postAttestationEvent(   _attestationKeccak,\n                                _trustAnchorAddress,\n                                _identifiedAddress,\n                                _jurisdiction,\n                                _effectiveTime,\n                                _expiryTime,\n                                _publicData,\n                                _documentsMatrixEncrypted,\n                                _availabilityAddressEncrypted,\n                                _isManaged);\n    }\n\n    /// @param _identifiedAddress The end user's smart contract address that is being attested to.\n    /// @param _trustAnchorAddress The trust anchor that this attestation is being created by.\n    /// @param _jurisdiction The jurisdiction of the attestation (may be different than the Trust Anchor's jurisdiction).\n    /// @param _effectiveTime The effective (start) time of the attestation (in Seconds from Unix Epoch Time).\n    /// @param _expiryTime The expiry time of the attestation (in Seconds from Unix Epoch Time).\n    /// @param _publicData Any non-PII public metadata (hash codes from the Trust Anchor, etc.)\n    /// @param _documentsMatrixEncrypted The document matrix, a series of 0's and 1's corresponding to the availability of specific pieces of \"hard\" documentation that the Trust Anchor holds. Generally encrypted via symmetric AES to prevent abstracted PII from being leaked on the blockchain directly.\n    /// @param _availabilityAddressEncrypted The availability address, an ethereum-type address corresponding to the smart contract that manages the various economic & regulatory conditions of data transfer from a Trust Anchor to a data retriever. Generally encrypted via symmetric AES to prevent abstracted PII from being leaked on the blockchain directly.\n    /// @param _isManaged Whether this attestation is managed by the Trust Anchor. This indicates that consent conditions are applied from the Trust Anchor instead of the end user.\n    /// @dev Emits the \"setAttestation\" event with enough variables to fully inform a watcher of a new attestations variables and state. Internally called from \"createAttestation\". While it may seem strange to have a function dedicated to a single event emission, this is a firm requirement due to the call depth stack of the ethereum EVM.\n\n    function postAttestationEvent(  bytes32 _attestationKeccak,\n                                    address _trustAnchorAddress,\n                                    address _identifiedAddress,\n                                    uint16 _jurisdiction,\n                                    uint64 _effectiveTime,\n                                    uint64 _expiryTime,\n                                    bytes memory _publicData,\n                                    bytes memory _documentsMatrixEncrypted,\n                                    bytes32 _availabilityAddressEncrypted,\n                                    bool _isManaged) internal {\n        // emit event related to the setting of this attestation.\n        emit EVT_setAttestation(_attestationKeccak,\n                                _trustAnchorAddress,\n                                _identifiedAddress,\n                                _jurisdiction,\n                                _effectiveTime,\n                                _expiryTime,\n                                bytes32(_publicData[0]),\n                                bytes32(_documentsMatrixEncrypted[0]),\n                                _availabilityAddressEncrypted,\n                                _isManaged,\n                                _publicData.length,\n                                _documentsMatrixEncrypted.length);\n    }\n\n    //@note:@here:@todo:@next:@critical: in the case where consent has changed, there should be a method of updating (appending to the \"consented\" trust channel mappings for instance) the associated attestations.\n    // otherwise, compiling a non-consented (yet) attestation will prevent the compilation to the consented channels.\n\n    //@note: this attestation has the consent of the trust anchor to be published.\n    // causes a secondary consented attestation and the ability of this to be published on the fully consented trust\n    // channel rails.\n\n    /// @param _attestationKeccak The attestation's keccak hash.\n    /// @param _attestationValidityTrustAnchorSignatureV Part of the Trust Anchor's signature that is used by the ecrecover function to validate the signature.\n    /// @param _attestationValidityTrustAnchorSignatureRS Part of the Trust Anchor's signature that is used by the ecrecover function to validate the signature.\n    /// @dev | Provides a valid signature from the Trust Anchor, for a specific attestation. With the Trust Anchor's signature, allows the attestation to be considered fully consented on the Trust Channel architecture.\n    /// @return result\n    ///    | 0 = sender is not the trust anchor address that created this attestation\n    ///    | 1 = already signed\n    ///    | 2 = invalid signature\n    ///    | 3 = stored valid signature\n\n    function signAttestationTrustAnchorSignature(bytes32 _attestationKeccak,\n                                                 uint8 _attestationValidityTrustAnchorSignatureV,\n                                                 bytes32[2] memory _attestationValidityTrustAnchorSignatureRS) public override returns (uint8 result) {\n        trustAnchorAttestation storage attestation = attestationKeccak_to_attestation[_attestationKeccak];\n\n        if (attestation.trustAnchorAddress == msg.sender) {\n            if (attestation.attestationValidityTrustAnchorSignatureRS[0] != 0) {\n                bytes32 attestationAndTrustAnchorAddressKeccak = keccak256(abi.encodePacked(_attestationKeccak, msg.sender));\n\n                address recoveredAddress = ecrecover(attestationAndTrustAnchorAddressKeccak, _attestationValidityTrustAnchorSignatureV, _attestationValidityTrustAnchorSignatureRS[0], _attestationValidityTrustAnchorSignatureRS[1]);\n                // address recoveredAddress = ECRecovery.recover(_attestationKeccak, _attestationValidityTrustAnchorSignature);\n                // this should recover the trust anchor's address, but this is encrypted...\n                if (recoveredAddress == msg.sender) {\n                    attestation.attestationValidityTrustAnchorSignatureV = _attestationValidityTrustAnchorSignatureV;\n                    attestation.attestationValidityTrustAnchorSignatureRS = _attestationValidityTrustAnchorSignatureRS;\n\n                    attestation.consentAvailable++;\n\n                    //stored valid signature\n                    return 3;\n                } else {\n                    //invalid signature\n                    return 2;\n                }\n            } else {\n                //already signed\n                return 1;\n            }\n        } else {\n            //sender is not the trust anchor address that created this attestation\n            return 0;\n        }\n    }\n\n    /// @param _attestationKeccak The attestation's keccak hash.\n    /// @param _attestationValidityUserSignatureV Part of the end user's signature that is used by the ecrecover function to validate the signature.\n    /// @param _attestationValidityUserSignatureRS Part of the end user's signature that is used by the ecrecover function to validate the signature.\n    /// @dev | Provides a valid signature from the end user, for a specific attestation. With the Trust Anchor's signature, allows the attestation to be considered fully consented on the Trust Channel architecture.\n    ///      | One of the uses of this is to prevent spam attestations from being considered on the consented rails.\n    /// @return result\n    ///    | 0 = sender is not the user address that is associated with this attestation\n    ///    | 1 = already signed\n    ///    | 2 = invalid signature\n    ///    | 3 = stored valid signature\n\n    function signAttestationUserSignature(bytes32 _attestationKeccak,\n        uint8 _attestationValidityUserSignatureV, bytes32[2] memory _attestationValidityUserSignatureRS) public override returns (uint8 result) {\n        trustAnchorAttestation storage attestation = attestationKeccak_to_attestation[_attestationKeccak];\n\n        if (attestation.identifiedAddress == msg.sender) {\n            if (attestation.attestationValidityUserSignatureRS[0] != 0) {\n                bytes32 attestationAndUserAddressKeccak = keccak256(abi.encodePacked(_attestationKeccak, msg.sender));\n\n                address recoveredAddress = ecrecover(attestationAndUserAddressKeccak, _attestationValidityUserSignatureV, _attestationValidityUserSignatureRS[0], _attestationValidityUserSignatureRS[1]);\n                // address recoveredAddress = ECRecovery.recover(_attestationKeccak, _attestationValidityTrustAnchorSignature);\n                // this should recover the trust anchor's address, but this is encrypted...\n                if (recoveredAddress == msg.sender) {\n                    attestation.attestationValidityUserSignatureV = _attestationValidityUserSignatureV;\n                    attestation.attestationValidityUserSignatureRS = _attestationValidityUserSignatureRS;\n\n                    attestation.consentAvailable++;\n\n                    //stored valid signature\n                    return 3;\n                } else {\n                    //invalid signature\n                    return 2;\n                }\n            } else {\n                //already signed\n                return 1;\n            }\n        } else {\n            //sender is not the user address that is associated with this attestation\n            return 0;\n        }\n    }\n\n    //@note: @here: @todo: @optimization: should build a function to clear (only by admin access) data by previous (offchain) computation of dirty objects.\n    // this should only be used however once we know what the cost (and thus the gas savings of the storage) would look like to rebuild identifiedAddress graph caches.\n    // function clearAttestationNoCheck(bytes32 _attestationKeccak) public returns (uint8 result) {\n    //     if (isTrustAnchorVerified(msg.sender)) {\n    //         trustAnchorAttestation storage attestation = attestationKeccak_to_attestation[_attestationKeccak];\n    //         if (msg.sender == attestation.attestorAddress) {\n    //             delete attestation.identifiedAddress;\n    //             delete attestation.jurisdiction;\n    //             delete attestation.effectiveTime;\n    //             delete attestation.expiryTime;\n    //             delete attestation.documentsMatrixEncrypted;\n    //             delete attestation.availabilityAddressEncrypted;\n    //             delete attestation.publicData;\n    //         }\n    //         return 1;\n    //     }\n\n    //     //trust anchor not verified\n    //     return 0;\n    // }\n\n\n    /// @param _attestationKeccak The attestation's keccak hash.\n    /// @param _identifiedAddress The end user's smart contract address that this attestation is associated to.\n    /// @param _documentsMatrixEncrypted The document matrix, a series of 0's and 1's corresponding to the availability of specific pieces of \"hard\" documentation that the Trust Anchor holds. Generally encrypted via symmetric AES to prevent abstracted PII from being leaked on the blockchain directly.\n    /// @param _availabilityAddressEncrypted The availability address, an ethereum-type address corresponding to the smart contract that manages the various economic & regulatory conditions of data transfer from a Trust Anchor to a data retriever. Generally encrypted via symmetric AES to prevent abstracted PII from being leaked on the blockchain directly.\n    /// @dev | Does a verification pass on the attestation, checks for attestation and end user address validity, as well as the document matrix and availability address being set.\n    /// @return result\n    ///    | false = not valid\n    ///    | true = valid attestation\n\n    function verifyAttestationValidity( bytes32 _attestationKeccak,\n                                        address _identifiedAddress,\n                                        bytes memory _documentsMatrixEncrypted,\n                                        bytes32 _availabilityAddressEncrypted) internal pure returns (bool result) {\n        if (_attestationKeccak != 0 &&\n            _identifiedAddress != address(0) &&\n            _documentsMatrixEncrypted.length != 0 &&\n            _availabilityAddressEncrypted != 0) {\n            //valid attestation\n            return true;\n        } else {\n            //not valid\n            return false;\n        }\n    }\n\n    //@note:@todo:@internalaudit:@review: what happens when a TA's attestation key is revoked.. should they still be allowed\n    // to revoke attestations?\n\n    /// @param _attestationKeccak The attestation's keccak hash.\n    /// @dev | Revokes an attestation. Can be called by the Trust Anchor that initially set this attestation, and the Prime Revocation Manager (for edge-case events where the Trust Anchor is no longer able to manage attestations).\n    ///      | This function calls the linked Shyft Cache Graph to update the Trust Channel architecture.\n    /// @return result\n    ///    | 0 = revocation authority not recognized\n    ///    | 1 = no non-revoked attestation found\n    ///    | 2 = attestation revoked\n\n    function revokeAttestation(bytes32 _attestationKeccak) public override returns (uint8 result) {\n        ITrustAnchorManager trustAnchorManager = ITrustAnchorManager(trustAnchorManagerAddress);\n\n        trustAnchorAttestation storage attestation = attestationKeccak_to_attestation[_attestationKeccak];\n\n        //@note:@todo:@internalaudit: should trust anchors that have been revoked be able to revoke previously signed\n        // messages? currently set to only currently verified anchors having the ability to revoke.\n\n        bool anchorVerified = false;\n        emit EVT_REQ_revokeAttestation(msg.sender, _attestationKeccak);\n        if (isTrustAnchorVerified(msg.sender)) {\n            anchorVerified = true;\n        }\n\n        if ((attestation.trustAnchorAddress == msg.sender && anchorVerified) || trustAnchorManager.isPrimeRevocationManager(msg.sender)) {\n            emit EVT_revokeAttestation( _attestationKeccak,\n                attestation.trustAnchorAddress,\n                attestationKeccak_to_identifiedAddressAttestationKeccakArrayIndex[_attestationKeccak],\n                trustAnchorManager.isPrimeRevocationManager(msg.sender));\n\n            if (attestation.identifiedAddress != address(0) &&\n                attestation.attestationStatusApproved == true) {\n\n                attestation.attestationStatusApproved = false;\n\n//                EVT_revokeAttestationDoRecompile(shyftCacheGraphAddress);\n\n                //recompile cache graph of the identifiedAddress that would depend on this attestation.\n                IShyftCacheGraph shyftCacheGraph = IShyftCacheGraph(shyftCacheGraphAddress);\n\n                shyftCacheGraph.compileCacheGraph(attestation.identifiedAddress,\n                    attestationKeccak_to_identifiedAddressAttestationKeccakArrayIndex[_attestationKeccak]);\n\n                //attestation revoked\n                return 2;\n            } else {\n                //no non-revoked attestation found\n                return 1;\n            }\n        } else {\n            //revocation authority not recognized\n            return 0;\n        }\n    }\n\n    //@note:@todo:@internalaudit:@review: what happens when a TA's attestation key is revoked.. should they still be allowed\n    // to revoke attestations?\n\n    /// @param _attestationKeccak The attestation's keccak hash.\n    /// @dev | Re-enables a revoked attestation. Called by the Trust Anchor that initially set this attestation.\n    ///      | This function calls the linked Shyft Cache Graph to update the Trust Channel architecture.\n    /// @return result\n    ///    | 0 = trust anchor not verified\n    ///    | 1 = no revoked attestation found\n    ///    | 2 = attestation re-enabled\n\n    function reenableAttestation(bytes32 _attestationKeccak) public override returns (uint8 result) {\n//        ITrustAnchorManager trustAnchorManager = ITrustAnchorManager(trustAnchorManagerAddress);\n\n        trustAnchorAttestation storage attestation = attestationKeccak_to_attestation[_attestationKeccak];\n\n        emit EVT_REQ_reenableAttestation(_attestationKeccak);\n\n        if (isTrustAnchorVerified(msg.sender) && attestation.trustAnchorAddress == msg.sender) {\n            if (attestation.identifiedAddress != address(0) &&\n                attestation.attestationStatusApproved == false) {\n                attestation.attestationStatusApproved = true;\n\n                //recompile cache graph of the identifiedAddress that would depend on this attestation.\n                IShyftCacheGraph shyftCacheGraph = IShyftCacheGraph(shyftCacheGraphAddress);\n\n                shyftCacheGraph.compileCacheGraph(attestation.identifiedAddress,\n                    attestationKeccak_to_identifiedAddressAttestationKeccakArrayIndex[_attestationKeccak]);\n\n                //attestation re-enabled\n                return 2;\n            } else {\n                //no revoked attestation found\n                return 1;\n            }\n        } else {\n            //trust anchor not verified\n            return 0;\n        }\n    }\n\n    // ** data retrieval entities management and validation ** //\n\n    //@note:@here:@todo:@next: add the ability for the identifiedAddress specified in an attestation to allow a data\n    // retrieval target (possibly a 2 stage process, where the user adds their consent to this transfer, and then the\n    // Trust Anchor initiates the transference through this interface).\n    //\n    //@note:@todo:@next: Also required is a time limit to this data retrieval event. (1 week, 1 month, etc).\n    // also, should this have a bitfield to scope the data retrieval allowed? being on the blockchain, this might\n    // require an encryption pass with the result being a public key encrypted from the TA to the user.\n    // If this is required, a registering TA should provide a public key to perform the RSA-like encryption of small\n    // messages. PGP-like.\n\n    /// @param _attestationKeccak The attestation's keccak hash.\n    /// @param _dataRetrievalTarget The public address of the Trust Anchor that is doing the data retrieval.\n    /// @param _documentsRetrievalConsentedEncrypted The document matrix of the data that is consented to be able to be retrieved by the Trust Anchor that is performing the data retrieval. This is a series of 0's and 1's corresponding to the availability of specific pieces of \"hard\" documentation that the Trust Anchor holds. Generally encrypted via symmetric AES to prevent abstracted PII from being leaked on the blockchain directly.\n    /// @dev | Enables and provides parameters to the data that is consented to be retrieved by the target Trust Anchor.\n    ///      | This function is called by the Trust Anchor as it is in the Managed context.\n    /// @notice _dataRetrievalTarget needs to be a verified Trust Anchor.\n    /// @return result\n    ///    | 0 = trust anchor is not verified\n    ///    | 1 = data retrieval target trust anchor is not verified\n    ///    | 2 = attestation is not managed by trust anchor\n    ///    | 3 = not the trust anchor address that created this attestation\n    ///    | 4 = attestation already has this data retrieval target\n    ///    | 5 = data retrieval target set\n\n    function addDataRetrievalTargetManaged( bytes32 _attestationKeccak,\n                                            address _dataRetrievalTarget,\n                                            bytes memory _documentsRetrievalConsentedEncrypted) public override returns (uint8 result) {\n        if (isTrustAnchorVerified(msg.sender)) {\n            if (isTrustAnchorVerified(_dataRetrievalTarget)) {\n                trustAnchorAttestation storage attestation = attestationKeccak_to_attestation[_attestationKeccak];\n                if (attestation.isManaged == true) {\n                    if (attestation.trustAnchorAddress == msg.sender) {\n                        if (attestation.dataRetrievalTargetsRetrievableData[_dataRetrievalTarget].isRetrievable != true) {\n                            attestation.dataRetrievalTargetsRetrievableData[_dataRetrievalTarget].isRetrievable = true;\n                            attestation.dataRetrievalTargetsRetrievableData[_dataRetrievalTarget].documentsRetrievalConsentedEncrypted = _documentsRetrievalConsentedEncrypted;\n                            attestation.dataRetrievalTargetsArray.push(_dataRetrievalTarget);\n\n                            emit EVT_enabledDataRetrievalManaged(msg.sender, _attestationKeccak, _dataRetrievalTarget, _documentsRetrievalConsentedEncrypted);\n\n                            //data retrieval target set\n                            return 5;\n                        } else {\n                            //attestation already has this data retrieval target\n                            return 4;\n                        }\n                    } else {\n                        //not the trust anchor address that created this attestation\n                        return 3;\n                    }\n                } else {\n                    //attestation is not managed by trust anchor\n                    return 2;\n                }\n            } else {\n                //data retrieval target trust anchor is not verified\n                return 1;\n            }\n        } else {\n            //trust anchor is not verified\n            return 0;\n        }\n    }\n\n    //@note:@todo:@next:@test: test this\n\n    /// @param _attestationKeccak The attestation's keccak hash.\n    /// @param _dataRetrievalTarget The public address of the Trust Anchor that is doing the data retrieval.\n    /// @param _documentsRetrievalConsentedEncrypted The document matrix of the data that is consented to be able to be retrieved by the Trust Anchor that is performing the data retrieval. This is a series of 0's and 1's corresponding to the availability of specific pieces of \"hard\" documentation that the Trust Anchor holds. Generally encrypted via symmetric AES to prevent abstracted PII from being leaked on the blockchain directly.\n    /// @dev | Enables and provides parameters to the data that is consented to be retrieved by the target Trust Anchor.\n    ///      | This function is called by the end user as it is in the Un-managed context.\n    /// @notice _dataRetrievalTarget needs to be a verified Trust Anchor.\n    /// @return result\n    ///    | 0 = data retrieval target trust anchor is not verified\n    ///    | 1 = attestation is not managed by the end user\n    ///    | 2 = not the identified address that this attestation targets\n    ///    | 3 = attestation already has this data retrieval target\n    ///    | 4 = data retrieval target set\n\n    function addDataRetrievalTargetFromIdentifiedAddress(bytes32 _attestationKeccak,\n                                                         address _dataRetrievalTarget,\n                                                         bytes memory _documentsRetrievalConsentedEncrypted) public override returns (uint8 result) {\n        trustAnchorAttestation storage attestation = attestationKeccak_to_attestation[_attestationKeccak];\n        if (isTrustAnchorVerified(_dataRetrievalTarget)) {\n            if (attestation.isManaged == false) {\n                if (attestation.identifiedAddress == msg.sender) {\n                    if (attestation.dataRetrievalTargetsRetrievableData[_dataRetrievalTarget].isRetrievable != true) {\n                        attestation.dataRetrievalTargetsRetrievableData[_dataRetrievalTarget].isRetrievable = true;\n                        attestation.dataRetrievalTargetsRetrievableData[_dataRetrievalTarget].documentsRetrievalConsentedEncrypted = _documentsRetrievalConsentedEncrypted;\n                        attestation.dataRetrievalTargetsArray.push(_dataRetrievalTarget);\n\n                        emit EVT_enabledDataRetrievalUnmanaged(msg.sender, _attestationKeccak, _dataRetrievalTarget, _documentsRetrievalConsentedEncrypted);\n\n                        //data retrieval target set\n                        return 4;\n                    } else {\n                        //attestation already has this data retrieval target\n                        return 3;\n                    }\n                } else {\n                    //not the identified address that this attestation targets\n                    return 2;\n                }\n            } else {\n                //attestation is not managed by the end user\n                return 1;\n            }\n        } else {\n            //data retrieval target trust anchor is not verified\n            return 0;\n        }\n    }\n\n    //@note:@todo:@next:@test: test this\n\n    /// @param _attestationKeccak The attestation's keccak hash.\n    /// @param _dataRetrievalTarget The public address of the Trust Anchor that is doing the data retrieval.\n    /// @dev | Removes the ability for the data that was consented to be retrieved by the target Trust Anchor.\n    ///      | This function is called by the Trust Anchor as it is in the Managed context.\n    /// @return result\n    ///    | 0 = attestation is not managed by the trust anchor\n    ///    | 1 = not the identified address that this attestation targets\n    ///    | 2 = attestation does not have any retrievable data to this target\n    ///    | 3 = data retrieval target is set to no longer have access to the data\n\n    function removeDataRetrievalTargetManaged(bytes32 _attestationKeccak, address _dataRetrievalTarget) public override returns (uint8 result) {\n        trustAnchorAttestation storage attestation = attestationKeccak_to_attestation[_attestationKeccak];\n        if (attestation.isManaged == true) {\n            if (attestation.identifiedAddress == msg.sender) {\n                if (attestation.dataRetrievalTargetsRetrievableData[_dataRetrievalTarget].isRetrievable == true) {\n                    attestation.dataRetrievalTargetsRetrievableData[_dataRetrievalTarget].isRetrievable = false;\n\n                    emit EVT_revokedDataRetrievalManaged(msg.sender, _attestationKeccak, _dataRetrievalTarget);\n\n                    //data retrieval target is set to no longer have access to the data\n                    return 3;\n                } else {\n                    //attestation does not have any retrievable data to this target\n                    return 2;\n                }\n            } else {\n                //not the trust anchor that is managing this attestation\n                return 1;\n            }\n        } else {\n            //attestation is not managed by the trust anchor\n            return 0;\n        }\n    }\n\n    //@note:@todo:@next:@test: test this\n\n    /// @param _attestationKeccak The attestation's keccak hash.\n    /// @param _dataRetrievalTarget The public address of the Trust Anchor that is doing the data retrieval.\n    /// @dev | Removes the ability for the data that was consented to be retrieved by the target Trust Anchor.\n    ///      | This function is called by the end user as it is in the Un-managed context.\n    /// @return result\n    ///    | 0 = attestation is not managed by the end user\n    ///    | 1 = not the identified address that this attestation targets\n    ///    | 2 = attestation does not have any retrievable data to this target\n    ///    | 3 = data retrieval target is set to no longer have access to the data\n\n    function removeDataRetrievalTargetFromIdentifiedAddress(bytes32 _attestationKeccak, address _dataRetrievalTarget) public override returns (uint8 result) {\n        trustAnchorAttestation storage attestation = attestationKeccak_to_attestation[_attestationKeccak];\n        if (attestation.isManaged == false) {\n            if (attestation.identifiedAddress == msg.sender) {\n                if (attestation.dataRetrievalTargetsRetrievableData[_dataRetrievalTarget].isRetrievable == true) {\n                    attestation.dataRetrievalTargetsRetrievableData[_dataRetrievalTarget].isRetrievable = false;\n\n                    emit EVT_revokedDataRetrievalUnmanaged(msg.sender, _attestationKeccak, _dataRetrievalTarget);\n\n                    //data retrieval target is set to no longer have access to the data\n                    return 3;\n                } else {\n                    //attestation does not have any retrievable data to this target\n                    return 2;\n                }\n            } else {\n                //not the identified address that this attestation targets\n                return 1;\n            }\n        } else {\n            //attestation is not managed by the end user\n            return 0;\n        }\n    }\n\n    /// @param _attestationKeccak The attestation's keccak hash.\n    /// @param _dataRetrievalTarget The public address of the Trust Anchor that is doing the data retrieval.\n    /// @dev | Indicates that the source trust anchor has sent the data/documents (example usage: for the contestation phase in an escrow \"availability\" contract) to the data retrieval entity.\n    ///      | This function is called by the source trust anchor that has the user's PII data, on an attestation that has already been permissioned to a data retrieval entity.\n    /// @return result\n    ///    | 0 = message sender is not the trust anchor that originally set this attestation\n    ///    | 1 = data is not set to retrievable with that data retrieval target\n    ///    | 2 = data was already marked as sent\n    ///    | 3 = data is now marked as sent\n\n    function setDataSenderDidSendDocuments(bytes32 _attestationKeccak, address _dataRetrievalTarget) public returns (uint8 result) {\n        trustAnchorAttestation storage attestation = attestationKeccak_to_attestation[_attestationKeccak];\n\n        if (attestation.trustAnchorAddress == msg.sender) {\n            if (attestation.dataRetrievalTargetsRetrievableData[_dataRetrievalTarget].isRetrievable == true) {\n                if (attestation.dataRetrievalTargetsRetrievableData[_dataRetrievalTarget].wasSent == false) {\n                    attestation.dataRetrievalTargetsRetrievableData[_dataRetrievalTarget].wasSent = true;\n\n                    // timestamp this data for further use re: contestation time periods.\n                    attestation.dataRetrievalTargetsRetrievableData[_dataRetrievalTarget].timestampSent = block.timestamp;\n\n\n                    //data is now marked as sent\n                    return 3;\n                } else {\n                    //data was already marked as sent\n                    return 2;\n                }\n            } else {\n                //data is not set to retrievable with that data retrieval target\n                return 1;\n            }\n        } else {\n            //message sender is not the trust anchor that originally set this attestation\n            return 0;\n        }\n    }\n\n    //@note: validates an existing attestation with another trust anchor. useful step after validating out-of-band\n    // data source(s).\n\n    //@note: what if we were to generalize this and set up an automatic trigger to be sent to the\n    // availabilityAddressEncrypted smart contract for automatic escrow releasing?\n    // this would be difficult to do unless either:\n    // a) isn't encrypted or b) the encryption key is passed at some point to the blockchain for\n    // automatic decryption (which would be expensive).\n    //\n    // so instead, we have added a function getAttestationValidFromRetrieverInKeccakArray() to perform\n    // an on-chain lookup which can be called by other smart contracts.\n    //\n    // TrustAnchorStorage myTrustAnchorStorage = TrustAnchorStorage([the contract that has your interest's address])\n    // bool theResult = myTrustAnchorStorage.getAttestationValidFromRetrieverInKeccakArray([the user's address], [the attestation's index in the user's tree], [the retriever of the data's trust anchor address]);\n    // if (theResult == true) {\n    //      ... lots of fun stuff, release funds, call other contracts, etc. etc.\n    // }\n    //\n    // sorta thing.\n\n    /// @param _attestationKeccak The attestation's keccak hash.\n    /// @dev Validates that the data retrieval was performed in a consented manner by the Trust Anchor performing the data retrieval.\n    /// @return result\n    ///    | 0 = attestation does not exist\n    ///    | 1 = attestation cannot be signed by the trust anchor that set the attestation\n    ///    | 2 = attestation data source(s) have not been sent to this entity\n    ///    | 3 = attestation already validated by this entity\n    ///    | 4 = attestation validated\n\n    function dataRetrievalEntityValidateAttestation(bytes32 _attestationKeccak) public override returns (uint8 result) {\n        trustAnchorAttestation storage attestation = attestationKeccak_to_attestation[_attestationKeccak];\n\n        if (attestation.trustAnchorAddress != address(0)) {\n            if (attestation.trustAnchorAddress != msg.sender) {\n                if (attestation.dataRetrievalTargetsRetrievableData[msg.sender].wasSent == true) {\n                    if (attestation.validations[msg.sender] == false) {\n                        attestation.validations[msg.sender] = true;\n                        attestation.validationsArray.push(msg.sender);\n\n                        attestation.dataRetrievalTargetsRetrievableData[msg.sender].wasValidated = true;\n\n                        emit EVT_dataRetrievalEntityHasValidatedAttestation(_attestationKeccak);\n\n                        //attestation validated\n                        return 4;\n                    } else {\n                        //attestation already validated by this entity\n                        return 3;\n                    }\n                } else {\n                    //attestation data source(s) have not been sent to this entity\n                    return 2;\n                }\n            } else {\n                //attestation cannot be signed by the trust anchor that set the attestation\n                return 1;\n            }\n        } else {\n            //attestation does not exist\n            return 0;\n        }\n    }\n\n    //@note:@todo:@here:@future: perhaps a function that marks that the data was *not* able to be transferred properly by the originating Trust Anchor would be useful?\n\n    //@note:@todo:@next:@test: test this\n\n    /// @param _trustAnchorAddress The trust anchor that will be trusted to transmit data on the users behalf (covers manage and un-managed contexts).\n    /// @param _dataSharePercentage The percentage, as a fixed point decimal representation (6 decimals for the input precision (0.000001% minimum sharing = \"1\", \"1000000\" = 1.0%, \"100000000\" = 100.0%))\n    /// @dev Sets the data retrieval revenue share relationship between the end user (in this case, msg.sender) and their pii-maintaining TA. This is encoded in each attestation by that TA for this particular user. The user may, at any time, change this relationship, but only for future attestations. Given that while consent is directed by the user (or managed on their behalf by their TA), the TA actually performs the data transmission actions off-chain, and so there is no situation where the TA could unwillingly be front-ran by the user.\n    /// @return result\n    ///     | 0 = revenue share >100%\n    ///     | 1 = set revenue share\n\n    function setDataRetrievalRevenueShare(address _trustAnchorAddress, uint32 _dataSharePercentage) public override returns (uint8 result) {\n        if (_dataSharePercentage <= 100000000) {\n            identifiedAddress_to_trustAnchor_to_dataRetrievalRevenueShare[msg.sender][_trustAnchorAddress] = _dataSharePercentage;\n\n            emit EVT_userSetDataRetrievalRevenueShare(msg.sender, _trustAnchorAddress, _dataSharePercentage);\n\n            //set revenue share\n            return 1;\n        } else {\n            //revenue share > 100% (100000000)\n            return 0;\n        }\n    }\n\n    /// @param _identifiedAddress The end user's smart contract address that this attestation is associated to.\n    /// @param _trustAnchorAddress The trust anchor that will be trusted to transmit data on the users behalf (covers manage and un-managed contexts).\n    /// @dev Gets the current data retrieval revenue share relationship between the end user (in this case, msg.sender) and their pii-maintaining TA.\n    /// @return dataSharePercentage the data share percentage as a fixed point decimal representation (6 decimals for the input precision (0.000001% minimum sharing = \"1\", \"1000000\" = 1.0%, \"100000000\" = 100.0%))\n\n    function getDataRetrievalRevenueShare(address _identifiedAddress, address _trustAnchorAddress) public override view returns (uint32 dataSharePercentage) {\n        return identifiedAddress_to_trustAnchor_to_dataRetrievalRevenueShare[_identifiedAddress][_trustAnchorAddress];\n    }\n\n\n//    function getAttestation(bytes32 _attestationKeccak) public view returns (trustAnchorAttestation attestation) {\n//        return attestationKeccak_to_attestation[_attestationKeccak];\n//    }\n\n    /// @param _identifiedAddress The end user's smart contract address that this attestation is associated to.\n    /// @dev Gets the number of attestations for a particular end user.\n    /// @return keccakArrayLength the length of the user's attestation array\n\n    function getAttestationKeccakArrayLengthForIdentifiedAddress(address _identifiedAddress) public view override returns (uint16 keccakArrayLength) {\n        //@note:@here:256 attestations maximum for current bitfield size, however it's not useful for overflows to be blocked\n        return uint16(identifiedAddress_to_attestationKeccakArray[_identifiedAddress].length);\n    }\n\n    /// @param _trustAnchorAddress The Trust Anchor's smart contract address that this attestation is associated to.\n    /// @dev Gets the number of attestations for a particular Trust Anchor.\n    /// @return keccakArrayLength the length of the trust anchor's attestation array\n\n    function getAttestationKeccakArrayLengthForTrustAnchor(address _trustAnchorAddress) public view returns (uint16 keccakArrayLength) {\n        //@note:@here:256 attestations maximum for current bitfield size, however it's not useful for overflows to be blocked\n        return uint16(trustAnchorAddress_to_attestationKeccakArray[_trustAnchorAddress].length);\n    }\n\n\n    /// @param _attestationKeccak The attestation's keccak hash.\n    /// @dev Gets the address of the Trust Anchor that performed the attestation.\n    /// @return trustAnchorAddress the address of the Trust Anchor for this attestation\n\n    function getAttestationTrustAnchorAddress(bytes32 _attestationKeccak) public view override returns (address trustAnchorAddress) {\n        return attestationKeccak_to_attestation[_attestationKeccak].trustAnchorAddress;\n    }\n\n    /// @param _attestationKeccak The attestation's keccak hash.\n    /// @dev Gets the (original) address of the end user that is associated to this attestation.\n    /// @return identifiedAddress the original address of the end user that is associated to this attestation\n\n    function getAttestationOriginalIdentifiedAddress(bytes32 _attestationKeccak) public view override returns (address identifiedAddress) {\n        return attestationKeccak_to_identifiedAddress[_attestationKeccak];\n    }\n\n    /// @param _attestationKeccak The attestation's keccak hash.\n    /// @dev | Gets the (current) address of the end user that is associated to this attestation.\n    ///      | Note: There is no mechanism within this Trust Anchor Storage architecture to change the attestation, but it may need to be supported in the future.\n    /// @return identifiedAddress the current address of the end user that is associated to this attestation\n\n    function getAttestationCurrentIdentifiedAddress(bytes32 _attestationKeccak) public view override returns (address identifiedAddress) {\n        return attestationKeccak_to_attestation[_attestationKeccak].identifiedAddress;\n    }\n\n    /// @param _attestationKeccak The attestation's keccak hash.\n    /// @dev Gets the Index of the Trust Anchor that performed the attestation.\n    /// @return trustAnchorIndex the Index of the Trust Anchor for this attestation\n\n    function getAttestationTrustAnchorIndex(bytes32 _attestationKeccak) public view override returns (uint32 trustAnchorIndex) {\n        return attestationKeccak_to_attestation[_attestationKeccak].trustAnchorIndex;\n    }\n\n    /// @param _identifiedAddress The end user's smart contract address that this attestation is associated to.\n    /// @dev Gets the entire array of attestations for a specific end user.\n    /// @return keccakArray the entire array of attestations for a specific end user\n\n    function getAttestationKeccakArrayForIdentifiedAddress(address _identifiedAddress) public view override returns (bytes32[] memory keccakArray) {\n        return identifiedAddress_to_attestationKeccakArray[_identifiedAddress];\n    }\n    \n    /// @param _identifiedAddress The end user's smart contract address that this attestation is associated to.\n    /// @param _index The index of the attestation within the array of attestations associated with a particular end user.\n    /// @dev Gets the keccak hash for a specific attestation within the end user's attestation array.\n    /// @notice For mapping, if a value is passed that does not exist in the mapping array, the response will be a VM error as it will be out of bounds.\n    /// @return keccakHash the keccak hash for the specific index of attestations associated with the end user\n\n    function getIndexedAttestationKeccakHashForIdentifiedUser(address _identifiedAddress, uint16 _index) public view override returns (bytes32 keccakHash) {\n        //@note:@here: not checking bounds.. this will return a VM error if out of bounds on the check.\n        return identifiedAddress_to_attestationKeccakArray[_identifiedAddress][_index];\n    }\n\n    /// @param _trustAnchorAddress The Trust Anchor's smart contract address that this attestation is associated to.\n    /// @dev Gets the entire array of attestations for a specific Trust Anchor.\n    /// @return keccakArray the entire array of attestations for a specific trust anchor\n\n    function getAttestationKeccakArrayForTrustAnchor(address _trustAnchorAddress) public view returns (bytes32[] memory keccakArray) {\n        return trustAnchorAddress_to_attestationKeccakArray[_trustAnchorAddress];\n    }\n\n    /// @param _trustAnchorAddress The Trust Anchor's smart contract address that this attestation is associated to.\n    /// @param _index The index of the attestation within the array of attestations associated with a particular Trust Anchor.\n    /// @dev Gets the keccak hash for a specific attestation within the Trust Anchor's attestation array.\n    /// @notice For mapping, if a value is passed that does not exist in the mapping array, the response will be a VM error as it will be out of bounds.\n    /// @return keccakHash the keccak hash for the specific index of attestations associated with the trust anchor\n\n    function getIndexedAttestationKeccakHashForTrustAnchor(address _trustAnchorAddress, uint16 _index) public view returns (bytes32 keccakHash) {\n        //@note:@here: not checking bounds.. this will return a VM error if out of bounds on the check.\n        return trustAnchorAddress_to_attestationKeccakArray[_trustAnchorAddress][_index];\n    }\n\n    /// @param _identifiedAddress The end user's smart contract address that this attestation is associated to.\n    /// @param _index The index of the attestation within the array of attestations associated with a particular end user.\n    /// @dev Gets the jurisdiction for a specific attestation within the end user's attestation array.\n    /// @notice For mapping, if a value is passed that does not exist in the mapping array, the response will be a VM error as it will be out of bounds.\n    /// @return jurisdiction the jurisdiction for the specific index of attestations associated with the end user\n\n    function getIndexedAttestationJurisdictionForIdentifiedUser(address _identifiedAddress, uint16 _index) public view override returns (uint16 jurisdiction) {\n        return attestationKeccak_to_attestation[identifiedAddress_to_attestationKeccakArray[_identifiedAddress][_index]].jurisdiction;\n    }\n\n    /// @param _identifiedAddress The end user's smart contract address that this attestation is associated to.\n    /// @param _index The index of the attestation within the array of attestations associated with a particular end user.\n    /// @dev Gets the effective time for a specific attestation within the end user's attestation array.\n    /// @notice For mapping, if a value is passed that does not exist in the mapping array, the response will be a VM error as it will be out of bounds.\n    /// @return effectiveTime the effective time for the specific index of attestations associated with the end user\n\n    function getIndexedAttestationEffectiveTimeForIdentifiedUser(address _identifiedAddress, uint16 _index) public view override returns (uint256 effectiveTime) {\n        return attestationKeccak_to_attestation[identifiedAddress_to_attestationKeccakArray[_identifiedAddress][_index]].effectiveTime;\n    }\n\n    /// @param _identifiedAddress The end user's smart contract address that this attestation is associated to.\n    /// @param _index The index of the attestation within the array of attestations associated with a particular end user.\n    /// @dev Gets the expiry time for a specific attestation within the end user's attestation array.\n    /// @notice For mapping, if a value is passed that does not exist in the mapping array, the response will be a VM error as it will be out of bounds.\n    /// @return expiryTime the expiry time for the specific index of attestations associated with the end user\n\n    function getIndexedAttestationExpiryTimeForIdentifiedUser(address _identifiedAddress, uint16 _index) public view override returns (uint256 expiryTime) {\n        return attestationKeccak_to_attestation[identifiedAddress_to_attestationKeccakArray[_identifiedAddress][_index]].expiryTime;\n    }\n\n    /// @param _identifiedAddress The end user's smart contract address that this attestation is associated to.\n    /// @param _index The index of the attestation within the array of attestations associated with a particular end user.\n    /// @dev Gets the attestation availability for a specific attestation within the end user's attestation array.\n    /// @notice For mapping, if a value is passed that does not exist in the mapping array, the response will be a VM error as it will be out of bounds.\n    /// @return availabilityAddressEncrypted the attestation availability for the specific index of attestations associated with the end user\n\n    function getIndexedAttestationAvailabilityAddressEncryptedForIdentifiedUser(address _identifiedAddress, uint16 _index) public view override returns (bytes32 availabilityAddressEncrypted) {\n        return attestationKeccak_to_attestation[identifiedAddress_to_attestationKeccakArray[_identifiedAddress][_index]].availabilityAddressEncrypted;\n    }\n\n    /// @param _identifiedAddress The end user's smart contract address that this attestation is associated to.\n    /// @param _index The index of the attestation within the array of attestations associated with a particular end user.\n    /// @dev Gets what is considered \"graph constructible\" outputs for a specific attestation. it contains all of the cross-mapping required to retrieve further data.\n    /// @notice For mapping, if a value is passed that does not exist in the mapping array, the response will be a VM error as it will be out of bounds.\n    /// @return keccakHash the hash of the attestation\n    /// @return trustAnchorIndex the Index of the Trust Anchor that set this attestation\n    /// @return jurisdiction the Jurisdiction of the attestation\n    /// @return attestationStatusApproved the approval status of this attestation (which corresponds to effective time / expiry time, etc)\n\n    function getGraphConstructableAttestationInKeccakArray(address _identifiedAddress, uint16 _index) public view override returns ( bytes32 keccakHash,\n                                                                                                                            uint32 trustAnchorIndex,\n                                                                                                                            uint16 jurisdiction,\n                                                                                                                            bool attestationStatusApproved) {\n        bytes32 attestationKeccakHash = identifiedAddress_to_attestationKeccakArray[_identifiedAddress][_index];\n        trustAnchorAttestation storage attestation = attestationKeccak_to_attestation[attestationKeccakHash];\n\n        return (attestationKeccakHash,\n                attestation.trustAnchorIndex,\n                attestation.jurisdiction,\n                attestation.attestationStatusApproved);\n    }\n\n    /// @param _identifiedAddress The end user's smart contract address that this attestation is associated to.\n    /// @param _index The index of the attestation within the array of attestations associated with a particular end user.\n    /// @dev Gets all of the data from the initial attestation, plus the trust anchor address (the \"identified address\" must be known already to call this function)\n    /// @notice For mapping, if a value is passed that does not exist in the mapping array, the response will be a VM error as it will be out of bounds.\n    /// @return trustAnchorAddress the address of the trust anchor that set this attestation\n    /// @return jurisdiction the Jurisdiction of the attestation (may be different than the trust anchor's jurisdiction)\n    /// @return effectiveTime the effective (start) time of the attestation (in seconds from unix epoch time).\n    /// @return expiryTime the expiry time of the attestation (in seconds from unix epoch time).\n    /// @return publicData any non-pii public metadata (hash codes from the trust anchor, etc.)\n    /// @return documentsMatrixEncrypted the encrypted documents matrix\n    /// @return availabilityAddressEncrypted the encrypted availability address\n    /// @return isManaged whether the address is managed or un-managed\n    /// @return identifiedAddressToTrustAnchorDataRetrievalRevenueShare the revenue share between the end-user and the trust anchor for this attestation\n\n    function getAttestationComponentsInKeccakArray(address _identifiedAddress, uint16 _index) public view override returns ( address trustAnchorAddress,\n                                                                                                                    uint16 jurisdiction,\n                                                                                                                    uint256 effectiveTime,\n                                                                                                                    uint256 expiryTime,\n                                                                                                                    bytes memory publicData,\n                                                                                                                    bytes memory documentsMatrixEncrypted,\n                                                                                                                    bytes32 availabilityAddressEncrypted,\n                                                                                                                    bool isManaged,\n                                                                                                                    uint32 identifiedAddressToTrustAnchorDataRetrievalRevenueShare) {\n        bytes32 attestationKeccakHash = identifiedAddress_to_attestationKeccakArray[_identifiedAddress][_index];\n        trustAnchorAttestation storage attestation = attestationKeccak_to_attestation[attestationKeccakHash];\n\n        //@note: need to copy storage bytes to memory to return properly.\n        bytes memory tempPublicData = attestation.publicData;\n        bytes memory tempDocumentsMatrixEncrypted = attestation.documentsMatrixEncrypted;\n\n        return (attestation.trustAnchorAddress,\n                attestation.jurisdiction,\n                attestation.effectiveTime,\n                attestation.expiryTime,\n                tempPublicData,\n                tempDocumentsMatrixEncrypted,\n                attestation.availabilityAddressEncrypted,\n                attestation.isManaged,\n                attestation.identifiedAddressToTrustAnchorDataRetrievalRevenueShare);\n    }\n\n    /// @param _attestationKeccak The attestation's keccak hash.\n    /// @dev Gets all of the data from the initial attestation, plus the trust anchor address (the \"identified address\" must be known already to call this function)\n    /// @notice For mapping, if a value is passed that does not exist in the mapping array, the response will be a VM error as it will be out of bounds.\n    /// @return trustAnchorAddress the address of the trust anchor that set this attestation\n    /// @return jurisdiction the Jurisdiction of the attestation (may be different than the trust anchor's jurisdiction)\n    /// @return effectiveTime the effective (start) time of the attestation (in seconds from unix epoch time).\n    /// @return expiryTime the expiry time of the attestation (in seconds from unix epoch time).\n    /// @return publicData any non-pii public metadata (hash codes from the trust anchor, etc.)\n    /// @return documentsMatrixEncrypted the encrypted documents matrix\n    /// @return availabilityAddressEncrypted the encrypted availability address\n    /// @return isManaged whether the address is managed or un-managed\n\n    function getAttestationComponents(bytes32 _attestationKeccak) public view returns ( address trustAnchorAddress,\n                                                                                        uint16 jurisdiction,\n                                                                                        uint256 effectiveTime,\n                                                                                        uint256 expiryTime,\n                                                                                        bytes memory publicData,\n                                                                                        bytes memory documentsMatrixEncrypted,\n                                                                                        bytes32 availabilityAddressEncrypted,\n                                                                                        bool isManaged) {\n        trustAnchorAttestation storage attestation = attestationKeccak_to_attestation[_attestationKeccak];\n\n        //@note: need to copy storage bytes to memory to return properly.\n        bytes memory tempPublicData = attestation.publicData;\n        bytes memory tempDocumentsMatrixEncrypted = attestation.documentsMatrixEncrypted;\n\n        return (attestation.trustAnchorAddress,\n        attestation.jurisdiction,\n        attestation.effectiveTime,\n        attestation.expiryTime,\n        tempPublicData,\n        tempDocumentsMatrixEncrypted,\n        attestation.availabilityAddressEncrypted,\n        attestation.isManaged);\n    }\n\n    /// @param _identifiedAddress The end user's smart contract address that this attestation is associated to.\n    /// @param _index The index of the attestation within the array of attestations associated with a particular end user.\n    /// @dev Gets the attestation approved status for a specific attestation within the end user's attestation array.\n    /// @notice For mapping, if a value is passed that does not exist in the mapping array, the response will be a VM error as it will be out of bounds.\n    /// @return attestationStatusApproved the approval status of this attestation (which corresponds to effective time / expiry time, etc)\n\n    function getAttestationStatusApprovedInKeccakArray(address _identifiedAddress, uint16 _index) public view override returns (bool attestationStatusApproved) {\n        return attestationKeccak_to_attestation[identifiedAddress_to_attestationKeccakArray[_identifiedAddress][_index]].attestationStatusApproved;\n    }\n\n    /// @param _identifiedAddress The end user's smart contract address that this attestation is associated to.\n    /// @param _index The index of the attestation within the array of attestations associated with a particular end user.\n    /// @dev Gets the consent available status (number of signatures for this attestation, currently user and trust anchor) for a specific attestation within the end user's attestation array.\n    /// @notice For mapping, if a value is passed that does not exist in the mapping array, the response will be a VM error as it will be out of bounds.\n    /// @return consentAvailable the consent available status (number of signatures for this attestation, currently user and trust anchor) for this attestation\n\n    function getConsentAvailableInKeccakArray(address _identifiedAddress, uint16 _index) public view override returns (uint8 consentAvailable) {\n        return attestationKeccak_to_attestation[identifiedAddress_to_attestationKeccakArray[_identifiedAddress][_index]].consentAvailable;\n    }\n\n    /// @param _identifiedAddress The end user's smart contract address that this attestation is associated to.\n    /// @param _index The index of the attestation within the array of attestations associated with a particular end user.\n    /// @dev Gets the Trust Anchor's address for the Trust Anchor that set this attestation.\n    /// @notice For mapping, if a value is passed that does not exist in the mapping array, the response will be a VM error as it will be out of bounds.\n    /// @return trustAnchorAddress the trust anchor address for the trust anchor that set this attestation\n\n    function getTrustAnchorAddressInKeccakArray(address _identifiedAddress, uint16 _index) public view override returns (address trustAnchorAddress) {\n        return attestationKeccak_to_attestation[identifiedAddress_to_attestationKeccakArray[_identifiedAddress][_index]].trustAnchorAddress;\n    }\n\n    /// @param _identifiedAddress The end user's smart contract address that this attestation is associated to.\n    /// @param _index The index of the attestation within the array of attestations associated with a particular end user.\n    /// @dev Gets the actual signatures (currently user and trust anchor) for a specific attestation within the end user's attestation array.\n    /// @notice For mapping, if a value is passed that does not exist in the mapping array, the response will be a VM error as it will be out of bounds.\n    /// @return validityTrustAnchorSignatureV #1/3 parts of the signature for the trust anchor that is associated with this attestation\n    /// @return validityTrustSignatureRS #2/3 and #3/3 parts of the signature for the trust anchor that is associated with this attestation\n    /// @return validityUserSignatureV #1/3 parts of the signature for the end user that is associated with this attestation\n    /// @return validityUserSignatureRS #2/3 and #3/3 parts of the signature for the end user that is associated with this attestation\n\n    function getAttestationValiditySignaturesInKeccakArray(address _identifiedAddress, uint16 _index) public view override returns ( uint8 validityTrustAnchorSignatureV,\n                                                                                                                            bytes32[2] memory validityTrustSignatureRS,\n                                                                                                                            uint8 validityUserSignatureV,\n                                                                                                                            bytes32[2] memory validityUserSignatureRS) {\n        trustAnchorAttestation storage attestation = attestationKeccak_to_attestation[identifiedAddress_to_attestationKeccakArray[_identifiedAddress][_index]];\n        return (attestation.attestationValidityTrustAnchorSignatureV,\n                attestation.attestationValidityTrustAnchorSignatureRS,\n                attestation.attestationValidityUserSignatureV,\n                attestation.attestationValidityUserSignatureRS);\n    }\n\n    /// @param _identifiedAddress The end user's smart contract address that this attestation is associated to.\n    /// @param _index The index of the attestation within the array of attestations associated with a particular end user.\n    /// @dev Gets the length of the Validated (data retrieval confirmed) results for this attestation.\n    /// @notice For mapping, if a value is passed that does not exist in the mapping array, the response will be a VM error as it will be out of bounds.\n    /// @return arrayLength the length of the array of data retriever validated results for this attestation\n\n    function getAttestationValidationsArrayLengthInKeccakArray(address _identifiedAddress, uint16 _index) public view override returns (uint16 arrayLength) {\n        return uint16(attestationKeccak_to_attestation[identifiedAddress_to_attestationKeccakArray[_identifiedAddress][_index]].validationsArray.length);\n    }\n\n    /// @param _identifiedAddress The end user's smart contract address that this attestation is associated to.\n    /// @param _index The index of the attestation within the array of attestations associated with a particular end user.\n    /// @param _retrieverAddress The address of the data retriever that has been able to retrieve the source data from this attestation.\n    /// @dev Gets the Validated (data retrieval confirmed) status of an attestations, for a specific data retriever, for this attestation.\n    /// @notice For mapping, if a value is passed that does not exist in the mapping array, the response will be a VM error as it will be out of bounds.\n    /// @return isValid a boolean yes/no of whether the attestation is set to 'valid' by a specific data retriever\n\n    function getAttestationIsValidFromRetrieverInKeccakArray(address _identifiedAddress, uint16 _index, address _retrieverAddress) public view override returns (bool isValid) {\n        return attestationKeccak_to_attestation[identifiedAddress_to_attestationKeccakArray[_identifiedAddress][_index]].validations[_retrieverAddress];\n    }\n\n    /// @param _attestationKeccak The attestation's keccak hash.\n    /// @param _retrieverAddress The address of the data retriever that has been able to retrieve the source data from this attestation.\n    /// @dev Gets the Validated (data retrieval confirmed) status of an attestations, for a specific data retriever, for this attestation.\n    /// @return isValid a boolean yes/no of whether the attestation is set to 'valid' by a specific data retriever\n\n    function getAttestationIsValidFromRetriever(bytes32 _attestationKeccak, address _retrieverAddress) public view override returns (bool isValid) {\n        return attestationKeccak_to_attestation[_attestationKeccak].validations[_retrieverAddress];\n    }\n\n    /// @param _attestationKeccak The attestation's keccak hash.\n    /// @dev Gets all of the Validated (data retrieval confirmed) status(es) of an attestations from all data retrievers for this attestation, then returns all of the addresses for all of the data retrievers.\n    /// @return validationEntities an array of all addresses that have had validations for this attestation\n\n    function getAttestationAllValidations(bytes32 _attestationKeccak) public view override returns (address[] memory validationEntities) {\n        return attestationKeccak_to_attestation[_attestationKeccak].validationsArray;\n    }\n\n    /// @param _identifiedAddress The end user's smart contract address that this attestation is associated to.\n    /// @param _index The index of the attestation within the array of attestations associated with a particular end user.\n    /// @dev | Gets the number of data retrievers that have been able to retrieve the source data associated to this attestation.\n    ///      | Note 1: These data retrievers may or may not have had the ability to retrieve data disabled.\n    ///      | Note 2: These data retrievers may or may not have already confirmed the results of retrieving the data.\n    /// @notice For mapping, if a value is passed that does not exist in the mapping array, the response will be a VM error as it will be out of bounds.\n    /// @return arrayLength the length of the array of number of data retrievers that have been able receive this attestation.\n\n    function getAttestationDataRetrievalsArrayLengthInKeccakArray(address _identifiedAddress, uint16 _index) public view override returns (uint16 arrayLength) {\n        return uint16(attestationKeccak_to_attestation[identifiedAddress_to_attestationKeccakArray[_identifiedAddress][_index]].dataRetrievalTargetsArray.length);\n    }\n\n    /// @param _identifiedAddress The end user's smart contract address that this attestation is associated to.\n    /// @param _index The index of the attestation within the array of attestations associated with a particular end user.\n    /// @param _retrieverAddress The address of the data retriever that has been able to retrieve the source data from this attestation.\n    /// @dev Gets the Retrievable (data retrieval able to be done) status of an attestations, for a specific data retriever, for this attestation.\n    /// @notice For mapping, if a value is passed that does not exist in the mapping array, the response will be a VM error as it will be out of bounds.\n    /// @return isRetrievable the retrievable status of the attestation for this specific data retriever\n\n    function getAttestationIsRetrievableFromRetrieverInKeccakArray(address _identifiedAddress, uint16 _index, address _retrieverAddress) public view override returns (bool isRetrievable) {\n        return attestationKeccak_to_attestation[identifiedAddress_to_attestationKeccakArray[_identifiedAddress][_index]].dataRetrievalTargetsRetrievableData[_retrieverAddress].isRetrievable;\n    }\n\n    /// @param _attestationKeccak The attestation's keccak hash.\n    /// @param _retrieverAddress The address of the data retriever that has been able to retrieve the source data from this attestation.\n    /// @dev Gets the Retrievable (data retrieval able to be done) status of an attestations, for a specific data retriever, for this attestation.\n    /// @return isRetrievable the retrievable status of the attestation for this specific data retriever\n\n    function getAttestationIsRetrievableFromRetriever(bytes32 _attestationKeccak, address _retrieverAddress) public view override returns (bool isRetrievable) {\n        return attestationKeccak_to_attestation[_attestationKeccak].dataRetrievalTargetsRetrievableData[_retrieverAddress].isRetrievable;\n    }\n\n    /// @param _attestationKeccak The attestation's keccak hash.\n    /// @param _retrieverAddress The address of the data retriever that has been able to retrieve the source data from this attestation.\n    /// @dev Gets the Retrievable (data retrieval able to be done) data (generally encrypted) that represent the documents able to be retrieved from an attestations, for a specific data retriever, for this attestation.\n    /// @return consentedDocumentsEncrypted the encrypted retrievable data of the attestation for this specific data retriever\n\n    function getAttestationRetrievableDocumentsEncryptedFromRetriever(bytes32 _attestationKeccak, address _retrieverAddress) public view override returns (bytes memory consentedDocumentsEncrypted) {\n        return attestationKeccak_to_attestation[_attestationKeccak].dataRetrievalTargetsRetrievableData[_retrieverAddress].documentsRetrievalConsentedEncrypted;\n    }\n\n    /// @param _identifiedAddress The end user's smart contract address that this attestation is associated to.\n    /// @param _index The index of the attestation within the array of attestations associated with a particular end user.\n    /// @param _retrieverAddress The address of the data retriever that has been able to retrieve the source data from this attestation.\n    /// @dev Gets whether the attestation's source data was sent to the Data Retrieval Entity by the Trust Anchor source.\n    /// @notice For mapping, if a value is passed that does not exist in the mapping array, the response will be a VM error as it will be out of bounds.\n    /// @return attestationWasSentToDataRetrievalEntity a boolean yes/no which corresponds to the data having been marked \"sent\" by the data sender.\n\n    function getAttestationIsSentToRetrieverInKeccakArray(address _identifiedAddress, uint16 _index, address _retrieverAddress) public view override returns (bool attestationWasSentToDataRetrievalEntity) {\n        return attestationKeccak_to_attestation[identifiedAddress_to_attestationKeccakArray[_identifiedAddress][_index]].dataRetrievalTargetsRetrievableData[_retrieverAddress].wasSent;\n    }\n\n    /// @param _attestationKeccak The attestation's keccak hash.\n    /// @param _retrieverAddress The address of the data retriever that has been able to retrieve the source data from this attestation.\n    /// @dev Gets whether the attestation's source data was sent to the Data Retrieval Entity by the Trust Anchor source.\n    /// @return attestationWasSentToDataRetrievalEntity a boolean yes/no which corresponds to the data having been marked \"sent\" by the data sender.\n\n    function getAttestationDataWasSentToRetrievalEntity(bytes32 _attestationKeccak, address _retrieverAddress) public view override returns (bool attestationWasSentToDataRetrievalEntity) {\n        return attestationKeccak_to_attestation[_attestationKeccak].dataRetrievalTargetsRetrievableData[_retrieverAddress].wasSent;\n    }\n\n    /// @param _attestationKeccak The attestation's keccak hash.\n    /// @param _retrieverAddress The address of the data retriever that has been able to retrieve the source data from this attestation.\n    /// @dev Gets the time (in UTC seconds) at which the attestation's source data was sent to the Data Retrieval Entity by the Trust Anchor source.\n    /// @return attestationWasSentToDataRetrievalEntityTimestamp the time (in utc seconds) which corresponds to the data having been marked \"sent\" by the data sender.\n\n    function getAttestationDataWasSentToRetrievalEntityTimestamp(bytes32 _attestationKeccak, address _retrieverAddress) public view override returns (uint256 attestationWasSentToDataRetrievalEntityTimestamp) {\n        return attestationKeccak_to_attestation[_attestationKeccak].dataRetrievalTargetsRetrievableData[_retrieverAddress].timestampSent;\n    }\n\n    /// @param _attestationKeccak The attestation's keccak hash.\n    /// @dev Gets the end user's revenue share percentage (as a [64 bits].[64 bits] 128bit base-2 number) to their pii-maintaining Trust Anchor for this attestation.\n    /// @notice For mapping, if a value is passed that does not exist in the mapping array, the response be 0, so there needs to be an additional step required to confirm the details of this attestation.\n    /// @return identifiedAddressToTrustAnchorDataRetrievalRevenueShare the end user's revenue share percentage (as a [64 bits].[64 bits] 128bit base-2 number) to their pii-maintaining trust anchor for this attestation.\n\n    function getAttestationIdentifiedAddressToTrustAnchorDataRetrievalRevenueSharePercentage(bytes32 _attestationKeccak) public view override returns (uint32 identifiedAddressToTrustAnchorDataRetrievalRevenueShare) {\n        return attestationKeccak_to_attestation[_attestationKeccak].identifiedAddressToTrustAnchorDataRetrievalRevenueShare;\n    }\n\n    /// @param _attestationKeccak The attestation's keccak hash.\n    /// @dev Gets the mapping of a hash for an attestation to the index in the array for the end user that this attestation is associated with.\n    /// @notice For mapping, if a value is passed that does not exist in the mapping array, the response be 0, so there needs to be an additional step required to confirm the details of this attestation.\n    /// @return keccakArrayIndex the index in the end users array of attestation that this hash corresponds to.\n\n    function getAttestationKeccakToIdentifiedAddressAttestationKeccakArrayIndex(bytes32 _attestationKeccak) public view override returns (uint16 keccakArrayIndex) {\n        return attestationKeccak_to_identifiedAddressAttestationKeccakArrayIndex[_attestationKeccak];\n    }\n}\n",
  "sourcePath": "/opt/shyft-ta-node/contracts/TrustAnchorStorage.sol",
  "compiler": {
    "name": "solc",
    "version": "0.7.1+commit.f4a555be.Emscripten.clang"
  },
  "schemaVersion": "3.3.4",
  "updatedAt": "2021-09-16T18:34:15.555Z",
  "networkType": "ethereum",
  "devdoc": {
    "details": "| The Trust Anchor Storage is the contract responsible for maintaining the chain-of-custody for all of the attestations on the Shyft Core architecture. | The primary design goals are to concentrate attestations into individual accounts, with the responsibility of maintenance of those attestations belonging to the Trust Anchors that has initially posted those attestations. | To prevent attestation \"spam\" (invalid attestations that end-users don't agree with), there is a signature provided by both the Trust Anchor and the end-user. | After attestation (prior to signatures), the connected Cache Graph contract can be used to map users to Trust Channels (which are the higher level connectivity to the Trust Anchor network) in an \"un-consented\" manner, after signatures, the Cache Graph can be used to map users to \"consented\" Trust Channels. | | There are two ways of managing who provides the permissions for the act of data retrieval. | One mechanism is a Managed context, where the end-user is giving permission to the Trust Anchor to fully manage the act of data transmission and retrieval on the user's behalf. | The other mechanism is an Un-managed context, where the end-user is the only entity that has permission to allow data transmission from the source Trust Anchor (that has provided the initial attestation) to another Trust Anchor. | | The contents of the attestation consist of: | 1. The end user's smart contract address that is being attested to. | 2. The jurisdiction of the attestation (may be different than the Trust Anchor's jurisdiction). | 3. The effective (start) time of the attestation (in Seconds from Unix Epoch Time). | 4. The expiry time of the attestation (in Seconds from Unix Epoch Time). | 5. Any non-PII public metadata (hash codes from the Trust Anchor, etc.) | 6. The document matrix, a series of 0's and 1's corresponding to the availability of specific pieces of \"hard\" documentation that the Trust Anchor holds. Generally encrypted via symmetric AES to prevent abstracted PII from being leaked on the blockchain directly. | 7. The availability address, an ethereum-type address corresponding to the smart contract that manages the various economic & regulatory conditions of data transfer from a Trust Anchor to a data retriever. Generally encrypted via symmetric AES to prevent abstracted PII from being leaked on the blockchain directly. | 8. Whether this attestation is managed by the Trust Anchor. This indicates that consent conditions are applied from the Trust Anchor instead of the end user. | | Administrators of this contract are able to be set in order to allow for better management practices, with multi-signature support from the Administrable contract.",
    "events": {
      "EVT_AttestationAlreadyExists(address,address,bytes32)": {
        "details": "Event for an attestation already existing when attempting setAttestation."
      },
      "EVT_AttestationNotValid(address,address,bytes32,uint256,uint256)": {
        "details": "Event for an attestation not being valid when attempting setAttestation."
      },
      "EVT_REQ_reenableAttestation(bytes32)": {
        "details": "Event for the re-enabling of an attestation."
      },
      "EVT_REQ_revokeAttestation(address,bytes32)": {
        "details": "Event for the revoking of an attestation."
      },
      "EVT_dataRetrievalEntityHasValidatedAttestation(bytes32)": {
        "details": "Event for a data retrieval entity (receiving a user's pii data) to confirm that they have validated that the pieces of data sent from the source Trust Anchor are consistent with the data retrieval parameters."
      },
      "EVT_enabledDataRetrievalManaged(address,bytes32,address,bytes)": {
        "details": "Event for enabling the data retrieval in a Managed context."
      },
      "EVT_enabledDataRetrievalUnmanaged(address,bytes32,address,bytes)": {
        "details": "Event for enabling the data retrieval in a Un-managed context."
      },
      "EVT_revokeAttestation(bytes32,address,uint16,bool)": {
        "details": "Event for the main phase of the revocation process"
      },
      "EVT_revokeAttestationDoRecompile(address)": {
        "details": "Event for the recompilation phase of the revocation process"
      },
      "EVT_revokedDataRetrievalManaged(address,bytes32,address)": {
        "details": "Event for revoking the data retrieval in a Managed context."
      },
      "EVT_revokedDataRetrievalUnmanaged(address,bytes32,address)": {
        "details": "Event for revoking the data retrieval in an Un-managed context."
      },
      "EVT_setAttestation(bytes32,address,address,uint16,uint256,uint256,bytes32,bytes32,bytes32,bool,uint256,uint256)": {
        "details": "Event for the setting of an attestation."
      },
      "EVT_userSetDataRetrievalRevenueShare(address,address,uint32)": {
        "details": "Event for a User setting their data retrieval revenue share in respect to a Trust Anchor."
      }
    },
    "kind": "dev",
    "methods": {
      "addDataRetrievalTargetFromIdentifiedAddress(bytes32,address,bytes)": {
        "details": "| Enables and provides parameters to the data that is consented to be retrieved by the target Trust Anchor.      | This function is called by the end user as it is in the Un-managed context.",
        "params": {
          "_attestationKeccak": "The attestation's keccak hash.",
          "_dataRetrievalTarget": "The public address of the Trust Anchor that is doing the data retrieval.",
          "_documentsRetrievalConsentedEncrypted": "The document matrix of the data that is consented to be able to be retrieved by the Trust Anchor that is performing the data retrieval. This is a series of 0's and 1's corresponding to the availability of specific pieces of \"hard\" documentation that the Trust Anchor holds. Generally encrypted via symmetric AES to prevent abstracted PII from being leaked on the blockchain directly."
        },
        "returns": {
          "result": "   | 0 = data retrieval target trust anchor is not verified    | 1 = attestation is not managed by the end user    | 2 = not the identified address that this attestation targets    | 3 = attestation already has this data retrieval target    | 4 = data retrieval target set"
        }
      },
      "addDataRetrievalTargetManaged(bytes32,address,bytes)": {
        "details": "| Enables and provides parameters to the data that is consented to be retrieved by the target Trust Anchor.      | This function is called by the Trust Anchor as it is in the Managed context.",
        "params": {
          "_attestationKeccak": "The attestation's keccak hash.",
          "_dataRetrievalTarget": "The public address of the Trust Anchor that is doing the data retrieval.",
          "_documentsRetrievalConsentedEncrypted": "The document matrix of the data that is consented to be able to be retrieved by the Trust Anchor that is performing the data retrieval. This is a series of 0's and 1's corresponding to the availability of specific pieces of \"hard\" documentation that the Trust Anchor holds. Generally encrypted via symmetric AES to prevent abstracted PII from being leaked on the blockchain directly."
        },
        "returns": {
          "result": "   | 0 = trust anchor is not verified    | 1 = data retrieval target trust anchor is not verified    | 2 = attestation is not managed by trust anchor    | 3 = not the trust anchor address that created this attestation    | 4 = attestation already has this data retrieval target    | 5 = data retrieval target set"
        }
      },
      "changeCurrentAdminConfirmationThreshold(uint32)": {
        "details": "| This function takes in an index for a proposal ot change the current administrator confirmation threshold.      | Uses Multi-signature permissions.",
        "params": {
          "_proposalIndex": "The index for a specific proposal to change the current administrator confirmation threshold."
        },
        "returns": {
          "result": "   | 0 = not an administrator    | 1 = invalid proposal index    | 2 = not enough administrators to achieve confirmation threshold    | 3 = proposal has expired    | 4 = not enough administrators have permissioned change    | 5 = admin confirmation threshold set"
        }
      },
      "constructor": {
        "details": "Initializes Trust Anchor Storage with the owner set to the calling public address."
      },
      "dataRetrievalEntityValidateAttestation(bytes32)": {
        "details": "Validates that the data retrieval was performed in a consented manner by the Trust Anchor performing the data retrieval.",
        "params": {
          "_attestationKeccak": "The attestation's keccak hash."
        },
        "returns": {
          "result": "   | 0 = attestation does not exist    | 1 = attestation cannot be signed by the trust anchor that set the attestation    | 2 = attestation data source(s) have not been sent to this entity    | 3 = attestation already validated by this entity    | 4 = attestation validated"
        }
      },
      "getAdminAccess(address)": {
        "details": "Gets the level of access for a specific administrator.",
        "returns": {
          "result": "the level of access for this administrator"
        }
      },
      "getAdminConfirmationProposal(uint32)": {
        "details": "Gets the components of a specific NofM change proposal.",
        "params": {
          "_proposalIndex": "A proposal index"
        },
        "returns": {
          "adminThreshold": "the threshold of the NofM voting within this proposal",
          "endTime": "the end time of this proposal, after which it cannot be voted on",
          "isCompleted": "whether this proposal has been completed by multisig parties"
        }
      },
      "getAdminConfirmationThreshold()": {
        "details": "Gets the NofM threshold currently required for passing multisig votes.",
        "returns": {
          "results": "the current NofM threshold"
        }
      },
      "getAttestationAllValidations(bytes32)": {
        "details": "Gets all of the Validated (data retrieval confirmed) status(es) of an attestations from all data retrievers for this attestation, then returns all of the addresses for all of the data retrievers.",
        "params": {
          "_attestationKeccak": "The attestation's keccak hash."
        },
        "returns": {
          "validationEntities": "an array of all addresses that have had validations for this attestation"
        }
      },
      "getAttestationComponents(bytes32)": {
        "details": "Gets all of the data from the initial attestation, plus the trust anchor address (the \"identified address\" must be known already to call this function)",
        "params": {
          "_attestationKeccak": "The attestation's keccak hash."
        },
        "returns": {
          "availabilityAddressEncrypted": "the encrypted availability address",
          "documentsMatrixEncrypted": "the encrypted documents matrix",
          "effectiveTime": "the effective (start) time of the attestation (in seconds from unix epoch time).",
          "expiryTime": "the expiry time of the attestation (in seconds from unix epoch time).",
          "isManaged": "whether the address is managed or un-managed",
          "jurisdiction": "the Jurisdiction of the attestation (may be different than the trust anchor's jurisdiction)",
          "publicData": "any non-pii public metadata (hash codes from the trust anchor, etc.)",
          "trustAnchorAddress": "the address of the trust anchor that set this attestation"
        }
      },
      "getAttestationComponentsInKeccakArray(address,uint16)": {
        "details": "Gets all of the data from the initial attestation, plus the trust anchor address (the \"identified address\" must be known already to call this function)",
        "params": {
          "_identifiedAddress": "The end user's smart contract address that this attestation is associated to.",
          "_index": "The index of the attestation within the array of attestations associated with a particular end user."
        },
        "returns": {
          "availabilityAddressEncrypted": "the encrypted availability address",
          "documentsMatrixEncrypted": "the encrypted documents matrix",
          "effectiveTime": "the effective (start) time of the attestation (in seconds from unix epoch time).",
          "expiryTime": "the expiry time of the attestation (in seconds from unix epoch time).",
          "identifiedAddressToTrustAnchorDataRetrievalRevenueShare": "the revenue share between the end-user and the trust anchor for this attestation",
          "isManaged": "whether the address is managed or un-managed",
          "jurisdiction": "the Jurisdiction of the attestation (may be different than the trust anchor's jurisdiction)",
          "publicData": "any non-pii public metadata (hash codes from the trust anchor, etc.)",
          "trustAnchorAddress": "the address of the trust anchor that set this attestation"
        }
      },
      "getAttestationCurrentIdentifiedAddress(bytes32)": {
        "details": "| Gets the (current) address of the end user that is associated to this attestation.      | Note: There is no mechanism within this Trust Anchor Storage architecture to change the attestation, but it may need to be supported in the future.",
        "params": {
          "_attestationKeccak": "The attestation's keccak hash."
        },
        "returns": {
          "identifiedAddress": "the current address of the end user that is associated to this attestation"
        }
      },
      "getAttestationDataRetrievalsArrayLengthInKeccakArray(address,uint16)": {
        "details": "| Gets the number of data retrievers that have been able to retrieve the source data associated to this attestation.      | Note 1: These data retrievers may or may not have had the ability to retrieve data disabled.      | Note 2: These data retrievers may or may not have already confirmed the results of retrieving the data.",
        "params": {
          "_identifiedAddress": "The end user's smart contract address that this attestation is associated to.",
          "_index": "The index of the attestation within the array of attestations associated with a particular end user."
        },
        "returns": {
          "arrayLength": "the length of the array of number of data retrievers that have been able receive this attestation."
        }
      },
      "getAttestationDataWasSentToRetrievalEntity(bytes32,address)": {
        "details": "Gets whether the attestation's source data was sent to the Data Retrieval Entity by the Trust Anchor source.",
        "params": {
          "_attestationKeccak": "The attestation's keccak hash.",
          "_retrieverAddress": "The address of the data retriever that has been able to retrieve the source data from this attestation."
        },
        "returns": {
          "attestationWasSentToDataRetrievalEntity": "a boolean yes/no which corresponds to the data having been marked \"sent\" by the data sender."
        }
      },
      "getAttestationDataWasSentToRetrievalEntityTimestamp(bytes32,address)": {
        "details": "Gets the time (in UTC seconds) at which the attestation's source data was sent to the Data Retrieval Entity by the Trust Anchor source.",
        "params": {
          "_attestationKeccak": "The attestation's keccak hash.",
          "_retrieverAddress": "The address of the data retriever that has been able to retrieve the source data from this attestation."
        },
        "returns": {
          "attestationWasSentToDataRetrievalEntityTimestamp": "the time (in utc seconds) which corresponds to the data having been marked \"sent\" by the data sender."
        }
      },
      "getAttestationIdentifiedAddressToTrustAnchorDataRetrievalRevenueSharePercentage(bytes32)": {
        "details": "Gets the end user's revenue share percentage (as a [64 bits].[64 bits] 128bit base-2 number) to their pii-maintaining Trust Anchor for this attestation.",
        "params": {
          "_attestationKeccak": "The attestation's keccak hash."
        },
        "returns": {
          "identifiedAddressToTrustAnchorDataRetrievalRevenueShare": "the end user's revenue share percentage (as a [64 bits].[64 bits] 128bit base-2 number) to their pii-maintaining trust anchor for this attestation."
        }
      },
      "getAttestationIsRetrievableFromRetriever(bytes32,address)": {
        "details": "Gets the Retrievable (data retrieval able to be done) status of an attestations, for a specific data retriever, for this attestation.",
        "params": {
          "_attestationKeccak": "The attestation's keccak hash.",
          "_retrieverAddress": "The address of the data retriever that has been able to retrieve the source data from this attestation."
        },
        "returns": {
          "isRetrievable": "the retrievable status of the attestation for this specific data retriever"
        }
      },
      "getAttestationIsRetrievableFromRetrieverInKeccakArray(address,uint16,address)": {
        "details": "Gets the Retrievable (data retrieval able to be done) status of an attestations, for a specific data retriever, for this attestation.",
        "params": {
          "_identifiedAddress": "The end user's smart contract address that this attestation is associated to.",
          "_index": "The index of the attestation within the array of attestations associated with a particular end user.",
          "_retrieverAddress": "The address of the data retriever that has been able to retrieve the source data from this attestation."
        },
        "returns": {
          "isRetrievable": "the retrievable status of the attestation for this specific data retriever"
        }
      },
      "getAttestationIsSentToRetrieverInKeccakArray(address,uint16,address)": {
        "details": "Gets whether the attestation's source data was sent to the Data Retrieval Entity by the Trust Anchor source.",
        "params": {
          "_identifiedAddress": "The end user's smart contract address that this attestation is associated to.",
          "_index": "The index of the attestation within the array of attestations associated with a particular end user.",
          "_retrieverAddress": "The address of the data retriever that has been able to retrieve the source data from this attestation."
        },
        "returns": {
          "attestationWasSentToDataRetrievalEntity": "a boolean yes/no which corresponds to the data having been marked \"sent\" by the data sender."
        }
      },
      "getAttestationIsValidFromRetriever(bytes32,address)": {
        "details": "Gets the Validated (data retrieval confirmed) status of an attestations, for a specific data retriever, for this attestation.",
        "params": {
          "_attestationKeccak": "The attestation's keccak hash.",
          "_retrieverAddress": "The address of the data retriever that has been able to retrieve the source data from this attestation."
        },
        "returns": {
          "isValid": "a boolean yes/no of whether the attestation is set to 'valid' by a specific data retriever"
        }
      },
      "getAttestationIsValidFromRetrieverInKeccakArray(address,uint16,address)": {
        "details": "Gets the Validated (data retrieval confirmed) status of an attestations, for a specific data retriever, for this attestation.",
        "params": {
          "_identifiedAddress": "The end user's smart contract address that this attestation is associated to.",
          "_index": "The index of the attestation within the array of attestations associated with a particular end user.",
          "_retrieverAddress": "The address of the data retriever that has been able to retrieve the source data from this attestation."
        },
        "returns": {
          "isValid": "a boolean yes/no of whether the attestation is set to 'valid' by a specific data retriever"
        }
      },
      "getAttestationKeccakArrayForIdentifiedAddress(address)": {
        "details": "Gets the entire array of attestations for a specific end user.",
        "params": {
          "_identifiedAddress": "The end user's smart contract address that this attestation is associated to."
        },
        "returns": {
          "keccakArray": "the entire array of attestations for a specific end user"
        }
      },
      "getAttestationKeccakArrayForTrustAnchor(address)": {
        "details": "Gets the entire array of attestations for a specific Trust Anchor.",
        "params": {
          "_trustAnchorAddress": "The Trust Anchor's smart contract address that this attestation is associated to."
        },
        "returns": {
          "keccakArray": "the entire array of attestations for a specific trust anchor"
        }
      },
      "getAttestationKeccakArrayLengthForIdentifiedAddress(address)": {
        "details": "Gets the number of attestations for a particular end user.",
        "params": {
          "_identifiedAddress": "The end user's smart contract address that this attestation is associated to."
        },
        "returns": {
          "keccakArrayLength": "the length of the user's attestation array"
        }
      },
      "getAttestationKeccakArrayLengthForTrustAnchor(address)": {
        "details": "Gets the number of attestations for a particular Trust Anchor.",
        "params": {
          "_trustAnchorAddress": "The Trust Anchor's smart contract address that this attestation is associated to."
        },
        "returns": {
          "keccakArrayLength": "the length of the trust anchor's attestation array"
        }
      },
      "getAttestationKeccakToIdentifiedAddressAttestationKeccakArrayIndex(bytes32)": {
        "details": "Gets the mapping of a hash for an attestation to the index in the array for the end user that this attestation is associated with.",
        "params": {
          "_attestationKeccak": "The attestation's keccak hash."
        },
        "returns": {
          "keccakArrayIndex": "the index in the end users array of attestation that this hash corresponds to."
        }
      },
      "getAttestationOriginalIdentifiedAddress(bytes32)": {
        "details": "Gets the (original) address of the end user that is associated to this attestation.",
        "params": {
          "_attestationKeccak": "The attestation's keccak hash."
        },
        "returns": {
          "identifiedAddress": "the original address of the end user that is associated to this attestation"
        }
      },
      "getAttestationRetrievableDocumentsEncryptedFromRetriever(bytes32,address)": {
        "details": "Gets the Retrievable (data retrieval able to be done) data (generally encrypted) that represent the documents able to be retrieved from an attestations, for a specific data retriever, for this attestation.",
        "params": {
          "_attestationKeccak": "The attestation's keccak hash.",
          "_retrieverAddress": "The address of the data retriever that has been able to retrieve the source data from this attestation."
        },
        "returns": {
          "consentedDocumentsEncrypted": "the encrypted retrievable data of the attestation for this specific data retriever"
        }
      },
      "getAttestationStatusApprovedInKeccakArray(address,uint16)": {
        "details": "Gets the attestation approved status for a specific attestation within the end user's attestation array.",
        "params": {
          "_identifiedAddress": "The end user's smart contract address that this attestation is associated to.",
          "_index": "The index of the attestation within the array of attestations associated with a particular end user."
        },
        "returns": {
          "attestationStatusApproved": "the approval status of this attestation (which corresponds to effective time / expiry time, etc)"
        }
      },
      "getAttestationTrustAnchorAddress(bytes32)": {
        "details": "Gets the address of the Trust Anchor that performed the attestation.",
        "params": {
          "_attestationKeccak": "The attestation's keccak hash."
        },
        "returns": {
          "trustAnchorAddress": "the address of the Trust Anchor for this attestation"
        }
      },
      "getAttestationTrustAnchorIndex(bytes32)": {
        "details": "Gets the Index of the Trust Anchor that performed the attestation.",
        "params": {
          "_attestationKeccak": "The attestation's keccak hash."
        },
        "returns": {
          "trustAnchorIndex": "the Index of the Trust Anchor for this attestation"
        }
      },
      "getAttestationValidationsArrayLengthInKeccakArray(address,uint16)": {
        "details": "Gets the length of the Validated (data retrieval confirmed) results for this attestation.",
        "params": {
          "_identifiedAddress": "The end user's smart contract address that this attestation is associated to.",
          "_index": "The index of the attestation within the array of attestations associated with a particular end user."
        },
        "returns": {
          "arrayLength": "the length of the array of data retriever validated results for this attestation"
        }
      },
      "getAttestationValiditySignaturesInKeccakArray(address,uint16)": {
        "details": "Gets the actual signatures (currently user and trust anchor) for a specific attestation within the end user's attestation array.",
        "params": {
          "_identifiedAddress": "The end user's smart contract address that this attestation is associated to.",
          "_index": "The index of the attestation within the array of attestations associated with a particular end user."
        },
        "returns": {
          "validityTrustAnchorSignatureV": "#1/3 parts of the signature for the trust anchor that is associated with this attestation",
          "validityTrustSignatureRS": "#2/3 and #3/3 parts of the signature for the trust anchor that is associated with this attestation",
          "validityUserSignatureRS": "#2/3 and #3/3 parts of the signature for the end user that is associated with this attestation",
          "validityUserSignatureV": "#1/3 parts of the signature for the end user that is associated with this attestation"
        }
      },
      "getConsentAvailableInKeccakArray(address,uint16)": {
        "details": "Gets the consent available status (number of signatures for this attestation, currently user and trust anchor) for a specific attestation within the end user's attestation array.",
        "params": {
          "_identifiedAddress": "The end user's smart contract address that this attestation is associated to.",
          "_index": "The index of the attestation within the array of attestations associated with a particular end user."
        },
        "returns": {
          "consentAvailable": "the consent available status (number of signatures for this attestation, currently user and trust anchor) for this attestation"
        }
      },
      "getDataRetrievalRevenueShare(address,address)": {
        "details": "Gets the current data retrieval revenue share relationship between the end user (in this case, msg.sender) and their pii-maintaining TA.",
        "params": {
          "_identifiedAddress": "The end user's smart contract address that this attestation is associated to.",
          "_trustAnchorAddress": "The trust anchor that will be trusted to transmit data on the users behalf (covers manage and un-managed contexts)."
        },
        "returns": {
          "dataSharePercentage": "the data share percentage as a fixed point decimal representation (6 decimals for the input precision (0.000001% minimum sharing = \"1\", \"1000000\" = 1.0%, \"100000000\" = 100.0%))"
        }
      },
      "getGraphConstructableAttestationInKeccakArray(address,uint16)": {
        "details": "Gets what is considered \"graph constructible\" outputs for a specific attestation. it contains all of the cross-mapping required to retrieve further data.",
        "params": {
          "_identifiedAddress": "The end user's smart contract address that this attestation is associated to.",
          "_index": "The index of the attestation within the array of attestations associated with a particular end user."
        },
        "returns": {
          "attestationStatusApproved": "the approval status of this attestation (which corresponds to effective time / expiry time, etc)",
          "jurisdiction": "the Jurisdiction of the attestation",
          "keccakHash": "the hash of the attestation",
          "trustAnchorIndex": "the Index of the Trust Anchor that set this attestation"
        }
      },
      "getIndexedAttestationAvailabilityAddressEncryptedForIdentifiedUser(address,uint16)": {
        "details": "Gets the attestation availability for a specific attestation within the end user's attestation array.",
        "params": {
          "_identifiedAddress": "The end user's smart contract address that this attestation is associated to.",
          "_index": "The index of the attestation within the array of attestations associated with a particular end user."
        },
        "returns": {
          "availabilityAddressEncrypted": "the attestation availability for the specific index of attestations associated with the end user"
        }
      },
      "getIndexedAttestationEffectiveTimeForIdentifiedUser(address,uint16)": {
        "details": "Gets the effective time for a specific attestation within the end user's attestation array.",
        "params": {
          "_identifiedAddress": "The end user's smart contract address that this attestation is associated to.",
          "_index": "The index of the attestation within the array of attestations associated with a particular end user."
        },
        "returns": {
          "effectiveTime": "the effective time for the specific index of attestations associated with the end user"
        }
      },
      "getIndexedAttestationExpiryTimeForIdentifiedUser(address,uint16)": {
        "details": "Gets the expiry time for a specific attestation within the end user's attestation array.",
        "params": {
          "_identifiedAddress": "The end user's smart contract address that this attestation is associated to.",
          "_index": "The index of the attestation within the array of attestations associated with a particular end user."
        },
        "returns": {
          "expiryTime": "the expiry time for the specific index of attestations associated with the end user"
        }
      },
      "getIndexedAttestationJurisdictionForIdentifiedUser(address,uint16)": {
        "details": "Gets the jurisdiction for a specific attestation within the end user's attestation array.",
        "params": {
          "_identifiedAddress": "The end user's smart contract address that this attestation is associated to.",
          "_index": "The index of the attestation within the array of attestations associated with a particular end user."
        },
        "returns": {
          "jurisdiction": "the jurisdiction for the specific index of attestations associated with the end user"
        }
      },
      "getIndexedAttestationKeccakHashForIdentifiedUser(address,uint16)": {
        "details": "Gets the keccak hash for a specific attestation within the end user's attestation array.",
        "params": {
          "_identifiedAddress": "The end user's smart contract address that this attestation is associated to.",
          "_index": "The index of the attestation within the array of attestations associated with a particular end user."
        },
        "returns": {
          "keccakHash": "the keccak hash for the specific index of attestations associated with the end user"
        }
      },
      "getIndexedAttestationKeccakHashForTrustAnchor(address,uint16)": {
        "details": "Gets the keccak hash for a specific attestation within the Trust Anchor's attestation array.",
        "params": {
          "_index": "The index of the attestation within the array of attestations associated with a particular Trust Anchor.",
          "_trustAnchorAddress": "The Trust Anchor's smart contract address that this attestation is associated to."
        },
        "returns": {
          "keccakHash": "the keccak hash for the specific index of attestations associated with the trust anchor"
        }
      },
      "getNumAdminConfirmationProposals()": {
        "details": "Gets the number of a specific NofM change proposal.",
        "returns": {
          "result": "the number of a specific NofM proposals"
        }
      },
      "getTrustAnchorAddressInKeccakArray(address,uint16)": {
        "details": "Gets the Trust Anchor's address for the Trust Anchor that set this attestation.",
        "params": {
          "_identifiedAddress": "The end user's smart contract address that this attestation is associated to.",
          "_index": "The index of the attestation within the array of attestations associated with a particular end user."
        },
        "returns": {
          "trustAnchorAddress": "the trust anchor address for the trust anchor that set this attestation"
        }
      },
      "isAdministrator(address)": {
        "details": "Returns whether a given address is an administrator.",
        "params": {
          "_administratorAddress": "The public address of a specific administrator."
        },
        "returns": {
          "result": "   | true = is administrator    | false = either administrator unset or demoted"
        }
      },
      "promoteAdministrator(address)": {
        "details": "| Promotes a new administrator. If there is only a primary Administrator set, this will allow the addition of the second administrator and enable multisignature requirements for any actions of this contract (or those inheriting it).      | Uses Multi-signature permissions if there is more than one Administrator onboarded.",
        "params": {
          "_newAdministratorAddress": "The new Administrator's public address."
        },
        "returns": {
          "result": "   | 0 = not administrator    | 1 = administrator already promoted    | 2 = new administrator promoted    | 3 = added vote to promote administrator"
        }
      },
      "proposeChangeCurrentAdminConfirmationThreshold(uint256)": {
        "details": "This function proposes a change to the threshold of voting required (N signatories of M total set size = NofM). To prevent stale inattention results, timeout after 2 days.",
        "params": {
          "_newThreshold": "The new threshold (N of M multisig) that is needed to be passed."
        },
        "returns": {
          "result": "   | 0 = not an administrator    | 1 = not enough administrators to achieve confirmation threshold    | 2 = new proposal added"
        }
      },
      "reenableAttestation(bytes32)": {
        "details": "| Re-enables a revoked attestation. Called by the Trust Anchor that initially set this attestation.      | This function calls the linked Shyft Cache Graph to update the Trust Channel architecture.",
        "params": {
          "_attestationKeccak": "The attestation's keccak hash."
        },
        "returns": {
          "result": "   | 0 = trust anchor not verified    | 1 = no revoked attestation found    | 2 = attestation re-enabled"
        }
      },
      "removeDataRetrievalTargetFromIdentifiedAddress(bytes32,address)": {
        "details": "| Removes the ability for the data that was consented to be retrieved by the target Trust Anchor.      | This function is called by the end user as it is in the Un-managed context.",
        "params": {
          "_attestationKeccak": "The attestation's keccak hash.",
          "_dataRetrievalTarget": "The public address of the Trust Anchor that is doing the data retrieval."
        },
        "returns": {
          "result": "   | 0 = attestation is not managed by the end user    | 1 = not the identified address that this attestation targets    | 2 = attestation does not have any retrievable data to this target    | 3 = data retrieval target is set to no longer have access to the data"
        }
      },
      "removeDataRetrievalTargetManaged(bytes32,address)": {
        "details": "| Removes the ability for the data that was consented to be retrieved by the target Trust Anchor.      | This function is called by the Trust Anchor as it is in the Managed context.",
        "params": {
          "_attestationKeccak": "The attestation's keccak hash.",
          "_dataRetrievalTarget": "The public address of the Trust Anchor that is doing the data retrieval."
        },
        "returns": {
          "result": "   | 0 = attestation is not managed by the trust anchor    | 1 = not the identified address that this attestation targets    | 2 = attestation does not have any retrievable data to this target    | 3 = data retrieval target is set to no longer have access to the data"
        }
      },
      "revokeAdministrator(address)": {
        "details": "| Revokes an existing administrator from the multisignature set, checks to see if the # of required votes would be higher then the administrator set size, and if so adjusts to match.      | Uses Multi-signature permissions if there is more than one Administrator onboarded.",
        "params": {
          "_revokeAdministratorAddress": "An existing Administrator's public address."
        },
        "returns": {
          "result": "result"
        }
      },
      "revokeAttestation(bytes32)": {
        "details": "| Revokes an attestation. Can be called by the Trust Anchor that initially set this attestation, and the Prime Revocation Manager (for edge-case events where the Trust Anchor is no longer able to manage attestations).      | This function calls the linked Shyft Cache Graph to update the Trust Channel architecture.",
        "params": {
          "_attestationKeccak": "The attestation's keccak hash."
        },
        "returns": {
          "result": "   | 0 = revocation authority not recognized    | 1 = no non-revoked attestation found    | 2 = attestation revoked"
        }
      },
      "setAttestation(address,uint16,uint64,uint64,bytes,bytes,bytes32,bool)": {
        "details": "| Sets an attestation for a specific Shyft end-user, sent by a (Verified) Trust Anchor.      | Contains all the information required to perform a lookup for the \"hard\" or \"light\" identity, via the \"document matrix\", as defined in the Shyft Bluepaper [ insert website link here ].      | The \"availability address\" is a public address that contains the smart contract code for dealing with escrows for identity payment, restrictions, regulatory rules etc.      | Symmetric AES encryption is a preferable way of encoding the \"document matrix\" and the \"availability address\", as these could contain (maximally) abstracted PII in the form of bit fields containing the documents that can be retrieved.      | Given the nature of smart contract operation, any subsequent updates that rely on \"effectiveTime\" and \"expiryTime\" will need further calls to update the Shyft Cache Graph for full status updates within the Shyft Core architecture flow regarding the current validity of attestations to end-user's accounts.",
        "params": {
          "_availabilityAddressEncrypted": "The availability address, an ethereum-type address corresponding to the smart contract that manages the various economic & regulatory conditions of data transfer from a Trust Anchor to a data retriever. Generally encrypted via symmetric AES to prevent abstracted PII from being leaked on the blockchain directly.",
          "_documentsMatrixEncrypted": "The document matrix, a series of 0's and 1's corresponding to the availability of specific pieces of \"hard\" documentation that the Trust Anchor holds. Generally encrypted via symmetric AES to prevent abstracted PII from being leaked on the blockchain directly.",
          "_effectiveTime": "The effective (start) time of the attestation (in Seconds from Unix Epoch Time).",
          "_expiryTime": "The expiry time of the attestation (in Seconds from Unix Epoch Time).",
          "_identifiedAddress": "The end user's smart contract address that is being attested to.",
          "_isManaged": "Whether this attestation is managed by the Trust Anchor. This indicates that consent conditions are applied from the Trust Anchor instead of the end user.",
          "_jurisdiction": "The jurisdiction of the attestation (may be different than the Trust Anchor's jurisdiction).",
          "_publicData": "Any non-PII public metadata (hash codes from the Trust Anchor, etc.)"
        },
        "returns": {
          "result": "              | 0 =  trust anchor is not verified               | 1 =  attestation not valid               | 2 =  attestation already exists               | 3 =  attestation set (returns resultAttestationKeccak != 0)",
          "resultAttestationKeccak": "resultant keccak hash of the attestation. used for further referencing within the shyft core architecture."
        }
      },
      "setDataRetrievalRevenueShare(address,uint32)": {
        "details": "Sets the data retrieval revenue share relationship between the end user (in this case, msg.sender) and their pii-maintaining TA. This is encoded in each attestation by that TA for this particular user. The user may, at any time, change this relationship, but only for future attestations. Given that while consent is directed by the user (or managed on their behalf by their TA), the TA actually performs the data transmission actions off-chain, and so there is no situation where the TA could unwillingly be front-ran by the user.",
        "params": {
          "_dataSharePercentage": "The percentage, as a fixed point decimal representation (6 decimals for the input precision (0.000001% minimum sharing = \"1\", \"1000000\" = 1.0%, \"100000000\" = 100.0%))",
          "_trustAnchorAddress": "The trust anchor that will be trusted to transmit data on the users behalf (covers manage and un-managed contexts)."
        },
        "returns": {
          "result": "    | 0 = revenue share >100%     | 1 = set revenue share"
        }
      },
      "setDataSenderDidSendDocuments(bytes32,address)": {
        "details": "| Indicates that the source trust anchor has sent the data/documents (example usage: for the contestation phase in an escrow \"availability\" contract) to the data retrieval entity.      | This function is called by the source trust anchor that has the user's PII data, on an attestation that has already been permissioned to a data retrieval entity.",
        "params": {
          "_attestationKeccak": "The attestation's keccak hash.",
          "_dataRetrievalTarget": "The public address of the Trust Anchor that is doing the data retrieval."
        },
        "returns": {
          "result": "   | 0 = message sender is not the trust anchor that originally set this attestation    | 1 = data is not set to retrievable with that data retrieval target    | 2 = data was already marked as sent    | 3 = data is now marked as sent"
        }
      },
      "setPrimaryAdministrator(address)": {
        "details": "Sets the primary Administrator for this contract (or those that inherit from it). This transfers ownership of this contracts first administration duties (to find and onboard a second party for multisignature requirements) to the set Administrator's public address.",
        "params": {
          "_newAdministratorAddress": "The new Administrator's public address."
        },
        "returns": {
          "result": "   | 0 = not owner    | 1 = already set first administrator    | 2 = setup first administrator"
        }
      },
      "setShyftCacheGraphAddress(address)": {
        "details": "| Links a Shyft Cache Graph to this contract's function flow.      | Uses Multi-signature permissions.",
        "params": {
          "_shyftCacheGraphAddress": "The smart contract address for the Shyft CacheGraph that should be linked."
        },
        "returns": {
          "result": "   | 0: not an administrator    | 1: not enough administrators have permissioned change    | 2: set shyft cache graph address"
        }
      },
      "setTrustAnchorManagerAddress(address)": {
        "details": "| Links Trust Anchor Manager to this contract's function flow.      | Uses Multi-signature permissions.",
        "params": {
          "_trustAnchorManagerAddress": "The smart contract address for the Trust Anchor Manager that should be linked."
        },
        "returns": {
          "result": "   | 0: not an administrator    | 1: not enough administrators have permissioned change    | 2: set trust anchor manager address"
        }
      },
      "signAttestationTrustAnchorSignature(bytes32,uint8,bytes32[2])": {
        "details": "| Provides a valid signature from the Trust Anchor, for a specific attestation. With the Trust Anchor's signature, allows the attestation to be considered fully consented on the Trust Channel architecture.",
        "params": {
          "_attestationKeccak": "The attestation's keccak hash.",
          "_attestationValidityTrustAnchorSignatureRS": "Part of the Trust Anchor's signature that is used by the ecrecover function to validate the signature.",
          "_attestationValidityTrustAnchorSignatureV": "Part of the Trust Anchor's signature that is used by the ecrecover function to validate the signature."
        },
        "returns": {
          "result": "   | 0 = sender is not the trust anchor address that created this attestation    | 1 = already signed    | 2 = invalid signature    | 3 = stored valid signature"
        }
      },
      "signAttestationUserSignature(bytes32,uint8,bytes32[2])": {
        "details": "| Provides a valid signature from the end user, for a specific attestation. With the Trust Anchor's signature, allows the attestation to be considered fully consented on the Trust Channel architecture.      | One of the uses of this is to prevent spam attestations from being considered on the consented rails.",
        "params": {
          "_attestationKeccak": "The attestation's keccak hash.",
          "_attestationValidityUserSignatureRS": "Part of the end user's signature that is used by the ecrecover function to validate the signature.",
          "_attestationValidityUserSignatureV": "Part of the end user's signature that is used by the ecrecover function to validate the signature."
        },
        "returns": {
          "result": "   | 0 = sender is not the user address that is associated with this attestation    | 1 = already signed    | 2 = invalid signature    | 3 = stored valid signature"
        }
      }
    },
    "stateVariables": {
      "attestationKeccak_to_attestation": {
        "details": "Mapping of the attestation keccak hash to the data model of the attestation, which would contain all pertinent properties of an attestation."
      },
      "attestationKeccak_to_identifiedAddress": {
        "details": "Mapping of the attestation keccak hash to the identified address (end user)'s address that is associated with this attestation originally."
      },
      "attestationKeccak_to_identifiedAddressAttestationKeccakArrayIndex": {
        "details": "Mapping of the attestation keccak hash to the Index in the identified address (end user)'s attestation array."
      },
      "identifiedAddress_to_attestationKeccakArray": {
        "details": "Mapping of the identified address (end user)'s address to the associated attestation array."
      },
      "identifiedAddress_to_trustAnchor_to_dataRetrievalRevenueShare": {
        "details": "Mapping of the mapping of the end-users relation between themselves, their pii-maintaining trust anchor, and their current data revenue share."
      },
      "shyftCacheGraphAddress": {
        "details": "Address for the Shyft Cache Graph that is linked to this contract."
      },
      "trustAnchorAddress_to_attestationKeccakArray": {
        "details": "Mapping of the Trust Anchor address to the attestation keccak array that they have set."
      },
      "trustAnchorManagerAddress": {
        "details": "Address for the Trust Anchor Manager that is linked to this contract."
      }
    },
    "version": 1
  },
  "userdoc": {
    "kind": "user",
    "methods": {
      "addDataRetrievalTargetFromIdentifiedAddress(bytes32,address,bytes)": {
        "notice": "_dataRetrievalTarget needs to be a verified Trust Anchor."
      },
      "addDataRetrievalTargetManaged(bytes32,address,bytes)": {
        "notice": "_dataRetrievalTarget needs to be a verified Trust Anchor."
      },
      "changeCurrentAdminConfirmationThreshold(uint32)": {
        "notice": "Multiple proposals can be constructed for different sets to apply to change the administrator threshold. As the permissions for multisig keys use a voting set nonce underneath the hood, a change in the current administrator set will cancel all current votes."
      },
      "getAttestationComponents(bytes32)": {
        "notice": "For mapping, if a value is passed that does not exist in the mapping array, the response will be a VM error as it will be out of bounds."
      },
      "getAttestationComponentsInKeccakArray(address,uint16)": {
        "notice": "For mapping, if a value is passed that does not exist in the mapping array, the response will be a VM error as it will be out of bounds."
      },
      "getAttestationDataRetrievalsArrayLengthInKeccakArray(address,uint16)": {
        "notice": "For mapping, if a value is passed that does not exist in the mapping array, the response will be a VM error as it will be out of bounds."
      },
      "getAttestationIdentifiedAddressToTrustAnchorDataRetrievalRevenueSharePercentage(bytes32)": {
        "notice": "For mapping, if a value is passed that does not exist in the mapping array, the response be 0, so there needs to be an additional step required to confirm the details of this attestation."
      },
      "getAttestationIsRetrievableFromRetrieverInKeccakArray(address,uint16,address)": {
        "notice": "For mapping, if a value is passed that does not exist in the mapping array, the response will be a VM error as it will be out of bounds."
      },
      "getAttestationIsSentToRetrieverInKeccakArray(address,uint16,address)": {
        "notice": "For mapping, if a value is passed that does not exist in the mapping array, the response will be a VM error as it will be out of bounds."
      },
      "getAttestationIsValidFromRetrieverInKeccakArray(address,uint16,address)": {
        "notice": "For mapping, if a value is passed that does not exist in the mapping array, the response will be a VM error as it will be out of bounds."
      },
      "getAttestationKeccakToIdentifiedAddressAttestationKeccakArrayIndex(bytes32)": {
        "notice": "For mapping, if a value is passed that does not exist in the mapping array, the response be 0, so there needs to be an additional step required to confirm the details of this attestation."
      },
      "getAttestationStatusApprovedInKeccakArray(address,uint16)": {
        "notice": "For mapping, if a value is passed that does not exist in the mapping array, the response will be a VM error as it will be out of bounds."
      },
      "getAttestationValidationsArrayLengthInKeccakArray(address,uint16)": {
        "notice": "For mapping, if a value is passed that does not exist in the mapping array, the response will be a VM error as it will be out of bounds."
      },
      "getAttestationValiditySignaturesInKeccakArray(address,uint16)": {
        "notice": "For mapping, if a value is passed that does not exist in the mapping array, the response will be a VM error as it will be out of bounds."
      },
      "getConsentAvailableInKeccakArray(address,uint16)": {
        "notice": "For mapping, if a value is passed that does not exist in the mapping array, the response will be a VM error as it will be out of bounds."
      },
      "getGraphConstructableAttestationInKeccakArray(address,uint16)": {
        "notice": "For mapping, if a value is passed that does not exist in the mapping array, the response will be a VM error as it will be out of bounds."
      },
      "getIndexedAttestationAvailabilityAddressEncryptedForIdentifiedUser(address,uint16)": {
        "notice": "For mapping, if a value is passed that does not exist in the mapping array, the response will be a VM error as it will be out of bounds."
      },
      "getIndexedAttestationEffectiveTimeForIdentifiedUser(address,uint16)": {
        "notice": "For mapping, if a value is passed that does not exist in the mapping array, the response will be a VM error as it will be out of bounds."
      },
      "getIndexedAttestationExpiryTimeForIdentifiedUser(address,uint16)": {
        "notice": "For mapping, if a value is passed that does not exist in the mapping array, the response will be a VM error as it will be out of bounds."
      },
      "getIndexedAttestationJurisdictionForIdentifiedUser(address,uint16)": {
        "notice": "For mapping, if a value is passed that does not exist in the mapping array, the response will be a VM error as it will be out of bounds."
      },
      "getIndexedAttestationKeccakHashForIdentifiedUser(address,uint16)": {
        "notice": "For mapping, if a value is passed that does not exist in the mapping array, the response will be a VM error as it will be out of bounds."
      },
      "getIndexedAttestationKeccakHashForTrustAnchor(address,uint16)": {
        "notice": "For mapping, if a value is passed that does not exist in the mapping array, the response will be a VM error as it will be out of bounds."
      },
      "getTrustAnchorAddressInKeccakArray(address,uint16)": {
        "notice": "For mapping, if a value is passed that does not exist in the mapping array, the response will be a VM error as it will be out of bounds."
      },
      "promoteAdministrator(address)": {
        "notice": "| Uses composition features (based on current validator set) so data structure may be orphaned when promotion/demotion events occur.         | Whenever this function is called (with a passing vote), there will be a re-hashing of the voting set nonce, so all current votes will become invalidated."
      },
      "revokeAdministrator(address)": {
        "notice": "| Uses composition features (based on current validator set) so data structure may be orphaned when promotion/demotion events occur.         | Whenever this function is called (with a passing vote), there will be a re-hashing of the voting set nonce, so all current votes will become invalidated."
      }
    },
    "version": 1
  }
}