{
  "contractName": "TrustAnchor_Generic",
  "abi": [
    {
      "inputs": [
        {
          "internalType": "uint256",
          "name": "_minimumRequiredStake",
          "type": "uint256"
        }
      ],
      "stateMutability": "nonpayable",
      "type": "constructor"
    },
    {
      "inputs": [
        {
          "internalType": "address",
          "name": "_trustAnchorStorageAddress",
          "type": "address"
        }
      ],
      "name": "setTrustAnchorStorageAddress",
      "outputs": [
        {
          "internalType": "uint8",
          "name": "result",
          "type": "uint8"
        }
      ],
      "stateMutability": "nonpayable",
      "type": "function"
    },
    {
      "inputs": [
        {
          "internalType": "address",
          "name": "_curatedBindingAddress",
          "type": "address"
        }
      ],
      "name": "setCuratedBindingAddress",
      "outputs": [
        {
          "internalType": "uint8",
          "name": "result",
          "type": "uint8"
        }
      ],
      "stateMutability": "nonpayable",
      "type": "function"
    },
    {
      "inputs": [
        {
          "internalType": "uint256",
          "name": "_consentTransactionCost",
          "type": "uint256"
        }
      ],
      "name": "setConsentTransactionCost",
      "outputs": [],
      "stateMutability": "nonpayable",
      "type": "function"
    },
    {
      "inputs": [
        {
          "internalType": "bytes32",
          "name": "_availabilityAddressEncrypted",
          "type": "bytes32"
        }
      ],
      "name": "setAvailabilityAddressEncrypted",
      "outputs": [],
      "stateMutability": "nonpayable",
      "type": "function"
    },
    {
      "inputs": [
        {
          "internalType": "bytes32",
          "name": "bindingKeccak",
          "type": "bytes32"
        }
      ],
      "name": "getProofExists",
      "outputs": [
        {
          "internalType": "uint8",
          "name": "result",
          "type": "uint8"
        }
      ],
      "stateMutability": "view",
      "type": "function"
    },
    {
      "inputs": [
        {
          "internalType": "bytes",
          "name": "_value",
          "type": "bytes"
        },
        {
          "internalType": "bytes",
          "name": "_encodedPath",
          "type": "bytes"
        },
        {
          "internalType": "bytes",
          "name": "_rlpParentNodes",
          "type": "bytes"
        },
        {
          "internalType": "bytes32",
          "name": "_headerKeccak",
          "type": "bytes32"
        }
      ],
      "name": "getProofPassesExternal",
      "outputs": [
        {
          "internalType": "uint8",
          "name": "result",
          "type": "uint8"
        }
      ],
      "stateMutability": "nonpayable",
      "type": "function"
    },
    {
      "inputs": [
        {
          "internalType": "address payable",
          "name": "_identifiedAddress",
          "type": "address"
        },
        {
          "internalType": "bytes32",
          "name": "_signedDataKeccak",
          "type": "bytes32"
        },
        {
          "internalType": "uint8",
          "name": "_userDataSignatureV",
          "type": "uint8"
        },
        {
          "internalType": "bytes32[2]",
          "name": "_userDataSignatureRS",
          "type": "bytes32[2]"
        }
      ],
      "name": "commitForUser",
      "outputs": [
        {
          "internalType": "uint8",
          "name": "result",
          "type": "uint8"
        }
      ],
      "stateMutability": "nonpayable",
      "type": "function"
    },
    {
      "inputs": [
        {
          "internalType": "bytes32",
          "name": "_signedDataKeccak",
          "type": "bytes32"
        }
      ],
      "name": "getPrecommitIdentifiedAddressForSignedDataKeccak",
      "outputs": [
        {
          "internalType": "address",
          "name": "identifiedAddress",
          "type": "address"
        }
      ],
      "stateMutability": "view",
      "type": "function"
    },
    {
      "inputs": [],
      "name": "revokeProof",
      "outputs": [
        {
          "internalType": "uint8",
          "name": "result",
          "type": "uint8"
        }
      ],
      "stateMutability": "pure",
      "type": "function"
    }
  ],
  "bytecode": "0x60806040526000805462ff00001961ffff199091166180001790811682556003805461ffff928316600101909216600160a01b026001600160b01b0319909216919091179055600880546001600160a01b03191690556009819055600a5534801561006957600080fd5b506040516114593803806114598339818101604052602081101561008c57600080fd5b5051600380546001600160a01b031916331790556000805462ff0000191662010000179055600255611396806100c36000396000f3fe608060405234801561001057600080fd5b50600436106100935760003560e01c80638bf204cf116100665780638bf204cf14610134578063b89b6a571461015a578063c68b1f9014610177578063ebd1735314610194578063f83c8521146101fc57610093565b80630c180ed61461009857806359553d9e146100d1578063610a6267146100ef578063714573971461010e575b600080fd5b6100b5600480360360208110156100ae57600080fd5b50356103b2565b604080516001600160a01b039092168252519081900360200190f35b6100d96103d0565b6040805160ff9092168252519081900360200190f35b61010c6004803603602081101561010557600080fd5b50356103d6565b005b6100d96004803603602081101561012457600080fd5b50356001600160a01b03166103ec565b6100d96004803603602081101561014a57600080fd5b50356001600160a01b0316610439565b6100d96004803603602081101561017057600080fd5b503561047e565b61010c6004803603602081101561018d57600080fd5b50356104a3565b6100d9600480360360a08110156101aa57600080fd5b6040805180820182526001600160a01b038435169360208101359360ff8483013516939082019260a0830191606084019060029083908390808284376000920191909152509194506104b59350505050565b6100d96004803603608081101561021257600080fd5b81019060208101813564010000000081111561022d57600080fd5b82018360208201111561023f57600080fd5b8035906020019184600183028401116401000000008311171561026157600080fd5b91908080601f01602080910402602001604051908101604052809392919081815260200183838082843760009201919091525092959493602081019350359150506401000000008111156102b457600080fd5b8201836020820111156102c657600080fd5b803590602001918460018302840111640100000000831117156102e857600080fd5b91908080601f016020809104026020016040519081016040528093929190818152602001838380828437600092019190915250929594936020810193503591505064010000000081111561033b57600080fd5b82018360208201111561034d57600080fd5b8035906020019184600183028401116401000000008311171561036f57600080fd5b91908080601f016020809104026020016040519081016040528093929190818152602001838380828437600092019190915250929550509135925061062a915050565b6000818152600560205260409020546001600160a01b03165b919050565b60005b90565b6103de61070a565b156103e957600a8190555b50565b60006103f661070a565b15610431576001600160a01b03821661040e57600080fd5b50600780546001600160a01b0319166001600160a01b03831617905560016103cb565b5060006103cb565b600061044361070a565b15610431576001600160a01b03821661045b57600080fd5b50600880546001600160a01b0319166001600160a01b03831617905560016103cb565b6000818152600460205260408120546001600160a01b031615610431575060016103cb565b6104ab61070a565b156103e957600955565b600060606040518060400160405280601c81526020017f19457468657265756d205369676e6564204d6573736167653a0a3332000000008152509050600081866040516020018083805190602001908083835b602083106105275780518252601f199092019160209182019101610508565b51815160209384036101000a60001901801990921691161790529201938452506040805180850381528483018083528151918401919091208a518b850151600090935283870180855282905260ff8d166060880152608087015260a086019190915290519095506001600160a01b038c16945060019360c08082019450601f19830192918290030190855afa1580156105c4573d6000803e3d6000fd5b505050602060405103516001600160a01b0316141561061b57505050600083815260056020908152604080832080546001600160a01b0319166001600160a01b038916179055600690915290204290556001610622565b6000925050505b949350505050565b6007546000906001600160a01b03161580159061065157506008546001600160a01b031615155b156107025760085460408051630597801f60e41b81526004810185905290516001600160a01b0390921691600091839163597801f09160248082019260209290919082900301818787803b1580156106a857600080fd5b505af11580156106bc573d6000803e3d6000fd5b505050506040513d60208110156106d257600080fd5b505190506106e287878784610730565b1515600114156106f757600292505050610622565b600192505050610622565b506000610622565b6003546000906001600160a01b0316331415610728575060016103d3565b5060006103d3565b600061073e85858585610750565b15156001141561070257506001610622565b600061075a611326565b61076384610a65565b9050606061077082610aa8565b9050606080856000826107828b610b71565b905080516000141561079e576000975050505050505050610622565b60005b8651811015610a55576107c68782815181106107b957fe5b6020026020010151610cd8565b95506107e48782815181106107d757fe5b6020026020010151610aa8565b945084516011141561095757815183141561090c578c6040516020018082805190602001908083835b6020831061082c5780518252601f19909201916020918201910161080d565b6001836020036101000a03801982511681845116808217855250505050505090500191505060405160208183030381529060405280519060200120610877866010815181106107b957fe5b6040516020018082805190602001908083835b602083106108a95780518252601f19909201916020918201910161088a565b6001836020036101000a0380198251168184511680821785525050505050509050019150506040516020818303038152906040528051906020012014156108fb57600198505050505050505050610622565b600098505050505050505050610622565b600082848151811061091a57fe5b602001015160f81c60f81b60f81c9050610949868260ff168151811061093c57fe5b6020026020010151610d49565b945060018401935050610a4d565b8451600214156108fb576109886109818660008151811061097457fe5b6020026020010151610d54565b8385610dd0565b8251930192831415610a12578c6040516020018082805190602001908083835b602083106109c75780518252601f1990920191602091820191016109a8565b6001836020036101000a038019825116818451168082178552505050505050905001915050604051602081830303815290604052805190602001206108778660018151811061097457fe5b610a256109818660008151811061097457fe5b610a3a57600098505050505050505050610622565b610a4a8560018151811061093c57fe5b93505b6001016107a1565b5050505050505050949350505050565b610a6d611326565b815180610a8f57505060408051808201909152600080825260208201526103cb565b6040805180820190915260209384018152928301525090565b6060610ab382610f7b565b610abc57600080fd5b6000610ac783610fa2565b90508067ffffffffffffffff81118015610ae057600080fd5b50604051908082528060200260200182016040528015610b1a57816020015b610b07611326565b815260200190600190039081610aff5790505b509150610b25611340565b610b2e84611006565b905060005b610b3c8261103d565b15610b6957610b4a8261105c565b848281518110610b5657fe5b6020908102919091010152600101610b33565b505050919050565b606080600083511115610cd257600080610b8c60008661109c565b60f81c90506001811480610ba357508060ff166003145b15610c3257600185516002020367ffffffffffffffff81118015610bc657600080fd5b506040519080825280601f01601f191660200182016040528015610bf1576020820181803683370190505b5092506000610c0160018761109c565b90508084600081518110610c1157fe5b60200101906001600160f81b031916908160001a9053506001925050610c83565b600285516002020367ffffffffffffffff81118015610c5057600080fd5b506040519080825280601f01601f191660200182016040528015610c7b576020820181803683370190505b509250600091505b60ff82165b8351811015610cce57610ca38360ff1682036002018761109c565b848281518110610caf57fe5b60200101906001600160f81b031916908160001a905350600101610c88565b5050505b92915050565b602081015160609080610cef5750606090506103cb565b8067ffffffffffffffff81118015610d0657600080fd5b506040519080825280601f01601f191660200182016040528015610d31576020820181803683370190505b509150610d43836000015183836110f9565b50919050565b6000610cd282611137565b6060610d5f82611187565b610d6857600080fd5b600080610d74846111ad565b90925090508067ffffffffffffffff81118015610d9057600080fd5b506040519080825280601f01601f191660200182016040528015610dbb576020820181803683370190505b509250610dc98284836110f9565b5050919050565b6000806060610dde86610b71565b90506060815167ffffffffffffffff81118015610dfa57600080fd5b506040519080825280601f01601f191660200182016040528015610e25576020820181803683370190505b509050845b82518601811015610e7f576000878281518110610e4357fe5b602001015160f81c60f81b9050808388840381518110610e5f57fe5b60200101906001600160f81b031916908160001a90535050600101610e2a565b50806040516020018082805190602001908083835b60208310610eb35780518252601f199092019160209182019101610e94565b6001836020036101000a03801982511681845116808217855250505050505090500191505060405160208183030381529060405280519060200120826040516020018082805190602001908083835b60208310610f215780518252601f199092019160209182019101610f02565b6001836020036101000a038019825116818451168082178552505050505050905001915050604051602081830303815290604052805190602001201415610f6b5781519250610f70565b600092505b509095945050505050565b6000816020015160001415610f92575060006103cb565b50515160c060009190911a101590565b6000610fad82610f7b565b610fb9575060006103cb565b81518051600090811a9190610fcd8561121b565b6020860151908301915082016000190160005b818311610ffc57610ff083611299565b90920191600101610fe0565b9695505050505050565b61100e611340565b61101782610f7b565b61102057600080fd5b600061102b8361121b565b83519383529092016020820152919050565b6000611047611326565b50508051602080820151915192015191011190565b611064611326565b61106d8261103d565b15610093576020820151600061108282611299565b8284526020808501829052920191840191909152506103cb565b600060028306156110cd5760108260028504815181106110b857fe5b016020015160f81c816110c757fe5b066110ef565b60108260028504815181106110de57fe5b016020015160f81c816110ed57fe5b045b60f81b9392505050565b6020601f820104836020840160005b8381101561112457602081028381015190830152600101611108565b5050505060008251602001830152505050565b600061114282611187565b61114b57600080fd5b600080611157846111ad565b90925090506020811180611169575080155b1561117357600080fd5b806020036101000a82510492505050919050565b600081602001516000141561119e575060006103cb565b50515160c060009190911a1090565b6000806111b983611187565b6111c257600080fd5b8251805160001a9060808210156111df5780935060019250611214565b60b88210156111fd5760018560200151039250806001019350611214565b602085015182820160b51901945082900360b60192505b5050915091565b6000816020015160001415611232575060006103cb565b8151805160001a90608082101561124e576000925050506103cb565b60b8821080611269575060c08210158015611269575060f882105b15611279576001925050506103cb565b60c082101561128e575060b5190190506103cb565b5060f5190192915050565b8051600090811a60808110156112b25760019150610d43565b60b88110156112c757607e1981019150610d43565b60c08110156112f057600183015160b76020839003016101000a9004810160b519019150610d43565b60f88110156113055760be1981019150610d43565b6001929092015160f76020849003016101000a900490910160f51901919050565b604051806040016040528060008152602001600081525090565b6040518060400160405280611353611326565b815260200160008152509056fea2646970667358221220b086ed2385cf3ce1e101b0733e42f22b885237ee7cc85da85622d38c480fd1c764736f6c63430007010033",
  "immutableReferences": {},
  "source": "pragma solidity ^0.7.1;\n//SPDX-License-Identifier: UNLICENSED\n\nimport \"./Libraries/MerklePatriciaProof.sol\";\n\nimport \"./Libraries/BytesLib.sol\";\n\nimport \"./DataModels/DMTrustAnchor.sol\";\nimport \"./Interfaces/ITrustAnchorStorage.sol\";\nimport \"./Interfaces/ICuratedBinding.sol\";\n\n//@note: This is the basis of the trust anchor interfaces that allow for a wallet like Jaxx\n// to connect with a third party supplying merkle headers (the \"Curated Binding\").\n\n// There are a few race conditions to be aware of:\n\n// 1: Users may not have gas of the proper type to perform consent transactions.\n// Resolution:\n//    We get around this by utilizing the power of the network inflation to fund\n//    wallets that don't have enough gas, through the binding process.\n//\n// 2: Curated bindings owners within the architecture may not have (any) available gas to migrate\n//    their users to Shyft.\n// Resolution:\n//    We get around this by designing the nodes themselves to know if a given binding attestation has\n//    occurred, and if not we have funded this contract with gas from the Shyft Conduit specifically\n//    for the purpose of allowing a \"system pays\" mechanism to repay the nodes for the work surrounding\n//    the attestation.\n\n// Further thoughts:\n//    We may need to integrate both Cache Graph compilation and RMT distribution within the attestation\n//    pipleline, and thus require more gas.\n\ncontract TrustAnchor_Generic is DMTrustAnchor {\n\n    //@note: on the Shyft blockchain, this is funded by the Shyft inflation.\n    uint256 contractBalance;\n    uint256 minimumRequiredStake;\n\n    address owner = address(0);\n\n    // set up the base jurisdiction. Use the upper end of the addressable jurisdiction space\n    // (a 16 bit int) as the \"extended mode\"; 2^15 = 32768, + offset.\n    uint16 ta_jurisdiction = extendedJurisdiction + 1;\n\n\n    mapping (bytes32 => address) bindingKeccakToIdentifiedAddress;\n    mapping (bytes32 => address) userDataPrecommitIdentifiedAddress;\n    mapping (bytes32 => uint256) userDataPrecommitTimestamp;\n\n    //set up addresses to be linked after deployment.\n    address trustAnchorStorageAddress;\n    address curatedBindingAddress = address(0);\n    bytes32 availabilityAddressEncrypted = bytes32(0);\n\n    uint256 consentTransactionCost = 0;\n\n    // mutex lock, prevent recursion in functions that use external function calls\n    bool locked;\n\n    //@note:@todo:@next:@internalaudit: should this contract have \"Administrable\" style multisig involved for the setting\n    // of the contract relationships?\n\n    function isOwner() internal view returns (bool result) {\n        if (msg.sender == owner) {\n            //is owner\n            return true;\n        } else {\n            //not owner\n            return false;\n        }\n    }\n\n    /// @param _trustAnchorStorageAddress The smart contract address for the Trust Anchor Storage that should be linked.\n    /// @dev Links Trust Anchor Storage to this contract's function flow.\n    /// @return result\n    ///    | 0: not owner\n    ///    | 1: set trust anchor storage address\n\n    function setTrustAnchorStorageAddress(address _trustAnchorStorageAddress) public returns (uint8 result) {\n        if (isOwner()) {\n            require(_trustAnchorStorageAddress != address(0));\n\n            //@note:@todo:@next:@internalaudit: what happens to the existing attestations when we change these relationships?\n            // example: 1) should they all be revoked?\n            //  or 2) should all of their consent be revoked?\n            //  etc.\n            trustAnchorStorageAddress = _trustAnchorStorageAddress;\n\n            //set trustAnchorStorageAddress\n            return 1;\n        } else {\n            //not owner\n            return 0;\n        }\n    }\n\n    //returns:\n    // 0 = not owner\n    // 1 = set curatedBindingAddress\n\n    //@note:@todo:@next:@internalaudit: should this be able to be changed?\n\n    function setCuratedBindingAddress(address _curatedBindingAddress) public returns (uint8 result) {\n        if (isOwner()) {\n            require(_curatedBindingAddress != address(0));\n\n            curatedBindingAddress  = _curatedBindingAddress;\n\n            //set curatedBindingAddress\n            return 1;\n        } else {\n            //not owner\n            return 0;\n        }\n    }\n\n    function setConsentTransactionCost(uint256 _consentTransactionCost) public {\n        if (isOwner()) {\n            consentTransactionCost = _consentTransactionCost;\n        }\n    }\n\n    //setting the encrypted version of this address\n    function setAvailabilityAddressEncrypted(bytes32 _availabilityAddressEncrypted) public {\n        if (isOwner()) {\n            availabilityAddressEncrypted = _availabilityAddressEncrypted;\n        }\n    }\n\n    //@note: within the constructor, set the minimum stake required such that the Shyft Conduit can\n    // be able to know how much to replete for this contract if it's running low on gas to return to\n    // benevolent Shyft nodes that have helped with the onboarding.\n\n    constructor(uint256 _minimumRequiredStake) {\n        owner = msg.sender;\n\n        //flag that extended mode for jurisdiction is true.\n        extendedModeJurisdiction = true;\n\n        minimumRequiredStake = _minimumRequiredStake;\n    }\n\n\n\n    //@note:@todo:@next: convenience function required to do web3 check for binding not being processed.\n\n    //returns:\n    // 0 = proof does not exist.\n    // 1 = proof exists.\n\n    //@note: cheaper here to do an external since we're sending in bytes.\n    function getProofExists(bytes32 bindingKeccak) external view returns (uint8 result) {\n        if (bindingKeccakToIdentifiedAddress[bindingKeccak] != address(0)) {\n            //proof exists.\n            return 1;\n        } else {\n            //proof does not exist.\n            return 0;\n        }\n    }\n\n    //returns:\n    // 0 = required external interfaces not set up properly\n    // 1 = header doesn't match\n    // 2 = proof passes check\n\n    function getProofPassesExternal(bytes memory _value,\n                            bytes memory _encodedPath,\n                            bytes memory _rlpParentNodes,\n                            bytes32 _headerKeccak) public returns (uint8 result) {\n\n        if (trustAnchorStorageAddress != address(0) && curatedBindingAddress != address(0)) {\n            ICuratedBinding curatedBinding = ICuratedBinding(curatedBindingAddress);\n\n//            bytes32 bindingKeccak = keccak256(abi.encodePacked(_value, _headerKeccak));\n\n            bytes32 merkleHeader = curatedBinding.getMerkleRootFromHeader(_headerKeccak);\n\n            //@note:@todo:@next: build this out\n            // check the proof against the merkle header\n            if (checkProof(_value, _encodedPath, _rlpParentNodes, merkleHeader) == true) {\n                //proof passes check\n                return 2;\n            } else {\n                //header doesn't match\n                return 1;\n            }\n        } else {\n            //required external interfaces not set up properly\n            return 0;\n        }\n    }\n\n    //returns:\n    // 0 = required external interfaces not set up properly\n    // 1 = header doesn't match\n    // 2 = proof passes check\n\n    function getProofPassesInternal(bytes memory _value,\n                                    bytes memory _encodedPath,\n                                    bytes memory _rlpParentNodes,\n                                    bytes32 _headerKeccak) internal returns (uint8 result) {\n\n        if (trustAnchorStorageAddress != address(0) && curatedBindingAddress != address(0)) {\n            ICuratedBinding curatedBinding = ICuratedBinding(curatedBindingAddress);\n\n            //@note: don't involve the _identifiedAddress in the check, since a proof can only\n            // be bound once in any case.\n\n            //@note:@todo:@next: build this out\n//            bytes32 bindingKeccak = keccak256(abi.encodePacked(_value, _headerKeccak));\n\n            bytes32 merkleHeader = curatedBinding.getMerkleRootFromHeader(_headerKeccak);\n\n            // check the proof against the merkle header\n            if (checkProof(_value, _encodedPath, _rlpParentNodes, merkleHeader) == true) {\n                //proof passes check\n                return 2;\n            } else {\n                //invalid proof\n                return 1;\n            }\n        } else {\n            //required external interfaces not set up properly\n            return 0;\n        }\n    }\n\n    // @note: protection for the user is paramount to avoid relayer spoofing.\n    // issue:\n    // _identifiedAddress can be spoofed by the relayer being aware of the merkle tree proof, since the data\n    // can be can be signed by whatever prover sends the message forth.\n    //\n    // solution:\n    //\n    //@note: don't involve the _identifiedAddress in the check, since a proof can only\n    // be bound once in any case.\n\n    //@note: this function is required for a multiple pass authentication for the node. The user only sends part of\n    // their total onboarding data to make sure that the relayer is not spoofing their transaction (achieved via\n    // temporal lock-out of bad actor behaviour paths)\n\n    function commitForUser(address payable _identifiedAddress,\n                            bytes32 _signedDataKeccak,\n                            uint8 _userDataSignatureV,\n                            bytes32[2] memory _userDataSignatureRS\n                            ) public returns (uint8 result) {\n        bytes memory prefix = \"\\x19Ethereum Signed Message:\\n32\";\n        bytes32 prefixedUserDataHash = keccak256(abi.encodePacked(prefix, _signedDataKeccak));\n\n        if (ecrecover(prefixedUserDataHash, _userDataSignatureV, _userDataSignatureRS[0], _userDataSignatureRS[1]) == _identifiedAddress) {\n            userDataPrecommitIdentifiedAddress[_signedDataKeccak] = _identifiedAddress;\n            userDataPrecommitTimestamp[_signedDataKeccak] = block.timestamp;\n\n            //user data properly committed\n            return 1;\n        } else {\n            //invalid signature\n\n            return 0;\n        }\n    }\n\n    function getPrecommitIdentifiedAddressForSignedDataKeccak(bytes32 _signedDataKeccak) public view returns (address identifiedAddress) {\n        return userDataPrecommitIdentifiedAddress[_signedDataKeccak];\n    }\n\n    //@note: This function attests on a user's behalf. It is gas-neutral, with a return of gas to\n    // the caller.\n\n    //@note:@todo: check for gas?\n\n    //returns:\n    // 0 = required external interfaces not set up properly\n    // 1 = proof doesn't pass check\n    // 2 = address has already been bound to this binding keccak\n    // 3 = properly set attestation, bound to address\n\n//    function proveForIdentifiedAddress( bytes32 _signedDataKeccak,\n//                                        bytes32 _externalUserId,\n//                                        bytes memory _documentsMatrixEncrypted,\n//                                        address _externalTrustAnchorAddress,\n//                                        uint8 _externalTrustAnchorSignatureV,\n//                                        bytes32[2] memory _externalTrustAnchorSignatureRS,\n//                                        bytes memory _leafNodeValue,\n//                                        bytes memory _encodedPath,\n//                                        bytes memory _rlpParentNodes,\n//                                        bytes32 _headerKeccak) public returns (uint8 result) {\n//        //@note:@todo:@here:@test: build out test to make sure that this temporal lock function works...\n//\n////        if (trustAnchorStorageAddress != address(0)) {\n////            if (getProofPassesInternal(_leafNodeValue, _encodedPath, _rlpParentNodes, _headerKeccak) == 2) {\n////                ITrustAnchorStorage trustAnchorStorage = ITrustAnchorStorage(trustAnchorStorageAddress);\n////                //@note:@todo:@next: build this out\n//////                ICuratedBinding curatedBinding = ICuratedBinding(curatedBindingAddress);\n////\n////\n////                // make sure the signed data keccak is valid, while *crucially* waiting for a safe block time, in this case\n////                // ~15 seconds per block with a 16 block safe time.\n////                // this is required since all of the available data in this function can be used to build a new signed data\n////                // keccak corresponding to this proof, and the actual user's signature (from precommit above) should\n////                // be the only one able to make it through this function within the time alloted.\n////\n////                address _identifiedAddress = userDataPrecommitIdentifiedAddress[_signedDataKeccak];\n////\n////                if (_identifiedAddress != address(0) &&\n////                    block.timestamp >= userDataPrecommitTimestamp[_signedDataKeccak] + (60 * 4)) {\n////\n////                    // make sure the _signedDataKeccak corresponds to the new data provided, the leaf is the critical, and\n////                    // then a few more data pieces to avoid situations where the leaf can be guessed\n////                    if (_signedDataKeccak == keccak256(abi.encodePacked(_leafNodeValue, _externalTrustAnchorSignatureRS[0], _externalTrustAnchorSignatureRS[1], _identifiedAddress))) {\n////\n////                    } else {\n////                        //signed data not valid\n////                        return 4;\n////                    }\n////                } else {\n////                    //precommit not valid\n////                    return 3;\n////                }\n////\n////                //*******\n////                //@note:@todo:@next:@research: what if the _value was actually a signature(userHash + documentsMatrixEncrypted)\n////                // by the TA? assuming a known key for the encryption, then the documents matrix cannot be unhashed and\n////                // the _value is absolutely coming from the TA.\n////                //*******\n////                bytes32 attributionHash = keccak256(abi.encodePacked(_externalUserId, _documentsMatrixEncrypted));\n////\n////                bytes memory prefix = \"\\x19Ethereum Signed Message:\\n32\";\n////                bytes32 prefixedAttributionHash = keccak256(abi.encodePacked(prefix, attributionHash));\n////\n////                // perform an ecrecover operation to get the public address of the signer, to append to the public metadata\n////                if (ecrecover(prefixedAttributionHash, _externalTrustAnchorSignatureV, _externalTrustAnchorSignatureRS[0], _externalTrustAnchorSignatureRS[1]) == _externalTrustAnchorAddress) {\n//////                    if (ecrecover(prefixedUserHash, _)\n////                    //@todo:@next:@here:\n////\n////                } else {\n////                    //incorrect attribution signature\n////                    return 3;\n////                }\n////\n////                bytes32 bindingKeccak = keccak256(abi.encodePacked(_leafNodeValue, _headerKeccak));\n////\n////                // make sure this proof can only be bound once.\n////                if (bindingKeccakToIdentifiedAddress[bindingKeccak] == address(0)) {\n////                    // get the merkle header, and the channel form from the curated binding contract.\n////\n////                    //@note:@todo:@next: build this out\n//////                    bytes32 merkleHeader = curatedBinding.getMerkleRootFromHeader(_headerKeccak);\n//////                    uint256 channelForm = curatedBinding.getChannelFormFromHeader(_headerKeccak);\n////\n////                    bytes memory publicData = BytesLib.fromAddress(_externalTrustAnchorAddress);\n////                    bytes memory documentsMatrixEncrypted = hex\"ff\";\n////                    bytes32 attestationAvailabilityAddressEncrypted = availabilityAddressEncrypted;\n////\n////                    // sets the attestation as coming from this source\n////                    trustAnchorStorage.setAttestation(  _identifiedAddress,\n////                                                        ta_jurisdiction,\n////                                                        0,\n////                                                        (2**64 - 1),\n////                                                        publicData,\n////                                                        documentsMatrixEncrypted,\n////                                                        attestationAvailabilityAddressEncrypted,\n////                                                        false);\n////                    //@note:@here:@todo:make sure to sign off\n////\n////                    bindingKeccakToIdentifiedAddress[bindingKeccak] = msg.sender;\n////\n////                    //@note:@here:@internalaudit: confirm this is safe for re-entry given that the bindingKeccakToIdentifiedAddress is\n////                    // set just above, and checked preceding that.\n////                    addGasToIdentifiedAddressIfNecessary(address(uint160(_identifiedAddress)));\n////\n////                    //properly set attestation, bound to address\n////                    return 3;\n////                } else {\n////                    //address has already been bound to this binding keccak\n////                    return 2;\n////                }\n////            } else {\n////                //proof doesn't pass check\n////                return 1;\n////            }\n////        } else {\n//            //required external interfaces not set up properly\n//            return 0;\n////        }\n//    }\n\n//    // @dev: Returns the number of signatures that meet the threshold.\n//    //\n//    // @param _root, _root that is being added\n//    // @param _chainId, the chain from which the _root comes from\n//    // @param _start, the beginning block header number from which the root starts from\n//    // @param _end, the last block header number from which the roots ends\n//    // @param _sig, byte array of signatures to check\n//    function checkSignature(bytes32 _root, address _chainId, uint256 _start, uint256 _end, bytes memory _sig)\n//    public view returns (uint) {\n//        require(_sig.length == 65);\n//\n//        bytes memory prefix = \"\\x19Ethereum Signed Message:\\n32\";\n//\n//        bytes32 h = keccak256(abi.encodePacked(_root,_chainId,_start,_end));\n//\n//        bytes32 r;\n//        bytes32 s;\n//        uint8 v;\n//\n//        uint sigs;\n//\n//        for(uint i = 0; i < _sig.length; i += 65) {\n//            assembly {\n//                r := mload(add(_sig, add(32, i)))\n//                s := mload(add(_sig, add(64, i)))\n//                v := byte(0, mload(add( _sig, add(96, i) ) ) )\n//            }\n//\n//            //emit Sig(r,s,v);\n//            address relayerAddrTmp = ecrecover(keccak256(abi.encodePacked(prefix,h)),v,r,s);\n//            if(isInRelayerSet(relayerAddrTmp)) {\n//                sigs++;\n//            }\n//        }\n//\n//        return sigs;\n//    }\n\n    modifier mutex() {\n        if (locked) revert();\n        locked = true;\n        _;\n        locked = false;\n    }\n\n    //@note:@here:@critical:@internalaudit: could someone game the system and withdraw the 3x consent gas,\n    // then immediately onboard again, and so on? Maybe it's fine to do so, since each onboarding would\n    // require a consent message to be sent anyhow.\n\n    //returns:\n    // false = no need to add gas\n    // true = added gas\n\n    function addGasToIdentifiedAddressIfNecessary(address payable _identifiedAddress) mutex internal returns (bool ok) {\n        uint256 consentAllowance = consentTransactionCost * 3;\n\n        // skip function if consentTransactionCost is set to zero.\n        if (consentTransactionCost == 0 || _identifiedAddress.balance < consentAllowance) {\n            uint256 gasRequired = consentAllowance - _identifiedAddress.balance;\n\n            _identifiedAddress.transfer(gasRequired);\n\n            //added gas\n            ok = true;\n        } else {\n            //no need to add gas\n        }\n    }\n\n\n    //@note:@todo:@next: fill out these stubs.\n    //@note: this function is able to be called publicly given the distributed\n    //\n\n    function revokeProof() public pure returns (uint8 result) {\n        return 0;\n    }\n\n    //returns:\n    // false = invalid proof\n    // true = valid proof\n\n    function checkProof(bytes memory _value, bytes memory _encodedPath, bytes memory _rlpParentNodes, bytes32 _root) internal pure returns (bool success) {\n        if (MerklePatriciaProof.verify(_value, _encodedPath, _rlpParentNodes, _root) == true) {\n            //valid proof\n            return true;\n        } else {\n            //invalid proof\n            return false;\n        }\n    }\n}\n",
  "sourcePath": "/opt/shyft-ta-node/contracts/TrustAnchor_Generic.sol",
  "compiler": {
    "name": "solc",
    "version": "0.7.1+commit.f4a555be.Emscripten.clang"
  },
  "schemaVersion": "3.3.4",
  "updatedAt": "2021-09-16T18:31:16.107Z",
  "devdoc": {
    "kind": "dev",
    "methods": {
      "setTrustAnchorStorageAddress(address)": {
        "details": "Links Trust Anchor Storage to this contract's function flow.",
        "params": {
          "_trustAnchorStorageAddress": "The smart contract address for the Trust Anchor Storage that should be linked."
        },
        "returns": {
          "result": "   | 0: not owner    | 1: set trust anchor storage address"
        }
      }
    },
    "version": 1
  },
  "userdoc": {
    "kind": "user",
    "methods": {},
    "version": 1
  }
}