{
  "contractName": "TrustAnchorExtraData_Unique",
  "abi": [
    {
      "inputs": [],
      "stateMutability": "nonpayable",
      "type": "constructor"
    },
    {
      "anonymous": false,
      "inputs": [
        {
          "indexed": true,
          "internalType": "address",
          "name": "_trustAnchorAddress",
          "type": "address"
        },
        {
          "indexed": false,
          "internalType": "string",
          "name": "_endpointName",
          "type": "string"
        },
        {
          "indexed": false,
          "internalType": "uint8[4]",
          "name": "_ipv4Address",
          "type": "uint8[4]"
        }
      ],
      "name": "EVT_setTrustAnchorEndPointCreated",
      "type": "event"
    },
    {
      "anonymous": false,
      "inputs": [
        {
          "indexed": true,
          "internalType": "address",
          "name": "_trustAnchorAddress",
          "type": "address"
        },
        {
          "indexed": false,
          "internalType": "string",
          "name": "_endpointName",
          "type": "string"
        },
        {
          "indexed": false,
          "internalType": "uint8[4]",
          "name": "_ipv4Address",
          "type": "uint8[4]"
        }
      ],
      "name": "EVT_setTrustAnchorEndPointUpdated",
      "type": "event"
    },
    {
      "anonymous": false,
      "inputs": [
        {
          "indexed": true,
          "internalType": "address",
          "name": "_trustAnchorAddress",
          "type": "address"
        },
        {
          "indexed": false,
          "internalType": "string",
          "name": "_endpointName",
          "type": "string"
        },
        {
          "indexed": false,
          "internalType": "bool",
          "name": "_isEnabled",
          "type": "bool"
        }
      ],
      "name": "EVT_setTrustAnchorEndpointIsEnabled",
      "type": "event"
    },
    {
      "anonymous": false,
      "inputs": [
        {
          "indexed": true,
          "internalType": "address",
          "name": "_trustAnchorAddress",
          "type": "address"
        },
        {
          "indexed": false,
          "internalType": "string",
          "name": "_hashMappingName",
          "type": "string"
        },
        {
          "indexed": false,
          "internalType": "bytes32",
          "name": "_hashMappingValue",
          "type": "bytes32"
        }
      ],
      "name": "EVT_setTrustAnchorHashMappingCreated",
      "type": "event"
    },
    {
      "anonymous": false,
      "inputs": [
        {
          "indexed": true,
          "internalType": "address",
          "name": "_trustAnchorAddress",
          "type": "address"
        },
        {
          "indexed": false,
          "internalType": "string",
          "name": "_hashMappingName",
          "type": "string"
        },
        {
          "indexed": false,
          "internalType": "bytes32",
          "name": "_hashMappingValue",
          "type": "bytes32"
        }
      ],
      "name": "EVT_setTrustAnchorHashMappingUpdated",
      "type": "event"
    },
    {
      "anonymous": false,
      "inputs": [
        {
          "indexed": true,
          "internalType": "address",
          "name": "_trustAnchorAddress",
          "type": "address"
        },
        {
          "indexed": false,
          "internalType": "string",
          "name": "_keyValuePairName",
          "type": "string"
        },
        {
          "indexed": false,
          "internalType": "string",
          "name": "_keyValuePairValue",
          "type": "string"
        }
      ],
      "name": "EVT_setTrustAnchorKeyValuePairCreated",
      "type": "event"
    },
    {
      "anonymous": false,
      "inputs": [
        {
          "indexed": true,
          "internalType": "address",
          "name": "_trustAnchorAddress",
          "type": "address"
        },
        {
          "indexed": false,
          "internalType": "string",
          "name": "_keyValuePairName",
          "type": "string"
        },
        {
          "indexed": false,
          "internalType": "string",
          "name": "_keyValuePairValue",
          "type": "string"
        }
      ],
      "name": "EVT_setTrustAnchorKeyValuePairUpdated",
      "type": "event"
    },
    {
      "anonymous": false,
      "inputs": [
        {
          "indexed": true,
          "internalType": "address",
          "name": "_trustAnchorAddress",
          "type": "address"
        },
        {
          "indexed": false,
          "internalType": "string",
          "name": "_numericIdentifierName",
          "type": "string"
        },
        {
          "indexed": false,
          "internalType": "uint256",
          "name": "_numericIdentifierValue",
          "type": "uint256"
        }
      ],
      "name": "EVT_setTrustAnchorNumericIdentifierCreated",
      "type": "event"
    },
    {
      "anonymous": false,
      "inputs": [
        {
          "indexed": true,
          "internalType": "address",
          "name": "_trustAnchorAddress",
          "type": "address"
        },
        {
          "indexed": false,
          "internalType": "string",
          "name": "_numericIdentifierName",
          "type": "string"
        },
        {
          "indexed": false,
          "internalType": "uint256",
          "name": "_numericIdentifierValue",
          "type": "uint256"
        }
      ],
      "name": "EVT_setTrustAnchorNumericIdentifierUpdated",
      "type": "event"
    },
    {
      "anonymous": false,
      "inputs": [
        {
          "indexed": true,
          "internalType": "address",
          "name": "_trustAnchorAddress",
          "type": "address"
        },
        {
          "indexed": false,
          "internalType": "string",
          "name": "_metaData",
          "type": "string"
        }
      ],
      "name": "EVT_setTrustAnchorPublicMetaData",
      "type": "event"
    },
    {
      "inputs": [
        {
          "internalType": "address",
          "name": "_trustAnchorManagerAddress",
          "type": "address"
        }
      ],
      "name": "setTrustAnchorManagerAddress",
      "outputs": [
        {
          "internalType": "bool",
          "name": "result",
          "type": "bool"
        }
      ],
      "stateMutability": "nonpayable",
      "type": "function"
    },
    {
      "inputs": [],
      "name": "getTrustAnchorManagerAddress",
      "outputs": [
        {
          "internalType": "address",
          "name": "result",
          "type": "address"
        }
      ],
      "stateMutability": "view",
      "type": "function",
      "constant": true
    },
    {
      "inputs": [
        {
          "internalType": "address",
          "name": "_trustAnchorAddress",
          "type": "address"
        }
      ],
      "name": "doesTrustAnchorHaveUniqueExtraData",
      "outputs": [
        {
          "internalType": "bool",
          "name": "result",
          "type": "bool"
        }
      ],
      "stateMutability": "view",
      "type": "function",
      "constant": true
    },
    {
      "inputs": [
        {
          "internalType": "string",
          "name": "_endpointName",
          "type": "string"
        },
        {
          "internalType": "uint8[4]",
          "name": "_ipv4Address",
          "type": "uint8[4]"
        }
      ],
      "name": "setTrustAnchorDataRetrievalEndpoint",
      "outputs": [
        {
          "internalType": "uint8",
          "name": "result",
          "type": "uint8"
        }
      ],
      "stateMutability": "nonpayable",
      "type": "function"
    },
    {
      "inputs": [
        {
          "internalType": "string",
          "name": "_endpointName",
          "type": "string"
        },
        {
          "internalType": "bool",
          "name": "_isEnabled",
          "type": "bool"
        }
      ],
      "name": "setTrustAnchorDataRetrievalEndpointIsEnabled",
      "outputs": [
        {
          "internalType": "uint8",
          "name": "result",
          "type": "uint8"
        }
      ],
      "stateMutability": "nonpayable",
      "type": "function"
    },
    {
      "inputs": [
        {
          "internalType": "address",
          "name": "_trustAnchorAddress",
          "type": "address"
        }
      ],
      "name": "getTrustAnchorNumberOfEndpoints",
      "outputs": [
        {
          "internalType": "uint256",
          "name": "result",
          "type": "uint256"
        }
      ],
      "stateMutability": "view",
      "type": "function",
      "constant": true
    },
    {
      "inputs": [
        {
          "internalType": "address",
          "name": "_trustAnchorAddress",
          "type": "address"
        },
        {
          "internalType": "uint256",
          "name": "_index",
          "type": "uint256"
        }
      ],
      "name": "getTrustAnchorEndpointNameByIndex",
      "outputs": [
        {
          "internalType": "bool",
          "name": "doesExist",
          "type": "bool"
        },
        {
          "internalType": "string",
          "name": "endpointName",
          "type": "string"
        }
      ],
      "stateMutability": "view",
      "type": "function",
      "constant": true
    },
    {
      "inputs": [
        {
          "internalType": "address",
          "name": "_trustAnchorAddress",
          "type": "address"
        },
        {
          "internalType": "string",
          "name": "_endpointName",
          "type": "string"
        }
      ],
      "name": "getTrustAnchorDataEndpoint",
      "outputs": [
        {
          "internalType": "bool",
          "name": "doesExist",
          "type": "bool"
        },
        {
          "internalType": "uint8[4]",
          "name": "ipv4Address",
          "type": "uint8[4]"
        },
        {
          "internalType": "bool",
          "name": "isEnabled",
          "type": "bool"
        }
      ],
      "stateMutability": "view",
      "type": "function",
      "constant": true
    },
    {
      "inputs": [
        {
          "internalType": "address",
          "name": "_trustAnchorAddress",
          "type": "address"
        },
        {
          "internalType": "bytes32",
          "name": "_endpointKeccak",
          "type": "bytes32"
        }
      ],
      "name": "getTrustAnchorEndpointNameByEndpointKeccak",
      "outputs": [
        {
          "internalType": "string",
          "name": "endpointName",
          "type": "string"
        }
      ],
      "stateMutability": "view",
      "type": "function",
      "constant": true
    },
    {
      "inputs": [
        {
          "internalType": "string",
          "name": "_hashName",
          "type": "string"
        },
        {
          "internalType": "bytes32",
          "name": "_hashValue",
          "type": "bytes32"
        }
      ],
      "name": "setTrustAnchorHashMapping",
      "outputs": [
        {
          "internalType": "uint8",
          "name": "result",
          "type": "uint8"
        }
      ],
      "stateMutability": "nonpayable",
      "type": "function"
    },
    {
      "inputs": [
        {
          "internalType": "address",
          "name": "_trustAnchorAddress",
          "type": "address"
        }
      ],
      "name": "getTrustAnchorNumberOfHashMappings",
      "outputs": [
        {
          "internalType": "uint256",
          "name": "result",
          "type": "uint256"
        }
      ],
      "stateMutability": "view",
      "type": "function",
      "constant": true
    },
    {
      "inputs": [
        {
          "internalType": "address",
          "name": "_trustAnchorAddress",
          "type": "address"
        },
        {
          "internalType": "uint256",
          "name": "_index",
          "type": "uint256"
        }
      ],
      "name": "getTrustAnchorHashMappingNameByIndex",
      "outputs": [
        {
          "internalType": "bool",
          "name": "doesExist",
          "type": "bool"
        },
        {
          "internalType": "string",
          "name": "hashMappingName",
          "type": "string"
        }
      ],
      "stateMutability": "view",
      "type": "function",
      "constant": true
    },
    {
      "inputs": [
        {
          "internalType": "address",
          "name": "_trustAnchorAddress",
          "type": "address"
        },
        {
          "internalType": "string",
          "name": "_hashMappingName",
          "type": "string"
        }
      ],
      "name": "getTrustAnchorHashMappingValue",
      "outputs": [
        {
          "internalType": "bool",
          "name": "doesExist",
          "type": "bool"
        },
        {
          "internalType": "bytes32",
          "name": "hashValue",
          "type": "bytes32"
        }
      ],
      "stateMutability": "view",
      "type": "function",
      "constant": true
    },
    {
      "inputs": [
        {
          "internalType": "address",
          "name": "_trustAnchorAddress",
          "type": "address"
        },
        {
          "internalType": "bytes32",
          "name": "_hashMappingKeccak",
          "type": "bytes32"
        }
      ],
      "name": "getTrustAnchorHashMappingNameByHashMappingKeccak",
      "outputs": [
        {
          "internalType": "string",
          "name": "hashMappingName",
          "type": "string"
        }
      ],
      "stateMutability": "view",
      "type": "function",
      "constant": true
    },
    {
      "inputs": [
        {
          "internalType": "string",
          "name": "_numericIdentifierName",
          "type": "string"
        },
        {
          "internalType": "uint256",
          "name": "_numericIdentifierValue",
          "type": "uint256"
        }
      ],
      "name": "setTrustAnchorNumericIdentifier",
      "outputs": [
        {
          "internalType": "uint8",
          "name": "result",
          "type": "uint8"
        }
      ],
      "stateMutability": "nonpayable",
      "type": "function"
    },
    {
      "inputs": [
        {
          "internalType": "address",
          "name": "_trustAnchorAddress",
          "type": "address"
        }
      ],
      "name": "getTrustAnchorNumberOfNumericIdentifiers",
      "outputs": [
        {
          "internalType": "uint256",
          "name": "result",
          "type": "uint256"
        }
      ],
      "stateMutability": "view",
      "type": "function",
      "constant": true
    },
    {
      "inputs": [
        {
          "internalType": "address",
          "name": "_trustAnchorAddress",
          "type": "address"
        },
        {
          "internalType": "uint256",
          "name": "_index",
          "type": "uint256"
        }
      ],
      "name": "getTrustAnchorNumericIdentifierNameByIndex",
      "outputs": [
        {
          "internalType": "bool",
          "name": "doesExist",
          "type": "bool"
        },
        {
          "internalType": "string",
          "name": "numericIdentifierName",
          "type": "string"
        }
      ],
      "stateMutability": "view",
      "type": "function",
      "constant": true
    },
    {
      "inputs": [
        {
          "internalType": "address",
          "name": "_trustAnchorAddress",
          "type": "address"
        },
        {
          "internalType": "string",
          "name": "_numericIdentifierName",
          "type": "string"
        }
      ],
      "name": "getTrustAnchorNumericIdentifierValue",
      "outputs": [
        {
          "internalType": "bool",
          "name": "doesExist",
          "type": "bool"
        },
        {
          "internalType": "uint256",
          "name": "numericIdentifierValue",
          "type": "uint256"
        }
      ],
      "stateMutability": "view",
      "type": "function",
      "constant": true
    },
    {
      "inputs": [
        {
          "internalType": "address",
          "name": "_trustAnchorAddress",
          "type": "address"
        },
        {
          "internalType": "bytes32",
          "name": "_numericIdentifierKeccak",
          "type": "bytes32"
        }
      ],
      "name": "getTrustAnchorNumericIdentifierNameByNumericIdentifierKeccak",
      "outputs": [
        {
          "internalType": "string",
          "name": "numericIdentifierName",
          "type": "string"
        }
      ],
      "stateMutability": "view",
      "type": "function",
      "constant": true
    },
    {
      "inputs": [
        {
          "internalType": "string",
          "name": "_keyValuePairName",
          "type": "string"
        },
        {
          "internalType": "string",
          "name": "_keyValuePairValue",
          "type": "string"
        }
      ],
      "name": "setTrustAnchorKeyValuePair",
      "outputs": [
        {
          "internalType": "uint8",
          "name": "result",
          "type": "uint8"
        }
      ],
      "stateMutability": "nonpayable",
      "type": "function"
    },
    {
      "inputs": [
        {
          "internalType": "address",
          "name": "_trustAnchorAddress",
          "type": "address"
        }
      ],
      "name": "getTrustAnchorNumberOfKeyValuePairs",
      "outputs": [
        {
          "internalType": "uint256",
          "name": "result",
          "type": "uint256"
        }
      ],
      "stateMutability": "view",
      "type": "function",
      "constant": true
    },
    {
      "inputs": [
        {
          "internalType": "address",
          "name": "_trustAnchorAddress",
          "type": "address"
        },
        {
          "internalType": "uint256",
          "name": "_index",
          "type": "uint256"
        }
      ],
      "name": "getTrustAnchorKeyValuePairNameByIndex",
      "outputs": [
        {
          "internalType": "bool",
          "name": "doesExist",
          "type": "bool"
        },
        {
          "internalType": "string",
          "name": "keyValuePairName",
          "type": "string"
        }
      ],
      "stateMutability": "view",
      "type": "function",
      "constant": true
    },
    {
      "inputs": [
        {
          "internalType": "address",
          "name": "_trustAnchorAddress",
          "type": "address"
        },
        {
          "internalType": "string",
          "name": "_keyValuePairName",
          "type": "string"
        }
      ],
      "name": "getTrustAnchorKeyValuePairValue",
      "outputs": [
        {
          "internalType": "bool",
          "name": "doesExist",
          "type": "bool"
        },
        {
          "internalType": "string",
          "name": "keyValuePairValue",
          "type": "string"
        }
      ],
      "stateMutability": "view",
      "type": "function",
      "constant": true
    },
    {
      "inputs": [
        {
          "internalType": "address",
          "name": "_trustAnchorAddress",
          "type": "address"
        },
        {
          "internalType": "bytes32",
          "name": "_keyValuePairKeccak",
          "type": "bytes32"
        }
      ],
      "name": "getTrustAnchorKeyValuePairNameByKeyValuePairKeccak",
      "outputs": [
        {
          "internalType": "string",
          "name": "keyValuePairName",
          "type": "string"
        }
      ],
      "stateMutability": "view",
      "type": "function",
      "constant": true
    },
    {
      "inputs": [
        {
          "internalType": "string",
          "name": "_publicMetaData",
          "type": "string"
        }
      ],
      "name": "setTrustAnchorPublicMetaData",
      "outputs": [
        {
          "internalType": "uint8",
          "name": "result",
          "type": "uint8"
        }
      ],
      "stateMutability": "nonpayable",
      "type": "function"
    },
    {
      "inputs": [
        {
          "internalType": "address",
          "name": "_trustAnchorAddress",
          "type": "address"
        }
      ],
      "name": "getTrustAnchorPublicMetaData",
      "outputs": [
        {
          "internalType": "string",
          "name": "publicMetaData",
          "type": "string"
        }
      ],
      "stateMutability": "view",
      "type": "function",
      "constant": true
    }
  ],
  "bytecode": "0x6080604052600180546001600160a01b031990811690915560028054909116905534801561002c57600080fd5b50600180546001600160a01b031916331790556128968061004e6000396000f3fe608060405234801561001057600080fd5b506004361061018e5760003560e01c806386c38f3d116100de578063b7eda8f611610097578063d534d02711610071578063d534d02714610be5578063da73a2cb14610c0b578063e14512bb14610cbf578063ea65dfd414610ceb5761018e565b8063b7eda8f614610ac6578063b82d224914610af2578063bd36590c14610bc15761018e565b806386c38f3d146107fa57806392b7e300146108f8578063ab3b918014610924578063acf58f83146109ca578063ad9f9d5c14610a6e578063b10ce9fc14610a9a5761018e565b8063243c64fa1161014b578063384ffe6e11610125578063384ffe6e146107565780634396a51c1461077c578063467403df146107a85780635718f02a146107ce5761018e565b8063243c64fa146106505780632b057c06146106f657806336f537d41461071c5761018e565b80630b9f116f146101935780630ced07e2146102c85780631aa043311461038457806320bbdd4c146104ad578063213f84bf146105485780632326d76c14610618575b600080fd5b610247600480360360408110156101a957600080fd5b6001600160a01b038235169190810190604081016020820135600160201b8111156101d357600080fd5b8201836020820111156101e557600080fd5b803590602001918460018302840111600160201b8311171561020657600080fd5b91908080601f016020809104026020016040519081016040528093929190818152602001838380828437600092019190915250929550610d17945050505050565b60405180831515815260200180602001828103825283818151815260200191508051906020019080838360005b8381101561028c578181015183820152602001610274565b50505050905090810190601f1680156102b95780820380516001836020036101000a031916815260200191505b50935050505060405180910390f35b61036e600480360360408110156102de57600080fd5b810190602081018135600160201b8111156102f857600080fd5b82018360208201111561030a57600080fd5b803590602001918460018302840111600160201b8311171561032b57600080fd5b91908080601f0160208091040260200160405190810160405280939291908181526020018383808284376000920191909152509295505091359250610e7f915050565b6040805160ff9092168252519081900360200190f35b61036e6004803603604081101561039a57600080fd5b810190602081018135600160201b8111156103b457600080fd5b8201836020820111156103c657600080fd5b803590602001918460018302840111600160201b831117156103e757600080fd5b91908080601f0160208091040260200160405190810160405280939291908181526020018383808284376000920191909152509295949360208101935035915050600160201b81111561043957600080fd5b82018360208201111561044b57600080fd5b803590602001918460018302840111600160201b8311171561046c57600080fd5b91908080601f01602080910402602001604051908101604052809392919081815260200183838082843760009201919091525092955061116f945050505050565b6104d3600480360360208110156104c357600080fd5b50356001600160a01b031661151e565b6040805160208082528351818301528351919283929083019185019080838360005b8381101561050d5781810151838201526020016104f5565b50505050905090810190601f16801561053a5780820380516001836020036101000a031916815260200191505b509250505060405180910390f35b61036e600480360360a081101561055e57600080fd5b810190602081018135600160201b81111561057857600080fd5b82018360208201111561058a57600080fd5b803590602001918460018302840111600160201b831117156105ab57600080fd5b91908080601f0160208091040260200160405190810160405280939291908181526020018383808284376000920191909152505060408051608081810190925293969594818101949350915060049083908390808284376000920191909152509194506115cb9350505050565b61063e6004803603602081101561062e57600080fd5b50356001600160a01b03166118ce565b60408051918252519081900360200190f35b61036e6004803603604081101561066657600080fd5b810190602081018135600160201b81111561068057600080fd5b82018360208201111561069257600080fd5b803590602001918460018302840111600160201b831117156106b357600080fd5b91908080601f01602080910402602001604051908101604052809392919081815260200183838082843760009201919091525092955050505035151590506118ec565b61063e6004803603602081101561070c57600080fd5b50356001600160a01b0316611a8f565b6107426004803603602081101561073257600080fd5b50356001600160a01b0316611aad565b604080519115158252519081900360200190f35b61063e6004803603602081101561076c57600080fd5b50356001600160a01b0316611ae6565b6102476004803603604081101561079257600080fd5b506001600160a01b038135169060200135611b04565b61063e600480360360208110156107be57600080fd5b50356001600160a01b0316611bf5565b6104d3600480360360408110156107e457600080fd5b506001600160a01b038135169060200135611c13565b6108ae6004803603604081101561081057600080fd5b6001600160a01b038235169190810190604081016020820135600160201b81111561083a57600080fd5b82018360208201111561084c57600080fd5b803590602001918460018302840111600160201b8311171561086d57600080fd5b91908080601f016020809104026020016040519081016040528093929190818152602001838380828437600092019190915250929550611ccb945050505050565b60405183151581526020810183608080838360005b838110156108db5781810151838201526020016108c3565b505050509050018215158152602001935050505060405180910390f35b6102476004803603604081101561090e57600080fd5b506001600160a01b038135169060200135611e27565b61036e6004803603604081101561093a57600080fd5b810190602081018135600160201b81111561095457600080fd5b82018360208201111561096657600080fd5b803590602001918460018302840111600160201b8311171561098757600080fd5b91908080601f0160208091040260200160405190810160405280939291908181526020018383808284376000920191909152509295505091359250611f02915050565b61036e600480360360208110156109e057600080fd5b810190602081018135600160201b8111156109fa57600080fd5b820183602082011115610a0c57600080fd5b803590602001918460018302840111600160201b83111715610a2d57600080fd5b91908080601f016020809104026020016040519081016040528093929190818152602001838380828437600092019190915250929550612153945050505050565b6104d360048036036040811015610a8457600080fd5b506001600160a01b0381351690602001356122a4565b6104d360048036036040811015610ab057600080fd5b506001600160a01b038135169060200135612321565b61024760048036036040811015610adc57600080fd5b506001600160a01b03813516906020013561239b565b610ba660048036036040811015610b0857600080fd5b6001600160a01b038235169190810190604081016020820135600160201b811115610b3257600080fd5b820183602082011115610b4457600080fd5b803590602001918460018302840111600160201b83111715610b6557600080fd5b91908080601f016020809104026020016040519081016040528093929190818152602001838380828437600092019190915250929550612474945050505050565b60408051921515835260208301919091528051918290030190f35b610bc9612544565b604080516001600160a01b039092168252519081900360200190f35b61074260048036036020811015610bfb57600080fd5b50356001600160a01b0316612553565b610ba660048036036040811015610c2157600080fd5b6001600160a01b038235169190810190604081016020820135600160201b811115610c4b57600080fd5b820183602082011115610c5d57600080fd5b803590602001918460018302840111600160201b83111715610c7e57600080fd5b91908080601f01602080910402602001604051908101604052809392919081815260200183838082843760009201919091525092955061258d945050505050565b61024760048036036040811015610cd557600080fd5b506001600160a01b03813516906020013561265a565b6104d360048036036040811015610d0157600080fd5b506001600160a01b038135169060200135612730565b600060606000836040516020018082805190602001908083835b60208310610d505780518252601f199092019160209182019101610d31565b51815160209384036101000a60001901801990921691161790526040805192909401828103601f1901835284528151918101919091206001600160a01b038b1660009081528083528481208282526003019092529290206002810154929550935050600160ff909116151514159050610e5f5760018181018054604080516020601f6002600019610100878a1615020190951694909404938401819004810282018101909252828152918391830182828015610e4d5780601f10610e2257610100808354040283529160200191610e4d565b820191906000526020600020905b815481529060010190602001808311610e3057829003601f168201915b50505050509050935093505050610e78565b6000604051806020016040528060008152509350935050505b9250929050565b600080836040516020018082805190602001908083835b60208310610eb55780518252601f199092019160209182019101610e96565b51815160209384036101000a60001901801990921691161790526040805192909401828103601f19018352808552825192820192909220600254633cff017d60e21b845233600485015294519097506001600160a01b03909416955085945063f3fc05f493602480840194509192909190829003018186803b158015610f3a57600080fd5b505afa158015610f4e573d6000803e3d6000fd5b505050506040513d6020811015610f6457600080fd5b5051156111625733600090815260208181526040808320858452600101825290912086519091610f989183918901906127af565b506001808201869055600282015460ff161515141561106857336001600160a01b03167fc6ae1f368835b8dc23469ccb4e0a68641eef173f4eabd237d92c814b0921feff87876040518080602001838152602001828103825284818151815260200191508051906020019080838360005b83811015611021578181015183820152602001611009565b50505050905090810190601f16801561104e5780820380516001836020036101000a031916815260200191505b50935050505060405180910390a260029350505050611169565b600281018054600160ff199182168117909255336000818152602081815260408083206009810180549096168717909555600690940180549586018155825280822090940187905582518085018a90528381528a5193810193909352895191937fc88f87019b2c3f52b71a37c702cf39861ed0549a8bcdc4805d425375e07600af938b938b9391928392606084019291870191908190849084905b8381101561111b578181015183820152602001611103565b50505050905090810190601f1680156111485780820380516001836020036101000a031916815260200191505b50935050505060405180910390a260019350505050611169565b6000925050505b92915050565b600080836040516020018082805190602001908083835b602083106111a55780518252601f199092019160209182019101611186565b51815160209384036101000a60001901801990921691161790526040805192909401828103601f19018352808552825192820192909220600254633cff017d60e21b845233600485015294519097506001600160a01b03909416955085945063f3fc05f493602480840194509192909190829003018186803b15801561122a57600080fd5b505afa15801561123e573d6000803e3d6000fd5b505050506040513d602081101561125457600080fd5b50511561116257336000908152602081815260408083208584526003018252909120865190916112889183918901906127af565b50845161129e90600183019060208801906127af565b50600281015460ff161515600114156113c757336001600160a01b03167f2c8f0300942b4dc969eb51cbc7516a40e1d23d7334462d02e346fc6cbb67ffc28787604051808060200180602001838103835285818151815260200191508051906020019080838360005b8381101561131f578181015183820152602001611307565b50505050905090810190601f16801561134c5780820380516001836020036101000a031916815260200191505b50838103825284518152845160209182019186019080838360005b8381101561137f578181015183820152602001611367565b50505050905090810190601f1680156113ac5780820380516001836020036101000a031916815260200191505b5094505050505060405180910390a260029350505050611169565b600281018054600160ff199182168117909255336000818152602081815260408083206009810180549096168717909555600890940180549586018155825280822090940187905582518381528a5193810193909352895191937f9f6c63b562345af71e8deafec7f21ebbbd7436be1e2437cbdefe441c78e1404c938b938b93919283928382019260608501928801918190849084905b8381101561147657818101518382015260200161145e565b50505050905090810190601f1680156114a35780820380516001836020036101000a031916815260200191505b50838103825284518152845160209182019186019080838360005b838110156114d65781810151838201526020016114be565b50505050905090810190601f1680156115035780820380516001836020036101000a031916815260200191505b5094505050505060405180910390a260019350505050611169565b6001600160a01b0381166000908152602081815260409182902060040180548351601f60026000196101006001861615020190931692909204918201849004840281018401909452808452606093928301828280156115be5780601f10611593576101008083540402835291602001916115be565b820191906000526020600020905b8154815290600101906020018083116115a157829003601f168201915b505050505090505b919050565b600080836040516020018082805190602001908083835b602083106116015780518252601f1990920191602091820191016115e2565b51815160209384036101000a60001901801990921691161790526040805192909401828103601f19018352808552825192820192909220600254633cff017d60e21b845233600485015294519097506001600160a01b03909416955085945063f3fc05f493602480840194509192909190829003018186803b15801561168657600080fd5b505afa15801561169a573d6000803e3d6000fd5b505050506040513d60208110156116b057600080fd5b50511561116257336000908152602081815260408083208584528252909120865190916116e19183918901906127af565b50845160018281018054602089015160408a015160608b015160ff918216620100000292821661010090810260ff199095169783169790971761ff0019169390931762ff000019169190911763ff000000191663010000009282169290920291909117909155600284015492909204909116151514156117ed57336001600160a01b03167fab71ed618c2fe050630246b947add4ec5d7458aac9873d265896c3e471870bec8787604051808060200183600460200280838360005b838110156117b457818101518382015260200161179c565b50505050919091018381038352855181528551602091820192509086019080838360008315611021578181015183820152602001611009565b60028101805460ff1961ff001990911661010017811660019081179092553360008181526020818152604080832060098101805490961687179095556005909401805495860181558252808220909401879055915190927f752bc1e17620172fd1d2b3b75cbdabb0b343dd6227e5d13b0098de730d6e0302928a928a929091829182019084906080908190849084905b8381101561189557818101518382015260200161187d565b5050505091909101838103835285518152855160209182019250908601908083836000831561111b578181015183820152602001611103565b6001600160a01b031660009081526020819052604090206005015490565b600080836040516020018082805190602001908083835b602083106119225780518252601f199092019160209182019101611903565b51815160209384036101000a60001901801990921691161790526040805192909401828103601f19018352808552825192820192909220600254633cff017d60e21b845233600485015294519097506001600160a01b03909416955085945063f3fc05f493602480840194509192909190829003018186803b1580156119a757600080fd5b505afa1580156119bb573d6000803e3d6000fd5b505050506040513d60208110156119d157600080fd5b50511561116257336000908152602081815260408083208584529091529020600281015460ff61010090910416151560011415611a835760028101805460ff191686151590811790915560408051602080820193909352818152885191810191909152875133927f5ab5728ec76d56ce7a5ca7b9008ed310f3be20e59385bc94d9279362b89a7e4d928a928a928291606083019186019080838360008315611021578181015183820152602001611009565b60019350505050611169565b6001600160a01b031660009081526020819052604090206007015490565b6001600160a01b03811660009081526020819052604081206009015460ff16151560011415611ade575060016115c6565b5060006115c6565b6001600160a01b031660009081526020819052604090206006015490565b6001600160a01b038216600090815260208190526040812060080154606090831015611bdd576001600160a01b0384166000908152602081905260408120600801805485908110611b5157fe5b6000918252602080832091909101546001600160a01b03881683528282526040808420828552600301835292839020805484516002600180841615610100026000190190931604601f8101869004860282018601909652858152929550909390928492918391830182828015610e4d5780601f10610e2257610100808354040283529160200191610e4d565b50506040805160208101909152600080825290610e78565b6001600160a01b031660009081526020819052604090206008015490565b6001600160a01b038216600090815260208181526040808320848452600190810183529281902080548251600295821615610100026000190190911694909404601f810184900484028501840190925281845260609392909190830182828015611cbe5780601f10611c9357610100808354040283529160200191611cbe565b820191906000526020600020905b815481529060010190602001808311611ca157829003601f168201915b5050505050905092915050565b6000611cd561282d565b600080846040516020018082805190602001908083835b60208310611d0b5780518252601f199092019160209182019101611cec565b518151602093840361010090810a60001901801990931692909116919091179091526040805193909501838103601f1901845285528251928201929092206001600160a01b038d166000908152808352858120828252909252939020600281015493965094506001920460ff16151591909114159150611df290505760028101546040805160808101918290526001928385019260ff90911691908390600490826000855b825461010083900a900460ff16815260206001928301818104948501949093039092029101808411611db0579050505050505091509450945094505050611e20565b5050604080516080810182526000808252602082018190529181018290526060810182905290935091508290505b9250925092565b6001600160a01b038216600090815260208190526040812060070154606090831015611bdd576001600160a01b0384166000908152602081905260408120600701805485908110611e7457fe5b6000918252602080832091909101546001600160a01b03881683528282526040808420828552600290810184529381902080548251600180831615610100026000190190921696909604601f81018690048602870186019093528286529295509391928492918391830182828015610e4d5780601f10610e2257610100808354040283529160200191610e4d565b600080836040516020018082805190602001908083835b60208310611f385780518252601f199092019160209182019101611f19565b51815160209384036101000a60001901801990921691161790526040805192909401828103601f19018352808552825192820192909220600254633cff017d60e21b845233600485015294519097506001600160a01b03909416955085945063f3fc05f493602480840194509192909190829003018186803b158015611fbd57600080fd5b505afa158015611fd1573d6000803e3d6000fd5b505050506040513d6020811015611fe757600080fd5b505115611162573360009081526020818152604080832085845260020182529091208651909161201b9183918901906127af565b506001808201869055600282015460ff16151514156120a357336001600160a01b03167fbf39dc6b739cb44e60367a4148bd2b7ae8c999e18bbe427908b027e8a17388ce878760405180806020018381526020018281038252848181518152602001915080519060200190808383600083811015611021578181015183820152602001611009565b600281018054600160ff199182168117909255336000818152602081815260408083206009810180549096168717909555600790940180549586018155825280822090940187905582518085018a90528381528a5193810193909352895191937f84147e07362fc8b8147ffe5c7b37f96aab149c6ad13139d49e576949a677164d938b938b939192839260608401929187019190819084908490831561111b578181015183820152602001611103565b60025460408051633cff017d60e21b815233600482015290516000926001600160a01b031691829163f3fc05f491602480820192602092909190829003018186803b1580156121a157600080fd5b505afa1580156121b5573d6000803e3d6000fd5b505050506040513d60208110156121cb57600080fd5b50511561229a573360009081526020818152604090912084516121f6926004909201918601906127af565b50604080516020808252855181830152855133937fece51fcb32eb99182864577d9cfdedffd73ace839117666c4cdffb604128ca919388939092839283019185019080838360005b8381101561225657818101518382015260200161223e565b50505050905090810190601f1680156122835780820380516001836020036101000a031916815260200191505b509250505060405180910390a260019150506115c6565b60009150506115c6565b6001600160a01b03821660009081526020818152604080832084845260030182529182902080548351601f6002600019610100600186161502019093169290920491820184900484028101840190945280845260609392830182828015611cbe5780601f10611c9357610100808354040283529160200191611cbe565b6001600160a01b03821660009081526020818152604080832084845282529182902080548351601f6002600019610100600186161502019093169290920491820184900484028101840190945280845260609392830182828015611cbe5780601f10611c9357610100808354040283529160200191611cbe565b6001600160a01b038216600090815260208190526040812060060154606090831015611bdd576001600160a01b03841660009081526020819052604081206006018054859081106123e857fe5b60009182526020808320909101546001600160a01b03881683528282526040808420828552600190810184529381902080548251601f6002600019610100858b1615020190931692909204918201869004860281018601909352808352929550939284928391830182828015610e4d5780601f10610e2257610100808354040283529160200191610e4d565b6000806000836040516020018082805190602001908083835b602083106124ac5780518252601f19909201916020918201910161248d565b51815160209384036101000a60001901801990921691161790526040805192909401828103601f1901835284528151918101919091206001600160a01b038b1660009081528083528481208282526001908101909352939093206002810154939650945060ff909216151590911415915061253590505760018160010154935093505050610e78565b5060009250829150610e789050565b6002546001600160a01b031690565b60006001600160a01b03821661256857600080fd5b50600280546001600160a01b0383166001600160a01b03199091161790556001919050565b6000806000836040516020018082805190602001908083835b602083106125c55780518252601f1990920191602091820191016125a6565b51815160209384036101000a60001901801990921691161790526040805192909401828103601f1901835284528151918101919091206001600160a01b038b16600090815280835284812082825260029081019093529390932090810154929550935050600160ff90911615151415905061264c5760018160010154935093505050610e78565b600080935093505050610e78565b6001600160a01b038216600090815260208190526040812060050154606090831015611bdd576001600160a01b03841660009081526020819052604081206005018054859081106126a757fe5b6000918252602080832091909101546001600160a01b03881683528282526040808420828552835292839020805484516002600180841615610100026000190190931604601f8101869004860282018601909652858152929550909390928492918391830182828015610e4d5780601f10610e2257610100808354040283529160200191610e4d565b6001600160a01b0382166000908152602081815260408083208484526002908101835292819020805482516001821615610100026000190190911694909404601f810184900484028501840190925281845260609392909190830182828015611cbe5780601f10611c9357610100808354040283529160200191611cbe565b828054600181600116156101000203166002900490600052602060002090601f016020900481019282601f106127f057805160ff191683800117855561281d565b8280016001018555821561281d579182015b8281111561281d578251825591602001919060010190612802565b5061282992915061284b565b5090565b60405180608001604052806004906020820280368337509192915050565b5b80821115612829576000815560010161284c56fea26469706673582212207a5bdebd6d960a40ae9a66bc2d7000510c64e8d2d5a1c39c4072665d956e708964736f6c63430007010033",
  "immutableReferences": {},
  "source": "pragma solidity ^0.7.1;\n//SPDX-License-Identifier: UNLICENSED\n\nimport \"./Interfaces/ITrustAnchorManager.sol\";\n\n/// @dev\n/// | The Trust Anchor Extra Data [Unique] reference contract\n/// | This contract is an example of the type of parameters most useful in a Regulatory/Onboarding/Verification context. A very malleable construction of variables is used, with:\n/// | a) a mapping of hashes (for lookups on various databases) with a string name for human readability.\n/// | b) a mapping of ip endpoints (for the transfer of sensitive documents) with a string name for human readability.\n/// | c) a mapping of 256-bit numeric identifiers (for various indexing purposes) with a string name for human readability.\n/// | d) a string for public metadata.\n\ncontract TrustAnchorExtraData_Unique {\n\n    /// @dev Event for creating an End Point\n    event EVT_setTrustAnchorEndPointCreated(address indexed _trustAnchorAddress, string _endpointName, uint8[4] _ipv4Address);\n    /// @dev Event for updating an End Point\n    event EVT_setTrustAnchorEndPointUpdated(address indexed _trustAnchorAddress, string _endpointName, uint8[4] _ipv4Address);\n\n    /// @dev Event for Data Retrieval Endpoint is Enabled for a specific Endpoint name.\n    event EVT_setTrustAnchorEndpointIsEnabled(address indexed _trustAnchorAddress, string _endpointName, bool _isEnabled);\n\n    /// @dev Event for creating a Hash Mapping\n    event EVT_setTrustAnchorHashMappingCreated(address indexed _trustAnchorAddress, string _hashMappingName, bytes32 _hashMappingValue);\n    /// @dev Event for updating a Hash Mapping\n    event EVT_setTrustAnchorHashMappingUpdated(address indexed _trustAnchorAddress, string _hashMappingName, bytes32 _hashMappingValue);\n\n    /// @dev Event for creating a Numeric Identifier\n    event EVT_setTrustAnchorNumericIdentifierCreated(address indexed _trustAnchorAddress, string _numericIdentifierName, uint256 _numericIdentifierValue);\n    /// @dev Event for updating a Numeric Identifier\n    event EVT_setTrustAnchorNumericIdentifierUpdated(address indexed _trustAnchorAddress, string _numericIdentifierName, uint256 _numericIdentifierValue);\n\n    /// @dev Event for creating a Key-Value Pair (String to String relationship)\n    event EVT_setTrustAnchorKeyValuePairCreated(address indexed _trustAnchorAddress, string _keyValuePairName, string _keyValuePairValue);\n    /// @dev Event for updating a Key-Value Pair (String to String relationship)\n    event EVT_setTrustAnchorKeyValuePairUpdated(address indexed _trustAnchorAddress, string _keyValuePairName, string _keyValuePairValue);\n\n\n    /// @dev Event for setting Public Metadata\n    event EVT_setTrustAnchorPublicMetaData(address indexed _trustAnchorAddress, string _metaData);\n\n    /// @dev Struct for a Trust Anchor data retrieval ip address endpoints with a string to associated names.\n    struct endpoint {\n        string endpointName;\n        uint8[4] ipv4Address;\n\n        bool isEnabled;\n        bool doesExist;\n    }\n\n    /// @dev Struct for the \"hash mappings\" for lookups on various databases.\n    struct hashMapping {\n        string hashName;\n        bytes32 hashValue;\n\n        bool doesExist;\n    }\n\n    /// @dev Struct for the \"numeric identifiers\" for various indexing purposes.\n    struct numericIdentifier {\n        string numericIdentifierName;\n        uint256 numericIdentifierValue;\n\n        bool doesExist;\n    }\n\n    /// @dev Struct for the \"key value pair\" for various indexing purposes.\n    struct keyValuePair {\n        string keyValuePairName;\n        string keyValuePairValue;\n\n        bool doesExist;\n    }\n\n    /// @dev Struct for a Trust Anchor unique extraData\n    struct trustAnchorUniqueExtraDataParameters {\n        mapping(bytes32 => endpoint) keccakHash_to_dataRetrievalEndpoint;\n        mapping(bytes32 => hashMapping) keccakHash_to_hashMapping;\n        mapping(bytes32 => numericIdentifier) keccakHash_to_numericIdentifier;\n        mapping(bytes32 => keyValuePair) keccakHash_to_keyValuePair;\n\n        string publicMetaData;\n\n        bytes32[] dataRetrievalEndpointHashArray;\n        bytes32[] hashMappingsHashArray;\n        bytes32[] numericIdentifiersHashArray;\n        bytes32[] keyValuePairsHashArray;\n\n        bool doesExist;\n    }\n\n    /// @dev Mapping for a Trust Anchor to its unique extraData parameters.\n    mapping(address => trustAnchorUniqueExtraDataParameters) extraData_uniqueParameters;\n\n    /// @dev The owner of this contract.\n    address owner = address(0);\n\n    /// @dev The Trust Anchor Manager address that this contract is bound to.\n    address trustAnchorManagerAddress = address(0);\n\n    /// @dev Initializes this contract with the owner set to the calling public address.\n\n    constructor() {\n        owner = msg.sender;\n    }\n\n    /// @param _trustAnchorManagerAddress The smart contract address for the Trust Anchor Manager that should be linked.\n    /// @dev Links Trust Anchor Manager to this contract's function flow.\n    /// @return result\n    ///    | false: [ will never return false due to require() ]\n    ///    | true: trust anchor manager address set correctly\n\n    function setTrustAnchorManagerAddress(address _trustAnchorManagerAddress) public returns (bool result) {\n        require(_trustAnchorManagerAddress != address(0));\n\n        trustAnchorManagerAddress = _trustAnchorManagerAddress;\n\n        //trust anchor manager address set correctly\n        return true;\n    }\n\n    /// @dev Gets the Trust Anchor Manager associated to this contract.\n    /// @return result trust anchor manager address\n\n    function getTrustAnchorManagerAddress() public view returns (address result) {\n        //get trust anchor manager address\n        return trustAnchorManagerAddress;\n    }\n\n    /// @param _trustAnchorAddress The Trust Anchor address that is checked for unique extraData availability.\n    /// @dev Checks whether a specific Trust Anchor has extraData associated to it, updates if necessary, and returns the status.\n    /// @return result\n    ///    | false: trust anchor has no extraData parameters allocated\n    ///    | true: trust anchor does has extraData parameters allocated\n\n    function doesTrustAnchorHaveUniqueExtraData(address _trustAnchorAddress) public view returns (bool result) {\n        if (extraData_uniqueParameters[_trustAnchorAddress].doesExist == true) {\n            //trust anchor does has extraData parameters allocated\n            return true;\n        } else {\n            //trust anchor has no extraData parameters allocated\n            return false;\n        }\n    }\n\n    // ** extraData data retrieval ** //\n\n    /// @param _endpointName The name of the endpoint.\n    /// @param _ipv4Address The ipv4 address, an array of 4 uint8's (0-255) corresponding to w.x.y.z components of an ip address.\n    /// @dev Checks whether a specific Trust Anchor has \"generic\" extraData associated to it with a specific endpoint name, updates if necessary, and returns the status. Sets the endpoint to \"enabled\" status if it's being set for the first time.\n    /// @notice Called by an already setup Trust Anchor.\n    /// @return result\n    ///    | 0: trust anchor is not verified\n    ///    | 1: endpoint set for the first time\n    ///    | 2: endpoint updated\n\n    function setTrustAnchorDataRetrievalEndpoint(string memory _endpointName, uint8[4] memory _ipv4Address) public returns (uint8 result) {\n        bytes32 endpointKeccak = keccak256(abi.encodePacked(_endpointName));\n\n        //@note: need to check Trust Anchor jurisdiction in Trust Anchor manager lookup\n        ITrustAnchorManager trustAnchorManager = ITrustAnchorManager(trustAnchorManagerAddress);\n\n        // check whether trust Anchor manager is verified\n        if (trustAnchorManager.isTrustAnchorVerified(msg.sender)) {\n\n            // get the endpoint if it already exists, otherwise create a new endpoint.\n            endpoint storage newEndpoint = extraData_uniqueParameters[msg.sender].keccakHash_to_dataRetrievalEndpoint[endpointKeccak];\n\n            // set the parameters based on inputs.\n            newEndpoint.endpointName = _endpointName;\n\n            newEndpoint.ipv4Address[0] = _ipv4Address[0];\n            newEndpoint.ipv4Address[1] = _ipv4Address[1];\n            newEndpoint.ipv4Address[2] = _ipv4Address[2];\n            newEndpoint.ipv4Address[3] = _ipv4Address[3];\n\n            // checks whether this particular endpoint already exists for this Trust Anchor.\n            if (newEndpoint.doesExist == true) {\n                // emit updated event\n                emit EVT_setTrustAnchorEndPointUpdated(msg.sender, _endpointName, _ipv4Address);\n                //endpoint updated\n                return 2;\n            } else {\n                // if endpoint doesn't already exist, set the parameters required for further lookups.\n                newEndpoint.doesExist = true;\n                newEndpoint.isEnabled = true;\n\n                // sets the global \"doesExist\" for this Trust Anchor to true.. if it was already set, this doesn't cost\n                // any extra gas at the end of the day because it's not changing state.\n                extraData_uniqueParameters[msg.sender].doesExist = true;\n\n                // pushes the new endpointKeccak to the endpoint array.\n                extraData_uniqueParameters[msg.sender].dataRetrievalEndpointHashArray.push(endpointKeccak);\n\n                // emit created event\n                emit EVT_setTrustAnchorEndPointCreated(msg.sender, _endpointName, _ipv4Address);\n\n                //endpoint set for the first time\n                return 1;\n            }\n        } else {\n            //trust anchor is not verified\n            return 0;\n        }\n    }\n\n    /// @param _endpointName The name of the endpoint.\n    /// @param _isEnabled The boolean yes/no of whether this endpoint should be set to enabled or not.\n    /// @dev Checks whether a specific Trust Anchor has \"generic\" extraData associated to it with a specific endpoint name, and updates the isEnabled if it already exists, and returns the status.\n    /// @notice Called by an already setup Trust Anchor.\n    /// @return result\n    ///    | 0: trust anchor is not verified\n    ///    | 1: endpoint does not exist\n    ///    | 2: endpoint's enabled status updated\n\n    function setTrustAnchorDataRetrievalEndpointIsEnabled(string memory _endpointName, bool _isEnabled) public returns (uint8 result) {\n        bytes32 endpointKeccak = keccak256(abi.encodePacked(_endpointName));\n\n        ITrustAnchorManager trustAnchorManager = ITrustAnchorManager(trustAnchorManagerAddress);\n\n        // check whether trust Anchor manager is verified\n        if (trustAnchorManager.isTrustAnchorVerified(msg.sender)) {\n\n            // get the endpoint if it already exists.\n            endpoint storage existingEndpoint = extraData_uniqueParameters[msg.sender].keccakHash_to_dataRetrievalEndpoint[endpointKeccak];\n\n            // if this endpoint already exists, set the isEnabled flag based on input parameters.\n            if (existingEndpoint.doesExist == true) {\n                existingEndpoint.isEnabled = _isEnabled;\n\n                // emit the updated enabled event\n                emit EVT_setTrustAnchorEndpointIsEnabled(msg.sender, _endpointName, _isEnabled);\n\n                //endpoint's enabled status updated\n                return 2;\n            } else {\n                //endpoint does not exist\n                return 1;\n            }\n        } else {\n            //trust anchor is not verified\n            return 0;\n        }\n    }\n\n    /// @param _trustAnchorAddress The Trust Anchor address related to this unique extraData.\n    /// @dev Gets the number of endpoints associated to this Trust Anchor.\n    /// @return result the number of endpoints associated to this Trust Anchor.\n\n    function getTrustAnchorNumberOfEndpoints(address _trustAnchorAddress) public view returns (uint256 result) {\n        return extraData_uniqueParameters[_trustAnchorAddress].dataRetrievalEndpointHashArray.length;\n    }\n\n    /// @param _trustAnchorAddress The Trust Anchor address related to this unique extraData.\n    /// @param _index The index within this Trust Anchor's endpoint array.\n    /// @dev Gets the endpoint name for a specific index within the Trust Anchor's endpoint array.\n    /// @notice Checks to make sure that the _index parameter is not out of bounds.\n    /// @return doesExist whether the endpoint data exists, ( false, \"\" ): endpoint data does not exist\n    /// @return endpointName the endpoint name\n\n    function getTrustAnchorEndpointNameByIndex(address _trustAnchorAddress, uint256 _index) public view returns (bool doesExist, string memory endpointName) {\n        // checks whether this particular hash mapping already exists for this Trust Anchor.\n        if (extraData_uniqueParameters[_trustAnchorAddress].dataRetrievalEndpointHashArray.length > _index) {\n            bytes32 endpointKeccak = extraData_uniqueParameters[_trustAnchorAddress].dataRetrievalEndpointHashArray[_index];\n\n            endpoint storage existingEndpoint = extraData_uniqueParameters[_trustAnchorAddress].keccakHash_to_dataRetrievalEndpoint[endpointKeccak];\n\n            //endpoint data exists, returns the endpoint name\n            return (true, existingEndpoint.endpointName);\n        } else {\n            //endpoint data does not exist\n            return (false, \"\");\n        }\n    }\n\n    /// @param _trustAnchorAddress The Trust Anchor address related to this unique extraData.\n    /// @param _endpointName The name of the endpoint.\n    /// @dev Gets the data retrieval parameters (whether it exists, the actual endpoint data, and whether it's enabled) for this particular _endpointName.\n    /// @return doesExist whether the endpoint data exists, ( false, [0, 0, 0, 0], false ): endpoint data does not exist\n    /// @return ipv4Address the ipv4 components\n    /// @return isEnabled whether this endpoint is enabled\n\n    function getTrustAnchorDataEndpoint(address _trustAnchorAddress, string memory _endpointName) public view returns (bool doesExist, uint8[4] memory ipv4Address, bool isEnabled) {\n        bytes32 endpointKeccak = keccak256(abi.encodePacked(_endpointName));\n\n        // gets the endpoint.\n        endpoint storage existingEndpoint = extraData_uniqueParameters[_trustAnchorAddress].keccakHash_to_dataRetrievalEndpoint[endpointKeccak];\n\n        // checks whether this particular endpoint already exists for this Trust Anchor.\n        if (existingEndpoint.doesExist == true) {\n            //if the endpoint exists, the extraData ip address parameters for this Trust Anchor have a proper endpoint.\n\n            //endpoint data exists, and the return components\n            return (true, existingEndpoint.ipv4Address, existingEndpoint.isEnabled);\n        } else {\n            //endpoint data does not exist\n            return (false, [0,0,0,0], false);\n        }\n    }\n\n    /// @param _trustAnchorAddress The trust anchor address related to this extraData.\n    /// @param _endpointKeccak The endpoint keccak\n    /// @dev Gets the endpoint name for a specific endpoint keccak for a Trust Anchor.\n    /// @return endpointName endpoint data exists, returns the endpoint name\n    function getTrustAnchorEndpointNameByEndpointKeccak(address _trustAnchorAddress, bytes32 _endpointKeccak) public view returns (string memory endpointName) {\n        //returns the endpoint name\n        return extraData_uniqueParameters[_trustAnchorAddress].keccakHash_to_dataRetrievalEndpoint[_endpointKeccak].endpointName;\n    }\n\n    // ** extraData hash mappings ** //\n\n    /// @param _hashName The name of the hash mapping.\n    /// @param _hashValue The value for this hash mapping, as a bytes32 (256 bits) format.\n    /// @dev Checks whether a specific Trust Anchor has \"unique\" extraData associated to it with a specific hash name, updates if necessary, and returns the status.\n    /// @notice Called by an already setup Trust Anchor.\n    /// @return result\n    ///    | 0: trust anchor is not verified\n    ///    | 1: hash mapping set for the first time\n    ///    | 2: hash mapping updated\n\n    function setTrustAnchorHashMapping(string memory _hashName, bytes32 _hashValue) public returns (uint8 result) {\n        bytes32 hashValueKeccak = keccak256(abi.encodePacked(_hashName));\n\n        //@note: need to check Trust Anchor jurisdiction in Trust Anchor manager lookup\n        ITrustAnchorManager trustAnchorManager = ITrustAnchorManager(trustAnchorManagerAddress);\n\n        // check whether trust Anchor manager is verified\n        if (trustAnchorManager.isTrustAnchorVerified(msg.sender)) {\n\n            // get the hash mapping if it already exists, otherwise create a new hash mapping.\n            hashMapping storage newHashValue = extraData_uniqueParameters[msg.sender].keccakHash_to_hashMapping[hashValueKeccak];\n\n            // set the parameters based on inputs.\n            newHashValue.hashName = _hashName;\n            newHashValue.hashValue = _hashValue;\n\n            // checks whether this particular hash mapping already exists for this Trust Anchor.\n            if (newHashValue.doesExist == true) {\n                // emit updated event\n                emit EVT_setTrustAnchorHashMappingUpdated(msg.sender, _hashName, _hashValue);\n\n                //hash mapping updated\n                return 2;\n            } else {\n                // if hash mapping doesn't already exist, set the parameters required for further lookups.\n                newHashValue.doesExist = true;\n\n                // sets the global \"doesExist\" for this Trust Anchor to true.. if it was already set, this doesn't cost\n                // any extra gas at the end of the day because it's not changing state.\n                extraData_uniqueParameters[msg.sender].doesExist = true;\n\n                // pushes the new hashValueKeccak to the hash mappings array.\n                extraData_uniqueParameters[msg.sender].hashMappingsHashArray.push(hashValueKeccak);\n\n                // emit created event\n                emit EVT_setTrustAnchorHashMappingCreated(msg.sender, _hashName, _hashValue);\n\n                //hash mapping set for the first time\n                return 1;\n            }\n        } else {\n            //trust anchor is not verified\n            return 0;\n        }\n    }\n\n    /// @param _trustAnchorAddress The Trust Anchor address related to this unique extraData.\n    /// @dev Gets the number of hash mappings associated to this Trust Anchor.\n    /// @return result the number of hash mappings associated to this Trust Anchor.\n\n    function getTrustAnchorNumberOfHashMappings(address _trustAnchorAddress) public view returns (uint256 result) {\n        return extraData_uniqueParameters[_trustAnchorAddress].hashMappingsHashArray.length;\n    }\n\n    /// @param _trustAnchorAddress The Trust Anchor address related to this unique extraData.\n    /// @param _index The index within this Trust Anchor's hash mapping array.\n    /// @dev Gets the hash mapping name for a specific index within the Trust Anchor's hash mapping array.\n    /// @notice Checks to make sure that the _index parameter is not out of bounds.\n    /// @return doesExist whether the hash mapping data exists, ( false, \"\" ): hash mapping data does not exist\n    /// @return hashMappingName the hash mapping name\n\n    function getTrustAnchorHashMappingNameByIndex(address _trustAnchorAddress, uint256 _index) public view returns (bool doesExist, string memory hashMappingName) {\n        // checks whether this particular endpoint already exists for this Trust Anchor.\n        if (extraData_uniqueParameters[_trustAnchorAddress].hashMappingsHashArray.length > _index) {\n            bytes32 hashMappingKeccak = extraData_uniqueParameters[_trustAnchorAddress].hashMappingsHashArray[_index];\n\n            hashMapping storage existingHashMapping = extraData_uniqueParameters[_trustAnchorAddress].keccakHash_to_hashMapping[hashMappingKeccak];\n\n            //hash mapping data exists, returns the hash mapping name\n            return (true, existingHashMapping.hashName);\n        } else {\n            //hash mapping data does not exist\n            return (false, \"\");\n        }\n    }\n\n    /// @param _trustAnchorAddress The Trust Anchor address related to this unique extraData.\n    /// @param _hashMappingName The name of the hash mapping.\n    /// @dev Gets the hash mapping value parameters (whether it exists, the actual hash mapping value) for this particular _hashMappingName.\n    /// @return doesExist whether hash mapping data exists, ( false, 0 ): hash mapping data does not exist\n    /// @return hashValue the hash mapping value\n\n    function getTrustAnchorHashMappingValue(address _trustAnchorAddress, string memory _hashMappingName) public view returns (bool doesExist, bytes32 hashValue) {\n        bytes32 hashMappingKeccak = keccak256(abi.encodePacked(_hashMappingName));\n\n        // gets the hash mapping\n        hashMapping storage existingHashMapping = extraData_uniqueParameters[_trustAnchorAddress].keccakHash_to_hashMapping[hashMappingKeccak];\n\n        // checks whether this particular hash mapping already exists for this Trust Anchor.\n        if (existingHashMapping.doesExist == true) {\n            //hash mapping data exists, and the hash value\n            return (true, existingHashMapping.hashValue);\n        } else {\n            //hash mapping data does not exist\n            return (false, 0);\n        }\n    }\n\n    /// @param _trustAnchorAddress The trust anchor address related to this extraData.\n    /// @param _hashMappingKeccak The hash mapping keccak\n    /// @dev Gets the hash mapping name for a specific hash mapping keccak for a Trust Anchor.\n    /// @return hashMappingName hash mapping data exists, returns the hash mapping name\n    function getTrustAnchorHashMappingNameByHashMappingKeccak(address _trustAnchorAddress, bytes32 _hashMappingKeccak) public view returns (string memory hashMappingName) {\n        //returns the endpoint name\n        return extraData_uniqueParameters[_trustAnchorAddress].keccakHash_to_hashMapping[_hashMappingKeccak].hashName;\n    }\n\n    // ** extraData numeric identifiers ** //\n\n    /// @param _numericIdentifierName The name of the numeric identifier.\n    /// @param _numericIdentifierValue The value for this numeric identifier, as a bytes32 (256 bits) format.\n    /// @dev Checks whether a specific Trust Anchor has \"unique\" extraData associated to it with a specific numeric identifier name, updates if necessary, and returns the status.\n    /// @notice Called by an already setup Trust Anchor.\n    /// @return result\n    ///    | 0: trust anchor is not verified\n    ///    | 1: numeric identifier set for the first time\n    ///    | 2: numeric identifier updated\n\n    function setTrustAnchorNumericIdentifier(string memory _numericIdentifierName, uint256 _numericIdentifierValue) public returns (uint8 result) {\n        bytes32 numericIdentifierKeccak = keccak256(abi.encodePacked(_numericIdentifierName));\n\n        //@note: need to check Trust Anchor jurisdiction in Trust Anchor manager lookup\n        ITrustAnchorManager trustAnchorManager = ITrustAnchorManager(trustAnchorManagerAddress);\n\n        // check whether trust Anchor manager is verified\n        if (trustAnchorManager.isTrustAnchorVerified(msg.sender)) {\n\n            // get the numeric identifier if it already exists, otherwise create a new numeric identifier.\n            numericIdentifier storage newNumericIdentifier = extraData_uniqueParameters[msg.sender].keccakHash_to_numericIdentifier[numericIdentifierKeccak];\n\n            // set the parameters based on inputs.\n            newNumericIdentifier.numericIdentifierName = _numericIdentifierName;\n            newNumericIdentifier.numericIdentifierValue = _numericIdentifierValue;\n\n            // checks whether this particular numeric identifier already exists for this Trust Anchor.\n            if (newNumericIdentifier.doesExist == true) {\n                // emit updated event\n                emit EVT_setTrustAnchorNumericIdentifierUpdated(msg.sender, _numericIdentifierName, _numericIdentifierValue);\n\n                //numeric identifier updated\n                return 2;\n            } else {\n                // if numeric identifier doesn't already exist, set the parameters required for further lookups.\n                newNumericIdentifier.doesExist = true;\n\n                // sets the global \"doesExist\" for this Trust Anchor to true.. if it was already set, this doesn't cost\n                // any extra gas at the end of the day because it's not changing state.\n                extraData_uniqueParameters[msg.sender].doesExist = true;\n\n                // pushes the new numericIdentifierKeccak to the numeric identifiers array.\n                extraData_uniqueParameters[msg.sender].numericIdentifiersHashArray.push(numericIdentifierKeccak);\n\n                // emit created event\n                emit EVT_setTrustAnchorNumericIdentifierCreated(msg.sender, _numericIdentifierName, _numericIdentifierValue);\n\n                //numeric identifier set for the first time\n                return 1;\n            }\n        } else {\n            //trust anchor is not verified\n            return 0;\n        }\n    }\n\n    /// @param _trustAnchorAddress The Trust Anchor address related to this unique extraData.\n    /// @dev Gets the number of numeric identifiers associated to this Trust Anchor.\n    /// @return result the number of numeric identifiers associated to this Trust Anchor.\n\n    function getTrustAnchorNumberOfNumericIdentifiers(address _trustAnchorAddress) public view returns (uint256 result) {\n        return extraData_uniqueParameters[_trustAnchorAddress].numericIdentifiersHashArray.length;\n    }\n\n    /// @param _trustAnchorAddress The Trust Anchor address related to this unique extraData.\n    /// @param _index The index within this Trust Anchor's numeric identifier array.\n    /// @dev Gets the numeric identifier name for a specific index within the Trust Anchor's numeric identifier array.\n    /// @notice Checks to make sure that the _index parameter is not out of bounds.\n    /// @return doesExist whether numeric identifier data exists, ( false, \"\" ): numeric identifier data does not exist\n    /// @return numericIdentifierName the numeric identifier name\n\n    function getTrustAnchorNumericIdentifierNameByIndex(address _trustAnchorAddress, uint256 _index) public view returns (bool doesExist, string memory numericIdentifierName) {\n        // checks whether this particular endpoint already exists for this Trust Anchor.\n        if (extraData_uniqueParameters[_trustAnchorAddress].numericIdentifiersHashArray.length > _index) {\n            bytes32 numericIdentifierKeccak = extraData_uniqueParameters[_trustAnchorAddress].numericIdentifiersHashArray[_index];\n\n            numericIdentifier storage existingNumericIdentifier = extraData_uniqueParameters[_trustAnchorAddress].keccakHash_to_numericIdentifier[numericIdentifierKeccak];\n\n            //numeric identifier data exists, returns the numeric identifier name\n            return (true, existingNumericIdentifier.numericIdentifierName);\n        } else {\n            //numeric identifier data does not exist\n            return (false, \"\");\n        }\n    }\n\n    /// @param _trustAnchorAddress The Trust Anchor address related to this unique extraData.\n    /// @param _numericIdentifierName The name of the numeric identifier.\n    /// @dev Gets the numeric identifier value parameters (whether it exists, the actual numeric identifier value) for this particular _numericIdentifierName.\n    /// @return doesExist whether numeric identifier data exists, ( false, 0 ): numeric identifier data does not exist\n    /// @return numericIdentifierValue the numeric identifier value\n\n    function getTrustAnchorNumericIdentifierValue(address _trustAnchorAddress, string memory _numericIdentifierName) public view returns (bool doesExist, uint256 numericIdentifierValue) {\n        bytes32 numericIdentifierKeccak = keccak256(abi.encodePacked(_numericIdentifierName));\n\n        // gets the hash mapping\n        numericIdentifier storage existingNumericIdentifier = extraData_uniqueParameters[_trustAnchorAddress].keccakHash_to_numericIdentifier[numericIdentifierKeccak];\n\n        // checks whether this particular hash mapping already exists for this Trust Anchor.\n        if (existingNumericIdentifier.doesExist == true) {\n            //numeric identifier data exists, and the hash value\n            return (true, existingNumericIdentifier.numericIdentifierValue);\n        } else {\n            //numeric identifier data does not exist\n            return (false, 0);\n        }\n    }\n\n    /// @param _trustAnchorAddress The trust anchor address related to this extraData.\n    /// @param _numericIdentifierKeccak The numeric identifier keccak\n    /// @dev Gets the numeric identifier name for a specific numeric identifier keccak for a Trust Anchor.\n    /// @return numericIdentifierName numeric identifier data exists, returns the numeric identifier name\n    function getTrustAnchorNumericIdentifierNameByNumericIdentifierKeccak(address _trustAnchorAddress, bytes32 _numericIdentifierKeccak) public view returns (string memory numericIdentifierName) {\n        //returns the numeric identifier name\n        return extraData_uniqueParameters[_trustAnchorAddress].keccakHash_to_numericIdentifier[_numericIdentifierKeccak].numericIdentifierName;\n    }\n\n    // ** extraData key value pairs ** //\n\n    /// @param _keyValuePairName The name of the key-value pair.\n    /// @param _keyValuePairValue The value for this key-value pair, as a String format.\n    /// @dev Checks whether a specific Trust Anchor has \"unique\" extraData associated to it with a specific key-value pair name, updates if necessary, and returns the status.\n    /// @notice Called by an already setup Trust Anchor.\n    /// @return result\n    ///    | 0: trust anchor is not verified\n    ///    | 1: key-value pair set for the first time\n    ///    | 2: key-value pair updated\n\n    function setTrustAnchorKeyValuePair(string memory _keyValuePairName, string memory _keyValuePairValue) public returns (uint8 result) {\n        bytes32 keyValuePairKeccak = keccak256(abi.encodePacked(_keyValuePairName));\n\n        //@note: need to check Trust Anchor jurisdiction in Trust Anchor manager lookup\n        ITrustAnchorManager trustAnchorManager = ITrustAnchorManager(trustAnchorManagerAddress);\n\n        // check whether trust Anchor manager is verified\n        if (trustAnchorManager.isTrustAnchorVerified(msg.sender)) {\n\n            // get the key-value pair if it already exists, otherwise create a new key-value pair.\n            keyValuePair storage newKeyValuePair = extraData_uniqueParameters[msg.sender].keccakHash_to_keyValuePair[keyValuePairKeccak];\n\n            // set the parameters based on inputs.\n            newKeyValuePair.keyValuePairName = _keyValuePairName;\n            newKeyValuePair.keyValuePairValue = _keyValuePairValue;\n\n            // checks whether this particular key-value pair already exists for this Trust Anchor.\n            if (newKeyValuePair.doesExist == true) {\n                // emit updated event\n                emit EVT_setTrustAnchorKeyValuePairUpdated(msg.sender, _keyValuePairName, _keyValuePairValue);\n\n                //key-value pair updated\n                return 2;\n            } else {\n                // if key-value pair doesn't already exist, set the parameters required for further lookups.\n                newKeyValuePair.doesExist = true;\n\n                // sets the global \"doesExist\" for this Trust Anchor to true.. if it was already set, this doesn't cost\n                // any extra gas at the end of the day because it's not changing state.\n                extraData_uniqueParameters[msg.sender].doesExist = true;\n\n                // pushes the new keyValuePairKeccak to the key-value pairs array.\n                extraData_uniqueParameters[msg.sender].keyValuePairsHashArray.push(keyValuePairKeccak);\n\n                // emit created event\n                emit EVT_setTrustAnchorKeyValuePairCreated(msg.sender, _keyValuePairName, _keyValuePairValue);\n\n                //key-value pair set for the first time\n                return 1;\n            }\n        } else {\n            //trust anchor is not verified\n            return 0;\n        }\n    }\n\n    /// @param _trustAnchorAddress The Trust Anchor address related to this unique extraData.\n    /// @dev Gets the number of key-value pairs associated to this Trust Anchor.\n    /// @return result the number of key-value pairs associated to this Trust Anchor.\n\n    function getTrustAnchorNumberOfKeyValuePairs(address _trustAnchorAddress) public view returns (uint256 result) {\n        return extraData_uniqueParameters[_trustAnchorAddress].keyValuePairsHashArray.length;\n    }\n\n    /// @param _trustAnchorAddress The Trust Anchor address related to this unique extraData.\n    /// @param _index The index within this Trust Anchor's key-value pair array.\n    /// @dev Gets the key-value pair name (key) for a specific index within the Trust Anchor's key-value pair array.\n    /// @notice Checks to make sure that the _index parameter is not out of bounds.\n    /// @return doesExist whether the key-value pair data exists, ( false, \"\" ): key-value pair data does not exist\n    /// @return keyValuePairName the key-value pair name (key)\n\n    function getTrustAnchorKeyValuePairNameByIndex(address _trustAnchorAddress, uint256 _index) public view returns (bool doesExist, string memory keyValuePairName) {\n        // checks whether this particular endpoint already exists for this Trust Anchor.\n        if (extraData_uniqueParameters[_trustAnchorAddress].keyValuePairsHashArray.length > _index) {\n            bytes32 keyValuePairKeccak = extraData_uniqueParameters[_trustAnchorAddress].keyValuePairsHashArray[_index];\n\n            keyValuePair storage existingKeyValuePair = extraData_uniqueParameters[_trustAnchorAddress].keccakHash_to_keyValuePair[keyValuePairKeccak];\n\n            //key-value pair data exists, returns the key-value pair name (key)\n            return (true, existingKeyValuePair.keyValuePairName);\n        } else {\n            //key-value pair data does not exist\n            return (false, \"\");\n        }\n    }\n\n    /// @param _trustAnchorAddress The Trust Anchor address related to this unique extraData.\n    /// @param _keyValuePairName The name of the key-value pair.\n    /// @dev Gets the key-value pair value parameters (whether it exists, the actual key-value pair value) for this particular _keyValuePairName.\n    /// @return doesExist whether the key-value pair data exists, ( false, \"\" ): key-value pair data does not exist\n    /// @return keyValuePairValue the key-value pair value\n\n    function getTrustAnchorKeyValuePairValue(address _trustAnchorAddress, string memory _keyValuePairName) public view returns (bool doesExist, string memory keyValuePairValue) {\n        bytes32 keyValuePairKeccak = keccak256(abi.encodePacked(_keyValuePairName));\n\n        // gets the hash mapping\n        keyValuePair storage existingKeyValuePair = extraData_uniqueParameters[_trustAnchorAddress].keccakHash_to_keyValuePair[keyValuePairKeccak];\n\n        // checks whether this particular hash mapping already exists for this Trust Anchor.\n        if (existingKeyValuePair.doesExist == true) {\n            //key-value pair data exists, and the hash value\n            return (true, existingKeyValuePair.keyValuePairValue);\n        } else {\n            //key-value pair data does not exist\n            return (false, \"\");\n        }\n    }\n\n    /// @param _trustAnchorAddress The trust anchor address related to this extraData.\n    /// @param _keyValuePairKeccak The key-value pair keccak\n    /// @dev Gets the key-value pair name for a specific key-value pair keccak for a Trust Anchor.\n    /// @return keyValuePairName key-value pair data exists, returns the key-value pair name\n    function getTrustAnchorKeyValuePairNameByKeyValuePairKeccak(address _trustAnchorAddress, bytes32 _keyValuePairKeccak) public view returns (string memory keyValuePairName) {\n        //returns the key-value pair name\n        return extraData_uniqueParameters[_trustAnchorAddress].keccakHash_to_keyValuePair[_keyValuePairKeccak].keyValuePairName;\n    }\n\n    // ** extraData public metadata ** //\n\n    /// @param _publicMetaData The public metadata to set.\n    /// @dev Sets public metadata for this trust anchor. This could relate to purpose/status/etc. Any further calls to this will overwrite existing public metadata that has previously been set.\n    /// @return result\n    ///    | 0: trust anchor is not verified\n    ///    | 1: public metadata set\n\n    function setTrustAnchorPublicMetaData(string memory _publicMetaData) public returns (uint8 result) {\n        //@note: need to check Trust Anchor jurisdiction in Trust Anchor manager lookup\n        ITrustAnchorManager trustAnchorManager = ITrustAnchorManager(trustAnchorManagerAddress);\n\n        // check whether trust Anchor manager is verified\n        if (trustAnchorManager.isTrustAnchorVerified(msg.sender)) {\n\n            // set public metadata.\n            extraData_uniqueParameters[msg.sender].publicMetaData = _publicMetaData;\n\n            // emit set event\n            emit EVT_setTrustAnchorPublicMetaData(msg.sender, _publicMetaData);\n\n            //public metadata set\n            return 1;\n        } else {\n            //trust anchor is not verified\n            return 0;\n        }\n    }\n\n    /// @param _trustAnchorAddress The Trust Anchor address related to this unique extraData.\n    /// @dev Gets the public metadata for this Trust Anchor.\n    /// @return publicMetaData the public metadata for this trust anchor\n\n    function getTrustAnchorPublicMetaData(address _trustAnchorAddress) public view returns (string memory publicMetaData) {\n        // returns the public metadata\n        return extraData_uniqueParameters[_trustAnchorAddress].publicMetaData;\n    }\n}\n",
  "sourcePath": "/opt/shyft-ta-node/contracts/TrustAnchorExtraData_Unique.sol",
  "compiler": {
    "name": "solc",
    "version": "0.7.1+commit.f4a555be.Emscripten.clang"
  },
  "schemaVersion": "3.3.4",
  "updatedAt": "2021-09-16T18:34:16.591Z",
  "networkType": "ethereum",
  "devdoc": {
    "details": "| The Trust Anchor Extra Data [Unique] reference contract | This contract is an example of the type of parameters most useful in a Regulatory/Onboarding/Verification context. A very malleable construction of variables is used, with: | a) a mapping of hashes (for lookups on various databases) with a string name for human readability. | b) a mapping of ip endpoints (for the transfer of sensitive documents) with a string name for human readability. | c) a mapping of 256-bit numeric identifiers (for various indexing purposes) with a string name for human readability. | d) a string for public metadata.",
    "events": {
      "EVT_setTrustAnchorEndPointCreated(address,string,uint8[4])": {
        "details": "Event for creating an End Point"
      },
      "EVT_setTrustAnchorEndPointUpdated(address,string,uint8[4])": {
        "details": "Event for updating an End Point"
      },
      "EVT_setTrustAnchorEndpointIsEnabled(address,string,bool)": {
        "details": "Event for Data Retrieval Endpoint is Enabled for a specific Endpoint name."
      },
      "EVT_setTrustAnchorHashMappingCreated(address,string,bytes32)": {
        "details": "Event for creating a Hash Mapping"
      },
      "EVT_setTrustAnchorHashMappingUpdated(address,string,bytes32)": {
        "details": "Event for updating a Hash Mapping"
      },
      "EVT_setTrustAnchorKeyValuePairCreated(address,string,string)": {
        "details": "Event for creating a Key-Value Pair (String to String relationship)"
      },
      "EVT_setTrustAnchorKeyValuePairUpdated(address,string,string)": {
        "details": "Event for updating a Key-Value Pair (String to String relationship)"
      },
      "EVT_setTrustAnchorNumericIdentifierCreated(address,string,uint256)": {
        "details": "Event for creating a Numeric Identifier"
      },
      "EVT_setTrustAnchorNumericIdentifierUpdated(address,string,uint256)": {
        "details": "Event for updating a Numeric Identifier"
      },
      "EVT_setTrustAnchorPublicMetaData(address,string)": {
        "details": "Event for setting Public Metadata"
      }
    },
    "kind": "dev",
    "methods": {
      "constructor": {
        "details": "Initializes this contract with the owner set to the calling public address."
      },
      "doesTrustAnchorHaveUniqueExtraData(address)": {
        "details": "Checks whether a specific Trust Anchor has extraData associated to it, updates if necessary, and returns the status.",
        "params": {
          "_trustAnchorAddress": "The Trust Anchor address that is checked for unique extraData availability."
        },
        "returns": {
          "result": "   | false: trust anchor has no extraData parameters allocated    | true: trust anchor does has extraData parameters allocated"
        }
      },
      "getTrustAnchorDataEndpoint(address,string)": {
        "details": "Gets the data retrieval parameters (whether it exists, the actual endpoint data, and whether it's enabled) for this particular _endpointName.",
        "params": {
          "_endpointName": "The name of the endpoint.",
          "_trustAnchorAddress": "The Trust Anchor address related to this unique extraData."
        },
        "returns": {
          "doesExist": "whether the endpoint data exists, ( false, [0, 0, 0, 0], false ): endpoint data does not exist",
          "ipv4Address": "the ipv4 components",
          "isEnabled": "whether this endpoint is enabled"
        }
      },
      "getTrustAnchorEndpointNameByEndpointKeccak(address,bytes32)": {
        "details": "Gets the endpoint name for a specific endpoint keccak for a Trust Anchor.",
        "params": {
          "_endpointKeccak": "The endpoint keccak",
          "_trustAnchorAddress": "The trust anchor address related to this extraData."
        },
        "returns": {
          "endpointName": "endpoint data exists, returns the endpoint name"
        }
      },
      "getTrustAnchorEndpointNameByIndex(address,uint256)": {
        "details": "Gets the endpoint name for a specific index within the Trust Anchor's endpoint array.",
        "params": {
          "_index": "The index within this Trust Anchor's endpoint array.",
          "_trustAnchorAddress": "The Trust Anchor address related to this unique extraData."
        },
        "returns": {
          "doesExist": "whether the endpoint data exists, ( false, \"\" ): endpoint data does not exist",
          "endpointName": "the endpoint name"
        }
      },
      "getTrustAnchorHashMappingNameByHashMappingKeccak(address,bytes32)": {
        "details": "Gets the hash mapping name for a specific hash mapping keccak for a Trust Anchor.",
        "params": {
          "_hashMappingKeccak": "The hash mapping keccak",
          "_trustAnchorAddress": "The trust anchor address related to this extraData."
        },
        "returns": {
          "hashMappingName": "hash mapping data exists, returns the hash mapping name"
        }
      },
      "getTrustAnchorHashMappingNameByIndex(address,uint256)": {
        "details": "Gets the hash mapping name for a specific index within the Trust Anchor's hash mapping array.",
        "params": {
          "_index": "The index within this Trust Anchor's hash mapping array.",
          "_trustAnchorAddress": "The Trust Anchor address related to this unique extraData."
        },
        "returns": {
          "doesExist": "whether the hash mapping data exists, ( false, \"\" ): hash mapping data does not exist",
          "hashMappingName": "the hash mapping name"
        }
      },
      "getTrustAnchorHashMappingValue(address,string)": {
        "details": "Gets the hash mapping value parameters (whether it exists, the actual hash mapping value) for this particular _hashMappingName.",
        "params": {
          "_hashMappingName": "The name of the hash mapping.",
          "_trustAnchorAddress": "The Trust Anchor address related to this unique extraData."
        },
        "returns": {
          "doesExist": "whether hash mapping data exists, ( false, 0 ): hash mapping data does not exist",
          "hashValue": "the hash mapping value"
        }
      },
      "getTrustAnchorKeyValuePairNameByIndex(address,uint256)": {
        "details": "Gets the key-value pair name (key) for a specific index within the Trust Anchor's key-value pair array.",
        "params": {
          "_index": "The index within this Trust Anchor's key-value pair array.",
          "_trustAnchorAddress": "The Trust Anchor address related to this unique extraData."
        },
        "returns": {
          "doesExist": "whether the key-value pair data exists, ( false, \"\" ): key-value pair data does not exist",
          "keyValuePairName": "the key-value pair name (key)"
        }
      },
      "getTrustAnchorKeyValuePairNameByKeyValuePairKeccak(address,bytes32)": {
        "details": "Gets the key-value pair name for a specific key-value pair keccak for a Trust Anchor.",
        "params": {
          "_keyValuePairKeccak": "The key-value pair keccak",
          "_trustAnchorAddress": "The trust anchor address related to this extraData."
        },
        "returns": {
          "keyValuePairName": "key-value pair data exists, returns the key-value pair name"
        }
      },
      "getTrustAnchorKeyValuePairValue(address,string)": {
        "details": "Gets the key-value pair value parameters (whether it exists, the actual key-value pair value) for this particular _keyValuePairName.",
        "params": {
          "_keyValuePairName": "The name of the key-value pair.",
          "_trustAnchorAddress": "The Trust Anchor address related to this unique extraData."
        },
        "returns": {
          "doesExist": "whether the key-value pair data exists, ( false, \"\" ): key-value pair data does not exist",
          "keyValuePairValue": "the key-value pair value"
        }
      },
      "getTrustAnchorManagerAddress()": {
        "details": "Gets the Trust Anchor Manager associated to this contract.",
        "returns": {
          "result": "trust anchor manager address"
        }
      },
      "getTrustAnchorNumberOfEndpoints(address)": {
        "details": "Gets the number of endpoints associated to this Trust Anchor.",
        "params": {
          "_trustAnchorAddress": "The Trust Anchor address related to this unique extraData."
        },
        "returns": {
          "result": "the number of endpoints associated to this Trust Anchor."
        }
      },
      "getTrustAnchorNumberOfHashMappings(address)": {
        "details": "Gets the number of hash mappings associated to this Trust Anchor.",
        "params": {
          "_trustAnchorAddress": "The Trust Anchor address related to this unique extraData."
        },
        "returns": {
          "result": "the number of hash mappings associated to this Trust Anchor."
        }
      },
      "getTrustAnchorNumberOfKeyValuePairs(address)": {
        "details": "Gets the number of key-value pairs associated to this Trust Anchor.",
        "params": {
          "_trustAnchorAddress": "The Trust Anchor address related to this unique extraData."
        },
        "returns": {
          "result": "the number of key-value pairs associated to this Trust Anchor."
        }
      },
      "getTrustAnchorNumberOfNumericIdentifiers(address)": {
        "details": "Gets the number of numeric identifiers associated to this Trust Anchor.",
        "params": {
          "_trustAnchorAddress": "The Trust Anchor address related to this unique extraData."
        },
        "returns": {
          "result": "the number of numeric identifiers associated to this Trust Anchor."
        }
      },
      "getTrustAnchorNumericIdentifierNameByIndex(address,uint256)": {
        "details": "Gets the numeric identifier name for a specific index within the Trust Anchor's numeric identifier array.",
        "params": {
          "_index": "The index within this Trust Anchor's numeric identifier array.",
          "_trustAnchorAddress": "The Trust Anchor address related to this unique extraData."
        },
        "returns": {
          "doesExist": "whether numeric identifier data exists, ( false, \"\" ): numeric identifier data does not exist",
          "numericIdentifierName": "the numeric identifier name"
        }
      },
      "getTrustAnchorNumericIdentifierNameByNumericIdentifierKeccak(address,bytes32)": {
        "details": "Gets the numeric identifier name for a specific numeric identifier keccak for a Trust Anchor.",
        "params": {
          "_numericIdentifierKeccak": "The numeric identifier keccak",
          "_trustAnchorAddress": "The trust anchor address related to this extraData."
        },
        "returns": {
          "numericIdentifierName": "numeric identifier data exists, returns the numeric identifier name"
        }
      },
      "getTrustAnchorNumericIdentifierValue(address,string)": {
        "details": "Gets the numeric identifier value parameters (whether it exists, the actual numeric identifier value) for this particular _numericIdentifierName.",
        "params": {
          "_numericIdentifierName": "The name of the numeric identifier.",
          "_trustAnchorAddress": "The Trust Anchor address related to this unique extraData."
        },
        "returns": {
          "doesExist": "whether numeric identifier data exists, ( false, 0 ): numeric identifier data does not exist",
          "numericIdentifierValue": "the numeric identifier value"
        }
      },
      "getTrustAnchorPublicMetaData(address)": {
        "details": "Gets the public metadata for this Trust Anchor.",
        "params": {
          "_trustAnchorAddress": "The Trust Anchor address related to this unique extraData."
        },
        "returns": {
          "publicMetaData": "the public metadata for this trust anchor"
        }
      },
      "setTrustAnchorDataRetrievalEndpoint(string,uint8[4])": {
        "details": "Checks whether a specific Trust Anchor has \"generic\" extraData associated to it with a specific endpoint name, updates if necessary, and returns the status. Sets the endpoint to \"enabled\" status if it's being set for the first time.",
        "params": {
          "_endpointName": "The name of the endpoint.",
          "_ipv4Address": "The ipv4 address, an array of 4 uint8's (0-255) corresponding to w.x.y.z components of an ip address."
        },
        "returns": {
          "result": "   | 0: trust anchor is not verified    | 1: endpoint set for the first time    | 2: endpoint updated"
        }
      },
      "setTrustAnchorDataRetrievalEndpointIsEnabled(string,bool)": {
        "details": "Checks whether a specific Trust Anchor has \"generic\" extraData associated to it with a specific endpoint name, and updates the isEnabled if it already exists, and returns the status.",
        "params": {
          "_endpointName": "The name of the endpoint.",
          "_isEnabled": "The boolean yes/no of whether this endpoint should be set to enabled or not."
        },
        "returns": {
          "result": "   | 0: trust anchor is not verified    | 1: endpoint does not exist    | 2: endpoint's enabled status updated"
        }
      },
      "setTrustAnchorHashMapping(string,bytes32)": {
        "details": "Checks whether a specific Trust Anchor has \"unique\" extraData associated to it with a specific hash name, updates if necessary, and returns the status.",
        "params": {
          "_hashName": "The name of the hash mapping.",
          "_hashValue": "The value for this hash mapping, as a bytes32 (256 bits) format."
        },
        "returns": {
          "result": "   | 0: trust anchor is not verified    | 1: hash mapping set for the first time    | 2: hash mapping updated"
        }
      },
      "setTrustAnchorKeyValuePair(string,string)": {
        "details": "Checks whether a specific Trust Anchor has \"unique\" extraData associated to it with a specific key-value pair name, updates if necessary, and returns the status.",
        "params": {
          "_keyValuePairName": "The name of the key-value pair.",
          "_keyValuePairValue": "The value for this key-value pair, as a String format."
        },
        "returns": {
          "result": "   | 0: trust anchor is not verified    | 1: key-value pair set for the first time    | 2: key-value pair updated"
        }
      },
      "setTrustAnchorManagerAddress(address)": {
        "details": "Links Trust Anchor Manager to this contract's function flow.",
        "params": {
          "_trustAnchorManagerAddress": "The smart contract address for the Trust Anchor Manager that should be linked."
        },
        "returns": {
          "result": "   | false: [ will never return false due to require() ]    | true: trust anchor manager address set correctly"
        }
      },
      "setTrustAnchorNumericIdentifier(string,uint256)": {
        "details": "Checks whether a specific Trust Anchor has \"unique\" extraData associated to it with a specific numeric identifier name, updates if necessary, and returns the status.",
        "params": {
          "_numericIdentifierName": "The name of the numeric identifier.",
          "_numericIdentifierValue": "The value for this numeric identifier, as a bytes32 (256 bits) format."
        },
        "returns": {
          "result": "   | 0: trust anchor is not verified    | 1: numeric identifier set for the first time    | 2: numeric identifier updated"
        }
      },
      "setTrustAnchorPublicMetaData(string)": {
        "details": "Sets public metadata for this trust anchor. This could relate to purpose/status/etc. Any further calls to this will overwrite existing public metadata that has previously been set.",
        "params": {
          "_publicMetaData": "The public metadata to set."
        },
        "returns": {
          "result": "   | 0: trust anchor is not verified    | 1: public metadata set"
        }
      }
    },
    "stateVariables": {
      "extraData_uniqueParameters": {
        "details": "Mapping for a Trust Anchor to its unique extraData parameters."
      },
      "owner": {
        "details": "The owner of this contract."
      },
      "trustAnchorManagerAddress": {
        "details": "The Trust Anchor Manager address that this contract is bound to."
      }
    },
    "version": 1
  },
  "userdoc": {
    "kind": "user",
    "methods": {
      "getTrustAnchorEndpointNameByIndex(address,uint256)": {
        "notice": "Checks to make sure that the _index parameter is not out of bounds."
      },
      "getTrustAnchorHashMappingNameByIndex(address,uint256)": {
        "notice": "Checks to make sure that the _index parameter is not out of bounds."
      },
      "getTrustAnchorKeyValuePairNameByIndex(address,uint256)": {
        "notice": "Checks to make sure that the _index parameter is not out of bounds."
      },
      "getTrustAnchorNumericIdentifierNameByIndex(address,uint256)": {
        "notice": "Checks to make sure that the _index parameter is not out of bounds."
      },
      "setTrustAnchorDataRetrievalEndpoint(string,uint8[4])": {
        "notice": "Called by an already setup Trust Anchor."
      },
      "setTrustAnchorDataRetrievalEndpointIsEnabled(string,bool)": {
        "notice": "Called by an already setup Trust Anchor."
      },
      "setTrustAnchorHashMapping(string,bytes32)": {
        "notice": "Called by an already setup Trust Anchor."
      },
      "setTrustAnchorKeyValuePair(string,string)": {
        "notice": "Called by an already setup Trust Anchor."
      },
      "setTrustAnchorNumericIdentifier(string,uint256)": {
        "notice": "Called by an already setup Trust Anchor."
      }
    },
    "version": 1
  }
}