{
  "contractName": "TrustChannelManager_Routing",
  "abi": [
    {
      "inputs": [],
      "stateMutability": "nonpayable",
      "type": "constructor"
    },
    {
      "inputs": [
        {
          "internalType": "address",
          "name": "_shyftCacheGraphAddress",
          "type": "address"
        }
      ],
      "name": "setShyftCacheGraphAddress",
      "outputs": [
        {
          "internalType": "bool",
          "name": "result",
          "type": "bool"
        }
      ],
      "stateMutability": "nonpayable",
      "type": "function"
    },
    {
      "inputs": [
        {
          "internalType": "address",
          "name": "_trustChannelManagerAddress",
          "type": "address"
        }
      ],
      "name": "setTrustChannelManagerAddress",
      "outputs": [
        {
          "internalType": "bool",
          "name": "result",
          "type": "bool"
        }
      ],
      "stateMutability": "nonpayable",
      "type": "function"
    },
    {
      "inputs": [
        {
          "internalType": "address",
          "name": "_senderIdentifiedAddress",
          "type": "address"
        },
        {
          "internalType": "address",
          "name": "_receiverIdentifiedAddress",
          "type": "address"
        },
        {
          "internalType": "uint256",
          "name": "_amount",
          "type": "uint256"
        },
        {
          "internalType": "uint256",
          "name": "_bip32X_type",
          "type": "uint256"
        },
        {
          "internalType": "bool",
          "name": "_requiredConsentFromAllParties",
          "type": "bool"
        },
        {
          "internalType": "bool",
          "name": "_requiredActive",
          "type": "bool"
        }
      ],
      "name": "getRelativeTrustLevelOnlyClean",
      "outputs": [
        {
          "internalType": "int16",
          "name": "relativeTrustLevel",
          "type": "int16"
        },
        {
          "internalType": "int16",
          "name": "externalTrustLevel",
          "type": "int16"
        }
      ],
      "stateMutability": "nonpayable",
      "type": "function"
    },
    {
      "inputs": [
        {
          "internalType": "uint32",
          "name": "_trustChannelIndex",
          "type": "uint32"
        },
        {
          "internalType": "address",
          "name": "_senderIdentifiedAddress",
          "type": "address"
        },
        {
          "internalType": "address",
          "name": "_receiverIdentifiedAddress",
          "type": "address"
        },
        {
          "internalType": "uint256",
          "name": "_amount",
          "type": "uint256"
        },
        {
          "internalType": "uint256",
          "name": "_bip32X_type",
          "type": "uint256"
        },
        {
          "internalType": "bool",
          "name": "_requiredConsentFromAllParties",
          "type": "bool"
        },
        {
          "internalType": "bool",
          "name": "_requiredActive",
          "type": "bool"
        }
      ],
      "name": "getExternalTrustLevel",
      "outputs": [
        {
          "internalType": "bool",
          "name": "success",
          "type": "bool"
        },
        {
          "internalType": "int16",
          "name": "externalTrustLevel",
          "type": "int16"
        }
      ],
      "stateMutability": "nonpayable",
      "type": "function"
    }
  ],
  "bytecode": "0x6080604052600080546001600160a01b0319908116909155600180548216905560028054909116905534801561003457600080fd5b50600080546001600160a01b03191633179055610797806100566000396000f3fe608060405234801561001057600080fd5b506004361061004c5760003560e01c8063160abcac1461005157806381a79caf1461008b578063a06068b414610101578063d058df6614610170575b600080fd5b6100776004803603602081101561006757600080fd5b50356001600160a01b0316610196565b604080519115158252519081900360200190f35b6100e3600480360360e08110156100a157600080fd5b5063ffffffff813516906001600160a01b03602082013581169160408101359091169060608101359060808101359060a081013515159060c0013515156101e5565b60408051921515835260019190910b60208301528051918290030190f35b61014d600480360360c081101561011757600080fd5b506001600160a01b038135811691602081013590911690604081013590606081013590608081013515159060a001351515610402565b604051808360010b81526020018260010b81526020019250505060405180910390f35b6100776004803603602081101561018657600080fd5b50356001600160a01b03166106c7565b60006001600160a01b0382166101ab57600080fd5b6000546001600160a01b031633146101c257600080fd5b50600180546001600160a01b0383166001600160a01b0319909116178155919050565b60025460009081906001600160a01b03168181638f01b3938c600560006040518463ffffffff1660e01b8152600401808463ffffffff1681526020018360ff168152602001828152602001935050505060206040518083038186803b15801561024d57600080fd5b505afa158015610261573d6000803e3d6000fd5b505050506040513d602081101561027757600080fd5b5051604051909150600090602001806049610719823960490190506040516020818303038152906040528051906020012090506060826001600160a01b0316828d8d8d8d8d8d60405160240180876001600160a01b03168152602001866001600160a01b03168152602001858152602001848152602001831515815260200182151581526020019650505050505050604051602081830303815290604052906001600160e01b0319166020820180516001600160e01b0383818316178352505050506040518082805190602001908083835b602083106103685780518252601f199092019160209182019101610349565b6001836020036101000a0380198251168184511680821785525050505050509050019150506000604051808303816000865af19150503d80600081146103ca576040519150601f19603f3d011682016040523d82523d6000602084013e6103cf565b606091505b5080519197509150600090602083019060408110156103ed57600080fd5b50519550505050505097509795505050505050565b600080806001851515141561049b5760015460408051632930629160e11b81526001600160a01b038c811660048301528b8116602483015291519190921691635260c5229160448083019260209291908290030181600087803b15801561046857600080fd5b505af115801561047c573d6000803e3d6000fd5b505050506040513d602081101561049257600080fd5b50519050610521565b6001546040805163ce3b94d760e01b81526001600160a01b038c811660048301528b811660248301529151919092169163ce3b94d79160448083019260209291908290030181600087803b1580156104f257600080fd5b505af1158015610506573d6000803e3d6000fd5b505050506040513d602081101561051c57600080fd5b505190505b63ffffffff818116146106b65760025460408051637c547c2560e11b815263ffffffff8416600482015281516001600160a01b03909316926000928392859263f8a8f84a92602480840193919291829003018186803b15801561058357600080fd5b505afa158015610597573d6000803e3d6000fd5b505050506040513d60408110156105ad57600080fd5b5080516020909101519092509050600160ff83161480156105d057506001871515145b156105de57600095506106ae565b60ff8216156106a95760015460408051632c7573bf60e11b815263ffffffff87166004820152602481018490526001600160a01b038f811660448301528e81166064830152608482018e905260a482018d90528b151560c48301528a151560e483015282519316926358eae77e92610104808401939192918290030181600087803b15801561066c57600080fd5b505af1158015610680573d6000803e3d6000fd5b505050506040513d604081101561069657600080fd5b50805160209091015190965094506106ae565b600095505b5050506106bb565b600092505b50965096945050505050565b60006001600160a01b0382166106dc57600080fd5b6000546001600160a01b031633146106f357600080fd5b50600280546001600160a01b0383166001600160a01b0319909116179055600191905056fe67657452656c617469766554727573744c6576656c4f6e6c79436c65616e28616464726573732c616464726573732c75696e743235362c75696e743235362c626f6f6c2c626f6f6c29a2646970667358221220366760fde9808d4fe0344a83b211fa2827f7cb4e694cb29414f3ff806229a89b64736f6c63430007010033",
  "immutableReferences": {},
  "source": "pragma solidity ^0.7.1;\n//SPDX-License-Identifier: UNLICENSED\n\nimport \"./Libraries/SafeMath.sol\";\n\nimport \"./Interfaces/IShyftCacheGraph.sol\";\n\nimport \"./Interfaces/ITrustChannelManager.sol\";\nimport \"./Interfaces/ITrustChannelRules.sol\";\nimport \"./Interfaces/ITrustChannelManager_Routing.sol\";\nimport \"./DataModels/DMTrustChannelRules.sol\";\n\n/// @dev\n/// | A reference contract related to the Trust Channel Managers's routing contract, used for externally coordinating trusted asset flows.\n/// | An example call within the Shyft Core Contracts architecture is within the ShyftCacheGraph.sol contract, which implements an asset flow.\n\n\ncontract TrustChannelManager_Routing is DMTrustChannelRules, ITrustChannelRules, ITrustChannelManager_Routing {\n    /// @dev using the SafeMath library for any uint256 values.\n    using SafeMath for uint256;\n\n    /// @dev The owner of this contract.\n    address owner = address(0);\n\n    /// @dev The Shyft Cache Graph address that this contract is bound to.\n    address shyftCacheGraphAddress = address(0);\n\n    /// @dev The Trust Anchor Manager address that this contract is bound to.\n    address trustChannelManagerAddress = address(0);\n\n    /// @dev Initializes this contract with the owner set to the calling public address.\n\n    constructor() {\n        owner = msg.sender;\n    }\n\n    /// @param _shyftCacheGraphAddress The smart contract address for the Shyft Cache Graph that should be linked.\n    /// @dev Links the Shyft Cache Graph to this contract's function flow.\n    /// @return result\n    ///    | false: [ will never return false due to require() ]\n    ///    | true: shyft cache graph address set correctly\n\n    function setShyftCacheGraphAddress(address _shyftCacheGraphAddress) public returns (bool result) {\n        require(_shyftCacheGraphAddress != address(0));\n        require(msg.sender == owner);\n\n        shyftCacheGraphAddress = _shyftCacheGraphAddress;\n\n        //shyft cache graph address set correctly\n        return true;\n    }\n\n    /// @param _trustChannelManagerAddress The smart contract address for the Trust Channel Manager that should be linked.\n    /// @dev Links Trust Channel Manager to this contract's function flow.\n    /// @return result\n    ///    | false: [ will never return false due to require() ]\n    ///    | true: trust channel manager address set correctly\n\n    function setTrustChannelManagerAddress(address _trustChannelManagerAddress) public returns (bool result) {\n        require(_trustChannelManagerAddress != address(0));\n        require(msg.sender == owner);\n\n        trustChannelManagerAddress = _trustChannelManagerAddress;\n\n        //trust channel manager address set correctly\n        return true;\n    }\n\n    /// @param _senderIdentifiedAddress the sender's address\n    /// @param _receiverIdentifiedAddress the receiver's address\n    /// @param _amount the amount to transmit\n    /// @param _bip32X_type the token type that is being transmitted\n    /// @param _requiredConsentFromAllParties whether \"consented\" status is required from all parties\n    /// @param _requiredActive whether an \"active\" status is required from the channel\n    /// @dev | This function gets the relative KYC level on a transactional basis between two counterparties. Included in the checks are the baseline information that is needed to determine counterparty conditions.\n    ///      | The other method of calling this function include parameters useful in an \"Assured Asset\" profile.\n    /// @return relativeTrustLevel the relative trust level of the counterparties\n    /// @return externalTrustLevel the external trust level of the counterparties\n\n    //@note: assumes \"active\" and \"active+consented\", trust channel routes\n    // also assumes that \"dirty\" graphs will not be passed in.\n    function getRelativeTrustLevelOnlyClean(address _senderIdentifiedAddress,\n                                            address _receiverIdentifiedAddress,\n                                            uint256 _amount,\n                                            uint256 _bip32X_type,\n                                            bool _requiredConsentFromAllParties,\n                                            bool _requiredActive) public override returns (int16 relativeTrustLevel, int16 externalTrustLevel) {\n        //we avoid this check due to the \"only clean\" status, which is two compares and two storage reads\n        // if (identifiedAddress_to_kycIdentity[_senderIdentifiedAddress].cacheGraph.graphStatus == CacheGraphStatus.Enabled\n        // && identifiedAddress_to_kycIdentity[_receiverIdentifiedAddress].cacheGraph.graphStatus == CacheGraphStatus.Enabled) {\n\n        uint32 trustChannelIndex;\n\n        if (_requiredConsentFromAllParties == true) {\n            trustChannelIndex = IShyftCacheGraph(shyftCacheGraphAddress).getActiveConsentedTrustChannelBitFieldForPair(_senderIdentifiedAddress, _receiverIdentifiedAddress);\n        } else {\n            trustChannelIndex = IShyftCacheGraph(shyftCacheGraphAddress).getActiveTrustChannelBitFieldForPair(_senderIdentifiedAddress, _receiverIdentifiedAddress);\n        }\n\n        if (trustChannelIndex != NoTrustChannel) {\n            ITrustChannelManager trustChannelManager = ITrustChannelManager(trustChannelManagerAddress);\n\n            (uint8 returnCode, uint256 foundChannelRulesBitField) = trustChannelManager.getActiveChannelRulesBitField(trustChannelIndex);\n\n            if (returnCode == 1 && _requiredActive == true) {\n                relativeTrustLevel = 0;\n            } else if (returnCode > 0) {\n\n                (relativeTrustLevel, externalTrustLevel) = IShyftCacheGraph(shyftCacheGraphAddress).calculateRelativeTrustLevel(trustChannelIndex, foundChannelRulesBitField, _senderIdentifiedAddress, _receiverIdentifiedAddress, _amount, _bip32X_type, _requiredConsentFromAllParties, _requiredActive);\n\n                //                emit EVT_getRelativeTrustLevelOnlyCleanDebug(_senderIdentifiedAddress, _receiverIdentifiedAddress, _amount, _bip32X_type, _requiredConsentFromAllParties, _requiredActive);\n                //                emit EVT_getRelativeTrustLevelOnlyCleanDebugExtra(returnCode, foundChannelRulesBitField, totalRules, rulesPassed, relativeTrustLevel, externalTrustLevel, externalRulesPassed);\n            } else {\n                //trust channel does not exist\n                relativeTrustLevel = 0;\n            }\n        } else {\n            relativeTrustLevel = 0;\n        }\n\n        //        ITrustAnchorStorage trustAnchorStorage = ITrustAnchorStorage(trustAnchorStorageAddress);\n\n        return (relativeTrustLevel, externalTrustLevel);//identifiedAddress_to_kycIdentity[_identifiedAddress].cacheGraph.constructedLocalKycLevel;\n\n        // //@note: here's the bloom filter in action, acting as a global aggregate of the whole. checks for\n        // // zero value mean absolutely zero active attestations, without needing to check any external\n        // // arrays.\n\n        // if (documentActiveAggregateBloomFilter > 0) {\n        //     //no bits set in \"active\" bloom filter, hence no valid KYC level.\n        //     return 0;\n        // } else {\n\n        // }\n    }\n\n    /// @param _trustChannelIndex the Index for the Trust Channel this calculation is referencing\n    /// @param _senderIdentifiedAddress the sender's address\n    /// @param _receiverIdentifiedAddress the receiver's address\n    /// @param _amount the amount to transmit\n    /// @param _bip32X_type the token type that is being transmitted\n    /// @param _requiredConsentFromAllParties whether \"consented\" status is required from all parties\n    /// @param _requiredActive whether an \"active\" status is required from the channel\n    /// @dev | An internal function to function generates the relative trust level of the counterparties in relation to all of the Rules set for this Trust Channel. This function checks for a Verification Policy, Amount Limits per transaction, and also enables external checks (defined by the Multisig administrators to the Trust Channel) via an other smart contract address.\n    ///      | Externally referenced smart contracts have the same input/output types as defined in the \"getExternalTrustLevel\" function.\n    /// @return success whether the external trust level returns success\n    /// @return externalTrustLevel the external trust level of the counterparties in respect to the trust channel's routing rules\n\n    function getExternalTrustLevel( uint32 _trustChannelIndex,\n                                    address _senderIdentifiedAddress,\n                                    address _receiverIdentifiedAddress,\n                                    uint256 _amount,\n                                    uint256 _bip32X_type,\n                                    bool _requiredConsentFromAllParties,\n                                    bool _requiredActive) public returns(bool success, int16 externalTrustLevel) {\n        ITrustChannelManager trustChannelManager = ITrustChannelManager(trustChannelManagerAddress);\n\n        //get the contract address from the rules storage, this is all that is needed to perform the next step\n        address exDataContractAddress = address(uint160(uint256(trustChannelManager.getTrustChannelRulesStorage(_trustChannelIndex, uint8(trustChannelRulesEnum.ExternalRoutingContractEnforced), 0))));\n        //address _senderIdentifiedAddress,\n        //address _receiverIdentifiedAddress,\n        //uint256 _amount,\n        //uint256 _bip32X_type,\n        //\n        //uint256 _senderSafeAmount,\n        //bool _requireMinimumAssets,\n        //bool _requireBiometrics,\n        //\n        //bool _requiredConsentFromAllParties,\n        //bool _requiredActive\n        bytes4 sig = bytes4(keccak256(abi.encodePacked(\"getRelativeTrustLevelOnlyClean(address,address,uint256,uint256,bool,bool)\")));\n\n        bytes memory result;\n        (success, result) = exDataContractAddress.call(abi.encodeWithSelector(sig, _senderIdentifiedAddress, _receiverIdentifiedAddress, _amount, _bip32X_type, _requiredConsentFromAllParties, _requiredActive));\n        //check whether the rules' requirement for amount sent to be under or equal to this amount sent.\n        //                        (_amount, _receiver, _tokenLeadContract, _expectedAmount, _expectedSC) = abi.decode(data, (uint, address, address, uint, address));\n        int16 exDataExternalTrustLevel;\n        (externalTrustLevel, exDataExternalTrustLevel) = abi.decode(result, (int16, int16));\n\n        return (success, externalTrustLevel);\n    }\n}\n",
  "sourcePath": "/opt/shyft-ta-node/contracts/TrustChannelManager_Routing.sol",
  "compiler": {
    "name": "solc",
    "version": "0.7.1+commit.f4a555be.Emscripten.clang"
  },
  "schemaVersion": "3.3.4",
  "updatedAt": "2021-09-16T18:31:16.162Z",
  "devdoc": {
    "details": "| A reference contract related to the Trust Channel Managers's routing contract, used for externally coordinating trusted asset flows. | An example call within the Shyft Core Contracts architecture is within the ShyftCacheGraph.sol contract, which implements an asset flow.",
    "kind": "dev",
    "methods": {
      "constructor": {
        "details": "Initializes this contract with the owner set to the calling public address."
      },
      "getExternalTrustLevel(uint32,address,address,uint256,uint256,bool,bool)": {
        "details": "| An internal function to function generates the relative trust level of the counterparties in relation to all of the Rules set for this Trust Channel. This function checks for a Verification Policy, Amount Limits per transaction, and also enables external checks (defined by the Multisig administrators to the Trust Channel) via an other smart contract address.      | Externally referenced smart contracts have the same input/output types as defined in the \"getExternalTrustLevel\" function.",
        "params": {
          "_amount": "the amount to transmit",
          "_bip32X_type": "the token type that is being transmitted",
          "_receiverIdentifiedAddress": "the receiver's address",
          "_requiredActive": "whether an \"active\" status is required from the channel",
          "_requiredConsentFromAllParties": "whether \"consented\" status is required from all parties",
          "_senderIdentifiedAddress": "the sender's address",
          "_trustChannelIndex": "the Index for the Trust Channel this calculation is referencing"
        },
        "returns": {
          "externalTrustLevel": "the external trust level of the counterparties in respect to the trust channel's routing rules",
          "success": "whether the external trust level returns success"
        }
      },
      "getRelativeTrustLevelOnlyClean(address,address,uint256,uint256,bool,bool)": {
        "details": "| This function gets the relative KYC level on a transactional basis between two counterparties. Included in the checks are the baseline information that is needed to determine counterparty conditions.      | The other method of calling this function include parameters useful in an \"Assured Asset\" profile.",
        "params": {
          "_amount": "the amount to transmit",
          "_bip32X_type": "the token type that is being transmitted",
          "_receiverIdentifiedAddress": "the receiver's address",
          "_requiredActive": "whether an \"active\" status is required from the channel",
          "_requiredConsentFromAllParties": "whether \"consented\" status is required from all parties",
          "_senderIdentifiedAddress": "the sender's address"
        },
        "returns": {
          "externalTrustLevel": "the external trust level of the counterparties",
          "relativeTrustLevel": "the relative trust level of the counterparties"
        }
      },
      "setShyftCacheGraphAddress(address)": {
        "details": "Links the Shyft Cache Graph to this contract's function flow.",
        "params": {
          "_shyftCacheGraphAddress": "The smart contract address for the Shyft Cache Graph that should be linked."
        },
        "returns": {
          "result": "   | false: [ will never return false due to require() ]    | true: shyft cache graph address set correctly"
        }
      },
      "setTrustChannelManagerAddress(address)": {
        "details": "Links Trust Channel Manager to this contract's function flow.",
        "params": {
          "_trustChannelManagerAddress": "The smart contract address for the Trust Channel Manager that should be linked."
        },
        "returns": {
          "result": "   | false: [ will never return false due to require() ]    | true: trust channel manager address set correctly"
        }
      }
    },
    "stateVariables": {
      "owner": {
        "details": "The owner of this contract."
      },
      "shyftCacheGraphAddress": {
        "details": "The Shyft Cache Graph address that this contract is bound to."
      },
      "trustChannelManagerAddress": {
        "details": "The Trust Anchor Manager address that this contract is bound to."
      }
    },
    "version": 1
  },
  "userdoc": {
    "kind": "user",
    "methods": {},
    "version": 1
  }
}