{
  "contractName": "Administrable",
  "abi": [
    {
      "inputs": [],
      "stateMutability": "nonpayable",
      "type": "constructor"
    },
    {
      "anonymous": false,
      "inputs": [
        {
          "indexed": false,
          "internalType": "address",
          "name": "_admin",
          "type": "address"
        }
      ],
      "name": "EVT_AdminPromoted",
      "type": "event"
    },
    {
      "anonymous": false,
      "inputs": [
        {
          "indexed": false,
          "internalType": "address",
          "name": "_admin",
          "type": "address"
        }
      ],
      "name": "EVT_AdminRevoked",
      "type": "event"
    },
    {
      "anonymous": false,
      "inputs": [
        {
          "indexed": false,
          "internalType": "address",
          "name": "_admin",
          "type": "address"
        }
      ],
      "name": "EVT_PrimaryAdminAdded",
      "type": "event"
    },
    {
      "inputs": [],
      "name": "numAdministrators",
      "outputs": [
        {
          "internalType": "uint256",
          "name": "",
          "type": "uint256"
        }
      ],
      "stateMutability": "view",
      "type": "function"
    },
    {
      "inputs": [],
      "name": "owner",
      "outputs": [
        {
          "internalType": "address",
          "name": "",
          "type": "address"
        }
      ],
      "stateMutability": "view",
      "type": "function"
    },
    {
      "inputs": [],
      "name": "getAdminConfirmationThreshold",
      "outputs": [
        {
          "internalType": "uint256",
          "name": "results",
          "type": "uint256"
        }
      ],
      "stateMutability": "view",
      "type": "function"
    },
    {
      "inputs": [
        {
          "internalType": "address",
          "name": "_administratorAddress",
          "type": "address"
        }
      ],
      "name": "getAdminAccess",
      "outputs": [
        {
          "internalType": "enum Administrable.AdministratorAccess",
          "name": "result",
          "type": "uint8"
        }
      ],
      "stateMutability": "view",
      "type": "function"
    },
    {
      "inputs": [],
      "name": "getNumAdminConfirmationProposals",
      "outputs": [
        {
          "internalType": "uint256",
          "name": "result",
          "type": "uint256"
        }
      ],
      "stateMutability": "view",
      "type": "function"
    },
    {
      "inputs": [
        {
          "internalType": "uint32",
          "name": "_proposalIndex",
          "type": "uint32"
        }
      ],
      "name": "getAdminConfirmationProposal",
      "outputs": [
        {
          "internalType": "uint256",
          "name": "adminThreshold",
          "type": "uint256"
        },
        {
          "internalType": "uint256",
          "name": "endTime",
          "type": "uint256"
        },
        {
          "internalType": "bool",
          "name": "isCompleted",
          "type": "bool"
        }
      ],
      "stateMutability": "view",
      "type": "function"
    },
    {
      "inputs": [
        {
          "internalType": "uint256",
          "name": "_newThreshold",
          "type": "uint256"
        }
      ],
      "name": "proposeChangeCurrentAdminConfirmationThreshold",
      "outputs": [
        {
          "internalType": "uint8",
          "name": "result",
          "type": "uint8"
        }
      ],
      "stateMutability": "nonpayable",
      "type": "function"
    },
    {
      "inputs": [
        {
          "internalType": "uint32",
          "name": "_proposalIndex",
          "type": "uint32"
        }
      ],
      "name": "changeCurrentAdminConfirmationThreshold",
      "outputs": [
        {
          "internalType": "uint8",
          "name": "result",
          "type": "uint8"
        }
      ],
      "stateMutability": "nonpayable",
      "type": "function"
    },
    {
      "inputs": [
        {
          "internalType": "address",
          "name": "_newAdministratorAddress",
          "type": "address"
        }
      ],
      "name": "setPrimaryAdministrator",
      "outputs": [
        {
          "internalType": "uint8",
          "name": "result",
          "type": "uint8"
        }
      ],
      "stateMutability": "nonpayable",
      "type": "function"
    },
    {
      "inputs": [
        {
          "internalType": "address",
          "name": "_newAdministratorAddress",
          "type": "address"
        }
      ],
      "name": "promoteAdministrator",
      "outputs": [
        {
          "internalType": "uint8",
          "name": "result",
          "type": "uint8"
        }
      ],
      "stateMutability": "nonpayable",
      "type": "function"
    },
    {
      "inputs": [
        {
          "internalType": "address",
          "name": "_revokeAdministratorAddress",
          "type": "address"
        }
      ],
      "name": "revokeAdministrator",
      "outputs": [
        {
          "internalType": "uint8",
          "name": "result",
          "type": "uint8"
        }
      ],
      "stateMutability": "nonpayable",
      "type": "function"
    },
    {
      "inputs": [
        {
          "internalType": "address",
          "name": "_administratorAddress",
          "type": "address"
        }
      ],
      "name": "isAdministrator",
      "outputs": [
        {
          "internalType": "bool",
          "name": "result",
          "type": "bool"
        }
      ],
      "stateMutability": "view",
      "type": "function"
    }
  ],
  "bytecode": "0x6080604052600260005534801561001557600080fd5b50600180546001600160a01b03191633179055610e6d806100376000396000f3fe608060405234801561001057600080fd5b50600436106100b35760003560e01c806349d222501161007157806349d22250146101d75780637a303a9c146101f45780638da5cb5b146101fc578063b9568dd814610220578063d9af51e314610243578063f3e512d31461028a576100b3565b8062913af6146100b8578063064ad7c2146100fb5780630a2eb3011461013757806323dfe730146101715780633370426d146101975780634402bba3146101b1575b600080fd5b6100db600480360360208110156100ce57600080fd5b503563ffffffff16610292565b604080519384526020840192909252151582820152519081900360600190f35b6101216004803603602081101561011157600080fd5b50356001600160a01b0316610319565b6040805160ff9092168252519081900360200190f35b61015d6004803603602081101561014d57600080fd5b50356001600160a01b03166103bd565b604080519115158252519081900360200190f35b6101216004803603602081101561018757600080fd5b50356001600160a01b03166103f8565b61019f610660565b60408051918252519081900360200190f35b610121600480360360208110156101c757600080fd5b50356001600160a01b0316610666565b610121600480360360208110156101ed57600080fd5b503561083f565b61019f610921565b610204610927565b604080516001600160a01b039092168252519081900360200190f35b6101216004803603602081101561023657600080fd5b503563ffffffff16610936565b6102696004803603602081101561025957600080fd5b50356001600160a01b0316610afd565b6040518082600281111561027957fe5b815260200191505060405180910390f35b61019f610b1b565b600080600060068463ffffffff16815481106102aa57fe5b90600052602060002090600302016000015460068563ffffffff16815481106102cf57fe5b90600052602060002090600302016001015460068663ffffffff16815481106102f457fe5b6000918252602090912060026003909202010154919450925060ff1690509193909250565b6001546000906001600160a01b03163314156103b4576003546103ac576001600160a01b038216600090815260026020526040902080546001919060ff191682800217905550600380546001019055604080516001600160a01b038416815290517f1767f5d6fdb0884c185778bf3ba4d303dc6af28da0798c96577f7c5450631d8b9181900360200190a15060026103b8565b5060016103b8565b5060005b919050565b600060016001600160a01b03831660009081526002602081905260409091205460ff16908111156103ea57fe5b14156103b4575060016103b8565b6000610403336103bd565b156103b45760016001600160a01b03831660009081526002602081905260409091205460ff169081111561043357fe5b146103ac576002600354106105ad576040805173383937b6b7ba32a0b236b4b734b9ba3930ba37b960611b6020808301919091526bffffffffffffffffffffffff19606086901b166034830152825160288184030181526048909201909252805191012060006104a282610b21565b90506000805482106104b6575060016104d3565b60006104c184610b46565b905060005481106104d157600191505b505b600181151514156105a1576001600160a01b0385166000908152600260205260409020805460ff1916600190811790915560038054909101905561051683610c50565b50610559426040516020018080671c1c9bdb5bdd195960c21b81525060080182815260200191505060405160208183030381529060405280519060200120610d4f565b604080516001600160a01b038716815290517f7f477eb04f5a964ab231fdc42872d9356c3010171ed2c961d9166f49239786979181900360200190a1600293505050506103b8565b600393505050506103b8565b6001600160a01b038216600090815260026020908152604091829020805460ff191660019081179091556003805490910190558151671c1c9bdb5bdd195960c21b8183015242602880830191909152835180830390910181526048909101909252815191012061061c90610d4f565b604080516001600160a01b038416815290517f7f477eb04f5a964ab231fdc42872d9356c3010171ed2c961d9166f49239786979181900360200190a15060026103b8565b60065490565b6000610671336103bd565b156103b45760016001600160a01b03831660009081526002602081905260409091205460ff16908111156106a157fe5b14156103ac57604080517f61646d696e697374726174696f6e5265766f636174696f6e566f7465000000006020808301919091526bffffffffffffffffffffffff19606086901b16603c8301528251603081840301815260509092019092528051910120600061071082610b21565b905060008054821061072457506001610741565b600061072f84610b46565b9050600054811061073f57600191505b505b60018115151415610833576001600160a01b038516600090815260026020818152604092839020805460ff1916909217909155600380546000190190558151661c995d9bdad95960ca1b818301524260278083019190915283518083039091018152604790910190925281519101206107b990610d4f565b60005460035410156107e157600260035411156107db576003546000556107e1565b60026000555b6107ea83610c50565b50604080516001600160a01b038716815290517f79830203ee788345fbc4b7afa193ed483738eaecd94975fa1fa50c09c9a5be1f9181900360200190a1600393505050506103b8565b600293505050506103b8565b600061084a336103bd565b156103b45760008211801561086157506003548211155b156103ac5761086e610db8565b828152426202a30001602082019081526006805460018101825560009190915282517ff652222313e28459528d920b65115c16c04f3efc82aaedc97be59f3f377c0d3f60039092029182015590517ff652222313e28459528d920b65115c16c04f3efc82aaedc97be59f3f377c0d408201556040909101517ff652222313e28459528d920b65115c16c04f3efc82aaedc97be59f3f377c0d41909101805460ff19169115159190911790555060026103b8565b60005490565b6001546001600160a01b031681565b6000610941336103bd565b156103b45760065463ffffffff831610156103ac5760035460068363ffffffff168154811061096c57fe5b90600052602060002090600302016000015411610af55760068263ffffffff168154811061099657fe5b600091825260209091206002600390920201015460ff161580156109de575060068263ffffffff16815481106109c857fe5b9060005260206000209060030201600101544211155b15610aed576000826040516020018080610e16602291396022018263ffffffff1660e01b81526004019150506040516020818303038152906040528051906020012090506000610a2d82610b21565b9050600080548210610a4157506001610a5e565b6000610a4c84610b46565b90506000548110610a5c57600191505b505b60018115151415610ae15760068563ffffffff1681548110610a7c57fe5b906000526020600020906003020160000154600081905550600160068663ffffffff1681548110610aa957fe5b60009182526020909120600390910201600201805460ff1916911515919091179055610ad483610c50565b50600593505050506103b8565b600493505050506103b8565b5060036103b8565b5060026103b8565b6001600160a01b031660009081526002602052604090205460ff1690565b60035481565b600080610b2d83610d89565b6000908152600460205260409020600201549392505050565b6000610b51336103bd565b156103b4576000610b6183610d89565b600354600082815260046020526040902060020154919250118015610bdc5750600081815260046020908152604080832033845290915281205460ff166003811115610ba957fe5b1480610bdc57506003600082815260046020908152604080832033845290915290205460ff166003811115610bda57fe5b145b15610c37576000818152600460208181526040808420600281018054600190810190915533808752828552928620805460ff191682179055938352830180549384018155845292200180546001600160a01b03191690911790555b60009081526004602052604090206002015490506103b8565b6000610c5b336103bd565b156103b4576000610c6b83610d89565b60008181526004602052604090206002015490915015610d455760005b600082815260046020526040902060010154811015610d09576000828152600460205260408120600181018054600393919085908110610cc457fe5b60009182526020808320909101546001600160a01b031683528201929092526040019020805460ff19166001836003811115610cfc57fe5b0217905550600101610c88565b506000818152600460205260408120610d2791600190910190610ddb565b600090815260046020526040812060029081019190915590506103b8565b60019150506103b8565b6005548160405160200180838152602001828152602001925050506040516020818303038152906040528051906020012060058190555050565b600554604080516020808201939093528082019390935280518084038201815260609093019052815191012090565b604051806060016040528060008152602001600081526020016000151581525090565b5080546000825590600052602060002090810190610df99190610dfc565b50565b5b80821115610e115760008155600101610dfd565b509056fe61646d696e436f6e6669726d6174696f6e5468726573686f6c6450726f706f73616ca2646970667358221220fc50e5ff66ec75fc8bfc55374f7e65772b813b958653d87e9b7c94f0e59540c264736f6c63430007010033",
  "immutableReferences": {},
  "source": "pragma solidity ^0.7.1;\n//SPDX-License-Identifier: UNLICENSED\n\n// Administrable Contract:\n//\n// The basic keyed permission access is done with a multiple signing & revocation certificate mechanism.\n// Built to be as light-weight as possible and still provide the flexibility required to manage full stack\n// dApp integrations.\n//\n// add/remove and threshold setting.\n\n// @note:@security:@safety:@internalaudit: This function needs to be fully vetted and edge cases examined & documented.\n\ncontract Administrable {\n    ///@dev An event for primary admin added.\n    event EVT_PrimaryAdminAdded(address _admin);\n    ///@dev An event for admin promotion.\n    event EVT_AdminPromoted(address _admin);\n    ///@dev An event for admin revocation.\n    event EVT_AdminRevoked(address _admin);\n\n    ///@dev An enum that is used to check whether the current state of the administrator has \"administrative powers\" so that we can keep a history of addresses that have acted as administrators, active or not.\n    enum AdministratorAccess { Unknown, Promoted, Demoted }\n\n    /// @dev An enum that is used to check the state of an administrators vote for multisig\n    enum KeyPermissionAccess { Unknown, Signed, Revoked, Reset }\n\n    /// @dev The minimum NofM multisig administrators confirmation thresholds.\n    uint256 constant minimumMultiSignAdminConfirmationThreshold = 2;\n\n    /// @dev The current NofM multisig administrators confirmation thresholds.\n    uint256 adminConfirmationThreshold = 2;\n\n    /// @dev A struct for the key permissions for a specific administrator.\n    struct keyPermissions {\n        mapping(address => KeyPermissionAccess) administratorSignatures;\n        address[] administrators;\n\n        uint256 numConfirmations;\n    }\n\n    /// @dev The constract creator/owner.\n    address public owner;\n\n    /// @dev A mapping of public addresses of public addresses to administrator access.\n    mapping (address => AdministratorAccess) administrators;\n    /// @dev The current number of administrators.\n    uint256 public numAdministrators;\n\n    /// @dev A mapping for a specific administrator public address to their multisigned key permissions array.\n    mapping (bytes32 => keyPermissions) administratorMultisignPermissionedKeys;\n\n    /// @dev A struct for the administration confirmation proposals.\n    struct changeAdminConfirmationsProposal {\n        uint256 adminThreshold;\n        uint256 endTime;\n        bool isCompleted;\n    }\n\n    /// @dev The current voting set nonce - updates on promotion/demotion of administrators to block stale sets from voting.\n    bytes32 votingSetNonce;\n\n    /// @dev An array of changes to the administrator NofM threshold confirmation\n    changeAdminConfirmationsProposal[] proposals_changeAdminConfirmationThreshold;\n\n    /// @dev Basic constructor function, sets owner to the contract creator.\n    constructor() {\n        owner = msg.sender;\n    }\n\n    // ** administrator management ** //\n    /// @dev Gets the NofM threshold currently required for passing multisig votes.\n    /// @return results the current NofM threshold\n    function getAdminConfirmationThreshold() public view returns (uint256 results) {\n        return adminConfirmationThreshold;\n    }\n\n    /// @dev Gets the level of access for a specific administrator.\n    /// @return result the level of access for this administrator\n    function getAdminAccess(address _administratorAddress) public view returns(AdministratorAccess result) {\n        return administrators[_administratorAddress];\n    }\n\n    //@note: difficulties in management arise:\n    // 1. if the current administrator(s) add new participants, the voting threshold remains, and thus means a hostile\n    //    takeover is possible since new (sybil) administrators can vote to remove legitimate ones by threshold voting.\n    //    @todo:@research:\n    //\n    // 2. if the current administrators first create one vote to change the threshold, the next administrator to start\n    //    a new vote tries to create a threshold as well.\n    //\n    //    voting and confirming an older threshold vote will still work as long as the threshold is lower than the\n    //    maximum number of signatures. so a (coalition) of bad actor administrators could hold off on the last vote,\n    //    then when good actor administrators created a new vote, could pass it and then later on reset it to the value\n    //    that the good actors set.\n    //\n    //    thus, we use the flexibility of the hashing system (with a sanity check) to add a 2 day maximum time period.\n    //    as organization is able to be done such that a proper honest coalition is made, a proposal is initiated and\n    //    then the voting begins with a 2 day window.\n\n    /// @dev Gets the number of a specific NofM change proposal.\n    /// @return result the number of a specific NofM proposals\n\n    function getNumAdminConfirmationProposals() public view returns (uint256 result) {\n        return proposals_changeAdminConfirmationThreshold.length;\n    }\n\n    /// @param _proposalIndex A proposal index\n    /// @dev Gets the components of a specific NofM change proposal.\n    /// @return adminThreshold the threshold of the NofM voting within this proposal\n    /// @return endTime the end time of this proposal, after which it cannot be voted on\n    /// @return isCompleted whether this proposal has been completed by multisig parties\n\n    function getAdminConfirmationProposal(uint32 _proposalIndex) public view returns (uint256 adminThreshold, uint256 endTime, bool isCompleted) {\n        return (proposals_changeAdminConfirmationThreshold[_proposalIndex].adminThreshold, proposals_changeAdminConfirmationThreshold[_proposalIndex].endTime, proposals_changeAdminConfirmationThreshold[_proposalIndex].isCompleted);\n    }\n\n    /// @param _newThreshold The new threshold (N of M multisig) that is needed to be passed.\n    /// @dev This function proposes a change to the threshold of voting required (N signatories of M total set size = NofM). To prevent stale inattention results, timeout after 2 days.\n    /// @return result\n    ///    | 0 = not an administrator\n    ///    | 1 = not enough administrators to achieve confirmation threshold\n    ///    | 2 = new proposal added\n\n    function proposeChangeCurrentAdminConfirmationThreshold(uint256 _newThreshold) public returns (uint8 result) {\n        if (isAdministrator(msg.sender)) {\n            if (_newThreshold > 0 && _newThreshold <= numAdministrators) {\n                changeAdminConfirmationsProposal memory newProposal;\n                newProposal.adminThreshold = _newThreshold;\n                // setup time stamping for validity periods, end time set for 2 days.\n                newProposal.endTime = block.timestamp + 2 days;\n\n                proposals_changeAdminConfirmationThreshold.push(newProposal);\n\n                // new proposal added\n                return 2;\n            } else {\n                // not enough administrators to achieve confirmation threshold\n                return 1;\n            }\n        } else {\n            // not an administrator\n            return 0;\n        }\n    }\n\n    /// @param _proposalIndex The index for a specific proposal to change the current administrator confirmation threshold.\n    /// @dev | This function takes in an index for a proposal ot change the current administrator confirmation threshold.\n    ///      | Uses Multi-signature permissions.\n    /// @notice Multiple proposals can be constructed for different sets to apply to change the administrator threshold. As the permissions for multisig keys use a voting set nonce underneath the hood, a change in the current administrator set will cancel all current votes.\n    /// @return result\n    ///    | 0 = not an administrator\n    ///    | 1 = invalid proposal index\n    ///    | 2 = not enough administrators to achieve confirmation threshold\n    ///    | 3 = proposal has expired\n    ///    | 4 = not enough administrators have permissioned change\n    ///    | 5 = admin confirmation threshold set\n\n    function changeCurrentAdminConfirmationThreshold(uint32 _proposalIndex) public returns (uint8 result) {\n        if (isAdministrator(msg.sender)) {\n            if (_proposalIndex < proposals_changeAdminConfirmationThreshold.length) {\n                // sanity check for administrators being able to fulfill threshold.\n                if (proposals_changeAdminConfirmationThreshold[_proposalIndex].adminThreshold <= numAdministrators) {\n                    if (proposals_changeAdminConfirmationThreshold[_proposalIndex].isCompleted == false && block.timestamp <= proposals_changeAdminConfirmationThreshold[_proposalIndex].endTime) {\n                        bytes32 keyKeccak = keccak256(abi.encodePacked(\"adminConfirmationThresholdProposal\", _proposalIndex));\n\n                        uint256 numPermissions = getPermissionsForMultisignKey(keyKeccak);\n\n                        bool permittedToModify;\n\n                        if (numPermissions >= adminConfirmationThreshold) {\n                            permittedToModify = true;\n                        } else {\n                            uint256 numConfirmedPermissions = adminApplyAndGetPermissionsForMultisignKey(keyKeccak);\n\n                            if (numConfirmedPermissions >= adminConfirmationThreshold) {\n                                permittedToModify = true;\n                            }\n                        }\n\n                        if (permittedToModify == true) {\n                            adminConfirmationThreshold = proposals_changeAdminConfirmationThreshold[_proposalIndex].adminThreshold;\n\n                            // set the endTime for this proposal to zero, disabling further voting on this proposal\n\n                            proposals_changeAdminConfirmationThreshold[_proposalIndex].isCompleted = true;\n\n                            adminResetPermissionsForMultisignKey(keyKeccak);\n\n                            // admin confirmation threshold set\n                            return 5;\n                        } else {\n                            // not enough administrators have permissioned change\n                            return 4;\n                        }\n                    } else {\n                        // proposal has expired\n                        return 3;\n                    }\n                } else {\n                    // not enough administrators to achieve confirmation threshold\n                    return 2;\n                }\n            } else {\n                // invalid proposal index\n                return 1;\n            }\n        } else {\n            // not an administrator\n            return 0;\n        }\n    }\n\n    /// @param _newAdministratorAddress The new Administrator's public address.\n    /// @dev Sets the primary Administrator for this contract (or those that inherit from it). This transfers ownership of this contracts first administration duties (to find and onboard a second party for multisignature requirements) to the set Administrator's public address.\n    /// @return result\n    ///    | 0 = not owner\n    ///    | 1 = already set first administrator\n    ///    | 2 = setup first administrator\n\n    function setPrimaryAdministrator(address _newAdministratorAddress) public virtual returns (uint8 result) {\n        if (msg.sender == owner) {\n            if (numAdministrators == 0) {\n                administrators[_newAdministratorAddress] = AdministratorAccess.Promoted;\n                numAdministrators++;\n\n                emit EVT_PrimaryAdminAdded(_newAdministratorAddress);\n\n                //setup first administrator\n                return 2;\n            } else {\n\n                //already set first administrator\n                return 1;\n            }\n        } else {\n            //not owner\n            return 0;\n        }\n    }\n\n    /// @param _newAdministratorAddress The new Administrator's public address.\n    /// @dev | Promotes a new administrator. If there is only a primary Administrator set, this will allow the addition of the second administrator and enable multisignature requirements for any actions of this contract (or those inheriting it).\n    ///      | Uses Multi-signature permissions if there is more than one Administrator onboarded.\n    /// @notice | Uses composition features (based on current validator set) so data structure may be orphaned when promotion/demotion events occur.\n    ///         | Whenever this function is called (with a passing vote), there will be a re-hashing of the voting set nonce, so all current votes will become invalidated.\n    /// @return result\n    ///    | 0 = not administrator\n    ///    | 1 = administrator already promoted\n    ///    | 2 = new administrator promoted\n    ///    | 3 = added vote to promote administrator\n\n    function promoteAdministrator(address _newAdministratorAddress) public virtual returns (uint8 result) {\n        if (isAdministrator(msg.sender)) {\n            if (administrators[_newAdministratorAddress] != AdministratorAccess.Promoted) {\n                //check for past the initial onboarding threshold limit\n                if (numAdministrators >= minimumMultiSignAdminConfirmationThreshold) {\n                    bytes32 keyKeccak = keccak256(abi.encodePacked(\"promoteAdministrator\", _newAdministratorAddress));\n\n                    uint256 numPermissions = getPermissionsForMultisignKey(keyKeccak);\n\n                    bool permittedToModify;\n\n                    if (numPermissions >= adminConfirmationThreshold) {\n                        permittedToModify = true;\n                    } else {\n                        uint256 numConfirmedPermissions = adminApplyAndGetPermissionsForMultisignKey(keyKeccak);\n\n                        if (numConfirmedPermissions >= adminConfirmationThreshold) {\n                            permittedToModify = true;\n                        }\n                    }\n\n                    if (permittedToModify == true) {\n                        administrators[_newAdministratorAddress] = AdministratorAccess.Promoted;\n                        numAdministrators++;\n\n                        adminResetPermissionsForMultisignKey(keyKeccak);\n\n                        updateVotingSetNonce(keccak256(abi.encodePacked(\"promoted\", block.timestamp)));\n\n                        emit EVT_AdminPromoted(_newAdministratorAddress);\n\n                        //promoted administrator\n                        return 2;\n                    } else {\n                        //added vote to promote administrator\n                        return 3;\n                    }\n                } else {\n                    administrators[_newAdministratorAddress] = AdministratorAccess.Promoted;\n                    numAdministrators++;\n\n                    updateVotingSetNonce(keccak256(abi.encodePacked(\"promoted\", block.timestamp)));\n\n                    emit EVT_AdminPromoted(_newAdministratorAddress);\n\n                    //administrator promoted\n                    return 2;\n                }\n            } else {\n                //administrator already promoted\n                return 1;\n            }\n        } else {\n            //not administrator\n            return 0;\n        }\n    }\n\n    /// @param _revokeAdministratorAddress An existing Administrator's public address.\n    /// @dev | Revokes an existing administrator from the multisignature set, checks to see if the # of required votes would be higher then the administrator set size, and if so adjusts to match.\n    ///      | Uses Multi-signature permissions if there is more than one Administrator onboarded.\n    /// @notice | Uses composition features (based on current validator set) so data structure may be orphaned when promotion/demotion events occur.\n    ///         | Whenever this function is called (with a passing vote), there will be a re-hashing of the voting set nonce, so all current votes will become invalidated.\n    /// @return result\n    //    | 0 = not administrator\n    //    | 1 = administrator already inactive\n    //    | 2 = added vote to revoke administrator\n    //    | 3 = revoked administrator\n\n    function revokeAdministrator(address _revokeAdministratorAddress) public virtual returns (uint8 result) {\n        if (isAdministrator(msg.sender)) {\n            if (administrators[_revokeAdministratorAddress] == AdministratorAccess.Promoted) {\n                bytes32 keyKeccak = keccak256(abi.encodePacked(\"administrationRevocationVote\", _revokeAdministratorAddress));\n\n                uint256 numPermissions = getPermissionsForMultisignKey(keyKeccak);\n\n                bool permittedToModify;\n\n                if (numPermissions >= adminConfirmationThreshold) {\n                    permittedToModify = true;\n                } else {\n                    uint256 numConfirmedPermissions = adminApplyAndGetPermissionsForMultisignKey(keyKeccak);\n\n                    if (numConfirmedPermissions >= adminConfirmationThreshold) {\n                        permittedToModify = true;\n                    }\n                }\n\n                if (permittedToModify == true) {\n                    administrators[_revokeAdministratorAddress] = AdministratorAccess.Demoted;\n\n                    numAdministrators--;\n\n                    updateVotingSetNonce(keccak256(abi.encodePacked(\"revoked\", block.timestamp)));\n\n                    //@note: sanity check.. if admins are revoked past a threshold there can be no threshold confirmations\n                    // possible, so reduce the adminConfirmationThreshold to match. Given the promoteAdministrator\n                    // functionality, 2 is the lowest limit, and this will never restrict the second administrator being\n                    // added.\n\n                    if (numAdministrators < adminConfirmationThreshold) {\n                        if (numAdministrators > minimumMultiSignAdminConfirmationThreshold) {\n                            adminConfirmationThreshold = numAdministrators;\n                        } else {\n                            adminConfirmationThreshold = minimumMultiSignAdminConfirmationThreshold;\n                        }\n                    }\n\n                    adminResetPermissionsForMultisignKey(keyKeccak);\n\n                    emit EVT_AdminRevoked(_revokeAdministratorAddress);\n\n                    //revoked administrator\n                    return 3;\n                } else {\n                    //added vote to revoke administrator\n                    return 2;\n                }\n            } else {\n                //administrator already inactive\n                return 1;\n            }\n        } else {\n            //not administrator\n            return 0;\n        }\n    }\n\n    /// @param _mix A reference for the new voting set nonce to incorporate into the next \"mix\".\n    /// @dev updates the voting set nonce.\n\n    function updateVotingSetNonce(bytes32 _mix) internal {\n        votingSetNonce = keccak256(abi.encodePacked(votingSetNonce, _mix));\n    }\n\n    /// @param _keyKeccak A hash to reference as the key/value vote subject.\n    /// @dev Composes a new key keccak based on the further hashing of it with the current voting set nonce. This creates a situation where if all of the multisig check/update logic is \"behind the scenes\" and using this function as a reference to the \"true\" key/value pair, there will never be a situation where a vote can be completed by removing a contrary agent from the multisig pool (ie. there will need to be a new voting session based on the current validator set).\n    /// @return result new composed key keccak\n\n    function composeKeyKeccak(bytes32 _keyKeccak) internal view returns (bytes32 result) {\n        return keccak256(abi.encodePacked(votingSetNonce, _keyKeccak));\n    }\n\n    /// @param _keyKeccak A hash to reference as the key/value vote subject.\n    /// @dev Gets whether there have been a specific number of multisignature confirmations for a specific vote.\n    /// @notice Uses composition features (based on current validator set) so data structure may be orphaned when promotion/demotion events occur.\n    /// @return result 0 to numAdministrators = #confirmations\n\n    function getPermissionsForMultisignKey(bytes32 _keyKeccak) internal view returns (uint256 result) {\n        bytes32 composedKeyKeccak = composeKeyKeccak(_keyKeccak);\n        //(one to the numAdministrators) #confirmations\n        return administratorMultisignPermissionedKeys[composedKeyKeccak].numConfirmations;\n    }\n\n    /// @param _keyKeccak A hash to reference as the key/value vote subject.\n    /// @dev Gets whether the admin is already confirmed with a multisignature vote.\n    /// @notice Uses composition features (based on current validator set) so data structure may be orphaned when promotion/demotion events occur.\n    /// @return result\n    ///    | 0 = not administrator\n    ///    | 1 = signature not found\n    ///    | 2 = signature found\n    ///    | 3 = access revoked\n\n    function adminGetSelfConfirmedFromMultisignKey(bytes32 _keyKeccak) internal view returns (uint16 result) {\n        if (isAdministrator(msg.sender)) {\n            bytes32 composedKeyKeccak = composeKeyKeccak(_keyKeccak);\n\n            if (administratorMultisignPermissionedKeys[composedKeyKeccak].administratorSignatures[msg.sender] == KeyPermissionAccess.Revoked) {\n                //access revoked\n                return 3;\n            } else if (administratorMultisignPermissionedKeys[composedKeyKeccak].administratorSignatures[msg.sender] == KeyPermissionAccess.Signed) {\n                //signature found\n                return 2;\n            } else {\n                //signature not found\n                return 1;\n            }\n        } else {\n            //not administrator\n            return 0;\n        }\n    }\n\n    /// @param _keyKeccak A hash to reference as the key/value vote subject.\n    /// @dev Applies an administrator's vote & updates the votes for a specific multisignature key/value object.\n    /// @notice Uses composition features (based on current validator set) so data structure may be orphaned when promotion/demotion events occur.\n    /// @return result\n    ///    | 0 = not administrator\n    ///    | 1 to numAdministrators = #confirmations\n\n    function adminApplyAndGetPermissionsForMultisignKey(bytes32 _keyKeccak) internal virtual returns (uint256 result) {\n        if (isAdministrator(msg.sender)) {\n            bytes32 composedKeyKeccak = composeKeyKeccak(_keyKeccak);\n\n            if (administratorMultisignPermissionedKeys[composedKeyKeccak].numConfirmations < numAdministrators &&\n                (administratorMultisignPermissionedKeys[composedKeyKeccak].administratorSignatures[msg.sender] == KeyPermissionAccess.Unknown ||\n                administratorMultisignPermissionedKeys[composedKeyKeccak].administratorSignatures[msg.sender] == KeyPermissionAccess.Reset)) {\n                // increase permission level of the key, apply signature.\n                administratorMultisignPermissionedKeys[composedKeyKeccak].numConfirmations++;\n                administratorMultisignPermissionedKeys[composedKeyKeccak].administratorSignatures[msg.sender] = KeyPermissionAccess.Signed;\n\n                administratorMultisignPermissionedKeys[composedKeyKeccak].administrators.push(msg.sender);\n            }\n\n            //(one to the numAdministrators) #confirmations\n            return administratorMultisignPermissionedKeys[composedKeyKeccak].numConfirmations;\n        } else {\n            //not administrator\n            return 0;\n        }\n    }\n\n    /// @param _keyKeccak A hash to reference as the key/value vote subject.\n    /// @dev Resets the permissions for a specific multisignature key/value object.\n    /// @notice Uses composition features (based on current validator set) so data structure may be orphaned when promotion/demotion events occur.\n    /// @return result\n    ///    | 0 = not administrator\n    ///    | 1 = already reset\n    ///    | 2 = reset correctly\n\n    function adminResetPermissionsForMultisignKey(bytes32 _keyKeccak) internal returns (uint8 result) {\n        if (isAdministrator(msg.sender)) {\n            bytes32 composedKeyKeccak = composeKeyKeccak(_keyKeccak);\n\n            if (administratorMultisignPermissionedKeys[composedKeyKeccak].numConfirmations != 0) {\n                //remove administrator references\n                for (uint i = 0; i < administratorMultisignPermissionedKeys[composedKeyKeccak].administrators.length; i++) {\n                    administratorMultisignPermissionedKeys[composedKeyKeccak].administratorSignatures[administratorMultisignPermissionedKeys[composedKeyKeccak].administrators[i]] = KeyPermissionAccess.Reset;\n                }\n\n\n                //delete the main holding array\n                delete administratorMultisignPermissionedKeys[composedKeyKeccak].administrators;\n\n                //and reset the permission level\n                administratorMultisignPermissionedKeys[composedKeyKeccak].numConfirmations = 0;\n\n                //reset correctly\n                return 2;\n            } else {\n                //already reset\n                return 1;\n            }\n        } else {\n            //not administrator\n            return 0;\n        }\n    }\n\n    /// @param _confirmationNumber A number to reference as the confirmation number\n    /// @dev Returns whether a reference number is over the system's administrator confirmation threshold (ie. the vote passes).\n    /// @return result\n    ///    | true = is over threshold\n    ///    | false = not over threshold\n\n    function isConfirmationsIsOverThreshold(uint256 _confirmationNumber) internal view returns (bool result) {\n        if (_confirmationNumber >= adminConfirmationThreshold) {\n            //is over threshold\n            return true;\n        } else {\n            //not over threshold\n            return false;\n        }\n    }\n\n    /// @param _administratorAddress The public address of a specific administrator.\n    /// @dev Returns whether a given address is an administrator.\n    /// @return result\n    ///    | true = is administrator\n    ///    | false = either administrator unset or demoted\n\n    function isAdministrator(address _administratorAddress) public virtual view returns (bool result) {\n        if (administrators[_administratorAddress] == AdministratorAccess.Promoted) {\n            //is administrator\n            return true;\n        } else {\n            // either administrator unset or demoted\n            return false;\n        }\n    }\n}",
  "sourcePath": "/opt/shyft-ta-node/contracts/Administrable.sol",
  "compiler": {
    "name": "solc",
    "version": "0.7.1+commit.f4a555be.Emscripten.clang"
  },
  "schemaVersion": "3.3.4",
  "updatedAt": "2021-09-16T18:31:15.210Z",
  "devdoc": {
    "events": {
      "EVT_AdminPromoted(address)": {
        "details": "An event for admin promotion."
      },
      "EVT_AdminRevoked(address)": {
        "details": "An event for admin revocation."
      },
      "EVT_PrimaryAdminAdded(address)": {
        "details": "An event for primary admin added."
      }
    },
    "kind": "dev",
    "methods": {
      "changeCurrentAdminConfirmationThreshold(uint32)": {
        "details": "| This function takes in an index for a proposal ot change the current administrator confirmation threshold.      | Uses Multi-signature permissions.",
        "params": {
          "_proposalIndex": "The index for a specific proposal to change the current administrator confirmation threshold."
        },
        "returns": {
          "result": "   | 0 = not an administrator    | 1 = invalid proposal index    | 2 = not enough administrators to achieve confirmation threshold    | 3 = proposal has expired    | 4 = not enough administrators have permissioned change    | 5 = admin confirmation threshold set"
        }
      },
      "constructor": {
        "details": "Basic constructor function, sets owner to the contract creator."
      },
      "getAdminAccess(address)": {
        "details": "Gets the level of access for a specific administrator.",
        "returns": {
          "result": "the level of access for this administrator"
        }
      },
      "getAdminConfirmationProposal(uint32)": {
        "details": "Gets the components of a specific NofM change proposal.",
        "params": {
          "_proposalIndex": "A proposal index"
        },
        "returns": {
          "adminThreshold": "the threshold of the NofM voting within this proposal",
          "endTime": "the end time of this proposal, after which it cannot be voted on",
          "isCompleted": "whether this proposal has been completed by multisig parties"
        }
      },
      "getAdminConfirmationThreshold()": {
        "details": "Gets the NofM threshold currently required for passing multisig votes.",
        "returns": {
          "results": "the current NofM threshold"
        }
      },
      "getNumAdminConfirmationProposals()": {
        "details": "Gets the number of a specific NofM change proposal.",
        "returns": {
          "result": "the number of a specific NofM proposals"
        }
      },
      "isAdministrator(address)": {
        "details": "Returns whether a given address is an administrator.",
        "params": {
          "_administratorAddress": "The public address of a specific administrator."
        },
        "returns": {
          "result": "   | true = is administrator    | false = either administrator unset or demoted"
        }
      },
      "promoteAdministrator(address)": {
        "details": "| Promotes a new administrator. If there is only a primary Administrator set, this will allow the addition of the second administrator and enable multisignature requirements for any actions of this contract (or those inheriting it).      | Uses Multi-signature permissions if there is more than one Administrator onboarded.",
        "params": {
          "_newAdministratorAddress": "The new Administrator's public address."
        },
        "returns": {
          "result": "   | 0 = not administrator    | 1 = administrator already promoted    | 2 = new administrator promoted    | 3 = added vote to promote administrator"
        }
      },
      "proposeChangeCurrentAdminConfirmationThreshold(uint256)": {
        "details": "This function proposes a change to the threshold of voting required (N signatories of M total set size = NofM). To prevent stale inattention results, timeout after 2 days.",
        "params": {
          "_newThreshold": "The new threshold (N of M multisig) that is needed to be passed."
        },
        "returns": {
          "result": "   | 0 = not an administrator    | 1 = not enough administrators to achieve confirmation threshold    | 2 = new proposal added"
        }
      },
      "revokeAdministrator(address)": {
        "details": "| Revokes an existing administrator from the multisignature set, checks to see if the # of required votes would be higher then the administrator set size, and if so adjusts to match.      | Uses Multi-signature permissions if there is more than one Administrator onboarded.",
        "params": {
          "_revokeAdministratorAddress": "An existing Administrator's public address."
        },
        "returns": {
          "result": "result"
        }
      },
      "setPrimaryAdministrator(address)": {
        "details": "Sets the primary Administrator for this contract (or those that inherit from it). This transfers ownership of this contracts first administration duties (to find and onboard a second party for multisignature requirements) to the set Administrator's public address.",
        "params": {
          "_newAdministratorAddress": "The new Administrator's public address."
        },
        "returns": {
          "result": "   | 0 = not owner    | 1 = already set first administrator    | 2 = setup first administrator"
        }
      }
    },
    "stateVariables": {
      "adminConfirmationThreshold": {
        "details": "The current NofM multisig administrators confirmation thresholds."
      },
      "administratorMultisignPermissionedKeys": {
        "details": "A mapping for a specific administrator public address to their multisigned key permissions array."
      },
      "administrators": {
        "details": "A mapping of public addresses of public addresses to administrator access."
      },
      "minimumMultiSignAdminConfirmationThreshold": {
        "details": "The minimum NofM multisig administrators confirmation thresholds."
      },
      "numAdministrators": {
        "details": "The current number of administrators."
      },
      "owner": {
        "details": "The constract creator/owner."
      },
      "proposals_changeAdminConfirmationThreshold": {
        "details": "An array of changes to the administrator NofM threshold confirmation"
      },
      "votingSetNonce": {
        "details": "The current voting set nonce - updates on promotion/demotion of administrators to block stale sets from voting."
      }
    },
    "version": 1
  },
  "userdoc": {
    "kind": "user",
    "methods": {
      "changeCurrentAdminConfirmationThreshold(uint32)": {
        "notice": "Multiple proposals can be constructed for different sets to apply to change the administrator threshold. As the permissions for multisig keys use a voting set nonce underneath the hood, a change in the current administrator set will cancel all current votes."
      },
      "promoteAdministrator(address)": {
        "notice": "| Uses composition features (based on current validator set) so data structure may be orphaned when promotion/demotion events occur.         | Whenever this function is called (with a passing vote), there will be a re-hashing of the voting set nonce, so all current votes will become invalidated."
      },
      "revokeAdministrator(address)": {
        "notice": "| Uses composition features (based on current validator set) so data structure may be orphaned when promotion/demotion events occur.         | Whenever this function is called (with a passing vote), there will be a re-hashing of the voting set nonce, so all current votes will become invalidated."
      }
    },
    "version": 1
  }
}