{
  "contractName": "ECRecovery",
  "abi": [
    {
      "inputs": [
        {
          "internalType": "bytes32",
          "name": "hash",
          "type": "bytes32"
        },
        {
          "internalType": "bytes",
          "name": "sig",
          "type": "bytes"
        }
      ],
      "name": "recover",
      "outputs": [
        {
          "internalType": "address",
          "name": "",
          "type": "address"
        }
      ],
      "stateMutability": "pure",
      "type": "function"
    }
  ],
  "bytecode": "0x61020f610026600b82828239805160001a60731461001957fe5b30600052607381538281f3fe73000000000000000000000000000000000000000030146080604052600436106100355760003560e01c806319045a251461003a575b600080fd5b6100e76004803603604081101561005057600080fd5b8135919081019060408101602082013564010000000081111561007257600080fd5b82018360208201111561008457600080fd5b803590602001918460018302840111640100000000831117156100a657600080fd5b91908080601f016020809104026020016040519081016040528093929190818152602001838380828437600092019190915250929550610103945050505050565b604080516001600160a01b039092168252519081900360200190f35b600080600080845160411461011e57600093505050506101d3565b50505060208201516040830151606084015160001a601b81101561014057601b015b8060ff16601b1415801561015857508060ff16601c14155b1561016957600093505050506101d3565b60018682858560405160008152602001604052604051808581526020018460ff1681526020018381526020018281526020019450505050506020604051602081039080840390855afa1580156101c3573d6000803e3d6000fd5b5050506020604051035193505050505b9291505056fea26469706673582212208104233c4771b61046a1ea3ecef8753729ac478ddd8c015fa2d3410d38e2e01964736f6c63430007010033",
  "immutableReferences": {},
  "source": "pragma solidity ^0.7.1;\n//SPDX-License-Identifier: UNLICENSED\n\n\n/**\n * @title Eliptic curve signature operations\n *\n * @dev Based on https://gist.github.com/axic/5b33912c6f61ae6fd96d6c4a47afde6d\n */\n\nlibrary ECRecovery {\n\n  /**\n   * @dev Recover signer address from a message by using his signature\n   * @param hash bytes32 message, the hash is the signed message. What is recovered is the signer address.\n   * @param sig bytes signature, the signature is generated using web3.eth.sign()\n   */\n  function recover(bytes32 hash, bytes memory sig) public pure returns (address) {\n    bytes32 r;\n    bytes32 s;\n    uint8 v;\n\n    //Check the signature length\n    if (sig.length != 65) {\n      return (address(0));\n    }\n\n    // Divide the signature in r, s and v variables\n    assembly {\n      r := mload(add(sig, 32))\n      s := mload(add(sig, 64))\n      v := byte(0, mload(add(sig, 96)))\n    }\n\n    // Version of signature should be 27 or 28, but 0 and 1 are also possible versions\n    if (v < 27) {\n      v += 27;\n    }\n\n    // If the version is correct return the signer address\n    if (v != 27 && v != 28) {\n      return (address(0));\n    } else {\n      return ecrecover(hash, v, r, s);\n    }\n  }\n\n}\n",
  "sourcePath": "/opt/shyft-ta-node/contracts/ECRecovery.sol",
  "compiler": {
    "name": "solc",
    "version": "0.7.1+commit.f4a555be.Emscripten.clang"
  },
  "schemaVersion": "3.3.4",
  "updatedAt": "2021-09-16T18:31:15.248Z",
  "devdoc": {
    "details": "Based on https://gist.github.com/axic/5b33912c6f61ae6fd96d6c4a47afde6d",
    "kind": "dev",
    "methods": {
      "recover(bytes32,bytes)": {
        "details": "Recover signer address from a message by using his signature",
        "params": {
          "hash": "bytes32 message, the hash is the signed message. What is recovered is the signer address.",
          "sig": "bytes signature, the signature is generated using web3.eth.sign()"
        }
      }
    },
    "title": "Eliptic curve signature operations",
    "version": 1
  },
  "userdoc": {
    "kind": "user",
    "methods": {},
    "version": 1
  }
}