{
  "contractName": "HeaderTest",
  "abi": [
    {
      "anonymous": false,
      "inputs": [
        {
          "indexed": false,
          "internalType": "bytes32",
          "name": "header",
          "type": "bytes32"
        }
      ],
      "name": "HeaderHashed",
      "type": "event"
    },
    {
      "inputs": [
        {
          "internalType": "bytes32",
          "name": "prevHeader",
          "type": "bytes32"
        },
        {
          "internalType": "uint256",
          "name": "timestamp",
          "type": "uint256"
        },
        {
          "internalType": "uint256",
          "name": "blockNum",
          "type": "uint256"
        },
        {
          "internalType": "bytes32",
          "name": "txRoot",
          "type": "bytes32"
        }
      ],
      "name": "hashHeader",
      "outputs": [
        {
          "internalType": "bytes32",
          "name": "",
          "type": "bytes32"
        }
      ],
      "stateMutability": "nonpayable",
      "type": "function"
    }
  ],
  "bytecode": "0x6080604052348015600f57600080fd5b506101188061001f6000396000f3fe6080604052348015600f57600080fd5b506004361060285760003560e01c8063e6963c1a14602d575b600080fd5b605960048036036080811015604157600080fd5b5080359060208101359060408101359060600135606b565b60408051918252519081900360200190f35b6040805160208082018790528183018690526060820185905260808083018590528351808403909101815260a0830180855281519190920120908190529151600092917ff7f9fac284e65096e9e3a0080240e307dd6953f252a985fe5042d661c4f9095c919081900360c00190a19594505050505056fea2646970667358221220f12882b1f989827951a5212d39f5b2713d20d6621dcff5b9b2baba90e131cd0564736f6c63430007010033",
  "immutableReferences": {},
  "source": "pragma solidity ^0.7.1;\n//SPDX-License-Identifier: UNLICENSED\n\ncontract HeaderTest {\n\tevent HeaderHashed(bytes32 header);\n\n\tfunction hashHeader(bytes32 prevHeader, uint256 timestamp, uint256 blockNum, bytes32 txRoot) public returns (bytes32) {\n    \tbytes32 header = keccak256(abi.encodePacked(prevHeader, timestamp, blockNum, txRoot));\n    \temit HeaderHashed(header);\n    \treturn header;\n\t}\n}",
  "sourcePath": "/opt/shyft-ta-node/contracts/Tests/HeaderTest.sol",
  "compiler": {
    "name": "solc",
    "version": "0.7.1+commit.f4a555be.Emscripten.clang"
  },
  "schemaVersion": "3.3.4",
  "updatedAt": "2021-09-16T18:31:15.644Z",
  "devdoc": {
    "kind": "dev",
    "methods": {},
    "version": 1
  },
  "userdoc": {
    "kind": "user",
    "methods": {},
    "version": 1
  }
}