{
  "contractName": "RelayerElection",
  "abi": [
    {
      "anonymous": false,
      "inputs": [
        {
          "indexed": false,
          "internalType": "address",
          "name": "_admin",
          "type": "address"
        }
      ],
      "name": "EVT_AdminPromoted",
      "type": "event"
    },
    {
      "anonymous": false,
      "inputs": [
        {
          "indexed": false,
          "internalType": "address",
          "name": "_admin",
          "type": "address"
        }
      ],
      "name": "EVT_AdminRevoked",
      "type": "event"
    },
    {
      "anonymous": false,
      "inputs": [
        {
          "indexed": false,
          "internalType": "address",
          "name": "_admin",
          "type": "address"
        }
      ],
      "name": "EVT_PrimaryAdminAdded",
      "type": "event"
    },
    {
      "anonymous": false,
      "inputs": [],
      "name": "ElectionComplete",
      "type": "event"
    },
    {
      "anonymous": false,
      "inputs": [
        {
          "indexed": false,
          "internalType": "address",
          "name": "_relayer",
          "type": "address"
        }
      ],
      "name": "RelayerAdded",
      "type": "event"
    },
    {
      "anonymous": false,
      "inputs": [],
      "name": "ResetElection",
      "type": "event"
    },
    {
      "anonymous": false,
      "inputs": [
        {
          "indexed": true,
          "internalType": "address",
          "name": "_voter",
          "type": "address"
        },
        {
          "indexed": true,
          "internalType": "address",
          "name": "_elected",
          "type": "address"
        }
      ],
      "name": "Reveal",
      "type": "event"
    },
    {
      "anonymous": false,
      "inputs": [
        {
          "indexed": true,
          "internalType": "address",
          "name": "_voter",
          "type": "address"
        },
        {
          "indexed": false,
          "internalType": "bytes32",
          "name": "_commitment",
          "type": "bytes32"
        }
      ],
      "name": "SetVote",
      "type": "event"
    },
    {
      "anonymous": false,
      "inputs": [],
      "name": "VotingComplete",
      "type": "event"
    },
    {
      "inputs": [
        {
          "internalType": "uint32",
          "name": "_proposalIndex",
          "type": "uint32"
        }
      ],
      "name": "changeCurrentAdminConfirmationThreshold",
      "outputs": [
        {
          "internalType": "uint8",
          "name": "result",
          "type": "uint8"
        }
      ],
      "stateMutability": "nonpayable",
      "type": "function"
    },
    {
      "inputs": [
        {
          "internalType": "address",
          "name": "_administratorAddress",
          "type": "address"
        }
      ],
      "name": "getAdminAccess",
      "outputs": [
        {
          "internalType": "enum Administrable.AdministratorAccess",
          "name": "result",
          "type": "uint8"
        }
      ],
      "stateMutability": "view",
      "type": "function"
    },
    {
      "inputs": [
        {
          "internalType": "uint32",
          "name": "_proposalIndex",
          "type": "uint32"
        }
      ],
      "name": "getAdminConfirmationProposal",
      "outputs": [
        {
          "internalType": "uint256",
          "name": "adminThreshold",
          "type": "uint256"
        },
        {
          "internalType": "uint256",
          "name": "endTime",
          "type": "uint256"
        },
        {
          "internalType": "bool",
          "name": "isCompleted",
          "type": "bool"
        }
      ],
      "stateMutability": "view",
      "type": "function"
    },
    {
      "inputs": [],
      "name": "getAdminConfirmationThreshold",
      "outputs": [
        {
          "internalType": "uint256",
          "name": "results",
          "type": "uint256"
        }
      ],
      "stateMutability": "view",
      "type": "function"
    },
    {
      "inputs": [],
      "name": "getNumAdminConfirmationProposals",
      "outputs": [
        {
          "internalType": "uint256",
          "name": "result",
          "type": "uint256"
        }
      ],
      "stateMutability": "view",
      "type": "function"
    },
    {
      "inputs": [
        {
          "internalType": "address",
          "name": "_administratorAddress",
          "type": "address"
        }
      ],
      "name": "isAdministrator",
      "outputs": [
        {
          "internalType": "bool",
          "name": "result",
          "type": "bool"
        }
      ],
      "stateMutability": "view",
      "type": "function"
    },
    {
      "inputs": [],
      "name": "numAdministrators",
      "outputs": [
        {
          "internalType": "uint256",
          "name": "",
          "type": "uint256"
        }
      ],
      "stateMutability": "view",
      "type": "function"
    },
    {
      "inputs": [],
      "name": "owner",
      "outputs": [
        {
          "internalType": "address",
          "name": "",
          "type": "address"
        }
      ],
      "stateMutability": "view",
      "type": "function"
    },
    {
      "inputs": [
        {
          "internalType": "address",
          "name": "_newAdministratorAddress",
          "type": "address"
        }
      ],
      "name": "promoteAdministrator",
      "outputs": [
        {
          "internalType": "uint8",
          "name": "result",
          "type": "uint8"
        }
      ],
      "stateMutability": "nonpayable",
      "type": "function"
    },
    {
      "inputs": [
        {
          "internalType": "uint256",
          "name": "_newThreshold",
          "type": "uint256"
        }
      ],
      "name": "proposeChangeCurrentAdminConfirmationThreshold",
      "outputs": [
        {
          "internalType": "uint8",
          "name": "result",
          "type": "uint8"
        }
      ],
      "stateMutability": "nonpayable",
      "type": "function"
    },
    {
      "inputs": [
        {
          "internalType": "address",
          "name": "_revokeAdministratorAddress",
          "type": "address"
        }
      ],
      "name": "revokeAdministrator",
      "outputs": [
        {
          "internalType": "uint8",
          "name": "result",
          "type": "uint8"
        }
      ],
      "stateMutability": "nonpayable",
      "type": "function"
    },
    {
      "inputs": [
        {
          "internalType": "address",
          "name": "_newAdministratorAddress",
          "type": "address"
        }
      ],
      "name": "setPrimaryAdministrator",
      "outputs": [
        {
          "internalType": "uint8",
          "name": "result",
          "type": "uint8"
        }
      ],
      "stateMutability": "nonpayable",
      "type": "function"
    },
    {
      "inputs": [
        {
          "internalType": "address",
          "name": "relayerToAdd",
          "type": "address"
        }
      ],
      "name": "addRelayer",
      "outputs": [
        {
          "internalType": "bool",
          "name": "",
          "type": "bool"
        }
      ],
      "stateMutability": "nonpayable",
      "type": "function"
    },
    {
      "inputs": [
        {
          "internalType": "address",
          "name": "_addr",
          "type": "address"
        }
      ],
      "name": "removeRelayer",
      "outputs": [
        {
          "internalType": "bool",
          "name": "",
          "type": "bool"
        }
      ],
      "stateMutability": "nonpayable",
      "type": "function"
    },
    {
      "inputs": [
        {
          "internalType": "bytes32",
          "name": "commitment",
          "type": "bytes32"
        }
      ],
      "name": "setVote",
      "outputs": [
        {
          "internalType": "bool",
          "name": "",
          "type": "bool"
        }
      ],
      "stateMutability": "nonpayable",
      "type": "function"
    },
    {
      "inputs": [
        {
          "internalType": "address",
          "name": "relayerToElect",
          "type": "address"
        }
      ],
      "name": "reveal",
      "outputs": [
        {
          "internalType": "bool",
          "name": "",
          "type": "bool"
        }
      ],
      "stateMutability": "nonpayable",
      "type": "function"
    },
    {
      "inputs": [],
      "name": "getElectedRelayer",
      "outputs": [
        {
          "internalType": "address",
          "name": "",
          "type": "address"
        }
      ],
      "stateMutability": "view",
      "type": "function"
    },
    {
      "inputs": [
        {
          "internalType": "address",
          "name": "toCheck",
          "type": "address"
        }
      ],
      "name": "isInRelayerSet",
      "outputs": [
        {
          "internalType": "bool",
          "name": "",
          "type": "bool"
        }
      ],
      "stateMutability": "view",
      "type": "function"
    },
    {
      "inputs": [],
      "name": "numRelayers",
      "outputs": [
        {
          "internalType": "uint256",
          "name": "",
          "type": "uint256"
        }
      ],
      "stateMutability": "view",
      "type": "function"
    },
    {
      "inputs": [
        {
          "internalType": "uint256",
          "name": "i",
          "type": "uint256"
        }
      ],
      "name": "getRelayerAt",
      "outputs": [
        {
          "internalType": "address",
          "name": "",
          "type": "address"
        }
      ],
      "stateMutability": "view",
      "type": "function"
    },
    {
      "inputs": [],
      "name": "resetElection",
      "outputs": [
        {
          "internalType": "bool",
          "name": "",
          "type": "bool"
        }
      ],
      "stateMutability": "nonpayable",
      "type": "function"
    }
  ],
  "bytecode": "0x6080604052600260005534801561001557600080fd5b50600180546001600160a01b0319163317905561181a806100376000396000f3fe608060405234801561001057600080fd5b50600436106101365760003560e01c80635bc028a3116100b8578063c392cf411161007c578063c392cf411461033f578063d9af51e314610365578063dd39f00d146103ac578063e8f30523146103d2578063f3e512d3146103da578063f85008a2146103e257610136565b80635bc028a3146102de57806360f0a5ac146102e65780637a303a9c1461030c5780638da5cb5b14610314578063b9568dd81461031c57610136565b806323f0aa60116100ff57806323f0aa60146102345780632f7850df1461025a5780633370426d146102935780634402bba31461029b57806349d22250146102c157610136565b8062913af61461013b578063064ad7c21461017e5780630a2eb301146101ba5780630ca21c24146101f457806323dfe7301461020e575b600080fd5b61015e6004803603602081101561015157600080fd5b503563ffffffff166103ff565b604080519384526020840192909252151582820152519081900360600190f35b6101a46004803603602081101561019457600080fd5b50356001600160a01b0316610486565b6040805160ff9092168252519081900360200190f35b6101e0600480360360208110156101d057600080fd5b50356001600160a01b031661052a565b604080519115158252519081900360200190f35b6101fc610565565b60408051918252519081900360200190f35b6101a46004803603602081101561022457600080fd5b50356001600160a01b031661056b565b6101e06004803603602081101561024a57600080fd5b50356001600160a01b03166107d3565b6102776004803603602081101561027057600080fd5b50356107fa565b604080516001600160a01b039092168252519081900360200190f35b6101fc610834565b6101a4600480360360208110156102b157600080fd5b50356001600160a01b031661083a565b6101a4600480360360208110156102d757600080fd5b5035610a13565b610277610af5565b6101e0600480360360208110156102fc57600080fd5b50356001600160a01b0316610b04565b6101fc610bfb565b610277610c01565b6101a46004803603602081101561033257600080fd5b503563ffffffff16610c10565b6101e06004803603602081101561035557600080fd5b50356001600160a01b0316610dd7565b61038b6004803603602081101561037b57600080fd5b50356001600160a01b0316611022565b6040518082600281111561039b57fe5b815260200191505060405180910390f35b6101e0600480360360208110156103c257600080fd5b50356001600160a01b0316611040565b6101e06111b1565b6101fc611332565b6101e0600480360360208110156103f857600080fd5b5035611338565b600080600060068463ffffffff168154811061041757fe5b90600052602060002090600302016000015460068563ffffffff168154811061043c57fe5b90600052602060002090600302016001015460068663ffffffff168154811061046157fe5b6000918252602090912060026003909202010154919450925060ff1690509193909250565b6001546000906001600160a01b031633141561052157600354610519576001600160a01b038216600090815260026020526040902080546001919060ff191682800217905550600380546001019055604080516001600160a01b038416815290517f1767f5d6fdb0884c185778bf3ba4d303dc6af28da0798c96577f7c5450631d8b9181900360200190a1506002610525565b506001610525565b5060005b919050565b600060016001600160a01b03831660009081526002602081905260409091205460ff169081111561055757fe5b141561052157506001610525565b60085490565b60006105763361052a565b156105215760016001600160a01b03831660009081526002602081905260409091205460ff16908111156105a657fe5b1461051957600260035410610720576040805173383937b6b7ba32a0b236b4b734b9ba3930ba37b960611b6020808301919091526bffffffffffffffffffffffff19606086901b1660348301528251602881840301815260489092019092528051910120600061061582611499565b905060008054821061062957506001610646565b6000610634846114be565b9050600054811061064457600191505b505b60018115151415610714576001600160a01b0385166000908152600260205260409020805460ff19166001908117909155600380549091019055610689836115c8565b506106cc426040516020018080671c1c9bdb5bdd195960c21b815250600801828152602001915050604051602081830303815290604052805190602001206116c7565b604080516001600160a01b038716815290517f7f477eb04f5a964ab231fdc42872d9356c3010171ed2c961d9166f49239786979181900360200190a160029350505050610525565b60039350505050610525565b6001600160a01b038216600090815260026020908152604091829020805460ff191660019081179091556003805490910190558151671c1c9bdb5bdd195960c21b8183015242602880830191909152835180830390910181526048909101909252815191012061078f906116c7565b604080516001600160a01b038416815290517f7f477eb04f5a964ab231fdc42872d9356c3010171ed2c961d9166f49239786979181900360200190a1506002610525565b6001600160a01b031660009081526007602052604090206002015462010000900460ff1690565b60006008610806610565565b838161080e57fe5b068154811061081957fe5b6000918252602090912001546001600160a01b031692915050565b60065490565b60006108453361052a565b156105215760016001600160a01b03831660009081526002602081905260409091205460ff169081111561087557fe5b141561051957604080517f61646d696e697374726174696f6e5265766f636174696f6e566f7465000000006020808301919091526bffffffffffffffffffffffff19606086901b16603c830152825160308184030181526050909201909252805191012060006108e482611499565b90506000805482106108f857506001610915565b6000610903846114be565b9050600054811061091357600191505b505b60018115151415610a07576001600160a01b038516600090815260026020818152604092839020805460ff1916909217909155600380546000190190558151661c995d9bdad95960ca1b8183015242602780830191909152835180830390910181526047909101909252815191012061098d906116c7565b60005460035410156109b557600260035411156109af576003546000556109b5565b60026000555b6109be836115c8565b50604080516001600160a01b038716815290517f79830203ee788345fbc4b7afa193ed483738eaecd94975fa1fa50c09c9a5be1f9181900360200190a160039350505050610525565b60029350505050610525565b6000610a1e3361052a565b1561052157600082118015610a3557506003548211155b1561051957610a42611730565b828152426202a30001602082019081526006805460018101825560009190915282517ff652222313e28459528d920b65115c16c04f3efc82aaedc97be59f3f377c0d3f60039092029182015590517ff652222313e28459528d920b65115c16c04f3efc82aaedc97be59f3f377c0d408201556040909101517ff652222313e28459528d920b65115c16c04f3efc82aaedc97be59f3f377c0d41909101805460ff1916911515919091179055506002610525565b6009546001600160a01b031690565b6001546000906001600160a01b03163314610b1e57600080fd5b610b27826107d3565b610b3057600080fd5b6001600160a01b038216600090815260076020526040812080546001600160a01b03191681556001810182905560028101805462ffffff191690556003018190555b610b7a610565565b811015610beb57826001600160a01b031660088281548110610b9857fe5b6000918252602090912001546001600160a01b03161415610be35760088181548110610bc057fe5b600091825260209091200180546001600160a01b03191690555060019050610525565b600101610b72565b50610bf5826107d3565b92915050565b60005490565b6001546001600160a01b031681565b6000610c1b3361052a565b156105215760065463ffffffff831610156105195760035460068363ffffffff1681548110610c4657fe5b90600052602060002090600302016000015411610dcf5760068263ffffffff1681548110610c7057fe5b600091825260209091206002600390920201015460ff16158015610cb8575060068263ffffffff1681548110610ca257fe5b9060005260206000209060030201600101544211155b15610dc75760008260405160200180806117c3602291396022018263ffffffff1660e01b81526004019150506040516020818303038152906040528051906020012090506000610d0782611499565b9050600080548210610d1b57506001610d38565b6000610d26846114be565b90506000548110610d3657600191505b505b60018115151415610dbb5760068563ffffffff1681548110610d5657fe5b906000526020600020906003020160000154600081905550600160068663ffffffff1681548110610d8357fe5b60009182526020909120600390910201600201805460ff1916911515919091179055610dae836115c8565b5060059350505050610525565b60049350505050610525565b506003610525565b506002610525565b6000336001600160a01b0383161415610def57600080fd5b610df8336107d3565b610e0157600080fd5b610e0a826107d3565b610e1357600080fd5b336000908152600760205260409020600281015460ff16610e3357600080fd5b823360405160200180836001600160a01b031660601b8152601401826001600160a01b031660601b81526014019250505060405160208183030381529060405280519060200120816001015414610e8957600080fd5b6002810154610100900460ff1615610ea057600080fd5b60028101805461ffff19166101001790556001600160a01b038316600090815260076020526040902060038101805460010190819055600c541015610f64578054600980546001600160a01b039092166001600160a01b03199092169190911790556001810154600a55600281018054600b805460ff191660ff928316151517808255835461ff0019909116610100918290048416151590910217808255925462ff000019909316620100009384900490921615159092021790556003810154600c555b6040516001600160a01b0385169033907f1c000bbf6dd37ae2e40aad976c068a1e12352f887ea363538ec5536e8eb5ae1090600090a3600d805460ff61010080830482166001019091160261ff00199091161790556002610fc3610565565b81610fca57fe5b04600d60019054906101000a900460ff1660ff1610611018576040517f71458a6ef696bda1a4c388dee0833fb06826402ee262df6b29c067d093a51be990600090a1600d805461ff00191690555b5060019392505050565b6001600160a01b031660009081526002602052604090205460ff1690565b6001546000906001600160a01b0316331461105a57600080fd5b611063826107d3565b1561106d57600080fd5b611075611753565b6001600160a01b038084168083527fc5d2460186f7233c927e7db2dcc703c0e500b653ca82273b7bfad8045d85a47060208085019182526000604080870182815260608801838152600160808a0181815260a08b01868152898752600788528587208c5181549c166001600160a01b03199c8d161781559851898401559351600289018054945192511515620100000262ff0000199315156101000261ff001993151560ff19909716969096179290921694909417919091161790915590516003909501949094556008805494850181559091527ff3f7a9fe364faab93b216da50a3214154f22a0a2b415b23a84c8169e8b636ee3909201805490941683179093558051918252517f03580ee9f53a62b7cb409a2cb56f9be87747dd15017afc5cef6eef321e4fb2c5929181900390910190a150600192915050565b6001546000906001600160a01b031633146111cb57600080fd5b600d805461ffff1916905560005b60085481101561130257600060076000600884815481106111f657fe5b60009182526020808320909101546001600160a01b031683528201929092526040018120600301919091556008805460079183918590811061123457fe5b60009182526020808320909101546001600160a01b031683528201929092526040018120600101919091556008805460079183918590811061127257fe5b6000918252602080832091909101546001600160a01b031683528201929092526040018120600201805460ff191692151592909217909155600880546007918391859081106112bd57fe5b60009182526020808320909101546001600160a01b03168352820192909252604001902060020180549115156101000261ff00199092169190911790556001016111d9565b506040517f653f143b0f65caf97199c94ab208a5ff52424b7ee35dd6356adefb27aac9268590600090a150600190565b60035481565b6000611343336107d3565b61134c57600080fd5b7fc5d2460186f7233c927e7db2dcc703c0e500b653ca82273b7bfad8045d85a47082141561137957600080fd5b604080513360601b6020808301829052603483019190915282516028818403018152604890920190925280519101208214156113b457600080fd5b336000908152600760205260409020600281015460ff166113e657600d805460ff8082166001011660ff199091161790555b600181810184905560028201805460ff191690911761ff001916905560408051848152905133917f59ef77d27ab0cc97bad48290b138d686cd4f9a6276c529992d1b9cc659a6dca1916020918190039190910190a26002611445610565565b8161144c57fe5b600d5491900460ff90911610611490576040517f94952e77d0e8498eed40be9fb464640d8a6ea76fb1f15a5387255938091b0a4890600090a1600d805460ff191690555b50600192915050565b6000806114a583611701565b6000908152600460205260409020600201549392505050565b60006114c93361052a565b156105215760006114d983611701565b6003546000828152600460205260409020600201549192501180156115545750600081815260046020908152604080832033845290915281205460ff16600381111561152157fe5b148061155457506003600082815260046020908152604080832033845290915290205460ff16600381111561155257fe5b145b156115af576000818152600460208181526040808420600281018054600190810190915533808752828552928620805460ff191682179055938352830180549384018155845292200180546001600160a01b03191690911790555b6000908152600460205260409020600201549050610525565b60006115d33361052a565b156105215760006115e383611701565b600081815260046020526040902060020154909150156116bd5760005b60008281526004602052604090206001015481101561168157600082815260046020526040812060018101805460039391908590811061163c57fe5b60009182526020808320909101546001600160a01b031683528201929092526040019020805460ff1916600183600381111561167457fe5b0217905550600101611600565b50600081815260046020526040812061169f91600190910190611788565b60009081526004602052604081206002908101919091559050610525565b6001915050610525565b6005548160405160200180838152602001828152602001925050506040516020818303038152906040528051906020012060058190555050565b600554604080516020808201939093528082019390935280518084038201815260609093019052815191012090565b604051806060016040528060008152602001600081526020016000151581525090565b6040805160c081018252600080825260208201819052918101829052606081018290526080810182905260a081019190915290565b50805460008255906000526020600020908101906117a691906117a9565b50565b5b808211156117be57600081556001016117aa565b509056fe61646d696e436f6e6669726d6174696f6e5468726573686f6c6450726f706f73616ca26469706673582212205f4c23d81e2318ebe2baec1a891dc020a4fddc3af7b1f3ccd1a7e095cd866d0e64736f6c63430007010033",
  "immutableReferences": {},
  "source": "pragma solidity ^0.7.1;\n//SPDX-License-Identifier: UNLICENSED\n\nimport \"./Administrable.sol\";\n\ncontract RelayerElection is Administrable {\n\n    struct Relayer {\n        address addr;\n        bytes32 voteCommitment;\n        bool voted;\n        bool revealed;\n        bool isInSet;\n        uint count;\n    }\n\n    mapping (address => Relayer) relayerSet;\n    address[] relayerAddrs;\n\n    Relayer nextRelayer;\n\n    uint8 votes; // the amount of votes that have been cast for this election\n    uint8 reveals; // the amount of votes that have been revealed for this election\n\n    event RelayerAdded(address _relayer);\n    event SetVote(address indexed _voter, bytes32 _commitment);\n    event Reveal(address indexed _voter, address indexed _elected);\n    event ResetElection();\n    event VotingComplete();\n    event ElectionComplete();\n\n    // @dev: Adds a relayer to this election. Can only be called by the address\n    // that deployed the contract\n    //\n    // @param: address relayerToAdd, address of the relayer to add to the election\n    function addRelayer(address relayerToAdd) public returns (bool){\n         require(msg.sender == owner);\n         require(!isInRelayerSet(relayerToAdd));\n\n         Relayer memory relayer;\n         relayer.addr = relayerToAdd;\n         relayer.voteCommitment = keccak256(\"\");\n         relayer.voted = false;\n         relayer.revealed = false;\n         relayer.isInSet = true;\n         relayer.count = 0;\n\n         relayerSet[relayerToAdd] = relayer;\n         relayerAddrs.push(relayerToAdd);\n         emit RelayerAdded(relayerToAdd);\n         return true;\n    }\n\n    function removeRelayer(address _addr) public returns (bool) {\n        require(msg.sender == owner);\n        require(isInRelayerSet(_addr));\n\n        delete relayerSet[_addr];\n        for(uint i = 0; i < numRelayers(); i++) {\n            if (relayerAddrs[i] == _addr) {\n                delete relayerAddrs[i];\n                return true;\n            }\n        }\n\n        return isInRelayerSet(_addr);\n    }\n\n    // @dev: A relayer sets their vote for a particular relayer as a commitment.\n    //\n    // @param: bytes32 commitment, commitment to a particular relayer as their vote\n    function setVote(bytes32 commitment) public returns (bool) {\n         require(isInRelayerSet(msg.sender));\n         require(commitment != keccak256(\"\"));\n         require(commitment != keccak256(abi.encodePacked(msg.sender,msg.sender)));\n\n         Relayer storage r = relayerSet[msg.sender];\n\n         if(!r.voted) {\n            votes++;\n         }\n\n         r.voteCommitment = commitment;\n         r.voted = true;\n         r.revealed = false;\n\n         emit SetVote(msg.sender, commitment);\n\n         // 2/3 of relayers must vote\n         if (votes >= numRelayers() / 2) {\n            emit VotingComplete();\n            votes = 0;\n        }\n\n        return true;\n    }\n\n    // @dev: A relayer reveals their vote.\n    //\n    // @param: address relayerToElect, the address of their vote.\n    function reveal(address relayerToElect) public returns (bool) {\n        require(msg.sender != relayerToElect);\n        require(isInRelayerSet(msg.sender));\n        require(isInRelayerSet(relayerToElect));\n\n        Relayer storage revealer = relayerSet[msg.sender];\n        require(revealer.voted);\n        require(revealer.voteCommitment == keccak256(abi.encodePacked(relayerToElect,msg.sender)));\n        require(!revealer.revealed);\n\n        revealer.voted = false;\n        revealer.revealed = true;\n\n        Relayer storage toBeElected = relayerSet[relayerToElect];\n        toBeElected.count++;\n\n        if(toBeElected.count > nextRelayer.count) {\n            nextRelayer = toBeElected;\n        }\n\n        emit Reveal(msg.sender, relayerToElect);\n        reveals++; \n\n        // 2/3 of relayers must reveal\n        if (reveals >= numRelayers() / 2) {\n            emit ElectionComplete();\n            reveals = 0;\n        }\n\n        return true;\n    }\n\n    //@dev: After a certain threshold of relayers have submitted their votes,\n    // get the validator for that epoch.\n    function getElectedRelayer() public view returns (address) {\n        return nextRelayer.addr;\n    }\n\n    function isInRelayerSet(address toCheck) public view returns (bool) {\n        return relayerSet[toCheck].isInSet;\n    }\n\n    function numRelayers() public view returns (uint256) {\n        return relayerAddrs.length;\n    }\n\n    function getRelayerAt(uint256 i) public view returns (address) {\n        return relayerAddrs[i % numRelayers()];\n    }\n\n    function resetElection() public returns (bool) {\n        require(msg.sender == owner);\n\n        votes = 0;\n        reveals = 0;\n\n        for(uint i=0; i < relayerAddrs.length; i++) {\n            relayerSet[relayerAddrs[i]].count = 0;\n            relayerSet[relayerAddrs[i]].voteCommitment = 0;\n            relayerSet[relayerAddrs[i]].voted = false;\n            relayerSet[relayerAddrs[i]].revealed = false;\n        }\n\n        emit ResetElection();\n\n        return true;\n    }\n\n}\n",
  "sourcePath": "/opt/shyft-ta-node/contracts/RelayerElection.sol",
  "compiler": {
    "name": "solc",
    "version": "0.7.1+commit.f4a555be.Emscripten.clang"
  },
  "schemaVersion": "3.3.4",
  "updatedAt": "2021-09-16T18:31:15.427Z",
  "devdoc": {
    "kind": "dev",
    "methods": {
      "changeCurrentAdminConfirmationThreshold(uint32)": {
        "details": "| This function takes in an index for a proposal ot change the current administrator confirmation threshold.      | Uses Multi-signature permissions.",
        "params": {
          "_proposalIndex": "The index for a specific proposal to change the current administrator confirmation threshold."
        },
        "returns": {
          "result": "   | 0 = not an administrator    | 1 = invalid proposal index    | 2 = not enough administrators to achieve confirmation threshold    | 3 = proposal has expired    | 4 = not enough administrators have permissioned change    | 5 = admin confirmation threshold set"
        }
      },
      "getAdminAccess(address)": {
        "details": "Gets the level of access for a specific administrator.",
        "returns": {
          "result": "the level of access for this administrator"
        }
      },
      "getAdminConfirmationProposal(uint32)": {
        "details": "Gets the components of a specific NofM change proposal.",
        "params": {
          "_proposalIndex": "A proposal index"
        },
        "returns": {
          "adminThreshold": "the threshold of the NofM voting within this proposal",
          "endTime": "the end time of this proposal, after which it cannot be voted on",
          "isCompleted": "whether this proposal has been completed by multisig parties"
        }
      },
      "getAdminConfirmationThreshold()": {
        "details": "Gets the NofM threshold currently required for passing multisig votes.",
        "returns": {
          "results": "the current NofM threshold"
        }
      },
      "getNumAdminConfirmationProposals()": {
        "details": "Gets the number of a specific NofM change proposal.",
        "returns": {
          "result": "the number of a specific NofM proposals"
        }
      },
      "isAdministrator(address)": {
        "details": "Returns whether a given address is an administrator.",
        "params": {
          "_administratorAddress": "The public address of a specific administrator."
        },
        "returns": {
          "result": "   | true = is administrator    | false = either administrator unset or demoted"
        }
      },
      "promoteAdministrator(address)": {
        "details": "| Promotes a new administrator. If there is only a primary Administrator set, this will allow the addition of the second administrator and enable multisignature requirements for any actions of this contract (or those inheriting it).      | Uses Multi-signature permissions if there is more than one Administrator onboarded.",
        "params": {
          "_newAdministratorAddress": "The new Administrator's public address."
        },
        "returns": {
          "result": "   | 0 = not administrator    | 1 = administrator already promoted    | 2 = new administrator promoted    | 3 = added vote to promote administrator"
        }
      },
      "proposeChangeCurrentAdminConfirmationThreshold(uint256)": {
        "details": "This function proposes a change to the threshold of voting required (N signatories of M total set size = NofM). To prevent stale inattention results, timeout after 2 days.",
        "params": {
          "_newThreshold": "The new threshold (N of M multisig) that is needed to be passed."
        },
        "returns": {
          "result": "   | 0 = not an administrator    | 1 = not enough administrators to achieve confirmation threshold    | 2 = new proposal added"
        }
      },
      "revokeAdministrator(address)": {
        "details": "| Revokes an existing administrator from the multisignature set, checks to see if the # of required votes would be higher then the administrator set size, and if so adjusts to match.      | Uses Multi-signature permissions if there is more than one Administrator onboarded.",
        "params": {
          "_revokeAdministratorAddress": "An existing Administrator's public address."
        },
        "returns": {
          "result": "result"
        }
      },
      "setPrimaryAdministrator(address)": {
        "details": "Sets the primary Administrator for this contract (or those that inherit from it). This transfers ownership of this contracts first administration duties (to find and onboard a second party for multisignature requirements) to the set Administrator's public address.",
        "params": {
          "_newAdministratorAddress": "The new Administrator's public address."
        },
        "returns": {
          "result": "   | 0 = not owner    | 1 = already set first administrator    | 2 = setup first administrator"
        }
      }
    },
    "version": 1
  },
  "userdoc": {
    "kind": "user",
    "methods": {
      "changeCurrentAdminConfirmationThreshold(uint32)": {
        "notice": "Multiple proposals can be constructed for different sets to apply to change the administrator threshold. As the permissions for multisig keys use a voting set nonce underneath the hood, a change in the current administrator set will cancel all current votes."
      },
      "promoteAdministrator(address)": {
        "notice": "| Uses composition features (based on current validator set) so data structure may be orphaned when promotion/demotion events occur.         | Whenever this function is called (with a passing vote), there will be a re-hashing of the voting set nonce, so all current votes will become invalidated."
      },
      "revokeAdministrator(address)": {
        "notice": "| Uses composition features (based on current validator set) so data structure may be orphaned when promotion/demotion events occur.         | Whenever this function is called (with a passing vote), there will be a re-hashing of the voting set nonce, so all current votes will become invalidated."
      }
    },
    "version": 1
  }
}