{
  "contractName": "RelaySet",
  "abi": [
    {
      "inputs": [],
      "stateMutability": "nonpayable",
      "type": "constructor"
    },
    {
      "anonymous": false,
      "inputs": [
        {
          "indexed": true,
          "internalType": "bytes32",
          "name": "_parentHash",
          "type": "bytes32"
        },
        {
          "indexed": false,
          "internalType": "address[]",
          "name": "_newSet",
          "type": "address[]"
        }
      ],
      "name": "InitiateChange",
      "type": "event"
    },
    {
      "anonymous": false,
      "inputs": [
        {
          "indexed": true,
          "internalType": "address",
          "name": "old",
          "type": "address"
        },
        {
          "indexed": true,
          "internalType": "address",
          "name": "current",
          "type": "address"
        }
      ],
      "name": "NewOwner",
      "type": "event"
    },
    {
      "anonymous": false,
      "inputs": [
        {
          "indexed": true,
          "internalType": "contract RelayedOwnedSet",
          "name": "old",
          "type": "address"
        },
        {
          "indexed": true,
          "internalType": "address",
          "name": "current",
          "type": "address"
        }
      ],
      "name": "NewRelayed",
      "type": "event"
    },
    {
      "inputs": [],
      "name": "owner",
      "outputs": [
        {
          "internalType": "address",
          "name": "",
          "type": "address"
        }
      ],
      "stateMutability": "view",
      "type": "function"
    },
    {
      "inputs": [],
      "name": "relayedSet",
      "outputs": [
        {
          "internalType": "contract RelayedOwnedSet",
          "name": "",
          "type": "address"
        }
      ],
      "stateMutability": "view",
      "type": "function"
    },
    {
      "inputs": [
        {
          "internalType": "address",
          "name": "_new",
          "type": "address"
        }
      ],
      "name": "setOwner",
      "outputs": [],
      "stateMutability": "nonpayable",
      "type": "function"
    },
    {
      "inputs": [],
      "name": "systemAddress",
      "outputs": [
        {
          "internalType": "address",
          "name": "",
          "type": "address"
        }
      ],
      "stateMutability": "view",
      "type": "function"
    },
    {
      "inputs": [
        {
          "internalType": "bytes32",
          "name": "_parentHash",
          "type": "bytes32"
        },
        {
          "internalType": "address[]",
          "name": "_newSet",
          "type": "address[]"
        }
      ],
      "name": "initiateChange",
      "outputs": [],
      "stateMutability": "nonpayable",
      "type": "function"
    },
    {
      "inputs": [],
      "name": "finalizeChange",
      "outputs": [],
      "stateMutability": "nonpayable",
      "type": "function"
    },
    {
      "inputs": [
        {
          "internalType": "address",
          "name": "_validator",
          "type": "address"
        },
        {
          "internalType": "uint256",
          "name": "_blockNumber",
          "type": "uint256"
        }
      ],
      "name": "reportBenign",
      "outputs": [],
      "stateMutability": "nonpayable",
      "type": "function"
    },
    {
      "inputs": [
        {
          "internalType": "address",
          "name": "_validator",
          "type": "address"
        },
        {
          "internalType": "uint256",
          "name": "_blockNumber",
          "type": "uint256"
        },
        {
          "internalType": "bytes",
          "name": "_proof",
          "type": "bytes"
        }
      ],
      "name": "reportMalicious",
      "outputs": [],
      "stateMutability": "nonpayable",
      "type": "function"
    },
    {
      "inputs": [
        {
          "internalType": "address",
          "name": "_relayedSet",
          "type": "address"
        }
      ],
      "name": "setRelayed",
      "outputs": [],
      "stateMutability": "nonpayable",
      "type": "function"
    },
    {
      "inputs": [],
      "name": "getRelayed",
      "outputs": [
        {
          "internalType": "address",
          "name": "_result",
          "type": "address"
        }
      ],
      "stateMutability": "view",
      "type": "function"
    },
    {
      "inputs": [],
      "name": "getValidators",
      "outputs": [
        {
          "internalType": "address[]",
          "name": "",
          "type": "address[]"
        }
      ],
      "stateMutability": "view",
      "type": "function"
    }
  ],
  "bytecode": "0x6080604052600080546001600160a01b0319163317905534801561002257600080fd5b50600180546001600160a01b0319166002600160a01b031790556107548061004b6000396000f3fe608060405234801561001057600080fd5b50600436106100a95760003560e01c8063ae3783d611610071578063ae3783d614610181578063b7ab4db514610189578063bd965677146101e1578063c476dd4014610207578063d3e848f11461028c578063d69f13bb14610294576100a9565b806308f81b77146100ae57806313af4035146100d257806375286211146100fa5780638da5cb5b14610102578063a0285c011461010a575b600080fd5b6100b66102c0565b604080516001600160a01b039092168252519081900360200190f35b6100f8600480360360208110156100e857600080fd5b50356001600160a01b03166102cf565b005b6100f8610341565b6100b66103c2565b6100f86004803603604081101561012057600080fd5b8135919081019060408101602082013564010000000081111561014257600080fd5b82018360208201111561015457600080fd5b8035906020019184602083028401116401000000008311171561017657600080fd5b5090925090506103d1565b6100b6610451565b610191610460565b60408051602080825283518183015283519192839290830191858101910280838360005b838110156101cd5781810151838201526020016101b5565b505050509050019250505060405180910390f35b6100f8600480360360208110156101f757600080fd5b50356001600160a01b0316610573565b6100f86004803603606081101561021d57600080fd5b6001600160a01b038235169160208101359181019060608101604082013564010000000081111561024d57600080fd5b82018360208201111561025f57600080fd5b8035906020019184600183028401116401000000008311171561028157600080fd5b5090925090506105e6565b6100b6610698565b6100f8600480360360408110156102aa57600080fd5b506001600160a01b0381351690602001356106a7565b6002546001600160a01b031690565b6000546001600160a01b031633146102e657600080fd5b600080546040516001600160a01b03808516939216917f70aea8d848e8a90fb7661b227dc522eb6395c3dac71b63cb59edd5c9899b236491a3600080546001600160a01b0319166001600160a01b0392909216919091179055565b6001546001600160a01b0316331461035857600080fd5b600260009054906101000a90046001600160a01b03166001600160a01b031663752862116040518163ffffffff1660e01b8152600401600060405180830381600087803b1580156103a857600080fd5b505af11580156103bc573d6000803e3d6000fd5b50505050565b6000546001600160a01b031681565b6002546001600160a01b031633146103e857600080fd5b827f55252fa6eee4741b4e24a74a70e9c11fd2c2281df8d6ea13126ff845f7825c89838360405180806020018281038252848482818152602001925060200280828437600083820152604051601f909101601f19169092018290039550909350505050a2505050565b6002546001600160a01b031681565b6002546040805163b7ab4db560e01b815290516060926001600160a01b03169163b7ab4db5916004808301926000929190829003018186803b1580156104a557600080fd5b505afa1580156104b9573d6000803e3d6000fd5b505050506040513d6000823e601f3d908101601f1916820160405260208110156104e257600080fd5b810190808051604051939291908464010000000082111561050257600080fd5b90830190602082018581111561051757600080fd5b825186602082028301116401000000008211171561053457600080fd5b82525081516020918201928201910280838360005b83811015610561578181015183820152602001610549565b50505050905001604052505050905090565b6000546001600160a01b0316331461058a57600080fd5b6002546040516001600160a01b038084169216907f4fea88aaf04c303804bb211ecc32a00ac8e5f0656bb854cad8a4a2e438256b7490600090a3600280546001600160a01b0319166001600160a01b0392909216919091179055565b600254604051630aa31dbf60e31b815233600482018181526001600160a01b0388811660248501526044840188905260806064850190815260848501879052941693635518edf8938992899289928992919060a401848480828437600081840152601f19601f8201169050808301925050509650505050505050600060405180830381600087803b15801561067a57600080fd5b505af115801561068e573d6000803e3d6000fd5b5050505050505050565b6001546001600160a01b031681565b60025460408051637cc0efe560e11b81523360048201526001600160a01b038581166024830152604482018590529151919092169163f981dfca91606480830192600092919082900301818387803b15801561070257600080fd5b505af1158015610716573d6000803e3d6000fd5b50505050505056fea2646970667358221220df219aa879414308691ed34c24be5fca9a9d156f0076d9e63f14062a5de9917f64736f6c63430007010033",
  "immutableReferences": {},
  "source": "// Copyright 2018 Parity Technologies Ltd.\n//\n// Licensed under the Apache License, Version 2.0 (the \"License\");\n// you may not use this file except in compliance with the License.\n// You may obtain a copy of the License at\n//\n//     http://www.apache.org/licenses/LICENSE-2.0\n//\n// Unless required by applicable law or agreed to in writing, software\n// distributed under the License is distributed on an \"AS IS\" BASIS,\n// WITHOUT WARRANTIES OR CONDITIONS OF ANY KIND, either express or implied.\n// See the License for the specific language governing permissions and\n// limitations under the License.\n//SPDX-License-Identifier: APACHE2\n\n// A validator set contract that relays calls to a relayed validator set\n// contract, which allows upgrading the relayed validator set contract. It\n// provides an `initiateChange` function that allows the relayed contract to\n// trigger a change, since the engine will be listening for events emitted by\n// the outer relay contract.\n\n//@note:@shyft: updated to solidity 7.1, updated code where required\npragma solidity ^0.7.1;\n\nimport \"../Interfaces/IValidatorSet.sol\";\nimport \"../Interfaces/IRelaySet.sol\";\n\nimport \"./Owned.sol\";\nimport \"./RelayedOwnedSet.sol\";\n\n\ncontract RelaySet is Owned, IValidatorSet, IRelaySet {\n\t// EVENTS\n\tevent NewRelayed(RelayedOwnedSet indexed old, address indexed current);\n\n\t// STATE\n\n\t// System address, used by the block sealer.\n\taddress public systemAddress;\n\t// Address of the inner validator set contract\n\tRelayedOwnedSet public relayedSet;\n\n\t// MODIFIERS\n\tmodifier onlySystem() {\n\t\trequire(msg.sender == systemAddress);\n\t\t_;\n\t}\n\n\tmodifier onlyRelayed() {\n\t\trequire(msg.sender == address(relayedSet));\n\t\t_;\n\t}\n\n\tconstructor()\n\t{\n\t\tsystemAddress = 0xffffFFFfFFffffffffffffffFfFFFfffFFFfFFfE;\n\t}\n\n\t// For innerSet\n\tfunction initiateChange(bytes32 _parentHash, address[] calldata _newSet)\n\t\texternal\n\t\tonlyRelayed\n\t{\n\t\temit InitiateChange(_parentHash, _newSet);\n\t}\n\n\t// For sealer\n\tfunction finalizeChange()\n\t\texternal\n\t\toverride\n\t\tonlySystem\n\t{\n\t\trelayedSet.finalizeChange();\n\t}\n\n\tfunction reportBenign(address _validator, uint256 _blockNumber)\n\t\texternal\n\t\toverride\n\t{\n\t\trelayedSet.relayReportBenign(msg.sender, _validator, _blockNumber);\n\t}\n\n\tfunction reportMalicious(address _validator, uint256 _blockNumber, bytes calldata _proof)\n\t\texternal\n\t\toverride\n\t{\n\t\trelayedSet.relayReportMalicious(\n\t\t\tmsg.sender,\n\t\t\t_validator,\n\t\t\t_blockNumber,\n\t\t\t_proof\n\t\t);\n\t}\n\n\tfunction setRelayed(address _relayedSet)\n\t\texternal\n\t\toverride\n\t\tonlyOwner\n\t{\n\t\temit NewRelayed(relayedSet, _relayedSet);\n\t\trelayedSet = RelayedOwnedSet(_relayedSet);\n\t}\n\n\tfunction getRelayed()\n\t\texternal\n\t\tview\n\t\toverride\n\t\treturns (address _result)\n\t{\n\t\treturn address(relayedSet);\n\t}\n\n\tfunction getValidators()\n\t\texternal\n\t\tview\n\t\toverride\n\t\treturns (address[] memory)\n\t{\n\t\treturn relayedSet.getValidators();\n\t}\n}\n",
  "sourcePath": "/opt/shyft-ta-node/contracts/ProtocolVoting/RelaySet.sol",
  "compiler": {
    "name": "solc",
    "version": "0.7.1+commit.f4a555be.Emscripten.clang"
  },
  "schemaVersion": "3.3.4",
  "updatedAt": "2021-09-16T18:31:15.394Z",
  "devdoc": {
    "kind": "dev",
    "methods": {},
    "version": 1
  },
  "userdoc": {
    "events": {
      "InitiateChange(bytes32,address[])": {
        "notice": "Issue this log event to signal a desired change in validator set. This will not lead to a change in active validator set until finalizeChange is called. Only the last log event of any block can take effect. If a signal is issued while another is being finalized it may never take effect. _parentHash here should be the parent block hash, or the signal will not be recognized."
      }
    },
    "kind": "user",
    "methods": {
      "finalizeChange()": {
        "notice": "Called when an initiated change reaches finality and is activated. Only valid when msg.sender == SYSTEM (EIP96, 2**160 - 2). Also called when the contract is first enabled for consensus. In this case, the \"change\" finalized is the activation of the initial set."
      },
      "getValidators()": {
        "notice": "Get current validator set (last enacted or initial if no changes ever made)."
      }
    },
    "version": 1
  }
}