{
  "contractName": "ShyftCacheGraph_ExternalTrustChannelProver",
  "abi": [
    {
      "inputs": [],
      "stateMutability": "nonpayable",
      "type": "constructor"
    },
    {
      "anonymous": false,
      "inputs": [
        {
          "indexed": false,
          "internalType": "address",
          "name": "_identifiedAddress",
          "type": "address"
        },
        {
          "indexed": false,
          "internalType": "bytes32",
          "name": "_receiptsRoot",
          "type": "bytes32"
        }
      ],
      "name": "EVT_ProveCacheGraphSegment",
      "type": "event"
    },
    {
      "inputs": [
        {
          "internalType": "address",
          "name": "_shyftCacheGraphAddress",
          "type": "address"
        }
      ],
      "name": "setShyftCacheGraphAddress",
      "outputs": [
        {
          "internalType": "bool",
          "name": "result",
          "type": "bool"
        }
      ],
      "stateMutability": "nonpayable",
      "type": "function"
    },
    {
      "inputs": [
        {
          "internalType": "address",
          "name": "_trustChannelManagerAddress",
          "type": "address"
        }
      ],
      "name": "setTrustChannelManagerAddress",
      "outputs": [
        {
          "internalType": "bool",
          "name": "result",
          "type": "bool"
        }
      ],
      "stateMutability": "nonpayable",
      "type": "function"
    },
    {
      "inputs": [
        {
          "internalType": "address",
          "name": "_identifiedAddress",
          "type": "address"
        },
        {
          "internalType": "uint64",
          "name": "_segmentIndex",
          "type": "uint64"
        },
        {
          "internalType": "bytes32",
          "name": "_receiptsRoot",
          "type": "bytes32"
        },
        {
          "internalType": "bytes",
          "name": "_rlpCacheGraphProofTx",
          "type": "bytes"
        },
        {
          "internalType": "bytes",
          "name": "_receiptPath",
          "type": "bytes"
        },
        {
          "internalType": "bytes",
          "name": "_receiptParentNodes",
          "type": "bytes"
        },
        {
          "internalType": "bytes",
          "name": "_rlpCacheGraphProofReceipt",
          "type": "bytes"
        }
      ],
      "name": "proveCacheGraphSegment",
      "outputs": [
        {
          "internalType": "uint8",
          "name": "result",
          "type": "uint8"
        }
      ],
      "stateMutability": "nonpayable",
      "type": "function"
    }
  ],
  "bytecode": "0x6080604052600080546001600160a01b0319908116909155600180548216905560028054909116905534801561003457600080fd5b50600080546001600160a01b031916331790556110ed806100566000396000f3fe608060405234801561001057600080fd5b50600436106100415760003560e01c8063160abcac14610046578063514551ef14610080578063d058df66146102ef575b600080fd5b61006c6004803603602081101561005c57600080fd5b50356001600160a01b0316610315565b604080519115158252519081900360200190f35b6102d9600480360360e081101561009657600080fd5b6001600160a01b038235169167ffffffffffffffff6020820135169160408201359190810190608081016060820135600160201b8111156100d657600080fd5b8201836020820111156100e857600080fd5b803590602001918460018302840111600160201b8311171561010957600080fd5b91908080601f0160208091040260200160405190810160405280939291908181526020018383808284376000920191909152509295949360208101935035915050600160201b81111561015b57600080fd5b82018360208201111561016d57600080fd5b803590602001918460018302840111600160201b8311171561018e57600080fd5b91908080601f0160208091040260200160405190810160405280939291908181526020018383808284376000920191909152509295949360208101935035915050600160201b8111156101e057600080fd5b8201836020820111156101f257600080fd5b803590602001918460018302840111600160201b8311171561021357600080fd5b91908080601f0160208091040260200160405190810160405280939291908181526020018383808284376000920191909152509295949360208101935035915050600160201b81111561026557600080fd5b82018360208201111561027757600080fd5b803590602001918460018302840111600160201b8311171561029857600080fd5b91908080601f016020809104026020016040519081016040528093929190818152602001838380828437600092019190915250929550610363945050505050565b6040805160ff9092168252519081900360200190f35b61006c6004803603602081101561030557600080fd5b50356001600160a01b0316610455565b60006001600160a01b03821661032a57600080fd5b6000546001600160a01b0316331461034157600080fd5b50600180546001600160a01b0319166001600160a01b0383161781555b919050565b6000806103728386868a6104a6565b905060018115151415610444576000866040516020018082805190602001908083835b602083106103b45780518252601f199092019160209182019101610395565b6001836020036101000a0380198251168184511680821785525050505050509050019150506040516020818303038152906040528051906020012090507f7b84286d20055bd5d361c1dbdfd3deff82b5a029fa693691f0b08f47ab51b2588a8960405180836001600160a01b031681526020018281526020019250505060405180910390a160019250505061044a565b60009150505b979650505050505050565b60006001600160a01b03821661046a57600080fd5b6000546001600160a01b0316331461048157600080fd5b50600280546001600160a01b0383166001600160a01b03199091161790556001919050565b60006104b061107d565b6104b9846107bc565b905060606104c6826107ff565b9050606080856000826104d88b6108c8565b90508051600014156104f45760009750505050505050506107b4565b60005b86518110156107ab5761051c87828151811061050f57fe5b6020026020010151610a2f565b955061053a87828151811061052d57fe5b60200260200101516107ff565b94508451601114156106ad578151831415610662578c6040516020018082805190602001908083835b602083106105825780518252601f199092019160209182019101610563565b6001836020036101000a038019825116818451168082178552505050505050905001915050604051602081830303815290604052805190602001206105cd8660108151811061050f57fe5b6040516020018082805190602001908083835b602083106105ff5780518252601f1990920191602091820191016105e0565b6001836020036101000a038019825116818451168082178552505050505050905001915050604051602081830303815290604052805190602001201415610651576001985050505050505050506107b4565b6000985050505050505050506107b4565b600082848151811061067057fe5b602001015160f81c60f81b60f81c905061069f868260ff168151811061069257fe5b6020026020010151610aa0565b9450600184019350506107a3565b845160021415610651576106de6106d7866000815181106106ca57fe5b6020026020010151610aab565b8385610b27565b8251930192831415610768578c6040516020018082805190602001908083835b6020831061071d5780518252601f1990920191602091820191016106fe565b6001836020036101000a038019825116818451168082178552505050505050905001915050604051602081830303815290604052805190602001206105cd866001815181106106ca57fe5b61077b6106d7866000815181106106ca57fe5b610790576000985050505050505050506107b4565b6107a08560018151811061069257fe5b93505b6001016104f7565b50505050505050505b949350505050565b6107c461107d565b8151806107e6575050604080518082019091526000808252602082015261035e565b6040805180820190915260209384018152928301525090565b606061080a82610cd2565b61081357600080fd5b600061081e83610cf9565b90508067ffffffffffffffff8111801561083757600080fd5b5060405190808252806020026020018201604052801561087157816020015b61085e61107d565b8152602001906001900390816108565790505b50915061087c611097565b61088584610d5d565b905060005b61089382610d94565b156108c0576108a182610db3565b8482815181106108ad57fe5b602090810291909101015260010161088a565b505050919050565b606080600083511115610a29576000806108e3600086610df3565b60f81c905060018114806108fa57508060ff166003145b1561098957600185516002020367ffffffffffffffff8111801561091d57600080fd5b506040519080825280601f01601f191660200182016040528015610948576020820181803683370190505b5092506000610958600187610df3565b9050808460008151811061096857fe5b60200101906001600160f81b031916908160001a90535060019250506109da565b600285516002020367ffffffffffffffff811180156109a757600080fd5b506040519080825280601f01601f1916602001820160405280156109d2576020820181803683370190505b509250600091505b60ff82165b8351811015610a25576109fa8360ff16820360020187610df3565b848281518110610a0657fe5b60200101906001600160f81b031916908160001a9053506001016109df565b5050505b92915050565b602081015160609080610a4657506060905061035e565b8067ffffffffffffffff81118015610a5d57600080fd5b506040519080825280601f01601f191660200182016040528015610a88576020820181803683370190505b509150610a9a83600001518383610e50565b50919050565b6000610a2982610e8e565b6060610ab682610ede565b610abf57600080fd5b600080610acb84610f04565b90925090508067ffffffffffffffff81118015610ae757600080fd5b506040519080825280601f01601f191660200182016040528015610b12576020820181803683370190505b509250610b20828483610e50565b5050919050565b6000806060610b35866108c8565b90506060815167ffffffffffffffff81118015610b5157600080fd5b506040519080825280601f01601f191660200182016040528015610b7c576020820181803683370190505b509050845b82518601811015610bd6576000878281518110610b9a57fe5b602001015160f81c60f81b9050808388840381518110610bb657fe5b60200101906001600160f81b031916908160001a90535050600101610b81565b50806040516020018082805190602001908083835b60208310610c0a5780518252601f199092019160209182019101610beb565b6001836020036101000a03801982511681845116808217855250505050505090500191505060405160208183030381529060405280519060200120826040516020018082805190602001908083835b60208310610c785780518252601f199092019160209182019101610c59565b6001836020036101000a038019825116818451168082178552505050505050905001915050604051602081830303815290604052805190602001201415610cc25781519250610cc7565b600092505b509095945050505050565b6000816020015160001415610ce95750600061035e565b50515160c060009190911a101590565b6000610d0482610cd2565b610d105750600061035e565b81518051600090811a9190610d2485610f72565b6020860151908301915082016000190160005b818311610d5357610d4783610ff0565b90920191600101610d37565b9695505050505050565b610d65611097565b610d6e82610cd2565b610d7757600080fd5b6000610d8283610f72565b83519383529092016020820152919050565b6000610d9e61107d565b50508051602080820151915192015191011190565b610dbb61107d565b610dc482610d94565b156100415760208201516000610dd982610ff0565b82845260208085018290529201918401919091525061035e565b60006002830615610e24576010826002850481518110610e0f57fe5b016020015160f81c81610e1e57fe5b06610e46565b6010826002850481518110610e3557fe5b016020015160f81c81610e4457fe5b045b60f81b9392505050565b6020601f820104836020840160005b83811015610e7b57602081028381015190830152600101610e5f565b5050505060008251602001830152505050565b6000610e9982610ede565b610ea257600080fd5b600080610eae84610f04565b90925090506020811180610ec0575080155b15610eca57600080fd5b806020036101000a82510492505050919050565b6000816020015160001415610ef55750600061035e565b50515160c060009190911a1090565b600080610f1083610ede565b610f1957600080fd5b8251805160001a906080821015610f365780935060019250610f6b565b60b8821015610f545760018560200151039250806001019350610f6b565b602085015182820160b51901945082900360b60192505b5050915091565b6000816020015160001415610f895750600061035e565b8151805160001a906080821015610fa55760009250505061035e565b60b8821080610fc0575060c08210158015610fc0575060f882105b15610fd05760019250505061035e565b60c0821015610fe5575060b51901905061035e565b5060f5190192915050565b8051600090811a60808110156110095760019150610a9a565b60b881101561101e57607e1981019150610a9a565b60c081101561104757600183015160b76020839003016101000a9004810160b519019150610a9a565b60f881101561105c5760be1981019150610a9a565b6001929092015160f76020849003016101000a900490910160f51901919050565b604051806040016040528060008152602001600081525090565b60405180604001604052806110aa61107d565b815260200160008152509056fea2646970667358221220816299622d15dc2311a40d4ba70a051e2a7bf0f76699fa4ddee39f83775bd6e464736f6c63430007010033",
  "immutableReferences": {},
  "source": "pragma solidity ^0.7.1;\n//SPDX-License-Identifier: UNLICENSED\n\nimport \"./Libraries/SafeMath.sol\";\nimport \"./Libraries/MerklePatriciaProof.sol\";\n\nimport \"./Interfaces/IShyftCacheGraph.sol\";\n\n//import \"./Interfaces/IShyftBridge.sol\";\nimport \"./Interfaces/ITrustChannelManager.sol\";\nimport \"./Interfaces/ITrustChannelManager_Routing.sol\";\n\nimport \"./Interfaces/IShyftCacheGraph_ExternalTrustChannelProver.sol\";\n\n/// @dev\n/// | A reference contract related to the Shyft Cache Graph's routing channels.\n/// | Especially useful if wanting to prove off-chain data (would need to be associated to the Shyft Bridge), in relation to offchain Trust Channels the user is associated to.\n\ncontract ShyftCacheGraph_ExternalTrustChannelProver is IShyftCacheGraph_ExternalTrustChannelProver {\n    event EVT_ProveCacheGraphSegment(address _identifiedAddress, bytes32 _receiptsRoot);\n\n    /// @dev using the SafeMath library for any uint256 values.\n    using SafeMath for uint256;\n\n    /// @dev The owner of this contract.\n    address owner = address(0);\n\n    /// @dev The Shyft Cache Graph address that this contract is bound to.\n    address shyftCacheGraphAddress = address(0);\n\n    /// @dev The Trust Anchor Manager address that this contract is bound to.\n    address trustChannelManagerAddress = address(0);\n\n    /// @dev Initializes this contract with the owner set to the calling public address.\n\n    constructor() {\n        owner = msg.sender;\n    }\n\n    /// @param _shyftCacheGraphAddress The smart contract address for the Shyft Cache Graph that should be linked.\n    /// @dev Links the Shyft Cache Graph to this contract's function flow.\n    /// @return result\n    ///    | false: [ will never return false due to require() ]\n    ///    | true: shyft cache graph address set correctly\n\n    function setShyftCacheGraphAddress(address _shyftCacheGraphAddress) public returns (bool result) {\n        require(_shyftCacheGraphAddress != address(0));\n        require(msg.sender == owner);\n\n        shyftCacheGraphAddress = _shyftCacheGraphAddress;\n\n        //shyft cache graph address set correctly\n        return true;\n    }\n\n    /// @param _trustChannelManagerAddress The smart contract address for the Trust Channel Manager that should be linked.\n    /// @dev Links Trust Channel Manager to this contract's function flow.\n    /// @return result\n    ///    | false: [ will never return false due to require() ]\n    ///    | true: trust channel manager address set correctly\n\n    function setTrustChannelManagerAddress(address _trustChannelManagerAddress) public returns (bool result) {\n        require(_trustChannelManagerAddress != address(0));\n        require(msg.sender == owner);\n\n        trustChannelManagerAddress = _trustChannelManagerAddress;\n\n        //trust channel manager address set correctly\n        return true;\n    }\n\n    function proveCacheGraphSegment(address _identifiedAddress,\n                                    uint64 _segmentIndex,\n                                    bytes32 _receiptsRoot,\n                                    bytes memory _rlpCacheGraphProofTx,\n                                    bytes memory _receiptPath,\n                                    bytes memory _receiptParentNodes,\n                                    bytes memory _rlpCacheGraphProofReceipt) public override returns (uint8 result) {\n        // need to extend util/txProof.js to generate proofs for receipts trie as well as tx trie\n        bool receiptProofResult = MerklePatriciaProof.verify(_rlpCacheGraphProofReceipt, _receiptPath, _receiptParentNodes, _receiptsRoot);\n\n        //@note:@todo: get block number for the receipts root, check if that block number is higher than the existing confirmed status\n        // if so, run the proof checking against the current cache graph segment (should be external to this blockchain at this point, but should also pass on a local blockchain update)\n\n        if (receiptProofResult == true) {\n            bytes32 rlpCacheGraphProofTxHash = keccak256(abi.encodePacked(_rlpCacheGraphProofTx));\n            //@note:@todo: if that passes, update the user's cache graph data with the details surrounding this, and return true.\n\n//            //get the contract address from the rules storage, this is all that is needed to perform the next step\n//            address exDataContractAddress = address(uint160(uint256(trustChannelManager.getTrustChannelRulesStorage(_trustChannelIndex, uint8(trustChannelRulesEnum.ExternalRoutingContractEnforced), 0))));\n//\n//            bytes4 sig = bytes4(keccak256(abi.encodePacked(\"proveCacheGraphSegment(address,uint64,bytes32,bytes,bytes,bytes,bytes)\")));\n//\n//            bytes memory result;\n//            (success, result) = exDataContractAddress.call(abi.encodeWithSelector(sig, _identifiedAddress, _segmentIndex, _receiptsRoot, _rlpCacheGraphProofTx, _receiptPath, _receiptParentNodes, _rlpCacheGraphProofReceipt));\n//            //check whether the rules' requirement for amount sent to be under or equal to this amount sent.\n//            //                        (_amount, _receiver, _tokenLeadContract, _expectedAmount, _expectedSC) = abi.decode(data, (uint, address, address, uint, address));\n//            int16 exDataExternalTrustLevel;\n//            (externalTrustLevel, exDataExternalTrustLevel) = abi.decode(result, (int16, int16));\n\n//            Withdrawal storage userWithdrawal = userWithdrawals[msg.sender][rlpCacheGraphProofTxHash];\n//            userWithdrawal.receiptsRoot = _receiptsRoot;\n\n            emit EVT_ProveCacheGraphSegment(_identifiedAddress, _receiptsRoot);\n\n            return 1;\n        } else {\n            return 0;\n        }\n    }\n}\n",
  "sourcePath": "/opt/shyft-ta-node/contracts/ShyftCacheGraph_ExternalTrustChannelProver.sol",
  "compiler": {
    "name": "solc",
    "version": "0.7.1+commit.f4a555be.Emscripten.clang"
  },
  "schemaVersion": "3.3.4",
  "updatedAt": "2021-09-16T18:31:15.521Z",
  "devdoc": {
    "details": "| A reference contract related to the Shyft Cache Graph's routing channels. | Especially useful if wanting to prove off-chain data (would need to be associated to the Shyft Bridge), in relation to offchain Trust Channels the user is associated to.",
    "kind": "dev",
    "methods": {
      "constructor": {
        "details": "Initializes this contract with the owner set to the calling public address."
      },
      "setShyftCacheGraphAddress(address)": {
        "details": "Links the Shyft Cache Graph to this contract's function flow.",
        "params": {
          "_shyftCacheGraphAddress": "The smart contract address for the Shyft Cache Graph that should be linked."
        },
        "returns": {
          "result": "   | false: [ will never return false due to require() ]    | true: shyft cache graph address set correctly"
        }
      },
      "setTrustChannelManagerAddress(address)": {
        "details": "Links Trust Channel Manager to this contract's function flow.",
        "params": {
          "_trustChannelManagerAddress": "The smart contract address for the Trust Channel Manager that should be linked."
        },
        "returns": {
          "result": "   | false: [ will never return false due to require() ]    | true: trust channel manager address set correctly"
        }
      }
    },
    "stateVariables": {
      "owner": {
        "details": "The owner of this contract."
      },
      "shyftCacheGraphAddress": {
        "details": "The Shyft Cache Graph address that this contract is bound to."
      },
      "trustChannelManagerAddress": {
        "details": "The Trust Anchor Manager address that this contract is bound to."
      }
    },
    "version": 1
  },
  "userdoc": {
    "kind": "user",
    "methods": {},
    "version": 1
  }
}