{
  "contractName": "ShyftCacheGraph",
  "abi": [
    {
      "inputs": [],
      "stateMutability": "nonpayable",
      "type": "constructor"
    },
    {
      "anonymous": false,
      "inputs": [
        {
          "indexed": false,
          "internalType": "uint256",
          "name": "_effectiveTime",
          "type": "uint256"
        },
        {
          "indexed": false,
          "internalType": "uint256",
          "name": "blockTimestamp",
          "type": "uint256"
        },
        {
          "indexed": false,
          "internalType": "uint256",
          "name": "_expiryTime",
          "type": "uint256"
        },
        {
          "indexed": false,
          "internalType": "bool",
          "name": "isActive",
          "type": "bool"
        }
      ],
      "name": "EVT_CompareTime",
      "type": "event"
    },
    {
      "anonymous": false,
      "inputs": [
        {
          "indexed": false,
          "internalType": "address",
          "name": "_identifiedAddress",
          "type": "address"
        },
        {
          "indexed": false,
          "internalType": "uint32",
          "name": "i",
          "type": "uint32"
        },
        {
          "indexed": false,
          "internalType": "uint16",
          "name": "idx",
          "type": "uint16"
        }
      ],
      "name": "EVT_DoCompileCacheGraph",
      "type": "event"
    },
    {
      "anonymous": false,
      "inputs": [
        {
          "indexed": false,
          "internalType": "address",
          "name": "_identifiedAddress",
          "type": "address"
        },
        {
          "indexed": false,
          "internalType": "bytes32",
          "name": "keccakHash",
          "type": "bytes32"
        },
        {
          "indexed": false,
          "internalType": "bool",
          "name": "consentAvailable",
          "type": "bool"
        }
      ],
      "name": "EVT_DoCompileCacheGraphTrustChannelEXBitFields",
      "type": "event"
    },
    {
      "anonymous": false,
      "inputs": [
        {
          "indexed": false,
          "internalType": "address",
          "name": "_identifiedAddress",
          "type": "address"
        },
        {
          "indexed": false,
          "internalType": "uint32",
          "name": "trustAnchorIndex",
          "type": "uint32"
        },
        {
          "indexed": false,
          "internalType": "bytes32",
          "name": "keccakHash",
          "type": "bytes32"
        }
      ],
      "name": "EVT_DoConditionallyRemoveTrustChannelEXBitFields",
      "type": "event"
    },
    {
      "anonymous": false,
      "inputs": [
        {
          "indexed": false,
          "internalType": "uint24",
          "name": "senderLowestSubmapNumber",
          "type": "uint24"
        },
        {
          "indexed": false,
          "internalType": "uint24",
          "name": "senderHighestSubmapNumber",
          "type": "uint24"
        },
        {
          "indexed": false,
          "internalType": "uint24",
          "name": "receiverLowestSubmapNumber",
          "type": "uint24"
        },
        {
          "indexed": false,
          "internalType": "uint24",
          "name": "receiverHighestSubmapNumber",
          "type": "uint24"
        },
        {
          "indexed": false,
          "internalType": "uint256",
          "name": "senderBitfield",
          "type": "uint256"
        },
        {
          "indexed": false,
          "internalType": "uint256",
          "name": "receiverBitfield",
          "type": "uint256"
        },
        {
          "indexed": false,
          "internalType": "uint256",
          "name": "andedBitField",
          "type": "uint256"
        }
      ],
      "name": "EVT_GetActiveTrustChannelEXBitFieldLength",
      "type": "event"
    },
    {
      "anonymous": false,
      "inputs": [
        {
          "indexed": false,
          "internalType": "address",
          "name": "_identifiedAddress",
          "type": "address"
        },
        {
          "indexed": false,
          "internalType": "bool",
          "name": "attestationStatusApproved",
          "type": "bool"
        },
        {
          "indexed": false,
          "internalType": "bool",
          "name": "didChangeApprovedStatus",
          "type": "bool"
        },
        {
          "indexed": false,
          "internalType": "uint16",
          "name": "attestationIndex",
          "type": "uint16"
        },
        {
          "indexed": false,
          "internalType": "bool",
          "name": "attestationHasAlreadyBeenProcessed",
          "type": "bool"
        }
      ],
      "name": "EVT_GotAttestationStatus",
      "type": "event"
    },
    {
      "anonymous": false,
      "inputs": [
        {
          "indexed": false,
          "internalType": "address",
          "name": "trustAnchorAddress",
          "type": "address"
        },
        {
          "indexed": false,
          "internalType": "uint32",
          "name": "trustAnchorIndex",
          "type": "uint32"
        },
        {
          "indexed": false,
          "internalType": "uint256",
          "name": "bitField",
          "type": "uint256"
        }
      ],
      "name": "EVT_GotBitFieldFromTrustAnchor",
      "type": "event"
    },
    {
      "anonymous": false,
      "inputs": [
        {
          "indexed": false,
          "internalType": "uint24",
          "name": "senderHighestSubmapNumber",
          "type": "uint24"
        },
        {
          "indexed": false,
          "internalType": "uint24",
          "name": "receiverHighestSubmapNumber",
          "type": "uint24"
        }
      ],
      "name": "EVT_GotHighestSubmapNumbers",
      "type": "event"
    },
    {
      "anonymous": false,
      "inputs": [
        {
          "indexed": false,
          "internalType": "uint24",
          "name": "lowestTrustChannelSubmapNumber",
          "type": "uint24"
        },
        {
          "indexed": false,
          "internalType": "uint24",
          "name": "highestTrustChannelSubmapNumber",
          "type": "uint24"
        }
      ],
      "name": "EVT_GotLowestAndHighestTrustChannelSubmapNumber",
      "type": "event"
    },
    {
      "anonymous": false,
      "inputs": [
        {
          "indexed": false,
          "internalType": "uint32",
          "name": "trustChannelIndex",
          "type": "uint32"
        }
      ],
      "name": "EVT_TrustChannelBitFieldIndex",
      "type": "event"
    },
    {
      "anonymous": false,
      "inputs": [
        {
          "indexed": false,
          "internalType": "uint32",
          "name": "index",
          "type": "uint32"
        },
        {
          "indexed": false,
          "internalType": "uint32",
          "name": "shifter",
          "type": "uint32"
        },
        {
          "indexed": false,
          "internalType": "uint32",
          "name": "trustChannelBitFieldWord",
          "type": "uint32"
        },
        {
          "indexed": false,
          "internalType": "uint256",
          "name": "trustChannelBitField",
          "type": "uint256"
        },
        {
          "indexed": false,
          "internalType": "uint32",
          "name": "trustChannelIndex",
          "type": "uint32"
        }
      ],
      "name": "EVT_TrustChannelBitFieldIndexEXT",
      "type": "event"
    },
    {
      "anonymous": false,
      "inputs": [
        {
          "indexed": false,
          "internalType": "uint32",
          "name": "bitFieldWords",
          "type": "uint32"
        }
      ],
      "name": "EVT_TrustChannelBitFieldWords",
      "type": "event"
    },
    {
      "anonymous": false,
      "inputs": [
        {
          "indexed": false,
          "internalType": "uint32",
          "name": "trustChannelIndex",
          "type": "uint32"
        },
        {
          "indexed": false,
          "internalType": "address",
          "name": "_senderIdentifiedAddress",
          "type": "address"
        },
        {
          "indexed": false,
          "internalType": "address",
          "name": "_receiverIdentifiedAddress",
          "type": "address"
        }
      ],
      "name": "EVT_TrustChannelRouted",
      "type": "event"
    },
    {
      "anonymous": false,
      "inputs": [
        {
          "indexed": false,
          "internalType": "address",
          "name": "_identifiedAddress",
          "type": "address"
        },
        {
          "indexed": false,
          "internalType": "uint16",
          "name": "updateLength",
          "type": "uint16"
        },
        {
          "indexed": false,
          "internalType": "uint16",
          "name": "oldAttestationKeccakArrayLength",
          "type": "uint16"
        },
        {
          "indexed": false,
          "internalType": "uint16",
          "name": "attestationKeccakArrayLength",
          "type": "uint16"
        }
      ],
      "name": "EVT_UpdatingCacheGraph",
      "type": "event"
    },
    {
      "anonymous": false,
      "inputs": [
        {
          "indexed": false,
          "internalType": "address",
          "name": "senderIdentifiedAddress",
          "type": "address"
        },
        {
          "indexed": false,
          "internalType": "address",
          "name": "receiverIdentifiedAddress",
          "type": "address"
        },
        {
          "indexed": false,
          "internalType": "uint256",
          "name": "amount",
          "type": "uint256"
        },
        {
          "indexed": false,
          "internalType": "uint256",
          "name": "bip32X_type",
          "type": "uint256"
        },
        {
          "indexed": false,
          "internalType": "bool",
          "name": "requiredConsentFromAllParties",
          "type": "bool"
        },
        {
          "indexed": false,
          "internalType": "bool",
          "name": "requiredActive",
          "type": "bool"
        }
      ],
      "name": "EVT_getRelativeTrustLevelOnlyCleanDebug",
      "type": "event"
    },
    {
      "anonymous": false,
      "inputs": [
        {
          "indexed": false,
          "internalType": "uint8",
          "name": "returnCode",
          "type": "uint8"
        },
        {
          "indexed": false,
          "internalType": "uint256",
          "name": "foundChannelRulesBitField",
          "type": "uint256"
        },
        {
          "indexed": false,
          "internalType": "uint256",
          "name": "totalRules",
          "type": "uint256"
        },
        {
          "indexed": false,
          "internalType": "uint256",
          "name": "rulesPassed",
          "type": "uint256"
        },
        {
          "indexed": false,
          "internalType": "int16",
          "name": "relativeTrustLevel",
          "type": "int16"
        },
        {
          "indexed": false,
          "internalType": "int16",
          "name": "externalTrustLevel",
          "type": "int16"
        },
        {
          "indexed": false,
          "internalType": "uint16",
          "name": "externalRulesPassed",
          "type": "uint16"
        }
      ],
      "name": "EVT_getRelativeTrustLevelOnlyCleanDebugExtra",
      "type": "event"
    },
    {
      "inputs": [
        {
          "internalType": "uint32",
          "name": "b",
          "type": "uint32"
        }
      ],
      "name": "debruijn_rightmost_index",
      "outputs": [
        {
          "internalType": "uint32",
          "name": "result",
          "type": "uint32"
        }
      ],
      "stateMutability": "view",
      "type": "function",
      "constant": true
    },
    {
      "inputs": [],
      "name": "externalTrustChannelProverAddress",
      "outputs": [
        {
          "internalType": "address",
          "name": "",
          "type": "address"
        }
      ],
      "stateMutability": "view",
      "type": "function",
      "constant": true
    },
    {
      "inputs": [
        {
          "internalType": "uint32",
          "name": "i",
          "type": "uint32"
        }
      ],
      "name": "numberOfSetBits",
      "outputs": [
        {
          "internalType": "uint32",
          "name": "result",
          "type": "uint32"
        }
      ],
      "stateMutability": "pure",
      "type": "function",
      "constant": true
    },
    {
      "inputs": [],
      "name": "owner",
      "outputs": [
        {
          "internalType": "address",
          "name": "",
          "type": "address"
        }
      ],
      "stateMutability": "view",
      "type": "function",
      "constant": true
    },
    {
      "inputs": [
        {
          "internalType": "uint32",
          "name": "n",
          "type": "uint32"
        }
      ],
      "name": "reverse_bits",
      "outputs": [
        {
          "internalType": "uint32",
          "name": "result",
          "type": "uint32"
        }
      ],
      "stateMutability": "pure",
      "type": "function",
      "constant": true
    },
    {
      "inputs": [],
      "name": "setupDebruijnTable",
      "outputs": [
        {
          "internalType": "bool",
          "name": "result",
          "type": "bool"
        }
      ],
      "stateMutability": "nonpayable",
      "type": "function"
    },
    {
      "inputs": [],
      "name": "trustAnchorStorageAddress",
      "outputs": [
        {
          "internalType": "address",
          "name": "",
          "type": "address"
        }
      ],
      "stateMutability": "view",
      "type": "function",
      "constant": true
    },
    {
      "inputs": [],
      "name": "trustChannelManagerAddress",
      "outputs": [
        {
          "internalType": "address",
          "name": "",
          "type": "address"
        }
      ],
      "stateMutability": "view",
      "type": "function",
      "constant": true
    },
    {
      "inputs": [
        {
          "internalType": "address",
          "name": "_trustAnchorStorageAddress",
          "type": "address"
        }
      ],
      "name": "setTrustAnchorStorageAddress",
      "outputs": [
        {
          "internalType": "uint8",
          "name": "result",
          "type": "uint8"
        }
      ],
      "stateMutability": "nonpayable",
      "type": "function"
    },
    {
      "inputs": [
        {
          "internalType": "address",
          "name": "_trustChannelManagerAddress",
          "type": "address"
        }
      ],
      "name": "setTrustChannelManagerAddress",
      "outputs": [
        {
          "internalType": "uint8",
          "name": "result",
          "type": "uint8"
        }
      ],
      "stateMutability": "nonpayable",
      "type": "function"
    },
    {
      "inputs": [
        {
          "internalType": "address",
          "name": "_externalTrustChannelProverAddress",
          "type": "address"
        }
      ],
      "name": "setExternalTrustChannelProverAddress",
      "outputs": [
        {
          "internalType": "uint8",
          "name": "result",
          "type": "uint8"
        }
      ],
      "stateMutability": "nonpayable",
      "type": "function"
    },
    {
      "inputs": [
        {
          "internalType": "address",
          "name": "_identifiedAddress",
          "type": "address"
        }
      ],
      "name": "reconstructCacheGraph",
      "outputs": [
        {
          "internalType": "uint8",
          "name": "result",
          "type": "uint8"
        }
      ],
      "stateMutability": "nonpayable",
      "type": "function"
    },
    {
      "inputs": [
        {
          "internalType": "address",
          "name": "_identifiedAddress",
          "type": "address"
        },
        {
          "internalType": "uint16",
          "name": "_idx",
          "type": "uint16"
        }
      ],
      "name": "compileCacheGraph",
      "outputs": [],
      "stateMutability": "nonpayable",
      "type": "function"
    },
    {
      "inputs": [
        {
          "internalType": "uint256",
          "name": "trustChannelBitField",
          "type": "uint256"
        }
      ],
      "name": "getTrustChannelSubIndexFromBitField",
      "outputs": [
        {
          "internalType": "uint8",
          "name": "result",
          "type": "uint8"
        }
      ],
      "stateMutability": "nonpayable",
      "type": "function"
    },
    {
      "inputs": [
        {
          "internalType": "address",
          "name": "_senderIdentifiedAddress",
          "type": "address"
        },
        {
          "internalType": "address",
          "name": "_receiverIdentifiedAddress",
          "type": "address"
        }
      ],
      "name": "getActiveConsentedTrustChannelBitFieldForPair",
      "outputs": [
        {
          "internalType": "uint32",
          "name": "result",
          "type": "uint32"
        }
      ],
      "stateMutability": "nonpayable",
      "type": "function"
    },
    {
      "inputs": [
        {
          "internalType": "address",
          "name": "_senderIdentifiedAddress",
          "type": "address"
        },
        {
          "internalType": "address",
          "name": "_receiverIdentifiedAddress",
          "type": "address"
        }
      ],
      "name": "getActiveTrustChannelBitFieldForPair",
      "outputs": [
        {
          "internalType": "uint32",
          "name": "result",
          "type": "uint32"
        }
      ],
      "stateMutability": "nonpayable",
      "type": "function"
    },
    {
      "inputs": [
        {
          "internalType": "address",
          "name": "_firstAddress",
          "type": "address"
        },
        {
          "internalType": "address",
          "name": "_secondAddress",
          "type": "address"
        },
        {
          "internalType": "address",
          "name": "_trustChannelAddress",
          "type": "address"
        }
      ],
      "name": "getActiveConsentedTrustChannelRoutePossible",
      "outputs": [
        {
          "internalType": "bool",
          "name": "result",
          "type": "bool"
        }
      ],
      "stateMutability": "view",
      "type": "function",
      "constant": true
    },
    {
      "inputs": [
        {
          "internalType": "address",
          "name": "_firstAddress",
          "type": "address"
        },
        {
          "internalType": "address",
          "name": "_secondAddress",
          "type": "address"
        },
        {
          "internalType": "address",
          "name": "_trustChannelAddress",
          "type": "address"
        }
      ],
      "name": "getActiveTrustChannelRoutePossible",
      "outputs": [
        {
          "internalType": "bool",
          "name": "result",
          "type": "bool"
        }
      ],
      "stateMutability": "view",
      "type": "function",
      "constant": true
    },
    {
      "inputs": [
        {
          "internalType": "address",
          "name": "_senderIdentifiedAddress",
          "type": "address"
        },
        {
          "internalType": "address",
          "name": "_receiverIdentifiedAddress",
          "type": "address"
        },
        {
          "internalType": "uint256",
          "name": "_amount",
          "type": "uint256"
        },
        {
          "internalType": "uint256",
          "name": "_bip32X_type",
          "type": "uint256"
        },
        {
          "internalType": "bool",
          "name": "_requiredConsentFromAllParties",
          "type": "bool"
        },
        {
          "internalType": "bool",
          "name": "_requiredActive",
          "type": "bool"
        }
      ],
      "name": "getRelativeTrustLevelOnlyClean",
      "outputs": [
        {
          "internalType": "int16",
          "name": "relativeTrustLevel",
          "type": "int16"
        },
        {
          "internalType": "int16",
          "name": "externalTrustLevel",
          "type": "int16"
        }
      ],
      "stateMutability": "nonpayable",
      "type": "function"
    },
    {
      "inputs": [
        {
          "internalType": "uint32",
          "name": "_trustChannelIndex",
          "type": "uint32"
        },
        {
          "internalType": "uint256",
          "name": "_foundChannelRulesBitField",
          "type": "uint256"
        },
        {
          "internalType": "address",
          "name": "_senderIdentifiedAddress",
          "type": "address"
        },
        {
          "internalType": "address",
          "name": "_receiverIdentifiedAddress",
          "type": "address"
        },
        {
          "internalType": "uint256",
          "name": "_amount",
          "type": "uint256"
        },
        {
          "internalType": "uint256",
          "name": "_bip32X_type",
          "type": "uint256"
        },
        {
          "internalType": "bool",
          "name": "_requiredConsentFromAllParties",
          "type": "bool"
        },
        {
          "internalType": "bool",
          "name": "_requiredActive",
          "type": "bool"
        }
      ],
      "name": "calculateRelativeTrustLevel",
      "outputs": [
        {
          "internalType": "int16",
          "name": "relativeTrustLevel",
          "type": "int16"
        },
        {
          "internalType": "int16",
          "name": "externalTrustLevel",
          "type": "int16"
        }
      ],
      "stateMutability": "nonpayable",
      "type": "function"
    },
    {
      "inputs": [
        {
          "internalType": "uint32",
          "name": "_trustChannelIndex",
          "type": "uint32"
        },
        {
          "internalType": "address",
          "name": "_senderIdentifiedAddress",
          "type": "address"
        },
        {
          "internalType": "address",
          "name": "_receiverIdentifiedAddress",
          "type": "address"
        },
        {
          "internalType": "uint256",
          "name": "_amount",
          "type": "uint256"
        },
        {
          "internalType": "uint256",
          "name": "_bip32X_type",
          "type": "uint256"
        },
        {
          "internalType": "bool",
          "name": "_requiredConsentFromAllParties",
          "type": "bool"
        },
        {
          "internalType": "bool",
          "name": "_requiredActive",
          "type": "bool"
        }
      ],
      "name": "getExternalTrustLevel",
      "outputs": [
        {
          "internalType": "bool",
          "name": "success",
          "type": "bool"
        },
        {
          "internalType": "int16",
          "name": "externalTrustLevel",
          "type": "int16"
        }
      ],
      "stateMutability": "nonpayable",
      "type": "function"
    },
    {
      "inputs": [
        {
          "internalType": "address",
          "name": "_senderIdentifiedAddress",
          "type": "address"
        },
        {
          "internalType": "address",
          "name": "_receiverIdentifiedAddress",
          "type": "address"
        },
        {
          "internalType": "uint256",
          "name": "_amount",
          "type": "uint256"
        },
        {
          "internalType": "uint256",
          "name": "_bip32X_type",
          "type": "uint256"
        },
        {
          "internalType": "bool",
          "name": "_requiredConsentFromAllParties",
          "type": "bool"
        },
        {
          "internalType": "bool",
          "name": "_payForDirty",
          "type": "bool"
        }
      ],
      "name": "getKycCanSend",
      "outputs": [
        {
          "internalType": "uint8",
          "name": "result",
          "type": "uint8"
        }
      ],
      "stateMutability": "nonpayable",
      "type": "function"
    },
    {
      "inputs": [
        {
          "internalType": "address",
          "name": "_identifiedAddress",
          "type": "address"
        },
        {
          "internalType": "uint64",
          "name": "_segmentIndex",
          "type": "uint64"
        },
        {
          "internalType": "bytes32",
          "name": "_receiptsRoot",
          "type": "bytes32"
        },
        {
          "internalType": "bytes",
          "name": "_rlpCacheGraphProofTx",
          "type": "bytes"
        },
        {
          "internalType": "bytes",
          "name": "_receiptPath",
          "type": "bytes"
        },
        {
          "internalType": "bytes",
          "name": "_receiptParentNodes",
          "type": "bytes"
        },
        {
          "internalType": "bytes",
          "name": "_rlpCacheGraphProofReceipt",
          "type": "bytes"
        }
      ],
      "name": "proveCacheGraphSegment",
      "outputs": [
        {
          "internalType": "uint8",
          "name": "result",
          "type": "uint8"
        }
      ],
      "stateMutability": "nonpayable",
      "type": "function"
    }
  ],
  "bytecode": "0x60806040526000805463ffffffff1990811663077cb531179091556005805490911663ffffffff179055600780546001600160a01b0319908116909155600880548216905560098054909116905534801561005957600080fd5b50600a80546001600160a01b0319163317905561299d8061007b6000396000f3fe608060405234801561001057600080fd5b506004361061014d5760003560e01c806371457397116100c3578063b460b1a51161007c578063b460b1a51461070d578063b7b559d91461072a578063b95f6f9f14610750578063c62d30dc14610758578063ce3b94d71461078a578063d058df66146107b85761014d565b806371457397146105f257806381a79caf146106185780638da5cb5b1461068e578063a06068b414610696578063a3413a02146106e2578063b459b9de146106ea5761014d565b8063397307711161011557806339730771146102415780633d1d2a71146102795780634a32bffb1461029d578063514551ef146102e95780635260c5221461054257806358eae77e146105705761014d565b8063048b8bf9146101525780630a3616781461019e5780630dd1e579146101da5780631943ef79146101fd57806337cc1ed814610239575b600080fd5b61018a6004803603606081101561016857600080fd5b506001600160a01b0381358116916020810135821691604090910135166107de565b604080519115158252519081900360200190f35b6101c1600480360360208110156101b457600080fd5b503563ffffffff1661092b565b6040805163ffffffff9092168252519081900360200190f35b6101c1600480360360208110156101f057600080fd5b503563ffffffff1661096d565b6102236004803603602081101561021357600080fd5b50356001600160a01b03166109ba565b6040805160ff9092168252519081900360200190f35b61018a610a07565b61018a6004803603606081101561025757600080fd5b506001600160a01b038135811691602081013582169160409091013516610a79565b610281610baf565b604080516001600160a01b039092168252519081900360200190f35b610223600480360360c08110156102b357600080fd5b506001600160a01b038135811691602081013590911690604081013590606081013590608081013515159060a001351515610bbe565b610223600480360360e08110156102ff57600080fd5b6001600160a01b038235169167ffffffffffffffff6020820135169160408201359190810190608081016060820135600160201b81111561033f57600080fd5b82018360208201111561035157600080fd5b803590602001918460018302840111600160201b8311171561037257600080fd5b91908080601f0160208091040260200160405190810160405280939291908181526020018383808284376000920191909152509295949360208101935035915050600160201b8111156103c457600080fd5b8201836020820111156103d657600080fd5b803590602001918460018302840111600160201b831117156103f757600080fd5b91908080601f0160208091040260200160405190810160405280939291908181526020018383808284376000920191909152509295949360208101935035915050600160201b81111561044957600080fd5b82018360208201111561045b57600080fd5b803590602001918460018302840111600160201b8311171561047c57600080fd5b91908080601f0160208091040260200160405190810160405280939291908181526020018383808284376000920191909152509295949360208101935035915050600160201b8111156104ce57600080fd5b8201836020820111156104e057600080fd5b803590602001918460018302840111600160201b8311171561050157600080fd5b91908080601f016020809104026020016040519081016040528093929190818152602001838380828437600092019190915250929550610d0d945050505050565b6101c16004803603604081101561055857600080fd5b506001600160a01b0381358116916020013516610f6c565b6105cf600480360361010081101561058757600080fd5b5063ffffffff813516906020810135906001600160a01b03604082013581169160608101359091169060808101359060a08101359060c081013515159060e0013515156111e0565b604051808360010b81526020018260010b81526020019250505060405180910390f35b6102236004803603602081101561060857600080fd5b50356001600160a01b0316611323565b610670600480360360e081101561062e57600080fd5b5063ffffffff813516906001600160a01b03602082013581169160408101359091169060608101359060808101359060a081013515159060c001351515611368565b60408051921515835260019190910b60208301528051918290030190f35b610281611585565b6105cf600480360360c08110156106ac57600080fd5b506001600160a01b038135811691602081013590911690604081013590606081013590608081013515159060a001351515611594565b6102816116bf565b6101c16004803603602081101561070057600080fd5b503563ffffffff166116ce565b6102236004803603602081101561072357600080fd5b503561177d565b6102236004803603602081101561074057600080fd5b50356001600160a01b03166118c4565b6102816119f4565b6107886004803603604081101561076e57600080fd5b5080356001600160a01b0316906020013561ffff16611a03565b005b6101c1600480360360408110156107a057600080fd5b506001600160a01b0381358116916020013516611ea7565b610223600480360360208110156107ce57600080fd5b50356001600160a01b03166121eb565b6001600160a01b03838116600090815260066020908152604080832086851684528184206008548351606089901b6bffffffffffffffffffffffff1916818701528451601481830301815260348201808752815191880191909120631e16968360e21b909152603882018190529451969760019485019794909301959190921693928792859263785a5a0c92605880840193829003018186803b15801561088457600080fd5b505afa158015610898573d6000803e3d6000fd5b505050506040513d60208110156108ae57600080fd5b5051600881901c62ffffff166000818152600c8881016020908152604080842054928a0190915290912054929350909160ff841691600283900a9182821660011480156108fd57508083166001145b156109155760019a5050505050505050505050610924565b60009a50505050505050505050505b9392505050565b600181901c6355555555169003600281901c6333333333908116911601600481901c630fffffff168101630f0f0f0f1663010101010260181c60ff165b919050565b6000805482820390921663ffffffff90921691909102601b1c601f16906001826020811061099757fe5b600891828204019190066004029054906101000a900463ffffffff169050919050565b60006109c4612230565b156109ff576001600160a01b0382166109dc57600080fd5b50600980546001600160a01b0319166001600160a01b0383161790556001610968565b506000610968565b6000805b60208160ff161015610a705760005460ff82169060019063ffffffff16821b601b1c601f1660208110610a3a57fe5b600891828204019190066004026101000a81548163ffffffff021916908363ffffffff1602179055508080600101915050610a0b565b50600190505b90565b6001600160a01b03838116600090815260066020908152604080832086851684528184206008548351606089901b6bffffffffffffffffffffffff1916818701528451601481830301815260348201808752815191880191909120631e16968360e21b909152603882018190529451969760019485019794909301959190921693928792859263785a5a0c92605880840193829003018186803b158015610b1f57600080fd5b505afa158015610b33573d6000803e3d6000fd5b505050506040513d6020811015610b4957600080fd5b5051600881901c62ffffff166000818152600d8881016020908152604080842054928a0190915290912054929350909160ff841691600283900a9182821660011480156108fd5750808316600114156109155760019a5050505050505050505050610924565b6008546001600160a01b031681565b600060026001600160a01b038816600090815260066020526040902060010154610100900460ff166003811115610bf157fe5b1480610c2b575060026001600160a01b038716600090815260066020526040902060010154610100900460ff166003811115610c2957fe5b145b15610cc15781610c3d57506004610d03565b60026001600160a01b038816600090815260066020526040902060010154610100900460ff166003811115610c6e57fe5b1415610c7f57610c7d876118c4565b505b60026001600160a01b038716600090815260066020526040902060010154610100900460ff166003811115610cb057fe5b1415610cc157610cbf866118c4565b505b600080610cd389898989896001611594565b9150915060008260010b1380610cec575060008160010b135b15610cfc57600392505050610d03565b6000925050505b9695505050505050565b600080600960009054906101000a90046001600160a01b031690506000816001600160a01b031663514551ef8b8b8b8b8b8b8b6040518863ffffffff1660e01b815260040180886001600160a01b031681526020018767ffffffffffffffff16815260200186815260200180602001806020018060200180602001858103855289818151815260200191508051906020019080838360005b83811015610dbd578181015183820152602001610da5565b50505050905090810190601f168015610dea5780820380516001836020036101000a031916815260200191505b5085810384528851815288516020918201918a019080838360005b83811015610e1d578181015183820152602001610e05565b50505050905090810190601f168015610e4a5780820380516001836020036101000a031916815260200191505b50858103835287518152875160209182019189019080838360005b83811015610e7d578181015183820152602001610e65565b50505050905090810190601f168015610eaa5780820380516001836020036101000a031916815260200191505b50858103825286518152865160209182019188019080838360005b83811015610edd578181015183820152602001610ec5565b50505050905090810190601f168015610f0a5780820380516001836020036101000a031916815260200191505b509b505050505050505050505050602060405180830381600087803b158015610f3257600080fd5b505af1158015610f46573d6000803e3d6000fd5b505050506040513d6020811015610f5c57600080fd5b50519a9950505050505050505050565b6001600160a01b0380831660009081526006602052604080822092841682528120600f8084015490820154929360019081019392019162ffffff600160301b808404821693600160481b908190048316939182048316929104168680841580610fd8575062ffffff8316155b15611083576000808052600d808a016020908152604080842054928b0190915290912054169150811561106f5761100e8261177d565b6040805160ff929092168083526001600160a01b03808f1660208501528d168383015290519092507fd8bb054501cc3c8cc10a1f81a4238e6cbd2a627b470772755b256bf4626cddd69181900360600190a197506111da9650505050505050565b63ffffffff985050505050505050506111da565b858562ffffff8083169087161015611099578591505b8062ffffff168562ffffff1611156110ae5750835b6040805162ffffff80851682528316602082015281517f8dae684b55df29d392637831aa4c43de04e31a51e4cdbaf80f6c9bc5e4824a9a929181900390910190a1815b8160010162ffffff168162ffffff1610156111c75762ffffff81166000908152600d808d016020908152604080842054928e019091529091205416945084156111bf5780610100026111428661177d565b60ff160162ffffff1693507fd8bb054501cc3c8cc10a1f81a4238e6cbd2a627b470772755b256bf4626cddd6848f8f604051808463ffffffff168152602001836001600160a01b03168152602001826001600160a01b03168152602001935050505060405180910390a1839b5050505050505050505050506111da565b6001016110f1565b5063ffffffff9a50505050505050505050505b92915050565b60085460009081906001600160a01b0316818060018c16156112d85760108c16156112a057600190910190886001600160a01b038416638f01b3938f600460006040518463ffffffff1660e01b8152600401808463ffffffff1681526020018360ff168152602001828152602001935050505060206040518083038186803b15801561126b57600080fd5b505afa15801561127f573d6000803e3d6000fd5b505050506040513d602081101561129557600080fd5b5051116112a0576001015b60208c16156112d85760019091019060006112c08e8d8d8d8d8d8d611368565b95509050600181151514156112d6576001909101905b505b816112e65760019450611313565b8082141561130e57617efe82111561130257617ffe9450611309565b8160010194505b611313565b600094505b5050509850989650505050505050565b600061132d612230565b156109ff576001600160a01b03821661134557600080fd5b50600780546001600160a01b0319166001600160a01b0383161790556001610968565b60085460009081906001600160a01b03168181638f01b3938c600560006040518463ffffffff1660e01b8152600401808463ffffffff1681526020018360ff168152602001828152602001935050505060206040518083038186803b1580156113d057600080fd5b505afa1580156113e4573d6000803e3d6000fd5b505050506040513d60208110156113fa57600080fd5b505160405190915060009060200180604961291f823960490190506040516020818303038152906040528051906020012090506060826001600160a01b0316828d8d8d8d8d8d60405160240180876001600160a01b03168152602001866001600160a01b03168152602001858152602001848152602001831515815260200182151581526020019650505050505050604051602081830303815290604052906001600160e01b0319166020820180516001600160e01b0383818316178352505050506040518082805190602001908083835b602083106114eb5780518252601f1990920191602091820191016114cc565b6001836020036101000a0380198251168184511680821785525050505050509050019150506000604051808303816000865af19150503d806000811461154d576040519150601f19603f3d011682016040523d82523d6000602084013e611552565b606091505b50805191975091506000906020830190604081101561157057600080fd5b50519550505050505097509795505050505050565b600a546001600160a01b031681565b60008080600185151514156115b4576115ad8989610f6c565b90506115c1565b6115be8989611ea7565b90505b63ffffffff818116146116ae5760085460408051637c547c2560e11b815263ffffffff8416600482015281516001600160a01b03909316926000928392859263f8a8f84a92602480840193919291829003018186803b15801561162357600080fd5b505afa158015611637573d6000803e3d6000fd5b505050506040513d604081101561164d57600080fd5b5080516020909101519092509050600160ff831614801561167057506001871515145b1561167e57600095506116a6565b60ff8216156116a15761169784828e8e8e8e8e8e6111e0565b90965094506116a6565b600095505b5050506116b3565b600092505b50965096945050505050565b6009546001600160a01b031681565b600060018263ffffffff16901c63555555551660016355555555841663ffffffff16901b17915060028263ffffffff16901c63333333331660028363333333331663ffffffff16901b17915060048263ffffffff16901c630f0f0f0f16600483630f0f0f0f1663ffffffff16901b17915060188263ffffffff16901b60088361ff001663ffffffff16901b60088463ffffffff16901c61ff001660188563ffffffff16901c1717179050919050565b6040805163ffffffff838116808352925160009391928492917f3ad02d4cc2da46ae2d04fec4fb9c292715bbdd9a8d76b6eb3bc5ba165d7efcd09181900360200190a163ffffffff811615611814576117d58161096d565b6040805160ff8316815290519193507fd2b9662e76f66bcc5970a866051d4e87fc54d83d29ca786772e5cdf20dd718ef919081900360200190a16118bc565b60008060065b600781900360200260ff811687811b8a16901c9350915063ffffffff8316156118af578160ff1661184a8461096d565b6040805160ff8086168252808716602083015263ffffffff881682840152606082018d9052939092019283166080830152519196507f7da1a9ffbed2f72b97b5f596ff969a8f5b6d4da411183a6b7511455b83278f43919081900360a00190a16118b8565b6000190161181a565b5050505b509392505050565b60075460408051633fea31e560e11b81526001600160a01b0384811660048301529151600093929092169183918391637fd463ca91602480820192602092909190829003018186803b15801561191957600080fd5b505afa15801561192d573d6000803e3d6000fd5b505050506040513d602081101561194357600080fd5b5051905061010061ffff8216111561195a57506101005b6001600160a01b03841660009081526006602052604090206002015461ffff808216908316146119e8576000818303602061ffff82161061199d57506001905060205b60005b8161ffff168161ffff1610156119c6578381016119bd8982611a03565b506001016119a0565b50816119da57600295505050505050610968565b600195505050505050610968565b60009350505050610968565b6007546001600160a01b031681565b60075460408051635890446360e01b81526001600160a01b03858116600483015260ff85166024830152915191909216916000918291829182918691635890446391604480820192608092909190829003018186803b158015611a6557600080fd5b505afa158015611a79573d6000803e3d6000fd5b505050506040513d6080811015611a8f57600080fd5b5080516020808301516040808501516060909501516001600160a01b038d166000908152600690945292206001018054939850909650929450925060ff16611b0957805460ff19166001178155600e8101805468ffffff0000000000001962ffffff1990911662ffffff171668ffffff0000000000001790555b61ffff87166000908152600a8201602052604081205460ff16151560011415611bf45761ffff88166000908152600b8301602052604090205460ff16158015611b5457506001831515145b15611b8f575063ffffffff841660009081526006820160205260409020805461ffff198116600161ffff928316810190921617909155611bef565b61ffff88166000908152600b8301602052604090205460ff1615156001148015611bb7575082155b15611bef575063ffffffff841660009081526006820160205260409020805461ffff19811661ffff9182166000190190911617905560015b611d5c565b63ffffffff8516600090815260068301602052604090205461ffff16611c3b5763ffffffff851660009081526008830160205260409020805462ffffff191662ffffff1790555b63ffffffff851660009081526006830160209081526040808320805461ffff198116600161ffff928316810190921617909155600386019092529091205460ff1615151415611c8957611cac565b63ffffffff851660009081526003830160205260409020805460ff191660011790555b600482015461ffff16611ce657600482018054600165ffffffff0000199091166201000063ffffffff8916021761ffff1916179055611d35565b600482018054600160301b900463ffffffff90811660009081526002850160205260409020805463ffffffff1916918816919091179055805461ffff19811661ffff9182166001019091161790555b5060048101805469ffffffff0000000000001916600160301b63ffffffff87160217905560015b60018115151415611e76578215611e49576000876001600160a01b0316632192ca128b8b6040518363ffffffff1660e01b815260040180836001600160a01b031681526020018260ff1681526020019250505060206040518083038186803b158015611dc757600080fd5b505afa158015611ddb573d6000803e3d6000fd5b505050506040513d6020811015611df157600080fd5b505161ffff8a166000908152600a85016020526040902054600260ff92831614925016611e435761ffff89166000908152600a840160205260409020805460ff19166001179055611e438a8883612256565b50611e76565b61ffff88166000908152600a8301602052604090205460ff16151560011415611e7657611e76898661269e565b5061ffff969096166000908152600b9096016020526040909520805460ff1916951515959095179094555050505050565b6001600160a01b0382811660009081526006602090815260408083209385168352808320600f8086015490820154835162ffffff630100000080850482168084529084048216978301889052865198996001908101999601979482169690959190931693927f07f6275d7dad831e42f6e758316b90cee393648ec62ae7ef9f56ab3ae15d2404928290030190a160008062ffffff85161580611f4c575062ffffff8316155b15612001576000808052600c808a016020908152604080842054928b018083529381902054600e808e0154908d0154958452825162ffffff828116825263010000009283900481169582019590955286851681850152950490921660608501526080840183905260a08401829052911660c0830181905290519093507ffb2dc8d9c038dd0cda789c32872529ac904dcbcf76974751196f06574d5acde79181900360e00190a1811561106f5761100e8261177d565b858562ffffff8083169087161015612017578591505b8062ffffff168562ffffff16111561202c5750835b6040805162ffffff80851682528316602082015281517f8dae684b55df29d392637831aa4c43de04e31a51e4cdbaf80f6c9bc5e4824a9a929181900390910190a1815b8160010162ffffff168162ffffff1610156111c7578a600c0160008262ffffff1662ffffff16815260200190815260200160002054945089600c0160008262ffffff1662ffffff16815260200190815260200160002054851694507ffb2dc8d9c038dd0cda789c32872529ac904dcbcf76974751196f06574d5acde78b600e0160009054906101000a900462ffffff168c600e0160039054906101000a900462ffffff168c600e0160009054906101000a900462ffffff168d600e0160039054906101000a900462ffffff168f600c0160008762ffffff1662ffffff168152602001908152602001600020548f600c0160008862ffffff1662ffffff168152602001908152602001600020548b604051808862ffffff1681526020018762ffffff1681526020018662ffffff1681526020018562ffffff16815260200184815260200183815260200182815260200197505050505050505060405180910390a184156121e35780610100026111428661177d565b60010161206f565b60006121f5612230565b156109ff576001600160a01b03821661220d57600080fd5b50600880546001600160a01b0319166001600160a01b0383161790556001610968565b600a546000906001600160a01b031633141561224e57506001610a76565b506000610a76565b60075460085460408051631c0b681960e11b81526004810186905290516001600160a01b0393841693909216916000918491633816d03291602480820192602092909190829003018186803b1580156122ae57600080fd5b505afa1580156122c2573d6000803e3d6000fd5b505050506040513d60208110156122d857600080fd5b5051604080516335544bcd60e01b815263ffffffff8316600482015290519192506000916001600160a01b038516916335544bcd916024808301926020929190829003018186803b15801561232c57600080fd5b505afa158015612340573d6000803e3d6000fd5b505050506040513d602081101561235657600080fd5b505160408051636843605760e11b815263ffffffff8516600482015290519192506000916001600160a01b0386169163d086c0ae916024808301926020929190829003018186803b1580156123aa57600080fd5b505afa1580156123be573d6000803e3d6000fd5b505050506040513d60208110156123d457600080fd5b50516001600160a01b0389166000908152600660205260409020909150600101600862ffffff84840316111561240b576008830191505b6000835b8360010162ffffff168162ffffff1610156126915760408051636deecbb960e11b815263ffffffff8816600482015262ffffff8316602482015290516001600160a01b0389169163dbdd9772916044808301926020929190829003018186803b15801561247b57600080fd5b505afa15801561248f573d6000803e3d6000fd5b505050506040513d60208110156124a557600080fd5b5051915081156126895763ffffffff8616600090815260088401602052604090205462ffffff808316911611156124ff5763ffffffff861660009081526008840160205260409020805462ffffff191662ffffff83161790555b63ffffffff8616600090815260098401602052604090205462ffffff8083169116111561254f5763ffffffff861660009081526009840160205260409020805462ffffff191662ffffff83161790555b63ffffffff86166000908152600784016020908152604080832062ffffff8086168552908352818420869055600c8701909252909120805484179055600e840154868216911611156125b157600e8301805462ffffff191662ffffff87161790555b600e83015462ffffff80861663010000009092041610156125eb57600e8301805465ffffff0000001916630100000062ffffff8716021790555b88156126895762ffffff8082166000908152600d850160205260409020805484179055600e840154868216600160301b909104909116111561264957600e8301805468ffffff0000000000001916600160301b62ffffff8816021790555b600e83015462ffffff808616600160481b90920416101561268957600e830180546bffffff0000000000000000001916600160481b62ffffff8716021790555b60010161240f565b5050505050505050505050565b6001600160a01b038216600090815260066020908152604080832063ffffffff85168452600781019092529091205460019091019061ffff166129195763ffffffff8216600090815260088201602052604081205481908190819062ffffff165b816129135763ffffffff87166000908152600787016020908152604080832062ffffff85168452909152902054945084612738576128db565b600486015462010000900463ffffffff1660005b600488015461ffff908116908216101561287b578863ffffffff168263ffffffff16146128735763ffffffff808316600081815260078b016020908152604080832062ffffff8916845282528083205493835260028d019091529020549717968116908a161415612855576004880154600019820161ffff908116911614156127f75760048801805469ffffffff0000000000001916600160301b63ffffffff851602179055612829565b63ffffffff808a16600090815260028a0160205260408082205485841683529120805463ffffffff1916919092161790555b60055463ffffffff8a8116600090815260028b0160205260409020805463ffffffff1916919092161790555b63ffffffff9182166000908152600289016020526040902054909116905b60010161274c565b5060048701805461ffff19811661ffff918216600019019091161790558585168618199350836128aa576128d9565b62ffffff82166000908152600c880160209081526040808320805488169055600d8a0190915290208054851690555b505b63ffffffff8716600090815260098701602052604090205460019091019062ffffff908116908216111561290e57600191505b6126ff565b50505050505b50505056fe67657452656c617469766554727573744c6576656c4f6e6c79436c65616e28616464726573732c616464726573732c75696e743235362c75696e743235362c626f6f6c2c626f6f6c29a26469706673582212206aa55f42cb1592283a026eba276ebc97024d7ec6f7e247bc6f7722769f69766064736f6c63430007010033",
  "immutableReferences": {},
  "source": "pragma solidity ^0.7.1;\n//SPDX-License-Identifier: UNLICENSED\nimport \"./DataModels/DMTrustChannelRules.sol\";\n\nimport \"./Interfaces/ITrustChannelManager.sol\";\nimport \"./Interfaces/ITrustChannelRules.sol\";\nimport \"./Interfaces/ITrustAnchorStorage.sol\";\nimport \"./Interfaces/IShyftCacheGraph.sol\";\nimport \"./Interfaces/ITrustChannelManager_Routing.sol\";\nimport \"./Interfaces/IShyftCacheGraph_ExternalTrustChannelProver.sol\";\n\nimport \"./DebruijnBitUtils.sol\";\n\n/* ShyftCacheGraph.sol\n\n    further ideas for parallelization:\n\n    ex: 20 bits\n    if there were 5 parameters say\n    and the debruijn indexes were still the best way to find the items\n    but you wanted a specific set of searches (active, consented, biometric, insured,\n    reputation boundary condition reached)\n\n    01000011000100001000\n\n    bound. insur. biome. conse. active\n    0100 | 0011 | 0001 | 0110 | 1101\n\n    whatever the final result would be of the cache graph in this sense, the 256 bit word would only contain information\n    about the # trust channels / # of parameters. ie. 4 parameters and 256 / 4 = 64 trust channels.\n\n    obviously, the debruijn index would want to be a 64 bit version in that case.\n\n    in any case, assuming active is required, all of the bits are then AND'd with a repeating version of\n\n    1101 | 1101 | 1101 | 1101 | 1101\n  & 0100 | 0011 | 0001 | 0110 | 1101\n    --------------------------------\n  = 0100 | 0001 | 0001 | 0100 | 1101\n\n  the combined \"active and consented\" is within the (lower endian system) 6th index.\n\n  accounts would both do this procedure with their existing mappings depending on the parameters to be searched, what\n  the submap range tolerance would be (if any) for the combinations, and then the comparison would happen within a slice\n  of that data range.\n\n\n  this system would probably be the fastest equivalent of \"look up the parameters at runtime and also be able to\n  change the parameters without needing to revoke and recompile\".\n\n  not sure what the actual cost would look like however.\n\n*/\n\n///@dev | This contract contains the operating system of a fully on-chain asset routing system. It uses fancy (Debruijn) math tricks to\n///     | set up and create a number of tables of binary fields representing assignment to the Trust Channel grouping structure.\n///     | Users are attested to by Trust Anchors, [ Trust Anchors are associated to Trust Channels ], and the relationship of the Trust\n///     | Channels is then additively projected onto the Users own individual mapping.\n///     |\n///     | When routing assets, these mappings are compared, and if there is a match (cheaply done so by the math tricks), then there is\n///     | a return code stating such, and contracts that depend on this function would then send assets.\n///     |\n///     | There is also a rule system in-transit. This radically effects per-transaction cost, but is capable of extreme flexibility,\n///     | as it there are functions from basic asset limit restrictions, to being driven by an external smart contract call with\n///     | arbitrary pass/fail logic.\n\ncontract ShyftCacheGraph is DebruijnBitUtils, IShyftCacheGraph, DMTrustChannelRules, ITrustChannelRules, ITrustChannelManager_Routing {\n    //@note: many of these events are debug-level event structures that relay internal elements of the stack/field structures.\n    // more than likely these will be removed for production deployment events.\n\n    event EVT_UpdatingCacheGraph(address _identifiedAddress,\n        uint16 updateLength,\n        uint16 oldAttestationKeccakArrayLength,\n        uint16 attestationKeccakArrayLength);\n    event EVT_DoCompileCacheGraph(address _identifiedAddress,\n        uint32 i,\n        uint16 idx);\n    event EVT_DoConditionallyRemoveTrustChannelEXBitFields(address _identifiedAddress,\n        uint32 trustAnchorIndex,\n        bytes32 keccakHash);\n    event EVT_GotAttestationStatus(address _identifiedAddress,\n        bool attestationStatusApproved,\n        bool didChangeApprovedStatus,\n        uint16 attestationIndex,\n        bool attestationHasAlreadyBeenProcessed);\n    event EVT_CompareTime(uint256 _effectiveTime,\n        uint256 blockTimestamp,\n        uint256 _expiryTime,\n        bool isActive);\n    event EVT_DoCompileCacheGraphTrustChannelEXBitFields(address _identifiedAddress,\n        bytes32 keccakHash,\n        bool consentAvailable);\n    event EVT_GetActiveTrustChannelEXBitFieldLength(\n        uint24 senderLowestSubmapNumber,\n        uint24 senderHighestSubmapNumber,\n        uint24 receiverLowestSubmapNumber,\n        uint24 receiverHighestSubmapNumber,\n        uint256 senderBitfield,\n        uint256 receiverBitfield,\n        uint256 andedBitField);\n    event EVT_GotBitFieldFromTrustAnchor(address trustAnchorAddress,\n        uint32 trustAnchorIndex,\n        uint256 bitField);\n\n    event EVT_TrustChannelBitFieldWords(uint32 bitFieldWords);\n    event EVT_TrustChannelBitFieldIndex(uint32 trustChannelIndex);\n    event EVT_TrustChannelBitFieldIndexEXT(uint32 index,\n        uint32 shifter,\n        uint32 trustChannelBitFieldWord,\n        uint256 trustChannelBitField,\n        uint32 trustChannelIndex);\n\n    event EVT_GotHighestSubmapNumbers(uint24 senderHighestSubmapNumber,\n        uint24 receiverHighestSubmapNumber);\n\n    event EVT_GotLowestAndHighestTrustChannelSubmapNumber(uint24 lowestTrustChannelSubmapNumber,\n        uint24 highestTrustChannelSubmapNumber);\n\n    event EVT_TrustChannelRouted(uint32 trustChannelIndex,\n        address _senderIdentifiedAddress,\n        address _receiverIdentifiedAddress);\n\n    event EVT_getRelativeTrustLevelOnlyCleanDebug(address senderIdentifiedAddress,\n        address receiverIdentifiedAddress,\n        uint256 amount,\n        uint256 bip32X_type,\n        bool requiredConsentFromAllParties,\n        bool requiredActive);\n\n    event EVT_getRelativeTrustLevelOnlyCleanDebugExtra(uint8 returnCode,\n        uint256 foundChannelRulesBitField,\n        uint256 totalRules,\n        uint256 rulesPassed,\n        int16 relativeTrustLevel,\n        int16 externalTrustLevel,\n        uint16 externalRulesPassed);\n\n\n    ///@dev Enumeration for the cache graph status\n    enum CacheGraphStatus { Unknown, Enabled, Dirty, Disabled }\n\n    ///@dev Struct for the kyc cache graph, maintains trust anchors, various bit mappings (referred to as \"bitfields\" here), and whether specific attestations have been processed or not.\n    ///@notice There is currently a lot of commented out code here that maps out a path to easier on-chain management of \"dirty\" attestations.\n    struct kycCacheGraph {\n        bool exists;\n\n        CacheGraphStatus graphStatus;\n        //a list of the keccak hashes that correspond to lookups within the main Trust Anchor Reference contract.\n        bytes32[] attestationKeccakArray;\n\n        //array to next link in the trust anchors linked list. items are added based on the trust anchor index.\n        mapping(uint32 => uint32) allTrustAnchorsThatHaveAttestedNextLinkMapping;\n\n        //mapping for checks of whether the trust anchor previously existing for this identifiedAddress.\n        mapping(uint32 => bool) allTrustAnchorIndexExistsMapping;\n\n        //@note: I'm using underscores because I want to have easily readability when the camel case variable names get\n        // this long.\n        uint16 currentTrustAnchorsLinkedList_length;\n        uint32 currentTrustAnchorLinkedList_zerothIndex;\n        uint32 currentTrustAnchorLinkedList_finalIndex;\n\n        address[] allTrustAnchorsThatHaveAttested;\n\n        mapping(uint32 => uint16) trustAnchorIndexToCountMap;\n//        mapping(uint32 => mapping(uint32 => uint256)) trustAnchorEXBitField;\n\n        mapping(uint32 => mapping(uint24 => uint256)) trustAnchorTrustChannelIndexEXBitField;\n        mapping(uint32 => uint24) trustAnchorTrustChannelIndexEXBitFieldLowestSubmapNumber;\n        mapping(uint32 => uint24) trustAnchorTrustChannelIndexEXBitFieldHighestSubmapNumber;\n\n        //@note: for compilation processes.\n        mapping(uint16 => bool) attestationHasAlreadyBeenProcessed;\n        mapping(uint16 => bool) attestationPreviousApprovedStatus;\n\n        //@note: these are too heavy for processing at the moment. another solution is found with the EX bit fields.\n        //filters via keccak hash. *can be dirty*\n\n        //attestation jurisdictions.\n//        mapping(bytes32 => uint16) attestationJurisdictionMap;\n//        mapping(bytes32 => bytes32) attestationStatusActiveMap;\n//        mapping(bytes32 => bytes32) attestationStatusRevokedMap;\n//        mapping(bytes32 => address) attestationTrustAnchorAddressMap;\n//        mapping(bytes32 => bytes32) attestationTrustAnchorKeccakMap;\n\n        //bit fields for documents. *can be dirty*\n        // @note: hasJurisdictionBits is the bit field that contains whether the *indexable attestation space*\n        // contains an attestation at this address\n//        uint256 hasJurisdictionBits;\n//        uint256 activeBits;\n//        uint256 pendingBits;\n//        uint256 expiredBits;\n//        uint256 revokedBits;\n//        uint256 documentAvailabilityBits;\n\n        //note: these two bit fields record the active/active+consented status of that jurisdiction as the bit\n        //index, for comparison across trust channels.\n\n//        uint256 active_jurisdictionBits;\n//        uint256 active_consented_jurisdictionBits;\n\n//        mapping(uint16 => bytes32[]) activeJurisdictionAttestationArray;\n//        mapping(uint16 => bytes32[]) activeConsentedJurisdictionAttestationArray;\n\n\n        //extended bit fields (each 256-bit uint256 in the array is an index of 256 trust channels),\n        //we use DebruijnBitUtils later on to do calculations and quick searches of this bit field.\n        mapping(uint24 => uint256) activeTrustChannelEXBitField;\n        mapping(uint24 => uint256) activeConsentedTrustChannelEXBitField;\n\n        //we store the highest index as well for further quick calculations\n\n        uint24 activeTrustChannelLowestSubmapNumber;\n        uint24 activeTrustChannelHighestSubmapNumber;\n\n        uint24 activeConsentedTrustChannelLowestSubmapNumber;\n        uint24 activeConsentedTrustChannelHighestSubmapNumber;\n\n        //bit fields for signature status. *can be dirty*\n//        uint256 attestationValidityTrustAnchorSignatureAvailabilityBits;\n//        uint256 attestationValidityUserSignatureAvailabilityBits;\n\n        //maps out \"material changes\"\n//        uint256 materialChangeBitField;\n\n        //this is a bitwise or filter across all of the documents that are attested to this address.\n        //it enables the quick detection of whether an address contains the specific documents.\n//        bytes32 allDocumentsBitwiseOrFilter;\n//        bytes32 activeDocumentsBitwiseOrFilter;\n\n        //[@phase3] adds support for trust channels, where users can add multiple trust anchors and\n        //run aggregator functions to prove their access to other institutions in collaborating\n        //channels. 256 * 8 trust channels = 2048 total trust channels in map, probably a few bytes\n        //reserved for auxiliary purposes.\n//        bytes32[8] trustChannelMap;\n\n        //[@phase3] add support for constructing the local view of the kyc level through disclosure of previous\n        //activities on this trust channel.\n        int8 constructedLocalKycLevel;\n    }\n\n    /// @dev simple constant for \"no link\" to cut down on runtime gas costs.\n    uint32 NO_LINK = uint32(2**32-1);\n\n    ///@dev Struct for the kyc identity, including a hash and a cacheGraph for this identity.\n    struct kycIdentity {\n        // the kyc address keccak which is the hash of the corresponding look up table of the identity cache graph component of this struct.\n        bytes32 kycIdentityKeccak;\n        kycCacheGraph cacheGraph;\n    }\n\n    ///@dev Maximum number of attestation processing per cycle - this comes into play when performing the cachegraph reconstruction phases.\n    uint16 constant maxAttestationProcessingLimit = 32;\n\n    ///@dev | Maximum number of trust channel submap compares\n    ///     | This is the highest trust channel index (in this case a submap of such, each submap representing 256 trust channels) that can be mapped, based on the lowest submap returned from the trust channel manager.\n    uint16 constant maxNumberOfTrustChannelSubmapCompares = 8;\n\n    /// @dev Mapping for identified address to a specific kyc identity.\n    mapping(address => kycIdentity) identifiedAddress_to_kycIdentity;\n\n    /// @dev The Trust Channel Storage address that this contract is bound to.\n    address public trustAnchorStorageAddress = address(0);\n\n    /// @dev The Trust Channel Manager address that this contract is bound to.\n    address public trustChannelManagerAddress = address(0);\n\n    /// @dev The External Trust Channel Prover address that this contract is bound to.\n    address public externalTrustChannelProverAddress = address(0);\n\n    ///@dev Address for the owner of this contract.\n\n    address public owner;\n\n    ///@dev Initializes Trust Channel Manager with the owner set to the calling public address.\n\n    constructor() {\n        owner = msg.sender;\n    }\n\n    /// @dev Internal function to determined which if the message sender is the owner.\n    /// @return result\n    ///    | false: not owner\n    ///    | true: is owner\n\n    //@note:@todo:@next:@internalaudit: should this contract have \"Administrable\" style multisig involved for the setting\n    // of the contract relationships?\n\n    function isOwner() internal view returns (bool result) {\n        if (msg.sender == owner) {\n            //is owner\n            return true;\n        } else {\n            //not owner\n            return false;\n        }\n    }\n\n    /// @param _trustAnchorStorageAddress The smart contract address for the Trust Anchor Storage that should be linked.\n    /// @dev Links Trust Anchor Storage to this contract's function flow.\n    /// @return result\n    ///    | 0: not owner\n    ///    | 1: set trustAnchorStorage\n\n    function setTrustAnchorStorageAddress(address _trustAnchorStorageAddress) public returns (uint8 result) {\n        if (isOwner()) {\n            require(_trustAnchorStorageAddress != address(0));\n\n            //@note:@todo:@next:@internalaudit: what happens to the existing attestations when we change these relationships?\n            // example: 1) should they all be revoked?\n            //  or 2) should all of their consent be revoked?\n            //  etc.\n            trustAnchorStorageAddress = _trustAnchorStorageAddress;\n\n            //set trustAnchorStorageAddress\n            return 1;\n        } else {\n            //not owner\n            return 0;\n        }\n    }\n\n    /// @param _trustChannelManagerAddress The smart contract address for the Trust Channel Manager that should be linked.\n    /// @dev Links Trust Channel Manager to this contract's function flow.\n    /// @return result\n    ///    | 0: not owner\n    ///    | 1: set trustChannelManagerAddress\n\n    function setTrustChannelManagerAddress(address _trustChannelManagerAddress) public returns (uint8 result) {\n        if (isOwner()) {\n            require(_trustChannelManagerAddress != address(0));\n\n            //@note:@todo:@next:@internalaudit: what happens to the existing attestations when we change these relationships?\n            // example: 1) should they all be revoked?\n            //  or 2) should all of their consent be revoked?\n            //  etc.\n            trustChannelManagerAddress = _trustChannelManagerAddress;\n\n            //set trustChannelManagerAddress\n            return 1;\n        } else {\n            //not owner\n            return 0;\n        }\n    }\n\n    /// @param _externalTrustChannelProverAddress The smart contract address for the External Trust Channel Prover that should be linked.\n    /// @dev Links External Trust Channel Prover to this contract's function flow.\n    /// @return result\n    ///    | 0: not owner\n    ///    | 1: set external trust channel prover address\n\n    function setExternalTrustChannelProverAddress(address _externalTrustChannelProverAddress) public returns (uint8 result) {\n        if (isOwner()) {\n            require(_externalTrustChannelProverAddress != address(0));\n\n            //@note:@todo:@next:@internalaudit: what happens to the existing attestations when we change these relationships?\n            // example: 1) should they all be revoked?\n            //  or 2) should all of their consent be revoked?\n            //  etc.\n            externalTrustChannelProverAddress = _externalTrustChannelProverAddress;\n\n            //set external trust channel prover address\n            return 1;\n        } else {\n            //not owner\n            return 0;\n        }\n    }\n\n    //@note:@safety: the worst that can happen is that a user clears their own\n    // cache graph and it's marked dirty.\n\n    //     function flashDeleteCacheGraph(address _identifiedAddress) internal {\n    //         if (msg.sender == _identifiedAddress) {\n    //             for (uint8 i = 0; i < identifiedAddress_to_kycIdentity[_identifiedAddress].cacheGraph.attestationKeccakArray.length; i++) {\n    //                 delete identifiedAddress_to_kycIdentity[_identifiedAddress].cacheGraph.attestationJurisdictionMap[identifiedAddress_to_kycIdentity[_identifiedAddress].cacheGraph.attestationKeccakArray[i]];\n    //                 delete identifiedAddress_to_kycIdentity[_identifiedAddress].cacheGraph.attestationStatusActiveMap[identifiedAddress_to_kycIdentity[_identifiedAddress].cacheGraph.attestationKeccakArray[i]];\n    //                 delete identifiedAddress_to_kycIdentity[_identifiedAddress].cacheGraph.attestationStatusRevokedMap[identifiedAddress_to_kycIdentity[_identifiedAddress].cacheGraph.attestationKeccakArray[i]];\n    //                 delete identifiedAddress_to_kycIdentity[_identifiedAddress].cacheGraph.attestationTrustAnchorAddressMap[identifiedAddress_to_kycIdentity[_identifiedAddress].cacheGraph.attestationKeccakArray[i]];\n    //                 delete identifiedAddress_to_kycIdentity[_identifiedAddress].cacheGraph.attestationTrustAnchorKeccakMap[identifiedAddress_to_kycIdentity[_identifiedAddress].cacheGraph.attestationKeccakArray[i]];\n    //             }\n\n    //             delete identifiedAddress_to_kycIdentity[_identifiedAddress].cacheGraph.attestationKeccakArray;\n\n    //             delete identifiedAddress_to_kycIdentity[_identifiedAddress].cacheGraph.hasJurisdictionBits;\n    //             delete identifiedAddress_to_kycIdentity[_identifiedAddress].cacheGraph.activeBits;\n    //             delete identifiedAddress_to_kycIdentity[_identifiedAddress].cacheGraph.pendingBits;\n    //             delete identifiedAddress_to_kycIdentity[_identifiedAddress].cacheGraph.expiredBits;\n    //             delete identifiedAddress_to_kycIdentity[_identifiedAddress].cacheGraph.revokedBits;\n    //             delete identifiedAddress_to_kycIdentity[_identifiedAddress].cacheGraph.documentAvailabilityBits;\n\n    //             delete identifiedAddress_to_kycIdentity[_identifiedAddress].cacheGraph.active_jurisdictionBits;\n    //             delete identifiedAddress_to_kycIdentity[_identifiedAddress].cacheGraph.active_consented_jurisdictionBits;\n\n    //             //@note:@todo:@here: iterate through jurisdictions and clear mapping?\n    //             //delete identifiedAddress_to_kycIdentity[_identifiedAddress].cacheGraph.jurisdictionAttestationArray;\n\n    //             //activeTrustChannelEXBitField\n\n    //             delete identifiedAddress_to_kycIdentity[_identifiedAddress].cacheGraph.attestationValidityTrustAnchorSignatureAvailabilityBits;\n    //             delete identifiedAddress_to_kycIdentity[_identifiedAddress].cacheGraph.attestationValidityUserSignatureAvailabilityBits;\n\n    //             delete identifiedAddress_to_kycIdentity[_identifiedAddress].cacheGraph.materialChangeBitField;\n\n    //             delete identifiedAddress_to_kycIdentity[_identifiedAddress].cacheGraph.allDocumentsBitwiseOrFilter;\n    //             delete identifiedAddress_to_kycIdentity[_identifiedAddress].cacheGraph.activeDocumentsBitwiseOrFilter;\n\n    //             delete identifiedAddress_to_kycIdentity[_identifiedAddress].cacheGraph.trustChannelMap;\n\n    //             delete identifiedAddress_to_kycIdentity[_identifiedAddress].cacheGraph.constructedLocalKycLevel;\n\n    //             identifiedAddress_to_kycIdentity[_identifiedAddress].cacheGraph.graphStatus = CacheGraphStatus.Dirty;\n    //         }\n    //     }\n\n    /// @param _identifiedAddress The end user's smart contract address that attestations are associated to.\n    /// @dev This is a publicly available function that constructs the Cache Graph of the end user. This will call many other internal functions that properly correlate all of the outstanding 'non-dirty' (ie. non updated) attestations, and then create a list of updates and process them sequentially. When this smart contract function call is complete, the associated _identifiedAddress will have been updated with the latest additions/subtractions to the Trust Channel memberships the end user is associated to via attestations.\n    /// @return result\n    ///    | 0: no updates needed\n    ///    | 1: compilation needs to be complete (more calls to this function are needed to complete the procedure due to gas cost requirements)\n    ///    | 2: recompiled hash graph\n\n    function reconstructCacheGraph(address _identifiedAddress) public returns (uint8 result) {\n        ITrustAnchorStorage trustAnchorStorage = ITrustAnchorStorage(trustAnchorStorageAddress);\n\n        // bytes32[] storage attestationKeccakArray = trustAnchorStorage.identifiedAddress_to_attestationKeccakArray(_identifiedAddress);\n        // bytes32[] storage attestationKeccakArray = trustAnchorStorage.getAttestationKeccakArrayForIdentifiedAddress(_identifiedAddress);\n\n        uint16 attestationKeccakArrayLength = trustAnchorStorage.getAttestationKeccakArrayLengthForIdentifiedAddress(_identifiedAddress);\n\n        //@note: 256 bit bitfield max\n        if (attestationKeccakArrayLength > 2<<8 - 1) {\n            attestationKeccakArrayLength = 2<<8 - 1;\n        }\n\n        uint16 oldAttestationKeccakArrayLength = uint16(identifiedAddress_to_kycIdentity[_identifiedAddress].cacheGraph.attestationKeccakArray.length);\n\n\n        //@note:@here:@todo: I'm pretty sure this should be set to a linked list to be able to look through dirty attestations.\n\n        //check if it is required to append to the entire\n        //@note: currently will not update (pending, active, expired, revoked) statuses.\n        if (oldAttestationKeccakArrayLength != attestationKeccakArrayLength) {\n            //@note: @here: @todo: do progressive testing to see how this functions.\n            //changing this will make the hardcoded uintX values potentially incorrect.\n            bool requiresFurtherReconstruction;\n\n            //for the update here, since they are sequential attestations, the calculation is easy.\n            uint16 updateLength = uint16(attestationKeccakArrayLength - oldAttestationKeccakArrayLength);\n\n            if (updateLength >= maxAttestationProcessingLimit) {\n                updateLength = maxAttestationProcessingLimit;\n                requiresFurtherReconstruction = true;\n            }\n\n//            emit EVT_UpdatingCacheGraph(_identifiedAddress, updateLength, oldAttestationKeccakArrayLength, attestationKeccakArrayLength);\n\n            //@note: @here: @todo: check if a limit is necessary here. max inclusions should be explicitly guarded against.\n            for (uint16 i = 0; i < updateLength; i++) {\n                uint16 idx = oldAttestationKeccakArrayLength + i;\n\n//                emit EVT_DoCompileCacheGraph(_identifiedAddress, i, idx);\n                compileCacheGraph(_identifiedAddress, idx);\n            }\n\n            if (requiresFurtherReconstruction == false) {\n                //recompiled full hash graph\n                return 2;\n            } else {\n                //compilation needs to be complete  (more calls to this function are needed to complete the procedure due to gas cost requirements)\n                return 1;\n            }\n        } else {\n            //no updates needed\n            return 0;\n        }\n    }\n\n    /// @param _identifiedAddress The end user's smart contract address that attestations are associated to.\n    /// @param _keccakHash The keccak hash of the attestation that will be compiled into the Cache Graph.\n    /// @param _consentAvailable Whether consent is available, if so also compiles the Consented Cache Graph.\n    /// @dev An internal function to continue the compilation of the Cache Graph for the specific user _identifiedAddress. This function takes a specific attestation (referenced via _keccakHash), gathers the submap index (the position of the 256 bits) for the Trust Anchor that refers to the Trust Channels it has membership in. This function then bakes the bit field of the Trust Channels into the _identifiedAddress's account.\n\n    function compileCacheGraphTrustChannelEXBitFieldsAdditive(address _identifiedAddress, bytes32 _keccakHash, bool _consentAvailable) internal {\n        ITrustAnchorStorage trustAnchorStorage = ITrustAnchorStorage(trustAnchorStorageAddress);\n        ITrustChannelManager trustChannelManager = ITrustChannelManager(trustChannelManagerAddress);\n\n//        address trustAnchorAddress = trustAnchorStorage.getAttestationTrustAnchorAddress(_keccakHash);\n        uint32 trustAnchorIndex = trustAnchorStorage.getAttestationTrustAnchorIndex(_keccakHash);\n\n        uint24 lowestTrustChannelSubmapNumber = trustChannelManager.getTrustChannelLowestSubmapNumberForTrustAnchorIndex(trustAnchorIndex);\n        uint24 highestTrustChannelSubmapNumber = trustChannelManager.getTrustChannelHighestSubmapNumberForTrustAnchorIndex(trustAnchorIndex);\n\n        kycCacheGraph storage cacheGraph = identifiedAddress_to_kycIdentity[_identifiedAddress].cacheGraph;\n\n//      emit EVT_GotLowestAndHighestTrustChannelSubmapNumber(lowestTrustChannelSubmapNumber, highestTrustChannelSubmapNumber);\n\n        //@note:@todo:@next:@internalaudit: this definitely needs to be bounds tested, as it corresponds to the numbers of loops below. upper end estimation\n        //could have to do with gas spent so far (msg.gas), though this might be difficult to test/suggest to users.\n\n        //cap number of compares of the trust channel submaps\n        if (highestTrustChannelSubmapNumber - lowestTrustChannelSubmapNumber > maxNumberOfTrustChannelSubmapCompares) {\n            highestTrustChannelSubmapNumber = lowestTrustChannelSubmapNumber + maxNumberOfTrustChannelSubmapCompares;\n        }\n\n        uint256 bitField;\n\n        //@note:@todo:@gas: do estimations here.. uint24 (2**24) is way too many to iterate through.\n        for (uint24 i = lowestTrustChannelSubmapNumber; i < highestTrustChannelSubmapNumber + 1; i++) {\n            bitField = trustChannelManager.getTrustChannelIndexBitFieldAtSubmapNumberForTrustAnchorIndex(trustAnchorIndex, i);\n\n//          emit EVT_GotBitFieldFromTrustAnchor(trustAnchorAddress, trustAnchorIndex, bitField);\n\n            if (bitField != 0) {\n                if (cacheGraph.trustAnchorTrustChannelIndexEXBitFieldLowestSubmapNumber[trustAnchorIndex] > i) {\n                    cacheGraph.trustAnchorTrustChannelIndexEXBitFieldLowestSubmapNumber[trustAnchorIndex] = i;\n                }\n\n                if (cacheGraph.trustAnchorTrustChannelIndexEXBitFieldHighestSubmapNumber[trustAnchorIndex] > i) {\n                    cacheGraph.trustAnchorTrustChannelIndexEXBitFieldHighestSubmapNumber[trustAnchorIndex] = i;\n                }\n\n                cacheGraph.trustAnchorTrustChannelIndexEXBitField[trustAnchorIndex][i] = bitField;\n\n                //does an additive merge of the TA's cachegraph to the user's.\n                \n                cacheGraph.activeTrustChannelEXBitField[i] |= bitField;\n                if (cacheGraph.activeTrustChannelLowestSubmapNumber > lowestTrustChannelSubmapNumber) {\n                    cacheGraph.activeTrustChannelLowestSubmapNumber = lowestTrustChannelSubmapNumber;\n                }\n                if (cacheGraph.activeTrustChannelHighestSubmapNumber < highestTrustChannelSubmapNumber) {\n                    cacheGraph.activeTrustChannelHighestSubmapNumber = highestTrustChannelSubmapNumber;\n                }\n\n                if (_consentAvailable) {\n                    cacheGraph.activeConsentedTrustChannelEXBitField[i] |= bitField;\n\n                    if (cacheGraph.activeConsentedTrustChannelLowestSubmapNumber > lowestTrustChannelSubmapNumber) {\n                        cacheGraph.activeConsentedTrustChannelLowestSubmapNumber = lowestTrustChannelSubmapNumber;\n                    }\n                    if (cacheGraph.activeConsentedTrustChannelHighestSubmapNumber < highestTrustChannelSubmapNumber) {\n                        cacheGraph.activeConsentedTrustChannelHighestSubmapNumber = highestTrustChannelSubmapNumber;\n                    }\n                }\n            }\n        }\n    }\n\n    /// @param _identifiedAddress The end user's smart contract address that attestations are associated to.\n    /// @param _sourceTrustAnchorIndex The Trust Anchor (by Index) that should be removed from this _identifiedAddress's Trust Channel membership mapping.\n    /// @dev An internal function that removes a specific Trust Anchor from the mapping of an _identifiedAddress's Trust Channel group membership. This function iteratively compares the Trust Channel membership of each of the Trust Anchors associated to this _identifiedAddress group membership, and removes any Trust Channels from this group membership that are unique to the Trust Anchor being removed.\n\n    function conditionallyRemoveCacheGraphTrustChannelTrustAnchorIndexEXBitField(address _identifiedAddress, uint32 _sourceTrustAnchorIndex) internal {\n        kycCacheGraph storage cacheGraph = identifiedAddress_to_kycIdentity[_identifiedAddress].cacheGraph;\n\n        //check that the trust anchor by index is no longer associated to this account.\n        if (cacheGraph.trustAnchorIndexToCountMap[_sourceTrustAnchorIndex] == 0) {\n\n            //amalgamated map for use in comparisons\n            uint256 baseTrustAnchorChannelMap;\n            uint256 amalgamatedTrustAnchorChannelMap;\n            uint256 comparisonTrustAnchorChannelMap;\n\n            bool submapsExhausted;\n\n            //get the lower bound of the trust channel map checks.\n            uint24 submapNumber = cacheGraph.trustAnchorTrustChannelIndexEXBitFieldLowestSubmapNumber[_sourceTrustAnchorIndex];\n\n            while (submapsExhausted == false) {\n\n                //get the trust anchor's channel map.\n                baseTrustAnchorChannelMap = cacheGraph.trustAnchorTrustChannelIndexEXBitField[_sourceTrustAnchorIndex][submapNumber];\n\n                //@note:@todo:@here:@next: I wonder if this could be pulled out into a subfunction anyone could call.. the mapping is\n                //most likely going to be done once per trust anchor in this user's cachegraph.. but it would have to be done for\n                // all other trust anchors that are added to this channel.\n\n                //create a composite trust anchor channel map of all the trust anchors except this one.\n                if (baseTrustAnchorChannelMap == 0) {\n                    //skip this comparison because this submap has no trust channels within it.\n                } else {\n                    uint32 curTrustAnchorIndex = cacheGraph.currentTrustAnchorLinkedList_zerothIndex;\n\n                    //create a composite trust anchor channel map of all the trust anchors except this one.\n                    for (uint16 i = 0; i < cacheGraph.currentTrustAnchorsLinkedList_length; i++) {\n                        if (curTrustAnchorIndex != _sourceTrustAnchorIndex) {\n                            //update the amalgamated trust channel map\n                            //@note:@here:@todo:@next: implement the following line?\n//                            if (cacheGraph.trustAnchorTrustChannelIndexEXBitField[curTrustAnchorIndex][submapNumber] == 0) { //ignore this next part.\n                            amalgamatedTrustAnchorChannelMap |= cacheGraph.trustAnchorTrustChannelIndexEXBitField[curTrustAnchorIndex][submapNumber];\n\n                            //reassociate the linked list.\n                            //@note:\n                            // 1) the case of currentTrustAnchorLinkedList_zerothIndex == _sourceTrustAnchorIndex && currentTrustAnchorsLinkedList_length == 1\n                            //    will be taken care of because when currentTrustAnchorsLinkedList_length == 0, compileCacheGraph will set the currentTrustAnchorsLinkedList_length = 1\n                            //    and set the currentTrustAnchorLinkedList_zerothIndex to the trustAnchorIndex at that point.\n                            // 2) the case of currentTrustAnchorLinkedList_finalIndex == _sourceTrustAnchorIndex, the length will simply be reduced by 1 and this is definitely\n                            //    the last link in the linked list.\n                            // 2) the case of currentTrustAnchorLinkedList_zerothIndex != _sourceTrustAnchorIndex, the curTrustAnchorIndex != _sourceTrustAnchorIndex, so the\n                            //    allTrustAnchorsThatHaveAttestedNextLinkMapping[curTrustAnchorIndex] is set to allTrustAnchorsThatHaveAttestedNextLinkMapping[_sourceTrustAnchorIndex],\n                            //    which may or may not have been set up depending on whether currentTrustAnchorLinkedList_finalIndex == _sourceTrustAnchorIndex. if it has been set up,\n                            //    the _sourceTrustAnchorIndex is in middle of the linked list somewhere, and thus the allTrustAnchorsThatHaveAttestedNextLinkMapping[curTrustAnchorIndex] should\n                            //    now equal allTrustAnchorsThatHaveAttestedNextLinkMapping[_sourceTrustAnchorIndex]. otherwise, because the currentTrustAnchorsLinkedList_length is - 1 after\n                            //    everything, currentTrustAnchorLinkedList_finalIndex is also set to curTrustAnchorIndex.\n\n                            if (cacheGraph.allTrustAnchorsThatHaveAttestedNextLinkMapping[curTrustAnchorIndex] == _sourceTrustAnchorIndex) {\n                                if (cacheGraph.currentTrustAnchorsLinkedList_length == i - 1) {\n                                    cacheGraph.currentTrustAnchorLinkedList_finalIndex = curTrustAnchorIndex;\n                                } else {\n                                    cacheGraph.allTrustAnchorsThatHaveAttestedNextLinkMapping[curTrustAnchorIndex] = cacheGraph.allTrustAnchorsThatHaveAttestedNextLinkMapping[_sourceTrustAnchorIndex];\n                                }\n\n                                cacheGraph.allTrustAnchorsThatHaveAttestedNextLinkMapping[_sourceTrustAnchorIndex] = NO_LINK;\n                            }\n\n                            curTrustAnchorIndex = cacheGraph.allTrustAnchorsThatHaveAttestedNextLinkMapping[curTrustAnchorIndex];\n                        } else {\n                            //otherwise do nothing, as all the cases have been account for in the \"if\" corresponding to this \"else\".\n                        }\n                    }\n\n                    //@note:@todo:@next:@internalaudit: is the allTrustAnchorsThatHaveAttestedNextLinkMapping[_sourceTrustAnchorIndex] always removed? what happens in the case of only this address being the source address?\n                    // I think this may be correct in the logic as the above \"reassociate the linked list.\" covers this.\n                    cacheGraph.currentTrustAnchorsLinkedList_length--;\n\n\n                    //for example 1000100101 as the trust channels associated to the base trust anchor.\n                    //            1101111011 as the amalgamated trust channels.\n                    //            0000000100 is trust channel that must be removed.\n\n                    //procedure:  1000100101\n                    //bitwise AND 1101111011\n                    //result is   1000100001, this is the trust channels that are the same, from the base trust channel\n                    //                        and the amalgamated trust channels.\n                    //\n                    //then,       1000100101\n                    //bitwise XOR 1000100001\n                    //result is   0000000100, which is the trust channel that must be removed.\n\n                    //to remove the bit from the user's trust channel mapping, we take the result, negate it\n                    // (invert the bits) and then AND this with the trust channels from the user.\n\n                    //procedure:     0000000100\n                    //bitwise negate 1111111011\n                    //\n                    //then,          1111111011\n                    //bitwise AND    _user's trust channel mapping_\n                    //the result will  be now correctly formed.\n\n                    //\n\n                    //perform a bitwise AND on the amalgamated and base trust channel maps, and bitwise negate the result.\n                    comparisonTrustAnchorChannelMap = ~(baseTrustAnchorChannelMap ^ (amalgamatedTrustAnchorChannelMap & baseTrustAnchorChannelMap));\n\n                    //check if the comparison map is zero (no trust channels need to be removed)\n                    if (comparisonTrustAnchorChannelMap == 0) {\n\n                    } else {\n                        cacheGraph.activeTrustChannelEXBitField[submapNumber] &= comparisonTrustAnchorChannelMap;\n                        cacheGraph.activeConsentedTrustChannelEXBitField[submapNumber] &= comparisonTrustAnchorChannelMap;\n                    }\n                }\n\n                submapNumber++;\n\n                //see if the upper bound of the trust channel map check has been reached.\n                if (submapNumber > cacheGraph.trustAnchorTrustChannelIndexEXBitFieldHighestSubmapNumber[_sourceTrustAnchorIndex]) {\n                    submapsExhausted = true;\n                } else {\n                    continue;\n                }\n            }\n        } else {\n            //trust anchor still has a valid attestation to this account.\n//            return 0;\n        }\n    }\n//         //returns:\n//         // 0 = signatures do not have a matching address\n//         // 1 = signature does not have the attestor address\n//         // 2 = addresses match\n//\n//         function checkConsentSignatures(address _identifiedAddress, uint _idx, bytes32 _keccakHash) internal view returns (uint8 result) {\n//             ITrustAnchorStorage trustAnchorStorage = ITrustAnchorStorage(trustAnchorStorageAddress);\n//\n//             bytes32[2] memory attestationValidityTrustAnchorSignatureRS;\n//             uint8 attestationValidityTrustAnchorSignatureV;\n//             bytes32[2] memory attestationValidityUserSignatureRS;\n//             uint8 attestationValidityUserSignatureV;\n//\n//             (attestationValidityTrustAnchorSignatureV,\n//              attestationValidityTrustAnchorSignatureRS,\n//              attestationValidityUserSignatureV,\n//              attestationValidityUserSignatureRS) = trustAnchorStorage.getAttestationValiditySignaturesInKeccakArray(_identifiedAddress, uint8(_idx));\n//\n//             address recoveredAddressTrustAnchor = ecrecover(_keccakHash, attestationValidityTrustAnchorSignatureV, attestationValidityTrustAnchorSignatureRS[0], attestationValidityTrustAnchorSignatureRS[1]);\n//             address recoveredAddressUserSignature = ecrecover(_keccakHash, attestationValidityUserSignatureV, attestationValidityUserSignatureRS[0], attestationValidityUserSignatureRS[1]);\n//\n//             if (recoveredAddressTrustAnchor == recoveredAddressUserSignature) {\n//                 if (recoveredAddressTrustAnchor == trustAnchorStorage.getTrustAnchorAddressInKeccakArray(_identifiedAddress, uint8(_idx))) {\n//                     //addresses match\n//                     return 2;\n//                 } else {\n//                     //signature does not have the attestor address\n//                     return 1;\n//                 }\n//             } else {\n//                 //signatures do not have a matching address\n//                 return 0;\n//             }\n//         }\n\n//    //returns:\n//    // 0 = no complete consent available\n//    // 1 = consent available\n//\n//    function compileCacheGraphConsent(address _identifiedAddress, uint _idx, bytes32 _keccakHash, uint16 _jurisdiction) internal returns (bool result) {\n//        ITrustAnchorStorage trustAnchorStorage = ITrustAnchorStorage(trustAnchorStorageAddress);\n//\n//        kycCacheGraph storage cacheGraph = identifiedAddress_to_kycIdentity[_identifiedAddress].cacheGraph;\n//\n//        //if (checkConsentSignatures(_identifiedAddress, _idx, _keccakHash))\n//        //check for 2 signatures (trust anchor and user) for attestation\n//        if (trustAnchorStorage.getConsentAvailableInKeccakArray(_identifiedAddress, uint8(_idx)) == 2) {\n//            cacheGraph.active_consented_jurisdictionBits |= uint256(_jurisdiction);\n//            cacheGraph.activeConsentedJurisdictionAttestationArray[_jurisdiction].push(_keccakHash);\n//\n//            //consent available\n//            return true;\n//        }\n//\n//        //no complete consent available\n//        return true;\n//    }\n\n//    //returns:\n//    // isActive = effectiveTime <= now <= expiryTime;\n//\n//    function compileCacheGraphTime(address _identifiedAddress, uint256 _effectiveTime, uint256 _expiryTime, uint _idx) internal returns (bool result) {\n//        bool isActive;\n//\n//        kycCacheGraph storage cacheGraph = identifiedAddress_to_kycIdentity[_identifiedAddress].cacheGraph;\n//\n//        //@note: safeMath not required. (thurs feb 22 2018) = 01011010011100100101100010000000 in binary, which is still\n//        // which is 32 bits. #functionmaynotworkattheendoftimesoonlyuseitbeforethen.\n//        uint256 blockTime = block.timestamp;\n//\n//        if (_effectiveTime > blockTime) {\n//            cacheGraph.pendingBits |= uint256(_idx);\n//        } else if (_effectiveTime <= blockTime && (_expiryTime == 0 || _expiryTime > blockTime)) {\n//            isActive = true;\n//            cacheGraph.activeBits |= uint256(_idx);\n//        } else {\n//            cacheGraph.expiredBits |= uint256(_idx);\n//        }\n//\n//        EVT_CompareTime(_effectiveTime, blockTime, _expiryTime, isActive);\n//\n//        return isActive;\n//    }\n\n    /// @param _identifiedAddress The end user's smart contract address that attestations are associated to.\n    /// @param _idx The attestation (via Index) that will be compiled into the _identifiedAddress's Trust Channel group membership.\n    /// @dev This function initiates the compilation process for a specific _identifiedAddress's attestation (referenced via Index). If this attestation is no longer Approved, there is a mechanism to conditionaly remove the Trust Channel group membership that is associated to the Trust Anchor that initially performed this attestation.\n\n    function compileCacheGraph(address _identifiedAddress, uint16 _idx) override public {\n        ITrustAnchorStorage trustAnchorStorage = ITrustAnchorStorage(trustAnchorStorageAddress);\n\n        bytes32 keccakHash;\n        uint32 trustAnchorIndex;\n        uint16 jurisdiction;\n        bool attestationStatusApproved;\n\n        (keccakHash,\n         trustAnchorIndex,\n         jurisdiction,\n         attestationStatusApproved) = trustAnchorStorage.getGraphConstructableAttestationInKeccakArray(_identifiedAddress, uint8(_idx));\n\n        kycCacheGraph storage cacheGraph = identifiedAddress_to_kycIdentity[_identifiedAddress].cacheGraph;\n\n        if (cacheGraph.exists == false) {\n            cacheGraph.exists = true;\n\n            cacheGraph.activeTrustChannelLowestSubmapNumber = 2**24-1;\n            cacheGraph.activeTrustChannelHighestSubmapNumber;\n\n            cacheGraph.activeConsentedTrustChannelLowestSubmapNumber = 2**24-1;\n            cacheGraph.activeConsentedTrustChannelHighestSubmapNumber;\n        }\n\n        bool didChangeApprovedStatus;\n\n        //check whether this attestation has already been processed.\n        if (cacheGraph.attestationHasAlreadyBeenProcessed[_idx] == true) {\n            //@note: if the attestation has already been processed and its status has changed, modify the counter.\n            // otherwise, don't modify the counter.\n            if (cacheGraph.attestationPreviousApprovedStatus[_idx] == false && attestationStatusApproved == true) {\n                cacheGraph.trustAnchorIndexToCountMap[trustAnchorIndex]++;\n                didChangeApprovedStatus = true;\n            } else if (cacheGraph.attestationPreviousApprovedStatus[_idx] == true && attestationStatusApproved == false) {\n                cacheGraph.trustAnchorIndexToCountMap[trustAnchorIndex]--;\n                didChangeApprovedStatus = true;\n            }\n        } else {\n            //if this is the first time this trustAnchorIndex has been included in this cache graph, set its lowest trust channel\n            // submap index to 2**24-1.\n            if (cacheGraph.trustAnchorIndexToCountMap[trustAnchorIndex] == 0) {\n                cacheGraph.trustAnchorTrustChannelIndexEXBitFieldLowestSubmapNumber[trustAnchorIndex] = 2**24 -1;\n            }\n\n            cacheGraph.trustAnchorIndexToCountMap[trustAnchorIndex]++;\n\n            //check whether this trust anchor has attested before.\n            //@note:@here:@todo:@critical:@internalaudit: this section is commented out and no references\n            // to the \"allTrustAnchorsThatHaveAttestedNextLinkArray\" exist. I believe this is as\n            // it should be but due to many optimizations of this function I'd like to know if this\n            // belief is sound or if it's not (ie something should actualy be happening in this).\n            if (cacheGraph.allTrustAnchorIndexExistsMapping[trustAnchorIndex] == true) {\n//                //get the current (soon to be previous) length of all the trust anchor that have ever attested to this contract.\n//                uint16 previousAllTrustAnchorNextLinkArrayLength = uint16(cacheGraph.allTrustAnchorsThatHaveAttestedNextLinkArray.length);\n//\n//                //increase that length because we're going to modify it next.\n//                cacheGraph.allTrustAnchorsThatHaveAttestedNextLinkArray.length++;\n//\n//                //set the next array index in the array to have the trust anchor's index.\n//                cacheGraph.allTrustAnchorsThatHaveAttestedNextLinkArray[previousAllTrustAnchorNextLinkArrayLength] = trustAnchorIndex;\n            } else {\n                cacheGraph.allTrustAnchorIndexExistsMapping[trustAnchorIndex] = true;\n            }\n\n            //if there are currently no members in the linked list, set this as the zeroth index. there's no need to setup\n            //the allTrustAnchorsThatHaveAttestedNextLinkMapping array since this is the only item in the linked list.\n            if (cacheGraph.currentTrustAnchorsLinkedList_length == 0) {\n                cacheGraph.currentTrustAnchorLinkedList_zerothIndex = trustAnchorIndex;\n\n                cacheGraph.currentTrustAnchorsLinkedList_length = 1;\n            } else {\n                //otherwise, set the previous final trust anchor in the linked list to have the next link as this trust anchor's index.\n                cacheGraph.allTrustAnchorsThatHaveAttestedNextLinkMapping[cacheGraph.currentTrustAnchorLinkedList_finalIndex] = trustAnchorIndex;\n\n                //increase the length of the list.\n                cacheGraph.currentTrustAnchorsLinkedList_length++;\n            }\n\n            //update the final index in the linked list.\n            cacheGraph.currentTrustAnchorLinkedList_finalIndex = trustAnchorIndex;\n\n            didChangeApprovedStatus = true;\n        }\n\n//        EVT_GotAttestationStatus(_identifiedAddress, attestationStatusApproved, didChangeApprovedStatus, _idx, cacheGraph.attestationHasAlreadyBeenProcessed[_idx]);\n\n        if (didChangeApprovedStatus == true) {\n            if (attestationStatusApproved) {\n                //@note: might be too expensive\n                // checkConsentSignatures(_identifiedAddress, _idx, keccakHash);\n//                bool consentAvailable = compileCacheGraphConsent(_identifiedAddress, _idx, keccakHash, jurisdiction);\n\n                //@note: full consent is from user + trust anchor.\n                bool consentAvailable = (trustAnchorStorage.getConsentAvailableInKeccakArray(_identifiedAddress, uint8(_idx)) == 2);\n\n//              emit EVT_DoCompileCacheGraphTrustChannelEXBitFields(_identifiedAddress, keccakHash, consentAvailable);\n\n                //check if this attestation index has already been processed.\n                if (cacheGraph.attestationHasAlreadyBeenProcessed[_idx] == false) {\n                    //set the attestationHasAlreadyBeenProcessed for this attestation index to true.\n                    cacheGraph.attestationHasAlreadyBeenProcessed[_idx] = true;\n\n                    //@note: this is additive-only.\n                    compileCacheGraphTrustChannelEXBitFieldsAdditive(_identifiedAddress, keccakHash, consentAvailable);\n                }\n            } else {\n                //@note: the removal of trust anchor's attestation may have changed the trust channels associated to\n                // this account. in this case, the trust channel itself may need to be removed from the previously\n                // compiled EX bits.\n                if (cacheGraph.attestationHasAlreadyBeenProcessed[_idx] == true) {\n//                  emit EVT_DoConditionallyRemoveTrustChannelEXBitFields(_identifiedAddress, trustAnchorIndex, keccakHash);\n\n                    conditionallyRemoveCacheGraphTrustChannelTrustAnchorIndexEXBitField(_identifiedAddress, trustAnchorIndex);\n                } else {\n                    //if it's false, there's nothing that needs to be done, since it wouldn't be in the compiled EX bits.\n                }\n            }\n        }\n\n        cacheGraph.attestationPreviousApprovedStatus[_idx] = attestationStatusApproved;\n    }\n\n\n    //@note: any function calling this should be aware that it will return 0 in the case where there are no set bits.\n    //returns:\n\n    /// @param trustChannelBitField the 256-bit bit field that the sub-index is retrieved.\n    /// @dev | This function returns the sub-index (the position within a 256-bit window of the total trust channel bitfield) using the most efficient method of finding the leftmost set bit within N bits - the debruijn search algorithm.\n    ///      | This function uses a sliding window 32 bits wide (the size of the the debruijn algorithm's search filter) over the 256-bit input bitfield. Further improvements to the debruijn library may result in a 64-bit (or even 256-bit) version of this algorithm. Given gas costs, I believe the cost would be reduced further all the way up to a hypothetical 256-bit version.\n    /// @return result\n    ///    0->255 = trust channel sub index.\n\n    function getTrustChannelSubIndexFromBitField(uint256 trustChannelBitField) public returns (uint8 result) {\n        //@reference:@checkwhenupdating: from TrustChannelManager.sol's bit field creation process\n        //\n        // uint32 trustChannelIndex = trustChannelKeccakToTrustChannelIndex[trustChannelKeccak];\n        //\n        // //separate out the trust channel index number with the sub-mapping. this keeps alignment to 256 bits.\n        // uint8 submapNumber = uint8(trustChannelIndex >> 8);\n        // uint8 subIndex = uint8(trustChannelIndex % 256);\n        //\n        // bytes32 composedBitField = trustAnchorAddressToTrustChannelIndexBitField[_trustAnchorAddress][submapNumber];\n        //\n        //@reference: this is the general pattern.\n        // using least significant bit, the subindex\n        // 0100       0000        0000        0000       0000       0000       0000       0100\n        // 1's subIndex = 30                                                              1's subIndex = 3\n        //\n        //@reference: like so\n        // uint32 active32BitWord3 = uint32((activeJurisdictionBitField & (uint256(32 ** 2 - 1) << 128)) >> 128);\n        // uint32 active32BitWord4 = uint32((activeJurisdictionBitField & (uint256(32 ** 2 - 1) << 96)) >> 96);\n        // uint32 active32BitWord5 = uint32((activeJurisdictionBitField & (uint256(32 ** 2 - 1) << 64)) >> 64);\n        // uint32 active32BitWord6 = uint32((activeJurisdictionBitField & (uint256(32 ** 2 - 1) << 32)) >> 32);\n\n        uint256 bitMask = uint256(2 ** 32 - 1);\n        uint8 trustChannelSubIndex;\n\n        //@note: updating the first 32 bits immediately.. consider it as a L1 cache for the trust anchors, which assumes\n        // clustering around the primary initial trust channels.\n        uint32 trustChannelBitFieldWords_7 = uint32(trustChannelBitField & bitMask);\n\n        emit EVT_TrustChannelBitFieldWords(trustChannelBitFieldWords_7);\n        if (trustChannelBitFieldWords_7 != 0) {\n            trustChannelSubIndex = uint8(debruijn_rightmost_index(trustChannelBitFieldWords_7));\n\n            emit EVT_TrustChannelBitFieldIndex(trustChannelSubIndex);\n        } else {\n            //compare the rest as required\n            uint32 trustChannelBitFieldWord;\n            uint8 shifter;\n\n            for (uint8 i = 6; i >= 0; i--) {\n                //@reference: when i = 0 (the first 32 bit word) the bitmask must be shifted by 224, AND'd with the trust channel bit field,\n                // and then shifted back to be referenced as a 32 bit index.\n                // Max value is 224 = 32 * (7-0)\n\n                shifter = (32 * (7 - i));\n\n                trustChannelBitFieldWord = uint32((trustChannelBitField & (bitMask << shifter)) >> shifter);\n\n                if (trustChannelBitFieldWord != 0) {\n                    trustChannelSubIndex = uint8(debruijn_rightmost_index(trustChannelBitFieldWord) + shifter);\n\n                    emit EVT_TrustChannelBitFieldIndexEXT(i, shifter, trustChannelBitFieldWord, trustChannelBitField, trustChannelSubIndex);\n\n                    break;\n                }\n            }\n        }\n\n        return trustChannelSubIndex;\n    }\n\n    //@note: the following two functions (getActiveConsentedTrustChannelBitFieldForPair & getActiveTrustChannelBitFieldForPair) are very\n    // similarly structured, but as these functions will be called often, they are split out into two separate function calls to avoid\n    // \"stack too deep\" issues.\n\n\n    /// @param _senderIdentifiedAddress the sender's address\n    /// @param _receiverIdentifiedAddress the receiver's address\n    /// @dev | The function returns the lowest trust channel index that the sender and receiver have in common. Specifically searches the both the \"active\" directory (which may not be updated given that repeating tasks per-block is not a feature of the ethereum and thus Shyft blockchain), and the \"consented\" channels. Given that users will have benefit to update the blockchain when they are \"active\" and thus set that flag, and the opposite when they may lose their active status, there will be a commonly higher proportion of false positives across active & inactive attestations. Consequently, it is the vendors who have the onus on proving that a customer is inactive.\n    /// @dev | As Users of Shyft, there is also the option of proving group membership in the Trust Channels, so this Routing function may become the predominant standard.\n    ///      | This function uses a sliding window 256 bits wide, and narrows down the search to the mutually highest and lowest submap indexes both the sender and receiver have in common.\n    /// @return result\n    ///      | NoTrustChannel = no trust channel found\n    ///      | 0->2**32 - 2 = trust channel found at index\n\n    function getActiveConsentedTrustChannelBitFieldForPair( address _senderIdentifiedAddress,\n                                                            address _receiverIdentifiedAddress) public override returns (uint32 result) {\n        kycCacheGraph storage senderCacheGraph = identifiedAddress_to_kycIdentity[_senderIdentifiedAddress].cacheGraph;\n        kycCacheGraph storage receiverCacheGraph = identifiedAddress_to_kycIdentity[_receiverIdentifiedAddress].cacheGraph;\n\n        uint24 senderLowestSubmapIndex = senderCacheGraph.activeConsentedTrustChannelLowestSubmapNumber;\n        uint24 senderHighestSubmapIndex = senderCacheGraph.activeConsentedTrustChannelHighestSubmapNumber;\n\n        uint24 receiverLowestSubmapIndex = receiverCacheGraph.activeConsentedTrustChannelLowestSubmapNumber;\n        uint24 receiverHighestSubmapIndex = receiverCacheGraph.activeConsentedTrustChannelHighestSubmapNumber;\n\n        uint256 trustChannelBitField;\n\n        uint32 trustChannelIndex;\n\n        //check for first index accessible to both parties.\n        //this is the most efficient form of trust channel matching.\n        if (senderHighestSubmapIndex == 0 || receiverHighestSubmapIndex == 0) {\n            //it is, so no need to loop,\n            trustChannelBitField = uint256(senderCacheGraph.activeConsentedTrustChannelEXBitField[0]);\n            trustChannelBitField &= uint256(receiverCacheGraph.activeConsentedTrustChannelEXBitField[0]);\n\n            if (trustChannelBitField != 0) {\n                trustChannelIndex = getTrustChannelSubIndexFromBitField(trustChannelBitField);\n\n                emit EVT_TrustChannelRouted(trustChannelIndex, _senderIdentifiedAddress, _receiverIdentifiedAddress);\n\n                //trust channel found at index\n                return trustChannelIndex;\n            } else {\n                //no trust channel found\n                return NoTrustChannel;\n            }\n        } else {\n            //get the lowest and highest index that both sender/receiver are party to.\n            uint24 lowestSearchableSubmapIndex = senderLowestSubmapIndex;\n            uint24 highestSearchableSubmapIndex = senderHighestSubmapIndex;\n\n            if (receiverLowestSubmapIndex < lowestSearchableSubmapIndex) {\n                lowestSearchableSubmapIndex = receiverLowestSubmapIndex;\n            }\n            if (receiverHighestSubmapIndex > highestSearchableSubmapIndex) {\n                highestSearchableSubmapIndex = receiverHighestSubmapIndex;\n            }\n\n            emit EVT_GotLowestAndHighestTrustChannelSubmapNumber(lowestSearchableSubmapIndex, highestSearchableSubmapIndex);\n\n            //search by pages\n            //@note:@here:@internalaudit: if this overflows (the \"highestSearchableSubmapIndex + 1\") there could be an issue.\n            // however, at that point the submap is at 2**24-1, which means the entire trust channel mapping is completely\n            // filled. that's an enormous amount of gas to set up, and would either mean the network is completely\n            // massively operational, or there's been a serious breach of an administrator for the trust channel\n            // manager contract. this contract's owner can explicitly change this trust channel manager relationship.\n\n            for (uint24 i = lowestSearchableSubmapIndex; i < highestSearchableSubmapIndex + 1; i++) {\n                trustChannelBitField = uint256(senderCacheGraph.activeConsentedTrustChannelEXBitField[i]);\n                trustChannelBitField &= uint256(receiverCacheGraph.activeConsentedTrustChannelEXBitField[i]);\n\n                if (trustChannelBitField != 0) {\n                    trustChannelIndex = getTrustChannelSubIndexFromBitField(trustChannelBitField) + (i * 256);\n\n                    emit EVT_TrustChannelRouted(trustChannelIndex, _senderIdentifiedAddress, _receiverIdentifiedAddress);\n\n                    //trust channel found at index\n                    return trustChannelIndex;\n                }\n            }\n\n            //no trust channel found\n            return NoTrustChannel;\n        }\n    }\n\n    /// @param _senderIdentifiedAddress the sender's address\n    /// @param _receiverIdentifiedAddress the receiver's address\n    /// @dev | The function returns the lowest trust channel index that the sender and receiver have in common. Specifically searches the \"active\" directory (which may not be updated given that repeating tasks per-block is not a feature of the ethereum and thus Shyft blockchain).\n    ///      | This function uses a sliding window 256 bits wide, and narrows down the search to the mutually highest and lowest submap indexes both the sender and receiver have in common.\n    /// @return result\n    ///      | NoTrustChannel = no trust channel found\n    ///      | 0->2**32 - 2 = trust channel found at index\n\n    function getActiveTrustChannelBitFieldForPair(  address _senderIdentifiedAddress,\n                                                    address _receiverIdentifiedAddress) public override returns (uint32 result) {\n        kycCacheGraph storage senderCacheGraph = identifiedAddress_to_kycIdentity[_senderIdentifiedAddress].cacheGraph;\n        kycCacheGraph storage receiverCacheGraph = identifiedAddress_to_kycIdentity[_receiverIdentifiedAddress].cacheGraph;\n\n        uint24 senderLowestSubmapIndex = senderCacheGraph.activeTrustChannelLowestSubmapNumber;\n        uint24 senderHighestSubmapIndex = senderCacheGraph.activeTrustChannelHighestSubmapNumber;\n\n        uint24 receiverLowestSubmapIndex = receiverCacheGraph.activeTrustChannelLowestSubmapNumber;\n        uint24 receiverHighestSubmapIndex = receiverCacheGraph.activeTrustChannelHighestSubmapNumber;\n\n        emit EVT_GotHighestSubmapNumbers(senderHighestSubmapIndex, receiverHighestSubmapIndex);\n\n        uint256 trustChannelBitField;\n\n        uint32 trustChannelIndex;\n\n        //check for first index accessible to both parties.\n        //this is the most efficient form of trust channel matching.\n        if (senderHighestSubmapIndex == 0 || receiverHighestSubmapIndex == 0) {\n            //it is, so no need to loop.\n            trustChannelBitField = senderCacheGraph.activeTrustChannelEXBitField[0];\n            trustChannelBitField &= receiverCacheGraph.activeTrustChannelEXBitField[0];\n\n            emit EVT_GetActiveTrustChannelEXBitFieldLength(\n                senderCacheGraph.activeTrustChannelLowestSubmapNumber,\n                senderCacheGraph.activeTrustChannelHighestSubmapNumber,\n                receiverCacheGraph.activeTrustChannelLowestSubmapNumber,\n                receiverCacheGraph.activeTrustChannelHighestSubmapNumber,\n                senderCacheGraph.activeTrustChannelEXBitField[0],\n                receiverCacheGraph.activeTrustChannelEXBitField[0],\n                trustChannelBitField);\n\n            if (trustChannelBitField != 0) {\n                trustChannelIndex = getTrustChannelSubIndexFromBitField(trustChannelBitField);\n\n                emit EVT_TrustChannelRouted(trustChannelIndex, _senderIdentifiedAddress, _receiverIdentifiedAddress);\n\n                //trust channel found at index\n                return trustChannelIndex;\n            } else {\n                //no trust channel found\n                return NoTrustChannel;\n            }\n        } else {\n            //get the lowest and highest index that both sender/receiver are party to.\n            uint24 lowestSearchableSubmapIndex = senderLowestSubmapIndex;\n            uint24 highestSearchableSubmapIndex = senderHighestSubmapIndex;\n\n            if (receiverLowestSubmapIndex < lowestSearchableSubmapIndex) {\n                lowestSearchableSubmapIndex = receiverLowestSubmapIndex;\n            }\n            if (receiverHighestSubmapIndex > highestSearchableSubmapIndex) {\n                highestSearchableSubmapIndex = receiverHighestSubmapIndex;\n            }\n\n            emit EVT_GotLowestAndHighestTrustChannelSubmapNumber(lowestSearchableSubmapIndex, highestSearchableSubmapIndex);\n\n            //search by pages\n            //@note:@here:@internalaudit: if this overflows (the \"highestSearchableSubmapIndex + 1\") there could be an issue.\n            // however, at that point the submap is at 2**24-1, which means the entire trust channel mapping is completely\n            // filled. that's an enormous amount of gas to set up, and would either mean the network is completely\n            // massively operational, or there's been a serious breach of an administrator for the trust channel\n            // manager contract. this contract's owner can explicitly change this trust channel manager relationship.\n\n            for (uint24 i = lowestSearchableSubmapIndex; i < highestSearchableSubmapIndex + 1; i++) {\n                trustChannelBitField = senderCacheGraph.activeTrustChannelEXBitField[i];\n                trustChannelBitField &= receiverCacheGraph.activeTrustChannelEXBitField[i];\n\n                emit EVT_GetActiveTrustChannelEXBitFieldLength(\n                    senderCacheGraph.activeTrustChannelLowestSubmapNumber,\n                    senderCacheGraph.activeTrustChannelHighestSubmapNumber,\n                    receiverCacheGraph.activeTrustChannelLowestSubmapNumber,\n                    receiverCacheGraph.activeTrustChannelHighestSubmapNumber,\n                    senderCacheGraph.activeTrustChannelEXBitField[i],\n                    receiverCacheGraph.activeTrustChannelEXBitField[i],\n                    trustChannelBitField);\n\n                if (trustChannelBitField != 0) {\n                    trustChannelIndex = getTrustChannelSubIndexFromBitField(trustChannelBitField) + (i * 256);\n\n                    emit EVT_TrustChannelRouted(trustChannelIndex, _senderIdentifiedAddress, _receiverIdentifiedAddress);\n\n                    //trust channel found at index\n                    return trustChannelIndex;\n                }\n            }\n\n            //no trust channel found\n            return NoTrustChannel;\n        }\n    }\n\n    /// @param _firstAddress the first address to check for the Trust Channel route comparison.\n    /// @param _secondAddress the second address to check for the Trust Channel route comparison.\n    /// @param _trustChannelAddress the Trust Channel to perform the route comparison in reference to.\n    /// @dev | The function returns whether the first and second addresses have a Trust Channel route configuration that would allow both of them to send over that.\n    /// @return result a boolean true/false of whether both the first and second addresses have a specific trust channel route possible\n\n    function getActiveConsentedTrustChannelRoutePossible(   address _firstAddress,\n                                                            address _secondAddress,\n                                                            address _trustChannelAddress) public view override returns (bool result) {\n        kycCacheGraph storage senderCacheGraph = identifiedAddress_to_kycIdentity[_firstAddress].cacheGraph;\n        kycCacheGraph storage receiverCacheGraph = identifiedAddress_to_kycIdentity[_secondAddress].cacheGraph;\n\n        ITrustChannelManager trustChannelManager = ITrustChannelManager(trustChannelManagerAddress);\n        bytes32 trustChannelKeccak = keccak256(abi.encodePacked(_trustChannelAddress));\n\n        uint32 trustChannelIndex = trustChannelManager.getTrustChannelIndexFromTrustChannelKeccak(trustChannelKeccak);\n//        ITrustAnchorStorage trustAnchorStorage = ITrustAnchorStorage(trustAnchorStorageAddress);\n\n\n        uint24 submapToSearch = uint24(trustChannelIndex >> 8);\n        uint8 submapIndex = uint8(trustChannelIndex % 256);\n\n        uint256 referenceBitField = uint256(2)**submapIndex;\n        uint256 senderBitField = senderCacheGraph.activeConsentedTrustChannelEXBitField[submapToSearch];\n        uint256 receiverBitField = receiverCacheGraph.activeConsentedTrustChannelEXBitField[submapToSearch];\n\n        if ((referenceBitField & senderBitField) == 1 && (referenceBitField & receiverBitField) == 1) {\n            // found match\n            return true;\n        } else {\n            // bit fields do not both contain that specific trust channel\n            return false;\n        }\n    }\n\n    /// @param _firstAddress the first address to check for the Trust Channel route comparison.\n    /// @param _secondAddress the second address to check for the Trust Channel route comparison.\n    /// @param _trustChannelAddress the Trust Channel to perform the route comparison in reference to.\n    /// @dev | The function returns whether the first and second addresses have a Trust Channel route configuration that would allow both of them to send over that.\n    /// @return result a boolean true/false of whether both the first and second addresses have a specific trust channel route possible\n\n    function getActiveTrustChannelRoutePossible(address _firstAddress,\n                                                address _secondAddress,\n                                                address _trustChannelAddress) public view override returns (bool result) {\n        kycCacheGraph storage senderCacheGraph = identifiedAddress_to_kycIdentity[_firstAddress].cacheGraph;\n        kycCacheGraph storage receiverCacheGraph = identifiedAddress_to_kycIdentity[_secondAddress].cacheGraph;\n\n        ITrustChannelManager trustChannelManager = ITrustChannelManager(trustChannelManagerAddress);\n        bytes32 trustChannelKeccak = keccak256(abi.encodePacked(_trustChannelAddress));\n\n        uint32 trustChannelIndex = trustChannelManager.getTrustChannelIndexFromTrustChannelKeccak(trustChannelKeccak);\n        //        ITrustAnchorStorage trustAnchorStorage = ITrustAnchorStorage(trustAnchorStorageAddress);\n\n\n        uint24 submapToSearch = uint24(trustChannelIndex >> 8);\n        uint8 submapIndex = uint8(trustChannelIndex % 256);\n\n        uint256 referenceBitField = uint256(2)**submapIndex;\n        uint256 senderBitField = senderCacheGraph.activeTrustChannelEXBitField[submapToSearch];\n        uint256 receiverBitField = receiverCacheGraph.activeTrustChannelEXBitField[submapToSearch];\n\n        if ((referenceBitField & senderBitField) == 1 && (referenceBitField & receiverBitField) == 1) {\n            // found match\n            return true;\n        } else {\n            // bit fields do not both contain that specific trust channel\n            return false;\n        }\n    }\n\n    //return:\n    // 0 : no kyc'd address found\n    // -1 : no kyc level determined\n    // 1 -> 128: local kyc level found\n\n\n//    //@note: assumes \"active\" attestations\n//    // also assumes that \"dirty\" graphs will be rectified in-situ.\n//    function getLocalKYCLevel(address _identifiedAddress) public returns (int8 result) {\n//        //@note:@todo:@next:@critical: enable CacheGraphStatus to mean anything. probably through trustanchorstorage it'd be marked dirty.\n//        if (identifiedAddress_to_kycIdentity[_identifiedAddress].cacheGraph.graphStatus == CacheGraphStatus.Enabled) {\n//            //local kyc level found\n//            return identifiedAddress_to_kycIdentity[_identifiedAddress].cacheGraph.constructedLocalKycLevel;\n//        } else if (identifiedAddress_to_kycIdentity[_identifiedAddress].cacheGraph.graphStatus == CacheGraphStatus.Dirty) {\n//            reconstructCacheGraph(_identifiedAddress);\n//\n//            //@note:@todo:@next: return the proper data\n//            return identifiedAddress_to_kycIdentity[_identifiedAddress].cacheGraph.constructedLocalKycLevel;\n//        } else {\n//            //     //no kyc'd address found\n//            return 0;\n//        }\n//\n//        // //@note: here's the bloom filter in action, acting as a global aggregate of the whole. checks for\n//        // // zero value mean absolutely zero active attestations, without needing to check any external\n//        // // arrays.\n//\n//        // if (documentActiveAggregateBloomFilter > 0) {\n//        //     //no bits set in \"active\" bloom filter, hence no valid KYC level.\n//        //     return 0;\n//        // } else {\n//\n//        // }\n//    }\n\n    //@here:@next:@todo:@documentthis\n\n    //returns:\n    // 1 -> 2**15 - 1 = kyc levels authorized\n    // 0: no routing possible (@note: is this even possible)\n    // -1: pseudonymous only\n    // -2: bridged kyc only (Civic etc)\n    // -3 -> -(2**15 - 1) = bridged kyc modes (@note:@here:@todo:@next: defined these)\n\n    // add favourable jurisdiction checks here ([@phase3: trust channel optimizations])\n    // add IEV checks here.. relative KYC level must be above _X_?\n\n    //@note: this function performs any necessary notifications across the trust channel routing indicies. If there are event subscribers, most of the logistics can\n    // be handled on the app layer instead of the dapp layer. However, automated blockchain accounts, reporting, etc. could do with having specific event subscription\n    // calls.\n    // -> the routing function is only called when the fully identified trust channel indexes are aligned from a KYC'd user's cache graph.\n    // -> the trust anchors on both the sender and receiver side are guaranteed to exist within this trust channel.\n\n\n    //this is used to check for minimum reserves when transacting across blockchains. This can create a de-facto \"accredited investor\" status if there\n    // is enough crypto and/or crypto assets held in the Safe balance of the sender.\n\n    //other sources of confirmation: external data from the blockchain\n    //                               immediate biometric signature\n    //                               other user behaviours (local ai)\n    //                               conservator concierge (cloud ai)\n\n    //returns:\n    //@note:@todo:@next: update.\n    //@note:@todo:@test: create tests for the path where an external trust level would be required\n    // 0 : no kyc'd address found\n    // -1 : no kyc level determined\n    // 1-128: relative kyc level found\n\n    /// @param _senderIdentifiedAddress the sender's address\n    /// @param _receiverIdentifiedAddress the receiver's address\n    /// @param _amount the amount to transmit\n    /// @param _bip32X_type the token type that is being transmitted\n    /// @param _requiredConsentFromAllParties whether \"consented\" status is required from all parties\n    /// @param _requiredActive whether an \"active\" status is required from the channel\n    /// @dev | This function gets the relative KYC level on a transactional basis between two counterparties. Included in the checks are the baseline information that is needed to determine counterparty conditions.\n    ///      | The other method of calling this function include parameters useful in an \"Assured Asset\" profile.\n    /// @return relativeTrustLevel the relative trust level of the counterparties\n    /// @return externalTrustLevel the external trust level of the counterparties\n\n    //@note: assumes \"active\" and \"active+consented\", trust channel routes\n    // also assumes that \"dirty\" graphs will not be passed in.\n    function getRelativeTrustLevelOnlyClean(address _senderIdentifiedAddress,\n                                            address _receiverIdentifiedAddress,\n                                            uint256 _amount,\n                                            uint256 _bip32X_type,\n                                            bool _requiredConsentFromAllParties,\n                                            bool _requiredActive) public override(ITrustChannelManager_Routing, IShyftCacheGraph) returns (int16 relativeTrustLevel, int16 externalTrustLevel) {\n        //we avoid this check due to the \"only clean\" status, which is two compares and two storage reads\n        // if (identifiedAddress_to_kycIdentity[_senderIdentifiedAddress].cacheGraph.graphStatus == CacheGraphStatus.Enabled\n        // && identifiedAddress_to_kycIdentity[_receiverIdentifiedAddress].cacheGraph.graphStatus == CacheGraphStatus.Enabled) {\n\n        uint32 trustChannelIndex;\n\n        if (_requiredConsentFromAllParties == true) {\n            trustChannelIndex = getActiveConsentedTrustChannelBitFieldForPair(_senderIdentifiedAddress, _receiverIdentifiedAddress);\n        } else {\n            trustChannelIndex = getActiveTrustChannelBitFieldForPair(_senderIdentifiedAddress, _receiverIdentifiedAddress);\n        }\n\n        if (trustChannelIndex != NoTrustChannel) {\n            ITrustChannelManager trustChannelManager = ITrustChannelManager(trustChannelManagerAddress);\n\n            (uint8 returnCode, uint256 foundChannelRulesBitField) = trustChannelManager.getActiveChannelRulesBitField(trustChannelIndex);\n\n            if (returnCode == 1 && _requiredActive == true) {\n                relativeTrustLevel = 0;\n            } else if (returnCode > 0) {\n\n                (relativeTrustLevel, externalTrustLevel) = calculateRelativeTrustLevel(trustChannelIndex, foundChannelRulesBitField, _senderIdentifiedAddress, _receiverIdentifiedAddress, _amount, _bip32X_type, _requiredConsentFromAllParties, _requiredActive);\n\n//                emit EVT_getRelativeTrustLevelOnlyCleanDebug(_senderIdentifiedAddress, _receiverIdentifiedAddress, _amount, _bip32X_type, _requiredConsentFromAllParties, _requiredActive);\n//                emit EVT_getRelativeTrustLevelOnlyCleanDebugExtra(returnCode, foundChannelRulesBitField, totalRules, rulesPassed, relativeTrustLevel, externalTrustLevel, externalRulesPassed);\n            } else {\n                //trust channel does not exist\n                relativeTrustLevel = 0;\n            }\n        } else {\n            relativeTrustLevel = 0;\n        }\n\n//        ITrustAnchorStorage trustAnchorStorage = ITrustAnchorStorage(trustAnchorStorageAddress);\n\n        return (relativeTrustLevel, externalTrustLevel);//identifiedAddress_to_kycIdentity[_identifiedAddress].cacheGraph.constructedLocalKycLevel;\n\n        // //@note: here's the bloom filter in action, acting as a global aggregate of the whole. checks for\n        // // zero value mean absolutely zero active attestations, without needing to check any external\n        // // arrays.\n\n        // if (documentActiveAggregateBloomFilter > 0) {\n        //     //no bits set in \"active\" bloom filter, hence no valid KYC level.\n        //     return 0;\n        // } else {\n\n        // }\n    }\n\n    /// @param _trustChannelIndex the Index for the Trust Channel this calculation is referencing\n    /// @param _foundChannelRulesBitField the Rules for the Trust Channel this calculation is referencing\n    /// @param _senderIdentifiedAddress the sender's address\n    /// @param _receiverIdentifiedAddress the receiver's address\n    /// @param _amount the amount to transmit\n    /// @param _bip32X_type the token type that is being transmitted\n    /// @param _requiredConsentFromAllParties whether \"consented\" status is required from all parties\n    /// @param _requiredActive whether an \"active\" status is required from the channel\n    /// @dev | This function generates the relative trust level of the counterparties in relation to all of the Rules set for this Trust Channel. This function checks for a Verification Policy, Amount Limits per transaction, and also enables external checks (defined by the Multisig administrators to the Trust Channel) via an other smart contract address.\n    ///      | Externally referenced smart contracts have the same input/output types as defined in the \"getExternalTrustLevel\" function.\n    /// @return relativeTrustLevel the (relative) trust level of the counterparties in respect to the trust channel's routing rules\n    /// @return externalTrustLevel the (external) trust level of the counterparties in respect to the trust channel's routing rules\n\n\n    function calculateRelativeTrustLevel(   uint32 _trustChannelIndex,\n                                            uint256 _foundChannelRulesBitField,\n                                            address _senderIdentifiedAddress,\n                                            address _receiverIdentifiedAddress,\n                                            uint256 _amount,\n                                            uint256 _bip32X_type,\n                                            bool _requiredConsentFromAllParties,\n                                            bool _requiredActive) public override returns(int16 relativeTrustLevel, int16 externalTrustLevel) {\n        ITrustChannelManager trustChannelManager = ITrustChannelManager(trustChannelManagerAddress);\n        //@note: the mechanism for determining relativeTrustLevel is:\n        // 1: start with a \"1\" if the returnCode from the trustChannelManager's \"route\" function (meaning that\n        //     this trust channel is active) is > 0\n        // 2: for each of the rules that are active, see whether that passes checks (value limit etc.)\n        //     if it does, add one to the relativeTrustLevel. If not, reduce by one.\n        // 3: with the final relativeTrustLevel value here, if it equals the total available, set it to that total.\n        //     otherwise, set the result to zero (since not all rules have passed).\n\n        uint256 totalRules;\n        uint256 rulesPassed;\n\n        if ((uint256(2)**uint8(trustChannelRulesEnum.VerificationPolicyEnforced)) & _foundChannelRulesBitField != 0) {\n            if ((uint256(2)**uint8(trustChannelRulesEnum.AmountLimitsEnforced)) & _foundChannelRulesBitField != 0) {\n                totalRules++;\n\n                //check whether the rules' requirement for amount sent to be under or equal to this amount sent.\n                if (uint256(trustChannelManager.getTrustChannelRulesStorage(_trustChannelIndex, uint8(trustChannelRulesEnum.AmountLimitsEnforced), 0)) <= _amount) {\n                    rulesPassed++;\n                }\n\n            }\n\n            if ((uint256(2)**uint8(trustChannelRulesEnum.ExternalRoutingContractEnforced)) & _foundChannelRulesBitField != 0) {\n                totalRules++;\n\n//                        if ((uint256(2)**uint8(trustChannelRulesEnum.AssuredAssetsEnabled)) & _foundChannelRulesBitField != 0) {\n//                            totalRules++;\n//                            rulesPassed++;\n//                        }\n\n                bool success;\n\n                (success, externalTrustLevel) = getExternalTrustLevel(_trustChannelIndex, _senderIdentifiedAddress, _receiverIdentifiedAddress, _amount, _bip32X_type, _requiredConsentFromAllParties, _requiredActive);\n\n                if (success == true) {\n                    rulesPassed++;\n                }\n            }\n        }\n\n        if (totalRules == 0) {\n            relativeTrustLevel = 1;\n        } else {\n            if (totalRules == rulesPassed) {\n                if (totalRules > 32766 - 256) {\n                    relativeTrustLevel = 32766;\n                } else {\n                    relativeTrustLevel = int16(totalRules + 1);\n                }\n            } else {\n                //all rules do not pass\n                relativeTrustLevel = 0;\n            }\n        }\n\n        return (relativeTrustLevel, externalTrustLevel);\n    }\n\n    /// @param _trustChannelIndex the Index for the Trust Channel this calculation is referencing\n    /// @param _senderIdentifiedAddress the sender's address\n    /// @param _receiverIdentifiedAddress the receiver's address\n    /// @param _amount the amount to transmit\n    /// @param _bip32X_type the token type that is being transmitted\n    /// @param _requiredConsentFromAllParties whether \"consented\" status is required from all parties\n    /// @param _requiredActive whether an \"active\" status is required from the channel\n    /// @dev | An internal function to generate the relative trust level of the counterparties in relation to all of the Rules set for this Trust Channel. This function checks for a Verification Policy, Amount Limits per transaction, and also enables external checks (defined by the Multisig administrators to the Trust Channel) via an other smart contract address.\n    ///      | Externally referenced smart contracts have the same input/output types as defined in the \"getExternalTrustLevel\" function.\n    /// @return success whether the external trust level returns a \"success\" condition\n    /// @return externalTrustLevel the (external) trust level of the counterparties in respect to the trust channel's routing rules\n\n    function getExternalTrustLevel( uint32 _trustChannelIndex,\n                                    address _senderIdentifiedAddress,\n                                    address _receiverIdentifiedAddress,\n                                    uint256 _amount,\n                                    uint256 _bip32X_type,\n                                    bool _requiredConsentFromAllParties,\n                                    bool _requiredActive) public returns(bool success, int16 externalTrustLevel) {\n        ITrustChannelManager trustChannelManager = ITrustChannelManager(trustChannelManagerAddress);\n\n        //get the contract address from the rules storage, this is all that is needed to perform the next step\n        address exDataContractAddress = address(uint160(uint256(trustChannelManager.getTrustChannelRulesStorage(_trustChannelIndex, uint8(trustChannelRulesEnum.ExternalRoutingContractEnforced), 0))));\n        //address _senderIdentifiedAddress,\n        //address _receiverIdentifiedAddress,\n        //uint256 _amount,\n        //uint256 _bip32X_type,\n        //\n        //uint256 _senderSafeAmount,\n        //bool _requireMinimumAssets,\n        //bool _requireBiometrics,\n        //\n        //bool _requiredConsentFromAllParties,\n        //bool _requiredActive\n        bytes4 sig = bytes4(keccak256(abi.encodePacked(\"getRelativeTrustLevelOnlyClean(address,address,uint256,uint256,bool,bool)\")));\n\n        bytes memory result;\n        (success, result) = exDataContractAddress.call(abi.encodeWithSelector(sig, _senderIdentifiedAddress, _receiverIdentifiedAddress, _amount, _bip32X_type, _requiredConsentFromAllParties, _requiredActive));\n        //check whether the rules' requirement for amount sent to be under or equal to this amount sent.\n        //                        (_amount, _receiver, _tokenLeadContract, _expectedAmount, _expectedSC) = abi.decode(data, (uint, address, address, uint, address));\n        int16 exDataExternalTrustLevel;\n        (externalTrustLevel, exDataExternalTrustLevel) = abi.decode(result, (int16, int16));\n\n        return (success, externalTrustLevel);\n    }\n\n    //@note:@here:@todo:@next: create a kycSend variant that can take a specific channel and confirm trust level\n\n    //@note:@here:@todo:@next: #consentrevocation\n\n    /// @param _senderIdentifiedAddress the sender's address\n    /// @param _receiverIdentifiedAddress the receiver's address\n    /// @param _amount the amount to transmit\n    /// @param _bip32X_type the token type that is being transmitted\n    /// @param _requiredConsentFromAllParties whether \"consented\" status is required from all parties\n    /// @param _payForDirty whether the caller of this contract will pay for the \"clean\" process for one or both of the counterparties\n    /// @dev | An internal function get whether the relative trust level of the counterparties in relation to all of the Rules set for this Trust Channel enables a sending of assets. This function calls getRelativeTrustLevelOnlyClean which will check for external contracts needing to be validated, as specified in the Trust Channel Rules.\n    /// @return result\n    /// | 0 = zero kyc detected or error with kyc level\n    /// | 1 = not enough kyc to transfer\n    /// | 2 = not enough balance\n    /// | 3 = can transfer successfully\n    /// | 4 = won't pay for dirty cache cleaning\n\n    function getKycCanSend( address _senderIdentifiedAddress,\n                            address _receiverIdentifiedAddress,\n                            uint256 _amount,\n                            uint256 _bip32X_type,\n                            bool _requiredConsentFromAllParties,\n                            bool _payForDirty) public override returns (uint8 result) {\n        if (identifiedAddress_to_kycIdentity[_senderIdentifiedAddress].cacheGraph.graphStatus == CacheGraphStatus.Dirty ||\n            identifiedAddress_to_kycIdentity[_receiverIdentifiedAddress].cacheGraph.graphStatus == CacheGraphStatus.Dirty) {\n            if (!_payForDirty) {\n                //won't pay for dirty cache cleaning\n                return 4;\n            } else {\n                if (identifiedAddress_to_kycIdentity[_senderIdentifiedAddress].cacheGraph.graphStatus == CacheGraphStatus.Dirty) {\n                    reconstructCacheGraph(_senderIdentifiedAddress);\n                }\n\n                if (identifiedAddress_to_kycIdentity[_receiverIdentifiedAddress].cacheGraph.graphStatus == CacheGraphStatus.Dirty) {\n                    reconstructCacheGraph(_receiverIdentifiedAddress);\n                }\n            }\n\n            //@note:@todo:@next: add cleaning step.. this could be prohibitively expensive, and so should be watched for. similarly, work could be done\n            // to only check attestations from certain jurisdictions. the dirty flags could be made to be easier to process using floating indexes\n            // with dirty elements. passing compacted trust channels across with dirty flags would be able to be AND'd effectively.\n        }\n\n        (int16 relativeTrustLevel, int16 externalTrustLevel) = getRelativeTrustLevelOnlyClean(_senderIdentifiedAddress, _receiverIdentifiedAddress, _amount, _bip32X_type, _requiredConsentFromAllParties, true);\n\n        // int8 kycSenderAddressLevel = getKYCLevel(_senderIdentifiedAddress);\n        // int8 kycReceiverAddressLevel = getKYCLevel(_receiverIdentifiedAddress);\n\n        //        uint256 safeBalanceSender = getSafeBalance(_senderIdentifiedAddress, _bip32X_type);\n\n        //@note:@todo:@next: updated and fix return codes.\n        if (relativeTrustLevel > 0 || externalTrustLevel > 0) {\n//                if (safeBalanceSender != 0 && safeBalanceSender > _amount) {\n\n            //can transfer successfully\n            return 3;\n        } else {\n            //@note:@todo:@here:@future: handle other forms of routing results in the soft vs. hard trust anchor\n            // domain given the context of soft trust anchors using higher dimensional \"extra\" jurisdictions, it's\n            // quite possible that the relativeTrustLevel results still work with > 0 relativeTrustLevel metrics.\n            if (relativeTrustLevel < 0) {\n\n            } else {\n\n            }\n            //error with kyc level\n            return 0;\n        }\n    }\n\n    //@note:@here:@todo:@next: #consentrevocation reenable this\n//    //@note: because this function is set to public and having people's attestations marked to dirty on a whim is\n//    // bad news, we require this attestation's revocation call come from the Trust Anchor Storage itself.\n//\n//    //returns:\n//    // 0 = message does not originate trust anchor storage\n//    // 1 = attestation marked dirty\n//\n//    function markAttestationAsDirty(address _identifiedAddress, uint8 _idx) public returns (uint8 result) {\n//        if (msg.sender == trustAnchorStorageAddress) {\n//            kycCacheGraph storage cacheGraph = identifiedAddress_to_kycIdentity[_identifiedAddress].cacheGraph;\n//\n//            cacheGraph.graphStatus = CacheGraphStatus.Dirty;\n//\n////            trustAnchorStorage.getGraphConstructableAttestationInKeccakArray(_identifiedAddress, uint8(_idx));\n//\n//            //attestation marked dirty\n//            return 1;\n//        } else {\n//            //message does not originate trust anchor storage\n//            return 0;\n//        }\n//    }\n\n    //@note:@todo:@eventually: prove segments of Trust Channels on the fly with interactions w/ the\n    // Shyft Bridge & associated headers.\n\n    /// @param _identifiedAddress the end users's address\n    /// @param _segmentIndex the segment in the cache graph that will be updated to reference the group membership of the end-user in relation to the Trust Anchor's (on or off-chain) Trust Channel memberships.\n    /// @param _receiptsRoot the root in the receipts (like off-chain block headers), the header of this merkle tree that will be proven for a specific value & path\n    /// @param _rlpCacheGraphProofTx the transaction that will be proven off-chain\n    /// @param _receiptPath the path in the merkle tree that will be used for the proof\n    /// @param _receiptParentNodes the parent nodes in the path that will be used for the proof\n    /// @param _rlpCacheGraphProofReceipt the receipt that will be proven off-chain\n    /// @dev | This function will enable the Shyft Bridge to be used in the proving of off-chain Trust Channel group membership for individuals, allowing for a cross-blockchain integration of the end user's and trust anchor/trust channel group membership.\n    /// @return result the result of the proof.\n\n    function proveCacheGraphSegment(address _identifiedAddress,\n                                    uint64 _segmentIndex,\n                                    bytes32 _receiptsRoot,\n                                    bytes memory _rlpCacheGraphProofTx,\n                                    bytes memory _receiptPath,\n                                    bytes memory _receiptParentNodes,\n                                    bytes memory _rlpCacheGraphProofReceipt) public returns (uint8 result) {\n        IShyftCacheGraph_ExternalTrustChannelProver externalTrustChannelProver = IShyftCacheGraph_ExternalTrustChannelProver(externalTrustChannelProverAddress);\n\n        uint8 proofResult = externalTrustChannelProver.proveCacheGraphSegment(_identifiedAddress, _segmentIndex, _receiptsRoot,_rlpCacheGraphProofTx, _receiptPath, _receiptParentNodes, _rlpCacheGraphProofReceipt);\n\n        //@note:@todo:@here: do something with the returned result.\n\n        return proofResult;\n    }\n}\n",
  "sourcePath": "/opt/shyft-ta-node/contracts/ShyftCacheGraph.sol",
  "compiler": {
    "name": "solc",
    "version": "0.7.1+commit.f4a555be.Emscripten.clang"
  },
  "schemaVersion": "3.3.4",
  "updatedAt": "2021-09-16T18:34:16.216Z",
  "networkType": "ethereum",
  "devdoc": {
    "details": "| This contract contains the operating system of a fully on-chain asset routing system. It uses fancy (Debruijn) math tricks to     | set up and create a number of tables of binary fields representing assignment to the Trust Channel grouping structure.     | Users are attested to by Trust Anchors, [ Trust Anchors are associated to Trust Channels ], and the relationship of the Trust     | Channels is then additively projected onto the Users own individual mapping.     |     | When routing assets, these mappings are compared, and if there is a match (cheaply done so by the math tricks), then there is     | a return code stating such, and contracts that depend on this function would then send assets.     |     | There is also a rule system in-transit. This radically effects per-transaction cost, but is capable of extreme flexibility,     | as it there are functions from basic asset limit restrictions, to being driven by an external smart contract call with     | arbitrary pass/fail logic.",
    "kind": "dev",
    "methods": {
      "calculateRelativeTrustLevel(uint32,uint256,address,address,uint256,uint256,bool,bool)": {
        "details": "| This function generates the relative trust level of the counterparties in relation to all of the Rules set for this Trust Channel. This function checks for a Verification Policy, Amount Limits per transaction, and also enables external checks (defined by the Multisig administrators to the Trust Channel) via an other smart contract address.      | Externally referenced smart contracts have the same input/output types as defined in the \"getExternalTrustLevel\" function.",
        "params": {
          "_amount": "the amount to transmit",
          "_bip32X_type": "the token type that is being transmitted",
          "_foundChannelRulesBitField": "the Rules for the Trust Channel this calculation is referencing",
          "_receiverIdentifiedAddress": "the receiver's address",
          "_requiredActive": "whether an \"active\" status is required from the channel",
          "_requiredConsentFromAllParties": "whether \"consented\" status is required from all parties",
          "_senderIdentifiedAddress": "the sender's address",
          "_trustChannelIndex": "the Index for the Trust Channel this calculation is referencing"
        },
        "returns": {
          "externalTrustLevel": "the (external) trust level of the counterparties in respect to the trust channel's routing rules",
          "relativeTrustLevel": "the (relative) trust level of the counterparties in respect to the trust channel's routing rules"
        }
      },
      "compileCacheGraph(address,uint16)": {
        "details": "This function initiates the compilation process for a specific _identifiedAddress's attestation (referenced via Index). If this attestation is no longer Approved, there is a mechanism to conditionaly remove the Trust Channel group membership that is associated to the Trust Anchor that initially performed this attestation.",
        "params": {
          "_identifiedAddress": "The end user's smart contract address that attestations are associated to.",
          "_idx": "The attestation (via Index) that will be compiled into the _identifiedAddress's Trust Channel group membership."
        }
      },
      "constructor": {
        "details": "Initializes Trust Channel Manager with the owner set to the calling public address."
      },
      "getActiveConsentedTrustChannelBitFieldForPair(address,address)": {
        "details": "| The function returns the lowest trust channel index that the sender and receiver have in common. Specifically searches the both the \"active\" directory (which may not be updated given that repeating tasks per-block is not a feature of the ethereum and thus Shyft blockchain), and the \"consented\" channels. Given that users will have benefit to update the blockchain when they are \"active\" and thus set that flag, and the opposite when they may lose their active status, there will be a commonly higher proportion of false positives across active & inactive attestations. Consequently, it is the vendors who have the onus on proving that a customer is inactive.| As Users of Shyft, there is also the option of proving group membership in the Trust Channels, so this Routing function may become the predominant standard.      | This function uses a sliding window 256 bits wide, and narrows down the search to the mutually highest and lowest submap indexes both the sender and receiver have in common.",
        "params": {
          "_receiverIdentifiedAddress": "the receiver's address",
          "_senderIdentifiedAddress": "the sender's address"
        },
        "returns": {
          "result": "     | NoTrustChannel = no trust channel found      | 0->2**32 - 2 = trust channel found at index"
        }
      },
      "getActiveConsentedTrustChannelRoutePossible(address,address,address)": {
        "details": "| The function returns whether the first and second addresses have a Trust Channel route configuration that would allow both of them to send over that.",
        "params": {
          "_firstAddress": "the first address to check for the Trust Channel route comparison.",
          "_secondAddress": "the second address to check for the Trust Channel route comparison.",
          "_trustChannelAddress": "the Trust Channel to perform the route comparison in reference to."
        },
        "returns": {
          "result": "a boolean true/false of whether both the first and second addresses have a specific trust channel route possible"
        }
      },
      "getActiveTrustChannelBitFieldForPair(address,address)": {
        "details": "| The function returns the lowest trust channel index that the sender and receiver have in common. Specifically searches the \"active\" directory (which may not be updated given that repeating tasks per-block is not a feature of the ethereum and thus Shyft blockchain).      | This function uses a sliding window 256 bits wide, and narrows down the search to the mutually highest and lowest submap indexes both the sender and receiver have in common.",
        "params": {
          "_receiverIdentifiedAddress": "the receiver's address",
          "_senderIdentifiedAddress": "the sender's address"
        },
        "returns": {
          "result": "     | NoTrustChannel = no trust channel found      | 0->2**32 - 2 = trust channel found at index"
        }
      },
      "getActiveTrustChannelRoutePossible(address,address,address)": {
        "details": "| The function returns whether the first and second addresses have a Trust Channel route configuration that would allow both of them to send over that.",
        "params": {
          "_firstAddress": "the first address to check for the Trust Channel route comparison.",
          "_secondAddress": "the second address to check for the Trust Channel route comparison.",
          "_trustChannelAddress": "the Trust Channel to perform the route comparison in reference to."
        },
        "returns": {
          "result": "a boolean true/false of whether both the first and second addresses have a specific trust channel route possible"
        }
      },
      "getExternalTrustLevel(uint32,address,address,uint256,uint256,bool,bool)": {
        "details": "| An internal function to generate the relative trust level of the counterparties in relation to all of the Rules set for this Trust Channel. This function checks for a Verification Policy, Amount Limits per transaction, and also enables external checks (defined by the Multisig administrators to the Trust Channel) via an other smart contract address.      | Externally referenced smart contracts have the same input/output types as defined in the \"getExternalTrustLevel\" function.",
        "params": {
          "_amount": "the amount to transmit",
          "_bip32X_type": "the token type that is being transmitted",
          "_receiverIdentifiedAddress": "the receiver's address",
          "_requiredActive": "whether an \"active\" status is required from the channel",
          "_requiredConsentFromAllParties": "whether \"consented\" status is required from all parties",
          "_senderIdentifiedAddress": "the sender's address",
          "_trustChannelIndex": "the Index for the Trust Channel this calculation is referencing"
        },
        "returns": {
          "externalTrustLevel": "the (external) trust level of the counterparties in respect to the trust channel's routing rules",
          "success": "whether the external trust level returns a \"success\" condition"
        }
      },
      "getKycCanSend(address,address,uint256,uint256,bool,bool)": {
        "details": "| An internal function get whether the relative trust level of the counterparties in relation to all of the Rules set for this Trust Channel enables a sending of assets. This function calls getRelativeTrustLevelOnlyClean which will check for external contracts needing to be validated, as specified in the Trust Channel Rules.",
        "params": {
          "_amount": "the amount to transmit",
          "_bip32X_type": "the token type that is being transmitted",
          "_payForDirty": "whether the caller of this contract will pay for the \"clean\" process for one or both of the counterparties",
          "_receiverIdentifiedAddress": "the receiver's address",
          "_requiredConsentFromAllParties": "whether \"consented\" status is required from all parties",
          "_senderIdentifiedAddress": "the sender's address"
        },
        "returns": {
          "result": "| 0 = zero kyc detected or error with kyc level | 1 = not enough kyc to transfer | 2 = not enough balance | 3 = can transfer successfully | 4 = won't pay for dirty cache cleaning"
        }
      },
      "getRelativeTrustLevelOnlyClean(address,address,uint256,uint256,bool,bool)": {
        "details": "| This function gets the relative KYC level on a transactional basis between two counterparties. Included in the checks are the baseline information that is needed to determine counterparty conditions.      | The other method of calling this function include parameters useful in an \"Assured Asset\" profile.",
        "params": {
          "_amount": "the amount to transmit",
          "_bip32X_type": "the token type that is being transmitted",
          "_receiverIdentifiedAddress": "the receiver's address",
          "_requiredActive": "whether an \"active\" status is required from the channel",
          "_requiredConsentFromAllParties": "whether \"consented\" status is required from all parties",
          "_senderIdentifiedAddress": "the sender's address"
        },
        "returns": {
          "externalTrustLevel": "the external trust level of the counterparties",
          "relativeTrustLevel": "the relative trust level of the counterparties"
        }
      },
      "getTrustChannelSubIndexFromBitField(uint256)": {
        "details": "| This function returns the sub-index (the position within a 256-bit window of the total trust channel bitfield) using the most efficient method of finding the leftmost set bit within N bits - the debruijn search algorithm.      | This function uses a sliding window 32 bits wide (the size of the the debruijn algorithm's search filter) over the 256-bit input bitfield. Further improvements to the debruijn library may result in a 64-bit (or even 256-bit) version of this algorithm. Given gas costs, I believe the cost would be reduced further all the way up to a hypothetical 256-bit version.",
        "params": {
          "trustChannelBitField": "the 256-bit bit field that the sub-index is retrieved."
        },
        "returns": {
          "result": "   0->255 = trust channel sub index."
        }
      },
      "proveCacheGraphSegment(address,uint64,bytes32,bytes,bytes,bytes,bytes)": {
        "details": "| This function will enable the Shyft Bridge to be used in the proving of off-chain Trust Channel group membership for individuals, allowing for a cross-blockchain integration of the end user's and trust anchor/trust channel group membership.",
        "params": {
          "_identifiedAddress": "the end users's address",
          "_receiptParentNodes": "the parent nodes in the path that will be used for the proof",
          "_receiptPath": "the path in the merkle tree that will be used for the proof",
          "_receiptsRoot": "the root in the receipts (like off-chain block headers), the header of this merkle tree that will be proven for a specific value & path",
          "_rlpCacheGraphProofReceipt": "the receipt that will be proven off-chain",
          "_rlpCacheGraphProofTx": "the transaction that will be proven off-chain",
          "_segmentIndex": "the segment in the cache graph that will be updated to reference the group membership of the end-user in relation to the Trust Anchor's (on or off-chain) Trust Channel memberships."
        },
        "returns": {
          "result": "the result of the proof."
        }
      },
      "reconstructCacheGraph(address)": {
        "details": "This is a publicly available function that constructs the Cache Graph of the end user. This will call many other internal functions that properly correlate all of the outstanding 'non-dirty' (ie. non updated) attestations, and then create a list of updates and process them sequentially. When this smart contract function call is complete, the associated _identifiedAddress will have been updated with the latest additions/subtractions to the Trust Channel memberships the end user is associated to via attestations.",
        "params": {
          "_identifiedAddress": "The end user's smart contract address that attestations are associated to."
        },
        "returns": {
          "result": "   | 0: no updates needed    | 1: compilation needs to be complete (more calls to this function are needed to complete the procedure due to gas cost requirements)    | 2: recompiled hash graph"
        }
      },
      "setExternalTrustChannelProverAddress(address)": {
        "details": "Links External Trust Channel Prover to this contract's function flow.",
        "params": {
          "_externalTrustChannelProverAddress": "The smart contract address for the External Trust Channel Prover that should be linked."
        },
        "returns": {
          "result": "   | 0: not owner    | 1: set external trust channel prover address"
        }
      },
      "setTrustAnchorStorageAddress(address)": {
        "details": "Links Trust Anchor Storage to this contract's function flow.",
        "params": {
          "_trustAnchorStorageAddress": "The smart contract address for the Trust Anchor Storage that should be linked."
        },
        "returns": {
          "result": "   | 0: not owner    | 1: set trustAnchorStorage"
        }
      },
      "setTrustChannelManagerAddress(address)": {
        "details": "Links Trust Channel Manager to this contract's function flow.",
        "params": {
          "_trustChannelManagerAddress": "The smart contract address for the Trust Channel Manager that should be linked."
        },
        "returns": {
          "result": "   | 0: not owner    | 1: set trustChannelManagerAddress"
        }
      }
    },
    "stateVariables": {
      "NO_LINK": {
        "details": "simple constant for \"no link\" to cut down on runtime gas costs."
      },
      "externalTrustChannelProverAddress": {
        "details": "The External Trust Channel Prover address that this contract is bound to."
      },
      "identifiedAddress_to_kycIdentity": {
        "details": "Mapping for identified address to a specific kyc identity."
      },
      "maxAttestationProcessingLimit": {
        "details": "Maximum number of attestation processing per cycle - this comes into play when performing the cachegraph reconstruction phases."
      },
      "maxNumberOfTrustChannelSubmapCompares": {
        "details": "| Maximum number of trust channel submap compares     | This is the highest trust channel index (in this case a submap of such, each submap representing 256 trust channels) that can be mapped, based on the lowest submap returned from the trust channel manager."
      },
      "owner": {
        "details": "Address for the owner of this contract."
      },
      "trustAnchorStorageAddress": {
        "details": "The Trust Channel Storage address that this contract is bound to."
      },
      "trustChannelManagerAddress": {
        "details": "The Trust Channel Manager address that this contract is bound to."
      }
    },
    "version": 1
  },
  "userdoc": {
    "kind": "user",
    "methods": {},
    "version": 1
  }
}