{
  "contractName": "ShyftKycContractTester",
  "abi": [
    {
      "inputs": [],
      "name": "contractAddr",
      "outputs": [
        {
          "internalType": "address",
          "name": "",
          "type": "address"
        }
      ],
      "stateMutability": "view",
      "type": "function"
    },
    {
      "inputs": [],
      "name": "shyftKycContract",
      "outputs": [
        {
          "internalType": "contract ShyftKycContract",
          "name": "",
          "type": "address"
        }
      ],
      "stateMutability": "view",
      "type": "function"
    },
    {
      "stateMutability": "payable",
      "type": "receive"
    },
    {
      "inputs": [
        {
          "internalType": "address payable",
          "name": "_addr",
          "type": "address"
        }
      ],
      "name": "init",
      "outputs": [
        {
          "internalType": "address",
          "name": "",
          "type": "address"
        }
      ],
      "stateMutability": "nonpayable",
      "type": "function"
    },
    {
      "inputs": [
        {
          "internalType": "uint256",
          "name": "_val",
          "type": "uint256"
        }
      ],
      "name": "callWithdrawNative",
      "outputs": [
        {
          "internalType": "bool",
          "name": "success",
          "type": "bool"
        }
      ],
      "stateMutability": "nonpayable",
      "type": "function"
    }
  ],
  "bytecode": "0x608060405234801561001057600080fd5b506103f5806100206000396000f3fe6080604052600436106100435760003560e01c806315a5d9d81461018d57806319ab453c146101be578063401b0763146101f15780639aea33b61461020657610184565b3661018457604080517f77697468647261774e617469766528616464726573732c75696e7432353629006020808301919091528251808303601f018152603f83018452805190820120600154306063850152346083808601919091528551808603909101815260a3909401855291830180516001600160e01b03166001600160e01b031983161781529351835191946000946001600160a01b0390941693928291908083835b602083106101085780518252601f1990920191602091820191016100e9565b6001836020036101000a0380198251168184511680821785525050505050509050019150506000604051808303816000865af19150503d806000811461016a576040519150601f19603f3d011682016040523d82523d6000602084013e61016f565b606091505b50909150506001811515141561018457610189565b600080fd5b5050005b34801561019957600080fd5b506101a2610244565b604080516001600160a01b039092168252519081900360200190f35b3480156101ca57600080fd5b506101a2600480360360208110156101e157600080fd5b50356001600160a01b0316610253565b3480156101fd57600080fd5b506101a2610282565b34801561021257600080fd5b506102306004803603602081101561022957600080fd5b5035610291565b604080519115158252519081900360200190f35b6001546001600160a01b031681565b600080546001600160a01b039283166001600160a01b0319918216811792839055600180549092161790551690565b6000546001600160a01b031681565b604080517f77697468647261774e617469766528616464726573732c75696e7432353629006020808301919091528251808303601f018152603f8301845280519082012060015430606385015260838085018790528551808603909101815260a3909401855291830180516001600160e01b03166001600160e01b031983161781529351835160009592946001600160a01b03909416939282918083835b6020831061034e5780518252601f19909201916020918201910161032f565b6001836020036101000a0380198251168184511680821785525050505050509050019150506000604051808303816000865af19150503d80600081146103b0576040519150601f19603f3d011682016040523d82523d6000602084013e6103b5565b606091505b509094935050505056fea2646970667358221220635055d829cb4f09065c15a3445db8cddfef909b98f1d870d1259d594419a2f964736f6c63430007010033",
  "immutableReferences": {},
  "source": "pragma solidity ^0.7.1;\n//SPDX-License-Identifier: UNLICENSED\n\nimport \"./ShyftKycContract.sol\";\n\ncontract ShyftKycContractTester {\n\tShyftKycContract public shyftKycContract;\n\taddress public contractAddr;\n\n    function init(address payable _addr) public returns (address) {\n        shyftKycContract = ShyftKycContract(_addr);\n        contractAddr = _addr;\n        return address(shyftKycContract);\n    }\n\n    function callWithdrawNative(uint _val) public returns (bool success) {\n    \tbytes4 sig = bytes4(keccak256(abi.encodePacked(\"withdrawNative(address,uint256)\")));\n        (success, ) = contractAddr.call(abi.encodeWithSelector(sig, address(this), _val));\n    }\n\n    // test for recursion\n    receive() external payable {\n    \tbytes4 sig = bytes4(keccak256(abi.encodePacked(\"withdrawNative(address,uint256)\")));\n        (bool success, ) = contractAddr.call(abi.encodeWithSelector(sig, address(this), msg.value));\n        if (success == true) {\n\n        } else {\n            revert();\n        }\n    }\n\n}",
  "sourcePath": "/home/ubuntu/shyft_shyftcorecontracts/contracts/ShyftKycContractTester.sol",
  "compiler": {
    "name": "solc",
    "version": "0.7.1+commit.f4a555be.Emscripten.clang"
  },
  "schemaVersion": "3.4.1",
  "updatedAt": "2022-02-24T18:26:37.568Z",
  "devdoc": {
    "kind": "dev",
    "methods": {},
    "version": 1
  },
  "userdoc": {
    "kind": "user",
    "methods": {},
    "version": 1
  }
}