{
  "contractName": "ShyftKycContractRegistry",
  "abi": [
    {
      "inputs": [],
      "stateMutability": "nonpayable",
      "type": "constructor"
    },
    {
      "anonymous": false,
      "inputs": [
        {
          "indexed": false,
          "internalType": "address",
          "name": "_admin",
          "type": "address"
        }
      ],
      "name": "EVT_AdminPromoted",
      "type": "event"
    },
    {
      "anonymous": false,
      "inputs": [
        {
          "indexed": false,
          "internalType": "address",
          "name": "_admin",
          "type": "address"
        }
      ],
      "name": "EVT_AdminRevoked",
      "type": "event"
    },
    {
      "anonymous": false,
      "inputs": [
        {
          "indexed": false,
          "internalType": "address",
          "name": "_admin",
          "type": "address"
        }
      ],
      "name": "EVT_PrimaryAdminAdded",
      "type": "event"
    },
    {
      "inputs": [
        {
          "internalType": "uint32",
          "name": "_proposalIndex",
          "type": "uint32"
        }
      ],
      "name": "changeCurrentAdminConfirmationThreshold",
      "outputs": [
        {
          "internalType": "uint8",
          "name": "result",
          "type": "uint8"
        }
      ],
      "stateMutability": "nonpayable",
      "type": "function"
    },
    {
      "inputs": [
        {
          "internalType": "uint256",
          "name": "",
          "type": "uint256"
        }
      ],
      "name": "contracts",
      "outputs": [
        {
          "internalType": "address",
          "name": "",
          "type": "address"
        }
      ],
      "stateMutability": "view",
      "type": "function"
    },
    {
      "inputs": [],
      "name": "currentContractVersion",
      "outputs": [
        {
          "internalType": "uint256",
          "name": "",
          "type": "uint256"
        }
      ],
      "stateMutability": "view",
      "type": "function"
    },
    {
      "inputs": [
        {
          "internalType": "address",
          "name": "_administratorAddress",
          "type": "address"
        }
      ],
      "name": "getAdminAccess",
      "outputs": [
        {
          "internalType": "enum Administrable.AdministratorAccess",
          "name": "result",
          "type": "uint8"
        }
      ],
      "stateMutability": "view",
      "type": "function"
    },
    {
      "inputs": [
        {
          "internalType": "uint32",
          "name": "_proposalIndex",
          "type": "uint32"
        }
      ],
      "name": "getAdminConfirmationProposal",
      "outputs": [
        {
          "internalType": "uint256",
          "name": "adminThreshold",
          "type": "uint256"
        },
        {
          "internalType": "uint256",
          "name": "endTime",
          "type": "uint256"
        },
        {
          "internalType": "bool",
          "name": "isCompleted",
          "type": "bool"
        }
      ],
      "stateMutability": "view",
      "type": "function"
    },
    {
      "inputs": [],
      "name": "getAdminConfirmationThreshold",
      "outputs": [
        {
          "internalType": "uint256",
          "name": "results",
          "type": "uint256"
        }
      ],
      "stateMutability": "view",
      "type": "function"
    },
    {
      "inputs": [],
      "name": "getNumAdminConfirmationProposals",
      "outputs": [
        {
          "internalType": "uint256",
          "name": "result",
          "type": "uint256"
        }
      ],
      "stateMutability": "view",
      "type": "function"
    },
    {
      "inputs": [
        {
          "internalType": "bytes32",
          "name": "_keyKeccak",
          "type": "bytes32"
        }
      ],
      "name": "getPermissionsForMultisignKey",
      "outputs": [
        {
          "internalType": "uint256",
          "name": "result",
          "type": "uint256"
        }
      ],
      "stateMutability": "view",
      "type": "function"
    },
    {
      "inputs": [
        {
          "internalType": "address",
          "name": "_administratorAddress",
          "type": "address"
        }
      ],
      "name": "isAdministrator",
      "outputs": [
        {
          "internalType": "bool",
          "name": "result",
          "type": "bool"
        }
      ],
      "stateMutability": "view",
      "type": "function"
    },
    {
      "inputs": [
        {
          "internalType": "uint256",
          "name": "_confirmationNumber",
          "type": "uint256"
        }
      ],
      "name": "isConfirmationsIsOverThreshold",
      "outputs": [
        {
          "internalType": "bool",
          "name": "result",
          "type": "bool"
        }
      ],
      "stateMutability": "view",
      "type": "function"
    },
    {
      "inputs": [],
      "name": "numAdministrators",
      "outputs": [
        {
          "internalType": "uint256",
          "name": "",
          "type": "uint256"
        }
      ],
      "stateMutability": "view",
      "type": "function"
    },
    {
      "inputs": [],
      "name": "owner",
      "outputs": [
        {
          "internalType": "address",
          "name": "",
          "type": "address"
        }
      ],
      "stateMutability": "view",
      "type": "function"
    },
    {
      "inputs": [
        {
          "internalType": "address",
          "name": "_newAdministratorAddress",
          "type": "address"
        }
      ],
      "name": "promoteAdministrator",
      "outputs": [
        {
          "internalType": "uint8",
          "name": "result",
          "type": "uint8"
        }
      ],
      "stateMutability": "nonpayable",
      "type": "function"
    },
    {
      "inputs": [
        {
          "internalType": "uint256",
          "name": "_newThreshold",
          "type": "uint256"
        }
      ],
      "name": "proposeChangeCurrentAdminConfirmationThreshold",
      "outputs": [
        {
          "internalType": "uint8",
          "name": "result",
          "type": "uint8"
        }
      ],
      "stateMutability": "nonpayable",
      "type": "function"
    },
    {
      "inputs": [
        {
          "internalType": "address",
          "name": "_revokeAdministratorAddress",
          "type": "address"
        }
      ],
      "name": "revokeAdministrator",
      "outputs": [
        {
          "internalType": "uint8",
          "name": "result",
          "type": "uint8"
        }
      ],
      "stateMutability": "nonpayable",
      "type": "function"
    },
    {
      "inputs": [
        {
          "internalType": "address",
          "name": "_newAdministratorAddress",
          "type": "address"
        }
      ],
      "name": "setPrimaryAdministrator",
      "outputs": [
        {
          "internalType": "uint8",
          "name": "result",
          "type": "uint8"
        }
      ],
      "stateMutability": "nonpayable",
      "type": "function"
    },
    {
      "inputs": [
        {
          "internalType": "address",
          "name": "_initialKycContractAddress",
          "type": "address"
        }
      ],
      "name": "setShyftKycContractAddressInitial",
      "outputs": [
        {
          "internalType": "uint8",
          "name": "result",
          "type": "uint8"
        }
      ],
      "stateMutability": "nonpayable",
      "type": "function"
    },
    {
      "inputs": [
        {
          "internalType": "address",
          "name": "_newKycContractAddress",
          "type": "address"
        }
      ],
      "name": "upgradeShyftKycContract",
      "outputs": [
        {
          "internalType": "uint8",
          "name": "result",
          "type": "uint8"
        }
      ],
      "stateMutability": "nonpayable",
      "type": "function"
    },
    {
      "inputs": [
        {
          "internalType": "address",
          "name": "_addr",
          "type": "address"
        }
      ],
      "name": "isShyftKycContract",
      "outputs": [
        {
          "internalType": "bool",
          "name": "result",
          "type": "bool"
        }
      ],
      "stateMutability": "view",
      "type": "function"
    },
    {
      "inputs": [],
      "name": "getCurrentContractAddress",
      "outputs": [
        {
          "internalType": "address",
          "name": "",
          "type": "address"
        }
      ],
      "stateMutability": "view",
      "type": "function"
    },
    {
      "inputs": [
        {
          "internalType": "uint256",
          "name": "_version",
          "type": "uint256"
        }
      ],
      "name": "getContractAddressOfVersion",
      "outputs": [
        {
          "internalType": "address",
          "name": "",
          "type": "address"
        }
      ],
      "stateMutability": "view",
      "type": "function"
    },
    {
      "inputs": [
        {
          "internalType": "address",
          "name": "_address",
          "type": "address"
        }
      ],
      "name": "getContractVersionOfAddress",
      "outputs": [
        {
          "internalType": "uint256",
          "name": "result",
          "type": "uint256"
        }
      ],
      "stateMutability": "view",
      "type": "function"
    },
    {
      "inputs": [],
      "name": "getNumContracts",
      "outputs": [
        {
          "internalType": "uint256",
          "name": "",
          "type": "uint256"
        }
      ],
      "stateMutability": "view",
      "type": "function"
    },
    {
      "inputs": [
        {
          "internalType": "address",
          "name": "_addr",
          "type": "address"
        },
        {
          "internalType": "uint256",
          "name": "_bip32X_type",
          "type": "uint256"
        }
      ],
      "name": "getAllTokenLocations",
      "outputs": [
        {
          "internalType": "bool[]",
          "name": "resultLocations",
          "type": "bool[]"
        },
        {
          "internalType": "uint256",
          "name": "resultNumFound",
          "type": "uint256"
        }
      ],
      "stateMutability": "view",
      "type": "function"
    },
    {
      "inputs": [
        {
          "internalType": "address",
          "name": "_addr",
          "type": "address"
        },
        {
          "internalType": "uint256",
          "name": "_bip32X_type",
          "type": "uint256"
        }
      ],
      "name": "getAllTokenLocationsAndBalances",
      "outputs": [
        {
          "internalType": "bool[]",
          "name": "resultLocations",
          "type": "bool[]"
        },
        {
          "internalType": "uint256[]",
          "name": "resultBalances",
          "type": "uint256[]"
        },
        {
          "internalType": "uint256",
          "name": "resultNumFound",
          "type": "uint256"
        },
        {
          "internalType": "uint256",
          "name": "resultTotalBalance",
          "type": "uint256"
        }
      ],
      "stateMutability": "view",
      "type": "function"
    }
  ],
  "bytecode": "0x6080604052600260005534801561001557600080fd5b5060018054336001600160a01b031991821681179091161790556119478061003e6000396000f3fe608060405234801561001057600080fd5b50600436106101725760003560e01c8063963beef5116100de578063d7536f8111610097578063f01f688811610071578063f01f6888146104b1578063f1041a6a14610584578063f3e512d3146105aa578063f7e7c490146105b257610172565b8063d7536f8114610445578063d9af51e31461044d578063e99770961461049457610172565b8063963beef514610348578063a75d7a341461036e578063b9568dd81461038b578063c6fd1020146103ae578063cfe10b30146103b6578063d3a56775146103be57610172565b80634402bba3116101305780634402bba314610296578063474da79a146102bc578063487e9b70146102f557806349d222501461031b5780637a303a9c146103385780638da5cb5b1461034057610172565b8062913af614610177578063064ad7c2146101ba5780630a2eb301146101f657806323dfe730146102305780633370426d146102565780633a7accd014610270575b600080fd5b61019a6004803603602081101561018d57600080fd5b503563ffffffff166105cf565b604080519384526020840192909252151582820152519081900360600190f35b6101e0600480360360208110156101d057600080fd5b50356001600160a01b0316610656565b6040805160ff9092168252519081900360200190f35b61021c6004803603602081101561020c57600080fd5b50356001600160a01b03166106fa565b604080519115158252519081900360200190f35b6101e06004803603602081101561024657600080fd5b50356001600160a01b0316610735565b61025e610998565b60408051918252519081900360200190f35b6101e06004803603602081101561028657600080fd5b50356001600160a01b031661099e565b6101e0600480360360208110156102ac57600080fd5b50356001600160a01b0316610a80565b6102d9600480360360208110156102d257600080fd5b5035610c54565b604080516001600160a01b039092168252519081900360200190f35b61021c6004803603602081101561030b57600080fd5b50356001600160a01b0316610c7b565b6101e06004803603602081101561033157600080fd5b5035610c99565b61025e610d7b565b6102d9610d81565b61025e6004803603602081101561035e57600080fd5b50356001600160a01b0316610d90565b6102d96004803603602081101561038457600080fd5b5035610dda565b6101e0600480360360208110156103a157600080fd5b503563ffffffff16610e10565b6102d9610fd7565b61025e611002565b6103ea600480360360408110156103d457600080fd5b506001600160a01b038135169060200135611008565b6040518080602001838152602001828103825284818151815260200191508051906020019060200280838360005b83811015610430578181015183820152602001610418565b50505050905001935050505060405180910390f35b61025e61113e565b6104736004803603602081101561046357600080fd5b50356001600160a01b0316611144565b6040518082600281111561048357fe5b815260200191505060405180910390f35b61021c600480360360208110156104aa57600080fd5b5035611162565b6104dd600480360360408110156104c757600080fd5b506001600160a01b038135169060200135611174565b604051808060200180602001858152602001848152602001838103835287818151815260200191508051906020019060200280838360005b8381101561052d578181015183820152602001610515565b50505050905001838103825286818151815260200191508051906020019060200280838360005b8381101561056c578181015183820152602001610554565b50505050905001965050505050505060405180910390f35b6101e06004803603602081101561059a57600080fd5b50356001600160a01b0316611336565b61025e6113d9565b61025e600480360360208110156105c857600080fd5b50356113df565b600080600060068463ffffffff16815481106105e757fe5b90600052602060002090600302016000015460068563ffffffff168154811061060c57fe5b90600052602060002090600302016001015460068663ffffffff168154811061063157fe5b6000918252602090912060026003909202010154919450925060ff1690509193909250565b6001546000906001600160a01b03163314156106f1576003546106e9576001600160a01b038216600090815260026020526040902080546001919060ff191682800217905550600380546001019055604080516001600160a01b038416815290517f1767f5d6fdb0884c185778bf3ba4d303dc6af28da0798c96577f7c5450631d8b9181900360200190a15060026106f5565b5060016106f5565b5060005b919050565b600060016001600160a01b03831660009081526002602081905260409091205460ff169081111561072757fe5b14156106f1575060016106f5565b6000610740336106fa565b156106f15760016001600160a01b03831660009081526002602081905260409091205460ff169081111561077057fe5b146106e9576002600354106108e5576040805173383937b6b7ba32a0b236b4b734b9ba3930ba37b960611b6020808301919091526001600160601b0319606086901b166034830152825160288184030181526048909201909252805191012060006107da826113df565b90506000805482106107ee5750600161080b565b60006107f984611404565b9050600054811061080957600191505b505b600181151514156108d9576001600160a01b0385166000908152600260205260409020805460ff1916600190811790915560038054909101905561084e8361150e565b50610891426040516020018080671c1c9bdb5bdd195960c21b8152506008018281526020019150506040516020818303038152906040528051906020012061160d565b604080516001600160a01b038716815290517f7f477eb04f5a964ab231fdc42872d9356c3010171ed2c961d9166f49239786979181900360200190a1600293505050506106f5565b600393505050506106f5565b6001600160a01b038216600090815260026020908152604091829020805460ff191660019081179091556003805490910190558151671c1c9bdb5bdd195960c21b818301524260288083019190915283518083039091018152604890910190925281519101206109549061160d565b604080516001600160a01b038416815290517f7f477eb04f5a964ab231fdc42872d9356c3010171ed2c961d9166f49239786979181900360200190a15060026106f5565b60065490565b60006109a9336106fa565b156106f15760408051631a5b9a5d60e21b6020808301919091526001600160601b0319606086901b166024830152825160188184030181526038909201909252805191012060006109f9826113df565b9050600080548210610a0d57506001610a2a565b6000610a1884611404565b90506000548110610a2857600191505b505b60018115151415610a7457610a3e85611647565b151560011415610a5e57610a518361150e565b50600393505050506106f5565b610a678361150e565b50600293505050506106f5565b600193505050506106f5565b6000610a8b336106fa565b156106f15760016001600160a01b03831660009081526002602081905260409091205460ff1690811115610abb57fe5b14156106e957604080517f61646d696e697374726174696f6e5265766f636174696f6e566f7465000000006020808301919091526001600160601b0319606086901b16603c83015282516030818403018152605090920190925280519101206000610b25826113df565b9050600080548210610b3957506001610b56565b6000610b4484611404565b90506000548110610b5457600191505b505b60018115151415610c48576001600160a01b038516600090815260026020818152604092839020805460ff1916909217909155600380546000190190558151661c995d9bdad95960ca1b81830152426027808301919091528351808303909101815260479091019092528151910120610bce9061160d565b6000546003541015610bf65760026003541115610bf057600354600055610bf6565b60026000555b610bff8361150e565b50604080516001600160a01b038716815290517f79830203ee788345fbc4b7afa193ed483738eaecd94975fa1fa50c09c9a5be1f9181900360200190a1600393505050506106f5565b600293505050506106f5565b60078181548110610c6157fe5b6000918252602090912001546001600160a01b0316905081565b6001600160a01b031660009081526009602052604090205460ff1690565b6000610ca4336106fa565b156106f157600082118015610cbb57506003548211155b156106e957610cc861186b565b828152426202a30001602082019081526006805460018101825560009190915282517ff652222313e28459528d920b65115c16c04f3efc82aaedc97be59f3f377c0d3f60039092029182015590517ff652222313e28459528d920b65115c16c04f3efc82aaedc97be59f3f377c0d408201556040909101517ff652222313e28459528d920b65115c16c04f3efc82aaedc97be59f3f377c0d41909101805460ff19169115159190911790555060026106f5565b60005490565b6001546001600160a01b031681565b6001600160a01b03811660009081526008602052604081205415610dd157506001600160a01b038116600090815260086020526040902054600019016106f5565b506000196106f5565b6007546000908210156106f15760078281548110610df457fe5b6000918252602090912001546001600160a01b031690506106f5565b6000610e1b336106fa565b156106f15760065463ffffffff831610156106e95760035460068363ffffffff1681548110610e4657fe5b90600052602060002090600302016000015411610fcf5760068263ffffffff1681548110610e7057fe5b600091825260209091206002600390920201015460ff16158015610eb8575060068263ffffffff1681548110610ea257fe5b9060005260206000209060030201600101544211155b15610fc75760008260405160200180806118c9602291396022018263ffffffff1660e01b81526004019150506040516020818303038152906040528051906020012090506000610f07826113df565b9050600080548210610f1b57506001610f38565b6000610f2684611404565b90506000548110610f3657600191505b505b60018115151415610fbb5760068563ffffffff1681548110610f5657fe5b906000526020600020906003020160000154600081905550600160068663ffffffff1681548110610f8357fe5b60009182526020909120600390910201600201805460ff1916911515919091179055610fae8361150e565b50600593505050506106f5565b600493505050506106f5565b5060036106f5565b5060026106f5565b60006007600a5481548110610fe857fe5b6000918252602090912001546001600160a01b0316905090565b60075490565b60606000606060078054905067ffffffffffffffff8111801561102a57600080fd5b50604051908082528060200260200182016040528015611054578160200160208202803683370190505b5090506000805b6007548110156111325760006007828154811061107457fe5b600091825260208083209091015460408051635e5e539b60e11b81526001600160a01b038d81166004830152602482018d90529151919092169450849263bcbca7369260448082019391829003018186803b1580156110d257600080fd5b505afa1580156110e6573d6000803e3d6000fd5b505050506040513d60208110156110fc57600080fd5b5051111561112957600184838151811061111257fe5b911515602092830291909101909101526001909201915b5060010161105b565b50909590945092505050565b600a5481565b6001600160a01b031660009081526002602052604090205460ff1690565b6000805482106106f1575060016106f5565b606080600080606060078054905067ffffffffffffffff8111801561119857600080fd5b506040519080825280602002602001820160405280156111c2578160200160208202803683370190505b5060075490915060609067ffffffffffffffff811180156111e257600080fd5b5060405190808252806020026020018201604052801561120c578160200160208202803683370190505b50905060008060008060005b600754811015611323576007818154811061122f57fe5b9060005260206000200160009054906101000a90046001600160a01b03169150816001600160a01b031663bcbca7368e8e6040518363ffffffff1660e01b815260040180836001600160a01b031681526020018281526020019250505060206040518083038186803b1580156112a457600080fd5b505afa1580156112b8573d6000803e3d6000fd5b505050506040513d60208110156112ce57600080fd5b50519450841561131b5760018782815181106112e657fe5b6020026020010190151590811515815250508486828151811061130557fe5b6020908102919091010152928401926001909201915b600101611218565b50949b939a509850965090945050505050565b6000611341336106fa565b156106f15760408051667570677261646560c81b6020808301919091526001600160601b0319606086901b1660278301528251601b818403018152603b90920190925280519101206000611394826113df565b90506000805482106113a8575060016113c5565b60006113b384611404565b905060005481106113c357600191505b505b60018115151415610a7457610a3e856116c6565b60035481565b6000806113eb8361183c565b6000908152600460205260409020600201549392505050565b600061140f336106fa565b156106f157600061141f8361183c565b60035460008281526004602052604090206002015491925011801561149a5750600081815260046020908152604080832033845290915281205460ff16600381111561146757fe5b148061149a57506003600082815260046020908152604080832033845290915290205460ff16600381111561149857fe5b145b156114f5576000818152600460208181526040808420600281018054600190810190915533808752828552928620805460ff191682179055938352830180549384018155845292200180546001600160a01b03191690911790555b60009081526004602052604090206002015490506106f5565b6000611519336106fa565b156106f15760006115298361183c565b600081815260046020526040902060020154909150156116035760005b6000828152600460205260409020600101548110156115c757600082815260046020526040812060018101805460039391908590811061158257fe5b60009182526020808320909101546001600160a01b031683528201929092526040019020805460ff191660018360038111156115ba57fe5b0217905550600101611546565b5060008181526004602052604081206115e59160019091019061188e565b600090815260046020526040812060029081019190915590506106f5565b60019150506106f5565b6005548160405160200180838152602001828152602001925050506040516020818303038152906040528051906020012060058190555050565b6007546000906106f157506007805460018082019092557fa66cc928b5edb82af9bd49922954155ab7b0942694bea4ce44661d9a8736c6880180546001600160a01b0319166001600160a01b038416908117909155600090815260086020908152604080832084905560099091529020805460ff1916821790556106f5565b60006001600160a01b03821661170d5760405162461bcd60e51b81526004018080602001828103825260278152602001806118eb6027913960400191505060405180910390fd5b600754156106f15760078054600180820183557fa66cc928b5edb82af9bd49922954155ab7b0942694bea4ce44661d9a8736c68890910180546001600160a01b0319166001600160a01b038616908117909155600a80546000928352600860209081526040808520928601909255600990528220805460ff1916841790558054928301905582549092919081106117a057fe5b600091825260208083209091015460408051631c7b62f760e31b81526001600160a01b0388811660048301529151919092169450849263e3db17b8926024808201939182900301818787803b1580156117f857600080fd5b505af115801561180c573d6000803e3d6000fd5b505050506040513d602081101561182257600080fd5b5051905060018115151415610172576001925050506106f5565b600554604080516020808201939093528082019390935280518084038201815260609093019052815191012090565b604051806060016040528060008152602001600081526020016000151581525090565b50805460008255906000526020600020908101906118ac91906118af565b50565b5b808211156118c457600081556001016118b0565b509056fe61646d696e436f6e6669726d6174696f6e5468726573686f6c6450726f706f73616c6e6577204b796320436f6e747261637420616464726573732063616e6e6f74206265207a65726fa2646970667358221220a370886a9d0046c2188862caac62fa4f11e6870af3b826d702561b9d3c4ceca964736f6c63430007010033",
  "immutableReferences": {},
  "source": "pragma solidity ^0.7.1;\n//SPDX-License-Identifier: UNLICENSED\n\nimport \"./Interfaces/IShyftKycContractRegistry.sol\";\nimport \"./Interfaces/IShyftKycContract.sol\";\nimport \"./Administrable.sol\";\n\n\n// This contract acts as a registry between past and current versions of the ShyftKycContract\n//\n// Also, it has convenience functions for user balances & the versions of the blockchain they're\n// using. All of the upgrade functions are hosted within ShyftKycContract.sol so tx.origin issues\n// don't crop up.\n\ncontract ShyftKycContractRegistry is IShyftKycContractRegistry, Administrable {\n    uint256 constant InvalidVersion = 2**256 -1;\n\n    address[] public contracts;\n    mapping(address => uint256) versions;\n    mapping(address => bool) kycContractMapping;\n\n    uint256 public currentContractVersion;\n\n    constructor() {\n        owner = msg.sender;\n    }\n\n    //@note: this will need to be called when the ShyftKycContract is deployed for the first time\n\n    //returns:\n    // 0 = not an administrator\n    // 1 = not enough administrators have permissioned change\n    // 2 = could not init\n    // 3 = init completed\n\n    function setShyftKycContractAddressInitial(address _initialKycContractAddress) public returns (uint8 result) {\n        if (isAdministrator(msg.sender)) {\n            bytes32 keyKeccak = keccak256(abi.encodePacked(\"init\", _initialKycContractAddress));\n\n            uint256 numPermissions = getPermissionsForMultisignKey(keyKeccak);\n\n            bool permittedToModify;\n\n            if (numPermissions >= adminConfirmationThreshold) {\n                permittedToModify = true;\n            } else {\n                uint256 numConfirmedPermissions = adminApplyAndGetPermissionsForMultisignKey(keyKeccak);\n\n                if (numConfirmedPermissions >= adminConfirmationThreshold) {\n                    permittedToModify = true;\n                }\n            }\n\n            if (permittedToModify == true) {\n                if (doInit(_initialKycContractAddress) == true) {\n                    adminResetPermissionsForMultisignKey(keyKeccak);\n\n                    //init completed\n                    return 3;\n                } else {\n\n                    adminResetPermissionsForMultisignKey(keyKeccak);\n                    //could not init\n                    return 2;\n                }\n            } else {\n                //not enough administrators have permissioned change\n                return 1;\n            }\n        } else {\n            //not an administrator\n            return 0;\n        }\n    }\n\n    //returns:\n    // false = already initialized\n    // true = initialized contract\n    function doInit(address _initialKycContractAddress) internal returns (bool result)  {\n        if (contracts.length == 0){\n            contracts.push(_initialKycContractAddress); // set original contract w/ version 0\n            versions[_initialKycContractAddress] = 1;\n            kycContractMapping[_initialKycContractAddress] = true;\n\n            //initialized contract\n            return true;\n        } else {\n            //already initialized\n            return false;\n        }\n    }\n\n    //returns:\n    // 0 = not an administrator\n    // 1 = not enough administrators have permissioned change\n    // 2 = upgrade not completed\n    // 3 = upgrade completed properly\n\n    function upgradeShyftKycContract(address _newKycContractAddress) public returns (uint8 result) {\n        if (isAdministrator(msg.sender)) {\n            bytes32 keyKeccak = keccak256(abi.encodePacked(\"upgrade\", _newKycContractAddress));\n\n            uint256 numPermissions = getPermissionsForMultisignKey(keyKeccak);\n\n            bool permittedToModify;\n\n            if (numPermissions >= adminConfirmationThreshold) {\n                permittedToModify = true;\n            } else {\n                uint256 numConfirmedPermissions = adminApplyAndGetPermissionsForMultisignKey(keyKeccak);\n\n                if (numConfirmedPermissions >= adminConfirmationThreshold) {\n                    permittedToModify = true;\n                }\n            }\n\n            if (permittedToModify == true) {\n                if (doUpgrade(_newKycContractAddress) == true) {\n                    adminResetPermissionsForMultisignKey(keyKeccak);\n\n                    //upgrade completed properly\n                    return 3;\n                } else {\n                    adminResetPermissionsForMultisignKey(keyKeccak);\n\n                    //upgrade not completed\n                    return 2;\n                }\n            } else {\n                //not enough administrators have permissioned change\n                return 1;\n            }\n        } else {\n            //not an administrator\n            return 0;\n        }\n    }\n\n    //returns\n    // true = upgrade set up properly\n    // false = @note: revert()s because of changes from calls :: upgrade did not succeed\n    \n    //@note: this will need to be called after an updated contract is deployed\n    function doUpgrade(address _newKycContractAddress) internal returns (bool) {\n        require(_newKycContractAddress != address(0), \"new Kyc Contract address cannot be zero\");\n\n        if (contracts.length > 0) {\n            contracts.push(_newKycContractAddress);\n            versions[_newKycContractAddress] = currentContractVersion + 1;\n            kycContractMapping[_newKycContractAddress] = true;\n\n            currentContractVersion++;\n\n            IShyftKycContract existingKycContract = IShyftKycContract(contracts[currentContractVersion-1]);\n            bool didUpdate = existingKycContract.updateContract(_newKycContractAddress);\n\n            if (didUpdate == true) {\n                return true;\n            } else {\n                //@note: revert because of changed state downstream\n                revert();\n                //return false;\n            }\n        } else {\n            //init has not been called\n            return false;\n        }\n    }\n\n    function isShyftKycContract(address _addr) public view override returns (bool result) {\n        return kycContractMapping[_addr];\n    }\n\n    function getCurrentContractAddress() public view override returns (address) {\n        return contracts[currentContractVersion];\n    }\n\n    function getContractAddressOfVersion(uint _version) public view override returns (address) {\n        if (_version < contracts.length) {\n            return contracts[_version];\n        } else {\n            return address(0);\n        }\n    }\n\n    function getContractVersionOfAddress(address _address) public view override returns (uint256 result) {\n        if (versions[_address] > 0) {\n            return versions[_address] - 1;\n        } else {\n            //make sure that the address exists in the mapping, otherwise return max uint256\n            return InvalidVersion;\n        }\n    }\n\n    function getNumContracts() public view returns (uint256) {\n        return contracts.length;\n    }\n\n    //@note: this function could potentially cost a lot of gas if you ran it outside of the .call external\n    // architecture.\n    //\n    // the return is a full sized array that can be reduced easily in JS etc, or iterated through\n\n    function getAllTokenLocations(address _addr, uint256 _bip32X_type) public view override returns (bool[] memory resultLocations, uint256 resultNumFound) {\n        bool[] memory allLocations = new bool[](contracts.length);\n\n        uint256 numFound;\n\n        for (uint256 i = 0; i < contracts.length; i++) {\n            IShyftKycContract kycContract = IShyftKycContract(contracts[i]);\n\n            if (kycContract.getBalanceBip32X(_addr, _bip32X_type) > 0) {\n                //add to array\n                allLocations[i] = true;\n\n                //increment number found\n                numFound++;\n            }\n        }\n\n        return (allLocations, numFound);\n    }\n\n    //@note: this function could potentially cost a lot of gas if you ran it outside of the .call external\n    // architecture.\n    //\n    // the return is a full sized array that can be reduced easily in JS etc, or iterated through\n\n    function getAllTokenLocationsAndBalances(address _addr, uint256 _bip32X_type) public view override returns (bool[] memory resultLocations, uint256[] memory resultBalances, uint256 resultNumFound, uint256 resultTotalBalance) {\n        bool[] memory allLocations = new bool[](contracts.length);\n        uint256[] memory totalSupplyBip32X = new uint256[](contracts.length);\n        uint256 kycContractUserBalance;\n        uint256 totalKycContractUserBalance;\n\n        uint256 numFound;\n\n        IShyftKycContract kycContract;\n\n        for (uint256 i = 0; i < contracts.length; i++) {\n            kycContract = IShyftKycContract(contracts[i]);\n\n            kycContractUserBalance = kycContract.getBalanceBip32X(_addr, _bip32X_type);\n            if (kycContractUserBalance > 0) {\n                //add to array\n                allLocations[i] = true;\n                totalSupplyBip32X[i] = kycContractUserBalance;\n\n                totalKycContractUserBalance += kycContractUserBalance;\n\n                //increment number found\n                numFound++;\n            }\n        }\n\n        return (allLocations, totalSupplyBip32X, numFound, totalKycContractUserBalance);\n    }\n}",
  "sourcePath": "/home/ubuntu/shyft_shyftcorecontracts/contracts/ShyftKycContractRegistry.sol",
  "compiler": {
    "name": "solc",
    "version": "0.7.1+commit.f4a555be.Emscripten.clang"
  },
  "schemaVersion": "3.4.1",
  "updatedAt": "2022-02-24T18:26:37.561Z",
  "devdoc": {
    "kind": "dev",
    "methods": {
      "changeCurrentAdminConfirmationThreshold(uint32)": {
        "details": "| This function takes in an index for a proposal ot change the current administrator confirmation threshold.      | Uses Multi-signature permissions.",
        "params": {
          "_proposalIndex": "The index for a specific proposal to change the current administrator confirmation threshold."
        },
        "returns": {
          "result": "   | 0 = not an administrator    | 1 = invalid proposal index    | 2 = not enough administrators to achieve confirmation threshold    | 3 = proposal has expired    | 4 = not enough administrators have permissioned change    | 5 = admin confirmation threshold set"
        }
      },
      "getAdminAccess(address)": {
        "details": "Gets the level of access for a specific administrator.",
        "returns": {
          "result": "the level of access for this administrator"
        }
      },
      "getAdminConfirmationProposal(uint32)": {
        "details": "Gets the components of a specific NofM change proposal.",
        "params": {
          "_proposalIndex": "A proposal index"
        },
        "returns": {
          "adminThreshold": "the threshold of the NofM voting within this proposal",
          "endTime": "the end time of this proposal, after which it cannot be voted on",
          "isCompleted": "whether this proposal has been completed by multisig parties"
        }
      },
      "getAdminConfirmationThreshold()": {
        "details": "Gets the NofM threshold currently required for passing multisig votes.",
        "returns": {
          "results": "the current NofM threshold"
        }
      },
      "getNumAdminConfirmationProposals()": {
        "details": "Gets the number of a specific NofM change proposal.",
        "returns": {
          "result": "the number of a specific NofM proposals"
        }
      },
      "getPermissionsForMultisignKey(bytes32)": {
        "details": "Gets whether there have been a specific number of multisignature confirmations for a specific vote.",
        "params": {
          "_keyKeccak": "A hash to reference as the key/value vote subject."
        },
        "returns": {
          "result": "0 to numAdministrators = #confirmations"
        }
      },
      "isAdministrator(address)": {
        "details": "Returns whether a given address is an administrator.",
        "params": {
          "_administratorAddress": "The public address of a specific administrator."
        },
        "returns": {
          "result": "   | true = is administrator    | false = either administrator unset or demoted"
        }
      },
      "isConfirmationsIsOverThreshold(uint256)": {
        "details": "Returns whether a reference number is over the system's administrator confirmation threshold (ie. the vote passes).",
        "params": {
          "_confirmationNumber": "A number to reference as the confirmation number"
        },
        "returns": {
          "result": "   | true = is over threshold    | false = not over threshold"
        }
      },
      "promoteAdministrator(address)": {
        "details": "| Promotes a new administrator. If there is only a primary Administrator set, this will allow the addition of the second administrator and enable multisignature requirements for any actions of this contract (or those inheriting it).      | Uses Multi-signature permissions if there is more than one Administrator onboarded.",
        "params": {
          "_newAdministratorAddress": "The new Administrator's public address."
        },
        "returns": {
          "result": "   | 0 = not administrator    | 1 = administrator already promoted    | 2 = new administrator promoted    | 3 = added vote to promote administrator"
        }
      },
      "proposeChangeCurrentAdminConfirmationThreshold(uint256)": {
        "details": "This function proposes a change to the threshold of voting required (N signatories of M total set size = NofM). To prevent stale inattention results, timeout after 2 days.",
        "params": {
          "_newThreshold": "The new threshold (N of M multisig) that is needed to be passed."
        },
        "returns": {
          "result": "   | 0 = not an administrator    | 1 = not enough administrators to achieve confirmation threshold    | 2 = new proposal added"
        }
      },
      "revokeAdministrator(address)": {
        "details": "| Revokes an existing administrator from the multisignature set, checks to see if the # of required votes would be higher then the administrator set size, and if so adjusts to match.      | Uses Multi-signature permissions if there is more than one Administrator onboarded.",
        "params": {
          "_revokeAdministratorAddress": "An existing Administrator's public address."
        },
        "returns": {
          "result": "result"
        }
      },
      "setPrimaryAdministrator(address)": {
        "details": "Sets the primary Administrator for this contract (or those that inherit from it). This transfers ownership of this contracts first administration duties (to find and onboard a second party for multisignature requirements) to the set Administrator's public address.",
        "params": {
          "_newAdministratorAddress": "The new Administrator's public address."
        },
        "returns": {
          "result": "   | 0 = not owner    | 1 = already set first administrator    | 2 = setup first administrator"
        }
      }
    },
    "version": 1
  },
  "userdoc": {
    "kind": "user",
    "methods": {
      "changeCurrentAdminConfirmationThreshold(uint32)": {
        "notice": "Multiple proposals can be constructed for different sets to apply to change the administrator threshold. As the permissions for multisig keys use a voting set nonce underneath the hood, a change in the current administrator set will cancel all current votes."
      },
      "getPermissionsForMultisignKey(bytes32)": {
        "notice": "Uses composition features (based on current validator set) so data structure may be orphaned when promotion/demotion events occur."
      },
      "promoteAdministrator(address)": {
        "notice": "| Uses composition features (based on current validator set) so data structure may be orphaned when promotion/demotion events occur.         | Whenever this function is called (with a passing vote), there will be a re-hashing of the voting set nonce, so all current votes will become invalidated."
      },
      "revokeAdministrator(address)": {
        "notice": "| Uses composition features (based on current validator set) so data structure may be orphaned when promotion/demotion events occur.         | Whenever this function is called (with a passing vote), there will be a re-hashing of the voting set nonce, so all current votes will become invalidated."
      }
    },
    "version": 1
  }
}