{
  "contractName": "ShyftConduit",
  "abi": [
    {
      "inputs": [],
      "stateMutability": "nonpayable",
      "type": "constructor"
    },
    {
      "anonymous": false,
      "inputs": [
        {
          "indexed": false,
          "internalType": "address",
          "name": "_admin",
          "type": "address"
        }
      ],
      "name": "EVT_AdminPromoted",
      "type": "event"
    },
    {
      "anonymous": false,
      "inputs": [
        {
          "indexed": false,
          "internalType": "address",
          "name": "_admin",
          "type": "address"
        }
      ],
      "name": "EVT_AdminRevoked",
      "type": "event"
    },
    {
      "anonymous": false,
      "inputs": [
        {
          "indexed": true,
          "internalType": "address",
          "name": "_from",
          "type": "address"
        },
        {
          "indexed": true,
          "internalType": "uint256",
          "name": "_value",
          "type": "uint256"
        },
        {
          "indexed": false,
          "internalType": "bytes",
          "name": "_data",
          "type": "bytes"
        }
      ],
      "name": "EVT_Erc223TokenFallback",
      "type": "event"
    },
    {
      "anonymous": false,
      "inputs": [
        {
          "indexed": false,
          "internalType": "address",
          "name": "_admin",
          "type": "address"
        }
      ],
      "name": "EVT_PrimaryAdminAdded",
      "type": "event"
    },
    {
      "anonymous": false,
      "inputs": [
        {
          "indexed": false,
          "internalType": "uint256",
          "name": "amount",
          "type": "uint256"
        },
        {
          "indexed": false,
          "internalType": "uint256",
          "name": "availableBalance",
          "type": "uint256"
        }
      ],
      "name": "EVT_conduitWithdrawnFunds",
      "type": "event"
    },
    {
      "anonymous": false,
      "inputs": [
        {
          "indexed": true,
          "internalType": "address",
          "name": "conterminousAddress",
          "type": "address"
        },
        {
          "indexed": false,
          "internalType": "uint256",
          "name": "whiteShyftedBalance",
          "type": "uint256"
        },
        {
          "indexed": false,
          "internalType": "uint256",
          "name": "numBlocksProcessed",
          "type": "uint256"
        }
      ],
      "name": "EVT_integratedIndividual",
      "type": "event"
    },
    {
      "anonymous": false,
      "inputs": [
        {
          "indexed": true,
          "internalType": "uint256",
          "name": "tokenIndex",
          "type": "uint256"
        },
        {
          "indexed": true,
          "internalType": "address",
          "name": "tokenContract",
          "type": "address"
        },
        {
          "indexed": false,
          "internalType": "uint256",
          "name": "value",
          "type": "uint256"
        }
      ],
      "name": "EVT_otherTokensReverseTransfer",
      "type": "event"
    },
    {
      "anonymous": false,
      "inputs": [
        {
          "indexed": true,
          "internalType": "address",
          "name": "msgSender",
          "type": "address"
        },
        {
          "indexed": true,
          "internalType": "address",
          "name": "contractAddress",
          "type": "address"
        },
        {
          "indexed": false,
          "internalType": "uint256",
          "name": "value",
          "type": "uint256"
        }
      ],
      "name": "EVT_withdrawToExternalContract",
      "type": "event"
    },
    {
      "anonymous": false,
      "inputs": [
        {
          "indexed": true,
          "internalType": "address",
          "name": "msgSender",
          "type": "address"
        },
        {
          "indexed": true,
          "internalType": "address",
          "name": "to",
          "type": "address"
        },
        {
          "indexed": false,
          "internalType": "uint256",
          "name": "value",
          "type": "uint256"
        }
      ],
      "name": "EVT_withdrawToNative",
      "type": "event"
    },
    {
      "anonymous": false,
      "inputs": [
        {
          "indexed": true,
          "internalType": "address",
          "name": "msgSender",
          "type": "address"
        },
        {
          "indexed": true,
          "internalType": "address",
          "name": "shyftKycAddress",
          "type": "address"
        },
        {
          "indexed": false,
          "internalType": "uint256",
          "name": "value",
          "type": "uint256"
        }
      ],
      "name": "EVT_withdrawToTrustedAccount",
      "type": "event"
    },
    {
      "inputs": [
        {
          "internalType": "uint256",
          "name": "",
          "type": "uint256"
        }
      ],
      "name": "allErc223TokenBundles",
      "outputs": [
        {
          "internalType": "bool",
          "name": "isActive",
          "type": "bool"
        },
        {
          "internalType": "bytes4",
          "name": "sig",
          "type": "bytes4"
        },
        {
          "internalType": "address",
          "name": "originContract",
          "type": "address"
        },
        {
          "internalType": "address",
          "name": "sender",
          "type": "address"
        },
        {
          "internalType": "uint256",
          "name": "value",
          "type": "uint256"
        },
        {
          "internalType": "bytes",
          "name": "data",
          "type": "bytes"
        }
      ],
      "stateMutability": "view",
      "type": "function"
    },
    {
      "inputs": [
        {
          "internalType": "uint32",
          "name": "_proposalIndex",
          "type": "uint32"
        }
      ],
      "name": "changeCurrentAdminConfirmationThreshold",
      "outputs": [
        {
          "internalType": "uint8",
          "name": "result",
          "type": "uint8"
        }
      ],
      "stateMutability": "nonpayable",
      "type": "function"
    },
    {
      "inputs": [],
      "name": "conterminousCount",
      "outputs": [
        {
          "internalType": "uint16",
          "name": "",
          "type": "uint16"
        }
      ],
      "stateMutability": "view",
      "type": "function"
    },
    {
      "inputs": [],
      "name": "externalFundsBalance",
      "outputs": [
        {
          "internalType": "uint256",
          "name": "",
          "type": "uint256"
        }
      ],
      "stateMutability": "view",
      "type": "function"
    },
    {
      "inputs": [
        {
          "internalType": "address",
          "name": "_administratorAddress",
          "type": "address"
        }
      ],
      "name": "getAdminAccess",
      "outputs": [
        {
          "internalType": "enum Administrable.AdministratorAccess",
          "name": "result",
          "type": "uint8"
        }
      ],
      "stateMutability": "view",
      "type": "function"
    },
    {
      "inputs": [
        {
          "internalType": "uint32",
          "name": "_proposalIndex",
          "type": "uint32"
        }
      ],
      "name": "getAdminConfirmationProposal",
      "outputs": [
        {
          "internalType": "uint256",
          "name": "adminThreshold",
          "type": "uint256"
        },
        {
          "internalType": "uint256",
          "name": "endTime",
          "type": "uint256"
        },
        {
          "internalType": "bool",
          "name": "isCompleted",
          "type": "bool"
        }
      ],
      "stateMutability": "view",
      "type": "function"
    },
    {
      "inputs": [],
      "name": "getAdminConfirmationThreshold",
      "outputs": [
        {
          "internalType": "uint256",
          "name": "results",
          "type": "uint256"
        }
      ],
      "stateMutability": "view",
      "type": "function"
    },
    {
      "inputs": [],
      "name": "getNumAdminConfirmationProposals",
      "outputs": [
        {
          "internalType": "uint256",
          "name": "result",
          "type": "uint256"
        }
      ],
      "stateMutability": "view",
      "type": "function"
    },
    {
      "inputs": [
        {
          "internalType": "bytes32",
          "name": "_keyKeccak",
          "type": "bytes32"
        }
      ],
      "name": "getPermissionsForMultisignKey",
      "outputs": [
        {
          "internalType": "uint256",
          "name": "result",
          "type": "uint256"
        }
      ],
      "stateMutability": "view",
      "type": "function"
    },
    {
      "inputs": [],
      "name": "integrateConterminousDistributionsOnUpdate",
      "outputs": [
        {
          "internalType": "bool",
          "name": "",
          "type": "bool"
        }
      ],
      "stateMutability": "view",
      "type": "function"
    },
    {
      "inputs": [
        {
          "internalType": "address",
          "name": "_administratorAddress",
          "type": "address"
        }
      ],
      "name": "isAdministrator",
      "outputs": [
        {
          "internalType": "bool",
          "name": "result",
          "type": "bool"
        }
      ],
      "stateMutability": "view",
      "type": "function"
    },
    {
      "inputs": [
        {
          "internalType": "uint256",
          "name": "_confirmationNumber",
          "type": "uint256"
        }
      ],
      "name": "isConfirmationsIsOverThreshold",
      "outputs": [
        {
          "internalType": "bool",
          "name": "result",
          "type": "bool"
        }
      ],
      "stateMutability": "view",
      "type": "function"
    },
    {
      "inputs": [],
      "name": "manualKycFundsAdded",
      "outputs": [
        {
          "internalType": "uint256",
          "name": "",
          "type": "uint256"
        }
      ],
      "stateMutability": "view",
      "type": "function"
    },
    {
      "inputs": [],
      "name": "numAdministrators",
      "outputs": [
        {
          "internalType": "uint256",
          "name": "",
          "type": "uint256"
        }
      ],
      "stateMutability": "view",
      "type": "function"
    },
    {
      "inputs": [],
      "name": "originBlockNumber",
      "outputs": [
        {
          "internalType": "uint256",
          "name": "",
          "type": "uint256"
        }
      ],
      "stateMutability": "view",
      "type": "function"
    },
    {
      "inputs": [],
      "name": "owner",
      "outputs": [
        {
          "internalType": "address",
          "name": "",
          "type": "address"
        }
      ],
      "stateMutability": "view",
      "type": "function"
    },
    {
      "inputs": [],
      "name": "primeRevocationManagerAddress",
      "outputs": [
        {
          "internalType": "address",
          "name": "",
          "type": "address"
        }
      ],
      "stateMutability": "view",
      "type": "function"
    },
    {
      "inputs": [
        {
          "internalType": "address",
          "name": "_newAdministratorAddress",
          "type": "address"
        }
      ],
      "name": "promoteAdministrator",
      "outputs": [
        {
          "internalType": "uint8",
          "name": "result",
          "type": "uint8"
        }
      ],
      "stateMutability": "nonpayable",
      "type": "function"
    },
    {
      "inputs": [
        {
          "internalType": "uint256",
          "name": "_newThreshold",
          "type": "uint256"
        }
      ],
      "name": "proposeChangeCurrentAdminConfirmationThreshold",
      "outputs": [
        {
          "internalType": "uint8",
          "name": "result",
          "type": "uint8"
        }
      ],
      "stateMutability": "nonpayable",
      "type": "function"
    },
    {
      "inputs": [
        {
          "internalType": "address",
          "name": "_revokeAdministratorAddress",
          "type": "address"
        }
      ],
      "name": "revokeAdministrator",
      "outputs": [
        {
          "internalType": "uint8",
          "name": "result",
          "type": "uint8"
        }
      ],
      "stateMutability": "nonpayable",
      "type": "function"
    },
    {
      "inputs": [
        {
          "internalType": "address",
          "name": "_newAdministratorAddress",
          "type": "address"
        }
      ],
      "name": "setPrimaryAdministrator",
      "outputs": [
        {
          "internalType": "uint8",
          "name": "result",
          "type": "uint8"
        }
      ],
      "stateMutability": "nonpayable",
      "type": "function"
    },
    {
      "inputs": [],
      "name": "shyftKycContractAddress",
      "outputs": [
        {
          "internalType": "address",
          "name": "",
          "type": "address"
        }
      ],
      "stateMutability": "view",
      "type": "function"
    },
    {
      "inputs": [],
      "name": "shyftKycContractRegistryAddress",
      "outputs": [
        {
          "internalType": "address",
          "name": "",
          "type": "address"
        }
      ],
      "stateMutability": "view",
      "type": "function"
    },
    {
      "inputs": [],
      "name": "systemDistributionContractAddress",
      "outputs": [
        {
          "internalType": "address",
          "name": "",
          "type": "address"
        }
      ],
      "stateMutability": "view",
      "type": "function"
    },
    {
      "stateMutability": "payable",
      "type": "receive"
    },
    {
      "inputs": [],
      "name": "getShyftBlockReward",
      "outputs": [
        {
          "internalType": "uint256",
          "name": "result",
          "type": "uint256"
        }
      ],
      "stateMutability": "view",
      "type": "function"
    },
    {
      "inputs": [],
      "name": "getNumErc223TokenBundles",
      "outputs": [
        {
          "internalType": "uint256",
          "name": "result",
          "type": "uint256"
        }
      ],
      "stateMutability": "view",
      "type": "function"
    },
    {
      "inputs": [
        {
          "internalType": "address",
          "name": "_systemDistributionContractAddress",
          "type": "address"
        }
      ],
      "name": "setSystemDistributionContractAddress",
      "outputs": [
        {
          "internalType": "uint8",
          "name": "result",
          "type": "uint8"
        }
      ],
      "stateMutability": "nonpayable",
      "type": "function"
    },
    {
      "inputs": [
        {
          "internalType": "address",
          "name": "_shyftKycContractRegistryAddress",
          "type": "address"
        }
      ],
      "name": "setShyftKycContractRegistryAddress",
      "outputs": [
        {
          "internalType": "uint8",
          "name": "result",
          "type": "uint8"
        }
      ],
      "stateMutability": "nonpayable",
      "type": "function"
    },
    {
      "inputs": [
        {
          "internalType": "address",
          "name": "_shyftKycContractAddress",
          "type": "address"
        }
      ],
      "name": "setShyftKycContractAddress",
      "outputs": [
        {
          "internalType": "uint8",
          "name": "result",
          "type": "uint8"
        }
      ],
      "stateMutability": "nonpayable",
      "type": "function"
    },
    {
      "inputs": [
        {
          "internalType": "address",
          "name": "_recipient",
          "type": "address"
        }
      ],
      "name": "retrieveExternalFundsAfterDetach",
      "outputs": [
        {
          "internalType": "uint8",
          "name": "result",
          "type": "uint8"
        }
      ],
      "stateMutability": "nonpayable",
      "type": "function"
    },
    {
      "inputs": [
        {
          "internalType": "uint256",
          "name": "_amount",
          "type": "uint256"
        }
      ],
      "name": "withdrawSafeFundsToSelfOnlyTrustRouted",
      "outputs": [
        {
          "internalType": "uint8",
          "name": "result",
          "type": "uint8"
        }
      ],
      "stateMutability": "nonpayable",
      "type": "function"
    },
    {
      "inputs": [
        {
          "internalType": "address",
          "name": "_from",
          "type": "address"
        },
        {
          "internalType": "uint256",
          "name": "_value",
          "type": "uint256"
        },
        {
          "internalType": "bytes",
          "name": "_data",
          "type": "bytes"
        }
      ],
      "name": "tokenFallback",
      "outputs": [
        {
          "internalType": "bool",
          "name": "ok",
          "type": "bool"
        }
      ],
      "stateMutability": "nonpayable",
      "type": "function"
    },
    {
      "inputs": [
        {
          "internalType": "uint256",
          "name": "_tokenIndex",
          "type": "uint256"
        }
      ],
      "name": "callTokenReverseTransfer",
      "outputs": [
        {
          "internalType": "uint8",
          "name": "result",
          "type": "uint8"
        }
      ],
      "stateMutability": "nonpayable",
      "type": "function"
    },
    {
      "inputs": [
        {
          "internalType": "bytes32",
          "name": "_distributionKeyKeccak",
          "type": "bytes32"
        }
      ],
      "name": "setConterminousDistributionAmountsPermissions",
      "outputs": [
        {
          "internalType": "uint8",
          "name": "result",
          "type": "uint8"
        }
      ],
      "stateMutability": "nonpayable",
      "type": "function"
    },
    {
      "inputs": [
        {
          "internalType": "address[]",
          "name": "_conterminousAddresses",
          "type": "address[]"
        },
        {
          "internalType": "uint256[]",
          "name": "_conterminousDistributionPercentages_leftShifted24Bits",
          "type": "uint256[]"
        },
        {
          "internalType": "bytes32",
          "name": "_distributionKeyKeccak",
          "type": "bytes32"
        }
      ],
      "name": "setConterminousDistributionAmounts",
      "outputs": [
        {
          "internalType": "uint8",
          "name": "result",
          "type": "uint8"
        }
      ],
      "stateMutability": "nonpayable",
      "type": "function"
    },
    {
      "inputs": [
        {
          "internalType": "address",
          "name": "_conterminousAddress",
          "type": "address"
        }
      ],
      "name": "integrateIndividualConterminousDistribution",
      "outputs": [
        {
          "internalType": "uint256",
          "name": "result",
          "type": "uint256"
        }
      ],
      "stateMutability": "nonpayable",
      "type": "function"
    },
    {
      "inputs": [
        {
          "internalType": "address",
          "name": "_shyftKycContractAddress",
          "type": "address"
        },
        {
          "internalType": "uint256",
          "name": "_value",
          "type": "uint256"
        },
        {
          "internalType": "uint256",
          "name": "_gasToSend",
          "type": "uint256"
        }
      ],
      "name": "withdrawIndividualConterminousDistributionToTrustedAccount",
      "outputs": [
        {
          "internalType": "uint8",
          "name": "result",
          "type": "uint8"
        }
      ],
      "stateMutability": "nonpayable",
      "type": "function"
    },
    {
      "inputs": [
        {
          "internalType": "address payable",
          "name": "_to",
          "type": "address"
        },
        {
          "internalType": "uint256",
          "name": "_value",
          "type": "uint256"
        }
      ],
      "name": "withdrawIndividualConterminousDistributionToNormalAccount",
      "outputs": [
        {
          "internalType": "bool",
          "name": "ok",
          "type": "bool"
        }
      ],
      "stateMutability": "nonpayable",
      "type": "function"
    },
    {
      "inputs": [
        {
          "internalType": "address",
          "name": "_contractAddress",
          "type": "address"
        },
        {
          "internalType": "uint256",
          "name": "_value",
          "type": "uint256"
        }
      ],
      "name": "withdrawIndividualConterminousDistributionToExternalContract",
      "outputs": [
        {
          "internalType": "bool",
          "name": "ok",
          "type": "bool"
        }
      ],
      "stateMutability": "nonpayable",
      "type": "function"
    },
    {
      "inputs": [
        {
          "internalType": "address",
          "name": "_address",
          "type": "address"
        }
      ],
      "name": "checkConterminousWhiteShyftedBalance",
      "outputs": [
        {
          "internalType": "uint256",
          "name": "balance",
          "type": "uint256"
        }
      ],
      "stateMutability": "view",
      "type": "function"
    },
    {
      "inputs": [
        {
          "internalType": "address",
          "name": "_address",
          "type": "address"
        }
      ],
      "name": "checkConterminousLastBlockProcessed",
      "outputs": [
        {
          "internalType": "uint256",
          "name": "lastBlockProcessed",
          "type": "uint256"
        }
      ],
      "stateMutability": "view",
      "type": "function"
    },
    {
      "inputs": [
        {
          "internalType": "address",
          "name": "_conterminousAddress",
          "type": "address"
        }
      ],
      "name": "isValidConterminousAddress",
      "outputs": [
        {
          "internalType": "bool",
          "name": "result",
          "type": "bool"
        }
      ],
      "stateMutability": "view",
      "type": "function"
    },
    {
      "inputs": [
        {
          "internalType": "address",
          "name": "_conterminousAddress",
          "type": "address"
        }
      ],
      "name": "getConterminousInfo",
      "outputs": [
        {
          "components": [
            {
              "internalType": "address",
              "name": "ownAddress",
              "type": "address"
            },
            {
              "internalType": "bool",
              "name": "whiteListed",
              "type": "bool"
            },
            {
              "internalType": "uint256",
              "name": "whiteShyftedDistributionPercent_leftShifted24Bits",
              "type": "uint256"
            },
            {
              "internalType": "uint256",
              "name": "whiteShyftedBalance",
              "type": "uint256"
            },
            {
              "internalType": "uint256",
              "name": "lastBlockProcessed",
              "type": "uint256"
            },
            {
              "internalType": "address",
              "name": "nextLink",
              "type": "address"
            }
          ],
          "internalType": "struct IShyftConduit.ConterminousInfo",
          "name": "result",
          "type": "tuple"
        }
      ],
      "stateMutability": "view",
      "type": "function"
    },
    {
      "inputs": [],
      "name": "getAllConterminousInfos",
      "outputs": [
        {
          "components": [
            {
              "internalType": "address",
              "name": "ownAddress",
              "type": "address"
            },
            {
              "internalType": "bool",
              "name": "whiteListed",
              "type": "bool"
            },
            {
              "internalType": "uint256",
              "name": "whiteShyftedDistributionPercent_leftShifted24Bits",
              "type": "uint256"
            },
            {
              "internalType": "uint256",
              "name": "whiteShyftedBalance",
              "type": "uint256"
            },
            {
              "internalType": "uint256",
              "name": "lastBlockProcessed",
              "type": "uint256"
            },
            {
              "internalType": "address",
              "name": "nextLink",
              "type": "address"
            }
          ],
          "internalType": "struct IShyftConduit.ConterminousInfo[]",
          "name": "result",
          "type": "tuple[]"
        }
      ],
      "stateMutability": "view",
      "type": "function"
    },
    {
      "inputs": [],
      "name": "getConterminousGeneration",
      "outputs": [
        {
          "internalType": "uint256",
          "name": "result",
          "type": "uint256"
        }
      ],
      "stateMutability": "view",
      "type": "function"
    },
    {
      "inputs": [
        {
          "internalType": "address",
          "name": "_primeRevocationManagerAddress",
          "type": "address"
        }
      ],
      "name": "setPrimeRevocationManagerAddress",
      "outputs": [
        {
          "internalType": "uint8",
          "name": "result",
          "type": "uint8"
        }
      ],
      "stateMutability": "nonpayable",
      "type": "function"
    },
    {
      "inputs": [
        {
          "internalType": "address",
          "name": "_primeRevocationManagerAddress",
          "type": "address"
        }
      ],
      "name": "isPrimeRevocationManager",
      "outputs": [
        {
          "internalType": "bool",
          "name": "result",
          "type": "bool"
        }
      ],
      "stateMutability": "view",
      "type": "function"
    },
    {
      "inputs": [
        {
          "internalType": "address",
          "name": "_originalAddress",
          "type": "address"
        },
        {
          "internalType": "uint256",
          "name": "_inflationAmount",
          "type": "uint256"
        }
      ],
      "name": "updateStep",
      "outputs": [
        {
          "internalType": "bool",
          "name": "success",
          "type": "bool"
        },
        {
          "internalType": "bool",
          "name": "preUpdateBenefactorStepRequired",
          "type": "bool"
        },
        {
          "internalType": "address",
          "name": "preUpdateBenefactorExContractAddress",
          "type": "address"
        },
        {
          "internalType": "bytes",
          "name": "preUpdateBenefactorExForwardedBytes",
          "type": "bytes"
        }
      ],
      "stateMutability": "nonpayable",
      "type": "function"
    },
    {
      "inputs": [
        {
          "internalType": "bool",
          "name": "_shouldIntegrateOnDistributionOnUpdate",
          "type": "bool"
        }
      ],
      "name": "voteAdminShouldIntegrateConterminousDistributionsOnUpdate",
      "outputs": [
        {
          "internalType": "uint8",
          "name": "result",
          "type": "uint8"
        }
      ],
      "stateMutability": "nonpayable",
      "type": "function"
    },
    {
      "inputs": [
        {
          "internalType": "bool",
          "name": "_shouldUpdateBenefactor",
          "type": "bool"
        }
      ],
      "name": "voteAdminShouldUpdateBenefactor",
      "outputs": [
        {
          "internalType": "uint8",
          "name": "result",
          "type": "uint8"
        }
      ],
      "stateMutability": "nonpayable",
      "type": "function"
    },
    {
      "inputs": [
        {
          "internalType": "bool",
          "name": "_shouldRemovePermanently",
          "type": "bool"
        }
      ],
      "name": "voteAdminShouldRemoveBenefactorPermanently",
      "outputs": [
        {
          "internalType": "uint8",
          "name": "result",
          "type": "uint8"
        }
      ],
      "stateMutability": "nonpayable",
      "type": "function"
    },
    {
      "inputs": [
        {
          "internalType": "address",
          "name": "_adminUpdateBenefactorAddressTarget",
          "type": "address"
        }
      ],
      "name": "voteAdminUpdateBenefactorAddressTarget",
      "outputs": [
        {
          "internalType": "uint8",
          "name": "result",
          "type": "uint8"
        }
      ],
      "stateMutability": "nonpayable",
      "type": "function"
    },
    {
      "inputs": [
        {
          "internalType": "bytes",
          "name": "_sigBytes",
          "type": "bytes"
        },
        {
          "internalType": "uint256",
          "name": "_inflationAmount",
          "type": "uint256"
        }
      ],
      "name": "benefactorUpdateFunction",
      "outputs": [
        {
          "internalType": "bool",
          "name": "shouldUpdateBenefactor",
          "type": "bool"
        },
        {
          "internalType": "address",
          "name": "updatedBenefactorAddress",
          "type": "address"
        }
      ],
      "stateMutability": "nonpayable",
      "type": "function"
    }
  ],
  "bytecode": "0x6080604052600260005567cf014b36e6c85800600855600c80546001600160b01b0319169055600e80546001600160a01b0319908116909155600f8054909116905560001960125534801561005357600080fd5b5060018054336001600160a01b03199182168117909116179055613ea48061007c6000396000f3fe60806040526004361061031d5760003560e01c80636fcd635a116101ab578063c0ee0b8a116100f7578063f214dabb11610095578063f801bdd61161006f578063f801bdd61461096f578063f947156614610984578063fa1c782f146109a4578063fdf190df146109b957610334565b8063f214dabb1461091a578063f3e512d31461093a578063f7e7c4901461094f57610334565b8063cf550e65116100d1578063cf550e6514610880578063d25fa4d8146108a0578063d9af51e3146108cd578063e9977096146108fa57610334565b8063c0ee0b8a14610820578063c28778ca14610840578063c4db63f51461086057610334565b80638da5cb5b116101645780639ddd4f4e1161013e5780639ddd4f4e146107a0578063a3cd807e146107c0578063b789485c146107e0578063b9568dd81461080057610334565b80638da5cb5b14610739578063982ad0c01461074e5780639859b0721461078057610334565b80636fcd635a1461068a5780637a303a9c146106aa5780637ae351c2146106bf5780637e7a179b146106df5780637eb629861461070f5780638283db161461072457610334565b8063349d060c1161026a57806345d154ce11610223578063512f3d65116101fd578063512f3d651461061357806362ff70e01461063357806363d4a97d146106555780636801e6ba1461067557610334565b806345d154ce146105b157806346149649146105d357806349d22250146105f357610334565b8063349d060c14610507578063369e40e31461052757806337f5f49a146105475780633a04839c1461055c5780633b187fcc146105715780634402bba31461059157610334565b80631d1ca166116102d75780632c76dd7e116102b15780632c76dd7e146104905780632e6a15d1146104b05780633184bcd8146104d05780633370426d146104f257610334565b80631d1ca1661461042e57806323dfe7301461045057806329fba1771461047057610334565b8062913af614610339578063060036c31461037157806306210eef1461039e578063064ad7c2146103c05780630a2eb301146103e0578063144f6b641461040057610334565b366103345760115461032f90346109ce565b601155005b600080fd5b34801561034557600080fd5b50610359610354366004613720565b6109e9565b60405161036893929190613dde565b60405180910390f35b34801561037d57600080fd5b5061039161038c366004613675565b610a70565b6040516103689190613df6565b3480156103aa57600080fd5b506103b3610b26565b6040516103689190613cd1565b3480156103cc57600080fd5b506103916103db3660046134c5565b610b2f565b3480156103ec57600080fd5b506103b36103fb3660046134c5565b610bc3565b34801561040c57600080fd5b5061042061041b3660046136c5565b610bfe565b604051610368929190613cdc565b34801561043a57600080fd5b50610443610c8e565b6040516103689190613dd5565b34801561045c57600080fd5b5061039161046b3660046134c5565b610c94565b34801561047c57600080fd5b5061039161048b3660046135a9565b610e7d565b34801561049c57600080fd5b506103916104ab3660046136ad565b61110b565b3480156104bc57600080fd5b506103b36104cb36600461350c565b6112dc565b3480156104dc57600080fd5b506104e561151b565b6040516103689190613dc6565b3480156104fe57600080fd5b50610443611525565b34801561051357600080fd5b506103916105223660046134c5565b61152b565b34801561053357600080fd5b506103916105423660046134c5565b6115f1565b34801561055357600080fd5b5061044361171e565b34801561056857600080fd5b50610443611724565b34801561057d57600080fd5b5061039161058c366004613575565b61172a565b34801561059d57600080fd5b506103916105ac3660046134c5565b6119a8565b3480156105bd57600080fd5b506105c6611b14565b6040516103689190613c83565b3480156105df57600080fd5b506103916105ee3660046134c5565b611c46565b3480156105ff57600080fd5b5061039161060e3660046136ad565b611cec565b34801561061f57600080fd5b506103b361062e3660046134c5565b611dce565b34801561063f57600080fd5b50610648611def565b6040516103689190613c05565b34801561066157600080fd5b506104436106703660046134c5565b611dfe565b34801561068157600080fd5b50610648611e1c565b34801561069657600080fd5b506103916106a53660046134c5565b611e2b565b3480156106b657600080fd5b50610443611edd565b3480156106cb57600080fd5b506104436106da3660046134c5565b611ee3565b3480156106eb57600080fd5b506106ff6106fa36600461350c565b611f01565b6040516103689493929190613cf5565b34801561071b57600080fd5b5061064861201b565b34801561073057600080fd5b5061044361202a565b34801561074557600080fd5b50610648612030565b34801561075a57600080fd5b5061076e6107693660046136ad565b61203f565b60405161036896959493929190613d33565b34801561078c57600080fd5b5061039161079b3660046136ad565b612123565b3480156107ac57600080fd5b506103916107bb3660046134c5565b612366565b3480156107cc57600080fd5b506103916107db366004613675565b6124a2565b3480156107ec57600080fd5b506103b36107fb3660046134e1565b61253e565b34801561080c57600080fd5b5061039161081b366004613720565b61266e565b34801561082c57600080fd5b506103b361083b36600461351e565b612821565b34801561084c57600080fd5b5061044361085b3660046134c5565b6129d7565b34801561086c57600080fd5b5061039161087b366004613675565b612aaa565b34801561088c57600080fd5b506103b361089b3660046134c5565b612b4d565b3480156108ac57600080fd5b506108c06108bb3660046134c5565b612b72565b6040516103689190613db8565b3480156108d957600080fd5b506108ed6108e83660046134c5565b612beb565b6040516103689190613da4565b34801561090657600080fd5b506103b36109153660046136ad565b612c09565b34801561092657600080fd5b506103916109353660046134c5565b612c1b565b34801561094657600080fd5b50610443612cc1565b34801561095b57600080fd5b5061044361096a3660046136ad565b612cc7565b34801561097b57600080fd5b50610648612cec565b34801561099057600080fd5b5061039161099f3660046136ad565b612cfb565b3480156109b057600080fd5b50610443612d89565b3480156109c557600080fd5b50610443612d8f565b6000828201838110156109e057600080fd5b90505b92915050565b600080600060068463ffffffff1681548110610a0157fe5b90600052602060002090600302016000015460068563ffffffff1681548110610a2657fe5b90600052602060002090600302016001015460068663ffffffff1681548110610a4b57fe5b6000918252602090912060026003909202010154919450925060ff1690509193909250565b6000610a7b33610bc3565b15610b1d57600082604051602001610a939190613bd1565b6040516020818303038152906040528051906020012090506000610ab682612cc7565b9050600080548210610aca57506001610ae7565b6000610ad584612d95565b90506000548110610ae557600191505b505b60018115151415610b115750506013805461ff001916610100851515021790555060029050610b21565b60019350505050610b21565b5060005b919050565b60135460ff1681565b6001546000906001600160a01b0316331415610b1d57600354610bbb576001600160a01b03821660009081526002602052604090819020805460ff19166001908117909155600380549091019055517f1767f5d6fdb0884c185778bf3ba4d303dc6af28da0798c96577f7c5450631d8b90610bab908490613c05565b60405180910390a1506002610b21565b506001610b21565b600060016001600160a01b03831660009081526002602081905260409091205460ff1690811115610bf057fe5b1415610b1d57506001610b21565b601354600090819060ff61010090910416151560011415610c805760135462010000900460ff16151560011415610c3d575060019050620f7eed610c87565b601354630100000090046001600160a01b031615610c8057610c5d612e9f565b5050600060085550601354600190630100000090046001600160a01b0316610c87565b5060009050805b9250929050565b60075490565b6000610c9f33610bc3565b15610b1d5760016001600160a01b03831660009081526002602081905260409091205460ff1690811115610ccf57fe5b14610bbb57600260035410610e0757600082604051602001610cf19190613b9c565b6040516020818303038152906040528051906020012090506000610d1482612cc7565b9050600080548210610d2857506001610d45565b6000610d3384612d95565b90506000548110610d4357600191505b505b60018115151415610dfb576001600160a01b0385166000908152600260205260409020805460ff19166001908117909155600380549091019055610d8883612f46565b50610db842604051602001610d9d9190613a15565b60405160208183030381529060405280519060200120613045565b7f7f477eb04f5a964ab231fdc42872d9356c3010171ed2c961d9166f492397869785604051610de79190613c05565b60405180910390a160029350505050610b21565b60039350505050610b21565b6001600160a01b038216600090815260026020526040902080546001919060ff191682800217905550600380546001019055604051610e4e90610d9d904290602001613a15565b7f7f477eb04f5a964ab231fdc42872d9356c3010171ed2c961d9166f492397869782604051610bab9190613c05565b600083838051825114610e8f57600080fd5b600084604051602001610ea29190613863565b60408051601f19818403018152919052805160209091012090506000805b88518161ffff161015610f0157610ef7888261ffff1681518110610ee057fe5b6020026020010151836109ce90919063ffffffff16565b9150600101610ec0565b50636400000081116110fb57610f1b8888600d5489613078565b156110f057610f2c61091583612cc7565b1515600114156110e557610f3e6130c8565b60005b88518161ffff161015611075576000600b60008b8461ffff1681518110610f6457fe5b60200260200101516001600160a01b03166001600160a01b031681526020019081526020016000209050898261ffff1681518110610f9e57fe5b602090810291909101015181546001600160a01b0319166001600160a01b039091161781558851899061ffff8416908110610fd557fe5b60209081029190910101516001820155805460ff60a01b1916600160a01b1781556012544303600382015589516000190161ffff8316101561105957898260010161ffff168151811061102457fe5b60200260200101518160040160006101000a8154816001600160a01b0302191690836001600160a01b0316021790555061106c565b6004810180546001600160a01b03191690555b50600101610f41565b508751600c805461ffff191661ffff8316179055889060009061109457fe5b6020908102919091010151600c80546001600160a01b03909216620100000262010000600160b01b0319909216919091179055600d805460010190556110d982612f46565b50600394505050611102565b600294505050611102565b600194505050611102565b6000945050505b50509392505050565b600a54600090600160a01b900460ff161561112557600080fd5b600a805460ff60a01b1916600160a01b1790556007548210156112c65760006007838154811061115157fe5b60009182526020909120600490910201805490915060ff161515600114156112bb5761117c33610bc3565b80611193575060018101546001600160a01b031633145b156112b157805460018201546002830154604051635f22feb160e11b81526001600160a01b0365010000000000909404841693606093600093869363be45fd62936111e5931691908790600401613c32565b602060405180830381600087803b1580156111ff57600080fd5b505af1158015611213573d6000803e3d6000fd5b505050506040513d601f19601f820116820180604052508101906112379190613691565b9050600181151514156112a457835460ff19168455600184015460028501546040516001600160a01b039092169188917f71c4c50170bb35356552a7ecbcf5b3a8b44fec9c4f688441232db922d82f489c916112939190613dd5565b60405180910390a3600494506112a9565b600394505b5050506112b6565b600291505b6112c0565b600191505b506112ca565b5060005b600a805460ff60a01b19169055919050565b600a54600090600160a01b900460ff16156112f657600080fd5b600a805460ff60a01b1916600160a01b17905581611312613174565b101561131d57600080fd5b8161132733611ee3565b101561133257600080fd5b823b801561150757336000908152600b60205260409020600201546113579084613178565b336000908152600b60205260408082206002019290925590516001600160a01b0386169061753090869061138a90613a7c565b600060405180830381858888f193505050503d80600081146113c8576040519150601f19603f3d011682016040523d82523d6000602084013e6113cd565b606091505b5050905060008590506000816001600160a01b031663c0ee0b8a33887fce034ca3986474c836813662103b120dfe2d2e37cad5d747d7f706ff90e4184060405160200161141a919061384e565b6040516020818303038152906040526040518463ffffffff1660e01b815260040161144793929190613c32565b602060405180830381600087803b15801561146157600080fd5b505af1158015611475573d6000803e3d6000fd5b505050506040513d601f19601f820116820180604052508101906114999190613691565b905060018315151480156114af57506001811515145b1561033457866001600160a01b0316336001600160a01b03167fb06e1dd53f47e81e9364f5325a6d8fbf8c966edbbda9e02abc4c1eaf5fd57eea886040516114f79190613dd5565b60405180910390a3600194505050505b50600a805460ff60a01b1916905592915050565b600c5461ffff1681565b60065490565b60006001600160a01b03821661154057600080fd5b61154933610bc3565b15610b1d576000826040516020016115619190613abd565b604051602081830303815290604052805190602001209050600061158482612cc7565b9050600080548210611598575060016115b5565b60006115a384612d95565b905060005481106115b357600191505b505b60018115151415610b1157600f80546001600160a01b0319166001600160a01b0387161790556115e483612f46565b5060029350505050610b21565b6000806115fc613174565b1161160657600080fd5b61160f33610bc3565b15610b1d5760008260405160200161162791906138e8565b604051602081830303815290604052805190602001209050600061164a82612cc7565b905060008054821061165e5750600161167b565b600061166984612d95565b9050600054811061167957600191505b505b60018115151415610b115761168f83612f46565b50600854611712576000856001600160a01b0316476040516116b090613a7c565b60006040518083038185875af1925050503d80600081146116ed576040519150601f19603f3d011682016040523d82523d6000602084013e6116f2565b606091505b5050600060115590508061170557600080fd5b6003945050505050610b21565b60029350505050610b21565b60125481565b60105481565b600a54600090600160a01b900460ff161561174457600080fd5b600a805460ff60a01b1916600160a01b17905582611760613174565b101561176b57600080fd5b8261177533611ee3565b101561178057600080fd5b600a54604051630487e9b760e41b81526001600160a01b0390911690819063487e9b70906117b2908890600401613c05565b60206040518083038186803b1580156117ca57600080fd5b505afa1580156117de573d6000803e3d6000fd5b505050506040513d601f19601f820116820180604052508101906118029190613691565b1561198e57336000908152600b60205260409020600201546118249085613178565b336000908152600b60205260408082206002019290925590518691906001600160a01b038316908690889061185890613a7c565b600060405180830381858888f193505050503d8060008114611896576040519150601f19603f3d011682016040523d82523d6000602084013e61189b565b606091505b50909150506001811515148015611933575060405163a9059cbb60e01b81526001600160a01b0383169063a9059cbb906118db9033908a90600401613c19565b602060405180830381600087803b1580156118f557600080fd5b505af1158015611909573d6000803e3d6000fd5b505050506040513d601f19601f8201168201806040525081019061192d9190613691565b15156001145b1561033457866001600160a01b0316336001600160a01b03167fcb5d2a66d0a4ee459719d50735cccb6dc27380ebf44ba11c4cc73b49d85b8f048860405161197b9190613dd5565b60405180910390a3600293505050611993565b600091505b50600a805460ff60a01b191690559392505050565b60006119b333610bc3565b15610b1d5760016001600160a01b03831660009081526002602081905260409091205460ff16908111156119e357fe5b1415610bbb576000826040516020016119fc9190613926565b6040516020818303038152906040528051906020012090506000611a1f82612cc7565b9050600080548210611a3357506001611a50565b6000611a3e84612d95565b90506000548110611a4e57600191505b505b60018115151415611712576001600160a01b038516600090815260026020818152604092839020805460ff1916909217909155600380546000190190559051611a9f91610d9d91429101613964565b6000546003541015611ac75760026003541115611ac157600354600055611ac7565b60026000555b611ad083612f46565b507f79830203ee788345fbc4b7afa193ed483738eaecd94975fa1fa50c09c9a5be1f85604051611b009190613c05565b60405180910390a160039350505050610b21565b600c54606090819061ffff1667ffffffffffffffff81118015611b3657600080fd5b50604051908082528060200260200182016040528015611b7057816020015b611b5d6132cd565b815260200190600190039081611b555790505b50600c549091506201000090046001600160a01b031660005b600c5461ffff9081169082161015611c3e576001600160a01b038281166000908152600b6020908152604091829020825160c08101845281548086168252600160a01b900460ff161515928101929092526001810154928201929092526002820154606082015260038201546080820152600482015490921660a08301528451909190859061ffff8516908110611c1c57fe5b6020908102919091010152600401546001600160a01b03169150600101611b89565b509091505090565b6000611c5133610bc3565b15610b1d57600082604051602001611c69919061397f565b6040516020818303038152906040528051906020012090506000611c8c82612cc7565b9050600080548210611ca057506001611cbd565b6000611cab84612d95565b90506000548110611cbb57600191505b505b60018115151415610b1157600a80546001600160a01b0319166001600160a01b0387161790556115e483612f46565b6000611cf733610bc3565b15610b1d57600082118015611d0e57506003548211155b15610bbb57611d1b613317565b828152426202a30001602082019081526006805460018101825560009190915282517ff652222313e28459528d920b65115c16c04f3efc82aaedc97be59f3f377c0d3f60039092029182015590517ff652222313e28459528d920b65115c16c04f3efc82aaedc97be59f3f377c0d408201556040909101517ff652222313e28459528d920b65115c16c04f3efc82aaedc97be59f3f377c0d41909101805460ff1916911515919091179055506002610b21565b600f546000906001600160a01b0383811691161415610b1d57506001610b21565b6009546001600160a01b031681565b6001600160a01b03166000908152600b602052604090206003015490565b600f546001600160a01b031681565b6000611e3633610bc3565b15610b1d57600082604051602001611e4e91906139c8565b6040516020818303038152906040528051906020012090506000611e7182612cc7565b9050600080548210611e8557506001611ea2565b6000611e9084612d95565b90506000548110611ea057600191505b505b60018115151415610b11575050601380546301000000600160b81b03191663010000006001600160a01b038616021790555060029050610b21565b60005490565b6001600160a01b03166000908152600b602052604090206002015490565b600954600090819081906060906001600160a01b0316331415611ff7576008548514611f3657611f2f61318d565b5060088590555b6000196012541415611f5757611f4a612e9f565b5043601255611f5761323f565b60135460ff16151560011415611f7157611f6f612e9f565b505b604080516020810190915260008082526013549091829160ff6101009091041615156001148015611fca575060135462010000900460ff16151560011480611fca5750601354630100000090046001600160a01b031615155b15611fe75750506040805160208101909152600081526001915030905b6001965091945092509050612012565b50506040805160208101909152600080825260019350915081905b92959194509250565b600a546001600160a01b031681565b60115481565b6001546001600160a01b031681565b6007818154811061204c57fe5b6000918252602091829020600491909102018054600180830154600280850154600386018054604080516101009783161588026000190190921694909404601f81018a90048a0282018a0190945283815260ff8716995094860460e01b97650100000000009096046001600160a01b039081169794169591949290918301828280156121195780601f106120ee57610100808354040283529160200191612119565b820191906000526020600020905b8154815290600101906020018083116120fc57829003601f168201915b5050505050905086565b600a54600090600160a01b900460ff161561213d57600080fd5b600a805460ff60a01b1916600160a01b179055600e546040805163a02d4b9960e01b815290516001600160a01b0390921691600091839163a02d4b9991600480820192602092909190829003018186803b15801561219a57600080fd5b505afa1580156121ae573d6000803e3d6000fd5b505050506040513d601f19601f820116820180604052508101906121d29190613708565b90506000826001600160a01b031663bcbca73630846040518363ffffffff1660e01b8152600401612204929190613c19565b60206040518083038186803b15801561221c57600080fd5b505afa158015612230573d6000803e3d6000fd5b505050506040513d601f19601f820116820180604052508101906122549190613708565b905084811061234c576040516321ce391360e01b8152617530906000906001600160a01b038616906321ce39139061229490309087908790600401613c62565b602060405180830381600087803b1580156122ae57600080fd5b505af11580156122c2573d6000803e3d6000fd5b505050506040513d601f19601f820116820180604052508101906122e69190613691565b90508015612340577f6b7c2047c71c97dd438fbeeb55226fb17bece53ecc02b013f3da05ed619ab160878460405161231f929190613840565b60405180910390a160105461233490886109ce565b60105560029550612345565b600195505b5050612351565b600093505b5050600a805460ff60a01b1916905550919050565b600a54604051630487e9b760e41b81526000916001600160a01b03169063487e9b7090612397908590600401613c05565b60206040518083038186803b1580156123af57600080fd5b505afa1580156123c3573d6000803e3d6000fd5b505050506040513d601f19601f820116820180604052508101906123e79190613691565b151560011415610b1d576123fa33610bc3565b15610bbb576000826040516020016124129190613a7f565b604051602081830303815290604052805190602001209050600061243582612cc7565b905060008054821061244957506001612466565b600061245484612d95565b9050600054811061246457600191505b505b6001811515141561171257600e80546001600160a01b0319166001600160a01b03871617905561249583612f46565b5060039350505050610b21565b60006124ad33610bc3565b15610b1d576000826040516020016124c59190613b42565b60405160208183030381529060405280519060200120905060006124e882612cc7565b90506000805482106124fc57506001612519565b600061250784612d95565b9050600054811061251757600191505b505b60018115151415610b115750506013805460ff19168415151790555060029050610b21565b600a54600090600160a01b900460ff161561255857600080fd5b600a805460ff60a01b1916600160a01b17905581612574613174565b101561257f57600080fd5b8161258933611ee3565b101561259457600080fd5b823b8061265757336000908152600b60205260409020600201546125b89084613178565b336000908152600b60205260408082206002019290925590516001600160a01b0386169185156108fc02918691818181858888f19350505050158015612602573d6000803e3d6000fd5b50836001600160a01b0316336001600160a01b03167fdd5bc7ed6335b8f3b3dd75840273bcbb87f41a86115df7d58512f04b3eae2a42856040516126469190613dd5565b60405180910390a360019150611507565b5050600a805460ff60a01b19169055506000919050565b600061267933610bc3565b15610b1d5760065463ffffffff83161015610bbb5760035460068363ffffffff16815481106126a457fe5b906000526020600020906003020160000154116128195760068263ffffffff16815481106126ce57fe5b600091825260209091206002600390920201015460ff16158015612716575060068263ffffffff168154811061270057fe5b9060005260206000209060030201600101544211155b156128115760008260405160200161272e919061389f565b604051602081830303815290604052805190602001209050600061275182612cc7565b905060008054821061276557506001612782565b600061277084612d95565b9050600054811061278057600191505b505b600181151514156128055760068563ffffffff16815481106127a057fe5b906000526020600020906003020160000154600081905550600160068663ffffffff16815481106127cd57fe5b60009182526020909120600390910201600201805460ff19169115159190911790556127f883612f46565b5060059350505050610b21565b60049350505050610b21565b506003610b21565b506002610b21565b60008060048351106128e2578260008151811061283a57fe5b602001015160f81c60f81b6001600160f81b03191660e01c60088460018151811061286157fe5b016020015185516001600160f81b031990911690911c60e01c906010908690600290811061288b57fe5b016020015186516001600160f81b031990911690911c60e01c90601890879060039081106128b557fe5b602001015160f81c60f81b6001600160f81b0319166001600160e01b031916901c60e01c01010160e01b90505b6007805460018101808355600083815292919081106128fd57fe5b6000918252602091829020600491909102018054600160ff19909116811765010000000000600160c81b031916336501000000000002178255810180546001600160a01b0319166001600160a01b038a1617905560028101879055855190925061296f9160038401919087019061333a565b50805464ffffffff00191661010060e084901c0217815560405185906001600160a01b038816907fcb28d23b9b47350cc324953920d36be23cb21648fd8e65e9fc444fd726562dd4906129c3908890613d8a565b60405180910390a350600195945050505050565b6001600160a01b0381166000908152600b60205260408120600381015460125460018301544391909103919091039015801590612a145750600081115b15612a9f57612a41606460186008548486600101540202901c81612a3457fe5b60028501549190046109ce565b60028301819055601254430360038401556040516001600160a01b038616917f6d930e4b5e1176c75ca67ccae2a6d55118ce72f4fd484780717d49baa104015c91612a8e91908590613840565b60405180910390a29150610b219050565b600092505050610b21565b6000612ab533610bc3565b15610b1d57600082604051602001612acd9190613afb565b6040516020818303038152906040528051906020012090506000612af082612cc7565b9050600080548210612b0457506001612b21565b6000612b0f84612d95565b90506000548110612b1f57600191505b505b60018115151415610b115750506013805462ff0000191662010000851515021790555060029050610b21565b6001600160a01b03166000908152600b6020526040902054600160a01b900460ff1690565b612b7a6132cd565b506001600160a01b039081166000908152600b6020908152604091829020825160c08101845281548086168252600160a01b900460ff16151592810192909252600181015492820192909252600282015460608201526003820154608082015260049091015490911660a082015290565b6001600160a01b031660009081526002602052604090205460ff1690565b600080548210610b1d57506001610b21565b6000612c2633610bc3565b15610b1d57600082604051602001612c3e9190613a31565b6040516020818303038152906040528051906020012090506000612c6182612cc7565b9050600080548210612c7557506001612c92565b6000612c8084612d95565b90506000548110612c9057600191505b505b60018115151415610b1157600980546001600160a01b0319166001600160a01b0387161790556115e483612f46565b60035481565b600080612cd383613299565b6000908152600460205260409020600201549392505050565b600e546001600160a01b031681565b6000612d0633610bc3565b15610b1d57600082604051602001612d1e9190613863565b6040516020818303038152906040528051906020012090506000612d4182612cc7565b9050600080548210612d5557506001612d72565b6000612d6084612d95565b90506000548110612d7057600191505b505b60018115151415610b115760029350505050610b21565b600d5490565b60085490565b6000612da033610bc3565b15610b1d576000612db083613299565b600354600082815260046020526040902060020154919250118015612e2b5750600081815260046020908152604080832033845290915281205460ff166003811115612df857fe5b1480612e2b57506003600082815260046020908152604080832033845290915290205460ff166003811115612e2957fe5b145b15612e86576000818152600460208181526040808420600281018054600190810190915533808752828552928620805460ff191682179055938352830180549384018155845292200180546001600160a01b03191690911790555b6000908152600460205260409020600201549050610b21565b600c5460009081906201000090046001600160a01b0316815b600c5461ffff9081169082161015611c3e576001600160a01b0382166000908152600b6020526040902060038101546012544303038015612f2e57612f0e606460186008548486600101540202901c81612a3457fe5b6002830155601254430360038301819055851015612f2e57816003015494505b50600401546001600160a01b03169150600101612eb8565b6000612f5133610bc3565b15610b1d576000612f6183613299565b6000818152600460205260409020600201549091501561303b5760005b600082815260046020526040902060010154811015612fff576000828152600460205260408120600181018054600393919085908110612fba57fe5b60009182526020808320909101546001600160a01b031683528201929092526040019020805460ff19166001836003811115612ff257fe5b0217905550600101612f7e565b50600081815260046020526040812061301d916001909101906133b8565b60009081526004602052604081206002908101919091559050610b21565b6001915050610b21565b6005548160405160200161305a929190613840565b60408051601f19818403018152919052805160209091012060055550565b600080858585604051602001613090939291906137d4565b604051602081830303815290604052805190602001209050828114156130ba5760019150506130c0565b60009150505b949350505050565b600c546201000090046001600160a01b031660005b600c5461ffff9081169082161015613170576001600160a01b0382166000908152600b60205260409020601254430380156131335761312d606460186008548486600101540202901c81612a3457fe5b60028301555b506000600180830191909155815460ff60a01b19168255600490910180546001600160a01b031981169091556001600160a01b03169250016130dd565b5050565b4790565b60008282111561318757600080fd5b50900390565b600c5460009081906201000090046001600160a01b0316815b600c5461ffff9081169082161015611c3e576001600160a01b0382166000908152600b6020526040812060038101546012549192439290920303600019019081131561322757613207606460186008548486600101540202901c81612a3457fe5b600283015560125443036003830181905585101561322757816003015494505b50600401546001600160a01b031691506001016131a6565b600c546201000090046001600160a01b031660005b600c5461ffff9081169082161015613170576001600160a01b039182166000908152600b60205260409020601254430360038201556004015490911690600101613254565b6000600554826040516020016132b0929190613840565b604051602081830303815290604052805190602001209050919050565b6040518060c0016040528060006001600160a01b0316815260200160001515815260200160008152602001600081526020016000815260200160006001600160a01b031681525090565b604051806060016040528060008152602001600081526020016000151581525090565b828054600181600116156101000203166002900490600052602060002090601f016020900481019282601f1061337b57805160ff19168380011785556133a8565b828001600101855582156133a8579182015b828111156133a857825182559160200191906001019061338d565b506133b49291506133d9565b5090565b50805460008255906000526020600020908101906133d691906133d9565b50565b5b808211156133b457600081556001016133da565b600082601f8301126133fe578081fd5b813561341161340c82613e2b565b613e04565b81815291506020808301908481018184028601820187101561343257600080fd5b60005b8481101561345157813584529282019290820190600101613435565b505050505092915050565b600082601f83011261346c578081fd5b813567ffffffffffffffff811115613482578182fd5b613495601f8201601f1916602001613e04565b91508082528360208285010111156134ac57600080fd5b8060208401602084013760009082016020015292915050565b6000602082840312156134d6578081fd5b81356109e081613e4b565b600080604083850312156134f3578081fd5b82356134fe81613e4b565b946020939093013593505050565b600080604083850312156134f3578182fd5b600080600060608486031215613532578081fd5b833561353d81613e4b565b925060208401359150604084013567ffffffffffffffff81111561355f578182fd5b61356b8682870161345c565b9150509250925092565b600080600060608486031215613589578283fd5b833561359481613e4b565b95602085013595506040909401359392505050565b6000806000606084860312156135bd578283fd5b833567ffffffffffffffff808211156135d4578485fd5b818601915086601f8301126135e7578485fd5b81356135f561340c82613e2b565b80828252602080830192508086018b82838702890101111561361557898afd5b8996505b8487101561364057803561362c81613e4b565b845260019690960195928101928101613619565b509097508801359350505080821115613657578384fd5b50613664868287016133ee565b925050604084013590509250925092565b600060208284031215613686578081fd5b81356109e081613e60565b6000602082840312156136a2578081fd5b81516109e081613e60565b6000602082840312156136be578081fd5b5035919050565b600080604083850312156136d7578182fd5b823567ffffffffffffffff8111156136ed578283fd5b6136f98582860161345c565b95602094909401359450505050565b600060208284031215613719578081fd5b5051919050565b600060208284031215613731578081fd5b813563ffffffff811681146109e0578182fd5b60008151808452815b818110156137695760208185018101518683018201520161374d565b8181111561377a5782602083870101525b50601f01601f19169290920160200192915050565b80516001600160a01b03908116835260208083015115159084015260408083015190840152606080830151908401526080808301519084015260a09182015116910152565b835160009082906020808801845b838110156138075781516001600160a01b0316855293820193908201906001016137e2565b50508651818801939250845b8181101561382f57845184529382019392820192600101613813565b505094815290930195945050505050565b918252602082015260400190565b6001600160e01b031991909116815260040190565b7f736574436f6e7465726d696e6f7573446973747269627574696f6e416d6f756e815261747360f01b6020820152602281019190915260420190565b7f61646d696e436f6e6669726d6174696f6e5468726573686f6c6450726f706f73815261185b60f21b602082015260e09190911b6001600160e01b031916602282015260260190565b7f726574726965766545787465726e616c46756e64734166746572446574616368815260609190911b6001600160601b031916602082015260340190565b7f61646d696e697374726174696f6e5265766f636174696f6e566f746500000000815260609190911b6001600160601b031916601c82015260300190565b661c995d9bdad95960ca1b8152600781019190915260270190565b7f73657453687966744b7963436f6e747261637452656769737472794164647265815261737360f01b602082015260609190911b6001600160601b031916602282015260360190565b7f766f746541646d696e55706461746542656e65666163746f724164647265737381526515185c99d95d60d21b602082015260609190911b6001600160601b0319166026820152603a0190565b671c1c9bdb5bdd195960c21b8152600881019190915260280190565b7f73657453797374656d446973747269627574696f6e436f6e74726163744164648152637265737360e01b602082015260609190911b6001600160601b031916602482015260380190565b90565b7f73657453687966744b7963436f6e747261637441646472657373000000000000815260609190911b6001600160601b031916601a820152602e0190565b7f7072696d655265766f636174696f6e4d616e6167657241646472657373000000815260609190911b6001600160601b031916601d82015260310190565b7f766f746541646d696e53686f756c6452656d6f766542656e65666163746f725081526965726d616e656e746c7960b01b602082015290151560f81b602a820152602b0190565b7f766f746541646d696e53686f756c64496e74656772617465436f6e7465726d6981527f6e6f7573446973747269627574696f6e734f6e55706461746500000000000000602082015290151560f81b6039820152603a0190565b73383937b6b7ba32a0b236b4b734b9ba3930ba37b960611b815260609190911b6001600160601b031916601482015260280190565b7f766f746541646d696e53686f756c6455706461746542656e65666163746f7200815290151560f81b601f82015260200190565b6001600160a01b0391909116815260200190565b6001600160a01b03929092168252602082015260400190565b600060018060a01b038516825283602083015260606040830152613c596060830184613744565b95945050505050565b6001600160a01b039390931683526020830191909152604082015260600190565b6020808252825182820181905260009190848201906040850190845b81811015613cc557613cb283855161378f565b9284019260c09290920191600101613c9f565b50909695505050505050565b901515815260200190565b91151582526001600160a01b0316602082015260400190565b841515815283151560208201526001600160a01b0383166040820152608060608201819052600090613d2990830184613744565b9695505050505050565b86151581526001600160e01b0319861660208201526001600160a01b038581166040830152841660608201526080810183905260c060a08201819052600090613d7e90830184613744565b98975050505050505050565b600060208252613d9d6020830184613744565b9392505050565b6020810160038310613db257fe5b91905290565b60c081016109e3828461378f565b61ffff91909116815260200190565b90815260200190565b92835260208301919091521515604082015260600190565b60ff91909116815260200190565b60405181810167ffffffffffffffff81118282101715613e2357600080fd5b604052919050565b600067ffffffffffffffff821115613e41578081fd5b5060209081020190565b6001600160a01b03811681146133d657600080fd5b80151581146133d657600080fdfea2646970667358221220878eb82282287f73344655ec11bb65a828c98eeca2460206ac48b124779baab064736f6c63430007010033",
  "immutableReferences": {},
  "source": "pragma solidity ^0.7.1;\npragma experimental ABIEncoderV2;\n//SPDX-License-Identifier: UNLICENSED\n\nimport \"./Libraries/SafeMath.sol\";\nimport \"./Libraries/BytesLib.sol\";\n\nimport \"./Interfaces/IErc223.sol\";\n\nimport \"./Interfaces/IShyftKycContract.sol\";\nimport \"./Interfaces/IShyftKycContractRegistry.sol\";\nimport \"./Interfaces/IBlockRewardDistributor.sol\";\nimport \"./Interfaces/IBlockRewardUpdater.sol\";\nimport \"./Interfaces/IShyftConduit.sol\";\nimport \"./Administrable.sol\";\n\nimport \"./ECRecovery.sol\";\nimport \"./Interfaces/IShyftConduit.sol\";\n\n/// @dev | Shyft Conduit\n///      |\n///      | conduit\n///      | /knd(y)oot/\n///      | 1. a channel for conveying water or other fluid.\n///      |\n///      | conterminous\n///      | /kntrmns/\n///      | 1. sharing a common boundary.\n///      |\n///      | This contract manages the Shyft inflation organization and delegation to an Administrable distribution by value.\n///      | Because the block reward never changes (only the difficulty parameter), there is no really complex math involved.\n///      |\n///      | We use linked lists for the Conterminous linkages because in the case of a new array, the list can be easily\n///      | associated with the basic mappings without creating extra storage copies.\n///      | Contextually, any Conduit formed by means of a network inflation is unable to be laundered through any means other\n///      | than 100% network control. Network inflation is the purest of commodities, requiring physical resource production\n///      | to \"game\", making it a much higher fruit than existing means.\n\n//@note:@todo:@test: make comprehensive tests for this, validating the total distribution.\n\ncontract ShyftConduit is Administrable, IErc223ReceivingContract, IBlockRewardDistributor, IBlockRewardUpdater, IShyftConduit {\n//    event EVT_conterminousInputValuesEqualsKeccakHash(  address[] conterminousAddresses,\n//                                                        uint256[] conterminousDistributionPercentages_leftShifted24Bits,\n//                                                        uint256 conterminousGeneration,\n//                                                        bytes32 distributionKeyKeccak,\n//                                                        bytes32 referenceHash);\n//    event EVT_showBlockReward(uint shyftBlockReward, uint inflationAmount);\n//\n//    event EVT_doIntegrate(bool shouldIntegrate);\n//\n//    event EVT_doUpdateStep( address _originalAddress,\n//                            uint _inflationAmount,\n//                            bool preUpdateBenefactorStepRequired_val,\n//                            address preUpdateBenefactorExContractAddress_val,\n//                            bytes preUpdateBenefactorExForwardedBytes_val);\n\n    /// @dev Event for an conduit action that withdraws funds to itself only\n    event EVT_conduitWithdrawnFunds(uint256 amount, uint256 availableBalance);\n\n    /* ERC223 events */\n    /// @dev Event for fallback function of erc223 tokens.\n    event EVT_Erc223TokenFallback(address indexed _from, uint256 indexed _value, bytes _data);\n\n//    //@note: required for tests from kyc contract send\n//    event EVT_receivedNativeBalance(address _from, uint256 _value);\n\n    /// @dev Event for other tokens' reversal of transfer.\n    event EVT_otherTokensReverseTransfer(uint256 indexed tokenIndex, address indexed tokenContract, uint256 value);\n\n    /// @dev Event integrating an individual's account.\n    event EVT_integratedIndividual(address indexed conterminousAddress, uint256 whiteShyftedBalance, uint256 numBlocksProcessed);\n\n    /// @dev Event for withdrawing to the user's own trusted account.\n    event EVT_withdrawToTrustedAccount(address indexed msgSender, address indexed shyftKycAddress, uint256 value);\n\n    /// @dev event for withdrawing to native.\n    event EVT_withdrawToNative(address indexed msgSender, address indexed to, uint256 value);\n\n    /// @dev event for withdrawing to an external contract.\n    event EVT_withdrawToExternalContract(address indexed msgSender, address indexed contractAddress, uint256 value);\n\n    /// @dev using SafeMath library for uint256\n    using SafeMath for uint256;\n\n    /// @dev simple constant for a maximum 256 bit value.\n    uint256 constant MAX_256 = 0xffffffffffffffffffffffffffffffffffffffffffffffffffffffffffffffff;\n\n    /// @dev ERC223 structs\n    struct erc223Token {\n        bool isActive;\n        bytes4 sig;\n\n        address originContract;\n        address sender;\n        uint value;\n        bytes data;\n    }\n\n    /// @dev The array of erc223 token bundles.\n    erc223Token[] public allErc223TokenBundles;\n\n    /// @dev The current Shyft runtime inflation reward.\n    uint constant runtimeInflationReward = 7.45814307 ether;\n    /// @dev The current Shyft staking pool reward.\n    uint constant stakingPoolReward = 7.45814307 ether;\n    /// @dev The current Shyft block reward\n    uint256 shyftBlockReward = runtimeInflationReward + stakingPoolReward;\n\n    /// @dev Public address for the Shyft Distribution Contract address (block reward contract).\n    address public systemDistributionContractAddress;\n    /// @dev Public address for the Shyft Kyc Contract Registry address.\n    address public shyftKycContractRegistryAddress;\n\n    /// @dev Mutex lock, prevent recursion in functions that use external function calls\n    bool locked;\n\n    /// @dev Modifier that checks for array length equality.\n    modifier checkAddressAndValuesArrayLengthsAreEqual(address[] memory _addresses, uint256[] memory _values) {\n        require(_addresses.length == _values.length);\n        _;\n    }\n\n    /// @dev Mapping for address to Conterminous account info.\n    mapping(address => ConterminousInfo) allConterminousInfo;\n\n    /// @dev total count for number of Contermious accounts.\n    uint16 public conterminousCount = 0;\n\n    /// @dev conterminous address for first of the forward linked list.\n    address conterminousZerothAddress = address(0);\n    /// @dev nonce for the \"setConterminousDistributionAmounts\" \"_distributionKeyKeccak\" input.\n    uint256 conterminousGeneration;\n\n    /// @dev Public Address for the Shyft Kyc Contract\n    address public shyftKycContractAddress = address(0);\n\n    /// @dev Public Address for the Prime Revocation Manager.\n    address public primeRevocationManagerAddress = address(0);\n\n    /// @dev Signature for triggering 'tokenFallback' in erc223 receiver contracts\n    bytes4 constant shyftConduitSig = bytes4(keccak256(\"fromShyftConduit(address,address,uint256)\")); // function signature\n\n    /// @dev Signature from 'tokenFallback' sender in from kyc contract\n    bytes4 constant shyftKycContractSig = bytes4(keccak256(\"fromShyftKycContract(address,address,uint256,uint256)\")); // function signature\n\n    /// @dev Kyc'd funds sent into this conduit manually.\n    uint256 public manualKycFundsAdded;\n\n    /// @dev External funds balance.\n    /// @notice | There are three ways the Conduit can receive funds:\n    ///      | 1) by proxy via the kyc contract it's linked to, which can be set up to only receive kyc'd funds.\n    ///      | 2) by manual transfer of funds.\n    ///      | 3) by the Shyft network inflation (or similar mechanisms).\n    uint256 public externalFundsBalance;\n\n    /// @dev the origin (first) block that this contract was updated (distributed) to.\n    uint256 public originBlockNumber = MAX_256;\n\n    /// @dev Initializes the Conduit with the contract owner as the sender.\n    constructor() {\n        owner = msg.sender;\n    }\n\n    /// @dev Gets the current shyft block reward.\n    /// @return result the current shyft block reward.\n\n    function getShyftBlockReward() public view returns (uint256 result) {\n        return shyftBlockReward;\n    }\n\n    /// @dev Gets the number of Erc223 compatible token bundles that have been sent to this contract.\n    /// @return result the number of Erc223 compatible token bundles that have been sent to this contract.\n\n    function getNumErc223TokenBundles() public view returns (uint256 result) {\n        return allErc223TokenBundles.length;\n    }\n\n    /// @param _systemDistributionContractAddress The smart contract address that the block reward is being distributed from.\n    /// @dev | Sets the system distribution (block reward) contract that this conduit is receiving funds from.\n    ///      | Uses Multi-signature permissions.\n    /// @return result\n    ///    | 0 = not an administrator\n    ///    | 1 = not enough administrators have permissioned change\n    ///    | 2 = system distribution contract address set\n\n    function setSystemDistributionContractAddress(address _systemDistributionContractAddress) public override returns (uint8 result) {\n        if (isAdministrator(msg.sender)) {\n            bytes32 keyKeccak = keccak256(abi.encodePacked(\"setSystemDistributionContractAddress\", _systemDistributionContractAddress));\n\n            uint256 numPermissions = getPermissionsForMultisignKey(keyKeccak);\n\n            bool permittedToModify;\n            if (numPermissions >= adminConfirmationThreshold) {\n                permittedToModify = true;\n            } else {\n                uint256 numConfirmedPermissions = adminApplyAndGetPermissionsForMultisignKey(keyKeccak);\n\n                if (numConfirmedPermissions >= adminConfirmationThreshold) {\n                    permittedToModify = true;\n                }\n            }\n\n            if (permittedToModify == true) {\n                systemDistributionContractAddress = _systemDistributionContractAddress;\n\n                //@note:@here:@security if this function is ill-used by a\n                // malicious admin, the worst they can do is reset the permissions\n                // of the keys, and they have to be the one to execute a key\n                // permissioning to get this far in the stack.\n                adminResetPermissionsForMultisignKey(keyKeccak);\n\n                //system distribution contract address set\n                return 2;\n\n            } else {\n                //not enough administrators have permissioned change\n                return 1;\n            }\n        } else {\n            //not an administrator\n            return 0;\n        }\n    }\n\n    /// @param _shyftKycContractRegistryAddress The smart contract address of the Shyft Kyc Contract Registry.\n    /// @dev | Sets the shyft kyc contract registry for purposes of making sure that trusted assets are routed across Trust Channels that only existing Shyft Kyc Contract (versions) can honour.\n    ///      | Uses Multi-signature permissions.\n    /// @return result\n    ///    | 0 = not an administrator\n    ///    | 1 = not enough administrators have permissioned change\n    ///    | 2 = kyc contract registry address set\n\n    function setShyftKycContractRegistryAddress(address _shyftKycContractRegistryAddress) public override returns (uint8 result) {\n        if (isAdministrator(msg.sender)) {\n            bytes32 keyKeccak = keccak256(abi.encodePacked(\"setShyftKycContractRegistryAddress\", _shyftKycContractRegistryAddress));\n\n            uint256 numPermissions = getPermissionsForMultisignKey(keyKeccak);\n\n            bool permittedToModify;\n\n            if (numPermissions >= adminConfirmationThreshold) {\n                permittedToModify = true;\n            } else {\n                uint256 numConfirmedPermissions = adminApplyAndGetPermissionsForMultisignKey(keyKeccak);\n\n                if (numConfirmedPermissions >= adminConfirmationThreshold) {\n                    permittedToModify = true;\n                }\n            }\n\n            if (permittedToModify == true) {\n                shyftKycContractRegistryAddress = _shyftKycContractRegistryAddress;\n\n                //@note:@here:@security if this function is ill-used by a\n                // malicious admin, the worst they can do is reset the permissions\n                // of the keys, and they have to be the one to execute a key\n                // permissioning to get this far in the stack.\n                adminResetPermissionsForMultisignKey(keyKeccak);\n\n                //kyc contract registry address set\n                return 2;\n\n            } else {\n                //not enough administrators have permissioned change\n                return 1;\n            }\n        } else {\n            //not an administrator\n            return 0;\n        }\n    }\n\n    /// @param _shyftKycContractAddress The smart contract address of the Shyft Kyc Contract.\n    /// @dev | Sets the shyft kyc contract that will be used throughout the rest of the function calls.\n    ///      | The Shyft Kyc Registry Contract address must be set before this function will call properly.\n    ///      | Uses Multi-signature permissions.\n    /// @return result\n    ///    | 0 = not a valid kyc contract address\n    ///    | 1 = not an administrator\n    ///    | 2 = not enough administrators have permissioned change\n    ///    | 2 = set kyc contract address\n\n    function setShyftKycContractAddress(address _shyftKycContractAddress) public override returns (uint8 result) {\n        if (IShyftKycContractRegistry(shyftKycContractRegistryAddress).isShyftKycContract(_shyftKycContractAddress) == true) {\n            if (isAdministrator(msg.sender)) {\n                bytes32 keyKeccak = keccak256(abi.encodePacked(\"setShyftKycContractAddress\", _shyftKycContractAddress));\n\n                uint256 numPermissions = getPermissionsForMultisignKey(keyKeccak);\n\n                bool permittedToModify;\n\n                if (numPermissions >= adminConfirmationThreshold) {\n                    permittedToModify = true;\n                } else {\n                    uint256 numConfirmedPermissions = adminApplyAndGetPermissionsForMultisignKey(keyKeccak);\n\n                    if (numConfirmedPermissions >= adminConfirmationThreshold) {\n                        permittedToModify = true;\n                    }\n                }\n\n                if (permittedToModify == true) {\n                    shyftKycContractAddress = _shyftKycContractAddress;\n\n                    //@note:@here:@security if this function is ill-used by a\n                    // malicious admin, the worst they can do is reset the permissions\n                    // of the keys, and they have to be the one to execute a key\n                    // permissioning to get this far in the stack.\n                    adminResetPermissionsForMultisignKey(keyKeccak);\n\n                    //set kyc contract address\n                    return 3;\n\n                } else {\n                    //not enough administrators have permissioned change\n                    return 2;\n                }\n            } else {\n                //not an administrator\n                return 1;\n            }\n        } else {\n            //not a valid kyc contract address\n            return 0;\n        }\n    }\n\n    //@note: this is a *secondary* input pool. it an be used to push and pull funds to a secondary account.\n    // *normal native fuel transfer function*\n    //@note:@todo:@critical: do we want to send these external funds back? maybe governance reserve bucket?\n    receive() external payable {\n        externalFundsBalance = externalFundsBalance.add(msg.value);\n    }\n\n    /// @param _recipient The public address of the recipient of the external funds.\n    /// @dev | Sends external (sent to this contract re: receive function) funds to a specific address. *Only able to be done after this contract has been detached from a conduit flow*.\n    ///      | Uses Multi-signature permissions.\n    /// @return result\n    ///    | 0 = not an administrator\n    ///    | 1 = not enough administrators have permissioned change\n    ///    | 2 = assets sent to recipient address\n\n    function retrieveExternalFundsAfterDetach(address _recipient) public override returns (uint8 result) {\n        require(checkSelfBalance() > 0);\n\n        if (isAdministrator(msg.sender)) {\n            bytes32 keyKeccak = keccak256(abi.encodePacked(\"retrieveExternalFundsAfterDetach\", _recipient));\n\n            uint256 numPermissions = getPermissionsForMultisignKey(keyKeccak);\n\n            bool permittedToModify;\n\n            if (numPermissions >= adminConfirmationThreshold) {\n                permittedToModify = true;\n            } else {\n                uint256 numConfirmedPermissions = adminApplyAndGetPermissionsForMultisignKey(keyKeccak);\n\n                if (numConfirmedPermissions >= adminConfirmationThreshold) {\n                    permittedToModify = true;\n                }\n            }\n\n            if (permittedToModify == true) {\n                adminResetPermissionsForMultisignKey(keyKeccak);\n\n                if (shyftBlockReward == 0) {\n                    // use \"call\" with unbound gas, sending the entire balance of this contract to this recipient.\n                    (bool success, ) = _recipient.call{value: address(this).balance}(\"\");\n\n                    // set \"external\" funds value to zero\n                    externalFundsBalance = 0;\n\n                    //revert if error, since this is a transactional event.\n                    if (success == false) {\n                        revert();\n                    }\n\n                    // assets sent to recipient address\n                    return 3;\n                } else {\n                    // not currently detached\n                    return 2;\n                }\n            } else {\n                // not enough administrators have permissioned change\n                return 1;\n            }\n        } else {\n            // not an administrator\n            return 0;\n        }\n    }\n\n    /// @dev the mutex modifier.\n    modifier mutex() {\n        if (locked) revert();\n        locked = true;\n        _;\n        locked = false;\n    }\n\n    /// @param _amount The amount of native tokens that the caller is making available to this Shyft Conduit instance.\n    /// @dev | From an external Verified Shyft Kyc Contract (that has been set previously by administrators), move native fuel tokens from that verified contract's account balance that belongs to this Conduit instance.\n    ///      | Used in the case of funds not being sent directly from a block reward instance.\n    /// @notice This function does *not* need to be called when there is a block reward instance distributing native fuel tokens.\n    /// @notice If the Kyc contract instance has ever been sent a message by this Conduit contract instance to have their account only accept Trusted assets, then this flow can be considered completely Kyc'd, as the Trust Channel routing will be enforced.\n    /// @return result\n    ///    | 0 = does not have available balance\n    ///    | 1 = did not withdraw\n    ///    | 2 = transfer successful\n\n    function withdrawSafeFundsToSelfOnlyTrustRouted(uint256 _amount) mutex public override returns (uint8 result) {\n        IShyftKycContract kycContract = IShyftKycContract(shyftKycContractAddress);\n\n        uint256 nativeBip32X_type = kycContract.getNativeTokenType();\n\n        uint256 availableBalance = kycContract.getBalanceBip32X(address(this), nativeBip32X_type);\n\n        if (availableBalance >= _amount) {\n            uint256 gasAmount = 30000;\n\n            bool didWithdraw = kycContract.withdrawToExternalContract(address(this), availableBalance, gasAmount);\n\n            if (didWithdraw) {\n                emit EVT_conduitWithdrawnFunds(_amount, availableBalance);\n\n                manualKycFundsAdded = manualKycFundsAdded.add(_amount);\n\n                //transfer successful\n                result = 2;\n            } else {\n                //did not withdraw\n                result = 1;\n            }\n        } else {\n            //does not have available balance\n            result = 0;\n        }\n    }\n\n    // ** ERC 223 functionality ** //\n\n    /// @param _from The address that the token fallback is designating to receive assets.\n    /// @param _value The value transferred.\n    /// @param _data An external bytes mechanism to pass function signatures et al. to this fallback for processing.\n    /// @dev This Erc223 token fallback mechanism associates assets to the proper address.\n    /// @return ok the results from the function (should be \"true\", or else a revert condition)\n\n    function tokenFallback(address _from, uint _value, bytes memory _data) public override returns (bool ok) {\n        bytes4 tokenSig;\n\n        //make sure we have enough bytes to determine a signature\n        if (_data.length >= 4) {\n            tokenSig = bytes4(uint32(bytes4(bytes1(_data[3])) >> 24) + uint32(bytes4(bytes1(_data[2])) >> 16) + uint32(bytes4(bytes1(_data[1])) >> 8) + uint32(bytes4(bytes1(_data[0]))));\n        }\n\n        //https://github.com/Dexaran/ERC223-token-standard/blob/Recommended/Receiver_Interface.sol\n        /* tkn variable is analogue of msg variable of Ether transaction\n        *  tkn.sender is person who initiated this token transaction   (analogue of msg.sender)\n        *  tkn.value the number of tokens that were sent   (analogue of msg.value)\n        *  tkn.data is data of token transaction   (analogue of msg.data)\n        *  tkn.sig is 4 bytes signature of function\n        *  if data of token transaction is a function execution\n        */\n\n        allErc223TokenBundles.push();\n        erc223Token storage newToken = allErc223TokenBundles[allErc223TokenBundles.length - 1];\n\n        newToken.isActive = true;\n        newToken.originContract = msg.sender;\n        newToken.sender = _from;\n        newToken.value = _value;\n\n        newToken.data = _data;\n        newToken.sig = tokenSig;\n\n        emit EVT_Erc223TokenFallback(_from, _value, _data);\n\n        return true;\n    }\n\n//    function processFallbackToken(erc223Token storage newToken) internal {\n//        //assume signature like:\n//        // keccak256(abi.encodePacked(\"__revert__\", msg.sender)\n//        //\n//        // process: 0 -> send back (reverse tx)\n//        // process: 1 -> ...?\n//\n//        if (sigList[newToken.sig].isRegistered == true) {\n//            if (sigList[newToken.sig].process == 0) {\n//\n//            }\n//        }\n//    }\n\n\n    /// @param _tokenIndex The index for the return of erc223 tokens that were incorrectly sent to this address.\n    /// @notice as the erc223 spec does not define return codes, I'm assuming that any contracts that care in the future about getting assets returned to them can use specific codes + lookup values to do the proper behaviour in a relatively plain-text manner, where you could have a lookup table of various assorted (common) functionalities.\n    /// @dev This Erc223 token fallback mechanism associates assets to the proper address.\n    /// @return result\n    ///     | 0 = index is out of bounds\n    ///     | 1 = token is not active\n    ///     | 2 = msg.sender not permissioned to return tokens\n    ///     | 3 = could not reverse token transfer\n    ///     | 4 = successfully reversed token transfer\n\n    function callTokenReverseTransfer(uint256 _tokenIndex) mutex public override returns (uint8 result) {\n        if (_tokenIndex < allErc223TokenBundles.length) {\n            erc223Token storage token = allErc223TokenBundles[_tokenIndex];\n\n            if (token.isActive == true) {\n                if (isAdministrator(msg.sender) || msg.sender == token.sender) {\n                    IErc223 erc223Contract = IErc223(token.originContract);\n\n//                    bytes memory revertBytesSig = BytesLib.fromBytes32(keccak256(abi.encodePacked(\"__revert__\", address(this))));\n\n                    bytes memory empty;\n\n                    bool didTransfer = erc223Contract.transfer(token.sender, token.value, empty);\n\n                    if (didTransfer == true) {\n                        token.isActive = false;\n\n                        emit EVT_otherTokensReverseTransfer(_tokenIndex, token.sender, token.value);\n\n                        //reversed token transfer\n                        result = 4;\n                    } else {\n                        //could not reverse token transfer\n                        result = 3;\n                    }\n                } else {\n                    //msg.sender not permissioned to return tokens\n                    result = 2;\n                }\n            } else {\n                //token is not active\n                result = 1;\n            }\n        } else {\n            //index is out of bounds\n            result = 0;\n        }\n    }\n\n    // ** Conterminous management ** //\n\n    /// @param _distributionKeyKeccak The distribution key keccak that is being voted on for the Conterminous distributions.\n    /// @dev | This function takes in a keccak hash of all of the values (n/100%) that are shifted to the left by 24. (2 ^ 24 - 1) = 16777215.\n    ///      | this is to apply granularity to the distribution values of 1 in (2 ^ 24) wei equivalents.\n    ///      | http://x86asm.net/articles/fixed-point-arithmetic-and-tricks/\n    ///      | Uses Multi-signature permissions.\n    /// @notice In the UI that would manage this component, the _distributionKeyKeccak should be the keccak256 of all of the addresses and distribution percentages, along with the current \"conterminousGeneration\", acting as a nonce.\n    /// @return result\n    ///    | 0 = not an administrator\n    ///    | 1 = not enough administrators have permissioned change\n    ///    | 2 = ready to set conterminous distributions\n\n    function setConterminousDistributionAmountsPermissions(bytes32 _distributionKeyKeccak) public override returns (uint8 result) {\n        if (isAdministrator(msg.sender)) {\n            bytes32 keyKeccak = keccak256(abi.encodePacked(\"setConterminousDistributionAmounts\", _distributionKeyKeccak));\n\n            uint256 numPermissions = getPermissionsForMultisignKey(keyKeccak);\n\n            bool permittedToModify;\n\n            if (numPermissions >= adminConfirmationThreshold) {\n                permittedToModify = true;\n            } else {\n                uint256 numConfirmedPermissions = adminApplyAndGetPermissionsForMultisignKey(keyKeccak);\n\n                if (numConfirmedPermissions >= adminConfirmationThreshold) {\n                    permittedToModify = true;\n                }\n            }\n\n            if (permittedToModify == true) {\n                //ready to set conterminous distributions\n                return 2;\n            } else {\n                //not enough administrators have permissioned change\n                return 1;\n            }\n        } else {\n            //not an administrator\n            return 0;\n        }\n    }\n\n    /// @param _conterminousAddresses The public addresses to which the assigned distribution can be claimed.\n    /// @param _conterminousDistributionPercentages_leftShifted24Bits The percentage for this public address to be assigned (50, 40, 10, etc.)\n    /// @param _conterminousGeneration The conterminous generation (nonce).\n    /// @param _distributionKeyKeccak The percentage for this public address to be assigned (50, 40, 10, etc.)\n    /// @dev | This function takes in a keccak hash of all of the values, as well as the values themselves. It compares the hash of the values + the \"generation\" as a nonce, compares and returns whether it matches the reference.\n    /// @return result\n    ///    | true = hash matches keccak result\n    ///    | false = does not match keccak result\n\n    function conterminousInputValuesEqualsKeccakHash(address[] memory _conterminousAddresses,\n                                                     uint256[] memory _conterminousDistributionPercentages_leftShifted24Bits,\n                                                     uint256 _conterminousGeneration,\n                                                     bytes32 _distributionKeyKeccak) pure internal returns (bool result) {\n        bytes32 referenceHash = keccak256(abi.encodePacked(_conterminousAddresses, _conterminousDistributionPercentages_leftShifted24Bits, _conterminousGeneration));\n\n//        emit EVT_conterminousInputValuesEqualsKeccakHash(_conterminousAddresses, _conterminousDistributionPercentages_leftShifted24Bits, _conterminousGeneration, _distributionKeyKeccak, referenceHash);\n        if (referenceHash == _distributionKeyKeccak) {\n            //hash matches keccak result\n            return true;\n        } else {\n            //hash does not match keccak result\n            return false;\n        }\n    }\n\n    /// @param _conterminousAddresses The public addresses to which the assigned distribution can be claimed.\n    /// @param _conterminousDistributionPercentages_leftShifted24Bits The percentage for this public address to be assigned (50, 40, 10, etc.)\n    /// @param _distributionKeyKeccak The percentage for this public address to be assigned (50, 40, 10, etc.)\n    /// @dev | This function takes in a keccak hash of all of the values, as well as the values themselves. It compares the hash of the values + the \"generation\" as a nonce, compares and returns whether it is approved. Then it compares the percentages and makes sure it all is <= 100%. Finally, it de-lists all existing addresses (with an integration beforehand), and then adds the new list in, within a linked-list structure.\n    ///      | Uses Multi-signature permissions.\n    /// @notice In the ui that would manage this component, the _distributionKeyKeccak should be the keccak256 of all of the addresses and distribution percentages, along with the current \"conterminousGeneration\", acting as a nonce.\n    /// @return result\n    ///    | 0 = all distribution percentages added together are over 100%\n    ///    | 1 = conterminous integrations don't match\n    ///    | 2 = more administrator confirmations required\n    ///    | 3 = set conterminous distribution amounts\n\n    function setConterminousDistributionAmounts(address[] memory _conterminousAddresses,\n                                                uint256[] memory _conterminousDistributionPercentages_leftShifted24Bits,\n//                                                uint256 _blockReward,\n                                                bytes32 _distributionKeyKeccak) public override checkAddressAndValuesArrayLengthsAreEqual(_conterminousAddresses, _conterminousDistributionPercentages_leftShifted24Bits)\n                                                                                returns (uint8 result) {\n\n        bytes32 keyKeccak = keccak256(abi.encodePacked(\"setConterminousDistributionAmounts\", _distributionKeyKeccak));\n\n        uint256 totalPercentage_leftShifted24Bits;\n\n        for (uint16 i = 0; i < _conterminousAddresses.length; i++) {\n            totalPercentage_leftShifted24Bits = totalPercentage_leftShifted24Bits.add(_conterminousDistributionPercentages_leftShifted24Bits[i]);\n        }\n\n        if (totalPercentage_leftShifted24Bits <= (uint256(100) << 24)) {\n            //check to make sure the keccak of the input values + the current conterminousGeneration as a nonce equals the distribution key keccak.\n            if (conterminousInputValuesEqualsKeccakHash(_conterminousAddresses, _conterminousDistributionPercentages_leftShifted24Bits, conterminousGeneration, _distributionKeyKeccak)) {\n                //check if distribution is over threshold\n                if (isConfirmationsIsOverThreshold(getPermissionsForMultisignKey(keyKeccak)) == true) {\n                    integrateAllConterminousDistributionsAndDeWhitelist();\n\n                    for (uint16 j = 0; j < _conterminousAddresses.length; j++) {\n                        ConterminousInfo storage conterminousInfo = allConterminousInfo[_conterminousAddresses[j]];\n\n                        conterminousInfo.ownAddress = _conterminousAddresses[j];\n                        conterminousInfo.whiteShyftedDistributionPercent_leftShifted24Bits = _conterminousDistributionPercentages_leftShifted24Bits[j];\n                        conterminousInfo.whiteListed = true;\n                        conterminousInfo.lastBlockProcessed = block.number - originBlockNumber;\n\n                        //@note: create a linked list of all the conterminous linkages.\n                        if (j < _conterminousAddresses.length - 1) {\n                            conterminousInfo.nextLink = _conterminousAddresses[j + 1];\n                        } else {\n                            conterminousInfo.nextLink = address(0);\n                        }\n                    }\n\n                    conterminousCount = uint16(_conterminousAddresses.length);\n                    //@note: set first address for forward linked list.\n                    conterminousZerothAddress = _conterminousAddresses[0];\n\n                    conterminousGeneration++;\n\n                    //                shyftBlockReward = _blockReward;\n                    //\n                    adminResetPermissionsForMultisignKey(keyKeccak);\n\n                    // set conterminous distribution amounts\n                    return 3;\n                } else {\n                    // more administrator confirmations required\n                    return 2;\n                }\n            } else {\n                // conterminous integrations don't match\n                return 1;\n            }\n        } else {\n            // all distribution percentages added together are over 100%\n            return 0;\n        }\n    }\n\n    /// @dev This de-lists all existing addresses (with an integration beforehand).\n    function integrateAllConterminousDistributionsAndDeWhitelist() internal {\n        address conterminousAddress = conterminousZerothAddress;\n\n        for (uint16 i = 0; i < conterminousCount; i++) {\n            ConterminousInfo storage conterminousInfo = allConterminousInfo[conterminousAddress];\n\n            uint256 numBlocksToProcess = block.number - originBlockNumber;\n\n            if (numBlocksToProcess > 0) {\n                conterminousInfo.whiteShyftedBalance = conterminousInfo.whiteShyftedBalance.add(((conterminousInfo.whiteShyftedDistributionPercent_leftShifted24Bits * numBlocksToProcess * shyftBlockReward) >> 24) / 100);\n            }\n\n            conterminousInfo.whiteShyftedDistributionPercent_leftShifted24Bits = 0;\n\n            conterminousInfo.whiteListed = false;\n\n            conterminousAddress = conterminousInfo.nextLink;\n\n            conterminousInfo.nextLink = address(0);\n        }\n    }\n\n\n    /// @dev This integrates all of the distributions for the existing conterminous addresses.\n    /// @notice It's in everyone's best interest to run this function (or the \"integrateIndividual\" one) every block, on the Shyft blockchain there is specific block reward function that does this integration to a single degree downwards.\n    /// @return result\n    ///    | 0 = nothing to process\n    ///    | 1 -> n = n blocks processed\n    function integrateAllConterminousDistributions() internal returns (uint256 result) {\n        uint256 highestNumberOfBlocksProcessed = 0;\n\n        address conterminousAddress = conterminousZerothAddress;\n\n        for (uint16 i = 0; i < conterminousCount; i++) {\n            ConterminousInfo storage conterminousInfo = allConterminousInfo[conterminousAddress];\n\n            uint256 numBlocksToProcess = block.number - originBlockNumber - conterminousInfo.lastBlockProcessed;\n\n            if (numBlocksToProcess > 0) {\n                conterminousInfo.whiteShyftedBalance = conterminousInfo.whiteShyftedBalance.add(((conterminousInfo.whiteShyftedDistributionPercent_leftShifted24Bits * numBlocksToProcess * shyftBlockReward) >> 24) / 100);\n\n                conterminousInfo.lastBlockProcessed = block.number - originBlockNumber;\n\n                if (conterminousInfo.lastBlockProcessed > highestNumberOfBlocksProcessed) {\n                    highestNumberOfBlocksProcessed = conterminousInfo.lastBlockProcessed;\n                }\n            }\n\n            conterminousAddress = conterminousInfo.nextLink;\n        }\n\n        return highestNumberOfBlocksProcessed;\n    }\n\n    /// @dev This integrates all of the distributions for the existing conterminous addresses, but *only* for the previous blocks.\n    /// @notice It's in everyone's best interest to run this function (or the \"integrateIndividual\" one) every block, on the Shyft blockchain there is specific block reward function that does this integration to a single degree downwards.\n    /// @return result\n    ///    | 0 = nothing to process\n    ///    | 1 -> n = n blocks processed\n    function integrateAllConterminousDistributionsOnlyPreviousBlock() internal returns (uint256 result) {\n        uint256 highestNumberOfBlocksProcessed = 0;\n\n        address conterminousAddress = conterminousZerothAddress;\n\n        for (uint16 i = 0; i < conterminousCount; i++) {\n            ConterminousInfo storage conterminousInfo = allConterminousInfo[conterminousAddress];\n\n            //checks for underflow because this could theoretically be called block 0.\n            int256 numBlocksToProcess = int256(block.number) - int256(1) - int256(originBlockNumber) - int256(conterminousInfo.lastBlockProcessed);\n\n            if (numBlocksToProcess > 0) {\n                conterminousInfo.whiteShyftedBalance = conterminousInfo.whiteShyftedBalance.add(((conterminousInfo.whiteShyftedDistributionPercent_leftShifted24Bits * uint256(numBlocksToProcess) * shyftBlockReward) >> 24) / 100);\n\n                conterminousInfo.lastBlockProcessed = block.number - originBlockNumber;\n\n                if (conterminousInfo.lastBlockProcessed > highestNumberOfBlocksProcessed) {\n                    highestNumberOfBlocksProcessed = conterminousInfo.lastBlockProcessed;\n                }\n            }\n\n            conterminousAddress = conterminousInfo.nextLink;\n        }\n\n        return highestNumberOfBlocksProcessed;\n    }\n\n    /// @param _conterminousAddress The public address of the Conterminous account.\n    /// @dev This integrates all of the distributions for this specific Conterminous address.\n    /// @return result\n    ///    | 0 = nothing to process\n    ///    | 1 -> n = n blocks processed\n    function integrateIndividualConterminousDistribution(address _conterminousAddress) public override returns (uint256 result) {\n        ConterminousInfo storage conterminousInfo = allConterminousInfo[_conterminousAddress];\n        uint256 numBlocksToProcess = block.number - originBlockNumber - conterminousInfo.lastBlockProcessed;\n\n        if (conterminousInfo.whiteShyftedDistributionPercent_leftShifted24Bits > 0 && numBlocksToProcess > 0) {\n            conterminousInfo.whiteShyftedBalance = conterminousInfo.whiteShyftedBalance.add(((conterminousInfo.whiteShyftedDistributionPercent_leftShifted24Bits * numBlocksToProcess * shyftBlockReward) >> 24) / 100);\n\n            conterminousInfo.lastBlockProcessed = block.number - originBlockNumber;\n\n            emit EVT_integratedIndividual(_conterminousAddress, conterminousInfo.whiteShyftedBalance, numBlocksToProcess);\n\n            // n blocks processed\n            return numBlocksToProcess;\n        } else {\n            // nothing to process\n            return 0;\n        }\n    }\n\n    //@note:\n    // so without triggering the updateStep function (generally through \"reward\" in a block reward contract)\n    // there's a situation like the following possible:\n    //    153 cur block\n    //    140 origin block\n    //    130 last block updated\n    //  owed = 153 - 130 = 23\n    //  cur diff = 153 - 140 = 13\n    //\n    // in this situation, it's a strange condition anyhow since an integrate would be called generally anyhow\n    // regardless, it should only be distributed as the *current* diff, since that's all that can be\n    // guaranteed to be there with regular contract functioning.\n    //\n    // assumptions: all accounts are fully integrated by the time this function is called.\n\n    /// @dev this resets all of the conterminous \"last block processed\" to a relative time instead of an absolute time.\n\n    function resetAllConterminousLastBlockProcessed() internal {\n        address conterminousAddress = conterminousZerothAddress;\n\n        for (uint16 i = 0; i < conterminousCount; i++) {\n            ConterminousInfo storage conterminousInfo = allConterminousInfo[conterminousAddress];\n\n            conterminousInfo.lastBlockProcessed = block.number - originBlockNumber;\n\n            conterminousAddress = conterminousInfo.nextLink;\n        }\n    }\n\n    /// @param _shyftKycContractAddress The public address of the shyft kyc contract.\n    /// @param _value The value of the distribution that should be sent through this kyc contract address.\n    /// @param _gasToSend The amount of gas to send to this contract (30,000 suffices for the current shyft kyc contract calls.)\n    /// @dev this only withdraws to any registered ShyftKycContract. this function can *only* be called with the message sender receiving the balance in their Kyc Contract.\n    /// @return result\n    ///    | 0 = is not a registered kyc contract\n    ///    | 2 = transfer was successful\n\n    function withdrawIndividualConterminousDistributionToTrustedAccount(address _shyftKycContractAddress, uint256 _value, uint256 _gasToSend) mutex public override returns (uint8 result) {\n        require(checkSelfBalance() >= _value);\n        require(checkConterminousWhiteShyftedBalance(msg.sender) >= _value);\n\n        IShyftKycContractRegistry kycContractRegistry = IShyftKycContractRegistry(shyftKycContractRegistryAddress);\n        if (kycContractRegistry.isShyftKycContract(_shyftKycContractAddress)) {\n            allConterminousInfo[msg.sender].whiteShyftedBalance = allConterminousInfo[msg.sender].whiteShyftedBalance.sub(_value);\n\n            IShyftKycContract kycContract = IShyftKycContract(_shyftKycContractAddress);\n\n            (bool success, ) = address(_shyftKycContractAddress).call{value: _value, gas: _gasToSend}(\"\");\n\n//            //@note: after the transfer above, this contract will have token rights associated with it, at which point\n//            // it immediately transfers said rights to the message sender.\n\n             if (success == true && kycContract.transfer(msg.sender, _value) == true) {\n\n                 emit EVT_withdrawToTrustedAccount(msg.sender, _shyftKycContractAddress, _value);\n                 //transfer was successful\n                 result = 2;\n             } else {\n                //could not transfer across trust channel\n                //@note: revert() because of transfers potentially upstream\n                revert();\n//                result = 1;\n             }\n        } else {\n            //is not a registered kyc contract\n            result = 0;\n        }\n    }\n\n    /// @param _to The public address of the recipient.\n    /// @param _value The value of the distribution that should be sent to this address.\n    /// @dev This withdraws distribution from an existing Conterminous account to a regular payable public address.\n    /// @return ok\n    ///    | false = not a native account\n    ///    | true = withdraw to native account successfu\n\n    function withdrawIndividualConterminousDistributionToNormalAccount(address payable _to, uint256 _value) mutex public override returns (bool ok) {\n        require(checkSelfBalance() >= _value);\n        require(checkConterminousWhiteShyftedBalance(msg.sender) >= _value);\n        uint codeLength;\n\n        //retrieve the size of the code on target address, this needs assembly\n        assembly {\n            codeLength := extcodesize(_to)\n        }\n\n        //makes sure it's sending to a native (non-contract) address\n        if (codeLength == 0) {\n            allConterminousInfo[msg.sender].whiteShyftedBalance = allConterminousInfo[msg.sender].whiteShyftedBalance.sub(_value);\n\n            _to.transfer(_value);\n\n            emit EVT_withdrawToNative(msg.sender, _to, _value);\n\n            //withdraw to native account successful\n            ok = true;\n        } else {\n            ok = false;\n            //not a native account\n        }\n    }\n\n    /// @param _contractAddress The public address of the contract that assets are being transferred to.\n    /// @param _value The value of the distribution that should be sent to this address.\n    /// @dev This withdraws distribution from an existing Conterminous account to an external contract address, with a token fallback (erc223) address. 30,000 gas limit hardcoded.\n    /// @notice it's assumed that there will be a mechanism where the receiver knows (& has whitelisted) this contract and the associated withdrawal function signature (shyftConduitSig) and will properly allocate assets based on that.\n    /// @return ok\n    ///    | false = not a contract address\n    ///    | true = withdraw to contract successful\n\n    function withdrawIndividualConterminousDistributionToExternalContract(address _contractAddress, uint256 _value) mutex public override returns (bool ok) {\n        require(checkSelfBalance() >= _value);\n        require(checkConterminousWhiteShyftedBalance(msg.sender) >= _value);\n        uint codeLength;\n\n        //retrieve the size of the code on target address, this needs assembly\n        assembly {\n            codeLength := extcodesize(_contractAddress)\n        }\n\n        //makes sure it's sending to a native (non-contract) address\n        if (codeLength > 0) {\n            allConterminousInfo[msg.sender].whiteShyftedBalance = allConterminousInfo[msg.sender].whiteShyftedBalance.sub(_value);\n\n            (bool success, ) = _contractAddress.call{value: _value, gas: 30000}(\"\");\n\n            IErc223ReceivingContract receiver = IErc223ReceivingContract(_contractAddress);\n            bool fallbackSuccess = receiver.tokenFallback(msg.sender, _value, abi.encodePacked(shyftConduitSig));\n\n            if (success == true && fallbackSuccess == true) {\n                emit EVT_withdrawToExternalContract(msg.sender, _contractAddress, _value);\n\n                //withdraw to contract successful\n                ok = true;\n            } else {\n                //@note:@here: needs revert() due to asset transactions already having occurred\n                revert();\n            }\n        } else {\n            //not a contract address\n        }\n    }\n\n    /// @dev Checks self balance.\n    /// @return value 0 -> n = this contract's balance\n\n    function checkSelfBalance() internal view returns (uint256 value) {\n        // this contract's balance\n        return address(this).balance;\n    }\n\n    /// @param _address The public address of the Conterminous account.\n    /// @dev Checks a specific Conterminous address's available balance from the inflationary pool.\n    /// @return balance\n    ///    | 0 = no shyft kyc contract set\n    ///    | 0 -> n = balance in shyft kyc contract for address\n\n    function checkConterminousWhiteShyftedBalance(address _address) public view override returns (uint256 balance) {\n        return allConterminousInfo[_address].whiteShyftedBalance;\n    }\n\n    /// @param _address The public address of the Conterminous account.\n    /// @dev Checks a specific Conterminous address's last block that it has been integrated.\n    /// @return lastBlockProcessed the last block processed in an integration cycle for this address.\n\n    function checkConterminousLastBlockProcessed(address _address) public view override returns (uint256 lastBlockProcessed) {\n        return allConterminousInfo[_address].lastBlockProcessed;\n    }\n\n    /// @param _conterminousAddress The public address of the Conterminous account.\n    /// @dev Checks a specific Conterminous address's white list status (whether it's currently active in the distribution).\n    /// @return result whether is address is whitelisted or not\n\n    function isValidConterminousAddress(address _conterminousAddress) public view override returns (bool result) {\n        //is whitelisted or not\n        return allConterminousInfo[_conterminousAddress].whiteListed;\n    }\n\n    /// @dev Gets a specific conterminous information.\n    /// @return result get a a specific conterminous information\n\n    function getConterminousInfo(address _conterminousAddress) public view override returns (ConterminousInfo memory result) {\n        ConterminousInfo storage conterminousInfo = allConterminousInfo[_conterminousAddress];\n\n        return conterminousInfo;\n    }\n\n    /// @dev Gets all conterminous information by traversing the linked list.\n    /// @return result all the conterminous informations from this generation.\n\n    function getAllConterminousInfos() public view override returns (ConterminousInfo[] memory result) {\n        ConterminousInfo[] memory conterminousInfosResult = new ConterminousInfo[](conterminousCount);\n\n        address conterminousAddress = conterminousZerothAddress;\n\n        for (uint16 i = 0; i < conterminousCount; i++) {\n            ConterminousInfo storage conterminousInfo = allConterminousInfo[conterminousAddress];\n            conterminousInfosResult[i] = conterminousInfo;\n\n            conterminousAddress = conterminousInfo.nextLink;\n        }\n\n        return conterminousInfosResult;\n    }\n\n    /// @dev Gets the current Conterminous Generation (# of times the current set of distribution participants have been updated).\n    /// @return result the current conterminous generation nonce\n\n    function getConterminousGeneration() public view override returns(uint256 result) {\n        return conterminousGeneration;\n    }\n\n    // ** prime revocation manager address management & retrieval ** //\n\n    /// @param _primeRevocationManagerAddress The public address of the prime revocation manager.\n    /// @dev | Sets the Prime Revocation Manager, the address with the ability to remove stale attestations.\n    ///      | Uses Multi-signature permissions.\n    /// @return result\n    ///    | 0 = not an administrator\n    ///    | 1 = not enough administrators have permissioned change\n    ///    | 2 = prime revocation manager set\n\n    function setPrimeRevocationManagerAddress(address _primeRevocationManagerAddress) public override returns (uint8 result) {\n        require(_primeRevocationManagerAddress != address(0));\n\n        if (isAdministrator(msg.sender)) {\n            bytes32 keyKeccak = keccak256(abi.encodePacked(\"primeRevocationManagerAddress\", _primeRevocationManagerAddress));\n\n            uint256 numPermissions = getPermissionsForMultisignKey(keyKeccak);\n\n            bool permittedToModify;\n\n            if (numPermissions >= adminConfirmationThreshold) {\n                permittedToModify = true;\n            } else {\n                uint256 numConfirmedPermissions = adminApplyAndGetPermissionsForMultisignKey(keyKeccak);\n\n                if (numConfirmedPermissions >= adminConfirmationThreshold) {\n                    permittedToModify = true;\n                }\n            }\n\n            if (permittedToModify == true) {\n                primeRevocationManagerAddress = _primeRevocationManagerAddress;\n\n                adminResetPermissionsForMultisignKey(keyKeccak);\n\n                // prime revocation manager set\n                return 2;\n\n            } else {\n                // not enough administrators have permissioned change\n                return 1;\n            }\n        } else {\n            // not an administrator\n            return 0;\n        }\n    }\n\n    /// @param _primeRevocationManagerAddress The public address of the potential prime revocation manager.\n    /// @dev Gets whether the input address is actually the prime revocation manager.\n    /// @return result\n    ///    | false = is not prime revocation manager address\n    ///    | true = is prime revocation manager address\n\n    function isPrimeRevocationManager(address _primeRevocationManagerAddress) public override view returns (bool result) {\n        if (primeRevocationManagerAddress == _primeRevocationManagerAddress) {\n            //is prime revocation manager address\n            return true;\n        } else {\n            //is not prime revocation manager address\n            return false;\n        }\n    }\n\n    // ** Block Reward Distributor functionality ** //\n\n    /// @dev variable that controls whether the conterminous distributions integrate on an update call (from the block reward contract).\n    bool public integrateConterminousDistributionsOnUpdate;\n\n    // @note: \"updateStep\" from the interface, run by Shyft nodes once per block at no block cost.\n    // @note:@todo This contract as-is has no need of a governance pass to update this contract currently\n\n    /// @param _originalAddress The original address that was used for the conterminous distribution cycle.\n    /// @param _inflationAmount The incoming inflation amount (should match up with local understanding)\n    /// @dev | This function (called by the block reward system-owned distribution contract) updates the current state, we also have admin controls that are triggered here to update the benefactor (target of the system distribution contract) to another.\n    ///      | Openethereum style block reward return calls are used.\n    ///      | There is also a Conterminous system-wide integration call performed, which can be a functionality set or not by the administrators of this contract.\n    /// @notice This function should only ever be called by the block reward contract, if it exists.\n    /// @return success the success result of this function.\n    /// @return preUpdateBenefactorStepRequired whether the benefactor update step is required\n    /// @return preUpdateBenefactorExContractAddress what address the update step needs to call\n    /// @return preUpdateBenefactorExForwardedBytes what, if any, forwarded bytes need to be sent to that other contract\n\n    function updateStep(address _originalAddress, uint _inflationAmount) external override returns (bool success,\n                                                                                                   bool preUpdateBenefactorStepRequired,\n                                                                                                   address preUpdateBenefactorExContractAddress,\n                                                                                                   bytes memory preUpdateBenefactorExForwardedBytes) {\n        if (msg.sender == systemDistributionContractAddress) {\n            if (_inflationAmount != shyftBlockReward) {\n                //@note: integrates all *previous* blocks, and then sets the block reward to the new value.\n                integrateAllConterminousDistributionsOnlyPreviousBlock();\n                shyftBlockReward = _inflationAmount;\n            }\n\n            // set origin block if first updateStep called\n            if (originBlockNumber == MAX_256) {\n                integrateAllConterminousDistributions();\n\n                originBlockNumber = block.number;\n\n                resetAllConterminousLastBlockProcessed();\n            }\n\n            if (integrateConterminousDistributionsOnUpdate == true) {\n                //@note: must integrate on conterminous distribution\n                integrateAllConterminousDistributions();\n//                    emit EVT_doIntegrate(true);\n            }\n\n            bool preUpdateBenefactorStepRequired_val = false;\n            address preUpdateBenefactorExContractAddress_val = address(0);\n            bytes memory preUpdateBenefactorExForwardedBytes_val = \"\";\n\n            if (adminShouldUpdateBenefactor == true &&\n                (adminShouldRemoveBenefactorPermanently == true || adminUpdateBenefactorAddressTarget != address(0))) {\n\n                preUpdateBenefactorStepRequired_val = true;\n                preUpdateBenefactorExContractAddress_val = address(this);\n\n                //@note: the format for these looks like:\n                //        bytes memory returnBytes;\n                //        bytes1 testBytes1 = 0x2a;\n                //        bytes memory preUpdateBenefactorExForwardedBytes_val = abi.encode(preUpdateBenefactorExContractAddress_val, testBytes1);\n\n                preUpdateBenefactorExForwardedBytes_val = \"\";\n            }\n\n//            emit EVT_doUpdateStep(_originalAddress,\n//                                  _inflationAmount,\n//                                  preUpdateBenefactorStepRequired_val,\n//                                  preUpdateBenefactorExContractAddress_val,\n//                                  preUpdateBenefactorExForwardedBytes_val);\n\n            return (true,\n                    preUpdateBenefactorStepRequired_val,\n                    preUpdateBenefactorExContractAddress_val,\n                    preUpdateBenefactorExForwardedBytes_val);\n        } else {\n            return (true,\n                    false,\n                    address(0),\n                    \"\");\n        }\n    }\n\n    /// @param _shouldIntegrateOnDistributionOnUpdate Whether the conterminous addresses should be integrated on an update step.\n    /// @dev | This function votes on the topic of whether to integrate the distributions on an update step (triggered from the block reward contract).\n    ///      | Uses Multi-signature permissions.\n    /// @return result\n    ///    | 0 = not an administrator\n    ///    | 1 = not enough administrators have permissioned change\n    ///    | 2 = set whether the conterminous distributions should integrate on an update step\n\n    function voteAdminShouldIntegrateConterminousDistributionsOnUpdate(bool _shouldIntegrateOnDistributionOnUpdate) public override returns (uint8 result) {\n        if (isAdministrator(msg.sender)) {\n            bytes32 keyKeccak = keccak256(abi.encodePacked(\"voteAdminShouldIntegrateConterminousDistributionsOnUpdate\", _shouldIntegrateOnDistributionOnUpdate));\n\n            uint256 numPermissions = getPermissionsForMultisignKey(keyKeccak);\n\n            bool permittedToModify;\n\n            if (numPermissions >= adminConfirmationThreshold) {\n                permittedToModify = true;\n            } else {\n                uint256 numConfirmedPermissions = adminApplyAndGetPermissionsForMultisignKey(keyKeccak);\n\n                if (numConfirmedPermissions >= adminConfirmationThreshold) {\n                    permittedToModify = true;\n                }\n            }\n\n            if (permittedToModify == true) {\n\n                integrateConterminousDistributionsOnUpdate = _shouldIntegrateOnDistributionOnUpdate;\n\n                //set whether the conterminous distributions should integrate on an update step\n                return 2;\n            } else {\n                //not enough administrators have permissioned change\n                return 1;\n            }\n        } else {\n            //not an administrator\n            return 0;\n        }\n    }\n\n\n    // ** Block Reward Updater functionality ** //\n\n    /// @dev variable that controls whether benefactor can be updated.\n    bool adminShouldUpdateBenefactor;\n    /// @dev variable that controls whether benefactor should be removed permanently.\n    bool adminShouldRemoveBenefactorPermanently;\n    /// @dev variable that controls what new address the benefactor will be set to.\n    address adminUpdateBenefactorAddressTarget;\n\n    /// @param _shouldUpdateBenefactor Whether the benefactor should be allowed to be updated.\n    /// @dev | This function votes on the topic of whether to allow for a benefactor to be updated.\n    ///      | Uses Multi-signature permissions.\n    /// @return result\n    ///    | 0 = not an administrator\n    ///    | 1 = not enough administrators have permissioned change\n    ///    | 2 = set whether the benefactor should be updated (to be removed permanently or for the benefactor target address to be updated)\n\n    function voteAdminShouldUpdateBenefactor(bool _shouldUpdateBenefactor) public override returns (uint8 result) {\n        if (isAdministrator(msg.sender)) {\n            bytes32 keyKeccak = keccak256(abi.encodePacked(\"voteAdminShouldUpdateBenefactor\", _shouldUpdateBenefactor));\n\n            uint256 numPermissions = getPermissionsForMultisignKey(keyKeccak);\n\n            bool permittedToModify;\n\n            if (numPermissions >= adminConfirmationThreshold) {\n                permittedToModify = true;\n            } else {\n                uint256 numConfirmedPermissions = adminApplyAndGetPermissionsForMultisignKey(keyKeccak);\n\n                if (numConfirmedPermissions >= adminConfirmationThreshold) {\n                    permittedToModify = true;\n                }\n            }\n\n            if (permittedToModify == true) {\n\n                adminShouldUpdateBenefactor = _shouldUpdateBenefactor;\n\n                //set whether the benefactor should be updated (to be removed permanently or for the benefactor target address to be updated)\n                return 2;\n            } else {\n                //not enough administrators have permissioned change\n                return 1;\n            }\n        } else {\n            //not an administrator\n            return 0;\n        }\n    }\n\n    /// @param _shouldRemovePermanently Whether the benefactor should be removed permanently.\n    /// @dev | This function votes on the topic of whether to the benefactor should be removed permanently.\n    ///      | Uses Multi-signature permissions.\n    /// @return result\n    ///    | 0 = not an administrator\n    ///    | 1 = not enough administrators have permissioned change\n    ///    | 2 = set whether the benefactor (ie this contract) should be removed permanently from the distribution cycle\n\n    function voteAdminShouldRemoveBenefactorPermanently(bool _shouldRemovePermanently) public override returns (uint8 result) {\n        if (isAdministrator(msg.sender)) {\n            bytes32 keyKeccak = keccak256(abi.encodePacked(\"voteAdminShouldRemoveBenefactorPermanently\", _shouldRemovePermanently));\n\n            uint256 numPermissions = getPermissionsForMultisignKey(keyKeccak);\n\n            bool permittedToModify;\n\n            if (numPermissions >= adminConfirmationThreshold) {\n                permittedToModify = true;\n            } else {\n                uint256 numConfirmedPermissions = adminApplyAndGetPermissionsForMultisignKey(keyKeccak);\n\n                if (numConfirmedPermissions >= adminConfirmationThreshold) {\n                    permittedToModify = true;\n                }\n            }\n\n            if (permittedToModify == true) {\n\n                adminShouldRemoveBenefactorPermanently = _shouldRemovePermanently;\n\n                //set whether the benefactor (ie this contract) should be removed permanently from the distribution cycle\n                return 2;\n            } else {\n                //not enough administrators have permissioned change\n                return 1;\n            }\n        } else {\n            //not an administrator\n            return 0;\n        }\n    }\n\n    /// @param _adminUpdateBenefactorAddressTarget What address the benefactor should be updated to.\n    /// @dev | This function votes on the topic of what address the benefactor should be updated to.\n    ///      | Uses Multi-signature permissions.\n    /// @return result\n    ///    | 0 = not an administrator\n    ///    | 1 = not enough administrators have permissioned change\n    ///    | 2 = set that the benefactor update should happen and target is the address agreed upon\n\n    function voteAdminUpdateBenefactorAddressTarget(address _adminUpdateBenefactorAddressTarget) public override returns (uint8 result) {\n        if (isAdministrator(msg.sender)) {\n            bytes32 keyKeccak = keccak256(abi.encodePacked(\"voteAdminUpdateBenefactorAddressTarget\", _adminUpdateBenefactorAddressTarget));\n\n            uint256 numPermissions = getPermissionsForMultisignKey(keyKeccak);\n\n            bool permittedToModify;\n\n            if (numPermissions >= adminConfirmationThreshold) {\n                permittedToModify = true;\n            } else {\n                uint256 numConfirmedPermissions = adminApplyAndGetPermissionsForMultisignKey(keyKeccak);\n\n                if (numConfirmedPermissions >= adminConfirmationThreshold) {\n                    permittedToModify = true;\n                }\n            }\n\n            if (permittedToModify == true) {\n\n                adminUpdateBenefactorAddressTarget = _adminUpdateBenefactorAddressTarget;\n\n                //set that the benefactor update should happen and target is the address agreed upon\n                return 2;\n            } else {\n                //not enough administrators have permissioned change\n                return 1;\n            }\n        } else {\n            //not an administrator\n            return 0;\n        }\n    }\n\n    /// @param _sigBytes The bytes in the signature (in this function, unused).\n    /// @param _inflationAmount The amount of inflation that is being sent per-block.\n    /// @dev This function is called externally by an update pass that uses the voted-upon benefactor updates.\n    /// @return shouldUpdateBenefactor whether or not the benefactor should be updated.\n    /// @return updatedBenefactorAddress if updating, what address is the benefactor being updated to.\n\n    function benefactorUpdateFunction(bytes memory _sigBytes, uint _inflationAmount) external override returns (bool shouldUpdateBenefactor,\n                                                                                                               address updatedBenefactorAddress) {\n        if (adminShouldUpdateBenefactor == true) {\n            if (adminShouldRemoveBenefactorPermanently == true) {\n                //removed benefactor address\n                return (true, address(0xf7EEd));\n            } else if (adminUpdateBenefactorAddressTarget != address(0)) {\n                // to detach conduit cleanly, we integrate all the current distributions, and then set the block reward\n                // to zero, so further calls to integrate won't result in any attempt to send value.\n                // this freeing of the \"external\" pool results in the ability for the conduit administrators to send\n                // any last remaining value sent to this contract (through recieve, etc.) to an arbitrary address as\n                // they choose.\n\n                integrateAllConterminousDistributions();\n                shyftBlockReward = 0;\n\n                //updated benefactor address\n                return (true, adminUpdateBenefactorAddressTarget);\n            } else {\n                //no updating required\n                return (false, address(0));\n            }\n        } else {\n            //should not update benefactor\n            return (false, address(0));\n        }\n    }\n}",
  "sourcePath": "/home/ubuntu/shyft_shyftcorecontracts/contracts/ShyftConduit.sol",
  "compiler": {
    "name": "solc",
    "version": "0.7.1+commit.f4a555be.Emscripten.clang"
  },
  "schemaVersion": "3.4.1",
  "updatedAt": "2022-02-24T18:28:45.603Z",
  "networkType": "ethereum",
  "devdoc": {
    "details": "| Shyft Conduit      |      | conduit      | /knd(y)oot/      | 1. a channel for conveying water or other fluid.      |      | conterminous      | /kntrmns/      | 1. sharing a common boundary.      |      | This contract manages the Shyft inflation organization and delegation to an Administrable distribution by value.      | Because the block reward never changes (only the difficulty parameter), there is no really complex math involved.      |      | We use linked lists for the Conterminous linkages because in the case of a new array, the list can be easily      | associated with the basic mappings without creating extra storage copies.      | Contextually, any Conduit formed by means of a network inflation is unable to be laundered through any means other      | than 100% network control. Network inflation is the purest of commodities, requiring physical resource production      | to \"game\", making it a much higher fruit than existing means.",
    "events": {
      "EVT_Erc223TokenFallback(address,uint256,bytes)": {
        "details": "Event for fallback function of erc223 tokens."
      },
      "EVT_conduitWithdrawnFunds(uint256,uint256)": {
        "details": "Event for an conduit action that withdraws funds to itself only"
      },
      "EVT_integratedIndividual(address,uint256,uint256)": {
        "details": "Event integrating an individual's account."
      },
      "EVT_otherTokensReverseTransfer(uint256,address,uint256)": {
        "details": "Event for other tokens' reversal of transfer."
      },
      "EVT_withdrawToExternalContract(address,address,uint256)": {
        "details": "event for withdrawing to an external contract."
      },
      "EVT_withdrawToNative(address,address,uint256)": {
        "details": "event for withdrawing to native."
      },
      "EVT_withdrawToTrustedAccount(address,address,uint256)": {
        "details": "Event for withdrawing to the user's own trusted account."
      }
    },
    "kind": "dev",
    "methods": {
      "benefactorUpdateFunction(bytes,uint256)": {
        "details": "This function is called externally by an update pass that uses the voted-upon benefactor updates.",
        "params": {
          "_inflationAmount": "The amount of inflation that is being sent per-block.",
          "_sigBytes": "The bytes in the signature (in this function, unused)."
        },
        "returns": {
          "shouldUpdateBenefactor": "whether or not the benefactor should be updated.",
          "updatedBenefactorAddress": "if updating, what address is the benefactor being updated to."
        }
      },
      "callTokenReverseTransfer(uint256)": {
        "details": "This Erc223 token fallback mechanism associates assets to the proper address.",
        "params": {
          "_tokenIndex": "The index for the return of erc223 tokens that were incorrectly sent to this address."
        },
        "returns": {
          "result": "    | 0 = index is out of bounds     | 1 = token is not active     | 2 = msg.sender not permissioned to return tokens     | 3 = could not reverse token transfer     | 4 = successfully reversed token transfer"
        }
      },
      "changeCurrentAdminConfirmationThreshold(uint32)": {
        "details": "| This function takes in an index for a proposal ot change the current administrator confirmation threshold.      | Uses Multi-signature permissions.",
        "params": {
          "_proposalIndex": "The index for a specific proposal to change the current administrator confirmation threshold."
        },
        "returns": {
          "result": "   | 0 = not an administrator    | 1 = invalid proposal index    | 2 = not enough administrators to achieve confirmation threshold    | 3 = proposal has expired    | 4 = not enough administrators have permissioned change    | 5 = admin confirmation threshold set"
        }
      },
      "checkConterminousLastBlockProcessed(address)": {
        "details": "Checks a specific Conterminous address's last block that it has been integrated.",
        "params": {
          "_address": "The public address of the Conterminous account."
        },
        "returns": {
          "lastBlockProcessed": "the last block processed in an integration cycle for this address."
        }
      },
      "checkConterminousWhiteShyftedBalance(address)": {
        "details": "Checks a specific Conterminous address's available balance from the inflationary pool.",
        "params": {
          "_address": "The public address of the Conterminous account."
        },
        "returns": {
          "balance": "   | 0 = no shyft kyc contract set    | 0 -> n = balance in shyft kyc contract for address"
        }
      },
      "constructor": {
        "details": "Initializes the Conduit with the contract owner as the sender."
      },
      "getAdminAccess(address)": {
        "details": "Gets the level of access for a specific administrator.",
        "returns": {
          "result": "the level of access for this administrator"
        }
      },
      "getAdminConfirmationProposal(uint32)": {
        "details": "Gets the components of a specific NofM change proposal.",
        "params": {
          "_proposalIndex": "A proposal index"
        },
        "returns": {
          "adminThreshold": "the threshold of the NofM voting within this proposal",
          "endTime": "the end time of this proposal, after which it cannot be voted on",
          "isCompleted": "whether this proposal has been completed by multisig parties"
        }
      },
      "getAdminConfirmationThreshold()": {
        "details": "Gets the NofM threshold currently required for passing multisig votes.",
        "returns": {
          "results": "the current NofM threshold"
        }
      },
      "getAllConterminousInfos()": {
        "details": "Gets all conterminous information by traversing the linked list.",
        "returns": {
          "result": "all the conterminous informations from this generation."
        }
      },
      "getConterminousGeneration()": {
        "details": "Gets the current Conterminous Generation (# of times the current set of distribution participants have been updated).",
        "returns": {
          "result": "the current conterminous generation nonce"
        }
      },
      "getConterminousInfo(address)": {
        "details": "Gets a specific conterminous information.",
        "returns": {
          "result": "get a a specific conterminous information"
        }
      },
      "getNumAdminConfirmationProposals()": {
        "details": "Gets the number of a specific NofM change proposal.",
        "returns": {
          "result": "the number of a specific NofM proposals"
        }
      },
      "getNumErc223TokenBundles()": {
        "details": "Gets the number of Erc223 compatible token bundles that have been sent to this contract.",
        "returns": {
          "result": "the number of Erc223 compatible token bundles that have been sent to this contract."
        }
      },
      "getPermissionsForMultisignKey(bytes32)": {
        "details": "Gets whether there have been a specific number of multisignature confirmations for a specific vote.",
        "params": {
          "_keyKeccak": "A hash to reference as the key/value vote subject."
        },
        "returns": {
          "result": "0 to numAdministrators = #confirmations"
        }
      },
      "getShyftBlockReward()": {
        "details": "Gets the current shyft block reward.",
        "returns": {
          "result": "the current shyft block reward."
        }
      },
      "integrateIndividualConterminousDistribution(address)": {
        "details": "This integrates all of the distributions for this specific Conterminous address.",
        "params": {
          "_conterminousAddress": "The public address of the Conterminous account."
        },
        "returns": {
          "result": "   | 0 = nothing to process    | 1 -> n = n blocks processed"
        }
      },
      "isAdministrator(address)": {
        "details": "Returns whether a given address is an administrator.",
        "params": {
          "_administratorAddress": "The public address of a specific administrator."
        },
        "returns": {
          "result": "   | true = is administrator    | false = either administrator unset or demoted"
        }
      },
      "isConfirmationsIsOverThreshold(uint256)": {
        "details": "Returns whether a reference number is over the system's administrator confirmation threshold (ie. the vote passes).",
        "params": {
          "_confirmationNumber": "A number to reference as the confirmation number"
        },
        "returns": {
          "result": "   | true = is over threshold    | false = not over threshold"
        }
      },
      "isPrimeRevocationManager(address)": {
        "details": "Gets whether the input address is actually the prime revocation manager.",
        "params": {
          "_primeRevocationManagerAddress": "The public address of the potential prime revocation manager."
        },
        "returns": {
          "result": "   | false = is not prime revocation manager address    | true = is prime revocation manager address"
        }
      },
      "isValidConterminousAddress(address)": {
        "details": "Checks a specific Conterminous address's white list status (whether it's currently active in the distribution).",
        "params": {
          "_conterminousAddress": "The public address of the Conterminous account."
        },
        "returns": {
          "result": "whether is address is whitelisted or not"
        }
      },
      "promoteAdministrator(address)": {
        "details": "| Promotes a new administrator. If there is only a primary Administrator set, this will allow the addition of the second administrator and enable multisignature requirements for any actions of this contract (or those inheriting it).      | Uses Multi-signature permissions if there is more than one Administrator onboarded.",
        "params": {
          "_newAdministratorAddress": "The new Administrator's public address."
        },
        "returns": {
          "result": "   | 0 = not administrator    | 1 = administrator already promoted    | 2 = new administrator promoted    | 3 = added vote to promote administrator"
        }
      },
      "proposeChangeCurrentAdminConfirmationThreshold(uint256)": {
        "details": "This function proposes a change to the threshold of voting required (N signatories of M total set size = NofM). To prevent stale inattention results, timeout after 2 days.",
        "params": {
          "_newThreshold": "The new threshold (N of M multisig) that is needed to be passed."
        },
        "returns": {
          "result": "   | 0 = not an administrator    | 1 = not enough administrators to achieve confirmation threshold    | 2 = new proposal added"
        }
      },
      "retrieveExternalFundsAfterDetach(address)": {
        "details": "| Sends external (sent to this contract re: receive function) funds to a specific address. *Only able to be done after this contract has been detached from a conduit flow*.      | Uses Multi-signature permissions.",
        "params": {
          "_recipient": "The public address of the recipient of the external funds."
        },
        "returns": {
          "result": "   | 0 = not an administrator    | 1 = not enough administrators have permissioned change    | 2 = assets sent to recipient address"
        }
      },
      "revokeAdministrator(address)": {
        "details": "| Revokes an existing administrator from the multisignature set, checks to see if the # of required votes would be higher then the administrator set size, and if so adjusts to match.      | Uses Multi-signature permissions if there is more than one Administrator onboarded.",
        "params": {
          "_revokeAdministratorAddress": "An existing Administrator's public address."
        },
        "returns": {
          "result": "result"
        }
      },
      "setConterminousDistributionAmounts(address[],uint256[],bytes32)": {
        "details": "| This function takes in a keccak hash of all of the values, as well as the values themselves. It compares the hash of the values + the \"generation\" as a nonce, compares and returns whether it is approved. Then it compares the percentages and makes sure it all is <= 100%. Finally, it de-lists all existing addresses (with an integration beforehand), and then adds the new list in, within a linked-list structure.      | Uses Multi-signature permissions.",
        "params": {
          "_conterminousAddresses": "The public addresses to which the assigned distribution can be claimed.",
          "_conterminousDistributionPercentages_leftShifted24Bits": "The percentage for this public address to be assigned (50, 40, 10, etc.)",
          "_distributionKeyKeccak": "The percentage for this public address to be assigned (50, 40, 10, etc.)"
        },
        "returns": {
          "result": "   | 0 = all distribution percentages added together are over 100%    | 1 = conterminous integrations don't match    | 2 = more administrator confirmations required    | 3 = set conterminous distribution amounts"
        }
      },
      "setConterminousDistributionAmountsPermissions(bytes32)": {
        "details": "| This function takes in a keccak hash of all of the values (n/100%) that are shifted to the left by 24. (2 ^ 24 - 1) = 16777215.      | this is to apply granularity to the distribution values of 1 in (2 ^ 24) wei equivalents.      | http://x86asm.net/articles/fixed-point-arithmetic-and-tricks/      | Uses Multi-signature permissions.",
        "params": {
          "_distributionKeyKeccak": "The distribution key keccak that is being voted on for the Conterminous distributions."
        },
        "returns": {
          "result": "   | 0 = not an administrator    | 1 = not enough administrators have permissioned change    | 2 = ready to set conterminous distributions"
        }
      },
      "setPrimaryAdministrator(address)": {
        "details": "Sets the primary Administrator for this contract (or those that inherit from it). This transfers ownership of this contracts first administration duties (to find and onboard a second party for multisignature requirements) to the set Administrator's public address.",
        "params": {
          "_newAdministratorAddress": "The new Administrator's public address."
        },
        "returns": {
          "result": "   | 0 = not owner    | 1 = already set first administrator    | 2 = setup first administrator"
        }
      },
      "setPrimeRevocationManagerAddress(address)": {
        "details": "| Sets the Prime Revocation Manager, the address with the ability to remove stale attestations.      | Uses Multi-signature permissions.",
        "params": {
          "_primeRevocationManagerAddress": "The public address of the prime revocation manager."
        },
        "returns": {
          "result": "   | 0 = not an administrator    | 1 = not enough administrators have permissioned change    | 2 = prime revocation manager set"
        }
      },
      "setShyftKycContractAddress(address)": {
        "details": "| Sets the shyft kyc contract that will be used throughout the rest of the function calls.      | The Shyft Kyc Registry Contract address must be set before this function will call properly.      | Uses Multi-signature permissions.",
        "params": {
          "_shyftKycContractAddress": "The smart contract address of the Shyft Kyc Contract."
        },
        "returns": {
          "result": "   | 0 = not a valid kyc contract address    | 1 = not an administrator    | 2 = not enough administrators have permissioned change    | 2 = set kyc contract address"
        }
      },
      "setShyftKycContractRegistryAddress(address)": {
        "details": "| Sets the shyft kyc contract registry for purposes of making sure that trusted assets are routed across Trust Channels that only existing Shyft Kyc Contract (versions) can honour.      | Uses Multi-signature permissions.",
        "params": {
          "_shyftKycContractRegistryAddress": "The smart contract address of the Shyft Kyc Contract Registry."
        },
        "returns": {
          "result": "   | 0 = not an administrator    | 1 = not enough administrators have permissioned change    | 2 = kyc contract registry address set"
        }
      },
      "setSystemDistributionContractAddress(address)": {
        "details": "| Sets the system distribution (block reward) contract that this conduit is receiving funds from.      | Uses Multi-signature permissions.",
        "params": {
          "_systemDistributionContractAddress": "The smart contract address that the block reward is being distributed from."
        },
        "returns": {
          "result": "   | 0 = not an administrator    | 1 = not enough administrators have permissioned change    | 2 = system distribution contract address set"
        }
      },
      "tokenFallback(address,uint256,bytes)": {
        "details": "This Erc223 token fallback mechanism associates assets to the proper address.",
        "params": {
          "_data": "An external bytes mechanism to pass function signatures et al. to this fallback for processing.",
          "_from": "The address that the token fallback is designating to receive assets.",
          "_value": "The value transferred."
        },
        "returns": {
          "ok": "the results from the function (should be \"true\", or else a revert condition)"
        }
      },
      "updateStep(address,uint256)": {
        "details": "| This function (called by the block reward system-owned distribution contract) updates the current state, we also have admin controls that are triggered here to update the benefactor (target of the system distribution contract) to another.      | Openethereum style block reward return calls are used.      | There is also a Conterminous system-wide integration call performed, which can be a functionality set or not by the administrators of this contract.",
        "params": {
          "_inflationAmount": "The incoming inflation amount (should match up with local understanding)",
          "_originalAddress": "The original address that was used for the conterminous distribution cycle."
        },
        "returns": {
          "preUpdateBenefactorExContractAddress": "what address the update step needs to call",
          "preUpdateBenefactorExForwardedBytes": "what, if any, forwarded bytes need to be sent to that other contract",
          "preUpdateBenefactorStepRequired": "whether the benefactor update step is required",
          "success": "the success result of this function."
        }
      },
      "voteAdminShouldIntegrateConterminousDistributionsOnUpdate(bool)": {
        "details": "| This function votes on the topic of whether to integrate the distributions on an update step (triggered from the block reward contract).      | Uses Multi-signature permissions.",
        "params": {
          "_shouldIntegrateOnDistributionOnUpdate": "Whether the conterminous addresses should be integrated on an update step."
        },
        "returns": {
          "result": "   | 0 = not an administrator    | 1 = not enough administrators have permissioned change    | 2 = set whether the conterminous distributions should integrate on an update step"
        }
      },
      "voteAdminShouldRemoveBenefactorPermanently(bool)": {
        "details": "| This function votes on the topic of whether to the benefactor should be removed permanently.      | Uses Multi-signature permissions.",
        "params": {
          "_shouldRemovePermanently": "Whether the benefactor should be removed permanently."
        },
        "returns": {
          "result": "   | 0 = not an administrator    | 1 = not enough administrators have permissioned change    | 2 = set whether the benefactor (ie this contract) should be removed permanently from the distribution cycle"
        }
      },
      "voteAdminShouldUpdateBenefactor(bool)": {
        "details": "| This function votes on the topic of whether to allow for a benefactor to be updated.      | Uses Multi-signature permissions.",
        "params": {
          "_shouldUpdateBenefactor": "Whether the benefactor should be allowed to be updated."
        },
        "returns": {
          "result": "   | 0 = not an administrator    | 1 = not enough administrators have permissioned change    | 2 = set whether the benefactor should be updated (to be removed permanently or for the benefactor target address to be updated)"
        }
      },
      "voteAdminUpdateBenefactorAddressTarget(address)": {
        "details": "| This function votes on the topic of what address the benefactor should be updated to.      | Uses Multi-signature permissions.",
        "params": {
          "_adminUpdateBenefactorAddressTarget": "What address the benefactor should be updated to."
        },
        "returns": {
          "result": "   | 0 = not an administrator    | 1 = not enough administrators have permissioned change    | 2 = set that the benefactor update should happen and target is the address agreed upon"
        }
      },
      "withdrawIndividualConterminousDistributionToExternalContract(address,uint256)": {
        "details": "This withdraws distribution from an existing Conterminous account to an external contract address, with a token fallback (erc223) address. 30,000 gas limit hardcoded.",
        "params": {
          "_contractAddress": "The public address of the contract that assets are being transferred to.",
          "_value": "The value of the distribution that should be sent to this address."
        },
        "returns": {
          "ok": "   | false = not a contract address    | true = withdraw to contract successful"
        }
      },
      "withdrawIndividualConterminousDistributionToNormalAccount(address,uint256)": {
        "details": "This withdraws distribution from an existing Conterminous account to a regular payable public address.",
        "params": {
          "_to": "The public address of the recipient.",
          "_value": "The value of the distribution that should be sent to this address."
        },
        "returns": {
          "ok": "   | false = not a native account    | true = withdraw to native account successfu"
        }
      },
      "withdrawIndividualConterminousDistributionToTrustedAccount(address,uint256,uint256)": {
        "details": "this only withdraws to any registered ShyftKycContract. this function can *only* be called with the message sender receiving the balance in their Kyc Contract.",
        "params": {
          "_gasToSend": "The amount of gas to send to this contract (30,000 suffices for the current shyft kyc contract calls.)",
          "_shyftKycContractAddress": "The public address of the shyft kyc contract.",
          "_value": "The value of the distribution that should be sent through this kyc contract address."
        },
        "returns": {
          "result": "   | 0 = is not a registered kyc contract    | 2 = transfer was successful"
        }
      },
      "withdrawSafeFundsToSelfOnlyTrustRouted(uint256)": {
        "details": "| From an external Verified Shyft Kyc Contract (that has been set previously by administrators), move native fuel tokens from that verified contract's account balance that belongs to this Conduit instance.      | Used in the case of funds not being sent directly from a block reward instance.",
        "params": {
          "_amount": "The amount of native tokens that the caller is making available to this Shyft Conduit instance."
        },
        "returns": {
          "result": "   | 0 = does not have available balance    | 1 = did not withdraw    | 2 = transfer successful"
        }
      }
    },
    "stateVariables": {
      "MAX_256": {
        "details": "simple constant for a maximum 256 bit value."
      },
      "adminShouldRemoveBenefactorPermanently": {
        "details": "variable that controls whether benefactor should be removed permanently."
      },
      "adminShouldUpdateBenefactor": {
        "details": "variable that controls whether benefactor can be updated."
      },
      "adminUpdateBenefactorAddressTarget": {
        "details": "variable that controls what new address the benefactor will be set to."
      },
      "allConterminousInfo": {
        "details": "Mapping for address to Conterminous account info."
      },
      "allErc223TokenBundles": {
        "details": "The array of erc223 token bundles."
      },
      "conterminousCount": {
        "details": "total count for number of Contermious accounts."
      },
      "conterminousGeneration": {
        "details": "nonce for the \"setConterminousDistributionAmounts\" \"_distributionKeyKeccak\" input."
      },
      "conterminousZerothAddress": {
        "details": "conterminous address for first of the forward linked list."
      },
      "externalFundsBalance": {
        "details": "External funds balance."
      },
      "integrateConterminousDistributionsOnUpdate": {
        "details": "variable that controls whether the conterminous distributions integrate on an update call (from the block reward contract)."
      },
      "locked": {
        "details": "Mutex lock, prevent recursion in functions that use external function calls"
      },
      "manualKycFundsAdded": {
        "details": "Kyc'd funds sent into this conduit manually."
      },
      "originBlockNumber": {
        "details": "the origin (first) block that this contract was updated (distributed) to."
      },
      "primeRevocationManagerAddress": {
        "details": "Public Address for the Prime Revocation Manager."
      },
      "runtimeInflationReward": {
        "details": "The current Shyft runtime inflation reward."
      },
      "shyftBlockReward": {
        "details": "The current Shyft block reward"
      },
      "shyftConduitSig": {
        "details": "Signature for triggering 'tokenFallback' in erc223 receiver contracts"
      },
      "shyftKycContractAddress": {
        "details": "Public Address for the Shyft Kyc Contract"
      },
      "shyftKycContractRegistryAddress": {
        "details": "Public address for the Shyft Kyc Contract Registry address."
      },
      "shyftKycContractSig": {
        "details": "Signature from 'tokenFallback' sender in from kyc contract"
      },
      "stakingPoolReward": {
        "details": "The current Shyft staking pool reward."
      },
      "systemDistributionContractAddress": {
        "details": "Public address for the Shyft Distribution Contract address (block reward contract)."
      }
    },
    "version": 1
  },
  "userdoc": {
    "kind": "user",
    "methods": {
      "callTokenReverseTransfer(uint256)": {
        "notice": "as the erc223 spec does not define return codes, I'm assuming that any contracts that care in the future about getting assets returned to them can use specific codes + lookup values to do the proper behaviour in a relatively plain-text manner, where you could have a lookup table of various assorted (common) functionalities."
      },
      "changeCurrentAdminConfirmationThreshold(uint32)": {
        "notice": "Multiple proposals can be constructed for different sets to apply to change the administrator threshold. As the permissions for multisig keys use a voting set nonce underneath the hood, a change in the current administrator set will cancel all current votes."
      },
      "externalFundsBalance()": {
        "notice": "| There are three ways the Conduit can receive funds:      | 1) by proxy via the kyc contract it's linked to, which can be set up to only receive kyc'd funds.      | 2) by manual transfer of funds.      | 3) by the Shyft network inflation (or similar mechanisms)."
      },
      "getPermissionsForMultisignKey(bytes32)": {
        "notice": "Uses composition features (based on current validator set) so data structure may be orphaned when promotion/demotion events occur."
      },
      "promoteAdministrator(address)": {
        "notice": "| Uses composition features (based on current validator set) so data structure may be orphaned when promotion/demotion events occur.         | Whenever this function is called (with a passing vote), there will be a re-hashing of the voting set nonce, so all current votes will become invalidated."
      },
      "revokeAdministrator(address)": {
        "notice": "| Uses composition features (based on current validator set) so data structure may be orphaned when promotion/demotion events occur.         | Whenever this function is called (with a passing vote), there will be a re-hashing of the voting set nonce, so all current votes will become invalidated."
      },
      "setConterminousDistributionAmounts(address[],uint256[],bytes32)": {
        "notice": "In the ui that would manage this component, the _distributionKeyKeccak should be the keccak256 of all of the addresses and distribution percentages, along with the current \"conterminousGeneration\", acting as a nonce."
      },
      "setConterminousDistributionAmountsPermissions(bytes32)": {
        "notice": "In the UI that would manage this component, the _distributionKeyKeccak should be the keccak256 of all of the addresses and distribution percentages, along with the current \"conterminousGeneration\", acting as a nonce."
      },
      "updateStep(address,uint256)": {
        "notice": "This function should only ever be called by the block reward contract, if it exists."
      },
      "withdrawIndividualConterminousDistributionToExternalContract(address,uint256)": {
        "notice": "it's assumed that there will be a mechanism where the receiver knows (& has whitelisted) this contract and the associated withdrawal function signature (shyftConduitSig) and will properly allocate assets based on that."
      },
      "withdrawSafeFundsToSelfOnlyTrustRouted(uint256)": {
        "notice": "This function does *not* need to be called when there is a block reward instance distributing native fuel tokens.If the Kyc contract instance has ever been sent a message by this Conduit contract instance to have their account only accept Trusted assets, then this flow can be considered completely Kyc'd, as the Trust Channel routing will be enforced."
      }
    },
    "version": 1
  }
}