{
  "contractName": "TrustAnchorExtraData_Generic",
  "abi": [
    {
      "inputs": [],
      "stateMutability": "nonpayable",
      "type": "constructor"
    },
    {
      "anonymous": false,
      "inputs": [
        {
          "indexed": true,
          "internalType": "address",
          "name": "_trustAnchorAddress",
          "type": "address"
        },
        {
          "indexed": false,
          "internalType": "string",
          "name": "_endpointName",
          "type": "string"
        },
        {
          "indexed": false,
          "internalType": "uint8[4]",
          "name": "_ipv4Address",
          "type": "uint8[4]"
        }
      ],
      "name": "EVT_setDataRetrievalParametersCreated",
      "type": "event"
    },
    {
      "anonymous": false,
      "inputs": [
        {
          "indexed": true,
          "internalType": "address",
          "name": "_trustAnchorAddress",
          "type": "address"
        },
        {
          "indexed": false,
          "internalType": "string",
          "name": "_endpointName",
          "type": "string"
        },
        {
          "indexed": false,
          "internalType": "uint8[4]",
          "name": "_ipv4Address",
          "type": "uint8[4]"
        }
      ],
      "name": "EVT_setDataRetrievalParametersUpdated",
      "type": "event"
    },
    {
      "anonymous": false,
      "inputs": [
        {
          "indexed": true,
          "internalType": "address",
          "name": "_trustAnchorAddress",
          "type": "address"
        },
        {
          "indexed": false,
          "internalType": "string",
          "name": "_endpointName",
          "type": "string"
        },
        {
          "indexed": false,
          "internalType": "bool",
          "name": "_isEnabled",
          "type": "bool"
        }
      ],
      "name": "EVT_setTrustAnchorDataRetrievalEndpointIsEnabled",
      "type": "event"
    },
    {
      "anonymous": false,
      "inputs": [
        {
          "indexed": true,
          "internalType": "address",
          "name": "previousOwner",
          "type": "address"
        },
        {
          "indexed": true,
          "internalType": "address",
          "name": "newOwner",
          "type": "address"
        }
      ],
      "name": "OwnershipTransferred",
      "type": "event"
    },
    {
      "inputs": [],
      "name": "owner",
      "outputs": [
        {
          "internalType": "address",
          "name": "",
          "type": "address"
        }
      ],
      "stateMutability": "view",
      "type": "function",
      "constant": true
    },
    {
      "inputs": [],
      "name": "renounceOwnership",
      "outputs": [],
      "stateMutability": "nonpayable",
      "type": "function"
    },
    {
      "inputs": [
        {
          "internalType": "address",
          "name": "newOwner",
          "type": "address"
        }
      ],
      "name": "transferOwnership",
      "outputs": [],
      "stateMutability": "nonpayable",
      "type": "function"
    },
    {
      "inputs": [
        {
          "internalType": "address",
          "name": "_trustAnchorManagerAddress",
          "type": "address"
        }
      ],
      "name": "setTrustAnchorManagerAddress",
      "outputs": [
        {
          "internalType": "bool",
          "name": "result",
          "type": "bool"
        }
      ],
      "stateMutability": "nonpayable",
      "type": "function"
    },
    {
      "inputs": [],
      "name": "getTrustAnchorManagerAddress",
      "outputs": [
        {
          "internalType": "address",
          "name": "result",
          "type": "address"
        }
      ],
      "stateMutability": "view",
      "type": "function",
      "constant": true
    },
    {
      "inputs": [
        {
          "internalType": "address",
          "name": "_trustAnchorAddress",
          "type": "address"
        }
      ],
      "name": "doesTrustAnchorHaveExtraData",
      "outputs": [
        {
          "internalType": "bool",
          "name": "result",
          "type": "bool"
        }
      ],
      "stateMutability": "view",
      "type": "function",
      "constant": true
    },
    {
      "inputs": [
        {
          "internalType": "string",
          "name": "_endpointName",
          "type": "string"
        },
        {
          "internalType": "uint8[4]",
          "name": "_ipv4Address",
          "type": "uint8[4]"
        }
      ],
      "name": "setTrustAnchorDataRetrievalParameters",
      "outputs": [
        {
          "internalType": "uint8",
          "name": "result",
          "type": "uint8"
        }
      ],
      "stateMutability": "nonpayable",
      "type": "function"
    },
    {
      "inputs": [
        {
          "internalType": "string",
          "name": "_endpointName",
          "type": "string"
        },
        {
          "internalType": "bool",
          "name": "_isEnabled",
          "type": "bool"
        }
      ],
      "name": "setTrustAnchorDataRetrievalEndpointIsEnabled",
      "outputs": [
        {
          "internalType": "uint8",
          "name": "result",
          "type": "uint8"
        }
      ],
      "stateMutability": "nonpayable",
      "type": "function"
    },
    {
      "inputs": [
        {
          "internalType": "address",
          "name": "_trustAnchorAddress",
          "type": "address"
        }
      ],
      "name": "getTrustAnchorNumberOfEndpoints",
      "outputs": [
        {
          "internalType": "uint256",
          "name": "result",
          "type": "uint256"
        }
      ],
      "stateMutability": "view",
      "type": "function",
      "constant": true
    },
    {
      "inputs": [
        {
          "internalType": "address",
          "name": "_trustAnchorAddress",
          "type": "address"
        },
        {
          "internalType": "uint256",
          "name": "_index",
          "type": "uint256"
        }
      ],
      "name": "getTrustAnchorEndpointNameByIndex",
      "outputs": [
        {
          "internalType": "bool",
          "name": "doesExist",
          "type": "bool"
        },
        {
          "internalType": "string",
          "name": "endpointName",
          "type": "string"
        }
      ],
      "stateMutability": "view",
      "type": "function",
      "constant": true
    },
    {
      "inputs": [
        {
          "internalType": "address",
          "name": "_trustAnchorAddress",
          "type": "address"
        },
        {
          "internalType": "string",
          "name": "_endpointName",
          "type": "string"
        }
      ],
      "name": "getTrustAnchorDataRetrievalParameters",
      "outputs": [
        {
          "internalType": "bool",
          "name": "doesExist",
          "type": "bool"
        },
        {
          "internalType": "uint8[4]",
          "name": "ipv4Address",
          "type": "uint8[4]"
        },
        {
          "internalType": "bool",
          "name": "isEnabled",
          "type": "bool"
        }
      ],
      "stateMutability": "view",
      "type": "function",
      "constant": true
    },
    {
      "inputs": [
        {
          "internalType": "address",
          "name": "_trustAnchorAddress",
          "type": "address"
        },
        {
          "internalType": "bytes32",
          "name": "_endpointKeccak",
          "type": "bytes32"
        }
      ],
      "name": "getTrustAnchorEndpointNameByEndpointKeccak",
      "outputs": [
        {
          "internalType": "string",
          "name": "endpointName",
          "type": "string"
        }
      ],
      "stateMutability": "view",
      "type": "function",
      "constant": true
    }
  ],
  "bytecode": "0x6080604052600280546001600160a01b031916905534801561002057600080fd5b50600061002b61007a565b600080546001600160a01b0319166001600160a01b0383169081178255604051929350917f8be0079c531659141344cd1fd0a4f28419497f9722a3daafe3b4186f6b6457e0908290a35061007e565b3390565b6112508061008d6000396000f3fe608060405234801561001057600080fd5b50600436106100b45760003560e01c80638da5cb5b116100715780638da5cb5b146103c5578063b10ce9fc146103e9578063bd36590c1461048a578063d534d02714610492578063e14512bb146104b8578063f2fde38b14610565576100b4565b806313cf88eb146100b95780632326d76c146101b9578063243c64fa146101f15780633c5dc548146102af5780633da3b915146102e9578063715018a6146103bb575b600080fd5b61016f600480360360408110156100cf57600080fd5b6001600160a01b0382351691908101906040810160208201356401000000008111156100fa57600080fd5b82018360208201111561010c57600080fd5b8035906020019184600183028401116401000000008311171561012e57600080fd5b91908080601f01602080910402602001604051908101604052809392919081815260200183838082843760009201919091525092955061058b945050505050565b60405183151581526020810183608080838360005b8381101561019c578181015183820152602001610184565b505050509050018215158152602001935050505060405180910390f35b6101df600480360360208110156101cf57600080fd5b50356001600160a01b03166106e7565b60408051918252519081900360200190f35b6102996004803603604081101561020757600080fd5b81019060208101813564010000000081111561022257600080fd5b82018360208201111561023457600080fd5b8035906020019184600183028401116401000000008311171561025657600080fd5b91908080601f016020809104026020016040519081016040528093929190818152602001838380828437600092019190915250929550505050351515905061070a565b6040805160ff9092168252519081900360200190f35b6102d5600480360360208110156102c557600080fd5b50356001600160a01b031661090a565b604080519115158252519081900360200190f35b610299600480360360a08110156102ff57600080fd5b81019060208101813564010000000081111561031a57600080fd5b82018360208201111561032c57600080fd5b8035906020019184600183028401116401000000008311171561034e57600080fd5b91908080601f01602080910402602001604051908101604052809392919081815260200183838082843760009201919091525050604080516080818101909252939695948181019493509150600490839083908082843760009201919091525091945061093b9350505050565b6103c3610cbf565b005b6103cd610d7d565b604080516001600160a01b039092168252519081900360200190f35b610415600480360360408110156103ff57600080fd5b506001600160a01b038135169060200135610d8c565b6040805160208082528351818301528351919283929083019185019080838360005b8381101561044f578181015183820152602001610437565b50505050905090810190601f16801561047c5780820380516001836020036101000a031916815260200191505b509250505060405180910390f35b6103cd610e3f565b6102d5600480360360208110156104a857600080fd5b50356001600160a01b0316610e4e565b6104e4600480360360408110156104ce57600080fd5b506001600160a01b038135169060200135610efc565b60405180831515815260200180602001828103825283818151815260200191508051906020019080838360005b83811015610529578181015183820152602001610511565b50505050905090810190601f1680156105565780820380516001836020036101000a031916815260200191505b50935050505060405180910390f35b6103c36004803603602081101561057b57600080fd5b50356001600160a01b031661102b565b6000610595611143565b600080846040516020018082805190602001908083835b602083106105cb5780518252601f1990920191602091820191016105ac565b518151602093840361010090810a60001901801990931692909116919091179091526040805193909501838103601f1901845285528251928201929092206001600160a01b038d16600090815260018084528682208383529093529490942060028101549497509550920460ff1615159091141591506106b290505760028101546040805160808101918290526001928385019260ff90911691908390600490826000855b825461010083900a900460ff168152602060019283018181049485019490930390920291018084116106705790505050505050915094509450945050506106e0565b5050604080516080810182526000808252602082018190529181018290526060810182905290935091508290505b9250925092565b6001600160a01b038116600090815260016020819052604090912001545b919050565b600080836040516020018082805190602001908083835b602083106107405780518252601f199092019160209182019101610721565b51815160209384036101000a60001901801990921691161790526040805192909401828103601f19018352808552825192820192909220600254633cff017d60e21b845233600485015294519097506001600160a01b03909416955085945063f3fc05f493602480840194509192909190829003018186803b1580156107c557600080fd5b505afa1580156107d9573d6000803e3d6000fd5b505050506040513d60208110156107ef57600080fd5b5051156108fd573360009081526001602081815260408084208685529091529091206002810154909161010090910460ff16151514156108f157336001600160a01b03167f0ca98f24eba105f2ec4e2812eb7d4a85ade851c2d16019450de6861c700fab87878760405180806020018315158152602001828103825284818151815260200191508051906020019080838360005b8381101561089b578181015183820152602001610883565b50505050905090810190601f1680156108c85780820380516001836020036101000a031916815260200191505b50935050505060405180910390a26002908101805460ff19168615151790559250610904915050565b60019350505050610904565b6000925050505b92915050565b6001600160a01b0381166000908152600160208190526040822001541561093357506001610705565b506000610705565b600080836040516020018082805190602001908083835b602083106109715780518252601f199092019160209182019101610952565b51815160209384036101000a60001901801990921691161790526040805192909401828103601f19018352808552825192820192909220600254633cff017d60e21b845233600485015294519097506001600160a01b03909416955085945063f3fc05f493602480840194509192909190829003018186803b1580156109f657600080fd5b505afa158015610a0a573d6000803e3d6000fd5b505050506040513d6020811015610a2057600080fd5b5051156108fd57336000908152600160209081526040808320858452825290912086519091610a53918391890190611161565b50845160018281018054602089015160408a015160608b015160ff918216620100000292821661010090810260ff199095169783169790971761ff0019169390931762ff000019169190911763ff00000019166301000000928216929092029190911790915560028401549290920490911615151415610ba957336001600160a01b03167fc1c2a3c2243e6ecc8301ab82f6a5c94e357bac0d5b762460bfc68b7fd2bba17b8787604051808060200183600460200280838360005b83811015610b26578181015183820152602001610b0e565b50505050905001828103825284818151815260200191508051906020019080838360005b83811015610b62578181015183820152602001610b4a565b50505050905090810190601f168015610b8f5780820380516001836020036101000a031916815260200191505b50935050505060405180910390a260029350505050610904565b336001600160a01b03167fc326e1a7943075d5fc7d2a419be2e4e861100366a9f3ca0a7b0825500920d8588787604051808060200183600460200280838360005b83811015610c02578181015183820152602001610bea565b50505050905001828103825284818151815260200191508051906020019080838360005b83811015610c3e578181015183820152602001610c26565b50505050905090810190601f168015610c6b5780820380516001836020036101000a031916815260200191505b50935050505060405180910390a2600201805460ff1961ff00199091166101001716600190811790915533600090815260208281526040822083018054808501825590835291200192909255509050610904565b610cc761113f565b6001600160a01b0316610cd8610d7d565b6001600160a01b031614610d33576040805162461bcd60e51b815260206004820181905260248201527f4f776e61626c653a2063616c6c6572206973206e6f7420746865206f776e6572604482015290519081900360640190fd5b600080546040516001600160a01b03909116907f8be0079c531659141344cd1fd0a4f28419497f9722a3daafe3b4186f6b6457e0908390a3600080546001600160a01b0319169055565b6000546001600160a01b031690565b6001600160a01b038216600090815260016020818152604080842085855282529283902080548451600294821615610100026000190190911693909304601f81018390048302840183019094528383526060939091830182828015610e325780601f10610e0757610100808354040283529160200191610e32565b820191906000526020600020905b815481529060010190602001808311610e1557829003601f168201915b5050505050905092915050565b6002546001600160a01b031690565b6000610e5861113f565b6001600160a01b0316610e69610d7d565b6001600160a01b031614610ec4576040805162461bcd60e51b815260206004820181905260248201527f4f776e61626c653a2063616c6c6572206973206e6f7420746865206f776e6572604482015290519081900360640190fd5b6001600160a01b038216610ed757600080fd5b50600280546001600160a01b0383166001600160a01b03199091161790556001919050565b6001600160a01b038216600090815260016020819052604082200154606090831015611010576001600160a01b0384166000908152600160208190526040822001805485908110610f4957fe5b60009182526020808320909101546001600160a01b03881683526001808352604080852083865284529384902080548551601f60026000196101008588161502019093169290920491820186900486028101860190965280865292955093909284928391830182828015610ffe5780601f10610fd357610100808354040283529160200191610ffe565b820191906000526020600020905b815481529060010190602001808311610fe157829003601f168201915b50505050509050935093505050611024565b505060408051602081019091526000808252905b9250929050565b61103361113f565b6001600160a01b0316611044610d7d565b6001600160a01b03161461109f576040805162461bcd60e51b815260206004820181905260248201527f4f776e61626c653a2063616c6c6572206973206e6f7420746865206f776e6572604482015290519081900360640190fd5b6001600160a01b0381166110e45760405162461bcd60e51b81526004018080602001828103825260268152602001806111f56026913960400191505060405180910390fd5b600080546040516001600160a01b03808516939216917f8be0079c531659141344cd1fd0a4f28419497f9722a3daafe3b4186f6b6457e091a3600080546001600160a01b0319166001600160a01b0392909216919091179055565b3390565b60405180608001604052806004906020820280368337509192915050565b828054600181600116156101000203166002900490600052602060002090601f016020900481019282601f106111a257805160ff19168380011785556111cf565b828001600101855582156111cf579182015b828111156111cf5782518255916020019190600101906111b4565b506111db9291506111df565b5090565b5b808211156111db57600081556001016111e056fe4f776e61626c653a206e6577206f776e657220697320746865207a65726f2061646472657373a2646970667358221220c5925dda6345789a52984f55e5b588d0df5978f2585dce6675ad552b2e5e27ed64736f6c63430007010033",
  "immutableReferences": {},
  "source": "pragma solidity ^0.7.1;\n//SPDX-License-Identifier: UNLICENSED\n\nimport \"./Interfaces/ITrustAnchorManager.sol\";\nimport \"@openzeppelin/contracts/access/Ownable.sol\";\n\n/// @dev\n/// | The Trust Anchor Extra Data [Generic] reference contract\n/// | This contract is an example of the type of parameters most useful in a Data Retrieval context. Primarily, it is the ip addresses that are associated to a variable number of endpoints.\n/// | Endpoint names are also part of the context to have a human-readable structure, and this name is keccak hashed for future quick lookups internally.\n\n\ncontract TrustAnchorExtraData_Generic is Ownable {\n    /// @dev Event for Data Retrieval Endpoint is Enabled for a specific Endpoint name.\n    event EVT_setTrustAnchorDataRetrievalEndpointIsEnabled(address indexed _trustAnchorAddress, string _endpointName, bool _isEnabled);\n\n    /// @dev Event for Data Retrieval Parameters being created by a Trust Anchor.\n    event EVT_setDataRetrievalParametersCreated(address indexed _trustAnchorAddress, string _endpointName,  uint8[4] _ipv4Address);\n\n    /// @dev Event for Data Retrieval Parameters being updated by a Trust Anchor.\n    event EVT_setDataRetrievalParametersUpdated(address indexed _trustAnchorAddress, string _endpointName,  uint8[4] _ipv4Address);\n\n    /// @dev Struct for a Trust Anchor data retrieval ip address endpoints with a string to associated names.\n    struct endpoint {\n        string endpointName;\n        uint8[4] ipv4Address;\n\n        bool isEnabled;\n        bool doesExist;\n    }\n\n    /// @dev Struct for a Trust Anchor data retrieval parameters.\n    struct trustAnchorDataRetrievalParameters {\n        mapping(bytes32 => endpoint) keccakHash_to_dataRetrievalEndpoint;\n        bytes32[] dataRetrievalEndpointHashArray;\n    }\n\n    /// @dev Mapping for a Trust Anchor to its generic extraData parameters.\n    mapping(address => trustAnchorDataRetrievalParameters) extraData_dataRetrievalParameters;\n\n    /// @dev The Trust Anchor Manager address that this contract is bound to.\n    address trustAnchorManagerAddress = address(0);\n\n    /// @dev Initializes this contract with the owner set to the calling public address.\n\n    constructor() Ownable() {\n    }\n\n    /// @param _trustAnchorManagerAddress The smart contract address for the Trust Anchor Manager that should be linked.\n    /// @dev Links Trust Anchor Manager to this contract's function flow.\n    /// @return result\n    ///    | false: [ will never return false due to require() ]\n    ///    | true: trust anchor manager address set correctly\n\n    function setTrustAnchorManagerAddress(address _trustAnchorManagerAddress) public onlyOwner returns (bool result) {\n        require(_trustAnchorManagerAddress != address(0));\n\n        trustAnchorManagerAddress = _trustAnchorManagerAddress;\n\n        //trust anchor manager address set correctly\n        return true;\n    }\n\n    /// @dev Gets the Trust Anchor Manager associated to this contract.\n    /// @return result trust anchor manager address\n\n    function getTrustAnchorManagerAddress() public view returns (address result) {\n        //get trust anchor manager address\n        return trustAnchorManagerAddress;\n    }\n\n    /// @param _trustAnchorAddress The smart contract address that is checked for extraData availability.\n    /// @dev Checks whether a specific Trust Anchor has extraData associated to it.\n    /// @return result\n    ///    | false: trust anchor has no extraData parameters allocated\n    ///    | true: trust anchor does has extraData parameters allocated\n\n    function doesTrustAnchorHaveExtraData(address _trustAnchorAddress) public view returns (bool result) {\n        if (extraData_dataRetrievalParameters[_trustAnchorAddress].dataRetrievalEndpointHashArray.length > 0) {\n            //trust anchor does has extraData parameters allocated\n            return true;\n        } else {\n            //trust anchor has no extraData parameters allocated\n            return false;\n        }\n    }\n\n    /// @param _endpointName The name of the endpoint.\n    /// @param _ipv4Address The ipv4 address, an array of 4 uint8's (0-255) corresponding to w.x.y.z components of an ip address.\n    /// @dev Checks whether a specific Trust Anchor has \"generic\" extraData associated to it with a specific endpoint name, updates if necessary, and returns the status. Sets the endpoint to \"enabled\" status if it's being set for the first time.\n    /// @notice Must be called by the Trust Anchor that wants to set their associated generic data.\n    /// @return result\n    ///    | 0: trust anchor is not verified\n    ///    | 1: endpoint set for the first time\n    ///    | 2: endpoint updated\n\n    function setTrustAnchorDataRetrievalParameters(string memory _endpointName, uint8[4] memory _ipv4Address) public returns (uint8 result) {\n        bytes32 endpointKeccak = keccak256(abi.encodePacked(_endpointName));\n\n        ITrustAnchorManager trustAnchorManager = ITrustAnchorManager(trustAnchorManagerAddress);\n\n        // check whether trust Anchor manager is verified\n        if (trustAnchorManager.isTrustAnchorVerified(msg.sender)) {\n            // get the endpoint if it already exists, otherwise create a new endpoint.\n            endpoint storage newEndpoint = extraData_dataRetrievalParameters[msg.sender].keccakHash_to_dataRetrievalEndpoint[endpointKeccak];\n\n            // set the parameters based on inputs.\n            newEndpoint.endpointName = _endpointName;\n\n            newEndpoint.ipv4Address[0] = _ipv4Address[0];\n            newEndpoint.ipv4Address[1] = _ipv4Address[1];\n            newEndpoint.ipv4Address[2] = _ipv4Address[2];\n            newEndpoint.ipv4Address[3] = _ipv4Address[3];\n\n            // checks whether this particular endpoint already exists for this Trust Anchor.\n            if (newEndpoint.doesExist == true) {\n                emit EVT_setDataRetrievalParametersUpdated(msg.sender, _endpointName, _ipv4Address);\n                //endpoint updated\n                return 2;\n            } else {\n                emit EVT_setDataRetrievalParametersCreated(msg.sender, _endpointName, _ipv4Address);\n                // if endpoint doesn't already exist, set the parameters required for further lookups.\n                newEndpoint.doesExist = true;\n                newEndpoint.isEnabled = true;\n\n                // pushes the new endpointKeccak to the endpoint array.\n                extraData_dataRetrievalParameters[msg.sender].dataRetrievalEndpointHashArray.push(endpointKeccak);\n\n                //endpoint set for the first time\n                return 1;\n            }\n        } else {\n            //trust anchor is not verified\n            return 0;\n        }\n    }\n\n    /// @param _endpointName The name of the endpoint.\n    /// @param _isEnabled The boolean yes/no of whether this endpoint should be set to enabled or not.\n    /// @dev Checks whether a specific Trust Anchor has \"generic\" extraData associated to it with a specific endpoint name, and updates the isEnabled if it already exists, and returns the status.\n    /// @notice Must be called by the Trust Anchor that wants to set their associated generic data.\n    /// @return result\n    ///    | 0: trust anchor is not verified\n    ///    | 1: endpoint does not exist\n    ///    | 2: endpoint's enabled status updated\n\n    function setTrustAnchorDataRetrievalEndpointIsEnabled(string memory _endpointName, bool _isEnabled) public returns (uint8 result) {\n        bytes32 endpointKeccak = keccak256(abi.encodePacked(_endpointName));\n\n        ITrustAnchorManager trustAnchorManager = ITrustAnchorManager(trustAnchorManagerAddress);\n\n        // check whether trust Anchor manager is verified\n        if (trustAnchorManager.isTrustAnchorVerified(msg.sender)) {\n\n            // get the endpoint if it already exists.\n            endpoint storage existingEndpoint = extraData_dataRetrievalParameters[msg.sender].keccakHash_to_dataRetrievalEndpoint[endpointKeccak];\n\n            // if this endpoint already exists, set the isEnabled flag based on input parameters.\n            if (existingEndpoint.doesExist == true) {\n                emit EVT_setTrustAnchorDataRetrievalEndpointIsEnabled(msg.sender, _endpointName, _isEnabled);\n\n                existingEndpoint.isEnabled = _isEnabled;\n\n                //endpoint's enabled status updated\n                return 2;\n            } else {\n                //endpoint does not exist\n                return 1;\n            }\n        } else {\n            //trust anchor is not verified\n            return 0;\n        }\n    }\n\n    /// @param _trustAnchorAddress The trust anchor address related to this extraData.\n    /// @dev Gets the number of endpoints associated to this Trust Anchor.\n    /// @return result the number of endpoints associated to this Trust Anchor.\n\n    function getTrustAnchorNumberOfEndpoints(address _trustAnchorAddress) public view returns (uint256 result) {\n        return extraData_dataRetrievalParameters[_trustAnchorAddress].dataRetrievalEndpointHashArray.length;\n    }\n\n    /// @param _trustAnchorAddress The trust anchor address related to this extraData.\n    /// @param _index The index within this Trust Anchor's endpoint array.\n    /// @dev Gets the endpoint name for a specific index within the Trust Anchor's endpoint array.\n    /// @notice Checks to make sure that the _index parameter is not out of bounds.\n    /// @return doesExist whether the endpoint data exists, ( false, \"\" ): endpoint data does not exist\n    /// @return endpointName the endpoint name\n\n    function getTrustAnchorEndpointNameByIndex(address _trustAnchorAddress, uint256 _index) public view returns (bool doesExist, string memory endpointName) {\n        // checks whether this particular endpoint already exists for this Trust Anchor.\n        if (extraData_dataRetrievalParameters[_trustAnchorAddress].dataRetrievalEndpointHashArray.length > _index) {\n            bytes32 endpointKeccak = extraData_dataRetrievalParameters[_trustAnchorAddress].dataRetrievalEndpointHashArray[_index];\n\n            endpoint storage existingEndpoint = extraData_dataRetrievalParameters[_trustAnchorAddress].keccakHash_to_dataRetrievalEndpoint[endpointKeccak];\n\n            //endpoint data exists, returns the endpoint name\n            return (true, existingEndpoint.endpointName);\n        } else {\n            //endpoint data does not exist\n            return (false, \"\");\n        }\n    }\n\n    /// @param _trustAnchorAddress The trust anchor address related to this extraData.\n    /// @param _endpointName The name of the endpoint.\n    /// @dev Gets the data retrieval parameters (whether it exists, the actual endpoint data, and whether it's enabled) for this particular _endpointName.\n    /// @return doesExist whether the endpoint data exists, ( false, [0, 0, 0, 0], false ): endpoint data does not exist\n    /// @return ipv4Address the ipv4 components\n    /// @return isEnabled whether this endpoint is enabled\n\n    function getTrustAnchorDataRetrievalParameters(address _trustAnchorAddress, string memory _endpointName) public view returns (bool doesExist, uint8[4] memory ipv4Address, bool isEnabled) {\n        bytes32 endpointKeccak = keccak256(abi.encodePacked(_endpointName));\n\n        // gets the endpoint.\n        endpoint storage existingEndpoint = extraData_dataRetrievalParameters[_trustAnchorAddress].keccakHash_to_dataRetrievalEndpoint[endpointKeccak];\n\n        // checks whether this particular endpoint already exists for this Trust Anchor.\n        if (existingEndpoint.doesExist == true) {\n            //if the endpoint exists, the extraData ip address parameters for this Trust Anchor have a proper endpoint.\n\n            //endpoint data exists, and the return components\n            return (true, existingEndpoint.ipv4Address, existingEndpoint.isEnabled);\n        } else {\n            //endpoint data does not exist\n            return (false, [0,0,0,0], false);\n        }\n    }\n\n    /// @param _trustAnchorAddress The trust anchor address related to this extraData.\n    /// @param _endpointKeccak The endpoint keccak\n    /// @dev Gets the endpoint name for a specific endpoint keccak for a Trust Anchor.\n    /// @return endpointName endpoint data exists, returns the endpoint name\n\n    function getTrustAnchorEndpointNameByEndpointKeccak(address _trustAnchorAddress, bytes32 _endpointKeccak) public view returns (string memory endpointName) {\n        //returns the endpoint name\n        return extraData_dataRetrievalParameters[_trustAnchorAddress].keccakHash_to_dataRetrievalEndpoint[_endpointKeccak].endpointName;\n    }\n}\n",
  "sourcePath": "/home/ubuntu/shyft_shyftcorecontracts/contracts/TrustAnchorExtraData_Generic.sol",
  "compiler": {
    "name": "solc",
    "version": "0.7.1+commit.f4a555be.Emscripten.clang"
  },
  "schemaVersion": "3.4.1",
  "updatedAt": "2022-02-24T18:28:45.649Z",
  "networkType": "ethereum",
  "devdoc": {
    "details": "| The Trust Anchor Extra Data [Generic] reference contract | This contract is an example of the type of parameters most useful in a Data Retrieval context. Primarily, it is the ip addresses that are associated to a variable number of endpoints. | Endpoint names are also part of the context to have a human-readable structure, and this name is keccak hashed for future quick lookups internally.",
    "events": {
      "EVT_setDataRetrievalParametersCreated(address,string,uint8[4])": {
        "details": "Event for Data Retrieval Parameters being created by a Trust Anchor."
      },
      "EVT_setDataRetrievalParametersUpdated(address,string,uint8[4])": {
        "details": "Event for Data Retrieval Parameters being updated by a Trust Anchor."
      },
      "EVT_setTrustAnchorDataRetrievalEndpointIsEnabled(address,string,bool)": {
        "details": "Event for Data Retrieval Endpoint is Enabled for a specific Endpoint name."
      }
    },
    "kind": "dev",
    "methods": {
      "constructor": {
        "details": "Initializes this contract with the owner set to the calling public address."
      },
      "doesTrustAnchorHaveExtraData(address)": {
        "details": "Checks whether a specific Trust Anchor has extraData associated to it.",
        "params": {
          "_trustAnchorAddress": "The smart contract address that is checked for extraData availability."
        },
        "returns": {
          "result": "   | false: trust anchor has no extraData parameters allocated    | true: trust anchor does has extraData parameters allocated"
        }
      },
      "getTrustAnchorDataRetrievalParameters(address,string)": {
        "details": "Gets the data retrieval parameters (whether it exists, the actual endpoint data, and whether it's enabled) for this particular _endpointName.",
        "params": {
          "_endpointName": "The name of the endpoint.",
          "_trustAnchorAddress": "The trust anchor address related to this extraData."
        },
        "returns": {
          "doesExist": "whether the endpoint data exists, ( false, [0, 0, 0, 0], false ): endpoint data does not exist",
          "ipv4Address": "the ipv4 components",
          "isEnabled": "whether this endpoint is enabled"
        }
      },
      "getTrustAnchorEndpointNameByEndpointKeccak(address,bytes32)": {
        "details": "Gets the endpoint name for a specific endpoint keccak for a Trust Anchor.",
        "params": {
          "_endpointKeccak": "The endpoint keccak",
          "_trustAnchorAddress": "The trust anchor address related to this extraData."
        },
        "returns": {
          "endpointName": "endpoint data exists, returns the endpoint name"
        }
      },
      "getTrustAnchorEndpointNameByIndex(address,uint256)": {
        "details": "Gets the endpoint name for a specific index within the Trust Anchor's endpoint array.",
        "params": {
          "_index": "The index within this Trust Anchor's endpoint array.",
          "_trustAnchorAddress": "The trust anchor address related to this extraData."
        },
        "returns": {
          "doesExist": "whether the endpoint data exists, ( false, \"\" ): endpoint data does not exist",
          "endpointName": "the endpoint name"
        }
      },
      "getTrustAnchorManagerAddress()": {
        "details": "Gets the Trust Anchor Manager associated to this contract.",
        "returns": {
          "result": "trust anchor manager address"
        }
      },
      "getTrustAnchorNumberOfEndpoints(address)": {
        "details": "Gets the number of endpoints associated to this Trust Anchor.",
        "params": {
          "_trustAnchorAddress": "The trust anchor address related to this extraData."
        },
        "returns": {
          "result": "the number of endpoints associated to this Trust Anchor."
        }
      },
      "owner()": {
        "details": "Returns the address of the current owner."
      },
      "renounceOwnership()": {
        "details": "Leaves the contract without owner. It will not be possible to call `onlyOwner` functions anymore. Can only be called by the current owner. NOTE: Renouncing ownership will leave the contract without an owner, thereby removing any functionality that is only available to the owner."
      },
      "setTrustAnchorDataRetrievalEndpointIsEnabled(string,bool)": {
        "details": "Checks whether a specific Trust Anchor has \"generic\" extraData associated to it with a specific endpoint name, and updates the isEnabled if it already exists, and returns the status.",
        "params": {
          "_endpointName": "The name of the endpoint.",
          "_isEnabled": "The boolean yes/no of whether this endpoint should be set to enabled or not."
        },
        "returns": {
          "result": "   | 0: trust anchor is not verified    | 1: endpoint does not exist    | 2: endpoint's enabled status updated"
        }
      },
      "setTrustAnchorDataRetrievalParameters(string,uint8[4])": {
        "details": "Checks whether a specific Trust Anchor has \"generic\" extraData associated to it with a specific endpoint name, updates if necessary, and returns the status. Sets the endpoint to \"enabled\" status if it's being set for the first time.",
        "params": {
          "_endpointName": "The name of the endpoint.",
          "_ipv4Address": "The ipv4 address, an array of 4 uint8's (0-255) corresponding to w.x.y.z components of an ip address."
        },
        "returns": {
          "result": "   | 0: trust anchor is not verified    | 1: endpoint set for the first time    | 2: endpoint updated"
        }
      },
      "setTrustAnchorManagerAddress(address)": {
        "details": "Links Trust Anchor Manager to this contract's function flow.",
        "params": {
          "_trustAnchorManagerAddress": "The smart contract address for the Trust Anchor Manager that should be linked."
        },
        "returns": {
          "result": "   | false: [ will never return false due to require() ]    | true: trust anchor manager address set correctly"
        }
      },
      "transferOwnership(address)": {
        "details": "Transfers ownership of the contract to a new account (`newOwner`). Can only be called by the current owner."
      }
    },
    "stateVariables": {
      "extraData_dataRetrievalParameters": {
        "details": "Mapping for a Trust Anchor to its generic extraData parameters."
      },
      "trustAnchorManagerAddress": {
        "details": "The Trust Anchor Manager address that this contract is bound to."
      }
    },
    "version": 1
  },
  "userdoc": {
    "kind": "user",
    "methods": {
      "getTrustAnchorEndpointNameByIndex(address,uint256)": {
        "notice": "Checks to make sure that the _index parameter is not out of bounds."
      },
      "setTrustAnchorDataRetrievalEndpointIsEnabled(string,bool)": {
        "notice": "Must be called by the Trust Anchor that wants to set their associated generic data."
      },
      "setTrustAnchorDataRetrievalParameters(string,uint8[4])": {
        "notice": "Must be called by the Trust Anchor that wants to set their associated generic data."
      }
    },
    "version": 1
  }
}